:020000022000DC
:1060000000FD0020B59B0300DD9B0300DF9B030028
:10601000E19B0300E39B0300E59B030000000000FD
:10602000000000000000000000000000E79B0300EB
:10603000E99B030000000000EB9B0300ED9B0300C5
:10604000EF9B0300EF9B0300EF9B0300EF9B03001C
:10605000EF9B0300EF9B03006D700200EF9B0300BA
:10606000EF9B0300EF9B0300E18A0300EF9B03001B
:10607000EF9B0300EF9B0300EF9B0300EF9B0300EC
:10608000EF9B0300BD090300D54D0300EF9B030008
:106090008D0A0300EF9B030035750200EF9B0300A0
:1060A000EF9B0300EF9B0300EF9B0300EF9B0300BC
:1060B000EF9B0300EF9B03000000000000000000C6
:1060C000EF9B0300EF9B0300EF9B0300EF9B03009C
:1060D000EF9B0300EF9B0300EF9B03000000000019
:1060E00000000000000000000000000000000000B0
:1060F00000000000000000000000000000000000A0
:10610000000000000000000000000000000000008F
:10611000000000000000000000000000000000007F
:10612000000000000000000000000000000000006F
:10613000000000000000000000000000000000005F
:10614000000000000000000000000000000000004F
:10615000000000000000000000000000000000003F
:10616000000000000000000000000000000000002F
:10617000000000000000000000000000000000001F
:10618000000000000000000000000000000000000F
:1061900000000000000000000000000000000000FF
:1061A00000000000000000000000000000000000EF
:1061B00000000000000000000000000000000000DF
:1061C00000000000000000000000000000000000CF
:1061D00000000000000000000000000000000000BF
:1061E00000000000000000000000000000000000AF
:1061F000000000000000000000000000000000009F
:1062000010B5054C237833B9044B13B10448AFF3F0
:1062100000800123237010BDF02E0020000000003C
:10622000DCCC03000C4B43B10C480D4910B5AFF367
:1062300000800C48036823B910BD0A48036833B9CD
:106240007047094B002BF7D0BDE810401847064BAC
:10625000002BF5D0184700BF00000000DCCC030085
:10626000F42E0020EC2E002000000000154B002B27
:1062700008BF134B9D46A3F5803A00218B460F467D
:106280001348144A121A15F0B5F80F4B002B00D022
:1062900098470E4B002B00D09847002000210400A7
:1062A0000D000D48002802D00C48AFF3008015F017
:1062B00053F82000290000F08FFC15F039F800BFDA
:1062C0000000080000FD00200000000000000000A9
:1062D000F02E00208051002000000000000000008F
:1062E00041DF704738B5174A1748002102F06CF9B2
:1062F00020B1164A40F2431113F087FC144D124CA2
:106300002988208808F008F820B1104A4FF4A271BB
:1063100013F07BFC2988208808F07AF820B10B4A1A
:1063200040F2451113F071FC0621208808F0E4F8D2
:1063300030B1064A4FF4A371BDE8384013F065BC94
:1063400038BD00BF5563020084320020AAB70300A5
:106350000C2F0020F0B50378714D0A2BC7B004460E
:106360001DD00B2B49D0042B40F0B2802B68580471
:106370002FD56C4B1B68032B2BDD2F216A4815F0A2
:106380000DF9002830D02F21674815F007F9411C7E
:10639000664B674AD3F804350092E12216E02B6879
:1063A0005C0416D55F4B1B68032B12DD2F215E4862
:1063B00015F0F4F878B12F215B4815F0EFF8411C87
:1063C0005A4B5C4AD3F804350092DD2204200FF0CA
:1063D00073FB47B0F0BD5C21534815F0DFF808B1FE
:1063E0005C21E9E75049EBE75C214F4815F0D6F80E
:1063F00008B15C21C8E74C49CAE72B68590430D57D
:10640000484B1B68032B2CDD4B4B4768196805AEC6
:106410000023FA5C100902F00F02085C06F8130072
:10642000885C06EB43020133102B5070F1D100233E
:106430002F213D4886F8203015F0B0F8002835D0DF
:106440002F21394815F0AAF8411C384B3B4AD3F8A4
:10645000043501923A4A00920296E52204200FF098
:106460002BFB2B685A0418D52E4B1B68032B14DD0D
:106470002F212D4815F092F808B32F212A4815F046
:106480008DF8411C294B227AD3F8043501922D4A0C
:1064900000920420E6220FF00FFB207A2A4B61685D
:1064A000102203EB001014F09AFF92E75C211E48C3
:1064B00015F074F808B15C21C3E71B49C5E75C21FE
:1064C000194815F06BF808B15C21D7E71649D9E7F0
:1064D0002B685B047FF57DAF124B1B68032B7FF7A6
:1064E00078AF2F21104815F059F880B12F210E48B0
:1064F00015F054F8411C0D4B2278D3F80435019265
:10650000124A00920420EB220FF0D6FA61E75C21D8
:10651000054815F043F808B15C21E8E70249EAE7CD
:10652000602E00205C2E0020AAB70300001001405E
:10653000DFB80300BDB80300642E0020FBB80300E1
:106540000BB9030013B90300C432002022B90300C1
:1065500010B58AB050238DF80C3042238DF80D30E1
:1065600052238DF80F3045238DF810308DF81430FC
:106570008DF817308DF81A3059238DF81B301B4BCE
:106580004D221B888DF811204F228DF81220ADF876
:10659000223054229DF824308DF813208DF81820D5
:1065A0004B228DF8192003F0FE0300225F2462F3D2
:1065B00041038DF80E408DF81540ADF81C204E2497
:1065C000ADF81E20ADF820208DF82430009103ABEB
:1065D0000146052206488DF8164002F037FB18B137
:1065E000044A8E2113F011FB0AB010BDA02D00202B
:1065F00010310020AAB7030037B5A24C2378012B35
:10660000254600F0F18008D3022B00F06081784627
:1066100003B0BDE830400AF057BD31282FD007DC69
:106620000A2803D00D2801D0013009D103B030BDB4
:1066300033284FD027DB342879D0352800F0A480C8
:10664000914B1B685904F1D5904B1B68032BEDDD72
:106650002F218F4814F0A2FF002800F0BC802F21CA
:106660008B4814F09BFF411C8A4B8B4AD3F80435AE
:10667000009204204FF48F720FF01EFAD6E7874B7A
:1066800001221A70D2E7804B1B685A0416D57F4B43
:106690001B68032B12DD2F217D4814F07FFF80B192
:1066A0002F217B4814F07AFF411C7A4B7C4AD3F8A7
:1066B000043500920420FF220FF0FEF901232B7015
:1066C000B4E75C21724814F069FF08B15C21E8E787
:1066D0006F49EAE7734801F0BDFF04460028A5D0E2
:1066E000694B1B685B04A1D5684B1B68002B9DDDC3
:1066F0002F21674814F052FF80B12F21644814F015
:106700004DFF411C634B684AD3F804350092019455
:1067100040F2071201200FF0CFF987E75C215C48B7
:1067200014F03CFF08B15C21E8E75949EAE75D480D
:1067300001F0B2FF044600283FF478AF524B1B68CB
:106740005D047FF573AF514B1B68002B7FF76EAF75
:106750002F214F4814F022FF68B12F214C4814F02C
:106760001DFF411C4B4B514AD3F804350092019454
:1067700040F20F12CEE75C21454814F00FFF08B13C
:106780005C21EBE74249EDE73F4B1B68580417D506
:106790003E4B1B68032B13DD2F213D4814F0FEFEFA
:1067A00080B12F213A4814F0F9FE411C394B404A80
:1067B000D3F80435009204204FF48A720FF07CF96C
:1067C00002237CE75C21324814F0E8FE08B15C212A
:1067D000E8E72F49EAE75C212D4814F0DFFE08B115
:1067E0005C213DE72A493FE7303809283FF61EAFD4
:1067F0002C4B81B2188807F02DFC234B04461B68F4
:1068000028B35A0418D5214B1B68002B14DD2F2107
:106810001F4814F0C3FE88B12F211D4814F0BEFE9E
:10682000411C1C4B234AD3F80435009201944FF4C9
:10683000957201200FF040F9002340E75C211448D5
:1068400014F0ACFE08B15C21E7E71149E9E75B040D
:10685000F2D50E4B1B68032BEEDD2F210C4814F0F4
:106860009DFE58B32F210A4814F098FE411C094B95
:10687000114AD3F80435009204204FF497720FF0B8
:106880001BF9D9E7F4320020602E00205C2E002096
:10689000AAB70300001001403BB60300162F0020EA
:1068A00030B903008432002057B9030082B90300D5
:1068B000AEB90300D4B90300FDB903005C210A4856
:1068C00014F06CFE08B15C21CDE70749CFE7303802
:1068D00002283FF6ABAE054B042103EB0010FFF797
:1068E00037FE00232370A1E6AAB70300C4320020BC
:1068F000F0B5037889B004460A2B15D8DFE813F009
:106900000B0016003B0014001400140014000C01CE
:106910001400B6005D009E4D2978012904D1043091
:10692000FFF716FE00232B7009B0F0BD994B1B68D2
:106930005D04F9D5984B1B68032BF5DD2F21974893
:1069400014F02CFE70B12F21944814F027FE411C46
:10695000934B944AD3F8043500929E2204200FF002
:10696000ABF8E1E75C218D4814F018FE08B15C211A
:10697000EAE78A49ECE7874B1B685C04D4D5864B71
:106980001B68032BD0DD2F21844814F007FE58B17B
:106990002F21824814F002FE411C814B824AD3F819
:1069A00004350092A222D9E75C217C4814F0F6FD60
:1069B00008B15C21EDE77949EFE77C4D7C4F297800
:1069C0007C4E07EB4101308809F018F918B1734A81
:1069D000A72113F01AF92B78774AE0687749C08A23
:1069E0000988013302EB4303A26809F013FC18B1D4
:1069F0006A4AAB2113F009F9664B1B6858041DD590
:106A0000654B1B68032B19DD2F21644814F0C6FD6C
:106A100018B32F21614814F0C1FD411C2A78604B46
:106A200037F81220D3F804350292E268D28A019234
:106A3000634A00920420B0220FF03EF82B78614A9E
:106A400001332B7012883388C82113444FF4F0109F
:106A50000422338000F0AAFA66E75C214F4814F064
:106A60009DFD08B15C21D5E74C49D7E710230022F2
:106A70000121406802F018F9464B054630B31B6807
:106A800059047FF551AF444B1B68002B7FF74CAF87
:106A90002F21424814F082FD78B12F213F4814F095
:106AA0007DFD411C3E4B484AD3F8043500920195C8
:106AB000C02201200FF000F836E75C21374814F0BF
:106AC0006DFD08B15C21E9E73449EBE73D4A1B68FD
:106AD000217A11805A047FF527AF2F4B1B68032BB7
:106AE0007FF722AF2F212D4814F058FD58B12F21E8
:106AF0002A4814F053FD411C294B344AD3F804357D
:106B00000092C5222AE75C21244814F047FD08B111
:106B10005C21EDE72149EFE72D4B04AA03F11007B3
:106B2000164618685968154603C50833BB422A46FD
:106B3000F7D110223146606802F0C2F818B1174A46
:106B4000CE2113F062F8134B1B685B047FF5ECAEAB
:106B5000114B1B68032B7FF7E7AE2F210F4814F072
:106B60001DFD58B12F210D4814F018FD411C0C4B90
:106B7000184AD3F804350092CF22EFE65C2107488B
:106B800014F00CFD08B15C21EDE70449EFE700BF0C
:106B9000162F0020602E00205C2E0020AAB70300D4
:106BA00000100140D2B70300F7B70300242F0020E4
:106BB0000E2F0020A02D0020182F0020222F0020B3
:106BC00017B80300262F002047B803007BB8030046
:106BD0001CB6030098B8030000B5814C814A93B0FD
:106BE00004214FF4C0400EF04DFF2268520419D525
:106BF0007D4B1B68032B15DD2F217C4814F0CEFC48
:106C0000002800F0DA802F21784814F0C7FC411CDE
:106C1000774B784AD3F804350092042040F2611291
:106C20000EF04AFF0AF080F820B1704A40F263117A
:106C300012F0EBFF00F0EEF900F0DCFA2422002164
:106C40000DEB020014F0D6FB01238DF8243007234E
:106C50008DF8273006238DF82C300DF10F01664B8F
:106C6000119309A800F0FEF820B1604A4FF4A97111
:106C700012F0CBFF9DF80F1039BB102205A814F0BD
:106C8000B9FB5E4B1868049004A808F06BFF20B1B4
:106C9000564A4FF4AC7112F0B8FF594A59490020D6
:106CA00009F04AF920B1514A40F2591112F0ADFFF2
:106CB0005349554B098805AA002009F0E7FA20B18D
:106CC0004A4A4FF4AD7112F0A0FF64214F4800F022
:106CD00009F94F4A1068516809AB03C3118919803B
:106CE000927A4C494C489A7001F0AEFF18B13F4A75
:106CF0007B2112F08AFF494B0093464A4649484897
:106D000009AB01F074FF18B1384A7C2112F07DFF05
:106D1000444802F02FFF0146414801F081FF18B1BD
:106D2000324A7D2112F071FF3F4801F0D7FC014645
:106D30003B4801F075FF18B12C4A7E2112F065FF27
:106D4000364802F037F818B1284A7F2112F05DFF6B
:106D50000AF0F2F900F0BAF900F06AF820B1234A1B
:106D60004FF4B97112F051FF23685B0417D51E4B25
:106D70001B68032B13DD2F211C4814F00FFC28B3D4
:106D80002F211A4814F00AFC411C194B274AD3F84A
:106D90000435009204204FF4BA720EF08DFE0021EB
:106DA0004FF4F01000F0F8F80222C8214FF4F01070
:106DB00000F0FCF8FFF794FAFCE75C210B4814F0B4
:106DC000EDFB08B15C211FE7084921E75C2107487A
:106DD00014F0E4FB08B15C21D3E70449D5E700BF18
:106DE000602E0020595A03005C2E0020AAB7030031
:106DF0000010014066B70300E56202002CB60300F4
:106E0000222F002056B703000C2F0020F965020046
:106E100030B60300282F002044320020F168020021
:106E200010310020482F0020843200203BB60300A0
:106E30000CF01ABF08B510F063FE06F0E8FF08F08A
:106E40001FFEBDE808400CF039B907B501A808F0ED
:106E5000C5FEBDF80400003018BF012003B05DF886
:106E600004FB000073B50E46054648B30CF096FED1
:106E7000044610BB08F058FE07F090FC286905F0A6
:106E8000FDFC0446C8B92B7F0193AB690093014612
:106E90006B690C484FF6FF7205F010FF044660B9AD
:106EA0002B6A03B1984710F047FD08F05DFD06F02E
:106EB000E1FDFFF7CAFF06B13070204602B070BD99
:106EC0000E24FAE7F832002010B5054C226832B1E2
:106ED00012F0CEFF002802DB23689847F8E710BDC8
:106EE00054330020154B164A10B50C46186001218A
:106EF000144809F075FF18B1134A4A2112F085FEB3
:106F0000610C0023E00341F26F728B4208BF8242A2
:106F100010D24FF47A72002314F082F80146002256
:106F20000A4809F06FFF38B1074A4B21BDE810400D
:106F300012F06BBE0521F2E710BD00BF54330020F4
:106F4000C96E02000CBA030010BA030058330020C7
:106F500038B50D4C206808B912F04AFE4FF0A04534
:106F60000A4AD5F8043512685340C5F80435236839
:106F7000013B236033B9064809F08AFF054B1B68C3
:106F8000C5F8043538BD00BF783300207C330020BD
:106F900080330020A83300204FF0A04311B1C3F884
:106FA0000C057047C3F8080570470000F8B542B3F8
:106FB000132926D9134B144D5200013A4FF0A04427
:106FC0001A602860114BD4F804251A604FF4004071
:106FD0004FF4FA760027E0FB01674FF47A72002342
:106FE0003046394614F01CF800220146084809F0E2
:106FF00009FF30B9D4F804352A6823EA0203C4F83B
:107000000435F8BD783300207C330020A8330020FD
:107010008033002008B54FF0A04303224FF4003125
:10702000C3F84427C3F808154FF48021C3F8482754
:10703000C3F808154FF40021C3F84C27C3F808150E
:10704000C3F850274FF48012C3F808250121054AE0
:10705000054809F0C5FE18B1BDE8084012F0C8BDEA
:1070600008BD00BF516F020034BA0300124B70B567
:107070000024124E124DC3F87C414FF0A043A15D95
:10708000D3F8102501238B40934311D00D49D5F837
:1070900004250B68981A48BFD01A43F2333398423C
:1070A00006D9D5F804350B60074B20461B68984776
:1070B0000134042CE1D170BD0060004038BA0300F7
:1070C00000100140A4330020A033002070B5044616
:1070D000CEB0002864D03C4D2A6852042FD53B4BDB
:1070E0001B68032B2BDD3A4B0DAE19680023E25CC5
:1070F000100902F00F02085C06F81300885C06EB2A
:1071000043020133102B5070F1D100232F2131485D
:1071100086F8203014F042FA002843D02F212D4861
:1071200014F03CFA411C2C4B2C4AD3F80435019244
:107130002B4A00920296412204200EF0BDFC2B68DF
:107140005B042DD5214B1B68032B29DD2F21214802
:1071500014F024FA00282ED02F211E4814F01EFA15
:10716000411C1D4BE27BD3F804350B92A27B0A92A3
:10717000627B0992227B0892E27A0792A27A0692B7
:10718000627A0592227A0492E2880392A28802929D
:1071900022680192134A0092042046220EF08CFCD1
:1071A0004EB070BD5C210B4814F0F8F908B15C21B9
:1071B000B5E70849B7E75C21064814F0EFF908B1D4
:1071C0005C21CAE70349CCE7602E00205C2E00203A
:1071D000642E00203CBA03000010014064BA030092
:1071E0000BB9030076BA030060DF704769DF7047B0
:1071F0000CF094BD10B588B000F04CF908B112F055
:10720000F7FC2B4B0393039B04930C22002105A84E
:1072100014F0F0F80023049A8DF8143005A9012029
:10722000FFF7E4FF08B112F0E3FC0C22002105A8EF
:1072300014F0E0F8F823049A059305A9A120FFF7BC
:10724000D5FF08B112F0D4FC04A8FFF7CDFF039BD3
:10725000049A9A4204461CD0164B1B685B0418D54E
:10726000154B1B68012B14DD2F21144814F096F9DF
:10727000A8B12F21114814F091F9411C104B049A28
:10728000D3F8043501920F4A00920220A2220EF098
:1072900013FC14B1204612F0ABFC08B010BD5C2109
:1072A000064814F07BF908B15C21E3E70349E5E700
:1072B000A02D0020602E00205C2E0020B6BA030016
:1072C00000100140E6BA030070B5EFF3108672B605
:1072D0000C4A946801239CB993600B4B0B4DD3F877
:1072E000801029401160C3F88050D3F88410516099
:1072F0004FF0FF32C3F88420047006B962B670BD47
:107300000370FAE7D450002000E100E0FC06FFBD66
:1073100010B5084B9A685AB150B9EFF3108272B6A3
:1073200005491C680C605C684C60986002B962B6E4
:1073300010BD00BFD450002000E100E001600B68E8
:1073400043604A68934204BF002343607047436828
:1073500043B1026891680B4443605268934204BF92
:107360000023436070474BDF704700001FB50D4C92
:1073700001A8FFF7F8FF70B9214602A8FFF7DEFF6A
:10738000039B002BF4D001981A685968904702A813
:10739000FFF7DDFFF4E7052801D012F029FC04B067
:1073A00010BD00BF20BB030061DF704730B5114B3B
:1073B0001B7891B0E3B1104D34240DF1020103A804
:1073C000ADF80240FFF7F0FF70B9294601A8FFF7BA
:1073D000B5FF029B002BF0D003A81A6859689047AC
:1073E00001A8FFF7B4FFF4E7052801D012F000FC74
:1073F00011B030BDAC3300202CBB030010DF704750
:1074000013B5044609496846FFF798FF019808B983
:1074100002B010BD036841682046984718B168461D
:10742000FFF795FFF2E71120F2E700BF3CBB030036
:1074300013B5044607496846FFF780FF019B0BB967
:1074400002B010BD20461A68596890476846FFF799
:107450007EFFF3E754BB03000C4991F816335A0939
:10746000EC231341DB0708D442F2020012F0C0BB48
:107470001A6842F480021A607047054B9A68002A25
:10748000F6D14FF480030B60704700BF00E100E0CD
:10749000D4500020F7B5184F3C785CBB174E01253F
:1074A00020463570FFF7ACFF112820D02046FFF7AB
:1074B000BFFF134B1868019002A800F8054DFFF7B5
:1074C00003FF104901A8FFF799FF0446B0FA80F0C6
:1074D000400938709DF80300FFF71AFF3CB90A4BCA
:1074E00034701C70FFF7B8FF2846FFF7A1FF204655
:1074F00003B0F0BD0824FAE7AE330020AD3300201E
:1075000038BB0300C10E0300AF33002007B50849A4
:107510006846FFF713FF019B13B903B05DF804FB46
:1075200058681A6890476846FFF711FFF3E700BFF5
:1075300048BB0300FFF7EABF13B5154B1B689B045C
:10754000044619D5134B1B68012B15DD2F2112485A
:1075500014F024F898B12F210F4814F01FF8411CA3
:107560000E4B227ED3F8043501920D4A0092022080
:1075700040F261120EF0A0FA207E02B010BD5C2134
:10758000054814F00BF808B15C21E5E70249E7E78C
:10759000602E00205C2E002097BE030000100140EA
:1075A000CFBE03001FB50023024601A8019302933A
:1075B00003938DF80410904705B05DF804FB0000BC
:1075C0007FB5067E4B68042E04465D680ED12B788D
:1075D000002B36D003690221DB6804309847E06B4A
:1075E0003146FFF7DFFF012004B070BD164B1B686A
:1075F0009B041BD5154B1B68032B17DD2F2114484B
:1076000013F0CCFFA0B12F21114813F0C7FF411C8C
:10761000104B227ED3F8043502922A7801920E4A4A
:107620000092042040F283220EF046FA207EDBE72F
:107630005C21074813F0B2FF08B15C21E4E704497C
:10764000E6E70220D0E700BF602E00205C2E00207D
:1076500097BE03000010014031BE030037B5044659
:10766000007E4B6802285D6828D003287DD0012861
:10767000764B40F0C3802A7812B3012A46D01B68AB
:1076800099041AD5724B1B68042B16DD2F21714803
:1076900013F084FF00285FD02F216E4813F07EFF87
:1076A000411C6D4B2A78D3F8043501926B4A009245
:1076B00005204FF4DE720EF0FFF9207E03B030BDDE
:1076C0001B689C04FAD5624B1B68042BF6DD2F2146
:1076D000604813F063FF80B12F215E4813F05EFF16
:1076E000411C5D4B5E4AD3F80435009205204FF4EF
:1076F000DA720EF0E1F90120E0E75C21554813F061
:107700004DFF08B15C21E8E75249EAE71B6898049D
:1077100017D54F4B1B68042B13DD2F214D4813F059
:107720003DFF80B12F214B4813F038FF411C4A4BDD
:107730004C4AD3F80435009205204FF4DC720EF069
:10774000BBF90220BAE75C21424813F027FF08B1D9
:107750005C21E8E73F49EAE75C213E4813F01EFF61
:1077600008B15C2199E73B499BE72B78052B1DD895
:1077700001A252F823F000BFF776020091770200D1
:107780009B770200A5770200A977020043770200E9
:107790000621E06BFFF706FFD3E70821E06BFFF758
:1077A00001FFA8E70521F9E70921F7E7274B1B6847
:1077B0009A04A0D5264B1B68032B9CDD2F2125485E
:1077C00013F0ECFE88B12F21224813F0E7FE411C94
:1077D000214B2A78D3F804350192234A00920420E1
:1077E0004FF4F0720EF068F985E75C21194813F048
:1077F000D5FE08B15C21E7E71649E9E71B689B0461
:107800007FF55BAF124B1B68032B7FF756AF2F2121
:10781000104813F0C3FE78B12F210E4813F0BEFEBE
:10782000411C0D4B2A78D3F8043501920B4A009283
:10783000042040F2E5123EE75C21064813F0AEFE5C
:1078400008B15C21E9E70349EBE700BF602E0020A7
:107850005C2E002097BE030000100140C7BC03004F
:107860009ABC0300B3BC0300DCBC030037B504467C
:10787000007E052829D14B685D682B78032B5AD8E8
:10788000DFE803F0022E55573F4B1B68990417D5CC
:107890003E4B1B68042B13DD2F213D4813F07EFE69
:1078A000A8B12F213A4813F079FE411C394B3A4ACE
:1078B000D3F804350092052040F28D120EF0FCF84A
:1078C0000021E06BFFF76EFE012003B030BD5C21AC
:1078D0002F4813F063FE08B15C21E3E72C49E5E78C
:1078E000294B1B689A0417D5284B1B68042B13DD02
:1078F0002F21274813F052FE80B12F21244813F086
:107900004DFE411C234B254AD3F804350092052037
:107910004FF4C9720EF0D0F80121D2E75C211C4867
:1079200013F03CFE08B15C21E8E71949EAE70221BF
:10793000C7E70321C5E7144B1B689B04C4D5134B51
:107940001B68012BC0DD2F21114813F027FE88B1E1
:107950002F210F4813F022FE411C0E4B2A78D3F83A
:10796000043501920E4A009202204FF4D1720EF0BB
:10797000A3F8A9E75C21064813F010FE08B15C21CA
:10798000E7E70349E9E700BF602E00205C2E0020F6
:1079900097BE030000100140CFBD0300F1BD0300FE
:1079A00015BE030010B5037E032B044603D3042B3E
:1079B00005D9052B0CD0784609F086FB0CE003694D
:1079C00002210430DB6898470421E06BFFF7EAFDF1
:1079D0000A21E06BFFF7E6FD012010BD70B50385BD
:1079E000012316464FF6FF750C4A80F82A30022311
:1079F00001844584426280F82B3004460CF094F9EF
:107A00002686E062658604F11C0007F0CFF820B1FD
:107A10007846BDE8704009F057BB70BDB133002017
:107A200037B5037E022B04460D4614D18B88412BBB
:107A300002D9784609F048FBAA881B48A91D13F013
:107A4000CEFC2046AB8848F260021221FFF7C6FF49
:107A5000042003B030BD154B1B689B0419D5144B93
:107A60001B68012B15DD2F21124813F097FD90B1F3
:107A70002F21104813F092FD411C0F4B227ED3F8AA
:107A8000043501920D4A0092022040F2D5220EF0F8
:107A900013F8207EDDE75C21064813F07FFD08B176
:107AA0005C21E6E70349E8E7B1330020602E0020BF
:107AB0005C2E002097BE0300001001404BBD030068
:107AC00010B5037E012B04460ED110220431094863
:107AD00013F085FC2046102348F2630248F262014D
:107AE000FFF77CFF032010BD784609F0EDFA207EF9
:107AF00010BD00BFB133002013B5037E022B044636
:107B00000CD11B4B0A791A7048F26101012348F22B
:107B10006302FFF763FF032002B010BD154B1B6823
:107B20009B0419D5144B1B68012B15DD2F2113481D
:107B300013F034FD90B12F21104813F02FFD411C9C
:107B40000F4B227ED3F8043501920E4A0092022098
:107B500040F23F220DF0B0FF0120DDE75C21074835
:107B600013F01CFD08B15C21E6E70449E8E700BF1B
:107B7000B1330020602E00205C2E002097BE030051
:107B80000010014070BC030013B5037E012B0446B6
:107B900009D1002348F2670248F26401FFF71EFF93
:107BA000052002B010BD144B1B689B0419D5134B64
:107BB0001B68012B15DD2F21114813F0EFFC90B14C
:107BC0002F210F4813F0EAFC411C0E4B227ED3F804
:107BD000043501920C4A009202204FF4BF720DF05E
:107BE0006BFF207EDDE75C21054813F0D7FC08B170
:107BF0005C21E6E70249E8E7602E00205C2E0020C9
:107C000097BE03000010014094BD030013B5037E2E
:107C1000012B044609D1002348F2670248F26501AE
:107C2000FFF7DCFE052002B010BD144B1B689B045F
:107C300019D5134B1B68012B15DD2F21114813F0AB
:107C4000ADFC90B12F210F4813F0A8FC411C0E4B46
:107C5000227ED3F8043501920C4A0092022040F2B1
:107C60006F120DF029FF207EDDE75C21054813F03F
:107C700095FC08B15C21E6E70249E8E7602E0020A8
:107C80005C2E002097BE030000100140B2BD03002F
:107C90002DE9F041384C237896B0804653B9012342
:107CA000364E374F237004A936480BF015F920B132
:107CB0000023237016B0BDE8F08133689A041AD50A
:107CC000314B1B68042B16DD2F21304813F066FC66
:107CD00000283ED02F212D4813F060FC411C9DF858
:107CE0001020D7F804350192294A0092052040F26D
:107CF000E9220DF0E1FE9DF81020264B04A953F86F
:107D000022304046984798F8183083420546CAD03A
:107D100033689B041AD51C4B1B68042B16DD2F21DE
:107D20001A4813F03BFCE8B12F21184813F036FC39
:107D3000411C98F81820D7F804350192164A009291
:107D4000029540F2F32205200DF0B6FE88F8185097
:107D5000A9E75C210D4813F021FC08B15C21BAE7CA
:107D60000A49BCE75C21094813F018FC08B15C2102
:107D7000DBE70649DDE700BFB0330020602E0020BE
:107D800000100140F43300205C2E002097BE030059
:107D90001EBF030038BC03002ABF030030B51546E0
:107DA00095B00C4611B9784609F08EF9012D2DD009
:107DB00005D3022D65D0784609F086F956E0434B8D
:107DC0001B68990452D5424B1B68042B4EDD2F21B2
:107DD000404813F0E3FB80B12F213E4813F0DEFB57
:107DE000411C3D4B228CD3F8043501923B4A009252
:107DF0000520EA220DF060FE38E05C21354813F0E2
:107E0000CDFB08B15C21E8E73249EAE72F4B1B685C
:107E10009A0418D52E4B1B68012B14DD2F212D48F9
:107E200013F0BCFB20B32F212A4813F0B7FB411CF1
:107E3000294B228CD3F804350192294A0092022062
:107E4000EF220DF039FE0021482202A813F0D2FAE9
:107E50000D2302A923488DF808300BF015F810B156
:107E6000784609F031F92046FFF712FF15B030BD12
:107E70005C21184813F092FB08B15C21D4E7154946
:107E8000D6E7124B1B689B04F0D5114B1B68012BE6
:107E9000ECDD2F210F4813F081FB70B12F210D482D
:107EA00013F07CFB411C0C4B228CD3F8043501925F
:107EB0000D4A00920220F7229CE75C21054813F04E
:107EC0006DFB08B15C21EAE70249ECE7602E002077
:107ED0005C2E002097BE0300001001408ABB030007
:107EE000A4BB0300F4330020C9BB030030B50D462A
:107EF00093B0044610B9784609F0E6F8482200210C
:107F0000684613F077FA0723694606488DF8003073
:107F10008DF804500AF0B8FF201FFFF7B9FE13B028
:107F200030BD00BFF433002070B50E4692B0054658
:107F300000B111B9784609F0C7F82B7D012B14D197
:107F400012AC0B2304F8483D1022314601A813F06F
:107F500046FA214606480AF097FF044610B9281F42
:107F6000FFF796FE204612B070BD0824FAE700BF66
:107F7000F433002010B592B0B0B1A9B10C208DF847
:107F800000000DF10600ADF8042013F028FA694650
:107F900006480AF079FF044618B9054B1868FFF740
:107FA00077FE204612B010BD0E24FAE7F43300200D
:107FB0009834002008B506F03FF830F0040304D0F0
:107FC0007846BDE8084009F07FB808BDF0B5037EEB
:107FD000022B89B005460E4625D0042B444B1B6866
:107FE00061D19A0418D5434B1B68042B14DD2F2153
:107FF000414813F0D3FA00283FD02F213E4813F018
:10800000CDFA411C3D4B3E4AD3F804350092052081
:1080100040F28D220DF050FD288806F093FD10B13E
:10802000784609F051F873685B681B7873BB48F2B7
:108030006002ADF810204FF6FF72ADF8122003AACF
:10804000059202240122ADF818208DF81A308DF81F
:108050001B400BF069FE2F460323079004AA7168AA
:1080600037F8040B8DF80C30FFF7A4FF2B69384666
:108070005B689847204609B0F0BD5C211E4813F0AC
:108080008DFA08B15C21B9E71B49BBE71D4B32797A
:108090001A702846012348F2630248F26101FFF793
:1080A0009DFC0320E7E79B0417D5124B1B68032BAD
:1080B00013DD2F21104813F071FA80B12F210E48E3
:1080C00013F06CFA411C0D4B0F4AD3F804350092A3
:1080D00004204FF42B720DF0EFFC287ECBE75C21DF
:1080E000054813F05BFA08B15C21E8E70249EAE7CA
:1080F000602E00205C2E002097BE0300001001407F
:1081000056BE0300B133002064BE03002DE9F041E8
:1081100088B048F26003ADF810304FF6FF73ADF849
:10812000123003AB044605930123ADF81830002745
:1081300002230E468DF81A708DF81B300BF0F4FDFB
:10814000257E0790022D0AD0042D1ED18DF80C70CB
:108150002088716804AAFFF72DFF207E12E08DF8B9
:108160000C702746716837F8040BD1F8048004AA14
:10817000FFF720FF7268236912891B683846414661
:108180009847284608B0BDE8F081154B1B689B0452
:1081900019D5144B1B68032B15DD2F21124813F042
:1081A000FDF9A0B12F21104813F0F8F9411C0F4B35
:1081B000227ED3F8043501920D4A0092042040F249
:1081C00067220DF079FC01238DF80C30C0E75C21AB
:1081D000054813F0E3F908B15C21E4E70249E6E75A
:1081E000602E00205C2E002097BE0300001001408E
:1081F00067BD0300F0B54B685E68037E013B8BB042
:1082000004460F46032B7DD8DFE803F0090902027C
:10821000008806F097FC10B1784608F055FF48F248
:108220006303ADF818304FF6FF73ADF81A3005ABA5
:10823000002207930223ADF820308DF822208DF81C
:1082400023300BF071FD2546052309908DF814307D
:1082500006AA0123796835F8040B8DF81530FFF76D
:10826000A9FE3378042B1AD8DFE803F012030707BE
:1082700007000721E06BFFF795F923697178DB6848
:10828000284698470421E06BFFF78CF9012004E0B1
:10829000236928469B68984702200BB0F0BD2369EC
:1082A0000221DB68284698470421E06BFFF77AF942
:1082B0002A4B1B689A04E9D5294B1B68012BE5DD85
:1082C0002F21284813F06AF998B12F21254813F07F
:1082D00065F9411C244B227ED3F804350292327892
:1082E0000192224A0092022040F225220DF0E4FB86
:1082F000CCE75C211B4813F051F908B15C21E5E79C
:108300001849E7E7154B1B689B041BD5144B1B68EA
:10831000012B17DD2F21134813F040F9A0B12F21B5
:10832000104813F03BF9411C0F4B227ED3F8043563
:108330000292327801920E4A0092022040F22B22E1
:108340000DF0BAFB207EA8E75C21064813F026F961
:1083500008B15C21E4E70349E6E700BF602E002096
:108360005C2E002097BE030000100140FCBC0300FF
:108370001FBD0300F0B58BB048F26D03ADF81830A7
:108380004FF6FF73ADF81A3002AB0446079300278F
:1083900002230E46ADF820308DF823308DF8227080
:1083A0000BF0C2FC237E71680990012B4D6815D13A
:1083B0002B7C20888DF8093006AA8DF80870FFF70D
:1083C000F9FD0B238DF80C302B7C8DF814300495BF
:1083D000E36B03A89847207E0BB0F0BD194B1B68D8
:1083E0009B0419D5184B1B68032B15DD2F2117484B
:1083F00013F0D4F8E0B12F21144813F0CFF8411C4A
:10840000134B227ED3F804350192124A00920420C5
:1084100040F253120DF050FB01238DF8083006AAEC
:108420002B7C716820888DF80930FFF7C3FDD2E7F7
:108430005C21064813F0B2F808B15C21DCE703497F
:10844000DEE700BF602E00205C2E002097BE0300F8
:1084500000100140FABE03002DE9F0410C469EB029
:10846000154612B9784608F02FFE554B01AA03F1C4
:10847000280E174618685968164603C60833734510
:108480003246F7D11B883380218812290AD108236C
:108490008DF830302389013B9BB2402B14D91EB09C
:1084A000BDE8F0810022062000FB02F3FE5A8E4256
:1084B00030D11EAA1344228933F8721C9142EED1A6
:1084C00013F8703C8DF830301EAE4FF6FF7826F86A
:1084D000788D2888314605F0DBFD00284DD1BDF8A8
:1084E0000000404549D0394607F0F4FB002844D14C
:1084F000BDF80620E3899A423FD10CA931480D947A
:108500000AF0C2FC10B1784608F0DEFD2846FFF7FD
:10851000BFFBC4E70132072AC6D1C0E704238DF8A8
:1085200000300123ADF80C3000238DF80E3002230B
:10853000ADF8042002968DF80F300BF0F5FB3A46AB
:10854000049021462888FFF735FDA8E705238DF81C
:10855000003048F26703ADF8043002960123ADF80D
:108560000C30EAE706238DF8003000238DF8013047
:10857000ADF8042002960223F1E74FF6FF73ADF841
:108580000630238848F26302934288D00CD8112B1E
:1085900006D3122B48F26002C0D993423FF47FAF5A
:1085A000784608F091FD7AE748F26A018B42CDD017
:1085B00048F26C018B42D5D048F26702EDE700BF6C
:1085C00060BB0300F433002030B50D4687B004468D
:1085D00000282FD0002A2DD0174BC26318601748EF
:1085E00002238360164B0360482343600AF032FC89
:1085F00048F20403ADF802304FF6FF73ADF80030D7
:10860000104B029307230393214600236846ADF8DD
:1086100004500494059305F003FC48B92388A38310
:10862000094BA363094B636301232376084B18703E
:1086300007B030BD0E20FBE798340020F433002053
:108640000834002000BC03009D7D020000879303D6
:10865000B033002030B5054693B0B0B1037E012B96
:1086600015D148220021684612F0C4FE0223694653
:1086700008488DF800300AF007FC044610B9284677
:10868000FFF706FB204613B030BD0E24FAE708249E
:10869000F8E700BFF433002030B5054693B0B0B121
:1086A000037E012B15D148220021684612F0A2FE5C
:1086B0000323694608488DF800300AF0E5FB0446BC
:1086C00010B92846FFF7E4FA204613B030BD0E2457
:1086D000FAE70824F8E700BFF433002010B5044699
:1086E00010B9784608F0F0FC04232372014BE360D4
:1086F000201D10BDECBB030000B5036993F80B21EE
:1087000089B05AB1002283F80B21022201938DF81F
:1087100000208DF80810DB686846984709B05DF8BE
:1087200004FB10B5046994F80B31012B88B010D10B
:108730008DF8003068460194E368984704F1F5022B
:1087400094F83111A06800F05FFB20B9032384F88E
:108750000B3108B010BDA068836802211B699847DF
:10876000F7E71FB5044600F1D50100F1A5036A46FD
:1087700000F078FC6946A06800F07DFB10B90F237B
:1087800084F80B3104B010BD30B590F80C3189B0CD
:108790000446032B3BD8DFE803F0312B1D0200F128
:1087A000C505294600F02FFD05238DF8003094F80B
:1087B00006318DF8093094F807318DF808300194AE
:1087C0000395102384F80B316846E368984700202E
:1087D00009B030BD06238DF8003090F806318DF8D1
:1087E000093090F807318DF8083001900B23E9E744
:1087F00007238DF8003001900C23E3E710220021BD
:10880000C53012F0F7FD2046FFF7ABFFE0E703208D
:10881000DEE710B588B0044600F09EFD88B10A235B
:1088200084F80B310B238DF800306369039304F156
:108830001803029368460194E3689847002008B043
:1088400010BD04F15801204600F0C2FC0028F6D10A
:108850002046FFF799FFF2E710B5046994F80B3151
:10886000062B88B01DD194F808315BB108238DF830
:108870000030092384F80B310194E3686846984777
:1088800008B010BD2169A06800F0E2FA18B9082309
:1088900084F80B31F4E7A068836802211B699847CC
:1088A000EEE7072BECD12046FFF7B3FFE8E7000027
:1088B000F0B50D46A3B004691146284600F096FABB
:1088C00020B9A068836802211B6902E12B78013B73
:1088D000082BF6D801A252F823F000BF018902004C
:1088E000C38802007189020091890200A1890200F7
:1088F000CD890200C3880200A78A0200D78A02003D
:1089000094F80B31032B31D10B22691C04F1F600D2
:1089100012F065FD042384F80B3109238DF86430CF
:108920006B788DF86C301A946A88130A43EA022334
:10893000ADF86D302B798DF86F306B798DF8703024
:10894000AB798DF87130B5F80720130A43EA02239A
:10895000ADF872306B7A8DF874306A89130A43EA85
:108960000223ADF87530E36819A8984723B0F0BD2D
:1089700094F80B31082BF9D14022691C04F118003E
:1089800012F02DFD2046FFF744FF0028EED098E7B7
:1089900094F80B31102BE9D12046FFF7E2FEF4E703
:1089A00094F80B310F2BE1D1691C102204F1E50082
:1089B00012F015FD04F1A501A06800F06FFA00287F
:1089C0007FF47FAF112384F80B31CFE794F80B319C
:1089D000112BCBD11022691C04F1B50012F0FFFC61
:1089E000204600F055FC00283FF46BAF01AD05AE0A
:1089F00004F178032A463146204609AF00F092FB85
:108A00000723102204F58C7138468DF8403012F09F
:108A1000E6FCD4F82A311A0E190242EA036201F484
:108A20007F011B0A0A4303F47F431343B4F82E214A
:108A3000CDF83730130A43EA0223B4F82821ADF801
:108A40003B30130A43EA022394F83021ADF8343066
:108A50009DF836301996C2F3400161F3000362F3CA
:108A600041036FF387038DF836301923ADF870306A
:108A70000DF141031F930DF15A03209300231D9321
:108A8000ADF8783019A808231A951B978DF8843013
:108A90000CF0F9F910A9A06800F013FA00287FF48F
:108AA00010AF13238FE794F80B31132B7FF45EAFD5
:108AB0000A238DF8643004F178031B9304F58C735A
:108AC0001A941C93E36819A89847A06883681B69E7
:108AD000002198474AE70C238DF864306B781A948C
:108AE0008DF86C30E36819A89847EAE670B504463B
:108AF00090F80B010E46B8B9A5680C49E960194613
:108B000084F8090184F8312104F58C70192212F0DF
:108B100066FCAB68064ADB6831462846984720B9B0
:108B2000012384F80B3170BD082070BD44BF0300E1
:108B30000087930337B5044690F80B01042836D11B
:108B4000102B32D863BB81BB022594F810018DF83D
:108B5000005001294FF0000500F0010084F80721C2
:108B600008BF2A4684F80C1184F8063184F80801FD
:108B700008BF2B468DF802008DF803108DF80420F5
:108B8000694604F1F502A0688DF801508DF80530B2
:108B900000F04EF910B9062384F80B3103B030BD54
:108BA00019B1102BD0D00129CED10920F6E7082029
:108BB000F4E790F80B310B3B012B01D8FFF7D1BD47
:108BC0000820704700790B79C31A58425841704702
:108BD00010B5431E00F11002073012F8014C59780D
:108BE00003F8014F834202F8011DF6D110BD38B5DC
:108BF000049D88B181B17AB173B16DB190F80B4128
:108C000064B9C5600161426119460B2200F20D1082
:108C100012F0E5FB204638BD0E2038BD082038BDD7
:108C200038B50D46044650B149B1064A0CF0E8FE8D
:108C300030B92C612A7963681343636038BD0E2014
:108C400038BD00BFC58B020000F05CBA2DE9F041D1
:108C50000E4617461D469DF818800446F0B1E9B14E
:108C6000E3B11B8AB3F5805F02D30B20BDE8F0812E
:108C7000E88A0AF0A7FE0128F7D1206848B9A06069
:108C800078B12B463A4631462046BDE8F041FFF721
:108C90002DBF03794345F2D00068EFE70E20BDE811
:108CA000F0810620BDE8F08110B490F809411CB9AC
:108CB0005DF8044BFFF73EBF08205DF8044B70479A
:108CC000F8B50E461546044600286FD000296DD031
:108CD000102A6DD890F80631934269D190F80C3182
:108CE000012B0DD1C53012F07AFB94F809312A46D8
:108CF00031462046002B55D1BDE8F840FFF759BF5B
:108D000090F80921DAB9022B21D190F80731032B11
:108D10001DD82946304600F0FDFAC0B104F1C50760
:108D200004223146384612F05AFB0C22002104F18D
:108D3000C90012F05FFB3846FFF74AFFD5E7012A6A
:108D400005D1032B03D190F80731022BE0E794F80B
:108D50000931EBB994F80C31022B01D00820F8BD91
:108D600094F80731042BF9D12946304600F0BEFAB9
:108D70000028F3D004F1C5072A463146384612F0E0
:108D80002EFB05F1C500C5F1100200212044D0E7FB
:108D9000012BE3D194F80C31032BDFD194F8073188
:108DA000032BE0E7BDE8F84008F088B80E20F8BDD6
:108DB0000920F8BD08B518B100F0F4F8002008BD8E
:108DC0000E2008BD70B5044616460D4611B978460A
:108DD00008F07AF914B9784608F076F9A3683246B3
:108DE000294620461B68BDE87040184748B1037803
:108DF000092B05D8034AD05C431A584258417047A2
:108E00000020704754BF030013B5002304468DF8BB
:108E1000051010460DF1050101228DF8043012F005
:108E2000DEFA022201A92046FFF7CCFF02B010BDF6
:108E300038B505460C4602F10C000131052212F04E
:108E4000CEFA214628460622BDE83840FFF7BABFD1
:108E500030B593B012AC032304F8443D05464022DC
:108E60000DF1050012F0BBFA412221462846FFF71A
:108E7000A9FF13B030BD30B587B006AC052304F8A8
:108E8000143D054610220DEB030012F0A8FA112242
:108E900021462846FFF796FF07B030BD30B587B0B2
:108EA00006AC062304F8143D054610220DF105001A
:108EB00012F095FA112221462846FFF783FF07B0EA
:108EC00030BD2222FFF77EBF70B506468AB0144639
:108ED0000D4609B3084612F059FB6A4681B228468E
:108EE0000CF033F8042269460DF1220012F077FAF3
:108EF000162564BAADF8204008F01EF9102201468C
:108F00000DEB020012F06BFA2B4604AA002130464A
:108F10000DF070FD0AB070BD1225EAE7F0B50F46FE
:108F200089B01446064610B9784608F0CDF814B951
:108F3000784608F0C9F807F0FB03122B25D1184D2D
:108F40002A6812B320220021684612F053FA102238
:108F5000314601A8079412F042FA23785A1E534270
:108F600053410021162F8DF814308DF800100ED1CA
:108F70000123042206F112010DF116008DF81530BF
:108F800012F02DFA2B686846984709B0F0BD04220C
:108F90000DF116008DF8151012F02CFAF2E700BF53
:108FA0009C34002010B5044610B9784608F08CF8BF
:108FB000014B1C6010BD00BF9C3400200B4682B0EA
:108FC0000449019001EB10410122184602B012F051
:108FD00006BA00BFA032002007B5054B0190012260
:108FE00003EB104012F0FBF9002003B05DF804FB26
:108FF000A032002037B50D46042104460DEB0100D8
:109000000BF0E3F9094B019953F82520B1FBF2F37A
:1090100002FB131304221BBA0DEB020104F10C0036
:10902000019312F0DCF903B030BD00BF88BF03002C
:1090300073B505460A4E68460C460BF0C6F9002388
:109040002421A34201D302B070BD1DF80300B0FB80
:10905000F1F201FB1202D2B2B25CEA540133F0E742
:1090600062BF03002DE9F0410446ACB00F469046C4
:1090700000F1F501112207A81E4612F0B0F994F88C
:10908000093104F11805402293BB21690DF12D002F
:1090900012F0A5F9402229460DF16D0012F09FF95A
:1090A0003A4607A891210BF050FF03AD04233A463E
:1090B000009304F15800124B019520210BF05BFF47
:1090C000304610210BF081F93146102207A812F02A
:1090D00086F904F1C50110220BA812F080F943466D
:1090E000202207A928460BF0CCFE2CB0BDE8F08169
:1090F00029460DF12D0012F072F940222169CBE7CB
:10910000ACBF030038B504460D4611F08BFE29466E
:109110000246204611F08AFE012814BF03200020D9
:1091200038BD00002DE9F043044697B089469046CB
:1091300000F1D50110220AA81F4612F050F994F848
:10914000093104F1A50504F1B5061022002B32D136
:1091500029460EA812F043F91022314612A812F047
:109160003EF95834042502AA0AA830210BF0EDFE7E
:1091700002AA2046CDF804900095124B20210BF056
:10918000FAFE06AB019302AA0F4B00952046202160
:109190000BF0F1FE0DF11B010D22404612F01FF9FC
:1091A0008DE8A000094B02AA202120460BF0E3FE27
:1091B00017B0BDE8F08331460EA812F010F9102266
:1091C0002946CBE7B1BF0300B6BF0300BBBF030016
:1091D00070B50E4600F11804054611F023FE014655
:1091E000204611F004FF08B9032070BD6D6911F02D
:1091F00019FE324603462946204611F057FE002844
:10920000F2D0002070BD37B590F80631013B072B36
:1092100004460D4602D9784607F056FF1022002179
:10922000284612F0E7F894F80C31022B03D0032BF8
:109230000AD003B030BD94F80731042BF9D8DFE829
:1092400003F00B0B0B1B210094F80731032BF0D814
:10925000DFE803F00202121801210DF1070094F873
:1092600006410BF0B2F89DF80720B2FBF4F304FBC3
:1092700013230133EB73DCE794F806112846FFF75C
:10928000B9FED6E794F806112846FFF7D1FED0E7DD
:1092900030B593B002AD04230446009300F1D5022B
:1092A000114B0195202158300BF065FE04F1B501FA
:1092B00010220AA812F093F804F1C50110220EA89A
:1092C00012F08DF806AB0AA9284620220BF0D9FD32
:1092D000102204F1E50106A812F072F8B0FA80F04D
:1092E000400913B030BD00BFACBF030010B502464B
:1092F000131ADBB2994201D8012010BD12F8013BCC
:10930000A3F13004092CF3D9413B192BF0D90020EB
:1093100010BD0000082937B505460C4602D978462D
:1093200007F0D2FE042229460DEB020012F057F896
:10933000044B53F82400019B984294BF0020012065
:1093400003B030BD88BF0300024B014618680EF021
:1093500093BB00BF5EBF030007B50DF10700FFF729
:10936000F3FF10B1784607F0AFFE9DF8070003B099
:109370005DF804FBD1F8B83108461B69012100F5FE
:10938000D8701847F8B5114D2B68064613B97846C2
:1093900007F09AFEEFF3108772B62C68B4420BD137
:1093A000D6F8C4312B6007B962B6F8BD13B9784658
:1093B00007F08AFED4F8C441D4F8C4319E42F5D1F6
:1093C000D6F8C431C4F8C431EDE700BFA43400209E
:1093D00070B590F8A130023B022B04460D4602D92D
:1093E000784607F071FE2046FFF7CCFF94F8A030D6
:1093F000012B02D0784607F067FE20460FF0E9F90E
:10940000002384F8A03084F8E03084F8A13004F11F
:10941000C0000AF07FFED4F8BC31294604F5D870AC
:10942000DB68BDE87040184710B5044610B97846AF
:1094300007F04AFEA4F5D87494F8A130012B09D1A5
:109440002046FFF79FFF20460FF0C3F9002084F865
:10945000A10010BD082010BD2DE9F0418846911CE7
:10946000064615461F460FF0F9F8044600B36B1C7C
:109470004374292383742A464146133011F0AFFF09
:109480002771EFF3108772B6D6F8A85101356B1C1F
:10949000C6F8A85102D1784607F016FE07B962B6A1
:1094A0003046256021460FF014F90020BDE8F08118
:1094B0000420BDE8F0812DE9F04190F8E030022B66
:1094C00088B0044602D0784607F0FEFD94F8E330F9
:1094D000002B42D194F8A130032B02D0784607F03C
:1094E000F3FD94F8E030022B02D0784607F0ECFD53
:1094F000D4F89C2094F8E13012BA009294F8A3209A
:109500008DF804209DF8052002F0FC02142B03F1D5
:1095100002014FF01700B1FBF0F161F387021D4625
:109520008DF8052028BF142594F8E2208DF8082036
:109530001B022A4604F1E4010DF10900ADF80630E2
:1095400011F04DFF012305F1090269462046FFF79E
:1095500083FF80B9012384F8E33094F8E3501726A1
:10956000022794F8E18008F10203B3FBF6F301331C
:10957000DBB29D4202D308B0BDE8F0816B1E03EB65
:109580004301C3EBC101D4F89C30143189B21BBA3A
:10959000A8EB0108009394F8A3308DF804301FFA6B
:1095A00088F89DF80530B8F1170F28BF4FF017085D
:1095B00067F30103E43165F38703424621440DF16B
:1095C00006008DF8053011F00AFF012308F10602AC
:1095D00069462046FFF740FF0028CCD194F8E330DD
:1095E000013384F8E3300135BBE700B5D0F89C3097
:1095F00089B01BBA009300238DF804309DF8053024
:109600008DF80610022243F0030362F387038DF8FE
:109610000530072204236946FFF71EFF09B05DF8F5
:1096200004FB38B50D46044610B9784607F04CFDEA
:10963000022D02D9784607F047FDA4F5D87494F8B6
:10964000A13013F0FB0F16D0023B012B02D9784654
:1096500007F03AFD29462046FFF7C7FF28B9042343
:1096600084F8A13084F8A45038BD29462046BDE8CE
:109670003840FFF7ADBE38BD00B5D0F89C3089B09A
:109680001BBA00938DF804100123062269468DF859
:109690000530FFF7E1FE09B05DF804FB00B589B0C5
:1096A000D0F89C309DF805201BBA009300238DF85C
:1096B000043042F00302012363F387028DF8052092
:1096C00069460622FFF7C8FE09B05DF804FB10B535
:1096D00004460AF06BFDD4F8DC10014404F1C0002C
:1096E000BDE810400AF02DBD0023C0F8CC3080F852
:1096F000E03080F8A33080F8A23080F8A130C0F8C4
:10970000A83190F8A030C0F8DC10012B024612D02E
:10971000012380F8A030084BC0F8B030074BC2F8E6
:10972000B8000749C0F8C830C2F8D000802300F55F
:1097300094720FF079B87047619702007593020038
:1097400045970200D0F8A8318B4206D1012380F85A
:10975000AC31024B18680BF067BA7047A42D00209B
:1097600037B591F8A130032B05460C464ED191F840
:10977000E030022B4AD1D1F8D8301B1A002B14DA72
:1097800001212046FFF731FF48B9042384F8A130B6
:10979000012384F8A430C4F8B40003B030BD1D4BDD
:1097A000C4F8B430C4F8D850F7E71B4B1B681B074C
:1097B0001AD51A4B1B68042B16DD2F21184811F0FF
:1097C000EDFED0B12F21164811F0E8FE411C154BDB
:1097D00094F8E420D3F804350192134A009205204E
:1097E00040F2BB320CF068F90023204684F8E330E5
:1097F00003B0BDE83040FFF75EBE5C21084811F0C1
:10980000CDFE08B15C21DEE70549E0E70023C4F89E
:10981000B430C2E740420F00602E00205C2E0020D2
:109820006EC303000010014091C3030013B504464A
:10983000EFF3108372B6174A1168C0F8C4111060B4
:1098400003B962B6144B1B681B0718D5134B1B6872
:10985000032B14DD2F21124811F0A0FE88B12F2117
:109860000F4811F09BFE411C0E4B0F4AD3F80435F4
:10987000009201944FF4C87204200CF01DF902B05C
:1098800010BD5C21064811F089FE08B15C21E7E7B4
:109890000349E9E7A4340020602E00205C2E00205C
:1098A0006EC3030000100140C0BF0300F0B50E46B8
:1098B00089B01746054610B9784607F005FCA5F5AE
:1098C000D87494F8A030012B02D194F8A130CBBB0E
:1098D000A5F58A7539462046FFF706FF284604217C
:1098E0000AF073FD0022802384F8A32084F8A230BC
:1098F0002B688DF804201BBA00939DF8053043F0C7
:10990000030362F38703314610220DF106008DF840
:10991000053011F064FD0423162269462046FFF746
:109920009BFD054658B92046FFF7D1FE20460EF0B4
:109930007BFE2046FFF77AFF022384F8A1302846F9
:1099400009B0F0BD0825FAE7F8B50D4616461F46E2
:10995000044610B9784607F0B7FBA4F5D87494F81C
:10996000A030012B02D194F8A13073BB39462046B8
:10997000FFF7BAFE0023802284F8A3202946C4F80A
:109980009C3084F8A23032462046FFF79DFA054607
:1099900010B9784607F098FBFF232B714FF0FF3387
:1099A0002B6020464FF4FA610EF0E9FE294620466E
:1099B0000EF08FFE20460EF037FE2046FFF736FFF2
:1099C000012384F8A1300020F8BD0820F8BD000074
:1099D00038B5124B1C6800250CB9012038BD94F82D
:1099E000AC3193B194F8A13084F8AC51042B94F8C5
:1099F000E0300DD1022B03D104F1A8000AF08AFB5C
:109A000094F8A4102046FFF7E3FCD4F8C441E3E740
:109A1000022BFAD12046FFF74EFDF6E7A4340020D2
:109A200030B5074D0246FF23141AA14202DCD84389
:109A3000C0B230BD12F8014B6340EB5CF4E700BFED
:109A4000ECBF03002DE9F843A0F5D874804694F8E4
:109A5000A130032B0F46164640D1412A41D810F8B9
:109A6000D05C002D40D12046FFF731FE0AF09EFB6E
:109A7000B11C1723B1FBF3F10131CBB2216F594374
:109A800001F5F4111A4B01F5906148F8FC1C814670
:109A9000C4F8B0300144A8F584700AF052FB154BAD
:109AA0004B4448F8D83C022384F8E0303146C4F8EF
:109AB000B84084F8E35084F8E1603846FFF7B0FF1F
:109AC000324684F8E2003946A8F1CC0011F087FC58
:109AD0002046FFF7F0FC2846BDE8F8830820BDE8E3
:109AE000F8830920BDE8F8831120BDE8F88300BFA2
:109AF0006197020080C3C9012DE9F0410B78012B69
:109B000092B005460C4602D0784607F0DDFA261DD5
:109B100061783046FFF784FFA378834226D195F819
:109B2000A21028460027FFF7A7FDE77095F8A220AE
:109B3000531C03F07F0322F07F02134385F8A23009
:109B400094F801803146424601A811F048FC2846AD
:109B50002770FFF7BCFDD5F8BC3142461B6801A950
:109B600005F5D870984712B0BDE8F0810023237046
:109B7000F9E7000038B5044610B9784607F0A4FAB2
:109B8000084D2B68013303D107480BF02FF82860EC
:109B9000012384F8B431054BC4F8B83104F5D8700A
:109BA00038BD00BFA42D0020D1990200ECC00300F5
:109BB0002DE9FF4188461446054610B9784607F05E
:109BC00083FA14B9784607F07FFA2B681A0E190247
:109BD00042EA036201F47F011B0A0A4303F47F4354
:109BE0001343EFF3108172B6A74E34686CB901B914
:109BF00062B6687900F00303032B00F29C80DFE873
:109C000013F00B005701D6016102D4F89C20934257
:109C1000EDD0D4F8C441E9E7002C00F08C8094F832
:109C2000A130032B40F0878094F8E030002B40F007
:109C30008E802A7994F8A2309A4230D1EB881B0AA0
:109C400084F8E13017220233B3FBF2F30133DBB2C5
:109C5000072B07D9022104F5D87004B0BDE8F04104
:109C6000FFF7DFBC2B7A84F8E230A8F10908012362
:109C700084F8E03084F8E330424605F1090104F14C
:109C8000E40011F0ACFB94F8E130984553D104F1B5
:109C9000E001204604B0BDE8F041FFF72DBF7B4B4B
:109CA0001B6829D2190717D5794B1B68042B13DDC4
:109CB0002F21784811F072FCA8B12F21754811F0BE
:109CC0006DFC411C744B754AD3F80435009240F288
:109CD000C92205200BF0F0FE2979204604B0BDE82A
:109CE000F041FFF7C9BC5C216A4811F057FC08B18C
:109CF0005C21E3E76749E5E71A071CD5644B1B685D
:109D0000012B18DD2F21634811F048FCB0B12F2141
:109D1000604811F043FC411C5F4B94F8A220D3F83B
:109D2000043502922A7901925D4A009240F2CE22D5
:109D300002200BF0C1FE04B0BDE8F0815C21554863
:109D400011F02CFC08B15C21E2E75249E4E7022B58
:109D50004E4B74D1297994F8A2201B68914220D2ED
:109D60001B07B9D54A4B1B68042BB5DD2F21494889
:109D700011F014FC60B12F21464811F00FFC411C7A
:109D8000454B464AD3F80435009240F2D522A0E76D
:109D90005C21404811F002FC08B15C21ECE73D4930
:109DA000EEE725D91F07C6D5394B1B68012BC2DD4D
:109DB0002F21384811F0F2FB88B12F21354811F0DE
:109DC000EDFB411C344B94F8A220D3F804350292E9
:109DD0002A790192324A009240F2DA22A8E75C2105
:109DE0002C4811F0DBFB08B15C21E7E72949E9E7E2
:109DF0001E07A0D5264B1B68042B9CDD2F21254870
:109E000011F0CCFB90B12F21224811F0C7FB411C6F
:109E1000214B94F8A220D3F8043502922A790192BA
:109E2000204A0092052040F2DE2282E75C21194898
:109E300011F0B4FB08B15C21E6E71649E8E71B68BE
:109E40001C077FF578AF124B1B68012B7FF773AFB0
:109E50002F21104811F0A2FB78B12F210D4811F0ED
:109E60009DFB411C0C4B104AD3F80435009240F284
:109E7000E32202200BF020FE5DE75C21054811F093
:109E80008DFB98B15C21E9E7A4340020602E00200E
:109E90005C2E00206EC303000010014000C10300CF
:109EA00050C103009AC10300D3C103009A49D9E706
:109EB000002C3FF440AF94F8A130032B7FF43BAF6C
:109EC00094F8E030022B954B4DD1297994F8A320DA
:109ED000914248D11B6818071AD5914B1B68032B78
:109EE00016DD2F218C4811F059FB98B32F218A4899
:109EF00011F054FB411C8B4B94F8E420D3F804354B
:109F00000192894A0092042040F21E320BF0D4FDE7
:109F1000002504F1A800C4F8B4500AF0FBF820466C
:109F20000EF057FC94F8A32084F8E050531C03F083
:109F30007F0322F07F02134384F8A3302046FFF70B
:109F4000C6FBD4F8BC315B6804F5D87004B0BDE83A
:109F5000F04118475C21704811F020FB08B15C21EA
:109F6000C5E76D49C7E71B6819077FF5E4AE6C4B81
:109F70001B68012B7FF7DFAE2F21674811F00EFB26
:109F800060B12F21644811F009FB411C654B674A01
:109F9000D3F8043500924FF44C726AE75C215E48B6
:109FA00011F0FCFA08B15C21ECE75B49EEE7002C0C
:109FB0003FF4C1AE94F8A130032B7FF4BCAE94F80B
:109FC000E060297994F8A230012E4CD1994225D134
:109FD00094F8E33080080341DA073FF5ACAE172769
:109FE000013807FB0040A8F10602A91DF83011F066
:109FF000F6F96B7994F8E3209B0806FA03F3134310
:10A0000094F8E1200232B2FBF7F70137DBB2FFB27E
:10A0100084F8E330BE400133B34237E63F4B1B6860
:10A020001B077FF588AE3E4B1B68012B7FF783AE85
:10A030002F21394811F0B2FA60B12F21364811F0C2
:10A04000ADFA411C374B3A4AD3F8043500924FF42D
:10A0500042720EE75C21304811F0A0FA08B15C2191
:10A06000ECE72D49EEE79942FFF437AE7FF663AE99
:10A070002A4B1B681F077FF55EAE294B1B68012B1F
:10A080007FF759AE2F21244811F088FA88B12F218B
:10A09000214811F083FA411C224B94F8A220D3F8F6
:10A0A000043502922A790192224A00924FF44572B5
:10A0B0003EE65C21184811F071FA08B15C21E7E72F
:10A0C0001549E9E78008012800F0B88036D3022856
:10A0D00000F01381114B1B681B077FF52CAE104B52
:10A0E0001B68012B7FF727AE2F210B4811F056FA82
:10A0F000002800F067812F21074811F04FFA411C1A
:10A100006A79084B9208D3F8043501920A4A009202
:10A1100040F29232E4E000BF6EC30300602E0020E4
:10A120005C2E00200010014005C2030020C2030085
:10A1300040C2030071C2030047C30300B8F1160F09
:10A140007FF4F9AD06F0F8FF10220146A81D11F0CA
:10A1500037F900287FF4EFAD64B9EFF3108372B6DE
:10A160003468002C47D1002B7FF4E5AD62B6002C9B
:10A170003FF4E1AD94F8A130012B51D12B681A0EB8
:10A18000190242EA036201F47F011B0A0A4303F445
:10A190007F4313432046C4F89C3014210EF0EFFA9D
:10A1A0002046FFF77BFA002836D18D4B1B681E072F
:10A1B00017D58C4B1B68032B13DD2F218A4811F018
:10A1C000EDF900B32F21884811F0E8F9411C874BC5
:10A1D000874AD3F80435009240F2513204200BF044
:10A1E0006BFC032384F8A1302046FFF770FAD4F803
:10A1F000BC319B68A8E694F8A120012A00F0EB800E
:10A20000D4F8C441ADE75C21774811F0C7F908B133
:10A210005C21D8E77449DAE70023C4F89C308AE56A
:10A22000032B7FF488AD94F8E030002B7FF483ADEE
:10A23000204604B0BDE8F041FFF730BA002C3FF4EF
:10A240007AADB8F1060F7FF476AD94F8A130644D85
:10A25000022B28D120460EF0BCFA142120460EF025
:10A260008EFA2B681D07BCD55E4B1B68032BB8DD2F
:10A270002F215D4811F092F960B12F215A4811F059
:10A280008DF9411C594B5A4AD3F80435009240F2DB
:10A290006E32A3E75C21544811F080F908B15C21CB
:10A2A000ECE75149EEE72B6818077FF544AD4D4BBD
:10A2B0001B68012B7FF73FAD2F214B4811F06EF942
:10A2C00090B12F21484811F069F9411C474B94F88F
:10A2D000A120D3F804350192464A009240F276322A
:10A2E00002200BF0E9FB26E55C213F4811F056F90E
:10A2F00008B15C21E6E73C49E8E7002C3FF41BADE0
:10A30000B8F1070F7FF417AD94F8A130344E023B3B
:10A31000012B30D894F8E030022B03D104F1A800CF
:10A3200009F0F8FEA9792046FFF752F833681907BB
:10A330007FF501AD2B4B1B68032B7FF7FCAC2F2166
:10A34000294811F02BF968B12F21274811F026F97F
:10A35000411C264B284AD3F80435009204204FF4C0
:10A36000627287E55C21204811F018F908B15C2180
:10A37000EBE71D49EDE733681A077FF5DCAC194BB5
:10A380001B68012B7FF7D7AC2F21174811F006F976
:10A3900078B12F21144811F001F9411C134B94F8A6
:10A3A000A120D3F804350192144A009240F28D3274
:10A3B00096E75C210C4811F0F1F808B15C21E9E75F
:10A3C0000949EBE75C21084811F0E8F808B15C2185
:10A3D00092E6054994E6002B3FF4C8AECAE600BFFA
:10A3E000602E00205C2E00206EC303000010014090
:10A3F000B7C20300CDC20300FEC2030014C30300B2
:10A400002DE9F04F0C4689B0064600B111B97846E7
:10A4100006F05AFE2388192B02D8784606F054FE1F
:10A420004FF6FF73ADF8143028230025ADF81A302D
:10A4300005A901230A223046ADF81C30ADF80250C0
:10A44000ADF81650ADF8185010F0C9FF0A2323805C
:10A450000DF10601284604F08FF810B1784606F099
:10A4600033FE0DF10701002004F092F810B1784698
:10A4700006F02AFE9DF806309DF80720D3422FD023
:10A4800001A9002004F06CF8002879D108AA032360
:10A490000DF10C0822F81E3D4146002004F0C0F8E2
:10A4A000002869D1208804220DEB0201304410F00D
:10A4B00096FF25889DF806300435ADB2258093BB04
:10A4C0009DF8073063B12388BDF8029000271E4431
:10A4D0003D464FF6FF7A4F4505D323881D4425801E
:10A4E00009B0BDE8F08F02A938F8170004F05CF855
:10A4F000A8B9BDF80830534501D10137EBE7022276
:10A5000002A9701910F06BFFA81C02220DF10A01BC
:10A5100016FA80F0043510F062FFADB2EDE7784630
:10A5200006F0D2FDE5E70027BDF802A0B9464FF6D8
:10A53000FF7B574503D323884B442380C0E702A900
:10A5400038F8170004F030F890B9BDF808305B45D2
:10A5500001D00137EDE709EB050002220DF10A01F8
:10A56000304410F03CFF09F102031FFA83F9F0E7D1
:10A57000784606F0A9FDE8E7784606F0A5FD91E7E4
:10A58000784606F0A1FD81E7024B1B6803B118472E
:10A59000704700BFA834002013B5044601A805F099
:10A5A0001DFBBDF80430A34206D814BF4FF0FF30A6
:10A5B000002080B202B010BD4FF6FF70FAE737B549
:10A5C00004460CF043FE0546002301A8009305F065
:10A5D00005FB6946288A05F0BFFF30B9009B636020
:10A5E000BDF80430238003B030BD0520FBE71FB564
:10A5F0000193BDF81830ADF808300023ADF8002005
:10A600008DF80A304FF6FF720223ADF802208DF864
:10A610000B306A46079B039303F00EFD05B05DF80F
:10A6200004FB7FB505460E46002003A98DF80800FF
:10A630000DF0FCFD10B1784606F046FD9DF80D309A
:10A640009DF80820013B0A2104AC63F30202BDF827
:10A650000E30B3FBF1F3013B63F3C70204F8082D9E
:10A6600009F062FB01230190009348F22502234682
:10A6700031462846FFF7BBFF04B070BD7FB50B899C
:10A68000012B06460D4631D14C688DF804302378F5
:10A69000C3F3020301338DF805302378DA080A2367
:10A6A00002FB0333142BB8BF142301A90020ADF81B
:10A6B00006300DF0A9FD10B1784606F005FD3046D4
:10A6C0002946FFF7AEFF00230393029311238DF871
:10A6D00008302378C3F302038DF80C30237802A8E6
:10A6E000C3F3C4038DF80D30FFF74EFF04B070BD07
:10A6F0000B890BB9FFF795BF7047000037B50446CB
:10A700000D4609F011FB084B1860084B01221A7026
:10A7100000230190009348F24A0229462046FFF7A1
:10A7200066FF03B030BD00BFB0340020AC34002061
:10A7300030B585B004460D468DF80C20ADF80D30CF
:10A7400009F0F2FA03230190009348F2440203ABAC
:10A7500029462046FFF74BFF05B030BD30B585B028
:10A7600004460D46002303A90120ADF808300DF082
:10A770005DFD10B1784606F0A7FC9DF80C308DF811
:10A7800008309DF80D309DF80920013B63F302026B
:10A79000BDF80E308DF80920142B15D1D2B212F06D
:10A7A000070111D161F3C7028DF8092009F0BCFA45
:10A7B00002230190009348F2280202AB294620466A
:10A7C000FFF715FF05B030BD0A22B3FBF2F39DF889
:10A7D0000920013B63F3C702E6E77FB50B89022B33
:10A7E00005460E463ED14C682378012B3AD803F03B
:10A7F00001038DF804306378C3F3020301338DF84D
:10A800000530637883BB1423ADF80630BDF80630FD
:10A81000142B38BF142301A90120ADF806300DF028
:10A82000F3FC10B1784606F04FFC28463146FFF79E
:10A8300095FF00230393029312238DF808302378A9
:10A840005A1E534253418DF80C306378C3F3020310
:10A850008DF80D30637802A8C3F3C4038DF80E3071
:10A86000FFF792FE04B070BDDB08013303EB8303F6
:10A870005B00C9E70B890BB9FFF770BF704770B574
:10A8800086B00D46ADF80F309DF82C30ADF80D2098
:10A8900000218B4204460A988DF80C1014BF07263D
:10A8A0000926CDF8110009F03FFA0096019003AB9C
:10A8B00048F21F0229462046FFF799FE06B070BDF8
:10A8C00030B587B00446039306AB8DF8142033F8F7
:10A8D0000C2DADF815209B788DF817300D4609F03A
:10A8E00023FA04230190009348F2030205AB2946A2
:10A8F0002046FFF77CFE07B030BD2DE9F0430B8901
:10A90000022B85B081460C464DD14B681E88C6F39C
:10A910000B0005F085FAA38C834207461BD1334612
:10A920000C2221464846FFF703FF3CE038F81500AB
:10A9300005F08AFA28F815000135029B9D42F5D3EF
:10A9400018E038F8150003F0DDFE10B1784606F087
:10A95000BBFB013513E04FF6FF73984212D00DF1A7
:10A960000408012302AA4146029305F06DFD054645
:10A970000028E2D0384605F025FD0546B0B9029B17
:10A980009D42DED33346484600222146FFF7D0FEE3
:10A9900000230293039302A819238DF80830ADF821
:10A9A0000C70FFF7F1FD05B0BDE8F0830F28B6D0BD
:10A9B00033460422B5E70000F0B50B89122B85B0B1
:10A9C00007460D4625D14E680A88344648F24003B2
:10A9D00034F8020B9A42C0F30B001CD121460DF152
:10A9E000060205F0A9FA182304460F2C8DF808304A
:10A9F000BDF80630ADF80C3096BF0C4B10221A5D36
:10AA0000338829463846FFF793FE14B902A8FFF7AA
:10AA1000BBFD05B0F0BD05F003FA2146ADF8060018
:10AA200005F0DCFA1A230446DFE700BFA5C30300E4
:10AA30002DE9F0431F460B8847F6E57843449BB267
:10AA4000102B87B005460C46164656D84FF0010924
:10AA500009FA03F313F0EF011BD113F4803060D136
:10AA60005B044AD50146052203A810F0C3FC6368C5
:10AA70008DF80C701A88ADF80D205B88ADF80F309A
:10AA800009F052F905230093019003AB48F22A0222
:10AA90002FE00922002103A810F0ACFC23888DF8D8
:10AAA0000C7043449BB2072B0AD809FA03F313F046
:10AAB0000B0F09D113F004022DD113F0E00F1FD1B9
:10AAC000784606F001FB09E063681A88ADF80D20AE
:10AAD0005A88ADF80F205B68CDF81130002E14BFF6
:10AAE0000726092609F020F90096019003AB48F2E9
:10AAF0001F0221462846FFF77AFD07B0BDE8F08324
:10AB0000636833F8121BADF80D108DF80F208DF827
:10AB100010201B68E0E7636833F8022BADF80D20C6
:10AB2000F7E7072203A810F065FC63688DF80C7046
:10AB30001A88ADF80D209A88ADF811205B88ADF821
:10AB40000F3009F0F1F807230093019003AB48F2AE
:10AB50002C02CEE77FB504AA032322F80A3D02A9FE
:10AB6000064603F099FB062825D010B1784606F07A
:10AB7000ABFA0025BDF80620ABB29A4202D80020FD
:10AB800004B070BDACB2640004AB2344304633F86B
:10AB9000081C03F051FB10B1784606F095FA04AB9F
:10ABA0001C4434F8080C05F0C3F810B1784606F0E0
:10ABB0008BFA0135DEE70820E2E72DE9F0438DB09E
:10ABC0001C46154606460F46092200210DF12500B8
:10ABD00010F010FC00230DF10B0120468DF8203001
:10ABE000ADF8215003F074FC10B1784606F06CFA11
:10ABF0009DF826309DF80B2062F304136FF3471382
:10AC000005A920468DF8263003F0CEFC10B1784619
:10AC100006F05AFABDF814504FF6FF739D420DF13D
:10AC20000E01BDF8163008BFADF82A3020461CBF13
:10AC3000ADF82C30ADF82A5003F02AFA10B178465E
:10AC400006F042FABDF80E004FF6FF73984218D195
:10AC500000238DF823308DF824304FF6FF739D428A
:10AC60000CBF0C250E2509F05FF80095019008AB8C
:10AC700048F2190239463046FFF7B9FC0DB0BDE87D
:10AC8000F08306A905F026F810B1784606F01CFA04
:10AC9000BDF81A30ADF8233004A9204603F0D6FBE6
:10ACA00005288046D4D0002846D10DF11201BDF808
:10ACB000100005F0DDF80528814604D18DF82380C9
:10ACC0008DF82480C9E70028C7D19DF812308DF88F
:10ACD00025309DF8133003F00F029DF8263023F045
:10ACE0000F0313430DF1270120468DF8263003F0A2
:10ACF00023FC0122494603A810F07CFB0DF10D0254
:10AD000003A9204603F04AFA9DF80C209DF80D3067
:10AD100002A943EA821320468DF8283003F0F2F9A5
:10AD20009DF808209DF8293062F30203D20862F3EF
:10AD3000C7038DF8293090E7784606F0C5F98CE70F
:10AD4000F0B50B89032B87B007460C4619D14D6827
:10AD500004238DF80C302B88ADF80D3000238DF8CE
:10AD60000F302888C0F30B0005F05AF80DF10B01E5
:10AD7000064605F01DF9D0B9AB78022B03D0032BA2
:10AD800032D007B0F0BD9DF80B305A1E012AF8D81A
:10AD9000012B06D1304605F073F910B1784606F064
:10ADA00093F900238DF80C3002238DF80F3008F052
:10ADB000BBFF04230190009348F2170203AB214626
:10ADC0003846FFF714FC9DF80C30002BD9D10493C2
:10ADD000059308238DF8103004A89DF80F308DF8E6
:10ADE0001430FFF7D1FBCCE79DF80B30032BC8D014
:10ADF00033B1304605F06CF910B1784606F064F9CD
:10AE000000238DF80C30D0E770B50D89012D86B088
:10AE100006460C461ED14B6818788DF80F0003F0DB
:10AE200029FBB8B90523049005908DF8103004A8CB
:10AE30009DF80F308DF81430FFF7A6FB08F074FF73
:10AE4000009501900DF10F0348F20E0221463046A5
:10AE5000FFF7CDFB06B070BD7FB50E4605460CF082
:10AE60009FFB04AC04F8040D08F05EFF0123019081
:10AE7000009348F20B02234631462846FFF7B7FB02
:10AE800004B070BD0B890BB9FFF7E6BF704770B512
:10AE90000B89092B8CB006460D465CD14C68238883
:10AEA000ADF81C30A3782BB1102B56D8013B0122F2
:10AEB00002FA03F30893E37843B1112B9DBF03F12A
:10AEC000FF33012202FA03F34FF0FF330993237992
:10AED0008DF82830B4F8053003F00F03ADF82A30B0
:10AEE000B4F80730ADF82C30B4F8070004F098FF40
:10AEF0004FF6FF73984237D104238DF81030238822
:10AF0000ADF81130E3788DF81430A3788DF8133054
:10AF100023798DF81530B4F8053003F00F03ADF840
:10AF20001630B4F80730ADF8183008F0FDFE0A23EB
:10AF300001900093062204AB29463046FFF757FBE9
:10AF40009DF810303BB914238DF8083002A807ABE8
:10AF50000393FFF719FB0CB070BDFF2B4FF6FF7387
:10AF600018BF4FF0FF33A5E707A80CF073F90028CE
:10AF70000CBF00230F23C0E737B50378012B03D0A4
:10AF80000E2B1DD003B030BD154B42681B689A4292
:10AF9000F8D1144C2378012BF4D1FBF74BFF0BF0C5
:10AFA00001FB50B100251C236846009501958DF8E2
:10AFB0000030FFF7E9FA2570E4E702232370E1E7A8
:10AFC000084D2B78022BDDD100241C236846009409
:10AFD00001948DF80030FFF7D7FA2C70D2E700BF4C
:10AFE000B0340020AC34002030B50B89032B85B081
:10AFF00005460C4615D14B6800228DF80C201B88A5
:10B00000ADF80D3002238DF80F3008F08DFE0423CB
:10B010000190009348F2480203AB21462846FFF70F
:10B02000E6FA05B030BD30B50B89022B85B0054678
:10B030000C4614D14A6800218DF80C101288ADF826
:10B040000D208DF80F3008F06FFE0423019000935F
:10B0500048F2480203AB21462846FFF7C8FA05B07C
:10B0600030BD7FB504AC022304F8043D05460E460E
:10B0700008F05AFE01230190009348F2140223467F
:10B0800031462846FFF7B3FA04B070BD0A89012A99
:10B0900005D14B681B78012B01D8FFF7E2BF704741
:10B0A0000B890BB9FFF7DDBF70477FB504AC0223F6
:10B0B00004F8043D05460E4608F036FE01230190D3
:10B0C000009348F21102234631462846FFF78FFAD3
:10B0D00004B070BD0A89012A05D14B681B78012B89
:10B0E00001D8FFF7E2BF70470B890BB9FFF7DDBF4F
:10B0F000704770B50B8986B006460D46FBB906A9A8
:10B10000012341F8043D03A805F066F8059B9AB2B7
:10B110005B0803EB430302F0010404A903A803EB5B
:10B12000440401F0DBFB08F0FFFDA4B201900094A1
:10B1300004AB48F2430229463046FFF758FA06B0FE
:10B1400070BDF0B50B89022B87B006460D4632D193
:10B150004F6806AC0123388844F80C3DC0F30B005F
:10B1600004F05EFE224602A905F06EF93B88ADF8B8
:10B17000113018B1052820D010231FE0039C8DF852
:10B180001000A2B2640804EB440402F0010304EBD3
:10B19000430403340DF1130102A8A4B201F09EFB95
:10B1A00008F0C2FD0094019004AB48F20202294667
:10B1B0003046FFF71CFA07B0F0BD04238DF81030BD
:10B1C0000324EDE7F0B516460A881F4648F2180337
:10B1D0009A4287B005460C4605D048F21A039A42B7
:10B1E00001D0032A2CD10E22002102A810F002F96E
:10B1F00023888DF8087048F21802934209D048F26B
:10B200001A0293421ED0032B20D1636833F8092B16
:10B2100002E0636833F8022BADF809201B68CDF813
:10B220001230002E14BF0C260E2608F07DFD00966D
:10B23000019002AB48F2190221462846FFF7D7F9E0
:10B2400007B0F0BD636833F8172BE5E7784605F0E3
:10B250003BFFE6E77FB50B89022B06460C461FD164
:10B260004D682888C0F30B0004F0DAFD0DF10B01E6
:10B2700004F09EFE002303932B88ADF80D3088B9AF
:10B280009DF80B308DF80F3008F04EFD042301902F
:10B29000009348F2170203AB21463046FFF7A7F9A7
:10B2A00004B070BD04238DF80C30EDE77FB50B8939
:10B2B00006460D4683B903F0E9F804AC04F8010D25
:10B2C00008F032FD01230190009348F20E0223465C
:10B2D00029463046FFF78BF904B070BD37B50B89AE
:10B2E000012B05460C4618D14B681A78012A14D850
:10B2F00000220092019204228DF800201878431E4B
:10B30000584258418DF804000CF034F92846214683
:10B31000FFF7A2FD6846FFF737F903B030BD70B5FF
:10B320000B89012B8AB006460D461ED14B681B784F
:10B33000013BDBB2FD2B18D90AA900238DF80C3094
:10B340001A2321F81E3D0DF10D00FFF759F8BDF845
:10B350000A4008F0E9FC0134A4B20190009403AB68
:10B36000022229463046FFF742F90AB070BD0000BC
:10B370002DE9F0470B89132B88B080460C4670D11D
:10B380004E68B578707837783388ADF814304FEA66
:10B39000051A4AEA101A00F00F0047EA00208DF85B
:10B3A000165004F03DFD00238DF81830F21C07AB59
:10B3B00001468146504604F069FF384B1B685B0428
:10B3C00006461CD5364B1B68032B18DD2F2135484C
:10B3D00010F0E4F8F8B12F21324810F0DFF8411CEA
:10B3E000314BBDF81C20D3F8043501922F4A00924E
:10B3F000CDF808A040F26F2204200AF05DFB0F2E6A
:10B4000048D8DFE806F03E474711404947334747F1
:10B410004747474747315C21224810F0BFF808B141
:10B420005C21D9E71F49DBE70DF11201BDF81C00D3
:10B4300004F036FD10B1784605F046FEBDF8122046
:10B440004A4514BF042200228DF814708DF816505E
:10B45000059B21464046FFF733FA16B906A8FFF7C9
:10B4600093F808B0BDE8F0870622EDE78DF8147078
:10B470008DF81650059B032221464046FFF720FA1F
:10B48000EFE70022E0E78DF814708DF81650059B69
:10B490000522F1E71022D7E70422D5E7602E00202D
:10B4A0005C2E0020B5C3030000100140E5C303007B
:10B4B00073B50D46164602F0EFFE0528044608D087
:10B4C00006281BD0C0B9023D33889C4204D300201B
:10B4D00000E0022002B070BD694635F8020F04F0AA
:10B4E000F9FB48B99DF80030023B012B04D8BDF8A8
:10B4F00002302B800134E7E71020EBE70820E9E772
:10B5000008B5A8B1B0F5004F08D800224008D3B262
:10B5100002F10102FAD1581CC0B208BD4FF6FF7308
:10B52000984204D0784605F0CFFD102008BDFF20DA
:10B5300008BD2DE9F04F0B89132B85B080460D46D1
:10B5400034D14C68607823882778ADF804304FEA0E
:10B55000101B002300F00F00A6780293039347EA24
:10B56000002001238DF806608DF8083004F058FCA7
:10B570004FF6FF7A5045814609D04BEA061004F099
:10B5800063FC5045ADF80C0013D1032400E0042403
:10B590008DF804708DF80660019B224629464046CE
:10B5A000FFF78EF914B902A8FEF7EEFF05B0BDE86B
:10B5B000F08F0DF1020104F073FC10B1784605F034
:10B5C00083FDBDF802304B450FD1E11CBDF80C00E6
:10B5D00004F09AFE0528D8D0082804D000280CBF13
:10B5E00000241024D4E70B24D2E71124D0E72DE95E
:10B5F000F0430A89032A85B080460D4635D14B6851
:10B600009E7819881F785B78ADF80410300140EA05
:10B6100013108DF8066003F00F048DF8082004F075
:10B6200013FC4FF6FF794845ADF80C003ED047EAD1
:10B63000042004F0F5FB4845044619D1042400E039
:10B6400011248DF804708DF80660019B224629466E
:10B650004046FFF735F944B9BDF80C204FF6FF73AB
:10B660009A4202D002A8FEF78FFF05B0BDE8F08332
:10B670000DF10201BDF80C0004F012FC10B1784687
:10B6800005F022FDBDF80230A342D9D1BDF80C006F
:10B6900003F038F810B1784605F016FDBDF80C003F
:10B6A00004F07AFE10B1784605F00EFD0024C8E7DC
:10B6B00008B578B1B0F5803F08D800224008D3B271
:10B6C00002F10102FAD1581CC0B208BD784605F05B
:10B6D000FBFC112008BD70B50C4686B005460BF08A
:10B6E000B5FD2189064619BB8DF80C100388ADF80D
:10B6F0000D304368012B1DD8DBB2B0688DF80F30D8
:10B70000FFF7D6FF337B8DF81130F389ADF8123097
:10B71000338AADF814308DF8100008F005FB0A23C9
:10B7200001900093062203AB21462846FEF75FFFF7
:10B7300006B070BDB3F5004F07D8013B5B08CAB235
:10B7400001F10101FAD1931CD6E74FF6FF72934243
:10B7500004D0784605F0B8FC1023CEE7FF23CCE7F1
:10B76000F0B50E8987B007460D462EBB0BF06AFD7B
:10B770008DF80C60038804460BB14288F2B90023AF
:10B780008DF80D308DF80E308DF80F308DF81030AB
:10B790008DF811308DF812308DF813308DF814308B
:10B7A00008F0C2FA09230190009348F23C0203AB6F
:10B7B00029463846FEF71BFF07B0F0BDADF80D3047
:10B7C0004388ADF80F304068FFF79AFE8DF81200FD
:10B7D000A068FFF76DFFA3898DF813308DF8110075
:10B7E000E389DBE7F0B50B89052B8DB007460D46E5
:10B7F0004AD14C681022002108A80FF0FBFD2388D5
:10B80000ADF820306388ADF82230237943B1112B95
:10B810009DBF03F1FF33012202FA03F34FF0FF3320
:10B8200008A80A930BF0A4FC064668BB0BF00AFDBF
:10B830008DF814600388ADF815300446438880689D
:10B84000ADF81730FFF734FF8DF819006068FFF787
:10B8500057FEA3898DF81B30E3898DF81C308DF8D5
:10B860001A0008F061FA092301900093384605ABED
:10B8700048F23C022946FEF7BAFE152303A88DF8CC
:10B880000C300494FEF780FE0DB0F0BD2DE9F347B7
:10B89000B1F8088028F00203042B06460D461DD19E
:10B8A000B8F1040F4C680CBF4FF001094FF00009CC
:10B8B00017D1A378E27843EA0223ADF806304FF6B9
:10B8C000FF772088FEF768FE4FF6FF7A504510D1CB
:10B8D00001234A4629463046FFF774FC02B0BDE812
:10B8E000F08723796279678843EA0223ADF806304E
:10B8F000E7E7ADF804700DF10202019902F06AFE6B
:10B9000020B9B8F1040F03D0574501D10223E0E775
:10B91000BDF80230228829463046FFF74EF9DDE7B0
:10B920002DE9F047B1F8089029F00203042B86B006
:10B9300007460D461DD1B9F1040F4C680CBF4FF0FE
:10B9400001084FF0000817D1A378E27843EA0223F8
:10B95000ADF80E304FF6FF762088FEF71DFE4FF64D
:10B96000FF7A504510D10123424629463846FFF759
:10B970005FF806B0BDE8F08723796279668843EA0C
:10B980000223ADF80E30E7E7ADF80C600DF10A02C6
:10B99000039902F01FFE20B9B9F1040F03D05645F8
:10B9A00001D10223E0E7BDF80A00FFF7D3F806460D
:10B9B00008B10346D8E701F08DFD34F8022BCDF82D
:10B9C000048020680090334638462946FEF757FF2A
:10B9D0000C23049604A88DF81030BDF80A300596A3
:10B9E000ADF81430FEF7D0FDC3E72DE9F047B1F80C
:10B9F000089029F00203142B88B006460D4632D178
:10BA0000B9F1140F4C680CBF0127002710D1A37C9B
:10BA1000E27C43EA0223ADF80E304FF6FF7820882F
:10BA2000FEF7BAFD4FF6FF7A50450AD1012315E023
:10BA3000237D627DB4F8128043EA0223ADF80E3014
:10BA4000EDE7ADF80C8002AA039902F0C3FD20B91E
:10BA5000B9F1140F0AD0D04508D102233A4629463D
:10BA60003046FEF7E5FF08B0BDE8F08702238DF809
:10BA70001030A01C00230DF11201ADF8123005901A
:10BA800009F04AFF10B1784605F01EFB0DF10A01DE
:10BA900004A804F079F90528C8D008B11023DDE71F
:10BAA000BDF80A10BDF8080002F0C6FB08B10C236F
:10BAB000D4E7BDF80A0004F03BF910B1784605F070
:10BAC00003FB01F007FD34F8122B01972068BDF845
:10BAD0001230009029463046FEF7D1FE0B238DF838
