:020000022000DC
:1060000000FD002005C503002DC503002FC50300BA
:1060100031C5030033C5030035C50300000000008F
:1060200000000000000000000000000037C5030071
:1060300039C50300000000003BC503003DC5030057
:106040003FC503003FC503003FC503003FC5030034
:106050003FC503003FC50300F57A02003FC50300BA
:106060003FC503003FC50300E10903003FC503002E
:106070003FC503003FC503003FC503003FC5030004
:106080003FC503002D9B030021CA02003FC503004A
:10609000FD9B03003FC50300B18702003FC503001D
:1060A0003FC503003FC503003FC503003FC50300D4
:1060B0003FC503003FC503000000000000000000D2
:1060C0003FC503003FC503003FC503003FC50300B4
:1060D0003FC503003FC503003FC5030000000000AB
:1060E00000000000000000000000000000000000B0
:1060F00000000000000000000000000000000000A0
:10610000000000000000000000000000000000008F
:10611000000000000000000000000000000000007F
:10612000000000000000000000000000000000006F
:10613000000000000000000000000000000000005F
:10614000000000000000000000000000000000004F
:10615000000000000000000000000000000000003F
:10616000000000000000000000000000000000002F
:10617000000000000000000000000000000000001F
:10618000000000000000000000000000000000000F
:1061900000000000000000000000000000000000FF
:1061A00000000000000000000000000000000000EF
:1061B00000000000000000000000000000000000DF
:1061C00000000000000000000000000000000000CF
:1061D00000000000000000000000000000000000BF
:1061E00000000000000000000000000000000000AF
:1061F000000000000000000000000000000000009F
:1062000010B5054C237833B9044B13B10448AFF3F0
:1062100000800123237010BD4C2F002000000000DF
:1062200098F503000C4B43B10C480D4910B5AFF382
:1062300000800C48036823B910BD0A48036833B9CD
:106240007047094B002BF7D0BDE810401847064BAC
:10625000002BF5D0184700BF0000000098F50300A0
:10626000502F0020482F002000000000154B002B6D
:1062700008BF134B9D46A3F5803A00218B460F467D
:106280001348144A121A17F05DFD0F4B002B00D073
:1062900098470E4B002B00D09847002000210400A7
:1062A0000D000D48002802D00C48AFF3008017F015
:1062B000FBFC2000290000F099FD17F0E1FC00BF75
:1062C0000000080000FD00200000000000000000A9
:1062D0004C2F0020C45900200000000000000000E6
:1062E00041DF704730B52E4B144652681B6887B0AB
:1062F0000D46002A2CD05A041FD52A4B1B68032BAD
:106300001BDD2F21284817F0F1FDC0B12F212648B1
:1063100017F0ECFD411C254B6268D3F8043504925C
:1063200062780392227802926A880192204A00924F
:1063300004204FF4A07207F061FA07B030BD5C2171
:10634000194817F0D3FD08B15C21E0E71649E2E7F0
:106350005B04F2D5134B1B68032BEEDD2F21124893
:1063600017F0C4FD98B12F210F4817F0BFFD411C55
:106370000E4B2278D3F8043502926A8801920D4AB6
:106380000092042040F2451207F038FAD5E75C216C
:10639000054817F0ABFD08B15C21E5E70249E7E7E6
:1063A000542E0020502E002048E103000010014030
:1063B0006EE10300C0E10300012A07B533D00AD320
:1063C000022A59D03E4A40F23311032003B05DF84F
:1063D00004EB16F0C2B83B4B1B68590417D53A4B77
:1063E0001B68032B13DD2F21354817F07FFD88B183
:1063F0002F21334817F07AFD411C344B344AD3F82F
:10640000043500924FF49372042007F0F7F903B0BB
:106410005DF804FB5C212A4817F068FD08B15C2197
:10642000E7E72749E9E7062232214FF4F01001F0AF
:10643000C9FA244B1B685A04E9D5234B1B68032B6C
:10644000E5DD2F211E4817F051FD60B12F211C48BA
:1064500017F04CFD411C1D4B1E4AD3F80435009229
:1064600040F22B12D0E75C21154817F03FFD08B130
:106470005C21ECE71249EEE7124B1B685B04C6D5C2
:10648000114B1B68032BC2DD2F210D4817F02EFD89
:1064900060B12F210A4817F029FD411C0B4B0E4A11
:1064A000D3F80435009240F22F12ADE75C21044886
:1064B00017F01CFD08B15C21ECE70149EEE700BFD5
:1064C00048E10300542E0020502E0020001001400F
:1064D000E6E0030006E1030026E1030007B53822E9
:1064E0003749012000F0BCFF364B1B6820BB590424
:1064F00016D5354B1B68032B12DD2F21334817F0BF
:10650000F5FC80B12F21314817F0F0FC411C304BD5
:10651000304AD3F8043500928622042007F06EF941
:1065200003B05DF804FB5C21284817F0DFFC08B1DC
:106530005C21E8E72549EAE706281FD15A04EFD590
:10654000214B1B68032BEBDD2F21204817F0CEFCDD
:1065500058B12F211D4817F0C9FC411C1C4B1E4A85
:10656000D3F8043500928A22D7E75C21174817F048
:10657000BDFC08B15C21EDE71449EFE75B04CFD522
:10658000114B1B68002BCBDD2F21104817F0AEFC00
:1065900060B12F210D4817F0A9FC411C0C4B0F4A8C
:1065A000D3F80435009201208E22B7E75C2107481A
:1065B00017F09CFC08B15C21ECE70449EEE700BF52
:1065C000882F0020542E0020502E002048E1030088
:1065D0000010014084DF0300A8DF0300D6DF0300C2
:1065E00007B5184B1B685B0417D5174B1B68032BAB
:1065F00013DD2F21154817F079FCC8B12F2113485E
:1066000017F074FC411C124B124AD3F80435009267
:10661000042040F24B1207F0F1F80322C8214FF496
:10662000F01001F0CFF903B05DF804EB01F000B811
:106630005C21064817F05AFC08B15C21DFE70349EA
:10664000E1E700BF542E0020502E002048E1030057
:1066500000100140AEE2030013B51F4B1B685B0442
:10666000044618D51D4B1B68032B14DD2F211C4835
:1066700017F03CFCA8B12F21194817F037FC411C3A
:10668000184B194AD3F804350092019440F25B127A
:10669000042007F0B3F8012C0CD0032C0FD002B06B
:1066A00010BD5C210E4817F021FC08B15C21E3E726
:1066B0000B49E5E702B0BDE81040FFF70FBF0CF053
:1066C000FBFA3821094800F011FF00F055FF02B035
:1066D000BDE81040FFF784BF542E0020502E00204C
:1066E00048E10300001001403FE20300882F002032
:1066F0003038032801D8FFF7AFBF704703781C2B51
:1067000001D1FFF76DBF704700F02ABC37B5274BAA
:106710001B685B0418D5264B1B68032B14DD2F2147
:10672000244817F0E3FB002835D02F21214817F02B
:10673000DDFB411C204B214AD3F804350092042094
:1067400040F2951207F05AF81D4C1E4D25630023A8
:1067500001212046A36284F82C3084F82D300CF0FF
:10676000ADFB20B1134A40F29F1115F0F6FE002355
:10677000022115486566E36584F8603084F861306D
:106780000CF09CFB80B10B4A40F29F1103B0BDE8B6
:10679000304015F0E2BE5C21064817F0A7FB08B1B7
:1067A0005C21C3E70349C5E703B030BD542E002088
:1067B000502E002048E10300001001408EE203004B
:1067C000C02F002054E20300F42F002010B504462F
:1067D00000214FF4F01004EB840401F0EAF86200A9
:1067E00032214FF4C010BDE8104001F0EBB801F0C9
:1067F0001DB900001FB5314C2268520418D5304B2A
:106800001B68032B14DD2F212E4817F06FFB002887
:1068100042D02F212B4817F069FB411C2A4B2B4AF1
:10682000D3F80435009204204FF4D97206F0E6FF45
:1068300001F028FB01F05AFB03A812F097F9236836
:106840005B041AD51E4B1B68032B16DD2F211D4838
:1068500017F04CFB48B32F211A4817F047FB411C97
:10686000194BBDF80C20D3F804350192184A009258
:10687000042040F2BD1206F0C1FF01F0D7F800215C
:106880004FF4F01001F095F80422C8214FF4F010F5
:1068900001F098F804B010BD5C210A4817F026FBFF
:1068A00008B15C21B6E70749B8E75C21054817F055
:1068B0001DFB08B15C21CFE70249D1E7542E00202F
:1068C000502E002048E1030000100140C7E2030001
:1068D000E1E2030007B5144B1B685B0417D5134BAB
:1068E0001B68012B13DD2F21114817F0FFFA88B127
:1068F0002F210F4817F0FAFA411C0E4B0E4AD3F81D
:106900000435009202204FF48C7206F077FF03B03A
:106910005DF804FB5C21064817F0E8FA08B15C2139
:10692000E7E70349E9E700BF542E0020502E00207E
:1069300048E1030000100140C7E003002DE9F043E7
:106940000378012B8BB0054640F0FF809E4F3B68DB
:10695000580422D59D4B1B68032B1EDD2F219C481C
:1069600017F0C4FA002800F0B3802F21984817F0E0
:10697000BDFA411C974B2A7BD3F8043505926A7AFD
:1069800004922A7A0392EA7A0292AA7A0192924AAD
:1069900000920420F52206F031FFDFF85C82DFF878
:1069A0006092002498F80030E6B2B34209D933016E
:1069B000062259F80310686817F0AAF90134002874
:1069C000F0D105F011FA854A13788DF81D30591C65
:1069D00032230993642308932B7B1170012B044607
:1069E00040F0EF80AB7A002B7BD07D4B31015A58C1
:1069F000801A48BF101B7B4A904272D95C5001211B
:106A000011208DF81C1000F0C9FF08AA07A97648CC
:106A10000CF084FAE8B93B6859041AD56B4B1B6833
:106A2000032B16DD2F216A4817F060FA002869D081
:106A30002F21674817F05AFA411C664B9DF81C201D
:106A4000D3F804350192694A00920420CC2206F062
:106A5000D5FE2B7A002B5ED0614B31015A1892681B
:106A6000A01A48BF101B5F4A904254D90B44012121
:106A70009C6012208DF81C1000F090FF022308AAE1
:106A800007A95B480CF09CFA002840F09A803B680C
:106A90005A0440F196804D4B1B68032B40F39180C4
:106AA0002F214B4817F022FA002845D02F214848C3
:106AB00017F01CFA411C474B9DF81C20D3F80435F5
:106AC00001924C4A00920420E22206F097FE78E000
:106AD0005C213F4817F00AFA08B15C2146E73C49BF
:106AE00048E7EB7A002BB4D03D4B31015A1852687D
:106AF000A01A48BF101B3B4A9042AAD90B44002160
:106B00005C607DE75C21324817F0F0F908B15C2148
:106B10008FE72F4991E76B7A002B52D0304B36012B
:106B20009A19D268A11A48BF111B2E4A914248D91E
:106B30001E440021F4609CE75C21254817F0D6F93B
:106B400008B15C21B3E72249B5E7002B39D12A4EC1
:106B50003078012856D8294CAA681C2707FB004327
:106B6000C0EBC0009A616968062204EB800017F050
:106B7000DEF83078E96807FB00401022063017F095
:106B8000D6F8FFF7ABFC32781D4910B2C0EBC0035A
:106B900012019B008F1803F1180525447D60E5184C
:106BA00006331C448D5001EB0010BC6000F0D2FA9B
:106BB000337804220133C8214FF4F010337000F011
:106BC00001FF0BB0BDE8F083542E0020502E0020B2
:106BD00048E10300001001400FE003004D300020A9
:106BE0002C30002020A10700C02F00203FE0030030
:106BF000F42F002065E0030029300020882F0020BA
:106C0000682F0020124B1B685B04DAD5114B1B6800
:106C1000002BD6DD2F21104817F068F978B12F210D
:106C20000D4817F063F9411C0C4B0222D3F80435D0
:106C300001920B4A009201204FF4887245E75C21D3
:106C4000054817F053F908B15C21E9E70249EBE781
:106C5000542E0020502E002048E103000010014077
:106C60008BE003002DE9F74F03780E2B40F0848072
:106C7000524E3368590418D5514B1B68042B14DD50
:106C80002F21504817F032F9002878D02F214D4895
:106C900017F02CF9411C4C4B4C4AD3F804350092A8
:106CA00005204FF4C17206F0A9FD494F3B78002B37
:106CB00062D133685A0418D5414B1B68032B14DD8D
:106CC0002F21404817F012F9002861D02F213D48AC
:106CD00017F00CF9411C3C4B3E4AD3F804350092A6
:106CE000042040F2F91206F089FD38223A49DFF813
:106CF000F880012000F09CFB00285BD1374DDFF8C5
:106D0000D890DFF8BCA0DFF8C0B0044609EB04035C
:106D10002B60A31D4B44AB6004F118034B446B6024
:106D200098F800302846013388F8003000F012FA55
:106D300033685B0416D5DAF80030032B12DD2F21FF
:106D4000204817F0D3F860B32F211E4817F0CEF873
:106D5000411C234ADBF804350092042040F205224E
:106D600006F04CFD1C34382C05F11005CED11D4821
:106D700004F0D0FD01233B7003B0BDE8F08F5C212F
:106D8000104817F0B3F808B15C2180E70D4982E79D
:106D90005C210C4817F0AAF808B15C2197E7094973
:106DA00099E75C21074817F0A1F808B15C21CCE70E
:106DB0000449CEE7002388F80030D8E7542E00209D
:106DC000502E002048E1030000100140E9E10300DB
:106DD0004C30002002E20300882F0020682F0020A2
:106DE00019E20300096702002930002000B54E4A6D
:106DF0008DB0042146F2010006F0E6FC4B4B1B6807
:106E00005B0418D54A4B1B68032B14DD2F2149481E
:106E100017F06CF800287DD02F21464817F066F84F
:106E2000411C454B454AD3F804350092042040F2FA
:106E3000E11206F0E3FC13F02FF820B13D4A40F2D6
:106E4000E31115F08AFB00F001FE3D4800F02AFE38
:106E500020B1384A40F2E71115F07FFB00F0F8FF4F
:106E600001F010F801F042F80021242203A816F0E6
:106E700069FF01238DF80C3007238DF80F300623AE
:106E80008DF814302F4B07932F49304B0B9303A8E9
:106E900000F08AFB20B1274A40F2D71115F05DFBC4
:106EA0002B4804F02DFD00F035FA2A4800F062F975
:106EB0006421294800F018FD234B1B7883B9274D26
:106EC0000FCD03AC0FC495E8030084E8030003A8CA
:106ED00000F0AEFC20B1174A40F2222115F03DFB34
:106EE00000214FF4F01000F064FD0222C8214FF49D
:106EF000F01000F067FD01F0D9FE00F02BFE00F06D
:106F000089FB20B10B4A40F22E2115F026FBFFF73A
:106F1000E7F9FCE75C21074816F0E8FF08B15C21BF
:106F20007BE704497DE700BF9DD70200542E002077
:106F3000502E002048E103000010014060E20300F1
:106F400059660200FD660200283000200D6702002D
:106F5000A02D00203D690200F16602006CDF0300F5
:106F60002DE9F04F44686378FF2B99B040F0B4806E
:106F70002378102B00F2A280628840F2DA339A4222
:106F800040F0CE8090F801A063680293AAF1040853
:106F90005FFA88F804EB08030393012387688DF8F0
:106FA0002430654BDFF8A8B11D680F370A97002D14
:106FB00000F0B680B8F10D0F7ED8062255F80C1CF3
:106FC000384616F0A5FE0646002875D10DF11409C5
:106FD00006223946484616F0AAFE0422A1180DF1F1
:106FE0001A0016F0A4FE032231460DF11E0016F021
:106FF000A9FE55F8043C0F93039B16930DF1130162
:1070000004230FA88DF85C30CDF840901196ADF8B0
:1070100048601394ADF85080159605F05CFD9DF81E
:107020001330002B48D055F8083C02991A688A4260
:1070300042D21960414B94F808901B685B0409F038
:107040001F0618D53E4B1B68032B14DD2F213D482E
:1070500016F04CFF002866D02F213A4816F046FF64
:10706000411C394B394AD3F804350092042040F2D0
:107070002B1206F0C3FBC6F340038DF82E30C6F387
:1070800080038DF82F30C6F3C0038DF82C3004F147
:1070900009030D93AAF10D03DBB2360909F00109CA
:1070A000042B8DF82D608DF830908DF8383037D85E
:1070B00009A8DBF8003098472D6878E71D2B2FD101
:1070C000628840F2DA339A422AD1676804F11806DE
:1070D0000834194B1D6818E0082B21D1237AFF2BA7
:1070E0001ED1B4F8092040F2DA339A4218D18668EA
:1070F000D4F80B700F360F34EBE70622314655F803
:107100000C0C16F005FE58B12D68002DF5D1104B72
:107110008DF824500A960B970C941B6809A8984781
:1071200019B0BDE8F08F5C21064816F0DFFE08B10B
:107130005C2192E7034994E754300020542E00204C
:10714000502E002021E30300001001404AE3030019
:107150005030002010B5044610B9784601F06EFD9D
:1071600004F10C010248BDE8104006F0AEBA00BFC1
:107170005430002010B5044610B9784601F05EFD89
:10718000014B1C6010BD00BF50300020024A482156
:10719000032015F0E2B900BF9EE3030013B5154BC1
:1071A0001B685B04044616D5134B1B68032B12DDCA
:1071B0002F21124816F09AFE90B12F210F4816F099
:1071C00095FE411C0E4B0F4AD3F804350092042063
:1071D0004D2206F013FB234602B0BDE810401847CD
:1071E0005C21064816F082FE08B15C21E6E70349FF
:1071F000E8E700BF542E0020502E00209EE303003D
:1072000000100140CCE3030013B51D4B1B685B0469
:10721000144616D51B4B1B68032B12DD2F211A4871
:1072200016F064FEA8B12F21174816F05FFE411C2E
:10723000164B174AD3F8043500920420382206F082
:10724000DDFA012C0ED1784602B0BDE8104001F005
:10725000F5BC5C210C4816F049FE08B15C21E3E75F
:107260000949E5E7022CEED0032C07D1064A41215B
:10727000042002B0BDE8104015F06FB902B010BD97
:10728000542E0020502E00209EE3030000100140E9
:1072900007E4030007B5184B1B685B0416D5174BB2
:1072A0001B68032B12DD2F21154816F01FFEB8B105
:1072B0002F21134816F01AFE411C124B124AD3F824
:1072C0000435009204205E2206F098FA0F4806F07A
:1072D000B3FD70B10E4803B05DF804EB06F0ECBFEF
:1072E0005C21074816F002FE08B15C21E1E7044981
:1072F000E3E703B05DF804FB542E0020502E00207D
:107300009EE3030000100140F8E303005830002022
:10731000BC2D002000B58BB003A902A800F098F99D
:1073200018B1204A702115F018F91F4B07931F4B15
:1073300008931F4B099304230693029B1D48A3F552
:107340008053049304A90123059306F0A0FEE8B13D
:10735000194806F0B1FF194B1B685B0416D5184B92
:107360001B68002B12DD2F210E4816F0BFFD80B1E7
:107370002F210C4816F0BAFD411C124B124AD3F8CB
:107380000435009201207E2206F038FA0BB05DF839
:1073900004FB5C21034816F0A9FD08B15C21E8E775
:1073A0000049EAE79EE30300097202008D710200C2
:1073B000CD73020058300020AC2D0020542E002048
:1073C000502E00200010014074E3030007B5134B5A
:1073D0001B685B0416D5124B1B68032B12DD2F2193
:1073E000104816F083FD80B12F210E4816F07EFD67
:1073F000411C0D4B0D4AD3F8043500920420542251
:1074000006F0FCF903B05DF804FB5C21054816F0BA
:107410006DFD08B15C21E8E70249EAE7542E00203F
:10742000502E00209EE3030000100140E1E3030022
:1074300073B502AB0D4643F8042D16460A460146C5
:10744000064806F081FD044620B132460021284658
:1074500016F078FC204602B070BD00BF5830002006
:1074600073B50D4601461B48164606F0A4FD1A4B9F
:107470001B685B04044616D5184B1B68032B12DDF2
:107480002F21174816F032FDC8B12F21144816F0ED
:107490002DFD411C134B144AD3F8043500920420EF
:1074A000922206F0ABF99CB132462946201D16F017
:1074B0003EFC204606F0AEFD002002B070BD5C210F
:1074C000074816F013FD08B15C21DFE70449E1E746
:1074D0001120F2E758300020542E0020502E0020BA
:1074E0009EE303000010014066E3030008B50A466E
:1074F000002116F027FCBDE80840FFF7CBBE03785B
:107500000E2B02D1002004F05DBA704730B5837DA8
:10751000C27D85B043EA02230446ADF80C3003A8CF
:1075200003230D46ADF80E3011F0E4FA10BB02AAA9
:107530002146208A11F0D2FCE0B90DF10A032A4657
:10754000BDF80810E08A11F08BFE98B9217ED4F8BE
:10755000120001F0010103F0A1FD10B1784601F025
:107560006DFBBDF80A000EF0ADF818B901900EF0F1
:10757000B1FE019805B030BD08B508F083F90FF0F1
:1075800058FB11F03FFABDE8084003F043BB07B5D4
:1075900001A811F0EBFABDF80400003018BF01207B
:1075A00003B05DF804FB000073B50E46054660B3FA
:1075B00004F0D2F8044628BB11F07EFA10F046F829
:1075C00028690EF04FF80446E0B92B7F0193AB69B0
:1075D000009301466B690E4859220EF06BFA04467F
:1075E00080B92B6A03B1984708F068F811F07EF96A
:1075F0000FF04CF9FFF7CBFF054608B10BF084FA0A
:1076000006B13570204602B070BD0E24FAE700BF07
:107610007C30002008B5FFF7BAFF20B10BF02CFB3F
:1076200008B10BF0B3FABDE8084004F0FBB8000065
:1076300008B506F059FE20B10020BDE8084004F06E
:10764000C1B90248BDE8084004F05AB9CC2D002069
:1076500037B50D460446A0B199B1684608F0D2FB93
:10766000009B53B1236006F075FE2368C01A00F535
:1076700080502860002003B030BD0FF0B6FF2060BE
:10768000F1E70E20F7E700000349044809690323E6
:10769000002213F05EB800BFDC3000202C33002045
:1076A00010B50378023B082B4AD8DFE803F01E052B
:1076B0001249493849493F00224B5B68002B3FD0B3
:1076C000007A00283CD0204A01211170BDE810400A
:1076D00018471C4B9B68002B32D01B4A117879B39A
:1076E00000211170BDE810401847184B1A784AB9AC
:1076F000144BDB6813B114490A709847BDE8104079
:10770000FFF7C2BF124B134801221A7004F0F8F8B9
:1077100004F0DEF8A0B1BDE8104014F011BF094B31
:107720000D485969102213F058F8F3E78168C068D2
:10773000FFF7ECFE08B114F003FF044B01221A70AE
:1077400010BD00BFDC300020D8300020D930002030
:10775000DA300020D82D00202C33002030B5274D02
:10776000297885B019B1012803D003283FD005B08E
:1077700030BD04AC002344F8083D214600F0C4FEAF
:1077800008B114F0DDFE204600F028FF08B114F027
:10779000D7FE04A9012341F8043D0DF1060011F0C4
:1077A0002FFD08B114F0CCFEBDF8060011F004FB6B
:1077B0000DF1050111F0CEFB08B114F0C1FE0BF084
:1077C000A3F99DF8051000200BF08CFA10B1784653
:1077D00001F034FA04F026F808B114F0B1FE0023E9
:1077E0002B70074B1B68002BC1D09847BFE700F0F8
:1077F0005FFF0028BBD014F0A3FEB8E7DA3000200A
:10780000DC30002008B503781B2B0CD1064B1B780D
:107810004BB100F089FF08B114F092FE0348BDE8B7
:10782000084004F06FB808BDDA300020D82D0020E1
:1078300070B51E4A1E4E5168044686B0106803ABF0
:1078400003C31189927A19809A700FCC35460FC5FF
:1078500094E8030085E8030073692BB315491648C3
:1078600012F05EFFF0B9154B0093124A124914480A
:1078700003AB12F027FFA8B9124813F001FF01462D
:107880000F4812F039FF68B90F4814F08FFC48B95F
:107890000D4814F0C1FC0146094812F02DFF08B94B
:1078A000FFF7F2FE06B070BD0720FBE71DE4030002
:1078B000DC300020F430002060340020A17602008B
:1078C0002C33002014310020DC32002010B5054C90
:1078D000226832B114F074FF002802DB2368984755
:1078E000F8E710BDA0340020154B164A10B50C4621
:1078F00018600121144812F02BFB18B1134A4A21D9
:1079000014F02BFE610C0023E00341F26F728B42F6
:1079100008BF824210D24FF47A72002316F028F882
:10792000014600220A4812F025FB38B1074A4B21D4
:10793000BDE8104014F011BE0521F2E710BD00BFF4
:10794000A0340020CD78020028E403002CE40300DA
:10795000A434002038B50D4C206808B914F0F0FDAF
:107960004FF0A0450A4AD5F8043512685340C5F8CF
:1079700004352368013B236033B9064812F040FB0D
:10798000054B1B68C5F8043538BD00BFC434002062
:10799000C8340020CC340020F434002001234FF000
:1079A000A042834011B1C2F80C357047C2F80835C7
:1079B00070474FF0A04311B1C3F80C057047C3F8EE
:1079C00008057047F8B542B3132926D9134B144D57
:1079D0005200013A4FF0A0441A602860114BD4F8CD
:1079E00004251A604FF400404FF4FA760027E0FBBC
:1079F00001674FF47A7200233046394615F0B8FF1C
:107A000000220146084812F0B5FA30B9D4F804351E
:107A10002A6823EA0203C4F80435F8BDC434002000
:107A2000C8340020F4340020CC34002008B50548C8
:107A300012F0E6FA044B1A684FF0A043C3F8082589
:107A400008BD00BFCC340020C834002008B54FF07A
:107A5000A04303224FF40031C3F84427C3F80815AC
:107A60004FF48021C3F84827C3F808154FF40021CC
:107A7000C3F84C27C3F80815C3F850274FF48012F9
:107A8000C3F808250121054A054812F061FA18B12A
:107A9000BDE8084014F054BD08BD00BF5579020090
:107AA00050E40300D8B10F4B0F4A18604FF0A043C9
:107AB0000020C3F83427C3F83827C3F83C27C3F89D
:107AC00040270A4B4FF00042C3F80423C3F87C015F
:107AD000074BC02283F8062340221A6070470E200D
:107AE000704700BFEC3400200C0003000060004031
:107AF00000E100E0124B70B50024124E124DC3F8A5
:107B00007C414FF0A043A15DD3F8102501238B40A9
:107B1000934311D00D49D5F804250B68981A48BF36
:107B2000D01A43F23333984206D9D5F804350B60A6
:107B3000074B20461B6898470134042CE1D170BDE7
:107B40000060004054E4030000100140F0340020C5
:107B5000EC34002070B50446CEB0002864D03C4D13
:107B60002A6852042FD53B4B1B68032B2BDD3A4B65
:107B70000DAE19680023E25C100902F00F02085CE8
:107B800006F81300885C06EB43020133102B50709B
:107B9000F1D100232F21314886F8203016F0A6F9C4
:107BA000002843D02F212D4816F0A0F9411C2C4B62
:107BB0002C4AD3F8043501922B4A009202964122B6
:107BC000042005F01BFE2B685B042DD5214B1B68A0
:107BD000032B29DD2F21214816F088F900282ED00B
:107BE0002F211E4816F082F9411C1D4BE27BD3F871
:107BF00004350B92A27B0A92627B0992227B089247
:107C0000E27A0792A27A0692627A0592227A049226
:107C1000E2880392A288029222680192134A00929B
:107C20000420462205F0EAFD4EB070BD5C210B48F1
:107C300016F05CF908B15C21B5E70849B7E75C21AB
:107C4000064816F053F908B15C21CAE70349CCE7AE
:107C5000542E0020502E0020582E002058E40300FF
:107C60000010014080E4030092E403009AE4030062
:107C700072DF704773DF704774DF7047F0B52F4CC9
:107C8000A3B005460E46174600211022204616F0E6
:107C900059F82B482B4A03782B49C3EB431E7244F7
:107CA0000133714403F00103A2601F2203702160BD
:107CB000A280A28100213C2204A816F043F80623EA
:107CC00001AA8DF813300E9201233C22002113A843
:107CD0008DF80230ADF820308DF83C30ADF8005012
:107CE000CDF824D0ADF80450ADF80870039616F026
:107CF00029F80223221D21688DF84C3004A800F0D9
:107D0000DBF908B114F01CFC104AA16813A800F0BC
:107D1000D3F908B114F014FC0D4A08490D48FFF7D7
:107D2000A7FF082804D1002204490A48FFF7A0FF52
:107D300008B114F005FC23B0F0BD00BF38350020B9
:107D4000F834002048350020F93400204435002064
:107D5000E82D0020E42D0020084B38B1B0F5202F8D
:107D600007D20A22B0FBF2F030B180B2988199605C
:107D700070474FF6FF70F8E70120F7E7E82D002085
:107D800008B5064B01211878FFF774FF08B114F00D
:107D9000D7FB0020BDE8084004F06CBBE42D0020B8
:107DA00008B5054B1878FFF767FF18B1BDE8084024
:107DB00014F0C6BB08BD00BFE42D002076DF70477D
:107DC0007ADF70477CDF704714F0BABB03F09CBDCC
:107DD00007B503784BB93B214088FFF7EFFF08B3A5
:107DE00003B05DF804EB14F0ABBB012B1AD1134BBD
:107DF0001B685B0416D5124B1B68032B12DD2F2169
:107E0000104816F073F880B12F210E4816F06EF866
:107E1000411C0D4B0D4AD3F8043500920420682212
:107E200005F0ECFC03B05DF804FB5C21054816F09E
:107E30005DF808B15C21E8E70249EAE7542E00202A
:107E4000502E0020F8E403000010014028E5030054
:107E500013B500F02DFC08B114F072FB02AC002346
:107E600044F8043D0120214600F04EFB08B114F017
:107E700067FB204600F0B2FB08B114F061FB02B0D2
:107E800010BD00001FB59DF804301748012262F3B1
:107E9000030304AC62F3071304F80C3D16F01EF85C
:107EA000114982B22046FFF78DFF08B114F048FB5C
:107EB000082200210DEB020015F044FF7823ADF8F5
:107EC0000830C823ADF80A300023ADF80C3002A802
:107ED0004FF4C873ADF80E30FFF772FF08B114F01D
:107EE0002FFB04B010BD00BFDAE4030030B58BB047
:107EF00001AD08220021284615F024FF7823002434
:107F0000ADF80430C823ADF806301C224FF4C87316
:107F1000214603A8ADF80A30ADF8084015F012FF6D
:107F200040F6CD4304934FF48033059303238DF83B
:107F30001830084B089303A8074B0395ADF81A4077
:107F40008DF81C40099300F035FD08B114F0F8FAE3
:107F50000BB030BDD17D0200C97D020070B5EFF3DA
:107F6000108672B60C4A946801239CB993600B4B3F
:107F70000B4DD3F8801029401160C3F88050D3F81E
:107F8000841051604FF0FF32C3F88420047006B9AA
:107F900062B670BD0370FAE71859002000E100E0F6
:107FA000FC06FFBD10B5084B9A685AB150B9EFF303
:107FB000108272B605491C680C605C684C60986061
:107FC00002B962B610BD00BF1859002000E100E000
:107FD0006DDF704779DF70477DDF704764DF704782
:107FE0002DE9F74F0C9CBDF834B02788002580465A
:107FF0008A4691462E46B8F8002096420BDB35B1F2
:108000002288013AD21B92B2FF2A39D8DA550020D1
:1080100003B0BDE8F08FD8F8042052F82600019094
:1080200000220DF1030101A8FFF7D8FF0028EFD1CE
:108030009DF803204A4521D12288002D14BF00203D
:10804000022002EB09010144594519DC3DB9013216
:1080500092B2228003F802A0228801322280228874
:108060000DF103011A4401A8FFF7B8FF0028CFD192
:1080700021889DF803200A44228001250136BAE7B1
:108080000C20C5E72DE9F341089CBDF824501746A4
:108090008DE8300002220646FFF7A2FF48B9102201
:1080A000394630460995089402B0BDE8F041FFF723
:1080B00097BF02B0BDE8F0812DE9F04F002317888B
:1080C000138090F82D3085B006460D46144643B314
:1080D000082F4ED902A8FFF77BFF002840F020812F
:1080E00013880822CA54238801339BB21B222380A1
:1080F000CA542088013080B2208006220DF1090187
:10810000284415F014FE23889DF8082006339BB2FE
:1081100012F0FE0218BF01222380EA5423880133A3
:108120002380B378FBB123880433BB4221D802A853
:10813000FFF750FF002840F0F38023880322EA5421
:10814000238801339BB219222380EA542388BDF887
:10815000082001339BB2E9182380EA54120A4A70BE
:10816000238802332380F278AAB12388D91CB9422C
:1081700001D90C20D4E00221E954238801339BB2B9
:1081800001212380E95423880B449BB22380EA54C5
:1081900023880B4423807268AAB12388D91CB94272
:1081A000E7D8022192F90020E954238801339BB2D9
:1081B0000A212380E954238801339BB22380EA54A7
:1081C0002388013323803389002B40F09D80338A3C
:1081D0005BB18DE890002B460722032106F11000C9
:1081E000FFF750FF002840F09B80338B5BB18DE898
:1081F00090002B461522142106F11800FFF742FFCC
:10820000002840F08D80326A002A40F08C80D6F839
:108210002480B8F1000F2ED0B8F804302188981CC3
:108220008A1C0244BA42A4D8FE28A2D803336B5455
:10823000238801339BB2FF222380EA542388013331
:108240009BB22380B8F80020EA54E918120A4A7059
:108250002088023080B22080B8F804205AB1D8F8C3
:108260000810002969D0284415F061FD2388B8F86A
:1082700004201344238096F82C30002B40F0988083
:10828000307800284CD03388012B56D021888A1CA6
:10829000BA423FF66EAF012805D1737802330B4422
:1082A0009F42FFF466AF023F7F1A04A9BFB221F8D4
:1082B000087DA818FFF790FE90BB3378BDF8082022
:1082C000022B02D07178914202D3BA4240F2B680BA
:1082D000012B40F0B08073789F42C0F0AC80ADF8C5
:1082E00008300821BDF80830FE2B3FF642AF228847
:1082F0000133AB542288013292B22280A9542288E1
:108300001344238000200BE08DE890002B460622CA
:10831000022106F10800FFF7B5FE00283FF457AF31
:1083200005B0BDE8F08FB4F800E00EF10603BB42E3
:108330003FF61FAF1188052901D80720F0E76FF439
:10834000486C01EB0C039BB24FF27D3C6345F4D9C2
:108350005388052BF1D96FF44860181880B2604536
:10836000EBD94FF6FF70814203D0834201D099428E
:10837000E3D8052305F80E30238801339BB2122180
:108380002380E954238801339BB223801188E95468
:10839000E818090A4170238802339BB2238052886F
:1083A000EA54E918120A4A702388023323802EE720
:1083B000B36A002BC1D04FF000094FF00C0A4FF008
:1083C000160B96F82C305FFA89F293427FF658AF7D
:1083D000B16A0AFB02F201EB0208B8F80430981CFB
:1083E000FE283FF6C6AE208803332B542388013382
:1083F0009BB2238005F803B0238801339BB223800E
:108400008A5AEA54E918120A4A702088023080B267
:108410002080B8F804205AB1D8F8081000298CD070
:10842000284415F084FC2388B8F8042013442380E2
:1084300009F10109C5E7ADF8087052E7092151E7D4
:1084400001600B6843604A68934204BF00234360A5
:108450007047436843B1026891680B4443605268B7
:10846000934204BF0023436070474BDF7047000016
:108470001FB50D4C01A8FFF7F8FF70B9214602A8FF
:10848000FFF7DEFF039B002BF4D001981A685968B0
:10849000904702A8FFF7DDFFF4E7052801D014F0AC
:1084A0004FF804B010BD00BF54E5030060DF704713
:1084B00069DF704761DF704730B5114B1B78A9B099
:1084C000E3B1104D94240DF1020103A8ADF8024070
:1084D000FFF7F0FF70B9294601A8FFF7B1FF029B33
:1084E000002BF0D003A81A685968904701A8FFF73D
:1084F000B0FFF4E7052801D014F022F829B030BD10
:108500008635002060E50300F0B5074685B00D46CE
:1085100000295ED0304B0B600C22002101A815F021
:1085200011FC012606232A68ADF8083001A9202095
:108530008DF804708DF80660FFF7BAFF0C22002159
:1085400001A815F0FFFB00242A688DF8056001A939
:1085500040208DF806408DF80740FFF7A9FF0C2258
:10856000214601A815F0EEFB45232A68ADF8063038
:1085700001A923208DF80470FFF79AFF0C222146F1
:1085800001A815F0DFFB2A688DF8044001A93046E8
:10859000FFF78EFF0C22214601A815F0D3FB4FF404
:1085A000B0632A68019301A9A120FFF781FF0C2283
:1085B000214601A815F0C6FB9DF804302A68334314
:1085C00001A9A0208DF80430FFF772FF204605B006
:1085D000F0BD0E20FBE700BFA02D002008B5FFF77F
:1085E00065FF10B9014B01221A7008BD86350020C5
:1085F00010DF704711DF704713B50446094968461C
:10860000FFF71EFF019808B902B010BD036841686A
:108610002046984718B16846FFF71BFFF2E7112084
:10862000F2E700BF70E5030013B50446074968464A
:10863000FFF706FF019B0BB902B010BD20461A6878
:10864000596890476846FFF704FFF3E788E50300A1
:10865000064B9A6822B11A6822F480021A607047A9
:10866000034B4FF48002C3F8802070471859002054
:1086700000E100E00C4991F816335A09EC2313414C
:10868000DB0708D442F2020013F05ABF1A6842F422
:1086900080021A607047054B9A68002AF6D14FF4A1
:1086A00080030B60704700BF00E100E01859002014
:1086B000F7B5184F3C785CBB174E01252046357046
:1086C000FFF79AFF112820D02046FFF7ADFF134B8C
:1086D0001868019002A800F8054DFFF73FFC10490B
:1086E00001A8FFF785FF0446B0FA80F04009387012
:1086F0009DF80300FFF756FC3CB90A4B34701C7020
:10870000FFF7B8FF2846FFF78FFF204603B0F0BD04
:108710000824FAE788350020873500206CE503003F
:10872000358A020089350020F7B5154F3B7813B321
:10873000144E01203070FFF75FFF11284FF0000545
:108740001BD00220FFF770FF02A800F8015DFFF7C1
:1087500005FCFFF74FFF04469DF807003D70FFF74B
:1087600021FC2CB93470FFF773FF0320FFF75CFF87
:10877000204603B0F0BD0824FAE72C46F8E700BF16
:10878000883500208735002007B508496846FFF77F
:1087900057FE019B13B903B05DF804FB58681A68D3
:1087A00090476846FFF755FEF3E700BF7CE50300FE
:1087B000FFF7EABF75DF704776DF70477ADF7047F3
:1087C0007BDF7047034B1A8882420CBF184600209B
:1087D000704700BFA8350020024B9B6903B11847C2
:1087E000704700BF8C35002037B585B22846FFF7AB
:1087F000E9FF034670B1164C017A227B91420BD2FD
:1088000000F10A012846FFF7D5FFE8B1112801D091
:10881000FFF7E2FF03B030BD237C0022027243B1B8
:108820003B212846FFF7C8FF30F0080301D0FFF7CF
:10883000D3FF6369002BEDD000228DF80420ADF842
:10884000065001A89847E5E71A7A01321A72E1E763
:108850008C35002013B50B46497A0F4C024669B996
:10886000A06861681C7A002C18BF0146586811F096
:1088700081FB08B1FFF7B0FF02B010BD00211972F3
:108880006369002BF8D00121ADF806008DF80410C3
:1088900001A89847F0E700BF8C35002030B58388E9
:1088A0000588B3F5FA7F24BF6FF4F9729C184A88E3
:1088B00038BF002495420CD84088904209D38A885A
:1088C000A24206D303F2F310904234BF00200120ED
:1088D00030BD002030BD000070B50388112B01466B
:1088E0002ED002D8102B05D070BD122B51D0502B9A
:1088F00035D070BDC37B012B4AD14FF6FF70FFF717
:1089000061FF054620B90420BDE87040FFF764BF51
:108910008E88264A0680002303721368C5F80A3041
:108920000A30536843601031FFF7B8FF204B68727C
:10893000DB896BBB29463046BDE87040FFF78ABF34
:108940008088FFF73FFF044610B3406811F058FBE2
:1089500008B1FFF741FF4FF6FF73238070BD144B42
:10896000C288DB899A4213D1038A022B10D18688F0
:108970003046FFF727FF054650B101F1120000F025
:1089800053F80028D6D1686811F03AFB0028BBD113
:1089900070BD86883046FFF715FF05460028F7D0E2
:1089A00008310A30FFF77AFF6872C3E7BC35002050
:1089B0008C350020F8B5064650B305460FCD154F4F
:1089C0003C460FC495E8070084E807003068124B66
:1089D0003B60B8B1FFF7F2FED8B931680A681A6097
:1089E0004A685A600D480E4A4FF6FF7303800D4BDC
:1089F00040F8043F002111F0ABFA002814BF032017
:108A00000020F8BD1846FFF7DBFE0028EAD0F8BDCD
:108A10000E20F8BD8C350020BC350020A835002084
:108A2000E9870200C4350020007800F0010070479B
:108A30000620704730B541F20103984287B00D46D9
:108A40001446744B00F083801FD8012847D01B6860
:108A50005B0460D5704B1B68002B5CDD2F216F48D9
:108A600015F044FA002800F0C9802F216B4815F05A
:108A70003DFA411C6A4B6B4AD3F8043500920195CC
:108A80007B22012004F0BAFE45E044F2010290424C
:108A900000F0898044F202029042D8D11B68590448
:108AA00039D55D4B1B68002B35DD2F215B4815F058
:108AB0001DFA00286ED02F21584815F017FA411CD6
:108AC000574B2288D3F80435039262680292564AC3
:108AD000009201956C22012004F090FE1BE01B68BF
:108AE0005B0418D54C4B1B68002B14DD2F214B4821
:108AF00015F0FCF910B32F21484815F0F7F9411C87
:108B0000474B4A4AD3F804350092029401956022FB
:108B1000012004F073FE4FF0A0434FF4F012C3F8AD
:108B20001825C3F80C25EFF3108372B64DF6AD6C23
:108B30003F4A1378002B6AD107B030BD5C2137481B
:108B400015F0D4F908B15C21D6E73449D8E71B68A1
:108B50005804E0D5304B1B68002BDCDD2F212F485B
:108B600015F0C4F968B12F212C4815F0BFF9411C4C
:108B70002B4B304AD3F804350092029401956322BE
:108B8000C6E75C21254815F0B1F908B15C21EBE797
:108B90002249EDE75C21214815F0A8F908B15C21D4
:108BA0008AE71E498CE71B685A04B4D51A4B1B6828
:108BB000002BB0DD2F21194815F098F9A8B12F210D
:108BC000164815F093F9411C154B2268D3F804356B
:108BD0000492626803920295A2680192164A00927A
:108BE0000120772204F00AFE95E75C210B4815F07E
:108BF0007DF908B15C21E3E70849E5E75C21074816
:108C000015F074F908B15C2130E7044932E730BF50
:108C10008FE700BF542E0020502E002094E5030063
:108C20000010014038E60300F8E50300BCE503004E
:108C3000002E0020D6E5030017E6030007B5002349
:108C4000ADF800300146054B01936A4644F202003C
:108C5000FFF7F0FE03B05DF804FB00BF0EE0030079
:108C600001461022014815F062B800BFE43500202B
:108C700010B50B4C0B490822204615F058F8082275
:108C8000A018094915F053F8E379042262F3071399
:108C9000E371237A022262F38713237210BD00BFAF
:108CA000E435002060000010A40000100048704768
:108CB000E4350020002306491A46C8184280426065
:108CC0005A540833B3F5807FF7D1024B1A607047CE
:108CD000F4350020F4360020F0B50C4B0C4C1B682A
:108CE000064620227BB1013B14F8330050B104EB5F
:108CF000C3056F88B74202D16D688D4202D0013A38
:108D0000F0D11046F0BD1F23EEE700BFF43600207F
:108D1000F435002030B5084A084C136804EBC3054D
:108D20006960012104F833100B44202B08BF002395
:108D30006880136030BD00BFF4360020F435002099
:108D4000C0F30C038B42084438BFA0F50050C01A92
:108D500070470000F0B50E4B0E4C1F680022BA425F
:108D600013D0D10063185E6800230AE0655805EB54
:108D7000C30E15F83350854202D1DEF80400F0BD71
:108D80000133B342F2D10132E9E70020F0BD00BF68
:108D9000F8360020FC36002000B58DB040B99A1C92
:108DA00006D0012201A88DF80420029301F026F9D3
:108DB000034B186803F05EFD0DB05DF804FB00BFC7
:108DC0000437002010B50378044613B97846FFF73E
:108DD00035FFE079431C01209840013810BD0000A8
:108DE000F8B5037804460F4613B97846FFF726FF17
:108DF0000B4B0C4E1A68511C02F0070206EBC20521
:108E00001960A38A6B80A188A069FFF799FF686049
:108E1000E36906F8327003F001036B70F8BD00BF20
:108E200048370020083700202DE9F0410E468EB06B
:108E300015461C46074610B97846FFF7FFFE16B9DF
:108E40007846FFF7FBFE14B97846FFF7F7FE636A32
:108E5000627802330593A378A2F10800002B14BFB7
:108E6000012102210DF1040842424241434604F12E
:108E70000C0003F032FE63788DF83430237BADF8BC
:108E80002050022B16FA85F5CDF8188007970B961F
:108E90000C950FD1236913B97846FFF7CFFE2369EC
:108EA0000993102305A8ADF8283003F012FE0EB088
:108EB000BDE8F0810023F5E738B5044604F130053C
:108EC000C06E07F088F9284602F075FF10B12846F9
:108ED00002F03EFF94F84830022B08D104F150050F
:108EE000284602F068FF10B1284602F031FF204604
:108EF0007022002114F026FF002084F84800BDE80D
:108F0000384002F07BB810B590F84830012B8CB097
:108F1000044602D07846FFF791FE01238DF8043015
:108F200001A8636D029301F069F82046FFF7C4FFC2
:108F30000CB010BD4B1E012B2DE9F04707468846AB
:108F4000914602D97846FFF779FEB9F5C07F02D97C
:108F50007846FFF773FE264B002570229A4602FBE7
:108F6000053494F848603EB9484607F032F9E066A7
:108F700030B90020BDE8F0870135042DEFD1F8E7C6
:108F800030223946204614F0D2FEE664A4F84A9016
:108F9000B988B869FFF7D4FEB8F1010FA0611CD100
:108FA000144B84F852601B7D84F8513084F8536070
:108FB00084F85060BB6A63656FF00103A3620E4BD7
:108FC000A3632464012002F019F8702303FB05A5B4
:108FD000204685F84880BDE8F0876FF00103A36262
:108FE000064BA36584F868602466054BE8E700BF7C
:108FF000643700204C370020C1930200799F0200A3
:10900000B99302001FB500220B468DF80F2028B33C
:109010000230086018460DF10F0103F05CFD9DF869
:109020000F30DBB1144B1B685B0717D5134B1B6864
:10903000032B13DD2F21124814F058FF98B12F2174
:109040000F4814F053FF411C0E4B0F4AD3F8043560
:109050000092042040F2A63204F0D0FB9DF80F00ED
:1090600005B05DF804FB5C21054814F03FFF08B132
:109070005C21E5E70249E7E7542E0020502E00204E
:1090800088E6030000100140A5E603002DE9F04743
:1090900099461378D2F81880F2B007468A461446EB
:1090A00023B191884046FFF74BFE9061A378627828
:1090B000002BA2F1080003AD14BF0121022104F12D
:1090C0000C06424242412B46304603F006FD6278D0
:1090D00008951FFA8AF5AB1A9BB20997ADF82830AC
:1090E0001F440023ADF83030237B8DF83C20022B49
:1090F00004BF1022ADF83020A2780E9712AFC4F84A
:1091000018800D9704F12408002A5ED04FF0000A61
:10911000237BC4F824A0022B04BF23690B93206A8D
:10912000E178424610F01AFB606A40BB237B022BB9
:1091300005D13146E08910F0D3FB0028E8D1354B4A
:109140001B685B0718D5344B1B68052B14DD2F21DA
:10915000324814F0CBFE002852D02F212F4814F0B3
:10916000C5FE411C2E4B2F4AD3F804350092062031
:1091700040F2196204F042FB72B0BDE8F08707A923
:10918000FFF740FF0028CAD06178A28AADF82A20F4
:109190006D1A01218DF8281096E8030000230B9327
:1091A0008DF81C300CAB83E80300A37D8DF84030B4
:1091B000236A0E9307A8636A0897ADF824500F93AB
:1091C000CDF8449000F01AFFD6E7012B62620CD074
:1091D00000234146A08A636210F004FB07A9606A7D
:1091E000FFF710FF0028AAD0CEE74146E08910F033
:1091F000F9FA07A9606AFFF705FF0028E8D0C3E77E
:109200005C21064814F072FE08B15C21A6E7034910
:10921000A8E700BF542E0020502E002088E603004F
:1092200000100140DCE60300C37D0A7830B5002B56
:109230003DD0837822F07F0203F07F031A430A7047
:109240000B78027803F07F0343EAC2130B700378B4
:1092500063B34378083B5A425A414B7803F07F038B
:1092600043EAC2134B708A78858802F00302C5F383
:10927000861442EA850223F07F032343D2B28A7028
:109280004B70CB78857903F01F03C5F3C10422F03E
:10929000030243EA45132243DBB2CB708A70C279E2
:1092A00023F01F0302F01F021343CB7030BD8378FD
:1092B0009B0122F0400203F0400313430B70C2787D
:1092C00023F03F0302F03F0213430B70B8E70000A6
:1092D00038B590F84830012B044602D07846FFF7A5
:1092E000ADFC02F081FD237B084A012B03BFA37D67
:1092F0001569D168D16808BF05FB0311014404F169
:109300003000BDE8384002F03ABD00BF4C370020C5
:1093100070B50D4690B0044610B97846FFF78EFC44
:1093200000212046FFF75CFD2C22002105A8666D78
:1093300014F008FD102305A88DF8143006968DF85A
:109340001C5000F05BFE2046FFF7B6FD154B1B6876
:109350005B071BD5144B1B68032B17DD2F2113480C
:1093600014F0C4FDA0B12F21104814F0BFFD411C22
:109370000F4BD3F80435029594F8482001920D4A1A
:109380000092042040F2EF1204F038FA10B070BDE1
:109390005C21064814F0AAFD08B15C21E4E703490A
:1093A000E6E700BF542E0020502E002088E6030080
:1093B0000010014057E6030008460021FFF7A8BF50
:1093C00010B591F84830012B0C4602D07846FFF7D3
:1093D00035FC94F851305BB1013B84F851300023E7
:1093E00084F85030084BBDE81040186803F042BACA
:1093F000217B0129204603D1BDE81040FFF788BF3B
:10940000BDE81040FFF77FBD043700202DE9F04F85
:10941000044689B00F4609B100230B6004F10C0328
:1094200094F8505001934FF001084FF0000BE2798F
:10943000954203D9002009B0BDE8F08FE16C08FA2D
:1094400005F30B425BD1E37DA571002B0CBF0C260D
:109450000826954206FB05FA237808BFB4F84A604F
:109460008DF819B008BFA6EB0A06002B14BF4FF009
:1094700004094FF0010906EB09030593019B0393CF
:10948000A36A049303A894F82C308DF8183003F0E5
:10949000C0FC0028CFD1079B994445B994F85330BC
:1094A0002BB9A36984F85380C3F30C03A380E37D35
:1094B0008BB994F8523073B915B17846FFF7BEFBFB
:1094C000B4F84A1062788A1AE16E23460846FFF71C
:1094D000ABFC84F8528007992046FFF7A5FEE16EA9
:1094E00032465144484614F022FC03A803F0ADFC78
:1094F00017B13B6801333B606B1C84F85030013579
:10950000EDB294E72DE9F041D47D8AB006460F46CE
:1095100015469846002C00F092809478002C6BD170
:1095200006294AD1027843788178920102F4FE52EA
:1095300042EA9302C3781B0443EA016341790B4377
:10954000017943EA01233F49084691F84860012E1A
:1095500012D18F8AEE89B7420ED18E8896420BD1F6
:10956000702202FB0404E56C1D43E5648BBB032100
:109570002046FFF7CDFE20E00134042C01F17001FC
:10958000E3D1314B1B685B0717D5304B1B68012BB0
:1095900013DD2F212E4814F0A9FC88B12F212C486F
:1095A00014F0A4FC411C2B4B2B4AD3F80435009239
:1095B000022040F2A75204F021F90AB0BDE8F08180
:1095C0005C21234814F092FC08B15C21E7E72049B4
:1095D000E9E72046FFF7F6FB854203D12046FFF777
:1095E00092FCEAE7002184F850102046FFF70EFFB6
:1095F0002046FFF76DFEE0E72046FFF7ABFB034692
:109600000028DAD005F10C012A6A089203C9AA8A57
:10961000ADF8162006AA82E80300AA7D8DF8242062
:109620002A788DF8142095F82C208DF808400396A0
:1096300004978DF82520414602A89847BDE7FFF71B
:1096400025FDBAE764370020542E0020502E00205C
:1096500088E603000010014005E70300F0B5C37D74
:1096600015464278002B2A4414BF4FF480734FF400
:10967000C0739342C7B00E4677D33F4B03F5E071FA
:1096800093F84840012C07D19F8A848AA74203D1CE
:10969000DF89C489A7426AD070339942F0D1012191
:1096A000FFF748FC0446002863D02A463146C06EC6
:1096B00014F03DFB002304A920460493FFF7A6FE07
:1096C00030F0040506464BD1049B13B12046FFF74A
:1096D000FFFD2A4B1B685B0728D5294B1B68032B12
:1096E00024DDB4F84A10274B8029186828BF802150
:1096F000002305AE8B421CD100222F21224806F800
:10970000132014F0F3FB10B32F211F4814F0EEFBCD
:10971000411C1E4B1E4AD3F8043501921D4A00928B
:10972000029640F2D142042004F068F8284647B07F
:10973000F0BDE26ED25C170902F00F02C75D06F8B9
:109740001370875C06EB430201335770D2E75C214C
:109750000D4814F0CBFB08B15C21D6E70A49D8E7E5
:109760002046FFF7A9FB3546E0E70925DEE7082597
:10977000DCE70425DAE700BF64370020542E002020
:10978000502E0020582E002088E6030000100140D3
:109790007AE6030092E403002DE9F041044686B026
:1097A000808A0F46164601F0D3FE01284DD1237B57
:1097B000002B4AD0022B02D12369002B45D094F90B
:1097C0001630002B43DB22784AB132463946204618
:1097D000FFF744FF0546284606B0BDE8F081E17D6D
:1097E00063780029334414BF0B210F218B422AD800
:1097F0000133039304F10C030193A36A029301A8BC
:1098000094F82C308DF810308DF8112003F001FB06
:1098100005460028DFD10599204601F10108FFF730
:1098200003FDE37D43B132463946404614F07FFAEA
:1098300001A803F00AFBCEE72346324641463846EC
:10984000FFF7F2FAF4E70925C5E71025C3E7072576
:10985000C1E7000010B54FF4E0720021144814F085
:1098600071FA002404F05EFF124B13481C6021467D
:10987000402214F067FA114B1148124A12499C75A4
:1098800083E805004CF250329A601A6104221A757E
:109890000E48D96008225A7502F0CEFF0C4B1860B2
:1098A0000C4B0D481C60BDE8104005F03DB800BFF2
:1098B0006437002048370020083700204C3700204C
:1098C00080969800F049020020A10700D59A020076
:1098D00004370020F8360020998D020004F0BEBE47
:1098E000F0B504468DB000284FD00569002D4CD04E
:1098F000C369002B49D08669002E46D05A788DF86E
:1099000003201A780993037BC17A022B04BF214BF1
:109910009B7D002B82F0010214BF082304238DF8E5
:1099200002208DF80130828AC3F10F0019B98242FA
:1099300001DC082B2BD08242C8BF01218DF800101A
:1099400051B113440B330C2193FBF1F3013B8DF820
:10995000073000238DF8063094E8030003AF87E852
:1099600003002189ADF81410A17A8DF81610216A30
:109970000A910023294668468DF8173008968DF81D
:109980002C30FFF709FF0DB0F0BD0E20FBE70720DC
:10999000F9E700BF4C370020F0B503468DB00F4605
:1099A00000283DD04468002C3AD08569002D37D07E
:1099B000027C12F0FD0F35D00278110634D48DF8F8
:1099C000022082680B2A98BF007B4FF0000188BFFD
:1099D000012009918DF800008DF8011030B1D01DE3
:1099E000C00801388DF807008DF8061001218DF8A8
:1099F000171003F1100103C903AE86E80300D989EB
:109A0000ADF81410197F8DF816105B7F089521466C
:109A100068468DF82C300A97FFF7BEFE0DB0F0BDFA
:109A20000E20FBE71020F9E70720F7E7F0B5077BEA
:109A3000012F8DB004460D4647D101AE0B22002107
:109A4000304614F07FF9A1889DF804208DF8095064
:109A5000C1F3861322F07F021A439DF805308DF87A
:109A6000042003F0030343EA81038DF805302B0E35
:109A70008DF806302B0C8DF807302B0A8DF8083046
:109A800006230693A38AADF82230002309938DF8AC
:109A900010308DF81C30E389ADF81E3094F82C306E
:109AA0008DF82D30A37D226A8DF8207005960A92DC
:109AB00043B96FF0010104A88DF82C30FFF76CFF5B
:109AC0000DB0F0BD024B5B7DF3E70020F8E700BF6F
:109AD0004C370020F7B500241D4E2746351995F860
:109AE0004830012B0BD101A928460197FFF78EFCC6
:109AF000042801D0019B13B12846FFF7E9FB70341D
:109B0000B4F5E07FEAD1124C04F5E07594F84830E2
:109B1000022B17D194F86830022B13D1E16C204648
:109B2000FFF784FF70B984F868002046E66CFFF701
:109B300049F9864206D120460121FFF751F9204616
:109B4000FFF7BAF97034AC42E0D1012003B0F0BDA8
:109B5000643700202DE9F0470D469CB01446984626
:109B60000646002800F0ED81002A00F0EA810DF1A0
:109B70000C0900210822484614F0E4F849466088A0
:109B80000FF0AEFE20B9002738461CB0BDE8F087C4
:109B90002269E168208904F08FFD82460028F2D115
:109BA0002269E168208904F061FD0746A8B12C22F2
:109BB000514610A82589247C14F0C4F80F238DF891
:109BC00040309DF84630ADF8445064F3000310A8CF
:109BD0008DF8463000F012FAD6E70DF14C0A182243
:109BE0002146504614F0A3F8337803F08002111C8C
:109BF00018BF01218DF840109DF85710E1B103F016
:109C00007F038DF842308DF841705AB37278B37883
:109C1000920102F4FE5242EA9302ADF84420DB00C6
:109C2000F27803F0180343EA521302F01F028DF892
:109C300046308DF8472015E0C3F380118DF84210AF
:109C400003F03F018DF84310190608D596F901304D
:109C5000002BACBF042308238DF84130D5E7042343
:109C60008DF841300023199398F80030052B02D964
:109C70007846FEF7E3FF98F80030B54A99E803000C
:109C8000D35C8DF86C308AE8030002F065FD9DF826
:109C90004030002B00F04E81AE4BBDF85420002424
:109CA000194693F8480002280DD1988A90420AD1AB
:109CB000702303FB0414BDF84420A3889A4230D2D9
:109CC00002F08AFD60E70134042C03F17003E8D14F
:109CD00000249DF8403013B97846FEF7AFFF179B7C
:109CE000BDF844101698BDF854A003F00109FFF721
:109CF00027F8994B00229E465968884217D1598807
:109D0000514514D15978494511D11EF83230002BF4
:109D1000D6D010A8FFF756F8014610A8FFF786FE28
:109D2000CEE7D6D905212046FFF7F2FAD0E7013277
:109D3000082A03F10803DFD1002C51D19DF85720E8
:109D40009DF84730002A0CBF0C24082403FB044470
:109D50000CBF4FF4C0734FF480739C4226D97F4BE5
:109D60001B685A07ACD57E4B1B68002BA8DD2F2142
:109D70007C4814F0BBF880B12F217A4814F0B6F873
:109D8000411C794B794AD3F804350092019440F292
:109D90003632012003F032FD92E75C21714814F065
:109DA000A5F808B15C21E8E76E49EAE722460221FE
:109DB00010A8FFF7BFF8044690B9014610A8FFF7B6
:109DC00035FE2C22214605A813F0BCFF10238DF888
:109DD000143005A802238DF81C3000F00FF96FE74E
:109DE0005E4B1B685B071CD55D4B1B68032B18DDA6
:109DF0002F215C4814F07AF8002800F08A802F2187
:109E0000584814F073F8411C574B9DF84620D3F87E
:109E100004350192564A0092042040F2513203F078
:109E2000EDFC94F84830022B02D07846FEF706FF8E
:109E3000DFF84091D9F800A001F0D6FF0AEB00014D
:109E400004F1300001F09BFF237B012B1CD194F81F
:109E50006830CBB994F84830022B02D07846FEF730
:109E6000EDFED9F8043099F81510D9F8082002FB56
:109E7000013901F0B9FF00EB090104F1500001F0D4
:109E80007EFF012384F868309DF84630E16C0120A4
:109E9000984001427FF414AF0143E164E1799942B3
:109EA000A5F104029DF857103CD1002914BF0821E8
:109EB0000C2103FB0121E56EA4F84A100CBF0C2015
:109EC000082000FB0350311D13F031FF2046E56CE4
:109ED000FEF778FF85427FF4F3AE022384F8683002
:109EE000E16C2046FFF7A2FD434605462246B4F842
:109EF0004A10E06EFFF706FB002D7FF4E1AE20462E
:109F000084F868500121FEF76BFF2046FEF7D4FF6E
:109F1000D6E65C21134813F0E9FF08B15C216FE736
:109F2000104971E779B90C2A0EE004212046FFF7A9
:109F3000EFF9C5E6434610AA691E701CFFF7E2FA66
:109F4000BEE60E2720E6082AEFD1E56E1046B8E7F8
:109F500051E603006437002008370020542E00200B
:109F6000502E002088E6030000100140B8E60300F0
:109F7000CCE603004C37002010B591F84830022B96
:109F80000C4602D07846FEF759FE022384F868306A
:109F9000E16C2046FFF74AFD08B984F8680010BD5F
:109FA0002DE9F04188460746E8B1124E3468C4B93D
:109FB0002546454507D1104B1F605D600123336086
:109FC0002046BDE8F08107EBC5035B685BB117F87D
:109FD0003500030609D450B1FEF7BCFE38B901358F
:109FE000E7E70424ECE70E24EAE70B24E8E70F2474
:109FF000E6E700BFF8360020FC360020F8B507463B
:10A0000010B97846FEF71AFE0F4E346894B10F4D22
:10A0100001232B7023791BB954F8043C3846984728
:10A020002468002CF6D12B78022B03D13168064C22
:10A0300009B92970F8BD0B790E6813B1204603F0F9
:10A0400065FB3146F4E700BF2839002024390020A1
:10A0500010B5044610B97846FEF7F0FD00232372D0
:10A06000211D0248BDE8104003F02FBB2839002015
:10A0700010B5044610B97846FEF7E0FD074A13789C
:10A08000013B012B04D8022313700123237210BD5E
:10A09000211D0348BDE8104003F038BB24390020DF
:10A0A000283900200B888268D25A073222F0030236
:10A0B000134402889BB2043A934288BF00230B806A
:10A0C000704713B58368CB1A02A921F8023DFFF748
:10A0D000E9FFBDF806308068184402B010BD70B5C5
:10A0E000064615460C4611BB7846FEF7A7FDFEB1A5
:10A0F0007846FEF7A3FD6B1E2344B3F1005F34D90D
:10A100004FF08052D2F80C2102F50022B3EB822FDF
:10A110002ED2042D02D87846FEF790FD358000231C
:10A12000043D7380B380B4602580A37070BD10B906
:10A130007846FEF783FDB4F1005F12D94FF08053EB
:10A14000D3F80C3103F50023B4EB832FD3D34FF0B6
:10A150008053D3F80C3103F50053B4EB832FC7D2EF
:10A16000C9E7B4F5000FF2D8C2E7B3F5000F08D97C
:10A170004FF08052D2F80C2102F50052B3EB822F3F
:10A18000C7D37846FEF75AFDC3E738B5044610B981
:10A190007846FEF753FD6288A36813449B78012B31
:10A1A00002D17846FEF74AFDEFF3108572B6A26839
:10A1B000A18811448B78032B0AD12046FFF781FF39
:10A1C000A368C31A63800023837005B962B638BDE3
:10A1D000002393706380A380F7E7F8B50E46154619
:10A1E000044610B97846FEF729FD16B97846FEF701
:10A1F00025FD6288A36813449B78012B02D1784621
:10A20000FEF71CFD002D37D02388043B9BB29D42F6
:10A2100032D8EFF3108772B66188A388EA1D22F066
:10A220000302994292B206D25B1A9A4212DD0420CE
:10A2300027BB62B6F8BD16D92088401A904209D2D1
:10A240009A42F4D8032881BFA3685B1804229A704D
:10A25000002363806288A1688B188D5201229A7056
:10A2600000203360E4E7A26813449B78002BDED122
:10A2700093706380A380EDE70920F8BDF8BDF8B5C1
:10A280000D461646044610B97846FEF7D7FC15B9B8
:10A290007846FEF7D3FCAB78012B02D07846FEF768
:10A2A000CDFC2B88B34202D27846FEF7C7FC16B924
:10A2B0007846FEF7C3FCEFF3108772B60223AB704B
:10A2C000E1182E802046FFF7EDFE6288A3889342B6
:10A2D0001FBFA3689B1800229A7007B962B6F8BD29
:10A2E00070B50D46044610B97846FEF7A7FC15B9BF
:10A2F0007846FEF7A3FCEFF3108672B6A288A36837
:10A3000013449A78042A06D1211D2046FFF7CAFE7D
:10A31000A288A36813449A78022A03D0032A08D09B
:10A32000052003E003229A702B60002006B962B674
:10A3300070BD7846FEF782FCF7E738B5044610B9E1
:10A340007846FEF77BFCEFF3108572B6A088A16813
:10A3500001448B78042B03D12046FFF7B2FE01465F
:10A360008878831E5842584105B962B638BD38B561
:10A37000044610B97846FEF761FCEFF3108572B61B
:10A38000A088A16801448878C31E012B05D9831ECB
:10A390005842584105B962B638BD2046FFF791FED4
:10A3A0000146F0E7F8B50D46044610B97846FEF7C9
:10A3B00045FC15B97846FEF741FCEFF3108672B6FE
:10A3C000AB78012B19D0032B22D1A288A3681344A8
:10A3D0009D4202D07846FEF731FC0027AF70211D68
:10A3E0002046FFF75FFEA288A36813449B78042BE6
:10A3F00000D1A78006B962B6F8BD6288A36813448D
:10A400009D4202D07846FEF719FC0023AB70F1E7BD
:10A410007846FEF713FCEDE710B5EFF3108472B643
:10A420008288816811448B78042B02D1FFF749FEA2
:10A4300001468878B0FA80F0400904B962B610BDD0
:10A44000037942799B1A03F57F2303F6FF7300EB30
:10A450000330704710B5054884681C22002113F0B2
:10A4600071FC2046BDE8104003F04EBF2C3900209F
:10A4700070B51C4CE36813B97846FEF7DFFB237E0A
:10A4800013B17846FEF7DAFB6368092B02D97846E8
:10A49000FEF7D4FB144D0026636855F82330984727
:10A4A000022811D003280DD0012815D1636801338B
:10A4B000092B636002D97846FEF7C0FB237E002B90
:10A4C000EAD00DE06660F9E7237E0BB1207070BD25
:10A4D000BDE87040FFF7BEBF00F0FD000128EDD0E1
:10A4E00070BD00BF2C39002034E7030010B503888D
:10A4F000044613B97846FEF7A1FB2088074B04EB0E
:10A50000800030EA030203D06288B2F5FE4F04D126
:10A510001C4004F580542078204410BD00F0FFFF5B
:10A5200070B504460E4647F6FE65FFF7DFFFB04202
:10A5300007D2844205D24388013B9BB2AB42F4D898
:10A5400070BD002070BD00000B78032B094B04BFC9
:10A5500000221A761A78012A03D11B7E43B9FFF72D
:10A5600087BF022A04D10B78032B01D1FFF772BFFA
:10A57000704700BF2C39002010B50C4CE3681878E8
:10A58000002203F58051184404F092F950B9E168B3
:10A590000846FFF755FF814206D001F58051E16082
:10A5A000032010BD012010BD022010BD2C39002059
:10A5B0001FB50A4B02221B688DF800200193084A40
:10A5C0004FF4805369460120029300F001FFB0FA76
:10A5D00080F0400905B05DF804FB00BF4C39002055
:10A5E000483900201FB5012301900391029269466A
:10A5F000044A8DF80030184600F0EAFE05B05DF818
:10A6000004FB00BF483900202DE9F047264BD868ED
:10A6100002794179013A91421E4603D101205876D0
:10A62000BDE8F08700F5805320491C781C440B6876
:10A6300013F8045F1D44FFF703FF6388013B9BB2DF
:10A6400047F6FE62934200F58057884604D92046BB
:10A650003946FFF765FF0446DFF854A04FF00109C3
:10A6600034B9B4FA84F4640974760120BDE8F08743
:10A67000D8F800106288284601F5805104F018F9D6
:10A6800005460028EDD004225146204686F8189051
:10A69000FFF7A8FF28B920463946FFF741FF0446D7
:10A6A000DEE70020BDE8F0872C3900204C3900207F
:10A6B000D4E8030038B5104CE36818784FF6FF7201
:10A6C00003F58051184404F0F3F888B1E368197871
:10A6D0000B4498420CD0657E084B09490422002D9A
:10A6E00008BF1946FFF77EFF20B90120207638BD4C
:10A6F000012038BD002038BD2C390020D8E80300E7
:10A70000DCE8030070B50C4D0C4EE96830680C783D
:10A7100004302246FFF766FF58B9336804F0FC04A2
:10A7200004341C44EB686C611A7813442B610120DB
:10A7300070BD002070BD00BF2C3900204C390020B6
:10A7400008B5054B054918680422FFF74BFFB0FA1E
:10A7500080F0400908BD00BF4C3900203839002086
:10A7600010B5074B074C1968E06840F6FC720431DD
:10A77000FFF738FF10B90120207610BD002010BD72
:10A780004C3900202C39002010B50C4CE1680846EB
:10A79000FFF756FE81420AD1094B0A491868042284
:10A7A000FFF720FF40B901232376022010BD01F5F9
:10A7B0008051E160032010BD002010BD2C39002025
:10A7C0004C390020503900202DE9F74F334C2369D4
:10A7D00013B97846FEF732FA636913B97846FEF783
:10A7E0002DFADFF8BC9047F6FE6A63692769E068D6
:10A7F00003EA0908A8EB0308FFF722FE7B88013B68
:10A800009BB2534508F5805800F5805B06D9384661
:10A810005946FFF785FE0746002837D03D460026FB
:10A820005D4519D22A8806EB8202904509D987EA4C
:10A83000050313EA090F04D16B88013B9BB2534512
:10A8400002D956B901231AE028460192FFF74EFEBD
:10A85000019A05461646E3E7F6B132463946606985
:10A86000FFF7C0FEA0B9636926F0030633446361B5
:10A8700015B97846FEF7E2F92561002335B16988FC
:10A8800047F6FF72914201D0002BAED0012000E0CC
:10A89000002003B0BDE8F08F0123EFE72C39002042
:10A8A00000F0FFFF1FB50A4B0222DB688DF8002085
:10A8B0000193084A4FF4805369460120029300F047
:10A8C00087FDB0FA80F0400905B05DF804FB00BFD9
:10A8D0002C3900204839002010B54FF010235A6958
:10A8E000013225D05A691AB35B69A3F58053A3F5E9
:10A8F0008053174A196813604B1E033325D8C1F3E0
:10A900000B0313BB134A1448D16001211170134982
:10A9100013765376936051F8234084420ED15360EE
:10A920000F49012000F044FDFFF7A2FD012010BDFA
:10A930004FF08052516913694B43D8E701330A2B1A
:10A94000E9D17846FEF77AF9EAE7002010BD00BFAA
:10A950004C3900202C390020A5A8020034E7030060
:10A9600049A5020010B5044610B97846FEF766F90D
:10A97000094B187870B1E068D9684379A0EB0333CC
:10A98000994206D3FFF75CFD81428CBF0020012075
:10A9900010BD002010BD00BF2C390020024B1878DC
:10A9A000003018BF012070472C39002038B50E4CFC
:10A9B0002378054613B17846FEF740F92B78032B30
:10A9C00002D07846FEF73AF9EB68E36001200023F5
:10A9D0000649A560636023762070637600F0E8FC8A
:10A9E000BDE83840FFF744BD2C39002049A50200DE
:10A9F000014B1868704700BF4C39002010B5044661
:10AA000010B97846FEF71AF963681BB123680BB1D9
:10AA1000A36813B97846FEF711F9A3685A1E1A42C3
:10AA200002D07846FEF70AF90023E360236110BDE7
:10AA300070B50E460446F0B18368F3B1EFF31085AC
:10AA400072B60169C368994203D105B962B605259A
:10AA50000FE04EB18368013B0B4090E806003046A2
:10AA600002FB031113F063F923690133236135B944
:10AA700062B6284670BD0E25FBE70925F9E70025DB
:10AA8000F7E70000024AD2F80034002BFBD07047F1
:10AA900000E00140C0F30B0310B5E3B9E9B1104C7D
:10AAA0000223C4F80435FFF7EDFF01F6FF7121F42E
:10AAB0007F6121F00F010144884205D10020C4F8D4
:10AAC0000405FFF7DFFF10BDC4F80805FFF7DAFF44
:10AAD00000F58050F0E7102010BD092010BD00BF28
:10AAE00000E0014070B540EA010414F003041BD1FA
:10AAF000E2B195071AD10E4E0123C6F80435950828
:10AB0000FFF7C0FFAC4205D10020C6F80405FFF7EF
:10AB1000B9FF70BD51F824305A1C03D040F82430DE
:10AB2000FFF7B0FF0134EDE7102070BD092070BDC4
:10AB300000E001404388012B05D0022B01D10430F5
:10AB400008600120704704304860FAE708B5082221
:10AB50000221094803F02FFA20B90848BDE808404F
:10AB600003F0AABB064A91684160127B0272BDE8FD
:10AB7000084003F04FBA00BF5C390020142E0020BB
:10AB8000A839002010B5044610B97846FEF756F8EB
:10AB90002346BDE81040184700B50A4B1A7B9B6856
:10ABA0008DB0012A08BF03F1FF3303900CA8049372
:10ABB000022300F82C3D8DF80820FFF71FFA0DB096
:10ABC0005DF804FBA839002038B50E4D2B78C3B9C9
:10ABD0000D4B5C6804F50054B4F1807F11D8042259
:10ABE00001210A4803F0E7F920B90948BDE83840D7
:10ABF00003F062BB012344602B70BDE8384003F0D2
:10AC000009BA38BDBC390020A83900205C390020C1
:10AC1000042E002010B501210C4803F011FA80B970
:10AC200002210A4803F00CFA044650B901461422E6
:10AC3000074813F087F8074B1C70BDE81040FFF77A
:10AC4000C3BF054803F038FBF7E700BF5C390020BD
:10AC5000A839002080390020342E002030B50D4660
:10AC60008DB07AB94B88012B0AD1124C227812B9D7
:10AC70007846FDF7E3FF104B6A685A6000232370A3
:10AC80000DB030BD032A02D07846FDF7D7FF2C2245
:10AC9000002101A813F056F811238DF80430074B5A
:10ACA0000395DA681B69059201A80693FFF7A6F9D8
:10ACB000E6E700BFBC390020A83900205C3900203D
:10ACC00013B501F049FD00216B46124A124800916C
:10ACD000019103F0C3F8009B104C0BB1019A6AB9C3
:10ACE00000232360A3602373FFF730FF23686360B2
:10ACF000FFF76AFF01F070FD02B010BD1968A16096
:10AD000019792173934203D91B790BB92360EDE7BD
:10AD10001368FBE735AB02005C390020A83900203E
:10AD200008B503F017FBA0F5805008BD7FB50021E2
:10AD30001822684613F006F800230293FFF7F0FF8D
:10AD40000123009001936946054B0648039303F0E5
:10AD50009EF910B1044803F0AFFA07B05DF804FBA8
:10AD60005DAC02005C390020242E002008B51422BE
:10AD700000210A4812F0E6FF01F036F8084B094AB4
:10AD80009A60094ADA60002258601A615A61074BDA
:10AD90001A70BDE80840FFF7C9BF00BFA8390020FE
:10ADA000843900209DAE020000879303BD39002046
:10ADB00010B5074C23784BB90648074B036000F0E9
:10ADC0009FFD064800F0A2FF0123237010BD00BFC5
:10ADD000583900209C39002005AF0200843900203A
:10ADE00010B501F0B9FC104A117B1346C9B9917B2B
:10ADF000B9B9118A41F28262914202D80B4A1278A3
:10AE00007AB101221A739A68002401321C829A6076
:10AE1000FFF79CFE2046FFF7BFFE01F0DDFC204659
:10AE200010BD0824F9E700BFA8390020BD39002073
:10AE300010B501F091FC174B5A7B42B1997B99B93F
:10AE4000188A41F28261884201D8134A127802F0CE
:10AE500001047AB11A7B002058733AB1012A0DD04F
:10AE60007846FDF7EBFE05E00022F0E7FFF7B8FFBC
:10AE70000028F5D101F0B0FC204610BD18605860E4
:10AE800018731882FFF788FEFFF760FEFFF79CFE3D
:10AE9000F0E700BFA8390020BD39002038B5174CB5
:10AEA000257B2DB1012D12D07846FDF7C7FE21E09C
:10AEB000228A41F282639A4202D8114B1B78CBB1AD
:10AEC000FFF7B6FF638A0BB1013B638238BD238A6B
:10AED00041F28262934202D8094A157855B142F292
:10AEE000B012934282BF012300256373FFF7A0FFD6
:10AEF000002DE7D0238A01332382E3E7A83900201D
:10AF0000BD39002038B50378042B3FD143681B7846
:10AF1000002B3BD01E4B4469197B027E81BB598AB2
:10AF200011BB012A9A6802D0944203D838BD01327D
:10AF300094421BD99A682A32944227D89A7B2ABB1A
:10AF400085681A6042F606519C605A601A825982DE
:10AF50005A731A73FFF7FAFDFFF736FE05F110007A
:10AF6000BDE83840FFF718BE012A0FD19A680132B8
:10AF700094420BD101225A73BDE83840FFF758BF05
:10AF8000012903D1012A01D09A68F1E738BD00BF39
:10AF9000A839002038B5164C94E80C009A420546B2
:10AFA0001FD2207B1349144B012808BF0B46934244
:10AFB00007D963682268403B9A4208D3FFF704FE32
:10AFC00005E001236373FFF733FF0028F1D0EFF3AF
:10AFD000108072B623685A1C22602B6028B962B6B2
:10AFE00038BDFFF7F1FD0F2038BD002038BD00BF90
:10AFF000A839002000E0FF00FFFF7F0010B50C4CD7
:10B0000030B10C4B01229A7323681344236010BDA6
:10B01000236813B97846FDF711FE2368013B2360CE
:10B020002BB9044A9373BDE81040FFF701BF10BD70
:10B0300054390020A839002000B58DB00323ADF8A5
:10B0400008000CA88DF8102000F82C3D0391FEF7A5
:10B05000D5FF0DB05DF804FB014B9868704700BF49
:10B06000A8390020034B1A7B9868012A08BF00F119
:10B07000FF307047A8390020044B9B685840C20736
:10B0800048BF03F1FF331846704700BFA8390020BE
:10B09000014B187B704700BFA839002038B50A4B18
:10B0A0001C787CB9094D01221A702973A860FFF73A
:10B0B0004DFD2046FFF770FD2C606C60FFF784FDAE
:10B0C000204638BD082038BD80390020A83900202E
:10B0D0002DE9F8431D4CDFF8789000260221204628
:10B0E00002F089F95FFA86F805460027ADB967B125
:10B0F0002946204602F0E7F9082806D154F8043C16
:10B100001BB12A464946404698470136032E04F1B2
:10B11000BC04E3D10120BDE8F88354F8043C23B11A
:10B1200034F80C2C29464046984734F80C3C01333F
:10B1300024F80C3C0221204602F079F90221204635
:10B1400002F059F901370546D0E700BFD439002095
:10B150005CE7030038B5012104460C3002F04BF9DE
:10B16000054628B3164BC4F89C300023C4F8A03021
:10B1700003786268012B07D0022B1BD07846FDF7BD
:10B180005DFD4FF4FA7307E081688B1A99084FF45C
:10B19000A9734B4303F5FA730A4A934294BFC4F868
:10B1A000A830C4F8A8200123C4F8AC4084F8B83013
:10B1B000284638BD83689B1A1A0B034B5343E9E7B3
:10B1C000EDB1020060850100645E010010B5044627
:10B1D000FFF7C0FF48B104F19C0005F08FFC20B1DF
:10B1E0007846BDE81040FDF729BD10BD2DE9F74FA9
:10B1F0004A4B1B7880460D463BB105F0B5FC002359
:10B2000085F8B83003B0BDE8F08F01F10C09D1F832
:10B21000A8704846012102F0EEF8064610B97846BB
:10B22000FDF70CFDDFF8FCA0A7F5FA7700244FF43A
:10B23000A97B3378012BA7EB040406D0022B3BD06B
:10B240007846FDF7FBFC00231FE06B68B268B4FB97
:10B25000FBF4D21AA400944228BF144624B90193E7
:10B260007846FDF7EBFC019BF168706823F003035F
:10B27000224619441844FFF735FC10B17846FDF713
:10B28000DDFC6B681C446C60B3686A689A422AD122
:10B2900005F06AFC4846012102F0C9F800236B6002
:10B2A00085F8B8301E4B186801F0E4FA284603B060
:10B2B000BDE8F04FFFF78ABF6B68B268B4FBFAF4E1
:10B2C000D21A2403944228BF144624B90193784625
:10B2D000FDF7B4FC019B706823F00303214618447A
:10B2E000FFF7D8FBC9E701F025F93378B0EB080484
:10B2F00048BFA8EB0004012B0DD0022B06D153460A
:10B3000023449F4295D205F02FFCCFE77846FDF706
:10B3100095FC0023F4E74FF4A973F1E7C43900204A
:10B32000C0390020645E0100F8B51E481E4C01F0D3
:10B3300083FA1E4B186004F11C030827102603250E
:10B34000636104F10C0004F118032361A7736673B1
:10B35000257302F093F804F1D803C4F8D03004F157
:10B36000C80004F1D403C4F8CC3084F8CA7084F85F
:10B37000C96084F8C85002F081F804F5CA73C4F8B3
:10B380008C3104F5C87384F8867184F8856184F87B
:10B390008451C4F8883104F5C270BDE8F84002F069
:10B3A0006DB800BFD1B00200C8390020C0390020FC
:10B3B000022838B504460D4602D97846FDF73EFC12
:10B3C000024BBC2202FB0434A56038BDC839002002
:10B3D00002282DE9F84F07460C46924602D97846D6
:10B3E000FDF72CFC14B97846FDF728FC2378012BD7
:10B3F00012D16368990702D07846FDF71FFCE36815
:10B400009A0702D07846FDF719FCA3689B0711D074
:10B410007846FDF713FC0DE0022B0DD16368C3F3F2
:10B420000B0313B17846FDF709FCA368C3F30B03C4
:10B43000002BEDD1A36813B97846FDF7FFFBEFF3BE
:10B44000108872B6BC257D43224E05F10C09B1442B
:10B450000021484601F0CFFF834690B300214846C3
:10B4600001F0E5FF10222146584612F060FCBAF1C7
:10B47000000F03D073195B88AAF80030BC2303FBCC
:10B4800007677B8897F8B84001337B8004BB124B79
:10B490001F78BFB97019FFF75DFEB8F1000F0ED12C
:10B4A00062B6444640B105F19C00304405F026FBED
:10B4B00010B17846FDF7C2FB2046BDE8F88F3C4648
:10B4C000F0E70424B8F1000FF6D1A0460020E7E72A
:10B4D0000024F7E7C8390020C439002070B5EFF325
:10B4E000108672B6154C236818BB13B97846FDF761
:10B4F000A5FB2368013B236093B9114D95F8B83043
:10B5000013B92846FFF762FE95F8743113B90D4858
:10B51000FFF75CFE95F8303213B90B48FFF756FE83
:10B5200023680A4A003318BF0123137026B962B694
:10B5300070BD01332360F3E770BD00BFFC3B00200A
:10B54000C8390020843A0020403B0020C439002044
:10B5500010B1800B014B185C704700BF6CE7030013
:10B5600012DF704713B5137863B1042B0CBF0723A8
:10B57000002310F8011C292962D005D8162973D0A0
:10B5800002B010BD537DF4E72A2927D02B29F7D12B
:10B59000022BF5D110F8021C0139C9B203F0F0F802
:10B5A00004460028ECD0374B1B685B06E8D5364BC9
:10B5B0001B68012BE4DD2F21344812F097FC002892
:10B5C00049D02F21314812F091FC411C304B314AB7
:10B5D000D3F8043500920194A42224E0022B01D078
:10B5E000072BCDD110F8021C013901F051FC0446A3
:10B5F0000028C5D0234B1B685A06C1D5224B1B68B7
:10B60000012BBDDD2F21214812F070FC78B12F21D4
:10B610001E4812F06BFC411C1D4B1F4AD3F8043529
:10B62000009201949122022002F0E8F8A8E75C2140
:10B63000164812F05BFC08B15C21E9E71349EBE71F
:10B64000022B9DD110F8021C0139C9B202B0BDE82D
:10B65000104010F033B85C210C4812F047FC08B1E0
:10B660005C21AFE70949B1E701884FF6E4639942ED
:10B6700086D110F8021C0230033902B0BDE8104038
:10B68000FDF7D6B9542E0020502E002095E7030078
:10B6900000100140DAE70300B1E7030070B58AB09B
:10B6A00005F0F8FE0446002834D000238DF8103051
:10B6B00006460FCE05AD0FC533682B60627D052AA7
:10B6C0000CD9207D00F00F03072B07D004AB063AFE
:10B6D00004F11D0100F00F0004F0AEFD114B1A68DB
:10B6E000AAB104AB0393237DC3F303038DF80430A5
:10B6F000637D062B89BF063B00238DF8053004F1DE
:10B700001D0398BF8DF80530029301A8904720468D
:10B7100005F0AAFE05F0D6FE80F00100C0B20AB026
:10B7200070BD00BF043C002000B50A4B1A78032A04
:10B730008DB00CD104221A7000212C2201A812F025
:10B7400001FB1B2301A88DF80430FEF757FC0DB058
:10B750005DF804FB003C0020F7B52E4F3A78054613
:10B76000002A4DD100284DD0067A0F2E01D0062E8A
:10B770004AD104F02DFDE86800283ED0FDF770FAAC
:10B780000DF10700FFF7ECFE044698BB9DF807306B
:10B79000012B3BD1FDF78EFA00F0A2FA304600F003
:10B7A0008BFFE87800F02AF900F0BEFD05F044F9BF
:10B7B000194805F01FFF04F0B1FEFFF7B5FD03F0D7
:10B7C00037FF00F05DFC04F0C3FC284601F008FBE5
:10B7D0002846FEF73FF803F04FFBFDF729F908B1C3
:10B7E000062815D10D4804F0F9FC0D4B00221A6013
:10B7F00001233B70204603B0F0BDFDF739FABFE7E7
:10B800000824F7E70E24F5E70724F3E70224F1E71D
:10B810000446EFE7003C00209DB60200442E0020C5
:10B82000043C002037B5244D2A78012A05D002D3E4
:10B83000033A012A38D9082428E005F0F7FD01F081
:10B84000E1FAFEF74BF8FDF7F3F8044650B306288B
:10B8500028D01A4B1B685B0418D5194B1B68012BA9
:10B8600014DD2F21174812F041FB90B12F2115480C
:10B8700012F03CFB411C144B144AD3F804350092DF
:10B88000019440F29712022001F0B8FF204603B065
:10B8900030BD5C210B4812F029FB08B15C21E6E7C2
:10B8A0000849E8E700F034FF05F01AF904460028DB
:10B8B000ECD102232B70E9E7003C0020542E00203D
:10B8C000502E002095E703000010014070E70300B0
:10B8D00008B5084B1A78022A0AD1032206481A70C2
:10B8E00005F0CCF828B17846FDF7A8F9002008BD8E
:10B8F000082008BD003C002029B70200FDF7F0BF7A
:10B90000FEF7A6BBFEF7B4BB08B500F0DDFC0020D7
:10B9100008BD0000014B1860704700BF043C0020C8
:10B9200007F048B9044B1A680132B2F1704F08BFF2
:10B9300001221A6018687047083C002010B50446C0
:10B9400010B97846FDF77AF900232360636010BDD3
:10B9500038B50D46044610B97846FDF76FF915B9AC
:10B960007846FDF76BF900236B60EFF3108372B636
:10B97000226822B92560656003B962B638BD626885
:10B980005560F8E710B5044610B97846FDF756F94A
:10B99000EFF3108272B6206808B143682360236811
:10B9A00003B9636002B962B610BD10B5044610B9A0
:10B9B0007846FDF743F9206810BD35DF70473CDF5E
:10B9C0007047000008B503464FF0FF30FFF7F5FF62
:10B9D0004FF0FF311846FFF7F2FFBFF34F8F0549D5
:10B9E000054BCA6802F4E0621343CB60BFF34F8F8C
:10B9F00000BFFDE700ED00E00400FA0507289ABF4C
:10BA0000024B33F81000FA20704700BF06E803002D
:10BA1000024B5868103840B2704700BF00ED00E09C
:10BA2000084A202390FBF3F352F82330424202F0FD
:10BA30001F0200F01F0058BF504223FA00F000F030
:10BA40000100704700E100E046DF704730B501F1CA
:10BA500010031032103013F8014D12F8015D8B42C3
:10BA600084EA050400F8014DF5D130BD2DE9F04719
:10BA7000144690B002F10F05102288462D110146A0
:10BA80000DEB0200994604F00F0412F050F90DB1CD
:10BA9000002C44D04FF0000A02261022002108A8F2
:10BAA00012F050F904A8FFF7CFFF01220DF13F017A
:10BAB00010AB13F9100D1F46994234D19DF83F3059
:10BAC00001325B00DBB20028D2B2B8BF83F087033B
:10BAD00096428DF83F30EBD2013D6E46BAF1000F31
