:020000022000DC
:1060000000F000206D630200556302005763020038
:10601000596302005B6302005D6302000000000040
:106020000000000000000000000000005F630200AC
:106030006163020000000000636302006563020008
:106040006763020067630200F5C003006763020034
:106050006763020067630200D1B90300676302004F
:106060006763020067630200058A0300676302003A
:1060700067630200676302006763020067630200F0
:1060800067630200591F040021ED020067630200EC
:10609000BD1F04006763020089B10300676302004B
:1060A00067630200676302006763020067630200C0
:1060B0006763020067630200000000000000000048
:1060C00067630200676302006763020067630200A0
:1060D000676302006763020067630200000000005C
:1060E00000000000000000000000000000000000B0
:1060F00000000000000000000000000000000000A0
:10610000000000000000000000000000000000008F
:10611000000000000000000000000000000000007F
:10612000000000000000000000000000000000006F
:10613000000000000000000000000000000000005F
:10614000000000000000000000000000000000004F
:10615000000000000000000000000000000000003F
:10616000000000000000000000000000000000002F
:10617000000000000000000000000000000000001F
:10618000000000000000000000000000000000000F
:1061900000000000000000000000000000000000FF
:1061A00000000000000000000000000000000000EF
:1061B00000000000000000000000000000000000DF
:1061C00000000000000000000000000000000000CF
:1061D00000000000000000000000000000000000BF
:1061E00000000000000000000000000000000000AF
:1061F000000000000000000000000000000000009F
:10620000344935480A1A02D0072291438D46334952
:1062100033480A1A06D00722914381F309880222E3
:1062200082F314882F483049304A00F042F8304851
:106230003049314A00F03DF830483149314A00F0E8
:1062400038F831483149324A00F033F831483249A0
:10625000324A00F02EF832483249334A00F029F829
:1062600032483349334A00F024F833483349002296
:1062700000F02AF832483349002200F025F832486D
:106280003249091A082902DB0022026041601F48D6
:106290001F49884205D00268043003B4904703BC0C
:1062A000F7E700208646EC4600200021284A904768
:1062B000FEE7884207D0521A05D0037801300B70F0
:1062C0000131013AF9D17047884202D002700130A1
:1062D000FAE7704700F0002000E8002000F00020FE
:1062E00000F00020C8640400A02D0020382F0020FA
:1062F000A4630200A46302003C400400C8640400DC
:10630000A02D0020A02D00200C4104000C41040011
:106310000C4104000C4104000C4104000C41040039
:106320000C4104000C410400C864040060660400D1
:10633000382F0020382F0020382F0020C46C002078
:10634000C46C0020C86C0020C86C0020C8700020FD
:106350004D7A0200FEE7FEE7FEE7FEE7FEE7FEE716
:10636000FEE7FEE7FEE7FEE7704700BF094880470B
:1063700009484FF007018843854608488047084888
:10638000016841F470010160BFF34F8FBFF36F8F5D
:10639000FFF736BF6963020000F000209DB40300E0
:0463A00088ED00E0A4
:1063A40041DF704708B5804708BD70470C4B1B6838
:1063B40013F4804F03D00B4B1B68012B00DC704798
:1063C40000B583B0084BD3F80435084A0092A622DE
:1063D4000749022009F00CFC03B05DF804FB00BF80
:1063E400A02E00209C2E00200010014090420400AA
:1063F400874204000F4B1B6813F4804F03D00E4BED
:106404001B68032B00DC704700B585B00B4BD3F839
:106414000435527848884989039102900192084AC8
:106424000092C5220749042009F0E2FB05B05DF89B
:1064340004FB00BFA02E00209C2E00200010014071
:1064440014430400874204000C4B1B6813F4804F70
:1064540003D00B4B1B68012B00DC704700B583B0E5
:10646400084BD3F80435084A0092EC22074902206D
:1064740009F0BEFB03B05DF804FB00BFA02E0020B2
:106484009C2E00200010014090420400874204002A
:1064940010B584B00C461A4B1B6813F4804F03D01C
:1064A400184B1B68032B0EDC174B1B785AB222B314
:1064B400032B19D9042B20D1144B01221A70124B2F
:1064C40000221A7019E0124BD3F804354A880E4999
:1064D4000978029101920F4A009240F20D120E497E
:1064E400042009F085FBDFE70C4A1378B4F90200B5
:1064F4000B4921F813000133137004B010BD00BF21
:10650400A02E00209C2E002051410020504100204C
:106514000010014018480400874204004C46002043
:106524001046002030B5C7B0744B1B6813F4804F7D
:1065340003D0734B1B68032B33DC704B1B6813F4C1
:10654400804F03D06E4B1B68032B36DC6B4B1B68F0
:1065540013F4804F03D06A4B1B68032B40DC674B5A
:106564001B6813F4804F03D0654B1B68032B63DC5B
:10657400624B1B6813F4804F04D0614B1B68032BE0
:1065840000F385805F4B604A1A605C4B1B6813F410
:10659400804F04D05A4B1B68032B00F3A38047B0F1
:1065A40030BD5A4BD3F80435594A009240F2D932DF
:1065B4005849042009F01CFBBFE7544BD3F80435B9
:1065C400554A11885088D288039202900191534A07
:1065D400009240F2DB324F49042009F009FBB5E791
:1065E40000230F2B12D84C4A1A4492F82C204C4901
:1065F4000C6810095900255C05A800F8135002F036
:106604000F020131A25C42540133EAE705AA0023D8
:106614008DF8343003F1804303F58833D3F804351F
:106624000292404A0192404A00924FF477723949EB
:10663400042009F0DDFA92E700230F2B11D8364A23
:106644001A44127B36490C6810095900255C05A8C8
:1066540000F8135002F00F020131A25C42540133DE
:10666400EBE705AA00238DF8343003F1804303F5EA
:106674008833D3F8043502922C4A01922A4A0092B4
:1066840040F2DD322349042009F0B2FA70E7002316
:106694000F2B11D8204A1A44127F21490C68100983
:1066A4005900255C05A800F8135002F00F020131CF
:1066B400A25C42540133EBE705AA00238DF8343081
:1066C40003F1804303F58833D3F804350292184A62
:1066D4000192154A009240F2DE320E49042009F07C
:1066E40087FA4FE7094BD3F80435124A00924FF466
:1066F40078720849042009F07BFA50E7A02E0020A4
:106704009C2E002008420020B441002000100140CB
:10671400BC4304008742040098410020D84304008D
:10672400A42E00201C440400284404003044040027
:106734003C4404004844040003780E2B00D0704706
:1067440000B583B0104B1B6813F4804F03D00F4B7C
:106754001B68042B05DC0E4B1B7873B103B05DF88A
:1067640004FB0C4BD3F804350B4A009240F29A22F6
:106774000A49052009F03CFAEDE7FFF7D3FE044B84
:1067840001221A70EAE700BFA02E00209C2E0020F0
:10679400E0410020001001405443040087420400FB
:1067A4000C4B1B6813F4804F03D00B4B1B68032B5B
:1067B40000DC704700B583B0084BD3F80435084AB1
:1067C40000924FF4B8720749042009F011FA03B09B
:1067D4005DF804FBA02E00209C2E00200010014038
:1067E400984504008742040000B583B0012A1FD0F5
:1067F40053B24BB1022A35D0244ABC21032014F0F1
:1068040067FF03B05DF804FB214B1B6813F4804F52
:10681400F7D0204B1B68032BF3DD1F4BD3F8043553
:106824001E4A0092AF221E49042009F0E1F9E8E76C
:10683400062232214FF4F01003F0A8FA144B1B681F
:1068440013F4804FDDD0134B1B68032BD9DD124B9F
:10685400D3F80435134A0092B4221149042009F0F4
:10686400C7F9CEE70A4B1B6813F4804FC9D0094B14
:106874001B68032BC5DD084BD3F804350A4A009284
:10688400B8220749042009F0B3F9BAE738420400F2
:10689400A02E00209C2E002000100140B0420400D5
:1068A40087420400D0420400F042040000B583B0E3
:1068B400012A1ED053B243B1022A34D0284A4FF4DD
:1068C4008271032014F004FF3CE0264B1B6813F490
:1068D400804F37D0244B1B68032B33DD234BD3F875
:1068E4000435234A0092F5222249042009F080F954
:1068F40028E0062232214FF4F01003F047FA194B36
:106904001B6813F4804F1DD0174B1B68032B19DD34
:10691400164BD3F80435184A0092FA22154904207C
:1069240009F066F90EE00F4B1B6813F4804F03D097
:106934000D4B1B68032B08DC104B01221A70104B03
:1069440000221A7003B05DF804FB084BD3F8043539
:106954000C4A0092FE220749042009F049F9EBE7AA
:1069640038420400A02E00209C2E0020001001407C
:10697400B042040087420400D04204005041002089
:1069840051410020F042040008B5034A4FF4B271AB
:10699400032014F09DFE08BD3842040010B50C46D7
:1069A400122003F0CDF9207010BD000008B561B1CC
:1069B4004FF0A0434FF48022C3F80825084B01226E
:1069C4001A70084803F0F8FC08BD4FF0A0434FF4D8
:1069D4008022C3F80C25024B00221A70F1E700BF95
:1069E40052410020CC2D002000B583B03E4B1B68E3
:1069F40013F4804F03D03D4B1B68032B3EDC3C4B10
:106A04004FF6FF725A809A801A803A4817F0CEFEE9
:106A140000283FD1384A002138481AF099FF00284D
:106A24003ED10121364803F0E9FC00283ED1354827
:106A3400354B03630023836280F82C3080F82D30BB
:106A440002211BF075FD002836D13048304B03631A
:106A54000023836280F82C3080F82D3003211BF052
:106A640067FD78BB204B1B6813F4804F03D01F4B8A
:106A74001B68032B2CDC03B05DF804FB254BD3F817
:106A84000435254A00924FF436722449042009F053
:106A9400AFF8B4E7224A4FF4387114F019FEB9E79D
:106AA4001F4A40F2E12114F013FEBAE71C4A40F2F7
:106AB400E32114F00DFEBAE7194A40F2EB2114F079
:106AC40007FEC2E7164A40F2F32114F001FEC9E7BB
:106AD400104BD3F80435134A00924FF43D720F491A
:106AE400042009F085F8C6E7A02E00209C2E002083
:106AF400544100202D6B0200AF6302005C41002072
:106B0400CC2D002044420020844504000C42002087
:106B14000C48040000100140DC46040087420400D5
:106B240038420400FC46040070B582B004460D46A9
:106B340016460E4B1B6813F4804F03D00C4B1B6896
:106B4400032B06DC32462946204602F08BFE02B0B7
:106B540070BD084BD3F80435074A009240F2532223
:106B64000649042009F044F8ECE700BFA02E0020F9
:106B74009C2E0020001001402441040087420400A0
:106B840000B583B0104B1B6813F4804F03D00F4B38
:106B94001B68032B08DC00210D4B1970122003F035
:106BA400DBF803B05DF804FB0A4BD3F804350A4A5A
:106BB40052880192094A00924FF40672084904204F
:106BC40009F016F8E7E700BFA02E00209C2E002055
:106BD4009441002000100140984100203C410400F1
:106BE4008742040000B583B00E4B1B6813F4804F3A
:106BF40003D00D4B1B68032B08DC00210B4B1970D1
:106C0400112003F0A9F803B05DF804FB084BD3F896
:106C14000435084A009240F229220749042008F06A
:106C2400E7FFEAE7A02E00209C2E002094410020DC
:106C340000100140704304008742040010B582B084
:106C4400044617491CF015FE28B3164920461CF0CB
:106C540010FE18B3144920461CF00BFE08B9134863
:106C64001AE0134B1B6813F4804F03D0114B1B68BD
:106C7400002B04DA784603F0D5F900200CE00E4B23
:106C8400D3F804350D4A009240F2E3120C49002077
:106C940008F0AEFFEEE70B4802B010BD0948FBE771
:106CA4006847040084470400A047040048470400E0
:106CB400A02E00209C2E002000100140C04704009C
:106CC400874204002C47040000B583B0614B1B7855
:106CD400002B40F0A880604B5A881B889A4228D227
:106CE4005E4B1B6813F4804F03D05D4B1B68032B72
:106CF40013DC594883680093002300F11C0204212B
:106D0400808802F007FE0121122003F025F8514B80
:106D140001221A7003B05DF804FB524BD3F804351A
:106D2400514A009240F265225049042008F060FF65
:106D3400DFE713BB494B1B6813F4804F03D0484B68
:106D44001B68032B0DDC0323494A4349C9880420EB
:106D540001F092FB01F0CEFB0121112002F0FCFFB7
:106D6400D5E7404BD3F80435424A009240F26E22F4
:106D74003E49042008F03CFFE5E71F2B3ED8374B83
:106D84001B6813F4804F03D0354B1B68032B1CDCAA
:106D9400314B9868FFF752FF374B18602F4B1B6835
:106DA40013F4804F03D02E4B1B68032B19DC0123F3
:106DB400314A2949C988042001F05EFB01F09AFB9D
:106DC4000121112002F0C8FFA1E7264BD3F80435B6
:106DD4002A4A009240F27A222449042008F008FF4B
:106DE400D6E7204BD3F804350190254A009240F2AF
:106DF4007E221E49042008F0FBFED8E7174B1B68CF
:106E040013F4804F86D0164B1B68032B82DD154B81
:106E1400D3F804351B4A009240F287221349042018
:106E240008F0E6FE76E70D4B1B6813F4804F3FF441
:106E340071AF0B4B1B68032B7FF76CAF094BD3F877
:106E44000435114A009240F28F220849042008F0C8
:106E5400CFFE5FE79441002098410020A02E00203F
:106E64009C2E0020001001408C4404008742040042
:106E74001C2E0020C04404007C420020F044040086
:106E840020450400384504005445040010B50E287C
:106E94000CD00F2818D04FF4FA744FF47A40124BE8
:106EA40043F001039847013CF7D110BD4FF0A042D5
:106EB400D2F80435D94301F40031C2F8081503F4BB
:106EC4000033C2F80C35E6E74FF0A042D2F804359F
:106ED400D94301F40021C2F8081503F40023C2F8D1
:106EE4000C35FFF7F1FED6E79045040010B582B0EB
:106EF4001446154B1B6813F4804F03D0134B1B68C7
:106F0400032B07DC012C10D0022C12D0032C14D03C
:106F140002B010BD0E4BD3F804350E4A0092822203
:106F24000D49042008F064FEECE7784603F07AF893
:106F3400EAE7784603F076F8E8E7084A8B2104206C
:106F440014F0C6FBE4E700BFA02E00209C2E002016
:106F540000100140B0450400874204003842040098
:106F640010B582B0044614F0F9FB02238DF8043006
:106F74008DF8063003238DF80530094A01A920460F
:106F840014F02AFC0021204614F092FC204614F050
:106F9400F1FC0121204614F08BFC02B010BD00BFAF
:106FA400916E0200F8B53C220121104809F079FCE9
:106FB400B8B107460E4C051D04F1300C26460FCE21
:106FC40028606960AA60EB60344610356645F5D1E7
:106FD40007CC28606960AA60384609F09BFC002051
:106FE400F8BD044809F0C4FDF9E700BF7041002072
:106FF40098410020B02D002000B583B0144B1B68CD
:1070040013F4804F03D0134B1B68032B0DDC0021BA
:10701400112002F0A1FE0121122002F09DFEFFF7D3
:10702400C1FF70B903B05DF804FB0B4BD3F8043512
:107034000A4A009240F21F220949042008F0D8FDB0
:10704400E5E7084A4FF4097114F042FBEAE700BF90
:10705400A02E00209C2E002000100140A04304001C
:10706400874204003842040008B5FFF79BFF00B9CB
:1070740008BD034A40F2D51114F02AFBF8E700BF1B
:107084003842040010B582B00446104B1B6813F458
:10709400804F03D00E4B1B68032B04DC23781C2B7E
:1070A4000FD002B010BD0B4BD3F804350278019217
:1070B400094A009240F247220849042008F098FD4A
:1070C400ECE7002006F0DAFCEBE700BFA02E00207E
:1070D4009C2E0020001001407C41040087420400E3
:1070E40000B58BB008A909A80BF0F6FDA8B91A4B96
:1070F40005931A4B06931A4B079304230493099B95
:10710400A3F5805302930123039302A9154809F0C0
:10711400E0FC40B90BB05DF804FB134A40F27D116A
:1071240014F0D6FAE3E7114809F022FD104B1B686E
:1071340013F4804FEED00F4B1B68002BEADD0E4B8F
:10714400D3F804350D4A00924FF4C5720C4901205E
:1071540008F04EFDDEE700BFF16E02008D6902000B
:10716400A56702007041002038420400A02D0020D1
:10717400A02E00209C2E0020001001400C42040090
:107184008742040010B582B03C23019301AB094A45
:107194000121094809F046FB044620B9B4FA84F0F9
:1071A400400902B010BD3C22002102481CF02EFB15
:1071B400F4E700BF984100207041002010B582B070
:1071C400FFF78EFFFFF7DEFF044658B1144B1B6830
:1071D40013F4804F03D0134B1B68032B13DC20469E
:1071E40002B010BD104B00221A805A804FF48072F6
:1071F400DA80FFF7D7FE0028F1D00C4A40F2CE2106
:1072040014F066FAEBE70A4BD3F80435094A009206
:1072140040F2D2220849042008F0EAFCDFE700BF6C
:10722400A02E00209C2E002098410020384204000B
:1072340000100140F84104008742040000B583B007
:10724400154B1B6813F4804F03D0144B1B68032B9E
:1072540010DC06F05BFBC8B900214FF4F01002F01B
:107264008AFD0222C8214FF4F01002F08FFD03B012
:107274005DF804FB0A4BD3F804350A4A009240F245
:10728400E6320949042008F0B3FCE2E7074A4FF468
:107294007B7114F01DFADFE7A02E00209C2E002045
:1072A40000100140DC470400874204003842040017
:1072B40000B583B00D4B41F201025A804FF6FF72C4
:1072C4001A800DF10602196802200DF025FE01A9AD
:1072D4004CF205000FF020FEBDF80410BDF80600C6
:1072E4000DF06AF903B05DF804FB00BFD44100203F
:1072F40000B583B00D4B41F201025A804FF6FF7284
:107304001A800DF10602196803200DF005FE01A98B
:107314004CF206000FF000FEBDF80410BDF80600A4
:107324000DF04AF903B05DF804FB00BFD84100201A
:1073340000B583B00D4B4FF480525A804FF6FF7264
:107344001A800DF10602196801200DF0E5FD01A96E
:107354004CF204000FF074FEBDF80410BDF80600F2
:107364000DF09AFA03B05DF804FB00BFDC41002085
:1073740070B584B0504B1B6813F4804F03D04F4B4F
:107384001B68032B38DC4E4A137801335BB213704D
:107394004C4DA8884C4A5900CE1874001619105345
:1073A4000330B0800123B3706B88484A1370032BF9
:1073B40033D00021122002F0CFFC424A538801331B
:1073C40053800CF003FBFFF7EDFD002850D13D4B3B
:1073D4005B881F2B52D9384B1B6813F4804F03D0A2
:1073E400364B1B68032B5BDC0422C8214FF4F010DE
:1073F40002F0CCFC04B070BD354BD3F80435314AEF
:107404005188928802920191324A00924FF4F772A5
:107414003149042008F0ECFBB5E7304803F0BEF82E
:1074240064244FF47A402E4B43F001039847013C07
:10743400F7D102F00BFC2B4B1870FFF779FFFFF725
:1074440037FFFFF755FF1C4B1B6813F4804FB0D078
:107454001A4B1B68032BACDD1D4BD3F80435224AB1
:1074640000924FF4FE721C49042008F0C1FBA0E70F
:107474001E4A40F2022114F02BF9A8E7114CA0682F
:10748400FFF7DCFB1A4A10600123E188042000F0B6
:10749400F3FF01F02FF80121112002F05DFCA9E7B0
:1074A4000B4BD3F80435134A00924FF404720A4983
:1074B400042008F09DFB97E7A02E00209C2E0020BE
:1074C400282E002098410020B44600209446002035
:1074D400001001409841040087420400D041040098
:1074E40090450400F0460020D841040038420400CE
:1074F400784200203845040008B53C4B9988188927
:107504000DF0BAFA00283BD1384B998818890DF050
:1075140077FB00283AD1354B188819F061FF002811
:107524003AD1324B9988324B18880DF0A5FA0028CD
:1075340038D12E4B99882E4B18880DF061FB00280A
:1075440036D12A4B99882B4B18880DF095FA0028D0
:1075540034D1264B9988274B18880DF051FB00280D
:1075640032D1224B9988244B18880DF085FA88BBB8
:107574001E4B9988204B18880DF042FB80BB08BD38
:107584001E4A40F2B12114F0A3F8BDE71B4A40F2B1
:10759400B22114F09DF8BEE7184A40F2B52114F068
:1075A40097F8BEE7154A40F2B72114F091F8C0E706
:1075B400124A4FF42E7114F08BF8C2E70F4A40F2CE
:1075C400BA2114F085F8C4E70C4A40F2BB2114F048
:1075D4007FF8C6E7094A40F2BD2114F079F8C7E7FD
:1075E400064A40F2BE2114F073F8C8E75441002063
:1075F400CC2D0020444200200C42002038420400DC
:1076040030B593B0202200210DEB02001CF0FEF8EF
:1076140001238DF8203007238DF823300F238DF8B4
:107624002830304B0C93304B10930DF1470108A8D0
:107634000BF01CFB58BB2D4806F0BCF9FFF7BEFD50
:107644002B4B187602AC2B4D0FCD0FC495E80300DD
:1076540084E8030002A800F0E3FF9DF8473043BB31
:10766400254B1B6813F4804F03D0244B1B68032B5A
:1076740013DC00F0FDFFFFF73FFF0CF0A7F9FFF765
:10768400F3FC1F491F4802F035FA13B030BD1E4AFF
:1076940040F2023114F01CF8CDE71C4BD3F804354A
:1076A4001B4A00924FF446721A49042008F0A0FACB
:1076B400DFE7114B1B6813F4804F03D00F4B1B689B
:1076C400032B02DC00F048FFDBE7104BD3F8043552
:1076D400114A00924FF448720E49042008F088FAC7
:1076E400F0E700BF89700200ED690200C02D0020A0
:1076F400544100200C410400A02E00209C2E0020A8
:10770400856B0200757302003842040000100140CA
:107714009046040087420400C846040010B586B0B1
:107724000446354B1B6813F4804F03D0334B1B685E
:10773400032B21DC8DF81440314A1378591C117045
:107744008DF8153032230493642303932D4C208841
:107754000EF078F803AA05A920461AF023FF112891
:1077640041D8DFE800F0414040401640402B16402D
:107774004040404040404016234BD3F8043501902C
:10778400224A009240F22D322149042008F030FAB6
:10779400D0E7194B1B6813F4804F25D0174B1B6897
:1077A400032B21DD184BD3F804351A4A009240F21A
:1077B40041321749042008F01BFA15E00E4B1B68F0
:1077C40013F4804F10D00D4B1B68032B0CDD0E4BB4
:1077D400D3F80435104A00924FF453720C49042034
:1077E40008F006FA00E008B906B010BD0B4A4FF4E1
:1077F400547113F06DFFF7E7A02E00209C2E00209B
:107804000442002044420020001001405C4804006F
:107814008742040074480400884804003842040085
:1078240010B586B08DF81400294A1378591C1170CC
:107834008DF815303223049364230393254C208858
:107844000EF000F803AA05A920461AF0ABFE112891
:1078540034D8DFE800F0343333330933331E0933CB
:1078640033333333333333091B4B1B6813F4804FE7
:1078740025D01A4B1B68032B21DD194BD3F8043593
:10788400184A009240F26A321749042008F0B0F90D
:1078940015E0114B1B6813F4804F10D00F4B1B687D
:1078A400032B0CDD0E4BD3F80435104A009240F242
:1078B40075320D49042008F09BF900E008B906B0C0
:1078C40010BD0B4A40F2793113F002FFF7E700BF15
:1078D400054200200C420020A02E00209C2E0020F7
:1078E40000100140744804008742040088480400E2
:1078F400384204004FF0A0434FF40032C3F80C2583
:107904004FF48022C3F80C254FF40022C3F80C2551
:107914004FF48012C3F80C257047000000B583B003
:107924001D4A04214FF4C04008F046F91B4B1B6864
:1079340013F4804F03D01A4B1B68032B1ADC1AF084
:107944003FFB18BB012002F0BBFBFFF7D3FF0D2068
:10795400FFF706FB0F20FFF703FB1020FFF700FBE8
:107964000E20FFF7FDFA02F053FAFFF749FE03B0C9
:107974005DF804FB0B4BD3F804350B4A009240F23C
:10798400C2320A49042008F033F9D8E7084A4FF410
:10799400717113F09DFED5E791FB0200A02E00202B
:1079A4009C2E002000100140C845040087420400BA
:1079B4003842040030B583B01B4BFF221A701B4BB6
:1079C40093F900400DE01A4BD3F804352A5A01927A
:1079D400184A009240F2F9321749042008F008F9D5
:1079E400013C002C1CDB104B1A78013252B21A7085
:1079F40004F140039B009BB2104D51001144480018
:107A040029182B5203338B8000238B700C4B1B687B
:107A140013F4804FE4D00B4B1B68032BE0DDD2E75B
:107A240002F0E6F803B030BD282E00209446002072
:107A340000100140E847040087420400B4460020D7
:107A4400A02E00209C2E002030B589B0FFF766FFE1
:107A5400FFF7F4FBA04AC021102002F0B1FDD0B919
:107A640002F076FD9D4B1B6813F4804F1FD09C4B96
:107A74001B68032B1BDD9B4BD3F804359A4A92F900
:107A840000200192994A009240F20442984904204D
:107A940008F0AEF80BE013F083FBE1E7954802F041
:107AA4007DFD954B1A78954B1A70FEF779FC02F020
:107AB40013FE05F07BFF0028F9D08F4B1B788F4A0B
:107AC4001278934205D0002BE8D08D4802F066FD71
:107AD400E7E78C4B1B785BB98B4B1B787BB98B4BE3
:107AE4001B789BB100238A4A1370884A1370DCE721
:107AF4000120FFF713FE834B00221A70D5E7002004
:107B0400FFF70CFE804B00221A70CEE7814B1B78E6
:107B1400E3B9814B1B78002B51D1804B1B78002B90
:107B240058D17F4B1B78002BC1D06C4B1B6813F4CE
:107B3400804F04D06A4B1B68032B00F3BE80794846
:107B440002F02CFD764B00221A70AEE7764B1B88B0
:107B5400013B764A13706E4B00221A7064244FF472
:107B64007A40734B43F001039847013CF7D15B4BD8
:107B74001B6813F4804F03D0594B1B68032B08DC9C
:107B84006A4B93F90030022B15DC624B00221A7009
:107B94008BE7544BD3F80435644A92F900200292DF
:107BA40003220192634A009240F226425049042083
:107BB40008F01EF8E4E7604802F0F0FCE5E7564BF5
:107BC40000221A70524A1378013313700120FFF710
:107BD40027FE6AE7544B1B88013B544A1370FFF796
:107BE400E9FE564B1B78002B57D1002405940694CC
:107BF400ADF81C4007E005AD28461BF061FE504B74
:107C04001B882B520134494B93F90030A342F2DA1A
:107C140005AC20461BF054FE4A4B1B8823522F4BC5
:107C24001B6813F4804F03D02D4B1B68032B0CDC13
:107C340005A802F0B3FC0021404B1970374B1970B2
:107C44003C2241481BF0E2FD2FE7264BD3F80435D4
:107C54003E4A00924FF487622549042007F0C8FF8A
:107C6400E6E7394B33F9140080B201F0D5FF013453
:107C7400324B1B78A342F4DC01F0E8FF344B18705C
:107C8400164B1B6813F4804F03D0154B1B68032B52
:107C940005DC244802F082FCCDE70024E8E7114B20
:107CA400D3F804351F4A01922A4A00924FF488629D
:107CB4000F49042007F09CFFEBE70A4BD3F8043587
:107CC400184A0192244A009240F24742084904208B
:107CD40007F08EFF33E700BF382F0020A02E0020CE
:107CE4009C2E002000100140282E0020FC4504009A
:107CF40087420400144604005241002053410020EE
:107D04001046040023470020224700202447002077
:107D140051410020204700202147002050410020ED
:107D2400F0460020A84600209841002094460020F8
:107D3400904504001C460400D04104004C46002039
:107D44005846040088440400104600205C460400A1
:107D5400404200206C460400804604001D4B1B7802
:107D64001BB11C4B01221A70704700B587B01A4A28
:107D740003AB07CA03C323F8022B120C1A7017496A
:107D8400174814F089FEB0B9164B009303AB134A9D
:107D94001349154814F03DFE90B9144816F05EFAE4
:107DA4000146114814F060FE78B90A4B01221A709A
:107DB40007B05DF804FB0E4A7A2113F089FCE3E76F
:107DC4000B4A7B2113F084FCE7E7094A7C2113F07A
:107DD4007FFCEAE7BC450020B04804008442002050
:107DE400C0450020997E02006C440020A44200207B
:107DF4000C4C0400B0B130B585B00546A1B10C46B9
:107E040008461BF05DFD6A4681B2204607F096F8ED
:107E14000422694628461BF00BFCB0FA80F04009A6
:107E240005B030BD002070470020F9E770B58AB076
:107E3400064600230393049305930693079308933C
:107E44008DF824300F4D2B89ADF81C300E4B1B8858
:107E5400ADF8223003AC6B6853F80C0F59689A687C
:107E6400DB680FC40123009303ABAA7A31460748A9
:107E740014F016FE08B90AB070BD054A712113F05A
:107E840027FCF8E7A4450020024600206C440020AB
:107E94000C4C040070B5C8B0044603780A2B10D803
:107EA400DFE813F00B00C802C4000F000F000F003E
:107EB4000F0072020F0011028F019B4B1B78012BE4
:107EC40001D048B070BD994B1B6813F4804F03D0A8
:107ED400974B1B68032B50DCE269137843B9934B2F
:107EE4001B6813F4804F03D0914B1B68032B46DCB3
:107EF400637D002BE5D08D4B1B6813F4804F03D0BA
:107F04008B4B1B68032B6FDC00258A4B1B78AB4221
:107F1400D7D9AE00884B1B6853F8251004F116001E
:107F2400FFF768FF002861D10135EEE7E218127906
:107F340082490D68100959002E5C07A800F81360E7
:107F440002F00F020131AA5C425401330F2BEDD928
:107F540007AA00238DF83C3003F1804303F58833EE
:107F6400D3F804350292764A0192764A00928D2221
:107F74007549042007F03CFEAEE70023E6E7734BA7
:107F8400D3F8043592F90D200192714A009291229E
:107F94006D49042007F02CFEAAE7E218927D674998
:107FA4000D68100959002E5C07A800F8136002F050
:107FB4000F020131AA5C42540133032BEDD907AA05
:107FC40000238DF8243003F1804303F58833D3F87C
:107FD400043502925F4A01925A4A009296225A4903
:107FE400042007F005FE8FE70023E6E74F4B1B68EC
:107FF40013F4804F03D04E4B1B68032B0BDC4E4B0A
:108004001B689A59544B1A60201DFFF70FFF464B0B
:1080140003221A7055E74D4BD3F804354F4A0092AA
:108024009C224949042007F0E3FDE8E73F4B1B6825
:1080340013F4804F03D03E4B1B68032B34DC3A4BC4
:108044001B78032B41D0022B7FF43BAF444B5B687E
:10805400444A118899801A8801321A80DA88424881
:1080640000880244DA80B1F5807F00F095803C4CB2
:10807400E3689847236998472C4B1B6813F4804F97
:1080840004D02B4B1B68032B00F38A80344B5A68B3
:1080940090889368009300231C32042101F03AFC79
:1080A400214B00221A700CE7284BD3F804352F4AD1
:1080B400127802921C4A127801922D4A0092A92247
:1080C4002149042007F094FDB9E7284B1B78DBB164
:1080D400164B1B6813F4804F03D0154B1B68032BFE
:1080E40007DC114B01221A70204A1378013B1370EC
:1080F400E7E6164BD3F804351E4A0092AE22124925
:10810400042007F075FDECE7084B1B6813F4804F5F
:1081140003D0074B1B68002B2EDC034B00221A7084
:108124000F4B5B699847CCE6A0450020A02E0020A9
:108134009C2E0020064600200C460020A42E002081
:10814400D0480400284404005B4C040000100140A3
:10815400D8480400E448040008460020F04804001D
:10816400A4450020024600200446002000460020CA
:10817400144904005C490400974BD3F80435227A6F
:108184009649098802910192954A0092B52295492F
:10819400012007F02DFDC0E7934A12689A6066E754
:1081A4008D4BD3F80435626892889049098802910E
:1081B40001928F4A0092C7228A49042007F018FDD1
:1081C40064E78C4B1B6813F4804F03D08A4B1B6805
:1081D400032B4EDC894B02221A70864B1B6813F466
:1081E400804F03D0844B1B68032B4DDCE368844928
:1081F400D88A0EF091FE002851D1E068814B1968AD
:10820400814BA2684988C08A0FF0A8FB00284BD193
:108214007D4B188816F046FB00284AD1784B198804
:10822400794B188816F0F0FA002847D1714B1B6877
:1082340013F4804F3FF445AE6F4B1B68032B7FF75D
:1082440040AE654BD3F80435E268D28A6D490968BB
:1082540049886D480088049003916949098802910E
:1082640001926A4A0092FC225E49042007F0C0FC95
:1082740027E6594BD3F80435654A0092E62259495A
:10828400042007F0B5FCA5E7534BD3F80435614A45
:108294000092EB225349042007F0AAFCA6E75E4AA9
:1082A400ED2113F015FAA8E75B4AF12113F010FA57
:1082B400AEE7594AF42113F00BFAAFE7564AF62118
:1082C40013F006FAB2E7027A484B1A801023002210
:1082D4000121406814F013FC00283FF4F2AD454B33
:1082E4001B6813F4804F03D0434B1B68002B13DC33
:1082F4004A4B1B784BB33F4B1B6813F4804F03D09E
:108304003D4B1B68032B14DC3C4B01221A70434A7F
:108314001378013B1370D4E52F4BD3F80435019047
:108324003F4A00924FF486722E49012007F060FC08
:10833400DEE7294BD3F804353A4A009240F20F1293
:108344002849042007F054FCDEE72A4B1B6813F489
:10835400804F03D0284B1B68032B06DC274B0022DD
:108364001A70284B5B699847ABE51B4BD3F804356F
:108374001A4A128801922C4A00924FF48B721949BE
:10838400042007F035FCE9E707AD284B0FCB85E85F
:108394000F0010222946606814F0BAFBB0B9154BDF
:1083A4001B6813F4804F3FF48CAD134B1B68032BF5
:1083B4007FF787AD084BD3F804351D4A00924FF47C
:1083C40092720849042007F013FC7AE5124A40F23D
:1083D400231113F07DF9E2E700100140024600206A
:1083E400804904005B4C0400084600200446002039
:1083F400C4490400A02E00209C2E0020A04500208B
:1084040080420020A445002082420020484A040003
:10841400FC490400204A04000C4C040000460020DF
:108424008C4A0400BC4A0400CC4A0400BC48040042
:10843400344B04000B4B1B6813F4804F3FF441ADE5
:10844400094B1B68032B7FF73CAD084BD3F804356D
:10845400074A009240F229120649042007F0C8FB9B
:108464002FE500BFA02E00209C2E0020001001400C
:108474005C4B04005B4C040010B582B00AB1144696
:10848400A3B9124B1B6813F4804F1CD0104B1B680C
:10849400002B18DD0F4BD3F804350F4A009240F23D
:1084A40037120E49012007F0A3FB0CE00C4A1070B0
:1084B4000C4A11800C4A012111700C4A14600C4AB8
:1084C4001370FFF74BFC02B010BD00BFA02E0020BC
:1084D4009C2E002000100140BC4B04005B4C0400A7
:1084E4000046002002460020A04500200C46002043
:1084F4000646002000B583B0104B1B6813F4804F70
:1085040003D00F4B1B68032B06DC0E4814F076FBDC
:1085140070B903B05DF804FB0B4BD3F804350B4A78
:1085240000924FF4A3720A49042007F061FBECE7C0
:10853400084A40F2471113F0CBF8EAE7A02E0020D6
:108544009C2E0020997E020000100140704C040013
:108554005B4C04000C4C040000B587B00123049369
:10856400284B186804A902300FF0EAF900BB049BF9
:10857400012B23D1234B1B6804AA191D58880FF023
:10858400C3FBF8B905A80EF0B9FC1E4B1968BDF879
:1085940014000FF027FAD8B91B4B1B6813F4804F53
:1085A40003D01A4B1B68032B18DC07B05DF804FBDF
:1085B400174A4FF4A87113F08BF8D8E7784601F006
:1085C40031FDD7E7124A4FF4A97113F081F8D9E7C6
:1085D4000F4A4FF4AB7113F07BF8DDE70D4BD3F882
:1085E4000435084A126851889088128803920290D0
:1085F4000191094A009240F259120849042007F0F7
:10860400F7FAD2E7A4450020A02E00209C2E0020DB
:108614000C4C0400001001407C4B04005B4C040033
:1086240038B50446C36883B1636993B12369A3B1C0
:108634000C4D0FCC0FC594E8030085E8030000231C
:10864400094A1370094A137038BD784601F0EAFCF0
:10865400EAE7784601F0E6FCE8E7784601F0E2FC58
:10866400E6E700BFA4450020BC450020A04500204B
:1086740010B584B0334BDB69039303A80EF004FCFC
:10868400002836D1304C606810210C3005F0AEFD66
:10869400606810211C3005F0A9FD606810212C30A1
:1086A40005F0A4FD6168226802320C3100200EF04E
:1086B400EDFE20BB254B1B6813F4804F03D0244BE5
:1086C4001B68032B21DC204B19685A680B1D1C32D4
:1086D400498800200FF0A2F938BB1B4B19685A686F
:1086E4000B462C32498801200FF038F918BB04B02E
:1086F40010BD184A4FF4B67112F0EAFFC2E7154AEA
:108704004FF4BA7112F0E4FFD4E7134BD3F80435F5
:108714000D4A126852880192104A009240F2751272
:108724000F49042007F064FACDE70A4A4FF4BB71FD
:1087340012F0CEFFD1E7074A40F2791112F0C8FFD8
:10874400D5E700BFB0480400A4450020A02E0020B7
:108754009C2E00200C4C040000100140F84B040037
:108764005B4C040000B583B0B0F5807F11D0B0F548
:10877400867F27D0264B1B6813F4804F03D0254BEC
:108784001B68032B37DC244B244A1A6003B05DF8C2
:1087940004FB1F4B1B6813F4804F03D01D4B1B6855
:1087A400032B03DC1C4B1E4A1A60EFE71D4BD3F866
:1087B40004351D4A009240F28B121C49042007F034
:1087C40017FAEFE7124B1B6813F4804F03D0114BD9
:1087D4001B68032B03DC104B154A1A60D6E7114BB8
:1087E400D3F80435134A00924FF4C8720F49042099
:1087F40007F0FEF9EFE70B4BD3F804350E4A00926D
:1088040040F293120949042007F0F2F9BBE700BFD4
:10881400A02E00209C2E00202C2E00206851040045
:10882400FC4C04000010014004510400F750040003
:1088340058510400185104002C51040070B5064628
:1088440014460D4601B122B1044B5E801D705C607C
:1088540070BD784601F0E6FBF6E700BF58460020FD
:1088640010B584B0404B5A8882420ED148F21903A5
:1088740098422CD023D948F21F03984229D048F2B9
:108884003E03984227D10C7843E0384B1B6813F41D
:10889400804F03D0364B1B68002B02DC022004B04F
:1088A40010BD344BD3F8043502900192324A009241
:1088B40040F231123149012007F09AF9EEE702281B
:1088C40026D048F20303984205D10C7821E00C78B5
:1088D4001FE00C781DE0254B1B6813F4804F03D078
:1088E400234B1B68002B07DC254A4FF4A771052096
:1088F40012F0EEFEFF240CE01E4BD3F80435214A9F
:10890400009240F24D121D49012007F071F9EBE786
:10891400FF24154B18780028C1D0144B1B6813F49E
:10892400804F03D0124B1B68032B0BDC00230E4A31
:1089340012789A4213D90C4A5268D25CA24210D0DF
:108944000133F4E70B4BD3F8043501940E4A00923B
:108954004FF4AB720949042007F04AF9E6E7012015
:108964009DE700209BE700BF58460020A02E002072
:108974009C2E002000100140944C0400F750040089
:10898400A8500400C04C0400E04C040030B585B08D
:10899400044615460180104604F07CFE2071E580F3
:1089A400184B1B88A3810022A2731E23E373237C2C
:1089B40003F00303012161F3010323746174A274BE
:1089C400114B1A88A4F813205B88A4F815300F4BB8
:1089D4001B6813F4804F03D00D4B1B68032B01DC81
:1089E40005B030BD0B4BD3F80435228802950192B3
:1089F400094A009240F273120849042007F0F8F87B
:108A0400EEE700BF4E46002050460020A02E002076
:108A14009C2E002000100140084D0400F750040073
:108A240010B50A4B1B7863B1084C2378013B04F85A
:108A3400043B05F09FFA06490144204605F062FA1A
:108A440010BD784601F0EEFAEEE700BF6C46002058
:108A5400404B4C0008B5034805F03CFA024B034A6E
:108A64001A6008BD704600202C2E0020B14F04006F
:108A740008B5FFF7EFFF024B1B68984708BD00BF1E
:108A84006046002030B5C7B08C4B1B681B78013B97
:108A94001C2B00F20B86DFE813F01D004700A20038
:108AA4003B01D000C102FA02330309060906090694
:108AB400D105ED05B304D3040906090609069C0192
:108AC4000906FA014705090615040906B5057302E6
:108AD4009D0325057A4B1B6813F4804F03D0794B13
:108AE4001B68032B14DC002015F0F6FE044600225C
:108AF40011460220FFF7A2FE44B115F09FFF724B0E
:108B04001B78002B00F0DA85FFF78AFF47B030BDF1
:108B14006E4BD3F804356E4A00924FF4DB726D4904
:108B2400042007F065F8DEE7654B1B6813F4804FFB
:108B340003D0644B1B68032B17DC614B1B6813F4D5
:108B4400804F03D05F4B1B68032B1DDC624B1A68FC
:108B5400624B1988002015F0E3FE0446604A0221A6
:108B640048F20300FFF76AFEC6E7584BD3F8043512
:108B7400594A126801925B4A00924FF4E0725549D7
:108B8400042007F035F8D8E700230F2B11D8524AF8
:108B94001268D25C54490C6810095900255C05A878
:108BA40000F8135002F00F020131A25C4254013369
:108BB400EBE705AA00238DF8343003F1804303F575
:108BC4008833D3F804350292484A0192484A009205
:108BD40040F2C1123F49042007F00AF8B6E7384BC7
:108BE4001B6813F4804F03D0364B1B68032B15DC32
:108BF4004FF6FF73ADF814300223ADF81630059A22
:108C0400364B19883B4B188815F00EFF04463A4A38
:108C1400012148F23E00FFF711FE6DE72B4BD3F81C
:108C24000435344A12880192344A00924FF4E672B1
:108C34002849042006F0DCFFDAE7314B1B8823B90E
:108C44002C4B1B8801332E4A13801D4B1B6813F4D5
:108C5400804F03D01B4B1B68032B1CDC294B1A8849
:108C6400ADF814205B88ADF81630059A1B4B1988B3
:108C7400234B188815F0D8FE0446234A012148F2F4
:108C84003E00FFF7DBFD002C7FF436AF1C4A13884F
:108C94000133138030E70D4BD3F80435194A528859
:108CA4001749098802910192184A009240F2DF1292
:108CB4000849042006F09CFFD0E700BF2C2E0020BA
:108CC400A02E00209C2E00206C46002000100140A5
:108CD4006C4D0400F7500400904600204E460020DE
:108CE400684F0400884D0400A42E0020A04D040009
:108CF40028440400544600206C4F0400B44D040082
:108D04008C46002050460020704F0400F44D0400AF
:108D1400864B1B881BB9864B1A88844B1A80854B5B
:108D24001B6813F4804F03D0834B1B68032B3BDC7D
:108D3400824B1A88ADF814205B88ADF81630059A7A
:108D44007F4B1988794B188815F06EFE04467D4ACE
:108D5400012148F23E00FFF771FD002C7FF4CCAEF8
:108D6400724A138801339BB21380774A1288934264
:108D74007FF4C2AE6D4B00221A806E4B1B6813F455
:108D8400804F3FF4B9AE6C4B1B68032B7FF7B4AE36
:108D94006E4BD3F804356E4A009240F206226D49B8
:108DA400042006F025FFA7E6684BD3F80435634A90
:108DB40052885F49098803915C49098802910192AC
:108DC400654A009240F2F7126249042006F010FF4F
:108DD400AEE7624B1B881BB9554B1A885F4B1A8050
:108DE400544B1B6813F4804F03D0534B1B68032B65
:108DF40037DC524B1A88ADF814205B88ADF8163076
:108E0400059A4F4B1988554B188815F00DFE0446EA
:108E1400534A012148F23E00FFF710FD002C7FF475
:108E24006BAE4E4B1B88424A128893422BD00133BF
:108E34004A4A13803F4B1B6813F4804F3FF45CAEE7
:108E44003D4B1B68032B7FF757AE404BD3F80435DB
:108E5400444A00924FF409723E49042006F0C8FEC9
:108E64004AE63A4BD3F80435344A52883B490988D8
:108E7400029101923C4A00924FF405723549042054
:108E840006F0B6FEB5E70232344B1A80D2E7284B1F
:108E94001A88013292B2354B1A80264B1B6813F4A0
:108EA400804F03D0244B1B68032B2EDC304B1A88D5
:108EB400ADF814205B88ADF81630059A204B19885C
:108EC4002A4B188815F0B0FD04462A4A012148F2BD
:108ED4003E00FFF7B3FC002C7FF40EAE154B1B686D
:108EE40013F4804F3FF408AE134B1B68032B7FF73A
:108EF40003AE164BD3F804351F4A00924FF40E729A
:108F04001449042006F074FEF6E5104BD3F804353A
:108F14001749498802920191184A00924FF40B7242
:108F24000C49042006F064FEC0E700BFA2460020FE
:108F340054460020A02E00209C2E002088460020AD
:108F44004E460020744F0400A0460020001001404B
:108F5400704E0400F7500400244E0400964600208E
:108F6400784F0400B84E04008C4E0400A446002040
:108F7400504600207C4F0400D04E0400F44D040001
:108F8400BE4B1A88033292B2BD4B1A80BD4B1B688C
:108F940013F4804F03D0BC4B1B68032B2EDCBB4B5C
:108FA4001A88ADF814205B88ADF81630059AB84BD2
:108FB4001988B34B188815F037FD0446B54A0121CA
:108FC40048F23E00FFF73AFC002C7FF495ADAD4B20
:108FD4001B6813F4804F3FF48FADAB4B1B68032B1E
:108FE4007FF78AADAC4BD3F80435AC4A00924FF40A
:108FF4001372AB49042006F0FBFD7DE5A64BD3F8C4
:109004000435A249498802920191A64A009240F28D
:109014004122A349042006F0EBFDC0E70023CDF86C
:109024001630CDF81A30CDF81E30CDF82230CDF8F8
:109034002630ADF82A30914A1288ADF81420012563
:109044008DF81850ADF81A501E228DF823209DF883
:10905400242065F38702022161F301028DF82420A4
:109064008DF825504FF0FF328DF827208DF82820F9
:109074008DF829108DF82A3005A815F093FC0446C4
:10908400894A294648F21900FFF7D8FB34E5002342
:10909400CDF81630CDF81A30CDF81E30CDF8223088
:1090A400CDF82630ADF82A30744B1B88ADF8143057
:1090B40001258DF818504FF48173ADF81A30744BB4
:1090C4001B88ADF820301E238DF823309DF8243002
:1090D40065F301038DF824308DF825506B4B1A8805
:1090E400ADF827205B88ADF8293005A815F05AFCA7
:1090F40004466E4A294648F21900FFF79FFBFBE439
:109104006B4B1B881BB95D4B1A88694B1A80002373
:10911400CDF81630CDF81A30CDF81E30CDF8223007
:10912400CDF82630ADF82A30614B1B88ADF81430E9
:1091340001228DF81820514A128893420DD0511CF7
:109144008B423DD0911C8B423FD00332934208D1D5
:109154004CF20603ADF81A3003E04CF20303ADF809
:109164001A304B4B1B88ADF820301E238DF823306A
:109174009DF82430012565F301038DF824308DF822
:109184002550424B1A88ADF827205B88ADF829306A
:1091940005A815F007FC0446464A294648F219007A
:1091A400FFF74CFB424A13882B449BB21380424A7C
:1091B400128893427FF4A0AC3D4B00221A809BE4BA
:1091C4004CF20403ADF81A30CBE74CF20503ADF8CA
:1091D4001A30C6E70023CDF81630CDF81A30CDF892
:1091E4001E30CDF82230CDF82630ADF82A30234B8E
:1091F4001B880333ADF8143001238DF818304CF27A
:109204000602ADF81A20224A1288ADF820201E2248
:109214008DF823209DF8242063F301028DF8242087
:109224008DF82530194B1A88ADF827205A88ADF8E7
:109234002920144B1B6813F4804F03D0124B1B6876
:10924400032B0ADC05A815F0ADFB04461B4A0121DB
:1092540048F21900FFF7F2FA4EE40F4BD3F8043545
:109264004CF2060102910192154A009240F2BD228D
:109274000B49042006F0BCFCE4E700BF5446002080
:10928400A4460020A02E00209C2E0020884600200A
:109294004E460020804F040000100140E84E0400B8
:1092A400F75004008C4E0400844F0400884F0400DF
:1092B4009A4600208C4F0400A0460020904F0400E2
:1092C400184F0400A84B1B881BB9A84B1A88A64B3F
:1092D4001A800023CDF81630CDF81A30CDF81E30A0
:1092E400CDF82230CDF82630ADF82A309E4B1B88BD
:1092F400ADF8143001238DF818309D4B1B6813F41E
:10930400804F03D09B4B1B68032B10DC964B1A88B1
:10931400964B1B889A4219D0991C8A4256D0033323
:109324009A4217D14CF20603ADF81A3012E0924B70
:10933400D3F804354FF481720192904A009240F2BE
:10934400CE228F49042006F053FCDFE74CF20303DE
:10935400ADF81A308B4B1B88ADF8203000228DF805
:1093640022201E238DF823309DF8243003F00303BC
:10937400012161F301038DF824308DF825108DF857
:109384002620814B1A88ADF827205A88ADF8292069
:10939400774B1B6813F4804F03D0764B1B68032B69
:1093A40019DC05A815F0FEFA0446784A012148F2B2
:1093B4001900FFF743FA6C4B1B886C4A12889342DE
:1093C40019D00133684A1380FFF796BB4CF20503AA
:1093D400ADF81A30BEE7684BD3F80435BDF81A105F
:1093E400029101926A4A009240F2E1226449042007
:1093F40006F0FEFBD5E702325B4B1A80FFF77CBB1D
:1094040005AA0023069303238DF814304CF20303BA
:10941400ADF816305C4B1988ADF810105B88ADF8C8
:109424001230049B06CA5148008815F0D5FA044648
:10943400584A012148F21F00FFF700FAFFF75CBB0E
:10944400554B1B881BB9494B1A88534B1A80002370
:10945400ADF81630069303238DF814304E4B18885C
:10946400424B1B8898420DD05A1C904230D09A1C13
:10947400904232D00333984208D14CF20603ADF83F
:10948400163003E04CF20303ADF816303E4B1A8855
:10949400ADF810205B88ADF8123005AA049B06CA0B
:1094A40015F09AFA04463D4A012148F21F00FFF7DD
:1094B400C5F9394A138801339BB21380384A12889C
:1094C40093427FF419AB344B00221A80FFF714BB8C
:1094D4004CF20403ADF81630D8E74CF20503ADF8AE
:1094E4001630D3E7214B1888033005AA00230693CE
:1094F40003238DF814304CF20603ADF81630224BDA
:109504001988ADF810105B88ADF81230049B06CAB8
:1095140080B215F061FA0446224A012148F21F0084
:10952400FFF78CF9FFF7E8BA1F4B1B881BB90F4BE9
:109534001A881D4B1A800023ADF8163006930323B6
:109544008DF81430184B1888084B1B8898422DD07E
:109554009A1C90424CD0033398422BD14CF2060310
:10956400ADF8163026E000BF98460020544600208F
:10957400A02E00209C2E002000100140404F04002B
:10958400F75004004E46002088460020944F040003
:10959400184F0400984F04009E4600209C4F04007E
:1095A400A0460020A04F04009C4600204CF2030378
:1095B400ADF81630434B1A88ADF810205B88ADF82F
:1095C400123005AA049B06CA15F006FA04463E4A60
:1095D400012148F21F00FFF731F93C4B1B883C4A3C
:1095E4001288934209D00133384A1380FFF784BAB2
:1095F4004CF20503ADF81630DCE70232334B1A8027
:10960400FFF77ABA00230593069307930893099307
:109614000A932F4B198801314CF2040289B205A830
:10962400FFF7B4F905A815F0BDF90446294A01214C
:1096340048F21900FFF702F9FFF75EBA0023059319
:1096440006930793089309930A93214B19880131D0
:109654004CF2030289B205A8FFF798F905A815F0A2
:10966400A1F904461C4A012148F21900FFF7E6F863
:10967400FFF742BA002305930693079308930993CF
:109684000A93134B198802314CF2020289B205A8DD
:10969400FFF77CF905A815F085F904460F4A012166
:1096A40048F21900FFF7CAF8FFF726BA0C4A40F24D
:1096B4007731052012F00CF8FFF71FBAFFF7D8F93D
:1096C400FFF724BA88460020A44F04009C460020DB
:1096D40054460020A84F0400AC4F0400B04F0400CF
:1096E400A850040008B5FFF7CDF908BD08B5FFF789
:1096F400B1F9024B1B68984708BD00BF64460020BF
:1097040000B583B01C4B1B681A789AB1212A11D07A
:1097140041680088FFF7A4F828BB174A1368591C4E
:109724001160164A032111705B78212B18D0FFF7C2
:10973400A9F91AE0124B1B6813F4804F15D0114B92
:109744001B68012B11DD104BD3F8043501920F4A2D
:10975400009240F2A5320E49022006F049FA04E0D4
:10976400FFF7C4FF01E0012802D003B05DF804FB59
:10977400FFF77EF9F9E700BF2C2E00206C4600208D
:10978400A02E00209C2E002000100140384D040023
:10979400F750040000B589B04FF6FF73ADF81E30E2
:1097A400ADF81C3001238DF81430ADF816000DF11E
:1097B4001E0105A80DF042FDE8B907A9BDF8160081
:1097C4000EF010F9E8B9BDF81C0015F06BF8F0B90B
:1097D400BDF81E10BDF81C0015F016F8E8B91B4BB7
:1097E4001B6813F4804F03D0194B1B68032B1ADC3E
:1097F40009B05DF804FB174A40F2973111F068FF95
:10980400DBE7144A4FF4667111F062FFDBE7114A9B
:1098140040F29B3111F05CFFDAE70E4A4FF46771B6
:1098240011F056FFDBE70C4BD3F80435BDF81E20CE
:109834000292BDF81C200192084A009240F29D3227
:109844000749042006F0D4F9D2E700BFA02E002077
:109854009C2E0020A8500400001001407050040009
:10986400F750040030B583B0002837D1224B1B6871
:1098740013F4804F03D0214B1B68032B13DC204BC4
:109884001B8843B31C4B1B6813F4804F03D01B4B42
:109894001B68032B13DC1A4A1388013B1380FFF760
:1098A400F1F803B030BD174BD3F80435164A0092D3
:1098B40040F2CD321549042006F09AF9DFE7114B46
:1098C400D3F80435124A009240F2D1320F490420F1
:1098D40006F08EF9DFE7FFF7CBF8E2E70C46154612
:1098E4000228DED121B129462046FFF709FFD8E737
:1098F400784600F097FBF6E7A02E00209C2E00206F
:109904006846002000100140B44F0400F7500400E2
:10991400E04F040070B5C6B05F4C24682478002C76
:1099240045D15E4C208004305D4C20805D48018030
:109934005D495E48C860032008705D490A605D495E
:109944000B805D4B1B6813F4804F03D05B4B1B688B
:10995400834241DC5A494A9819F08BFF28B159498E
:109964004A9819F086FF00285FD1574B41F2010253
:109974005A80564B4FF480525A804FF6FF73524A26
:109984001380524A13804C4B1B6813F4804F03D04E
:109994004A4B1B68032B6FDC404C2088FFF7FAFE10
:1099A4002088FEF7DFFEFFF76DF846B070BD424B2E
:1099B4001B6813F4804FF8D0404B1B68002BF4DD78
:1099C400434BD3F80435434A009240F2E93242490A
:1099D400012006F00DF9E8E700230F2B0FD8D15C26
:1099E4003E4805680C0958002E5D05AC04F8136068
:1099F40001F00F010130695C21540133EDE705AA40
:109A040000238DF8343003F1804303F58833D3F811
:109A140004350292324A0192324A009240F2F33201
:109A24002D49042006F0E4F894E72F494A9819F0E8
:109A340020FF40B9244B41F203025A80234B41F2E8
:109A440002025A8099E71C4B1B6813F4804F03D021
:109A54001A4B1B68002B03DC784600F0E3FA8CE712
:109A64001B4BD3F80435214A009240F201421A49B3
:109A7400012006F0BDF8EFE7154BD3F80435074A8B
:109A8400128801921A4A009240F2074212490420B5
:109A940006F0AEF880E700BF2C2E002054460020CC
:109AA400A0460020684600206C460020E99602008B
:109AB400904600204E460020A02E00209C2E002020
:109AC400684704008447040050460020884600206C
:109AD40000100140EC4F0400F7500400A42E0020B5
:109AE4002050040028440400A0470400345004001B
:109AF4005450040038B50C46054628B144B1064B11
:109B04001D60064B1C6038BD784600F08BFAF5E703
:109B1400784600F087FAF2E76446002060460020A9
:109B240070B586B02B4B93F90040621E02EB4203E2
:109B34005900294B0B44186804909B88ADF81430E5
:109B440000239C421CDB03EB430041002248415AA2
:109B5400B1F5867F16D1014602EB42025400061984
:109B64005A00D5186800084405680D518088B080F3
:109B740013445A008B1804988850BDF814209A8016
:109B8400002416E00133DCE7144BD3F80435124803
:109B94006200224451004518425AA9780291019268
:109BA4000F4A009240F22C420E49042006F020F89D
:109BB4000134084B93F90030A34209DB0A4B1B68BC
:109BC40013F4804FF4D0094B1B68032BF0DDDBE763
:109BD40006B070BD94460020B44600200010014039
:109BE4003C510400F7500400A02E00209C2E0020BD
:109BF4000023074A92F900209A4208DB03EB430250
:109C04005100044A0A44002191700133F1E770477E
:109C140094460020B4460020002300E00133094AA2
:109C240092F900209A420CDB03EB43025100064AEE
:109C34000A4492888242F1D1034B0B4401229A7068
:109C44007047704794460020B4460020F0B583B0B6
:109C540000258DF80450FFF763FF2C4620E02046D2
:109C640019F036F841EC110B9FED2E0B19F0EAFABE
:109C740051EC100B10EE102A0B4618F0D1FC002208
:109C8400002318F0CDFC06460F46284619F020F8AC
:109C940032463B4618F0C4FC18F0F8FF0546013480
:109CA400224B93F90030A3421DDB04EB44035A001A
:109CB4001F4B13449B78012BD1D1204619F008F88F
:109CC40041EC110B9FED170B19F0BCFA57EC106B1C
:109CD400284618F0FDFF32463B4618F0A1FC18F068
:109CE400D5FF0546DBE7134C002323606360238123
:109CF400114E2A463146204619F0D5FC0B4B93F9F8
:109D040000200132314601A819F0CDFC01A92046FA
:109D140019F0DEFC0949204619F0DAFC012003B0F1
:109D2400F0BD00BF00000000000024409446002065
:109D3400B4460020A84600207C510400302E0020A8
:109D44004FF0A043D3F80425012303FA00F00242A4
:109D54000CBF18460020704731B1012383404FF0F7
:109D6400A042C2F80C357047012383404FF0A04253
:109D7400C2F80835704721B14FF0A043C3F80C0571
:109D840070474FF0A043C3F80805704772B338B565
:109D94001346132900D838BD154A10605B00013BF7
:109DA400144A13604FF0A043D3F80425124B1A60F1
:109DB40000254C0CC8034FF47A72002310F5FA7096
:109DC40044EB050119F0EAFA2A4601460B4818F05B
:109DD40045F90028DFD14FF0A042D2F804350449F8
:109DE400096823EA0103C2F80435D4E7704700BFC9
:109DF400F8460020F44600201C470020FC460020C2
:109E040060DF704769DF704708B503F0D7FD08BD10
:109E140010B588B011F05AF900282BD1224B0793C2
:109E2400079A0692002303930493059303A9012040
:109E3400FFF7E8FF08BB002304930593F82303937B
:109E4400069A03A9A120FFF7DDFFC8B906A8FFF70A
:109E5400D7FF0446069A079B9A4208D0134B1B6807
:109E640013F4804F03D0124B1B68012B0BDCB4B9E5
:109E740008B010BD11F094F9D0E711F091F9DAE7C8
:109E840011F08EF9E2E70B4BD3F8043501920A4A3C
:109E94000092A2220949022005F0AAFEE7E7204623
:109EA40011F07EF9E4E700BFA02D0020A02E0020D1
:109EB4009C2E002000100140D8510400BD51040024
:109EC4000620704700B587B041F2010398424CD098
:109ED40020D944F2010398425DD044F2020398422F
:109EE40074D1464B1B6813F4804F1ED0444B1B683F
:109EF400002B1ADD434BD3F80435108803905268C5
:109F040002920191404A00926C224049012005F0DE
:109F14006FFE0AE0012859D1384B1B6813F4804FB7
:109F240003D0374B1B68002B12DC4FF0A0434FF4D7
:109F3400F012C3F81825C3F80C25EFF3108372B69A
:109F44004DF6AD6C324B1B78002B54D030BFF9E783
:109F54002C4BD3F80435029201912E4A00926022D0
:109F64002A49012005F044FEDFE7244B1B6813F463
:109F7400804FDAD0224B1B68002BD6DD214BD3F85F
:109F8400043502920191244A009263221F49012060
:109F940005F02EFEC9E7194B1B6813F4804FC4D09B
:109FA400174B1B68002BC0DD164BD3F80435106823
:109FB400049050680390029192680192174A0092AB
:109FC40077221249012005F013FEAEE70B4B1B6804
:109FD40013F4804FA9D00A4B1B68002BA5DD094B55
:109FE400D3F8043501910E4A00927B2207490120DF
:109FF40005F0FEFD99E707B05DF804FBA02E0020F4
:10A004009C2E002000100140A45204005152040070
:10A01400322E00206452040080520400C452040012
:10A02400E852040000B583B00023ADF80030054BBE
:10A0340001936A46014644F20200FFF743FF03B06E
:10A044005DF804FB6C430400002309E0064AD25C7B
:10A0540002F5E0724FF0A041542041F82200013390
:10A06400032BF3D9704700BF04530400044B1A5C5C
:10A07400012393404FF0A042C2F80835704700BF57
:10A084000853040010B5002403E02046FFF7EEFF58
:10A094000134032CF9D910BD08B5002309E0074A9F
:10A0A400D25C02F5E0724FF0A041032041F8220097
:10A0B4000133032BF3D9FFF7E5FF08BD0853040070
:10A0C40010B5044610F0010F03D114F0020F03D1B0
:10A0D40010BDFFF7E1FFF8E7FFF7B6FFF8E7000070
:10A0E40030B583B0044615461D4B1B6813F4804FEE
:10A0F40003D01C4B1B68032B11DCA36B04F13C0144
:10A104002046984794F83C302B7094F83D306B709F
:10A11400236C0BB1626C6AB16B6003B030BD124B3F
:10A12400D3F80435114A0092AA221149042005F0FB
:10A134005FFDE2E717F0C6FFA16C17F0C9FF4FF40B
:10A144007A7303FB00F0C20B236C934205D3B0F582
:10A15400004F02D39B1A6B60DFE700236B60DCE7E0
:10A16400A02E00209C2E0020001001405853040013
:10A174004953040010B588B00446436CE3B9036C3A
:10A1840013B190F83D20BAB194F83D2084F83C20F6
:10A194008DF818208DF81920079306A9204618F089
:10A1A400AFF894F84C303BB9636B94F83C102046FC
:10A1B4009847012384F84C300F4B1B6813F4804FED
:10A1C40003D00E4B1B68042B01DC08B010BD0C4BF4
:10A1D400D3F8043594F83C2094F83D10206C049096
:10A1E400606C039002910192064A0092852206490E
:10A1F400052005F0FDFCE8E7A02E00209C2E0020A1
:10A20400001001409C5304004953040030B583B04E
:10A214000446036B186817F03FFF636C3BBB236C69
:10A224001BB3590CD8034FF47A72002310F5FA705B
:10A2340041F1000119F0B2F8B0F1807F2AD204286C
:10A2440031D9236B22460146186817F007FF0546EB
:10A2540017F038FFA06445B11C4B1B6813F4804F02
:10A2640003D01B4B1B68002B25DC03B030BD256BD2
:10A27400590CD8034FF47A72002310F5FA7041F1A7
:10A28400000119F08BF822460146286817F0E6FE13
:10A294000546E0E7236B22466FF07F41186817F00C
:10A2A400DDFE0546D4E7236B22460521186817F026
:10A2B400D5FE0546CCE7074BD3F80435064A009291
:10A2C40068220649012005F093FCCEE7A02E002069
:10A2D4009C2E0020001001407C53040049530400CC
:10A2E400F0B583B0044617461E46089D1A4B1B68FA
:10A2F40013F4804F03D0194B1B68032B1BDC002382
:10A3040084F84C303B7884F83D300EB37368636452
:10A31400336823642046FFF72DFF2046FFF776FFBE
:10A324003DB194F83C302B7094F83D306B70236C45
:10A334006B6003B0F0BD0A4BD3F804351278019278
:10A34400084A0092CC220849042005F051FCD6E7C3
:10A35400002363642364DDE7A02E00209C2E0020EC
:10A3640000100140645304004953040038B5044606
:10A37400436C9BB9056CADB1690CE8034FF47A7278
:10A38400002310F5FA7041F1000119F007F8B0F15B
:10A39400807F0BD3A5F2FF15256403E000234364FB
:10A3A400FFF7E8FE2046FFF731FF38BD00232364A2
:10A3B4002046FFF7DFFEF5E710B582B00446836B55
:10A3C40000F13C01984794F83C3084F83D30002378
:10A3D40063642364236B186817F05EFE94F83C30C2
:10A3E4008DF8003094F83D308DF80130236C0193E2
:10A3F4006946204617F084FF02B010BDA0B110B525
:10A4040004460D4AC262426B8AB1826B8AB117F06C
:10A4140041FF034608B1184610BD084A0021206BCD
:10A4240017F006FE0346F6E70E23184670470E2380
:10A43400F1E70E23EFE700BF7453040071A3020099
:10A4440000B583B0037833B1022B61D0012B63D004
:10A4540003B05DF804FB0DF1070011F023FF304A4F
:10A46400137830489DF80710C154013313702E49F6
:10A4740019F083F900BB2D492A4819F07EF930BB45
:10A484002B49284819F079F960BB2A49254819F065
:10A4940074F9002831D12849224819F06EF90028AE
:10A4A400D6D0264B01221A7000211D4B19701E2292
:10A4B4001C4819F0ABF9CBE7214B01221A7000219B
:10A4C400174B19701E22174819F0A0F9C0E71D4B4D
:10A4D40001221A700021124B19701E22114819F022
:10A4E40095F9B5E7184B01221A7000210C4B19702D
:10A4F4001E220C4819F08AF9AAE7144B01221A709B
:10A504000021074B19701E22064819F07FF99FE7B6
:10A51400406810F045FE9BE7406810F041FE97E765
:10A5240025470020284700204C2E0020342E0020F0
:10A534003C2E0020482E0020402E002021470020E1
:10A5440023470020244700202047002022470020E2
:10A5540030B58BB004AC0D4D0FCD0FC495E803009E
:10A5640084E803000A4B00934FF480730193094A73
:10A57400029203930F23084A694604A811F02CFEA3
:10A5840008B90BB030BD10F00BFEFAE7DC53040041
:10A59400484700204848002045A4020070B50546FD
:10A5A40019F08EF90646002400E00134F3B2A34208
:10A5B40005DD285D11F096FE0028FAD1F5E770BD9F
:10A5C40030B4044612F0030012D14B1CDB009BB2E2
:10A5D400084D2A601A44084B1A600023074A137076
:10A5E400074A1370074B1C80074B198030BC704717
:10A5F4000720FBE7504900204C490020484900202F
:10A604005849002054490020564900202C4B1B88EF
:10A614008B4201D2092070472DE9F04182B01646E1
:10A624000C46074600238DF807300DF1070010F0A3
:10A634008BFC244B1A78D2B2234B1B78DBB298B232
:10A6440022490988884224D20133DBB29A4224D0B9
:10A654001D4B1D781B78DBB29AB291421BD9013392
:10A66400DBB2194A13709DF8070010F099FC4FF6FD
:10A67400FF739D4222D0164B1B6803EBC50843F8B9
:10A68400356007B164B90020A8F8040002B0BDE841
:10A69400F0810023DAE70023E3E74FF6FF75E2E7F2
:10A6A4000C4B1B68064A10882246394605FB0030CD
:10A6B40019F083F8A8F804400020E7E70420E5E750
:10A6C4005449002058490020484900205649002098
:10A6D400504900204C49002038B502E00023134AB9
:10A6E4001370124B1A78D2B2114B1B78DBB29A4218
:10A6F4001AD00E4C2378DBB20E4A10680E4A158825
:10A704000E4A126802EBC30152F83320898803FB16
:10A71400050090472378DBB299B2094A1288914226
:10A72400DCD20133DBB2DAE738BD00BF5849002080
:10A73400484900204C490020544900205049002039
:10A744005649002010B40346044C006859689A68BE
:10A75400DB680FC45DF8044B704700BF5C49002000
:10A764000B4B0C4A92E8030083E8030003F1080250
:10A77400094903C982E80300DA79042161F3071265
:10A78400DA711A7A022161F387121A72704700BFD4
:10A794005C49002060000010A400001000487047CD
:10A7A4005C49002000231F2B09D8074901EBC30093
:10A7B40000224280426001F833200133F3E7034B67
:10A7C40000221A60704700BF6C4900206C4A0020C8
:10A7D40030B405460F4B1B6800240AE01F230E4AC1
:10A7E40012F83300A0B102EBC3025288AA4207D088
:10A7F40001341F2C0BD85A1E002BEFD01346EEE762
:10A80400054A02EBC30252688A42F1D100E00020FB
:10A8140030BC70476C4A00206C49002030B40A4AAE
:10A8240013680A4C04EBC30568806960012104F8CD
:10A8340033100B441360202B01D030BC70471346F7
:10A8440000221A60F9E700BF6C4A00206C4900201E
:10A85400C0F30C038B4204D2C91A0144A1F5005081
:10A864007047C91A08447047C37D002B42D08378CF
:10A874000A7802F0800203F07F0313430B7002781E
:10A884000B7803F07F0343EAC2130B700378002BA9
:10A8940041D030B44378082B14BF002201224B78F6
:10A8A40003F07F0343EAC2134B70858803F08003EF
:10A8B400C5F3861423434B708A7802F0030242EAFC
:10A8C4008502D2B28A70857902F0FC02C5F3C10414
:10A8D40022438A70CB7803F01F0343EA4513DBB2AB
:10A8E400CB70C27903F0E00302F01F021343CB7074
:10A8F40030BC704783780A7802F0BF029B0103F0F2
:10A90400400313430B70C27803F0C00302F03F020C
:10A9140013430B70B3E770470023032B22D810B402
:10A9240002E00133032B19D8C3EBC30214010E4A0E
:10A93400224492F84820012AF3D10B4A2244948AF3
:10A94400C2899442EDD1C3EBC3021401064A2244E6
:10A9540092888A42E5D10448204400E000205DF852
:10A96400044B704700207047DC4A0020002300E0BD
:10A974000133032B14D8C3EBC3021101094A0A445F
:10A9840092F84820022AF3D1064A0A44918A828A1C
:10A994009142EDD1C3EBC3031A010248104470473E
:10A9A40000207047DC4A002008B9042070470820C2
:10A9B4007047000038B505460C46CB695B78C37018
:10A9C400CB691B7883F001038370CB694362087BF6
:10A9D400022814D0FFF7E8FF6870E27A32B9A18A3E
:10A9E400C0F10F03994201DC082833D0A18A034641
:10A9F400C0F10F00814207DC52B3012205E0164B7F
:10AA0400987DFFF7D1FFE7E701222A7062B1A28A9D
:10AA140013440B33114A82FB0312DB17C3EB6203AB
:10AA2400013BEB710023AB710023EB7505F10C02C4
:10AA340094E8030082E80300A2692A622289AA82B8
:10AA4400A27AAA75226AAA6285F82C30184638BD03
:10AA54000022DAE70720FAE7C44A0020ABAAAA2AB0
:10AA640030B403460C460978817000214162A16824
:10AA74000B2903D8217B09B3012100E001211970BE
:10AA84000020587029B1A1680731C9080139D9716A
:10AA940098710121D97503F10C0504F1100103C962
:10AAA40085E80300E1899982A1691962217F99757A
:10AAB400617F83F82C109A6230BC70470021DEE776
:10AAC4000021174B1B688B4227D90023154A02EB40
:10AAD400C10252689A421ED910B40FE060685DF852
:10AAE400044B704701310E4B1B688B4211D9002374
:10AAF4000C4A02EBC10252689A42F3D9094A52F84D
:10AB0400312002EBC30412F833208242E6D0013331
:10AB1400EEE70020E3E70131D3E70020704700BFF0
:10AB2400704A0020744A002070B58CB006460D4669
:10AB340014462C22002101A818F068FE0F238DF87A
:10AB44000430ADF808604FF0000365F300038DF89E
:10AB54000A308DF80B4001A801F0E6F80CB070BD86
:10AB640030B58DB005460C462C22002101A818F002
:10AB74004DFE10238DF8043002958DF80C4001A889
:10AB840001F0D2F80DB030BD00B58DB010B913F19D
:10AB9400020F06D1074B186803F0F0FF0DB05DF803
:10ABA40004FB01228DF80420029301A801F0BCF8F3
:10ABB400F0E700BF7C4A00202DE9F04105468846B5
:10ABC4000378BBB10D4B1C68621C1A6004F00704C7
:10ABD400AB8A0B4F07EBC4067380A988A869FFF7FB
:10ABE40037FE7060EB6903F00103737007F834807B
:10ABF400BDE8F0817846FFF715FAE3E7C04A002084
:10AC0400804A002070B5064603784BB1B58A347F7C
:10AC140004F00104B188B069FFF71AFE002304E0D0
:10AC24007846FFF7FFF9F1E70133072B15D80C4AF3
:10AC340002EBC30252688242F6D1094A02EBC30214
:10AC44005288AA42F0D1064A02EBC3025278A242C9
:10AC5400EAD1034800EBC30000E0002070BD00BF50
:10AC6400804A0020F8B515461C460E684A68D1F89B
:10AC740008C0CF68E6602261C4F814C0A7610E69F9
:10AC84004A69E66122620378DB092370E27D2AB314
:10AC9400027802F07F02A270002262709BB14378B6
:10ACA4009B0103F4FE53827843EA9203A3808378E2
:10ACB400DB0003F01803C27843EA5213A371C3788C
:10ACC40003F01F03E371002363622B78052B1AD86A
:10ACD4002B780F4AD35C84F82C30F8BD0278C2F389
:10ACE4008012A270027802F03F02E27043B190F940
:10ACF4000120002A02DB04226270CFE70822FBE76E
:10AD040004226270CAE77846FFF78CF9E0E700BFD7
:10AD1400F453040070B50C461E460378B3B1042501
:10AD24002A44A26000F10C032360836A636090F8F4
:10AD34002C30237300236373204604F083FA034604
:10AD440010B9226915443560184670BD0125E7E73E
:10AD54002DE9F0418EB00D4616461C46804600286B
:10AD64002DD0002D2FD0002C31D0636A02330593EF
:10AD740004F10C00A378002B2DD00121627801AFDF
:10AD84003B46082A14BF0022012204F03CF806972F
:10AD9400CDF81C80B2B2ADF820200B9515440C956B
:10ADA40063788DF83430237B022B16D00023ADF862
:10ADB400283005A804F01FF80EB0BDE8F0817846ED
:10ADC400FFF730F9CDE77846FFF72CF9CBE7784663
:10ADD400FFF728F9C9E70221D0E723692BB12369DA
:10ADE40009931023ADF82830E3E77846FFF71AF902
:10ADF400F5E72DE9F04186B004460D46C37D002BEE
:10AE04003CD0082605FB06F8E379AB4238D0A5719F
:10AE14006B46324601A92046FFF77CFF074648BB34
:10AE24004DB994F8533033B9A369C3F30C03A38029
:10AE3400012384F85330E37D7BB994F8523063B92D
:10AE44001DBBB4F84A10627823468A1AE16E08469C
:10AE5400FFF77EFF012384F8523005992046FFF75F
:10AE640003FDE16E32464144009818F0A6FC01A8A7
:10AE740004F007FA384606B0BDE8F0810C26C1E7B5
:10AE8400B4F84A60A6EB0806C1E77846FFF7CAF8AB
:10AE9400D7E770B505460E4609B100230B6095F857
:10AEA4005040002104E0631C85F850300134E4B2C2
:10AEB400EB79A34210D3EA6C0123A3401A42F5D1E3
:10AEC40021462846FFF795FF014628B9002EEAD00F
:10AED400336801333360E6E7084670BDF0B587B0E8
:10AEE40045781544C37D7BB10B239D4224D8164677
:10AEF4000F4604466B462A4601A9FFF70BFF054699
:10AF040020B1284607B0F0BD0F23EEE7059920468F
:10AF1400FFF7AAFCE37D43B132463946009818F0A6
:10AF24004CFC01A804F0ADF9EBE723463246009946
:10AF34003846FFF70DFFF4E70925E2E710B50446AC
:10AF440090F84830012B0CD103F014F8237B012B2B
:10AF54000BD0094BD968014404F1300002F0D2FF50
:10AF640010BD7846FFF75EF8EEE7A37D024AD1688C
:10AF7400126902FB0311EEE7C44A002030B583B026
:10AF8400002403E02846FFF7D9FF0134032C19D825
:10AF9400C4EBC4031A010C4B134493F84830012B3F
:10AFA400F3D100230193C4EBC4021301064D1D44E5
:10AFB40001A92846FFF76DFF0428E3D0019B002B6D
:10AFC400E3D0DFE703B030BDDC4A002038B50446E7
:10AFD40090F84830022B09D1064B1D6802F0CAFFD5
:10AFE400411904F1300002F08DFF38BD7846FFF7B7
:10AFF40019F8F1E7C44A002038B5044690F84830FF
:10B00400022B10D10A4B5D7D5A689B6803FB052512
:10B0140002F0B0FF411904F1500002F073FF012364
:10B0240084F8683038BD7846FEF7FCFFEAE700BFD5
:10B03400C44A002038B50446C06E07F0FCFD04F194
:10B044003005284602F07BFF70B994F84830022B93
:10B054000ED070220021204618F0D8FB002084F87E
:10B06400480002F013F838BD284602F033FFECE73D
:10B0740004F15005284602F062FF0028E9D0284672
:10B0840002F028FFE5E710B504460121FFF794FD1F
:10B094002046FFF7CFFF10BD10B58CB0044690F8E2
:10B0A4004830012B0CD101238DF80430636D0293D9
:10B0B40001A800F039FE2046FFF7BCFF0CB010BD1C
:10B0C4007846FEF7AFFFEEE730B585B00D4604468F
:10B0D400A8B100212046FFF76FFD2946606DFFF7F8
:10B0E4003FFD2046FFF7A6FF0F4B1B6813F0040F2C
:10B0F40003D00E4B1B68032B05DC05B030BD78462E
:10B10400FEF790FFE5E70A4BD3F8043594F848209E
:10B1140002950192074A009240F2EF120649042078
:10B1240004F066FDE9E700BFA02E00209C2E00205D
:10B1340000100140405404003354040008B508468C
:10B144000021FFF7C1FF08BD08B5037B012B02D026
:10B15400FFF7A2FF08BD0121FFF7B6FFFAE70000E1
:10B1640008B590F8513053B1013B80F851300023B9
:10B1740080F85030034B186803F000FD08BDFFF75A
:10B18400E3FFFBE77C4A002010B50C4691F84830F9
:10B19400012B03D12046FFF7E3FF10BD7846FEF7ED
:10B1A40041FFF7E7062951D170B582B00346017813
:10B1B400890101F4FE5140789D78DC78240444EA46
:10B1C40005641D7944EA05245B791C4341EA900136
:10B1D4001046FFF7A1FB0546B8B1C66C2643C6640A
:10B1E40044B3037853B3EB795A1C01239340013BD6
:10B1F4009E4227D0002185F850102846FFF749FECB
:10B204002846FFF79BFE02B070BD114B1B6813F07C
:10B21400040FF8D00F4B1B68012BF4DD0E4BD3F851
:10B2240004350E4A009240F2A7520D49022004F060
:10B23400DFFCE8E70321FFF747FFE4E77846FEF782
:10B24400F1FED0E72846FFF727FFDCE7704700BF91
:10B25400A02E00209C2E0020001001406454040005
:10B26400335404002DE9F04389B080460F46144658
:10B274001E46957825B9FFF795FF09B0BDE8F08320
:10B284002846FFF71DFC81460028F6D08DF80050B3
:10B29400236A0693A38AADF80E3004AB04F10C02C2
:10B2A40092E8030083E80300A37D8DF81C30CDF8F9
:10B2B4000480029723788DF80C3094F82C308DF8A4
:10B2C4001D3031466846C847D7E700002DE9F047EE
:10B2D40006460F4690464B1EDBB2012B0FD8B8F53D
:10B2E400C07F10D80024032C1AD8C4EBC4031A015D
:10B2F400314B134493F848304BB10134F3E77846AB
:10B30400FEF790FEEBE77846FEF78CFEEAE7DFF8FF
:10B31400A8A015465544404607F089FCE86600E0BD
:10B32400002585B3EB6E002B44D033462A4606F144
:10B33400300ED3F800C05C689868D968C2F800C0C1
:10B3440054609060D160103310327345F1D1002302
:10B35400EB64A5F84A80B188B069FFF779FAA8616F
:10B36400012F13D06FF00103AB62002385F868301E
:10B37400124BAB652D66124BAB632D64012001F0BB
:10B3840085FE85F848702846BDE8F0870D4B1B7D87
:10B3940085F85130002385F8523085F8533085F80C
:10B3A4005030B36A6B656FF00103AB62064BAB635D
:10B3B4002D64E3E71D46E6E7DC4A002071BC020089
:10B3C40041B10200C44A00208DB10200F0B5C7B0FB
:10B3D40046781644C37D2BB14FF48073B3427ED3B9
:10B3E400002303E04FF4C073F8E70133032B19D8AB
:10B3F400C3EBC30425013C4C2C4494F84840012C75
:10B40400F3D1394C2C44A58A848AA542EDD1C3EBEF
:10B41400C3042501344C2C44E589C489A542E4D1F4
:10B42400082455E014460F4632460121FFF74EFF2B
:10B434000546002855D022463946C06E18F0BDF99D
:10B444000023459345A92846FFF723FD044608B188
:10B45400042840D1459B7BB9244B1B6813F0040F8F
:10B4640035D0234B1B68032B31DDB5F84A70802F90
:10B4740028BF8027002313E02846FFF75FFDEBE792
:10B48400EA6ED25C1B490C6810095900265C04A8BA
:10B4940000F8136002F00F020131A25C4254013340
:10B4A400BB42EDD304AA002302F8173003F1804312
:10B4B40003F58833D3F8043502920F4A01920F4AF8
:10B4C400009240F2D1420E49042004F091FB002482
:10B4D400204647B0F0BD2846FFF7ACFDF8E7092445
:10B4E400F6E70424F4E700BFDC4A0020A02E002085
:10B4F4009C2E0020A42E0020945404002844040010
:10B504003354040000B585B000238DF80F3098B192
:10B514000346084602330B600DF10F0103F06FFC84
:10B524009DF80F3043B10D4B1B6813F0040F03D08B
:10B534000B4B1B68032B04DC9DF80F0005B05DF872
:10B5440004FB084BD3F80435074A009240F2A632B4
:10B554000649042004F04CFBEEE700BFA02E0020B7
:10B564009C2E002000100140A45404003354040015
:10B574002DE9F0438FB004460E4615461F46D0F819
:10B584001890037823B181884846FFF761F9A061D8
:10B5940004F10C00A378002B3AD0012162780DF15C
:10B5A40028084346082A14BF0022012203F02BFC7A
:10B5B400C4F81890CDF8088003966378EA1A92B21A
:10B5C400ADF810203244089207978DF824300023F8
:10B5D400ADF81830237B022B1CD0A3786BB3237BEC
:10B5E400022B1BD02546002345F8243F2A46E17848
:10B5F400206A0CF03FFC606A98B101A9FFF782FF52
:10B6040000283AD12A46E178206A0CF033FCF2E7AC
:10B614000221C3E71023ADF81830DEE72369059350
:10B62400E0E7237B022B2CD104F10C01E0890CF020
:10B63400CFFC0028D3D1052020E000236362237BC4
:10B64400012B0DD02146002341F8243FA08A0CF0A1
:10B654002EFC01A9606AFFF755FFA0B905200DE093
:10B6640004F12401E0890CF022FC01A9606AFFF7CF
:10B6740049FF0028E6D0002000E000200FB0BDE81C
:10B68400F0830520FAE70020F8E7000070B5F0B079
:10B694000D4614461E4610AB0A4601462046FFF7E7
:10B6A40067FFA0B11F4B1B6813F0040F37D01E4B6C
:10B6B4001B68052B33DD1D4BD3F804351C4A00925F
:10B6C40040F219621B49062004F092FA27E003AB0A
:10B6D40001228DF80C20A28AADF80E2000220492DB
:10B6E4008DF8142010AA06926278AD1AADF81C5099
:10B6F40008AA93E8030082E803000AAB04F10C02F1
:10B7040092E8030083E80300A37D8DF83830236AB0
:10B714000C93636A0D930F9605A800F005FB70B0B7
:10B7240070BD00BFA02E00209C2E00200010014000
:10B73400DC5404003354040010B5D47D14B1FFF775
:10B7440091FD10BDFFF7A2FFFBE770B504460D465F
:10B754001646808A01F09EFF01281AD1237BD3B1BB
:10B76400022B0BD094F91630002B16DB237853B13F
:10B77400324629462046FFF729FE0BE02369002BB9
:10B78400F0D1102006E0324629462046FFF7A6FBFA
:10B7940000E0102070BD1020FCE70720FAE700004D
:10B7A40010B54FF4E0720021134818F02FF805F09B
:10B7B4007FFC0024114B1C6040222146104818F0E5
:10B7C40025F8104B104A1A60104A5A604CF2503255
:10B7D4009A600F49D9601A6104221A759C7508226F
:10B7E4005A750C4803F0AAF90B4B18600B4B1C60FC
:10B7F4000B4805F05FFD10BDDC4A0020C04A002064
:10B80400804A0020C44A002080969800F049020033
:10B8140020A10700C5B902007C4A0020704A00201C
:10B824008DAB020008B505F0BBFB08BDC0B110B577
:10B834008CB004460369B3B1C369B3B18369B3B1CE
:10B8440001466846FFF7B6F8034610B118460CB037
:10B8540010BDA28A21696846FFF777FF0346F5E722
:10B864000E23184670470E23F0E70E23EEE70E234F
:10B87400ECE7D0B110B58CB004464268BAB1826925
:10B88400BAB1027C022A16D0BAB190F90020002A7B
:10B8940015DB0A4601466846FFF7E2F8A2686168CC
:10B8A4006846FFF752FF0CB010BD0E2070470E2003
:10B8B400F9E70E20F7E71020F5E71020F3E707205B
:10B8C400F1E70000037B012B01D00020704730B565
:10B8D4008DB001AC00230293CDF80B308288C2F303
:10B8E40086158DF8045092008DF805200A0E8DF807
:10B8F40006200A0C8DF807200A0A8DF808208DF816
:10B9040009100622069201228DF82020828AADF8C1
:10B91400222009938DF810300594026A0A928DF85A
:10B924001C30C389ADF81E3090F82C308DF82D30C2
:10B93400837D43B98DF82C306FF0010104A8FFF723
:10B9440098FF0DB030BD024B5B7D8DF82C30F3E7D2
:10B95400C44A002038B590F84830022B00D038BDD6
:10B9640090F86830022BFAD10446C16CFFF7AAFFA5
:10B974000028F4D1002384F86830E56C237853B1AF
:10B98400E3795A1C01239340013B9D42E7D12046B1
:10B99400FFF779FBE3E77846FEF744FBF0E70000A6
:10B9A40010B5002407E0C4EBC40213010348184493
:10B9B400FFF7D0FF0134032CF5D910BDDC4A002079
:10B9C40008B5FFF7DBFAFFF7EBFF012008BD000025
:10B9D4002DE9F04182B007460E46144698461046BB
:10B9E400FEF7C4FF054620B1A28883889A4210D38B
:10B9F40012D82046FFF706F9B8B103784BB1237883
:10BA04007BB1E1794B1C0121994001392046FFF7B4
:10BA140059FF02B0BDE8F0810521FFF755FB002571
:10BA2400E7E77846FEF7FEFAEBE7002D56D05F4BCA
:10BA34001B6813F0040F04D05D4B1B68032B00F349
:10BA440085802846FFF7C2FA2B7B012B00F08C80FF
:10BA5400EA6CA17901238B401A42DAD11343EB64D7
:10BA6400A279EB799A4200F08880E37D002B00F004
:10BA74008F800823B34240F08D80EB6EA079E27D85
:10BA8400002A00F08C8008243246394604FB00303A
:10BA940017F093FEEC6C2B78002B00F08280EB798E
:10BAA4005A1C01239340013B9C42B2D1022385F8E6
:10BAB4006830E96C2846FFF705FF044643462A46EA
:10BAC400B5F84A10E86EFFF737FE002CA1D1002329
