:020000022000DC
:1060000000FD0320C1840300E9840300EB84030046
:10601000ED840300EF840300F1840300000000001E
:10602000000000000000000000000000F3840300F6
:10603000F584030000000000F7840300F9840300E6
:10604000FB840300FB84030071EC0200FB8403006B
:10605000FB840300FB840300E9660200FB84030069
:10606000FB840300FB840300296F0300FB8403000F
:10607000FB840300FB840300FB840300FB84030018
:10608000FB840300E97D030055410300FB8403000A
:10609000B97E0300FB840300B16B0200FB840300A4
:1060A000FB840300FB840300FB840300FB840300E8
:1060B000FB840300FB8403000000000000000000DC
:1060C000FB840300FB840300FB840300FB840300C8
:1060D000FB840300FB840300FB840300FB840300B8
:1060E000FB840300FB840300FB840300000000002A
:1060F00000000000FB84030000000000FB8403009C
:10610000000000000000000000000000000000008F
:10611000000000000000000000000000000000007F
:10612000000000000000000000000000000000006F
:10613000000000000000000000000000000000005F
:10614000000000000000000000000000000000004F
:10615000000000000000000000000000000000003F
:10616000000000000000000000000000000000002F
:10617000000000000000000000000000000000001F
:10618000000000000000000000000000000000000F
:1061900000000000000000000000000000000000FF
:1061A00000000000000000000000000000000000EF
:1061B00000000000000000000000000000000000DF
:1061C00000000000000000000000000000000000CF
:1061D00000000000000000000000000000000000BF
:1061E00000000000000000000000000000000000AF
:1061F000000000000000000000000000000000009F
:1062000010B5054C237833B9044B13B10448AFF3F0
:1062100000800123237010BD582E002000000000D4
:10622000C0B003000C4B43B10C480D4910B5AFF39F
:1062300000800C48036823B910BD0A48036833B9CD
:106240007047094B002BF7D0BDE810401847064BAC
:10625000002BF5D0184700BF00000000C0B00300BD
:106260005C2E0020542E002000000000154B002B57
:1062700008BF134B9D46A3F5803A00218B460F467D
:106280001348144A121A13F0D9FC0F4B002B00D0FC
:1062900098470E4B002B00D09847002000210400A7
:1062A0000D000D48002802D00C48AFF3008013F019
:1062B00077FC2000290000F015F813F05DFC00BF0A
:1062C0000000080000FD03200000000000000000A6
:1062D000582E0020F85C00200000000000000000A4
:1062E00041DF704700B5884C884A8DB004214EF2DA
:1062F00007000EF087FD23685B0418D5844B1B68EC
:10630000032B14DD2F21834813F06CFD002800F0CF
:10631000CD802F217F4813F065FD411C7E4B7F4AC5
:10632000D3F80435009204204D220EF085FD11F0C3
:1063300011FF18B1774A4F2112F0EDF800F0A8F9DB
:1063400000F096FA0021242203A813F077FC012321
:106350008DF80C3007238DF80F307149062303A800
:106360008DF8143000F000F918B16A4A3D2112F09E
:10637000D2F82368580418D5654B1B68032B14DD2D
:106380002F21644813F02EFD002800F098802F2163
:10639000604813F027FD411C5F4B624AD3F8043577
:1063A000009204203F220EF047FD012001F026FE5E
:1063B00018B1584A402112F0AEF82368590417D595
:1063C000534B1B68032B13DD2F21524813F00AFD9A
:1063D00000287DD02F214F4813F004FD411C4E4B67
:1063E000514AD3F804350092042042220EF024FDD5
:1063F00000200AF0DBFA18B1464A432112F08BF86C
:1064000023685A0417D5424B1B68032B13DD2F2139
:10641000404813F0E7FC002863D02F213D4813F0DB
:10642000E1FC411C3C4B414AD3F804350092042066
:1064300056220EF001FD0AF0D4FA18B1354A5B215C
:1064400012F069F80AF02AFC00F07EF900F072F808
:1064500018B1304A5F2112F05EF823685B0417D54B
:106460002B4B1B68032B13DD2F212A4813F0BAFC9A
:1064700000283FD02F21274813F0B4FC411C264BA5
:106480002B4AD3F804350092042061220EF0D4FC8C
:1064900000214FF4F03000F0BDF80222C8214FF483
:1064A000F03000F0C1F8FFF71BFFFCE75C21194852
:1064B00013F098FC08B15C212CE716492EE75C210B
:1064C000144813F08FFC08B15C2161E7114963E7C0
:1064D0005C21104813F086FC08B15C217BE70D4974
:1064E0007DE75C210B4813F07DFC08B15C2195E74A
:1064F000084997E75C21074813F074FC08B15C2158
:10650000B9E70449BBE700BFC82D0020D94D0300FF
:10651000C42D0020649E030000100140829E0300F1
:10652000742E0020BB9E0300D89E0300FA9E030039
:10653000149F03000CF008BD08B50FF08FFE03F0A8
:1065400022FC04F079FDBDE808400CF053B807B513
:1065500001A804F0FFFDBDF80400003018BF0120C1
:1065600003B05DF804FB000073B50E46054648B362
:106570000CF086FC044610BB04F0AAFD03F00AFCF4
:10658000286908F0A9F80446C8B92B7F0193AB69C4
:10659000009301466B690C484FF6FF7208F0BCFA95
:1065A000044660B92B6A03B198470FF0D5FD04F09B
:1065B00041FD03F0ACFAFFF7CAFF06B13070204688
:1065C00002B070BD0E24FAE7782E002038B50D4CCD
:1065D000206808B911F092FF4FF0A0450A4AD5F89B
:1065E000043512685340C5F804352368013B236025
:1065F00033B9064811F062FE054B1B68C5F8043537
:1066000038BD00BFD42E0020D82E0020DC2E002064
:10661000042F00204FF0A04311B1C3F80C057047C0
:10662000C3F8080570470000F8B542B3132926D90E
:10663000134B144D5200013A4FF0A0441A602860E9
:10664000114BD4F804251A604FF400404FF4FA7649
:106650000027E0FB01674FF47A7200233046394689
:1066600013F002F900220146084811F0E1FD30B9AB
:10667000D4F804352A6823EA0203C4F80435F8BDC7
:10668000D42E0020D82E0020042F0020DC2E002045
:1066900008B54FF0A04303224FF40051C3F834274C
:1066A000C3F808154FF48041C3F83827C3F808151C
:1066B0004FF40041C3F83C27C3F80815C3F840273E
:1066C0004FF48032C3F808250121054A054811F02E
:1066D0009DFD18B1BDE8084011F010BF08BD00BF16
:1066E000CD6502004C9F0300124B70B50024124E82
:1066F000124DC3F87C414FF0A043A15DD3F81025A3
:1067000001238B40934311D00D49D5F804250B6824
:10671000981A48BFD01A43F23333984206D9D5F8B5
:1067200004350B60074B20461B6898470134042C46
:10673000E1D170BD00600040509F03000010014097
:10674000002F0020FC2E002070B50446CEB000289B
:1067500064D03C4D2A6852042FD53B4B1B68032B59
:106760002BDD3A4B0DAE19680023E25C100902F0F4
:106770000F02085C06F81300885C06EB4302013345
:10678000102B5070F1D100232F21314886F8203092
:1067900013F028FB002843D02F212D4813F022FBB3
:1067A000411C2C4B2C4AD3F8043501922B4A009201
:1067B0000296412204200EF03FFB2B685B042DD58E
:1067C000214B1B68032B29DD2F21214813F00AFBE5
:1067D00000282ED02F211E4813F004FB411C1D4B16
:1067E000E27BD3F804350B92A27B0A92627B09927A
:1067F000227B0892E27A0792A27A0692627A059246
:10680000227A0492E2880392A2880292226801927C
:10681000134A0092042046220EF00EFB4EB070BDCB
:106820005C210B4813F0DEFA08B15C21B5E708499A
:10683000B7E75C21064813F0D5FA08B15C21CAE736
:106840000349CCE7C82D0020C42D0020CC2D00200A
:10685000549F0300001001407C9F03008E9F0300A3
:10686000969F030060DF704769DF70470CF0DCBB68
:1068700010B588B000F04CF908B111F03FFE2B4B79
:106880000393039B04930C22002105A813F0D6F96F
:106890000023049A8DF8143005A90120FFF7E4FFC6
:1068A00008B111F02BFE0C22002105A813F0C6F947
:1068B000F823049A059305A9A120FFF7D5FF08B195
:1068C00011F01CFE04A8FFF7CDFF039B049A9A4227
:1068D00004461CD0164B1B685B0418D5154B1B686F
:1068E000012B14DD2F21144813F07CFAA8B12F21BD
:1068F000114813F077FA411C104B049AD3F8043571
:1069000001920F4A00920220A2220EF095FA14B1D1
:10691000204611F0F3FD08B010BD5C21064813F0CD
:1069200061FA08B15C21E3E70349E5E7A02D002007
:10693000C82D0020C42D0020D69F03000010014068
:1069400006A0030070B5EFF3108672B60C4A946887
:1069500001239CB993600B4B0B4DD3F88010294059
:106960001160C3F88050D3F8841051604FF0FF32AB
:10697000C3F88420047006B962B670BD0370FAE7EC
:106980004C5C002000E100E0FC06FFBD10B5084BA8
:106990009A685AB150B9EFF3108272B605491C6873
:1069A0000C605C684C60986002B962B610BD00BFB4
:1069B0004C5C002000E100E001600B6843604A6825
:1069C000934204BF002343607047436843B10268A9
:1069D00091680B4443605268934204BF00234360B4
:1069E00070474BDF704700001FB50D4C01A8FFF743
:1069F000F8FF70B9214602A8FFF7DEFF039B002BCA
:106A0000F4D001981A685968904702A8FFF7DDFF93
:106A1000F4E7052801D011F071FD04B010BD00BFEE
:106A200040A0030061DF704730B5114B1B7891B077
:106A3000E3B1104D34240DF1020103A8ADF802407A
:106A4000FFF7F0FF70B9294601A8FFF7B5FF029BD9
:106A5000002BF0D003A81A685968904701A8FFF7E7
:106A6000B4FFF4E7052801D011F048FD11B030BDA6
:106A7000082F00204CA0030010DF704713B5044618
:106A800009496846FFF798FF019808B902B010BDA0
:106A9000036841682046984718B16846FFF795FF9C
:106AA000F2E71120F2E700BF5CA0030013B5044633
:106AB00007496846FFF780FF019B0BB902B010BD84
:106AC00020461A68596890476846FFF77EFFF3E74B
:106AD00074A003000C4991F816335A09EC231341B2
:106AE000DB0708D442F2020011F008BD1A6842F434
:106AF00080021A607047054B9A68002AF6D14FF45D
:106B000080030B60704700BF00E100E04C5C002098
:106B1000F7B5184F3C785CBB174E01252046357001
:106B2000FFF7ACFF112820D02046FFF7BFFF134B23
:106B30001868019002A800F8054DFFF703FF1049FF
:106B400001A8FFF799FF0446B0FA80F040093870B9
:106B50009DF80300FFF71AFF3CB90A4B34701C7014
:106B6000FFF7B8FF2846FFF7A1FF204603B0F0BDAE
:106B70000824FAE70A2F0020092F002058A003005C
:106B8000250A03000B2F002007B508496846FFF7C8
:106B900013FF019B13B903B05DF804FB58681A6832
:106BA00090476846FFF711FFF3E700BF68A00300B6
:106BB000FFF7EABF00B5036993F80B2189B05AB11A
:106BC000002283F80B21022201938DF800208DF81A
:106BD0000810DB686846984709B05DF804FB10B5FB
:106BE000046994F80B31012B88B010D18DF8003076
:106BF00068460194E368984704F1F50294F831116E
:106C0000A06800F023FF20B9032384F80B3108B0FB
:106C100010BDA068836802211B699847F7E71FB57C
:106C2000044600F1D50100F1A5036A4601F074F8AD
:106C30006946A06800F05BFF10B90F2384F80B31A0
:106C400004B010BD30B590F80C3189B00446032B68
:106C50003BD8DFE803F0312B1D0200F1C5052946C2
:106C600001F02BF905238DF8003094F806318DF8EA
:106C7000093094F807318DF80830019403951023FA
:106C800084F80B316846E3689847002009B030BDAE
:106C900006238DF8003090F806318DF8093090F811
:106CA00007318DF8083001900B23E9E707238DF8B1
:106CB000003001900C23E3E710220021C53012F0D0
:106CC000BDFF2046FFF7ABFFE0E70320DEE710B58E
:106CD00088B0044601F0A8F988B10A2384F80B3182
:106CE0000B238DF800306369039304F118030293BA
:106CF00068460194E3689847002008B010BD04F18D
:106D00005801204601F0BEF80028F6D12046FFF7D2
:106D100099FFF2E710B5046994F80B31062B88B09F
:106D20001DD194F808315BB108238DF80030092398
:106D300084F80B310194E3686846984708B010BDA9
:106D40002169A06800F0B5FE18B9082384F80B315A
:106D5000F4E7A068836802211B699847EEE7072BD8
:106D6000ECD12046FFF7B3FFE8E70000F0B50D4691
:106D7000A3B004691146284600F05AFE20B9A06865
:106D8000836802211B6902E12B78013B082BF6D8AE
:106D900001A252F823F000BFBD6D02007F6D02001A
:106DA0002D6E02004D6E02005D6E0200896E0200C3
:106DB0007F6D0200636F0200936F020094F80B3145
:106DC000032B31D10B22691C04F1F60012F02BFFCA
:106DD000042384F80B3109238DF864306B788DF827
:106DE0006C301A946A88130A43EA0223ADF86D30B6
:106DF0002B798DF86F306B798DF87030AB798DF819
:106E00007130B5F80720130A43EA0223ADF8723057
:106E10006B7A8DF874306A89130A43EA0223ADF85D
:106E20007530E36819A8984723B0F0BD94F80B318A
:106E3000082BF9D14022691C04F1180012F0F3FE6E
:106E40002046FFF744FF0028EED098E794F80B3176
:106E5000102BE9D12046FFF7E2FEF4E794F80B315E
:106E60000F2BE1D1691C102204F1E50012F0DBFECA
:106E700004F1A501A06800F04DFE00287FF47FAF6B
:106E8000112384F80B31CFE794F80B31112BCBD1C0
:106E90001022691C04F1B50012F0C5FE204601F075
:106EA00051F800283FF46BAF01AD05AE04F1780353
:106EB0002A463146204609AF00F08EFF07231022F4
:106EC00004F58C7138468DF8403012F0ACFED4F8E1
:106ED0002A311A0E190242EA036201F47F011B0AE9
:106EE0000A4303F47F431343B4F82E21CDF837301F
:106EF000130A43EA0223B4F82821ADF83B30130A01
:106F000043EA022394F83021ADF834309DF836304E
:106F10001996C2F3400161F3000362F341036FF37A
:106F200087038DF836301923ADF870300DF1410329
:106F30001F930DF15A03209300231D93ADF8783071
:106F400019A808231A951B978DF884300DF05BF96A
:106F500010A9A06800F009FE00287FF410AF1323E9
:106F60008FE794F80B31132B7FF45EAF0A238DF873
:106F7000643004F178031B9304F58C731A941C930A
:106F8000E36819A89847A06883681B69002198479F
:106F90004AE70C238DF864306B781A948DF86C30C6
:106FA000E36819A89847EAE670B5044690F80B0123
:106FB0000E46B8B9A5680C49E960194684F809017C
:106FC00084F8312104F58C70192212F02CFEAB6884
:106FD000064ADB6831462846984720B9012384F8E1
:106FE0000B3170BD082070BD80A0030000879303A3
:106FF00037B5044690F80B01042836D1102B32D84F
:1070000063BB81BB022594F810018DF80050012963
:107010004FF0000500F0010084F8072108BF2A4660
:1070200084F80C1184F8063184F8080108BF2B4657
:107030008DF802008DF803108DF80420694604F1E4
:10704000F502A0688DF801508DF8053000F021FDA3
:1070500010B9062384F80B3103B030BD19B1102BE1
:10706000D0D00129CED10920F6E70820F4E790F826
:107070000B310B3B012B01D8FFF7D1BD0820704726
:1070800010B590F80B210A2A044609D151B12022EB
:10709000583012F0C8FD2046BDE81040FFF7D2BDC1
:1070A000082010BD0E2010BD00B589B00A238DF850
:1070B000003000F17803029300F58C730190039384
:1070C000C3686846984709B05DF804FB70B5056968
:1070D0002C68A86088B006465CB9022385F80B319D
:1070E00001238DF800300195EB686846984708B099
:1070F00070BDB44203D0A36820469B6898472468BB
:10710000EAE730B5046994F80B31122B89B00D46CB
:1071100003D111B92046FFF7C7FF002384F80B31D4
:1071200002238DF8003001948DF80850E36868461A
:10713000984709B030BD30B590F80C3189B004469D
:10714000032B3BD8DFE803F0312B170206238DF821
:10715000003090F806318DF8093090F807318DF83D
:10716000083001900B2384F80B316846E368984798
:10717000002009B030BD00F1C505294600F09DFE94
:1071800005238DF8003094F806318DF8093094F815
:1071900007318DF80830019403950F23E3E70723A7
:1071A0008DF8003001900C23DDE710220021C5305E
:1071B00012F044FD0F2384F80B31D9E70320D8E700
:1071C00010B5044688B084F80A110C22019080683A
:1071D0008DF800208DF8081000F0BAFC38B9E3688B
:1071E00068469847152384F80B3108B010BDA06895
:1071F000836802211B699847F1E710B588B00446FF
:1072000000F012FF80B10B238DF800306369039307
:1072100004F1180302930A2384F80B310194E36804
:107220006846984708B010BD04F15801204600F0A8
:1072300029FE48B92046FFF77EFF0028F2D005213D
:107240002046FFF7BDFFEDE70221F9E713B504691A
:1072500094F80B31023B132B29D8DFE803F00A28FE
:10726000280D28280F2828152817281728191B2823
:107270002820052384F80B3102B010BD204602B04F
:10728000BDE81040FFF7B9BF0F23F3E71123F1E783
:107290001223EFE72046FFF707FF1423EAE7A06871
:1072A00083681B69022102B0BDE810401847144BE7
:1072B0001B681B07E0D5134B1B68002BDCDD2F215F
:1072C000114812F08FFD90B12F210F4812F08AFD66
:1072D000411C0E4B94F80B21D3F8043501920C4A53
:1072E0000092012040F21B220DF0A6FDC4E75C21B4
:1072F000054812F077FD08B15C21E6E70249E8E7AE
:10730000C82D0020C42D0020A0A0030000100140C3
:10731000C4A0030070B50D4694B004691146284618
:1073200000F086FB08B9012103E12B78092B00F25C
:107330009281DFE813F00A0090015400AE00900142
:10734000C400EF0013019001840194F80B31022B6B
:1073500040F09180012204F1F506A918304612F0A0
:1073600062FC03238DF82C306B780C948DF834304C
:10737000E3680BA8984701238DF8083094F80D3185
:107380008DF80930B4F80E21130A43EA0223ADF850
:107390000A3094F810318DF80C3094F811318DF8D2
:1073A0000D3094F812318DF80E30B4F81321130A11
:1073B00043EA0223ADF80F3094F815318DF81130FF
:1073C000B4F81621130A43EA0223ADF8123032460C
:1073D00002A9A06800F04EFB00284CD08CE094F885
:1073E0000B31052B47D16B78002B4ED1AB78012B9D
:1073F0004BD8EA78032A48D8012B03D194F81031EE
:10740000012B42D1012A2B7937D8002B3DD16B7942
:10741000002B3AD1691C052204F2011012F003FC82
:10742000AB78003318BF012384F80831EB7884F877
:107430000C31EB78012B14BF6B79102384F80631E3
:107440002B7984F8073104238DF82C300C94E368F1
:107450000BA8984794F80831082584F80B5153B1CC
:10746000202200210BA812F0E9FB8DF82C500C947F
:10747000E3680BA8984714B070BD022A07D1042B0B
:1074800003D86B79013B072BC4D9022151E0032BB0
:10749000F6E794F80B31082BEDD14022691C04F17A
:1074A000180012F0C0FB94F8083123B92169A068D4
:1074B00000F0FFFA90E72046FFF79FFEDBE794F825
:1074C0000B310F2B1AD11022691C04F1E50012F0C8
:1074D000AAFB04F1D501204604F1A5030BAA00F094
:1074E0001BFC0BA9A06800F002FB0028C3D00428F5
:1074F00002D0784609F09AFB05211AE00C2BBAD18C
:107500001022691C04F1E50012F08DFB0D2384F8B4
:107510000B31B0E794F80B31112BACD11022691C60
:1075200004F1B50012F07FFB204600F00BFD20B9FE
:1075300004212046FFF744FE9DE704F1A501A06861
:1075400000F0E8FA0028D7D104F1780304F198029A
:1075500004F18801204600F03FFC8CE794F80B31E1
:10756000122B88D104F188030B9304F198030C9338
:107570006B1C0D9314A91923ADF838300023082291
:1075800001F8493D0DF109061A350BA80F93ADF826
:107590004030119612958DF84C200CF036FE9DF877
:1075A0000730002B5DD01022314604F58C7012F0AC
:1075B0003AFB079B94F830111BBAC4F82A31BDF886
:1075C0002030180A40EA032080B2A4F82E01BDF84A
:1075D0001920130A43EA02239BB2A4F828319DF82C
:1075E0001B20C2F3400262F3000184F830119DF8C1
:1075F0001B1094F83021B3F5805F61F3410284F8E9
:107600003021BFF442AF0BF037FB01287FF43DAFD0
:10761000B4F82E0194F80D510BF02EFB012801D087
:10762000082186E7B4F82E010138284480B20BF017
:1076300023FB0128F4D1A06800F07FFACCE60C23EC
:107640008DF82C306B780C948DF83430E3680BA8EF
:10765000984715235BE794F80B31152B7FF463AE45
:1076600009E7062165E7000030B40C4611461A46CA
:1076700090F80B31012B08D8054BE360A3685D68D7
:10768000044B2046AC4630BC6047082030BC7047F5
:1076900090A00300008793031FB590F80B31A3F16E
:1076A0000B02022A044619D80B2B04D1806800F083
:1076B00013FA04B010BD0D2B0BD100F1A50300F19E
:1076C000D5016A4600F028FB6946A06800F00FFA71
:1076D000EFE70F2380F80B310020EAE70820E8E706
:1076E00010B590F80B210A2A044609D151B1202285
:1076F000583012F098FA2046BDE81040FFF71BBD45
:10770000082010BD0E2010BD00790B79C31A584215
:107710005841704710B5431E00F11002073012F8AF
:10772000014C597803F8014F834202F8011DF6D14C
:1077300010BD00004A0901F01F034FF0FF319940CE
:1077400050F82230194009D04B420B4004495943AC
:10775000C90E044B585C00EB421070470320704781
:1077600031B57C07F3A0030038B5049D88B181B121
:107770007AB173B16DB190F80B4164B9C560016124
:10778000426119460B2200F20D1012F04CFA20460D
:1077900038BD0E2038BD082038BD000038B50D4674
:1077A000044650B149B1064A0DF0EAFA30B92C61ED
:1077B0002A7963681343636038BD0E2038BD00BF6B
:1077C0000977020000F0F8BA38B5054678B190F8AC
:1077D0000B31012B0DD104681CB985F80B412046F3
:1077E00038BDA36820469B6898472468F4E70E20BC
:1077F00038BD082038BD2DE9F7430F469046019368
:10780000044688B390F80B21012A2FD81BB1416898
:1078100033EA01012CD0072512E009FA06F32568A6
:10782000DBB28DB9784609F001FA294643463A465B
:107830002046FFF719FF054658B12046FFF7C4FF61
:10784000284603B0BDE8F0832A799A42EDD02D682E
:10785000E7E7711C022905D801A8FFF76BFF032891
:107860000646DAD10025EBE70E25E9E70825E7E72C
:107870004FF0010980F80B9180F80991ECE72DE9B0
:10788000F0410E4617461D469DF818800446F0B19B
:10789000E9B1E3B11B8AB3F5805F02D30B20BDE8E9
:1078A000F081E88A0BF0E8F90128F7D1206848B99F
:1078B000A06078B12B463A4631462046BDE8F041FB
:1078C000FFF772BB03794345F2D00068EFE70E2063
:1078D000BDE8F0810620BDE8F08110B490F80941C0
:1078E0001CB95DF8044BFFF783BB08205DF8044B1F
:1078F0007047F8B50E461546044600286FD000299B
:107900006DD0102A6DD890F80631934269D190F865
:107910000C31012B0DD1C53012F085F994F80931E5
:107920002A4631462046002B55D1BDE8F840FFF7E6
:107930009EBB90F80921DAB9022B21D190F80731CA
:10794000032B1DD82946304600F03EFBC0B104F1A0
:10795000C50704223146384612F065F90C22002191
:1079600004F1C90012F06AF93846FFF7D3FED5E7F3
:10797000012A05D1032B03D190F80731022BE0E750
:1079800094F80931EBB994F80C31022B01D008209E
:10799000F8BD94F80731042BF9D12946304600F0A0
:1079A000FFFA0028F3D004F1C5072A4631463846CD
:1079B00012F039F905F1C500C5F11002002120448B
:1079C000D0E7012BE3D194F80C31032BDFD194F8ED
:1079D0000731032BE0E7BDE8F840FFF75DBE0E205E
:1079E000F8BD0920F8BD90F809310BB9FFF748BB85
:1079F000FFF776BE08B518B100F028F9002008BDE1
:107A00000E2008BD00F02EB970B5044616460D468E
:107A100011B9784609F00AF914B9784609F006F95F
:107A2000A3683246294620461B68BDE870401847C7
:107A300048B10378092B05D8034AD05C431A584251
:107A4000584170470020704713A1030013B500236D
:107A500004468DF8051010460DF1050101228DF840
:107A6000043012F0E0F8022201A92046FFF7CCFF13
:107A700002B010BD38B505460C46501C01310B2232
:107A800012F0D1F8214628460C22BDE83840FFF715
:107A9000BBBF38B505460C4602F10C00013105228A
:107AA00012F0C1F8214628460622BDE83840FFF70B
:107AB000ABBF30B593B012AC032304F8443D054688
:107AC00040220DF1050012F0AEF841222146284671
:107AD000FFF79AFF13B030BD07B502A9042301F8E0
:107AE000043D0122FFF790FF03B05DF804FB30B5C1
:107AF00087B006AC052304F8143D054610220DEBB3
:107B0000030012F090F8112221462846FFF77CFF6F
:107B100007B030BD30B587B006AC062304F8143D7D
:107B2000054610220DF1050012F07DF811222146C4
:107B30002846FFF769FF07B030BD07B502A9082343
:107B400001F8043D0122FFF75FFF03B05DF804FB7D
:107B500007B509238DF80510022201A98DF804301C
:107B6000FFF752FF03B05DF804FB2222FFF74CBF82
:107B700070B506468AB014460D4609B3084612F0A1
:107B800029F96A4681B228460CF09FFB0422694617
:107B90000DF1220012F047F8162564BAADF8204026
:107BA00009F07CF8102201460DEB020012F03BF8C0
:107BB0002B4604AA002130460DF0E0FB0AB070BD50
:107BC0001225EAE7F0B50F4689B01446064610B90B
:107BD000784609F02BF814B9784609F027F807F031
:107BE000FB03122B25D1184D2A6812B32022002145
:107BF000684612F023F81022314601A8079412F0CB
:107C000012F823785A1E534253410021162F8DF843
:107C100014308DF800100ED10123042206F1120158
:107C20000DF116008DF8153011F0FDFF2B68684638
:107C3000984709B0F0BD04220DF116008DF815101B
:107C400011F0FCFFF2E700BF0C2F002010B5044636
:107C500010B9784608F0EAFF014B1C6010BD00BF68
:107C60000C2F0020014B00221A6070470C2F0020BF
:107C70000B4682B00449019001EB104101221846E5
:107C800002B011F0D0BF00BF102D002007B5054B8A
:107C90000190012203EB104011F0C5FF002003B05A
:107CA0005DF804FB102D002037B50D460421044675
:107CB0000DEB01000BF027FD094B019953F825202E
:107CC000B1FBF2F302FB131304221BBA0DEB02010A
:107CD00004F10C00019311F0A6FF03B030BD00BF0A
:107CE00048A1030073B505460A4E68460C460BF0E2
:107CF0000AFD00232421A34201D302B070BD1DF868
:107D00000300B0FBF1F201FB1202D2B2B25CEA5402
:107D10000133F0E722A103002DE9F0410446ACB0A5
:107D20000F46904600F1F501112207A81E4611F0FA
:107D30007AFF94F8093104F11805402293BB2169B8
:107D40000DF12D0011F06FFF402229460DF16D005D
:107D500011F069FF3A4607A891210CF0B6FA03AD7D
:107D600004233A46009304F15800124B0195202158
:107D70000CF0C1FA304610210BF0C5FC3146102240
:107D800007A811F050FF04F1C50110220BA811F053
:107D90004AFF4346202207A928460CF032FA2CB0AD
:107DA000BDE8F08129460DF12D0011F03CFF402285
:107DB0002169CBE76CA1030038B504460D4611F0EC
:107DC000C7F929460246204611F0C6F9012814BF1A
:107DD0000320002038BD00002DE9F043044697B091
:107DE0008946904600F1D50110220AA81F4611F0DD
:107DF0001AFF94F8093104F1A50504F1B506102223
:107E0000002B32D129460EA811F00DFF1022314669
:107E100012A811F008FF5834042502AA0AA830213C
:107E20000CF053FA02AA2046CDF804900095124BAC
:107E300020210CF060FA06AB019302AA0F4B0095CB
:107E4000204620210CF057FA0DF11B010D2240466F
:107E500011F0E9FE8DE8A000094B02AA202120467E
:107E60000CF049FA17B0BDE8F08331460EA811F0C6
:107E7000DAFE10222946CBE771A1030076A10300A8
:107E80007BA1030070B50E4600F11804054611F001
:107E90005FF90146204611F040FA08B9032070BD91
:107EA0006D6911F055F9324603462946204611F016
:107EB00093F90028F2D0002070BD37B590F8063154
:107EC000013B072B04460D4602D9784608F0AEFE6A
:107ED00010220021284611F0B1FE94F80C31022B3B
:107EE00003D0032B0AD003B030BD94F80731042B24
:107EF000F9D8DFE803F00B0B0B1B210094F80731D6
:107F0000032BF0D8DFE803F00202121801210DF173
:107F1000070094F806410BF0F6FB9DF80720B2FB32
:107F2000F4F304FB13230133EB73DCE794F806113D
:107F30002846FFF7B9FED6E794F806112846FFF762
:107F4000D1FED0E730B593B002AD042304460093D0
:107F500000F1D502114B0195202158300CF0CBF9DE
:107F600004F1B50110220AA811F05DFE04F1C5016B
:107F700010220EA811F057FE06AB0AA928462022AF
:107F80000CF03FF9102204F1E50106A811F03CFEC7
:107F9000B0FA80F0400913B030BD00BF6CA10300FF
:107FA00010B50246131ADBB2994201D8012010BD68
:107FB00012F8013BA3F13004092CF3D9413B192BF2
:107FC000F0D9002010BD0000082937B505460C4641
:107FD00002D9784608F02AFE042229460DEB020059
:107FE00011F021FE044B53F82400019B984294BFEA
:107FF0000020012003B030BD48A1030007B5054BA8
:1080000002A901F8010D18680EF0ACF803B05DF894
:1080100004FB00BF1EA10300024B014618680EF0CE
:10802000DBB800BF1EA1030007B50DF10700FFF785
:10803000F3FF10B1784608F0F9FD9DF8070003B092
:108040005DF804FBD1F8B83108461B69012100F541
:10805000D8701847F8B5114D2B68064613B9784605
:1080600008F0E4FDEFF3108772B62C68B4420BD130
:10807000D6F8C4312B6007B962B6F8BD13B978469B
:1080800008F0D4FDD4F8C441D4F8C4319E42F5D1EF
:10809000D6F8C431C4F8C431EDE700BF142F002076
:1080A00070B590F8A130023B022B04460D4602D970
:1080B000784608F0BBFD2046FFF7CCFF94F8A030CF
:1080C000012B02D0784608F0B1FD20460EF0A5FD48
:1080D000002384F8A03084F8E03084F8A13004F163
:1080E000C0000BF0B5F9D4F8BC31294604F5D870BE
:1080F000DB68BDE87040184710B5044610B97846F3
:1081000008F094FDA4F5D87494F8A130012B09D19E
:108110002046FFF79FFF20460EF07FFD002084F8E9
:10812000A10010BD082010BD2DE9F0418846911C2A
:10813000064615461F460EF085FC044600B36B1C30
:108140004374292383742A464146133011F06BFD92
:108150002771EFF3108772B6D6F8A85101356B1C62
:10816000C6F8A85102D1784608F060FD07B962B69A
:108170003046256021460EF0A0FC0020BDE8F081CD
:108180000420BDE8F0812DE9F04190F8E030022BA9
:1081900088B0044602D0784608F048FD94F8E330F1
:1081A000002B42D194F8A130032B02D0784608F07E
:1081B0003DFD94F8E030022B02D0784608F036FD01
:1081C000D4F89C2094F8E13012BA009294F8A320DD
:1081D0008DF804209DF8052002F0FC02142B03F119
:1081E00002014FF01700B1FBF0F161F387021D4669
:1081F0008DF8052028BF142594F8E2208DF808207A
:108200001B022A4604F1E4010DF10900ADF8063025
:1082100011F009FD012305F1090269462046FFF727
:1082200083FF80B9012384F8E33094F8E3501726E4
:10823000022794F8E18008F10203B3FBF6F301335F
:10824000DBB29D4202D308B0BDE8F0816B1E03EBA8
:108250004301C3EBC101D4F89C30143189B21BBA7D
:10826000A8EB0108009394F8A3308DF804301FFAAE
:1082700088F89DF80530B8F1170F28BF4FF01708A0
:1082800067F30103E43165F38703424621440DF1AE
:1082900006008DF8053011F0C6FC012308F1060236
:1082A00069462046FFF740FF0028CCD194F8E33020
:1082B000013384F8E3300135BBE700B5D0F89C30DA
:1082C00089B01BBA009300238DF804309DF8053067
:1082D0008DF80610022243F0030362F387038DF842
:1082E0000530072204236946FFF71EFF09B05DF839
:1082F00004FB38B50D46044610B9784608F096FCE4
:10830000022D02D9784608F091FCA4F5D87494F8AF
:10831000A13013F0FB0F16D0023B012B02D9784697
:1083200008F084FC29462046FFF7C7FF28B904233C
:1083300084F8A13084F8A45038BD29462046BDE811
:108340003840FFF7ADBE38BD00B5D0F89C3089B0DD
:108350001BBA00938DF804100123062269468DF89C
:108360000530FFF7E1FE09B05DF804FB00B589B008
:10837000D0F89C309DF805201BBA009300238DF89F
:10838000043042F00302012363F387028DF80520D5
:1083900069460622FFF7C8FE09B05DF804FB10B578
:1083A00004460BF0A1F8D4F8DC10014404F1C0003D
:1083B000BDE810400BF063B80023C0F8CC3080F863
:1083C000E03080F8A33080F8A23080F8A130C0F807
:1083D000A83190F8A030C0F8DC10012B024612D072
:1083E000012380F8A030084BC0F8B030074BC2F82A
:1083F000B8000749C0F8C830C2F8D000802300F5A3
:1084000094720EF035BC7047318402004580020042
:1084100015840200D0F8A8318B4206D1012380F8E0
:10842000AC31024B18680BF0BFBD7047A02D002087
:1084300037B591F8A130032B05460C464ED191F883
:10844000E030022B4AD1D1F8D8301B1A002B14DAB5
:1084500001212046FFF731FF48B9042384F8A130F9
:10846000012384F8A430C4F8B40003B030BD1D4B20
:10847000C4F8B430C4F8D850F7E71B4B1B681B078F
:108480001AD51A4B1B68042B16DD2F21184811F042
:10849000A9FCD0B12F21164811F0A4FC411C154BAA
:1084A00094F8E420D3F804350192134A0092052091
:1084B00040F2BB320CF0C0FC0023204684F8E330CD
:1084C00003B0BDE83040FFF75EBE5C21084811F004
:1084D00089FC08B15C21DEE70549E0E70023C4F828
:1084E000B430C2E740420F00C82D0020C42D002048
:1084F0002EA503000010014051A5030013B504464A
:10850000EFF3108372B6174A1168C0F8C4111060F7
:1085100003B962B6144B1B681B0718D5134B1B68B5
:10852000032B14DD2F21124811F05CFC88B12F21A0
:108530000F4811F057FC411C0E4B0F4AD3F804357D
:10854000009201944FF4C87204200CF075FC02B044
:1085500010BD5C21064811F045FC08B15C21E7E73D
:108560000349E9E7142F0020C82D0020C42D002066
:108570002EA503000010014080A10300F0B50E46B7
:1085800089B01746054610B9784608F04FFBA5F5A7
:10859000D87494F8A030012B02D194F8A130CBBB51
:1085A000A5F58A7539462046FFF706FF28460421BF
:1085B0000BF0A9F80022802384F8A32084F8A230CD
:1085C0002B688DF804201BBA00939DF8053043F00A
:1085D000030362F38703314610220DF106008DF884
:1085E000053011F020FB0423162269462046FFF7D0
:1085F0009BFD054658B92046FFF7D1FE20460EF0F8
:1086000007FA2046FFF77AFF022384F8A1302846B4
:1086100009B0F0BD0825FAE7F8B50D4616461F4625
:10862000044610B9784608F001FBA4F5D87494F814
:10863000A030012B02D194F8A13073BB39462046FB
:10864000FFF7BAFE0023802284F8A3202946C4F84D
:108650009C3084F8A23032462046FFF789FA05465E
:1086600010B9784608F0E2FAFF232B714FF0FF3380
:108670002B6020464FF4FA610EF0A5FA29462046F9
:108680000EF01BFA20460EF0C3F92046FFF736FF26
:10869000012384F8A1300020F8BD0820F8BD0000B7
:1086A00038B5124B1C6800250CB9012038BD94F870
:1086B000AC3193B194F8A13084F8AC51042B94F808
:1086C000E0300DD1022B03D104F1A8000AF0C0FE66
:1086D00094F8A4102046FFF7E3FCD4F8C441E3E784
:1086E000022BFAD12046FFF74EFDF6E7142F0020AB
:1086F00030B5074D0246FF23141AA14202DCD843CD
:10870000C0B230BD12F8014B6340EB5CF4E700BF30
:10871000ACA103002DE9F843A0F5D874804694F885
:10872000A130032B0F46164640D1412A41D810F8FC
:10873000D05C002D40D12046FFF731FE0AF0D4FE78
:10874000B11C1723B1FBF3F10131CBB2216F5943B7
:1087500001F5F4111A4B01F5906148F8FC1C8146B3
:10876000C4F8B0300144A8F584700AF088FE154BB7
:108770004B4448F8D83C022384F8E0303146C4F832
:10878000B84084F8E35084F8E1603846FFF7B0FF62
:10879000324684F8E2003946A8F1CC0011F043FAE1
:1087A0002046FFF7F0FC2846BDE8F8830820BDE826
:1087B000F8830920BDE8F8831120BDE8F88300BFE5
:1087C0003184020080C3C9012DE9F0410B78012BEF
:1087D00092B005460C4602D0784608F027FA261DCE
:1087E00061783046FFF784FFA378834226D195F85D
:1087F000A21028460027FFF7A7FDE77095F8A220F2
:10880000531C03F07F0322F07F02134385F8A2304C
:1088100094F801803146424601A811F004FA284636
:108820002770FFF7BCFDD5F8BC3142461B6801A993
:1088300005F5D870984712B0BDE8F0810023237089
:10884000F9E7000038B5044610B9784608F0EEF9AB
:10885000084D2B68013303D107480BF087FB2860D4
:10886000012384F8B431054BC4F8B83104F5D8704D
:1088700038BD00BFA02D0020A1860200ACA20300DD
:108880002DE9FF4188461446054610B9784608F0A0
:10889000CDF914B9784608F0C9F92B681A0E1902F7
:1088A00042EA036201F47F011B0A0A4303F47F4397
:1088B0001343EFF3108172B6A74E34686CB901B957
:1088C00062B6687900F00303032B00F29C80DFE8B6
:1088D00013F00B005701D6016102D4F89C2093429B
:1088E000EDD0D4F8C441E9E7002C00F08C8094F876
:1088F000A130032B40F0878094F8E030002B40F04B
:108900008E802A7994F8A2309A4230D1EB881B0AE3
:1089100084F8E13017220233B3FBF2F30133DBB208
:10892000072B07D9022104F5D87004B0BDE8F04147
:10893000FFF7DFBC2B7A84F8E230A8F109080123A5
:1089400084F8E03084F8E330424605F1090104F18F
:10895000E40011F068F994F8E130984553D104F13E
:10896000E001204604B0BDE8F041FFF72DBF7B4B8E
:108970001B6829D2190717D5794B1B68042B13DD07
:108980002F21784811F02EFAA8B12F21754811F047
:1089900029FA411C744B754AD3F80435009240F211
:1089A000C92205200CF048FA2979204604B0BDE818
:1089B000F041FFF7C9BC5C216A4811F013FA08B115
:1089C0005C21E3E76749E5E71A071CD5644B1B68A0
:1089D000012B18DD2F21634811F004FAB0B12F21CB
:1089E000604811F0FFF9411C5F4B94F8A220D3F8C6
:1089F000043502922A7901925D4A009240F2CE2219
:108A000002200CF019FA04B0BDE8F0815C21554851
:108A100011F0E8F908B15C21E2E75249E4E7022BE2
:108A20004E4B74D1297994F8A2201B68914220D230
:108A30001B07B9D54A4B1B68042BB5DD2F214948CC
:108A400011F0D0F960B12F21464811F0CBF9411C4B
:108A5000454B464AD3F80435009240F2D522A0E7B0
:108A60005C21404811F0BEF908B15C21ECE73D49BA
:108A7000EEE725D91F07C6D5394B1B68012BC2DD90
:108A80002F21384811F0AEF988B12F21354811F067
:108A9000A9F9411C344B94F8A220D3F80435029272
:108AA0002A790192324A009240F2DA22A8E75C2148
:108AB0002C4811F097F908B15C21E7E72949E9E76B
:108AC0001E07A0D5264B1B68042B9CDD2F212548B3
:108AD00011F088F990B12F21224811F083F9411C3F
:108AE000214B94F8A220D3F8043502922A790192FE
:108AF000204A0092052040F2DE2282E75C211948DC
:108B000011F070F908B15C21E6E71649E8E71B6847
:108B10001C077FF578AF124B1B68012B7FF773AFF3
:108B20002F21104811F05EF978B12F210D4811F076
:108B300059F9411C0C4B104AD3F80435009240F20D
:108B4000E32202200CF078F95DE75C21054811F082
:108B500049F998B15C21E9E7142F0020C82D0020C5
:108B6000C42D00202EA5030000100140C0A2030068
:108B700010A303005AA3030093A303009A49D9E763
:108B8000002C3FF440AF94F8A130032B7FF43BAFAF
:108B900094F8E030022B954B4DD1297994F8A3201D
:108BA000914248D11B6818071AD5914B1B68032BBB
:108BB00016DD2F218C4811F015F998B32F218A4822
:108BC00011F010F9411C8B4B94F8E420D3F80435D4
:108BD0000192894A0092042040F21E320CF02CF9D6
:108BE000002504F1A800C4F8B4500AF031FC204676
:108BF0000EF013F894F8A32084F8E050531C03F00F
:108C00007F0322F07F02134384F8A3302046FFF74E
:108C1000C6FBD4F8BC315B6804F5D87004B0BDE87D
:108C2000F04118475C21704811F0DCF808B15C2174
:108C3000C5E76D49C7E71B6819077FF5E4AE6C4BC4
:108C40001B68012B7FF7DFAE2F21674811F0CAF8B0
:108C500060B12F21644811F0C5F8411C654B674A8B
:108C6000D3F8043500924FF44C726AE75C215E48F9
:108C700011F0B8F808B15C21ECE75B49EEE7002C95
:108C80003FF4C1AE94F8A130032B7FF4BCAE94F84E
:108C9000E060297994F8A230012E4CD1994225D177
:108CA00094F8E33080080341DA073FF5ACAE1727AC
:108CB000013807FB0040A8F10602A91DF83010F0AA
:108CC000B2FF6B7994F8E3209B0806FA03F3134391
:108CD00094F8E1200232B2FBF7F70137DBB2FFB2C2
:108CE00084F8E330BE400133B34237E63F4B1B68A4
:108CF0001B077FF588AE3E4B1B68012B7FF783AEC9
:108D00002F21394811F06EF860B12F21364811F04B
:108D100069F8411C374B3A4AD3F8043500924FF4B6
:108D200042720EE75C21304811F05CF808B15C211A
:108D3000ECE72D49EEE79942FFF437AE7FF663AEDC
:108D40002A4B1B681F077FF55EAE294B1B68012B62
:108D50007FF759AE2F21244811F044F888B12F2114
:108D6000214811F03FF8411C224B94F8A220D3F87F
:108D7000043502922A790192224A00924FF44572F8
:108D80003EE65C21184811F02DF808B15C21E7E7B8
:108D90001549E9E78008012800F0B88036D3022899
:108DA00000F01381114B1B681B077FF52CAE104B95
:108DB0001B68012B7FF727AE2F210B4811F012F80B
:108DC000002800F067812F21074811F00BF8411CA3
:108DD0006A79084B9208D3F8043501920A4A009246
:108DE00040F29232E4E000BF2EA50300C82D00201F
:108DF000C42D002000100140C5A30300E0A3030020
:108E000000A4030031A4030007A50300B8F1160F66
:108E10007FF4F9AD07F042FF10220146A81D10F0C3
:108E2000F3FE00287FF4EFAD64B9EFF3108372B660
:108E30003468002C47D1002B7FF4E5AD62B6002CDE
:108E40003FF4E1AD94F8A130012B51D12B681A0EFB
:108E5000190242EA036201F47F011B0A0A4303F488
:108E60007F4313432046C4F89C3014210DF0ABFE21
:108E70002046FFF77BFA002836D18D4B1B681E0772
:108E800017D58C4B1B68032B13DD2F218A4810F05C
:108E9000A9FF00B32F21884810F0A4FF411C874B85
:108EA000874AD3F80435009240F2513204200BF087
:108EB000C3FF032384F8A1302046FFF770FAD4F8EB
:108EC000BC319B68A8E694F8A120012A00F0EB8051
:108ED000D4F8C441ADE75C21774810F083FF08B1B6
:108EE0005C21D8E77449DAE70023C4F89C308AE5AE
:108EF000032B7FF488AD94F8E030002B7FF483AD32
:108F0000204604B0BDE8F041FFF730BA002C3FF432
:108F10007AADB8F1060F7FF476AD94F8A130644DC8
:108F2000022B28D120460DF078FE142120460DF0AA
:108F30004AFE2B681D07BCD55E4B1B68032BB8DDB2
:108F40002F215D4810F04EFF60B12F215A4810F0DC
:108F500049FF411C594B5A4AD3F80435009240F25C
:108F60006E32A3E75C21544810F03CFF08B15C214D
:108F7000ECE75149EEE72B6818077FF544AD4D4B00
:108F80001B68012B7FF73FAD2F214B4810F02AFFC4
:108F900090B12F21484810F025FF411C474B94F811
:108FA000A120D3F804350192464A009240F276326D
:108FB00002200BF041FF26E55C213F4810F012FF34
:108FC00008B15C21E6E73C49E8E7002C3FF41BAD23
:108FD000B8F1070F7FF417AD94F8A130344E023B7F
:108FE000012B30D894F8E030022B03D104F1A80013
:108FF0000AF02EFAA9792046FFF752F833681907CC
:109000007FF501AD2B4B1B68032B7FF7FCAC2F21A9
:10901000294810F0E7FE68B12F21274810F0E2FE42
:10902000411C264B284AD3F80435009204204FF403
:10903000627287E55C21204810F0D4FE08B15C2103
:10904000EBE71D49EDE733681A077FF5DCAC194BF8
:109050001B68012B7FF7D7AC2F21174810F0C2FEF9
:1090600078B12F21144810F0BDFE411C134B94F829
:10907000A120D3F804350192144A009240F28D32B7
:1090800096E75C210C4810F0ADFE08B15C21E9E7E1
:109090000949EBE75C21084810F0A4FE08B15C2107
:1090A00092E6054994E6002B3FF4C8AECAE600BF3D
:1090B000C82D0020C42D00202EA503000010014063
:1090C00077A403008DA40300BEA40300D4A403006E
:1090D00038B5837803F003020446032A22D8DFE878
:1090E00002F00214191D9B08154A16481268134411
:1090F0000268A3600021EAB195685D1B002D16DAB5
:10910000D1B91146E160046038BD9B0803EB8303CD
:109110005B00E9E79B0864225343E5E79B0841F2C3
:109120007072F9E7784607F081FD0023DCE711460D
:10913000D268E0E70029E5D0CC60E26038BD00BF2E
:10914000302F0020382F002008B5032809D8DFE889
:1091500000F00D020406064808BD064808BD064892
:1091600008BD784607F062FD002008BD034808BD31
:1091700040420F00809698000046C323A08601005D
:109180002DE9F041574D2B78A3B1574B574E5C68F2
:109190000AF0AAF9241A3078FFF7D6FF3278544B38
:1091A000001B002A40D14CF2503290423CD91A6840
:1091B00001321A60DFF84881D8F80020002A00F058
:1091C00087804A4E9378307803F003038342344615
:1091D00064DD474B97681B68FB1A464F5F43FFF7F8
:1091E000B3FFD8F80030B7FBF0F09F78C7F3010762
:1091F000FBB2022B1FD031D8012B47D10A22B0FB82
:10920000F2F302FB1300002840D10AF06DF900F5DB
:10921000742101F5107137702B78002B50D0324833
:10922000BDE8F0410AF02BB91A683249B0FBF1F001
:1092300010441860BEE7337863B96422B0FBF2F3E0
:1092400002FB130010BB0AF04FF92B490223014423
:109250002370E1E7012B19D10A22EFE7337863B9D4
:1092600041F27072B0FBF2F302FB130070B90AF026
:109270003BF9224903230144EAE7012B02D14FF4D1
:109280001672EFE7022B01D13C22EBE70AF02CF932
:1092900006462078FFF758FF3118BDE70AF024F999
:1092A000D8F800300446987800F00300FFF74CFF30
:1092B000D8F800309B78C3F3010321183370ABE773
:1092C000094801232B704160BDE8F0410AF09EB8C7
:1092D0002B7823B10448BDE8F0410AF0B9B8BDE8E5
:1092E000F08100BF342F0020182F0020352F0020E0
:1092F000302F0020A0860100809698000046C323EE
:10930000382F00202DE9F341244B1B78032B2AD85A
:10931000DFE803F0021B1F23214A136801331360A7
:10932000204B214E1E4D00221A70B04634683CB1CD
:10933000A3682A6893421AD02A689B1A002B16DB6E
:10934000FFF71EFF02B0BDE8F081154A13680A332B
:10935000E5E7134A13686433E1E7114A136803F53C
:10936000BB531033DBE7784607F060FCD8E727886B
:10937000E368C8F8003002A9002341F8043D3846EC
:1093800001F064F910B1784607F050FC3846636884
:10939000019998472046FFF79BFEC7E7352F00202D
:1093A000302F0020342F0020382F002010B5084C1B
:1093B00018220021204610F041FC064B064AA3600B
:1093C00000231360054A1360054A137010BD00BFE7
:1093D000182F002005930200302F0020382F002086
:1093E000342F0020F8B50F461646044610B97846CB
:1093F00007F01CFC124D0AF049FD2B6800220BB14E
:10940000A34216D1A17867F3010166F38701A17029
:109410009BB1DB6882B92B602EB12046FFF758FE66
:109420002B689C4201D1FFF7ABFEBDE8F8400AF083
:109430006DBD1A46DB68E2E7D360002EF5D0ECE79D
:10944000382F002070B50E461546044610B97846F0
:1094500007F0ECFBA378C3F301033370A378C3F3E5
:1094600085032B7070BD00000A4B93F8390093F808
:109470005D2080F00100404280B24AB14FF6FF7299
:10948000904204D0586D1B6BC01AC00F704701206A
:10949000704700BF3C2F002038B5154C242303FB38
:1094A0000043054693F8393013B9784607F0BEFB00
:1094B000B4F8603013B9784607F0B8FB242202FBF9
:1094C0000543002183F83910B4F86030013B9BB2AA
:1094D000A4F860301BB94FF6FF73A4F8623002FBAA
:1094E0000544A06A0DF0EBF80023A36238BD00BF6D
:1094F0003C2F00202DE9F84F2E4DB5F86030064680
:1095000013B9784607F092FB2B4C06F57A7B0027BF
:109510004FF0010948F2111A94F821301FFA87F828
:10952000BBB1A369A3EB0B03002B12DAA38A226958
:109530002146404600F00CFC102828D809FA00F318
:1095400013EA0A0F26D11D4A13421FD04046FFF7E7
:10955000A3FF0137022F04F12404DDD1FFF784FFBC
:10956000B5F86030A5F862000BB3012802D978463F
:1095700007F05CFBB5F86230242202FB03531B6B3F
:109580009A1B48BFF21AEA60BDE8F88F10B178461E
:1095900007F04CFB94F82030013BDBB284F820301C
:1095A000002BD3D0A369E2691344A361D1E7EB6038
:1095B000BDE8F88F3C2F0020542F0020A0020100AE
:1095C00010B5064C64220021204610F037FB044BF6
:1095D000A3604FF6FF73A4F8623010BD3C2F00204B
:1095E000F59402002DE9F047012806468846174603
:1095F0009A46BDF8209002D9784607F017FBB8F1DB
:10960000000F02D1784607F011FB17B9784607F032
:109610000DFB98F800305B0702D1784607F006FB97
:10962000BAF1000F02D1784607F000FBB9F1000F44
:1096300002D1784607F0FAFA274C242303FB0643AD
:1096400093F8393013B13046FFF726FF09F04CFF8D
:10965000864697E80F00242505FB064505F1180C02
:109660008CE80F00C5F828A0A5F82C9098F80030D9
:10967000C3F3020385F8383098F80000C3084CF2B1
:10968000503003FB0000012385F83930B4F8603016
:109690006863704401332863A4F86030FFF7E4FE88
:1096A000B4F86230834201D19E4213D14FF6FF736A
:1096B0009842A4F8620002D1784607F0B7FAB4F8ED
:1096C00062300548242202FB0344216BBDE8F047C9
:1096D00009F0D5BEBDE8F0873C2F00204A090123E0
:1096E00001F01F0103FA01F150F82230194214BFB2
:1096F0000120002070474FF6FF72B2EB104F82B08E
:1097000083B215D113F47F4007D003F44043B3F57F
:10971000004F14BF0020012006E023F07F022AB989
:109720007F3B18BF0123184602B070470346FAE793
:1097300023F03F03C02BECE701289FBF054B3422E9
:1097400002FB003090F8300094BF00F001000020D0
:10975000704700BFB42F0020F8B505460E461746E7
:109760001C4613B9784607F061FA3389B3F5BE7F1A
:1097700006D3092323602068B0FA80F04009F8BDC1
:109780002846FFF7D9FF28B10C48342303FB050016
:1097900083890BB10523EDE73FB982884FF6FF734C
:1097A0009A4206D0C2889A4203D03068FFF7A3FFDE
:1097B00008B90723DEE70023DCE700BFB42F002051
:1097C00010B50F4C68220021204610F037FA06220F
:1097D00000210C4810F032FA182200210A4810F03B
:1097E0002DFA4FF6FF730222E380A380E281A3816A
:1097F00063872387A4F84220A4F8403010BD00BF3F
:10980000B42F0020A02F00201C3000202DE9F04FA5
:10981000D5B0064607A80C4690460493BDF878B12B
:1098200001F098FC814BBDF81E10342202FB063279
:109830009789B94204D81026304655B0BDE8F08F5C
:10984000BDF81C100F44BFB208ADB8F1000F00F016
:109850009B80B8F81EA0B8F8249008F10C0898E88E
:10986000030085E80300342202FB0636284696F8FA
:109870001180B8F1FF0F04BF6D4B93F8008001F029
:109880002FF9002840F09180049B13B9784607F027
:10989000CDF9BBF1000F02D1784607F0C7F90AAB4A
:1098A000184624220021059310F0C8F910AA514649
:1098B000484602F04BFA059B06460028BCD195E8C5
:1098C0000300A27ADA72E27A1A73049A1A6183E8C0
:1098D0000300E2681F813146184683F80A80A3F826
:1098E00014B01A6209F09CFB06460028A4D1514D21
:1098F0002A6892041AD5504B1B68042B16DD2F21C1
:109900004E4810F06FFA00286ED02F214B4810F00F
:1099100069FA411C4A4B2288D3F804350192494A1E
:10992000009205204FF4D5720BF086FA2B689B0449
:1099300082D5414B1B68042B7FF77EAF2189424BB8
:109940008029186828BF8021002313AD8B4254D191
:1099500000222F21394805F8132010F043FA00287F
:1099600059D02F21354810F03DFA411C344B374A6D
:10997000D3F804350192364A0092029540F2AB12B8
:1099800005200BF059FA57E72946D0880593B2F81D
:1099900004A001F093FC059B002845D16A88002AA9
:1099A0003FF449AF4FF6FF795DE7E368139323680F
:1099B000149395E80300636815932389ADF8583034
:1099C00017AB83E8030013A8ADF85A708DF86480D4
:1099D000ADF866A0ADF8689001F090F82B78012BF7
:1099E00006467FF451AF27E75C21144810F0FAF9DE
:1099F00008B15C218AE711498CE76268D25C1709DB
:109A000002F00F02C75D05F81370875C05EB430297
:109A1000013357709AE75C21084810F0E3F908B168
:109A20005C219FE70549A1E7052605E7B42F002043
:109A3000A42D0020C82D0020C42D002078A50300EF
:109A40000010014094A50300CC2D0020A8A5030020
:109A50008E9F03002DE9F04F85B0814692469846CF
:109A60000E9F0D4611B9784607F0E0F803AB524659
:109A700029464846FFF770FE18B9039805B0BDE8BF
:109A8000F08F69882B884FF6FF7291422ED1FF2B01
:109A90008CBF4FF0020B4FF0010B2E895E44B6B223
:109AA00030460CF00AFE044678B36A882B884FF6DD
:109AB000FF718A421DD04270120A037082702A8997
:109AC000696804EB0B0010F0AEF80096234652468E
:109AD00029464846FFF79AFE039018B9B8F1000FDF
:109AE00000D077B920460CF0EAFDC6E74FF0030B33
:109AF000D3E713F47F4F1DBF1A0A0270437003703F
:109B0000DDE7C8F800403E80B8E70420B6E7002053
:109B1000704770472DE9F74F00F1140405462046C1
:109B200002F068FB064680B34FF6FF73ADF80230D3
:109B30002B7D012B2CD101A801F00CFBEF8ABDF885
:109B40000430FF1ABFB2334C4FF000084FF00C0A3C
:109B500086B3A088C21B5042504194F82830DB07DE
:109B60000CD558B1E98B2046FFF7B8FD30B12888F5
:109B7000B5F802E0218C00238B4229D308F10108BB
:109B8000B8F1020F04F13404E2D103B0BDE8F08F64
:109B9000EB8A04339BB2032B0AD90DF10201204654
:109BA00001F022FC10B1784607F040F80026CAE721
:109BB0000027C8E7E088012808D8174BBDF8021035
:109BC0000AFB00300430FFF789FDC6E73046C4E7E2
:109BD000E2694FEAC30B02EB0B0C32F833208242EE
:109BE00003D1BCF80220724501D00133C4E72B7DBC
:109BF000012B1FFA88F904D1626A2946484600F011
:109C0000B3FEE2695A4429465368626A4846984757
:109C1000B4E700BFBC2F00201C300020F0B5037853
:109C20008DB00446002B75D143681D7805F0C00245
:109C3000402A0ED003D862B1002635460EE0802AB5
:109C40006AD0C02AF8D19A785E78ADB246EA022688
:109C500004E0ADB27F2D5DD04FF6FF76374B1B6829
:109C60009B0418D5364B1B68042B14DD2F21354877
:109C700010F0B8F8002853D02F21324810F0B2F875
:109C8000411C314B314AD3F8043500920195F6223C
:109C900005200BF0D1F8206A01F014FC0746E069BA
:109CA00001F0FCFB4FF6FF729642ADF80850ADF89C
:109CB0000A6063683DD1FF2D8CBF0222012213444C
:109CC0004FF6FF7296420393238934D1FF2D8CBF48
:109CD000022201229B1AADF81030237B8DF814303C
:109CE000E389ADF8163023690693237D8DF81C3087
:109CF000E38AADF81E30A369089394F824308DF8F8
:109D00002430ADF82C00A36AADF8267002A80A939F
:109D1000FFF700FF0DB0F0BD5B7843EA05259BE738
:109D20005C21084810F05EF808B15C21A5E7054900
:109D3000A7E70322C3E70322CCE700BFC82D00201A
:109D4000C42D002078A503000010014065A5030084
:109D5000F0B5064685B014461D460F4689B182B15E
:109D60007BB103AB0022FFF7F7FC10B9039805B0F5
:109D7000F0BD00952346002239463046FFF746FDE8
:109D8000F5E70E20F3E708B5FFF71AFDBDE8084038
:109D900000F02CBE08B5FFF713FD0748074B036022
:109DA00009F040F900F014FEFFF700FBFFF708FC94
:109DB000BDE8084000F096BEA82F00201D9C0200C0
:109DC0002DE9F0410446002800F0C380002900F08E
:109DD000C080C3681BB18368002B00F0BA804FF6C7
:109DE000FF730B80E3681BB9A368002B40F0B480BD
:109DF000A388002B40F0B3805D4EB378F078C34267
:109E000078D1D4F80880E7680025AF4240F0988008
:109E100008884FF6FF739842564B46D193F830505E
:109E200015F0010500F0938093F86420D20701D467
:109E3000012080B24FF6FF75A842088000F095809F
:109E4000342202FB0030C580088802FB0030858088
:109E50000888A78802FB003087810888678802FB92
:109E6000003047800888278850431F52088802FB2B
:109E700000324148007850742088A288A8424FF0F0
:109E8000060000FB02620BBF9078D07801300130F1
:109E90000CBF9070D0700A88342000FB023292F818
:109EA000300040F0020082F830000A882569342032
:109EB00000FB0232D5620A88A56800FB02325562B7
:109EC0000A88E56800FB023215850A88646900FB90
:109ED000023294610A8800FB0234A2820A8800FBE5
:109EE0000233002093F8302042F0010283F8302042
:109EF000BDE8F0811F4B20889A8965882AB95F8860
:109F0000AF4202D11F8887420DD0B3F84020002A0B
:109F10007FF477AFDA8EAA427FF473AF9A8E8242D3
:109F20007FF46FAF012210460A80342202FB003317
:109F300093F83030D8077FF564AF0F20BDE8F0818B
:109F400058F83500FFF7D7FB60B101355DE72846CB
:109F50006FE70E20BDE8F0810920BDE8F081052003
:109F6000BDE8F0810720BDE8F0810420BDE8F08164
:109F7000A02F0020B42F0020A42D00207FB505467F
:109F80000E4619B30DF10A030022009303ABADF89E
:109F90000A20FFF75FFD044688B90D4834236B4360
:109FA000C218D27C52070DD003F11301BDF80A305C
:109FB00000930144039B32462846FFF713FB2046DB
:109FC00004B070BD03980CF07AFBF8E70E24F6E7B6
:109FD000B42F002013B514460A4639B134B100231A
:109FE00000932146FFF736FD02B010BD0E20FBE7BF
:109FF00010B50446FFF7A0FB88B1272911D80A48FD
:10A00000342303FB0400C3888B4206D090F8303021
:10A01000C18043F0020380F83030002010BD0520DD
:10A0200010BD072010BD00BFB42F002010B504469E
:10A0300051B1FFF781FB48B1054B342202FB0434D8
:10A040000020E3880B8010BD0E2010BD052010BD40
:10A05000B42F0020012870B51DD8104A342404FB09
:10A06000002494F83030DD0715D5E47C01F00705B5
:10A0700004F00706AE4204D1C1F3C405B5EBD40F1A
:10A0800007D0342404FB002043F00203C17480F89D
:10A090003030002070BD052070BD00BFB42F0020FF
:10A0A00069B101280DD8084B342202FB003090F82A
:10A0B0003030DB0705D5C37C0B70002070470E20C5
:10A0C00070470520704700BFB42F0020012870B5ED
:10A0D0002AD8184C342505FB004595F83030DB07AD
:10A0E00022D5AB6913B33F2A22D8032920D8AD7CEF
:10A0F000B2EB950F03D105F003058D4212D0342346
:10A100004343E5181433A87C62F3870061F3010030
:10A11000A874E018FFF766F995F8303043F00203B1
:10A1200085F83030002070BD052070BD062070BD60
:10A13000072070BDB42F002038B50546144681B104
:10A140007AB1FFF7F9FA70B1094834236B43C218AA
:10A15000926952B1143318442246FFF773F9002074
:10A1600038BD0E2038BD052038BD062038BD00BFE3
:10A17000B42F0020F8B505460C46FFF7DDFA08B30A
:10A18000144B342202FB0535EB89022B1CD0272906
:10A190001CD80C25104F5D432E1D3E443046FFF762
:10A1A0009DFAA8B96209012304F01F0403FA04F41C
:10A1B00056F82230234346F822307B5D43F00203F9
:10A1C0007B55F8BD0520F8BD0620F8BD0720F8BD79
:10A1D0000020F8BDB42F00201C300020F8B5054643
:10A1E0000C46FFF7A9FA18B3144B342202FB0535CD
:10A1F000EB89022B1ED027291ED80C25104F5D435A
:10A200002E1D3E443046FFF769FAB0B162090123C2
:10A2100004F01F0403FA04F456F8223023EA04037E
:10A2200046F822307B5D43F002037B550020F8BDE9
:10A230000520F8BD0620F8BD0720F8BDB42F00208A
:10A240001C3000202DE9F047064615460F4651B355
:10A250004AB3FFF771FA48B3194B342202FB0636B2
:10A26000F389022B25D00024DFF85890B5F8008040
:10A270002C804FF00C0AF08901280ED80AFB0090C0
:10A2800021460430FFF72AFA38B12B88984513D9B4
:10A2900027F813402B8801332B800134282CEAD176
:10A2A0000020BDE8F0870E20BDE8F0870520BDE85E
:10A2B000F0870620BDE8F0870920BDE8F08700BFE1
:10A2C000B42F00201C300020F8B506460F46FFF7DB
:10A2D00033FAC0B1112918D834250E4C754305F155
:10A2E0000806A019FFF7FAF988B9012303FA07F164
:10A2F000A3590B43A3512C4494F8303043F002038C
:10A3000084F83030F8BD0520F8BD0720F8BD0020E6
:10A31000F8BD00BFB42F0020F8B506460F46FFF782
:10A320000BFAD0B111291AD834250E4C754305F11A
:10A330000806A019FFF7D2F990B1012303FA07F13B
:10A34000A35923EA0103A3512C44002094F8303090
:10A3500043F0020384F83030F8BD0520F8BD072033
:10A36000F8BD00BFB42F00202DE9F0410646154688
:10A370000F46F9B1F2B1FFF7DFF9F0B1124BB5F8C2
:10A3800000803422002402FB06362C800836214649
:10A390003046FFF7A3F938B12B88984510D927F834
:10A3A00013402B8801332B800134082CEFD100207F
:10A3B000BDE8F0810E20BDE8F0810520BDE8F08108
:10A3C0000920BDE8F08100BFB42F002010B504467D
:10A3D000FFF7B2F988B1112911D80A48342303FBD9
:10A3E000040083888B4206D090F83030818043F09F
:10A3F000020380F83030002010BD052010BD07207A
:10A4000010BD00BFB42F002010B5044651B1FFF7B6
:10A4100093F948B1054B342202FB04340020A38891
:10A420000B8010BD0E2010BD052010BDB42F0020E4
:10A43000030605D4012803D0024B18700020704792
:10A4400007207047A42D0020014B1878704700BFEB
:10A45000A42D002010B50446FFF76EF990B10A4A0A
:10A46000342303FB0423187C88421EBF93F830007A
:10A4700040F0020083F83000342303FB0424002062
:10A48000217410BD052010BDB42F002010B5044666
:10A4900051B1FFF751F948B1054B342202FB0434A6
:10A4A0000020237C0B7010BD0E2010BD052010BDB8
:10A4B000B42F002010B50446FFF73EF998B181F0A3
:10A4C00080037E2B11D90A48342303FB0400437C0C
:10A4D0008B4206D090F83030417443F0020380F88C
:10A4E0003030002010BD052010BD072010BD00BF7A
:10A4F000B42F002010B5044651B1FFF71DF948B143
:10A50000054B342202FB04340020637C0B7010BD29
:10A510000E2010BD052010BDB42F002048B9064BF9
:10A520001A888A4206D05A79198042F002025A717A
:10A5300070470520704700BFA02F002021B128B927
:10A54000034B1B880B8070470E2070470520704717
:10A55000A02F002021B128B9034B9B780B707047C6
:10A560000E20704705207047A02F002021B128B988
:10A57000034BDB780B7070470E2070470520704747
:10A58000A02F002010B5044661B1FFF7D5F858B1EF
:10A59000064B342060431A1852884A801B5A0B809D
:10A5A000002010BD0E2010BD052010BDB42F0020CE
:10A5B00073B5019112B310B1052002B070BD4FF612
:10A5C000FF730F4913808B89BDF80650BDF8044016
:10A5D00008462BB94E88AE4202D10988A1420AD062
:10A5E000B0F84030002BE7D1C38EAB42E4D1838E6C
:10A5F000A342E1D1012313800020DEE70E20DCE737
:10A60000B42F002070B5C9B1C2B1C8B90E4B1588BE
:10A6100010801488A54215D993F83060F60706D546
:10A620009E8926B921F81400148801341480013061
:10A63000022803F13403ECD1002070BD0E2070BD60
:10A64000052070BD092070BDB42F002010B5044650
:10A6500051B1FFF771F848B1054B342202FB0434C5
:10A660000020E36A0B6010BD0E2010BD052010BD58
:10A67000B42F002070B50646FFF75EF878B3342497
:10A68000184D7443002204F1140011462C44284450
:10A69000FEF7A8FE304600F0D9F9E08800F0ACFDE6
:10A6A000E27C02F0F8026FF3C702E274A27C0020A1
:10A6B00002F0030260F301024FF6FF73A274A27D61
:10A6C000E380A38094F83030607402F0030260F3FA
:10A6D000010243F00203A27584F8303070BD0520FA
:10A6E00070BD00BFB42F0020112873B5054614D8E3
:10A6F0000024A6B20DF106013046FFF785FE30B901
:10A70000BDF80630AB4202D13046FFF7B3FF01344B
:10A71000022CEED1002002B070BD0720FBE7000044
:10A720002DE9F04F5B4DB5F8703085B0804613B918
:10A73000784606F07BFA4FF6FF73574CDFF868A1B6
:10A74000DFF868B1A5F8723008F57A79002694F838
:10A750002430DBB16369A3EB0903002B1CDA00236F
:10A7600084F82430B5F87030013BA5F8703003A9A7
:10A7700034F8040CFFF76AFF10B1784606F056FA79
:10A78000A369039934F8040C012298470136022E7C
:10A7900004F12C044CD0DAE7E369A3EB0902002AA8
:10A7A00065DAA5F87260214634F8040CFFF7E6FB81
:10A7B0000746E8B1DAF800309B0417D5DBF8003023
:10A7C000042B13DD2F2135480FF00CFBE8B12F21AE
:10A7D00032480FF007FB411C314B324AD3F80435A5
:10A7E00000920197802205200AF026FB082F15D140
:10A7F000236AE2691A445B00E26123626269E369E9
:10A80000D31A002BC2DAE261C0E75C2123480FF0C3
:10A81000E9FA08B15C21DBE72049DDE7042F20D10C
:10A820002C2303FB0656B36B03F51C434033B36381
:10A83000B5F870305BB3B5F87230012B02D97846A9
:10A8400006F0F4F9B5F872302C2202FB03539B6B2F
:10A85000B3EB080248BFA8EB0302EA6005B0BDE80D
:10A86000F08F0F2FDCD0784606F0E0F9C6E7B5F898
:10A8700072204FF6FF718A4206D02C2101FB025252
:10A88000926B9B1A002B81DAA5F872607EE7EB6071
:10A89000E4E700BF3430002050300020B0A50300B2
:10A8A00000100140D5A50300C82D0020C42D0020B4
:10A8B00038B52B4C2C2303FB0043054693F840305E
:10A8C00013B9784606F0B2F9B4F8703013B9784687
:10A8D00006F0ACF92C2202FB0542002382F840303E
:10A8E000B4F87030013B9BB2A4F870308BB3B4F86D
:10A8F0007230AB4232D1936B1A4A1A4494F840300A
:10A9000023B3A36B991A0029B8BF1A464FF6FF73F9
:10A91000B8BF002394F86C1021B1616E8A1A002A26
:10A92000B8BF01234FF6FF729342A4F8723002D1F0
:10A93000784606F07BF9B4F8723009482C2202FB05
:10A940000344A16BBDE8384008F099BD4FF6FF7392
:10A95000E0E70348BDE8384008F07ABD38BD00BFE5
:10A9600034300020008793030128F8B505460E46D1
:10A97000174602D9784606F059F909F087FA134BC1
:10A9800093F8402012B11A8BAA421DD093F86C2084
:10A99000B2B1B3F84420AA4212D101202C2404FB06
:10A9A00000343388A28D9A420AD1E28D73889A428C
:10A9B00006D1FFF77DFF636B002239462846984792
:10A9C000BDE8F84009F0A2BA0020E7E734300020E3
:10A9D00010B5044C7422002120460FF02FF9024BD1
:10A9E000A36010BD3430002021A70200F7B509F0A4
:10A9F0004DFA1448B0F8703023B10023A0F870303D
:10AA000008F026FD104C04F1580694F8283093B154
:10AA10002588E76900212C2220460FF00FF901A9B3
:10AA20002846FFF713FE10B1784606F0FFF8022221
:10AA300001992846B8472C34B442E6D109F066FAA9
:10AA400003B0F0BD343000204C300020012873B535
:10AA500005462DD8174C09F019FA94F8403013B177
:10AA6000238BAB4220D094F86C30FBB1B4F8443067
:10AA7000AB421BD101263046FFF71AFF01A9284639
:10AA8000FFF7E4FD10B1784606F0D0F82C2303FB65
:10AA900006440222636B019928469847002409F076
:10AAA00035FA204602B070BD0026E4E70524F6E73B
:10AAB0000524F6E73430002038B5084D2C680CB971
:10AAC000012038BD04F11C00FFF724F8296828464E
:10AAD0000AF039F920460BF0F2FDEFE7AC30002028
:10AAE00001F088BB08B5034809F040FA024B186032
:10AAF00008BD00BFB9AA0200A830002038B505463D
:10AB0000808944300BF0D9FD044600282FD005235E
:10AB100003712B6883606B68C36100F144030362B7
:10AB2000AA898284012280F82820EA89428505F1D9
:10AB3000100100F1300203C982E803002A7E84F884
:10AB400038206A8B6287221DE263AA8BA4F840201A
:10AB5000AA89A96818460FF066F8214605480AF048
:10AB6000D1F8054B186809F01FFA002038BD042001
:10AB700038BD00BFAC300020A83000204A090123B6
:10AB800001F01F0103FA01F150F82230194214BFFD
:10AB90000120002070474A09012301F01F0103FA38
:10ABA00001F150F822300B4340F8223070474A0937
:10ABB000012301F01F0103FA01F150F8223023EACA
:10ABC000010340F822307047A0F1200189B2072923
:10ABD00002D80248FFF7D2BF00207047C0300020E3
:10ABE0002DE9F0474FF6FF73DFF84480DFF844901B
:10ABF0000B8007460D4600241E464FF0A80A21464A
:10AC00004046FFF7BBFF40B10AFB04F333F80930BD
:10AC1000BB4206D12C80BDE8F0872B88B34208BF29
:10AC20002C800134082CEAD10020BDE8F08700BF59
:10AC300098330020A03300202DE9F0474FF6FF7332
:10AC4000DFF84880DFF848900B8007460D46002467
:10AC50001E464FF0160A21464046FFF78FFF48B1C7
:10AC60000AFB04F333F80930BB4209D108342C80C5
:10AC7000BDE8F0872B88B34204BF04F108032B80A2
:10AC800001340A2CE7D10020BDE8F087A032002073
:10AC9000A83200202DE9F0474FF6FF73DFF844801B
:10ACA000DFF844900B8007460D4600241E464FF007
:10ACB0002A0A21464046FFF761FF40B10AFB04F330
:10ACC00033F80930BB4206D12C80BDE8F0872B88D1
:10ACD000B34208BF2C800134082CEAD10020BDE823
:10ACE000F08700BF483100205031002010B50446E5
:10ACF00010B9784605F09AFF0B4B002293F84210EA
:10AD000090B231B19C420DD003F121018C4202D1AD
:10AD100010BD9C4206D00132082A03F1A803EDD1F0
:10AD20004FF6FF7010BD00BFC23300202DE9F04781
:10AD30004FF6FF760E80144607460D4607F09CFF3F
:10AD4000022820701FD1DFF87480DFF874A000247F
:10AD50004FF014092B88B3420BD121465046FFF720
:10AD60000DFF30B92C800134082CF3D10020BDE850
:10AD7000F08709FB04F333F80830BB42F3D12C8091
:10AD80000120BDE8F08700F0FD000128EED1DFF8DA
:10AD90003480DFF8349000242B88B34209D1214657
:10ADA0004846FFF7EBFE20B92C800134202CF3D16C
:10ADB000DCE738F82430BB42F7D1E0E7E038002088
:10ADC000C0300020C8300020B03000202DE9F0470E
:10ADD0004FF6FF73DFF84C80DFF84C900B8007468E
:10ADE0000D4600244FF0140A21464046FFF7C6FEE8
:10ADF000064650B92A884FF6FF739A4200D12C803C
:10AE00000134082CF0D1002609E00AFB049010223E
:10AE1000394604300EF0F8FE0028F1D12C8030467F
:10AE2000BDE8F087C0300020E03800202DE9F3476E
:10AE30004FF6FF7688461446ADF806608146002836
:10AE40003ED000293CD00DF10601FFF7BFFFBDF851
:10AE5000063003F12005ADB2F0B9B34232D0A5F10E
:10AE6000200714267E43DFF868A0301D49461022D3
:10AE700050440EF0D8FE0AEB0601484609F00CFFDC
:10AE800010B1784605F0D2FE39460F48FFF783FE31
:10AE900039460E48FFF77FFEBDF806300C4AA8F889
:10AEA0000050142101FB032334B9DA780132DA703F
:10AEB000002002B0BDE8F0879A7801329A70F7E777
:10AEC0000E20F6E70420F4E7C0300020C430002054
:10AED000E038002008B528B9784605F0A7FE4FF6FF
:10AEE000FF7008BD064B9842F9D303F59362904278
:10AEF000F5D8C01AA823B0FBF3F080B208BD00BF9C
:10AF00001034002008B528B9784605F08FFE4FF6BA
:10AF1000FF7008BD0C4B984209D303F59372904221
:10AF200005D8C01A2A23B0FBF3F080B208BD074B46
:10AF30009842ECD303F1C6029042E8D8C01A162317
:10AF4000B0FBF3F00830F0E754310020AC320020C1
:10AF500041090B4A00F01F004FF0FF33834052F8C5
:10AF60002100034009D05A421A40064B5343DB0EDE
:10AF7000054AD05C00EB411070470820704700BFC5
:10AF80009833002031B57C07F7A503001F2810B5C2
:10AF9000044608D801460648FFF7F0FD18B1012025
:10AFA00000F0010010BD2046FFF70EFEF8E700BFDD
:10AFB000B03000201F28014602D80248FFF7DEBD4E
:10AFC00000207047B030002070B50446FFF7F2FF54
:10AFD000054670B1134E06EB84039878F0B9DD781E
:10AFE00035B921461048FFF7E2FD26F824502846DF
:10AFF00070BD2046FFF7E8FD90B1A4F120010B4E93
:10B0000014244C43331998780028F0D1DD78002DB2
:10B01000EED10748FFF7CBFD3553E8E7002070BDC0
:10B02000052070BDC8300020B0300020E03800207E
:10B03000C03000200020704710B500231A48194680
:10B04000C2180433802BD1709170F9D100231749B5
:10B050001C46CA181433A02BD4709470F9D1042262
:10B06000002113480EF0EAFD0422002111480EF0E1
:10B07000E5FD0422002110480EF0E0FD042200212D
:10B080000E480EF0DBFD042200210D480EF0D6FD27
:10B09000042200210B480EF0D1FD0B4B1C805C807C
:10B0A0000A4B1C7010BD00BFC8300020E0380020E3
:10B0B000B8300020B0300020C0300020983300208D
:10B0C00048310020A0320020863300208433002045
:10B0D0000248034B036007F0A5BF00BF8C3300207C
:10B0E000E1B8020070B5044610B9784605F09EFD3F
:10B0F000154E306810F0010523D120886388034481
:10B10000984201DB0B2070BD07F0B6FD0128F9D194
:10B11000208863881844013880B207F0ADFD01280B
:10B12000F0D10422214609480EF07DFD3368084A1B
:10B1300043F001033360136843F0010313602846B2
:10B1400070BD0F2070BD00BFB830002086330020D6
:10B15000BC30002010B5044610B9784605F066FDF5
:10B16000204604220249BDE810400EF05CBD00BF3D
:10B170008633002073B506460D4689B30DF10502EE
:10B180000DF10601FFF7D2FD9DF8053003F0FD0338
:10B19000012B20D1A0B9BDF806404FF6FF739C42A9
:10B1A0001CD0104B23F8246003EB84032146D87095
:10B1B00098700D48FFF7EFFC21460C48FFF7EBFCB9
:10B1C000BDF80620074B2A8003EB820300209A7803
:10B1D00001329A7000E0102002B070BD0420FBE73D
:10B1E0000E20F9E7C8300020B0300020B430002035
:10B1F0000122FFF71BBE000010B50446FFF7DAFE80
:10B2000050B10C4B03EB84039A78013A9A702046B4
:10B21000BDE81040FFF7D8BE2046FFF7D5FC30B19F
:10B22000054AA4F12003142101FB0323ECE70520C8
:10B2300010BD00BFC8300020E038002073B50646BE
:10B240000D4679B30DF105020DF10601FFF76EFD14
:10B250009DF80530032B20D1A0B9BDF806404FF66C
:10B26000FF739C421CD0104B23F8246003EB840333
:10B270002146D87098700D48FFF78DFC21460C4888
:10B28000FFF789FCBDF80620074B2A8003EB8203F9
:10B290000020DA780132DA7000E0102002B070BDD0
:10B2A0000420FBE70E20F9E7C8300020B030002072
:10B2B000B43000200022FFF7B9BD000070B506468B
:10B2C0000D4601B3FFF776FE044658B1104B33F834
:10B2D00026206A8033F8260007F0CEFC2870002074
:10B2E000686070BD3046FFF76FFC70B1203E1420DF
:10B2F000084B70431A5A6A8004301844022368606D
:10B300002B70204670BD0E2070BD052070BD00BFA3
:10B31000C8300020E038002013B50446FFF736FEA1
:10B3200008B369462046FFF7C9FFC0B99DF8003051
:10B33000032B0BD10D4B03EB8403DA789AB1013A5E
:10B34000DA702046FFF740FE02B010BD022B08D194
:10B35000074AA4F12003142101FB0323EDE7002099
:10B36000F2E70F20F0E70520EEE700BFC83000202D
:10B37000E03800202DE9F0410E46074660B359B38E
:10B380000025DFF85C802C4629464046FFF7F6FB97
:10B3900040B13368A34202D10920BDE8F08127F80B
:10B3A000145001340135202DEED1DFF8388000250E
:10B3B00029464046FFF7E2FB38B13368A342EBD0A1
:10B3C00005F1200327F8143001340135082DEFD1A1
:10B3D00034600020BDE8F0810E20BDE8F08100BFA0
:10B3E000B0300020C03000202DE9F7430D46044660
:10B3F00000283CD000293AD0408807F03DFC0228C4
:10B4000024D0032801D0012833D14FF6FF73DFF891
:10B410006880DFF8689067882B8000241E462146EC
:10B420004046FFF7ABFB40B139F82430BB4208D1AE
:10B430002C80002003B0BDE8F0832B88B34208BF06
:10B440002C800134202CEAD10520F3E760684FF608
:10B45000FF73ADF8063050B10DF10601FFF7B6FCF1
:10B460000028F1D0BDF8063020332B80E1E70E2014
:10B47000E0E71020DEE700BFB0300020C830002039
:10B4800007B50DF10601FFF7ABFB20B1BDF80600D3
:10B4900003B05DF804FB4FF6FF70F9E708B1FFF762
:10B4A00025BC4FF6FF70704707B50DF10601FFF799
:10B4B000F1FB20B1BDF8060003B05DF804FB4FF6C8
:10B4C000FF70F9E708B1FFF71DBD4FF6FF70704739
:10B4D00038B504460D4669B107280DD8014607481E
:10B4E000FFF74CFB40B12A206043054B1B5A2B80D1
:10B4F000002038BD0E2038BD052038BD4831002061
:10B5000050310020112870B504460E4645D8002958
:10B5100041D0072821D801462148FFF72FFB0028FA
:10B520003BD0204D2A2303FB04535B88072B02D911
:10B53000784605F07BFB2A2303FB04531A485988FD
:10B54000FFF71CFB10B9784605F070FB2A2303FBBC
:10B55000045400206388338070BDA0F108042146A4
:10B560001248FFF70BFBC0B1114D162303FB045328
:10B570005B88072B02D9784605F058FB162303FB9E
:10B58000045309485988FFF7F9FA10B9784605F0CD
:10B590004DFB1623DBE70E2070BD052070BD00BFFC
:10B5A000483100205031002098330020A032002084
:10B5B000A83200202DE9F843804691460F46002925
:10B5C00068D0002A66D0B0F5805F66D21146FFF7DA
:10B5D00007FBB9F8006070B1334BA82000FB0630C0
:10B5E0001022394602300EF00FFB002814BF0F2046
:10B5F0000320BDE8F8834FF6FF739E4250D02A4CDB
:10B60000A8257543621905F1680323445367B8F10F
:10B61000000F02D1254B01221A7005F122012144AD
:10B62000384609F000FB10B1784605F0FFFA05F145
:10B6300078012144384609F007FB10B1784605F03F
:10B64000F5FAA81C3946102220440EF0ECFA05F158
:10B650001200A8271022002120440EF0EFFA07FB69
:10B6600006F3E218002524F8038082F8645031467E
:10B670000F48FFF790FA31460E48FFF78CFAB9F8F9
:10B68000001007FB01414046883107F0D2FC2846F4
:10B69000BDE8F8830E20BDE8F8830720BDE8F883F5
:10B6A0000420BDE8F88300BFA033002084330020CD
:10B6B000983300209C330020072838B504460D46F7
:10B6C0000DD801460748FFF759FA40B1064BA822AA
:10B6D00002FB0434002094F864302B7038BD052040
:10B6E00038BD00BF98330020A03300202DE9F04181
:10B6F0000646884600294BD007284CD801462748E3
:10B70000FFF73CFA002846D0254BA82474431A19A9
:10B710001D4692F8642062B1012A07D104F112009B
:10B720001022414618440EF06FFAA8B30820BDE875
:10B73000F08104F112071F444146102238460EF0F2
:10B7400072FA04F143012944404609F06CFA10B141
:10B75000784605F06BFA04F190012944384609F067
:10B7600073FA10B1784605F061FAA8237343E9181B
:10B77000012281F8642004F1A001E85A294407F06D
:10B780009FF831460748FFF706FA0020BDE8F08130
:10B790000E20BDE8F0810520BDE8F081983300203F
:10B7A000A03300209C330020072810B504461BD886
:10B7B00001460F48FFF7E2F9B0B10E48A8236343F2
:10B7C000C11891F86420012A10D1022281F8642066
:10B7D00003F1A0010144C05A07F072F8214606485F
:10B7E000FFF7D9F9002010BD052010BD082010BDBD
:10B7F00098330020A03300209C33002007282DE937
:10B80000F04107465AD801462F48FFF7B7F90028FC
:10B8100054D02E4EA8247C4306EB040898F86430DC
:10B82000002B4ED004F11201A01C314410223044F0
:10B830000EF0F9F904F1430104F122003144212210
:10B8400030440EF0F0F904F1900104F17800314435
:10B85000182230440EF0E7F9002504F1880188F839
:10B860006450305BDFF874802A46314407F028F8D2
:10B870002C46174E174D21462846FFF77FF988B111
:10B8800036F8023CBB420DD1B37C5BB106F113012B
:10B89000122230460EF0C7F90023B3742146404609
:10B8A000FFF779F90134082C06F12A06E3D139466D
:10B8B0000948FFF770F90020BDE8F0810520BDE8D8
:10B8C000F0810820BDE8F08198330020A0330020EB
:10B8D00054310020483100209C3300204C3100209E
:10B8E00070B50378042B1ED144688668457E2046D7
:10B8F000FFF7F0FA4FF6FF72904214D02034A642C0
:10B9000011D1094AA82101FB002393F864302DB11D
:10B91000012B08D1BDE87040FFF746BF1BB1BDE861
:10B920007040FFF76BBF70BDA03300202DE9F047DA
:10B930000D46064600B3F9B10024DFF84880DFF871
:10B9400048900F680C604FF0A80A21464046FFF768
:10B9500015F958B12B689F4211D00AFB04F232F856
:10B96000092026F813202B6801332B600134082CA2
:10B97000EBD10020BDE8F0870E20BDE8F08709205C
:10B98000BDE8F08798330020A03300202DE9F04F68
:10B99000814685B00F4698469346002A3DD0002B3D
:10B9A0003BD007F069F90128824638D1072F38D8F3
:10B9B00039461F48FFF7E2F898B30DF10E014846EB
:10B9C000FFF73AF9044670BBBDF80E504FF6FF730F
:10B9D0009D422AD0083D1626164B01936E43B01D9A
:10B9E0001022594618440EF01EF9019B124823F804
:10B9F00006909A192946547182F804A05780FFF7DF
:10BA0000CAF80E482946FFF7C6F8BDF80E30A8F868
:10BA10000030204605B0BDE8F08F0E20FAE7102078
:10BA2000F8E70520F6E70F20F4E70420F2E700BF6F
:10BA300098330020A8320020A0320020A432002039
:10BA4000083838B585B2092D0FD829460848FFF7C0
:10BA500095F850B116236B43064A05480024D4528A
:10BA60002946FFF7A4F8204638BD052038BD00BFA1
:10BA7000A0320020A83200202DE9F04706460F46EC
:10BA80001C469146002A55D0002B53D0072954D884
:10BA90002E48FFF773F800284FD0B6F5805F4FD2DD
:10BAA00021463046FFF7F6F8B4F80080824670B1C0
:10BAB000274B2A2000FB08301022494606300EF0A2
:10BAC000A3F8002814BF0F200320BDE8F0874FF62D
:10BAD000FF73984537D02A2505FB08F51C4CA81D97
