:1000000000000420750300005D0300005F03000092
:1000100061030000630300006503000000000000AE
:100020000000000000000000000000006703000066
:1000300069030000000000006B0300006D03000076
:100040006F0300006F030000210800006F03000031
:100050006F0300006F0300006F0300006F030000D8
:100060006F0300006F0300006F0300006F030000C8
:100070006F0300006F0300006F0300006F030000B8
:100080006F0300006F0300006F0300006F030000A8
:100090006F0300006F0300006F0300006F03000098
:1000A0006F0300006F0300006F0300006F03000088
:1000B0006F0300006F03000000000000000000005C
:1000C0006F0300006F0300006F0300006F03000068
:1000D0006F0300006F0300006F0300006F03000058
:1000E0006F0300006F0300006F03000000000000BA
:1000F000000000006F030000000000006F0300001C
:1001000000000000000000000000000000000000EF
:1001100000000000000000000000000000000000DF
:1001200000000000000000000000000000000000CF
:1001300000000000000000000000000000000000BF
:1001400000000000000000000000000000000000AF
:10015000000000000000000000000000000000009F
:10016000000000000000000000000000000000008F
:10017000000000000000000000000000000000007F
:10018000000000000000000000000000000000006F
:10019000000000000000000000000000000000005F
:1001A000000000000000000000000000000000004F
:1001B000000000000000000000000000000000003F
:1001C000000000000000000000000000000000002F
:1001D000000000000000000000000000000000001F
:1001E000000000000000000000000000000000000F
:1001F00000000000000000000000000000000000FF
:10020000354936480A1A02D0072291438D463449AF
:1002100034480A1A06D00722914381F30988022242
:1002200082F3148830483149314A00F044F83148AB
:100230003149324A00F03FF831483249324A00F041
:100240003AF832483249334A00F035F832483349F7
:10025000334A00F030F833483349344A00F02BF881
:1002600033483449344A00F026F8344834490022EF
:1002700000F02CF833483449002200F027F83348C6
:100280003349091A082902DB002202604160314A21
:1002900090471F481F49884205D00268043003B4C4
:1002A000904703BCF7E700208646EC46002000217B
:1002B000294A9047FEE7884207D0521A05D00378B2
:1002C00001300B700131013AF9D17047884202D0F8
:1002D00002700130FAE770470000042000E00320BC
:1002E0000000042000000420341D00000000002055
:1002F00020000020D4030000D4030000C41C000030
:10030000341D00000000002000000020C41C00007C
:10031000C41C0000C41C0000C41C0000C41C00005D
:10032000C41C0000C41C0000C41C0000341D0000DC
:10033000541D00002000002020000020200000208C
:10034000C0020020C0020020C0020020C002002025
:10035000C02200209D030000F9110000FEE7FEE727
:10036000FEE7FEE7FEE7FEE7FEE7FEE7FEE7FEE765
:10037000704700BF1048804710484FF0070188437E
:1003800085460F4880470F48016841F470010160BD
:10039000BFF34F8FBFF36F8FFFF732BF0A480B4990
:1003A0000B4A884207D0521A05D0037801300B70EF
:1003B0000131013AF9D170477103000000000420B7
:1003C0008D12000088ED00E0C41C00000000002039
:0403D0000000002009
:1003D400074B1B5C1F2B86BF03F01F0305494FF01F
:1003E400A041012202FA03F3C1F80835704700BFA7
:1003F400C41C00000003005008B50020FFF7E8FF0C
:100404000120FFF7E5FF0220FFF7E2FF0320BDE82C
:100414000840FFF7DDBF0000C20710B504460BD546
:100424000D4B0322C3F80027C3F80C27C3F8042795
:10043400C3F80827FFF7E0FFA3070BD5064A0C23F0
:10044400C2F82C37C2F83437C2F83C374FF0A04218
:10045400C2F80C3710BD00BF000300501FB50021C7
:10046400039001AA44F20100CDE9011100F004F85F
:1004740005B05DF804FB000072B6094B1B68DB078E
:1004840000D500BEBFF34F8F0649074BCA6802F47C
:10049400E0621343CB60BFF34F8F00BFFDE700BFA3
:1004A400F0ED00E000ED00E00400FA0549B152B1BE
:1004B400531E1A4007D1826001608380C2601046D7
:1004C40070470E2070470920704710B58468C268D1
:1004D4008388121B934208D3C26813400268D15424
:1004E400C3680133C360002010BD0420FCE78268A8
:1004F400C3689A420AD08268838813400268D35C36
:100504000B708368013383600020704705207047B7
:100514000648074A03780749D35C012213B1043023
:1005240000F0F2BD0C3000F0B7BB00BF00000020AB
:1005340060000020480000200648074A0378074965
:10054400D35C012213B1043000F08EBD0C3000F0F6
:100554004DBB00BF000000206000002049000020C7
:1005640037B50578012D05D0002D30D0022D23D0CC
:1005740003B030BD43681C4C19782046FFF7A5FF33
:1005840078B18DF800500190184B68461B68984765
:10059400A168E368A2885B1A9A4209D3FFF7B8FFFF
:1005A400E6E7A268E3689A42F2D08DF80000EBE730
:1005B4000F4B01221A70DBE7C3688DF800500193DA
:1005C400FFF7A6FF094B68461B689847D0E709491F
:1005D4000948FFF78CFF10B9FFF7AEFFC8E7032304
:1005E4008DF80030EEE700BF24000020200000203A
:1005F400340000204900002038000020F0B51F46D8
:10060400234B89B006461A600C4600293DD08A88DF
:1006140020480968FFF74AFF002834D1A289A1685D
:100624001D48FFF743FF00282DD11C4D0FCD6C460C
:100634000FC495E80F0084E80F0073690693337CB8
:10064400174A18488DF81C70003318BF01238DF821
:100654001430737C002B14BF0E2300238DF8153047
:10066400F3680293B368039333680193694673682C
:10067400009300F095F830B90B4B187033680133D0
:1006840001D0FFF745FF09B0F0BD0720FBE700BF2D
:10069400200000202400002038000020C81C000096
:1006A40065050000000000203400002010B501465C
:1006B4000E48FFF70AFF0446A8B90D480D4A03780F
:1006C400D35C63B1043000F013FD60B90A490748F4
:1006D400FFF70DFF38B9BDE81040FFF72DBF0C3010
:1006E40000F0CEFAF1E7204610BD00BF380000202C
:1006F40000000020600000204900002072B6024A79
:1007040013680133136070474C000020034A1368D8
:10071400013B136003B962B6704700BF4C00002070
:10072400FFF7ECBFFFF7F2BF10B50446C0B2FFF706
:10073400BDFF204610BD00001FB503788DF80030C2
:1007440043680193037A8DF80830C3680393054A1C
:10075400054B684653F8213052F82110984705B0EC
:100764005DF804FB50000020580000201FB50378FA
:100774008DF800304368019383688DF80830C368AE
:100784000393054A054B684653F8213052F821106B
:10079400984705B05DF804FB500000205800002085
:1007A400F0B5194B0678DFF870E043F82620174BB4
:1007B40094460A6943F826204B7F0EF806300C460F
:1007C40007460FCC89B06D460FC594E80F0085E845
:1007D4000F001EF80630049653B1BCF1000F0C4A0A
:1007E400694608BF0022381D00F05CFB09B0F0BD6B
:1007F400BCF1000F074A694608BF002207F10C004C
:1008040000F01AF9F2E700BF580000205000002061
:100814003D0700007107000060000020014B1B68C9
:10082400184700BF6400002038B50B4B98420D46B2
:1008340001D0002038BD0020FFF772FF074B1C7960
:1008440014B901221D601A710020FFF76BFF002C00
:10085400EFD01120EEE700BF00200040640000202C
:100864000023435082B043580193019B02B0704768
:100874000A4610B54FF48E71FFF7F2FF136A9168C0
:10088400C95C136A01331362C0F81C1510BD02461B
:1008940008B54FF492710068FFF7E2FF4FF48471DA
:1008A4001068FFF7DDFF136801221A6008BD8B6929
:1008B4000A4610B54FF4847123B9FFF7D1FFD0F87D
:1008C400183510BDFFF7CCFF536AD168D0F818056E
:1008D400C854536A01335362F3E700001FB5012380
:1008E4008DF80030044BCDE90110D3E900126846BD
:1008F400904705B05DF804FB6C00002030B54C4A0D
:10090400D2F8043313F4007F85B015464FD0D2F8E3
:100914002431002B4BD04FF492711046FFF7A0FF07
:100924004FF40173C2F80833424B93F8291009B904
:10093400012151603E4902228DF80020D1F8802423
:10094400C1F8802403929A690292DA680192002223
:10095400C3E906226846D3E9001290473448D0F828
:100964001C315BB133490A6A4B699A420A464BD23D
:1009740091F82830002B47D1FFF77AFF2C4AD2F8A0
:10098400443193B14FF4A2711046FFF769FF294B2C
:1009940093F8291009B1012111609A692AB1002242
:1009A4009A61586AD968FFF799FF05B030BDD5F848
:1009B40004335B07D2D5D5F80831002BCED01D4CBB
:1009C4001B482146FFF773FF636AA2699A422346D4
:1009D400C4D1E269E1684AB12369E3600023606A33
:1009E400A261E3616362FFF779FFB7E794F8292016
:1009F4000AB901226A600E4A4FF40170C2F8080372
:100A040000229A61586AEEE74FF48E710848FFF7A6
:100A140027FF51690029B1D00023029191688DF814
:100A24000030019153616846D2E900139847A5E765
:100A3400002000406C0000202DE9F843664B047947
:100A440091462C2202FB0432064692F82A200D46D7
:100A54009846002A40F0BC8060490068FFF7E4FE35
:100A64000746002840F0B68029684A1C10D01F2988
:100A740087BF01F01F035A4A0B464FF0A0420120E2
:100A8400984003F5E073C2F80805032042F82300F8
:100A94006868431C0DD01F288BBF00F01F0303465A
:100AA4004F4A4FF0A04203F5E0734FF0000C42F8B8
:100AB40023C03368AA6995F814C0C3F824256A7D55
:100AC400BCF1010F4CEA0202C3F86C25C3F814050B
:100AD400C3F80C152BD1A968481C0DD01F298BBF56
:100AE40001F01F020A463E484FF0A04002F5E072B2
:100AF4004FF0000C40F822C0E868421C13D01F28B5
:100B040087BF00F01F0C364A84464FF0A0424FF0D6
:100B1400010E0EFA0CFE0CF5E07CC2F808E54FF06D
:100B2400030E42F82CE0C3F80805C3F810152C2373
:100B3400634308EB0302C2F804902A6948F80320CF
:100B4400B9F1000F31D04FF48E7130682D7FFFF76B
:100B540087FE30684FF4A271FFF782FE3268214BA2
:100B6400C2F80433120B53B2002BA8BF03F1604048
:100B74004FEA53134FEA4511BABF1B4802F00F0561
:100B840000F561404FEA8303C9B203F16043B4BF87
:100B9400415580F8001303F5614302F01F0201215F
:100BA40001FA02F2C3F880211A6033680422C3F800
:100BB40000252C2303FB04830022C3E9062283F8C7
:100BC40029205A61012283F82A203846BDE8F88397
:100BD4000827FAE71127F8E76C0000200109000054
:100BE400000300508000020014ED00E02DE9F843FA
:100BF400224F06794FF02C0909FB0674804665697B
:100C0400002D37D16261A16025624FF48E710068B6
:100C140084F82850FFF724FED8F8000001238360ED
:100C24002146FFF725FE6368A1462BBBD8F8005088
:100C3400226A63699A4212D3D8F80030D3F81C218F
:100C4400002AFBD00122DA6000202C2303FB067665
:100C540000237361BDE8F88394F8283043B9D5F8CC
:100C64001C31002BF8D049462846FFF701FEDFE788
:100C74000F20EAE71120EDE72846EBE76C0000209F
:100C84000379044A2C2101FB03235869003018BF5F
:100C9400012070476C0000202DE9F843384E057997
:100CA4002C2303FB056307465C6824B103684FF4F7
:100CB4000170C3F808032C2303FB0563986950B142
:100CC400D86900283ED024B13B684FF40172C3F8C0
:100CD4000423112034E09A61D9605862D8612C232E
:100CE40003FB056393F829301BB910B93846FFF7A5
:100CF400CEFD4FF02C0909FB05683868D8F804309C
:100D0400002B34D14FF4A271FFF7AAFDC146386815
:100D1400D0F82431D0F80821D0F84441B2B90CB944
:100D2400002BF4D02C2202FB05650022AA611BBB18
:100D340024BB95F829103B680122B1B11A60002048
:100D4400BDE8F8831961DA610120C8E7002BE9D115
:100D5400002CE7D14946FFF7AAFDD8F82430D8F88B
:100D640018209A42D3D82346DCE75A60E7E74FF4C9
:100D74000173C0F80433E2E70320E1E70F20DFE763
:100D84006C0000200023435082B043580193019B20
:100D940002B070471FB501238DF80030054B8DF864
:100DA400080001916846D3E90012904705B05DF848
:100DB40004FB00BF980000207FB5384AD2F82461B4
:100DC400002E49D010464FF49271FFF7DBFF022347
:100DD4008DF80030D2F88034C2F880340393D2F80E
:100DE4003C358DF808302E4BDA6801920022C3E9B5
:100DF40006226846D3E900129047284AD2F84431C3
:100E040073B14FF4A2711046FFF7BCFF244B9969EC
:100E140031B100219961D2F83C05D968FFF7BAFFD6
:100E24001E4AD2F82031ABB14FF490711046FFF74F
:100E3400A9FF1B4B596969B1D2F84C158DF80810FC
:100E4400002299688DF8002001915A616846D3E91F
:100E54000012904704B070BDD2F81031002BCCD0F2
:100E64004FF488711046FFF78DFF0D4BD2F83C0507
:100E740099698842C1D1DC69D96864B1D2F8005259
:100E840025F02005C2F800521A699C61DA60DE611F
:100E9400FFF780FFB1E79C61FAE700BF0020004044
:100EA400980000202DE9F8436A4B067991462422E4
:100EB40002FB0632044692F820200D469846002A8A
:100EC40040F0C48064490068FFF7AEFC0746002880
:100ED40040F0BE802868421C10D01F2887BF00F055
:100EE4001F035E4A03464FF0A0420121994003F5D7
:100EF400E073C2F80815032142F8231069684B1CFB
:100F04000DD01F298BBF01F01F030B46534A4FF02E
:100F1400A04203F5E0734FF0000C42F823C02368AD
:100F2400AA6995F814C0C3F824256A7DBCF1010FA1
:100F34004CEA0202C3F86C25C3F80C05C3F8141577
:100F44002BD1A968481C0DD01F298BBF01F01F02AB
:100F54000A4642484FF0A04002F5E0724FF0000C00
:100F640040F822C0E868421C13D01F2887BF00F055
:100F74001F0C3A4A84464FF0A0424FF0010E0EFA7D
:100F84000CFE0CF5E07CC2F808E54FF0030E42F8C5
:100F94002CE0C3F80805C3F810152423734308EBA9
:100FA4000302C2F804902A6948F80320B9F1000F3B
:100FB4003BD04FF4887120682D7FFFF7E3FE4FF498
:100FC40090712068FFF7DEFE4FF492712068FFF7FE
:100FD400D9FE20684FF4A271FFF7D4FE2268204B9B
:100FE400C2F80433120B53B2002BA8BF03F16040C4
:100FF4004FEA53134FEA4511BABF1A4802F00F05DE
:1010040000F561404FEA8303C9B203F16043B4BF02
:10101400415580F8001303F5614302F01F020121DA
:1010240001FA02F2C3F880211A6023680822C3F887
:101034000025242303FB06830022C3E906225A6108
:10104400012283F820203846BDE8F8830827FAE710
:101054001127F8E798000020BD0D000000030050A0
:101064001003020014ED00E001F06043B3F1005FEF
:101074002DE9F041074632D11C4B0679242505FBA6
:10108400063598466C6964BB6A61A96000684FF4D0
:101094009071FFF777FE4FF4AC713868FFF772FE7A
:1010A4003B686A69A968C3F84415C3F84825012256
:1010B4009A606A68BAB9D3F82011D3F8582149B9AB
:1010C400002AF8D00F20242303FB06860023736133
:1010D400BDE8F081002A14BF0F200020F3E71020A0
:1010E400F6E71120F4E72046F2E700BF980000205D
:1010F4000379044A242101FB03235869003018BFF3
:101104000120704798000020F8B501F06043B3F166
:10111400005F04460F465FD10379304D242101FB63
:101124000351486820B121684FF40476C1F808637C
:10113400242101FB03539E6956B1D96900293AD091
:1011440020B123684FF40472C3F80423112031E062
:101154009A61DF60DE614FF488712068FFF712FE48
:101164004FF4A2712068FFF70DFE2368C3F83475AD
:10117400C3F838251EBB01221A602179242202FB00
:101184000152526812BBD3F81001D3F84421D3F8AA
:101194002441104302D1002CF5D00246242303FB42
:1011A400015500239C4214BF032018469A42AB61A8
:1011B40018BF0F20F8BD1F61DA610126CBE7D3F811
:1011C400002242F02002C3F80022D6E74FF4047252
:1011D400C3F804230020EDE71020EBE7980000207B
:1011E4000378022B02D14068FFF738B9012BFAD0FB
:1011F4007047000030B5164D8BB00120FFF70CF995
:101204000FCD04AC0FC495E80300124B124A0093AF
:101214004FF4807384E80300CDE9022301930F4A5D
:101224000723694604A8FFF7E9F908B1FFF716F99F
:101234000B4D00242878FFF739FA0028FAD101343D
:10124400062C05F10105F5D1064800F02FF9FEE75B
:10125400E81C0000BC000020BC010020E5110000D7
:1012640014000020001D0000054B1B68082B01BF63
:10127400044B1868B0FA80F0400918BF002070478A
:10128400300100103401001008B54FF080430022F3
:10129400C3F80C21C3F81021C3F838254FF080524D
:1012A40003F54043D2F80414C3F82015D2F8081407
:1012B400C3F82415D2F80C14C3F82815D2F8101466
:1012C400C3F82C15D2F81414C3F83015D2F8181436
:1012D400C3F83415D2F81C14C3F84015D2F82014FE
:1012E400C3F84415D2F82414C3F84815D2F82814C6
:1012F400C3F84C15D2F82C14C3F85015D2F8301496
:10130400C3F85415D2F83414C3F86015D2F838145D
:10131400C3F86415D2F83C14C3F86815D2F8401425
:10132400C3F86C15D2F84424C3F87025FFF79CFF6A
:1013340010B1384B384A1A60FFF796FF18B1374B93
:10134400FB22C3F81825FFF78FFF48B13449354B0A
:101354000A681B6822F00F0203F00F0313430B60AB
:10136400FFF782FF18B1304B4FF400721A604FF050
:101374008043D3F80024D20744BF6FF00102C3F8BE
:1013840000242A4AD2F8883043F47003C2F8883023
:10139400BFF34F8FBFF36F8F4FF01023D3F80022AA
:1013A400002A03DBD3F80432002B2FDA204B01226E
:1013B400C3F80425D3F80024002AFBD04FF01022F0
:1013C4001221C2F80012D3F80024002AFBD04FF0F7
:1013D40010231222C3F80422154B1A46D3F8001422
:1013E4000029FBD00021C3F80415D2F80034002BE7
:1013F400FBD0BFF34F8F0D490E4BCA6802F4E06275
:101404001343CB60BFF34F8F00BFFDE70A4B0B4A7A
:101414001A6008BD8C5600404881030000F000406B
:10142400E40E0040580200104096024000ED00E037
:1014340000E001400400FA051C0000200090D003E5
:1014440038B504460846A26842B1236861685D1C49
:101454008D4208BF00208B4208D2D054E3682BB1E0
:1014640021686268914201D221469847236801337A
:10147400236038BD70B54C1E09D41646C5B2294642
:101484003046FFF7DDFF013CB4F1FF3FF7D170BDFB
:1014940010F0100F09D108B500F40070002814BF33
:1014A40030202020FFF7E6FF08BD70470FB410B5C9
:1014B40086B008AB53F8044B0593002303936FF0F5
:1014C40000430293084B049300F051F8059A214617
:1014D40001A800F04FF8044600F04AF8204606B090
:1014E400BDE8104004B070472D070000037853B1E5
:1014F40059B10144034613F8012F12B18B42FAD1BA
:101504000B46181A70470346FBE70346F9E700F158
:10151400010110F0030F11D010F8012B002A23D081
:1015240010F0030F0AD010F8012B002A1CD010F081
:10153400030F03D010F8012B002A15D02DE97000F9
:101544004FF001324FF0803350F8044BA4EB020506
:1015540025EA04051D4000D1F6E7A0F1040070BCA3
:1015640010F8012B002AFBD1A0EB01007047704753
:10157400704700002DE9F04F89B007460C460392EE
:1015840000230360DFF83CB675E3002502E045F074
:1015940040051C46234613F8010BA0F120023E2A05
:1015A40000F2948001A151F822F000BF93150000CD
:1015B400D1160000D1160000AD160000D1160000AF
:1015C400D1160000D1160000B3160000D116000099
:1015D400D1160000D1160000BF160000D11600007D
:1015E400C5160000D1160000D1160000CB1600006D
:1015F400D1160000D1160000D1160000D11600004B
:10160400D1160000D1160000D1160000D11600003A
:10161400D1160000D1160000D1160000D11600002A
:10162400D1160000D1160000D1160000D11600001A
:10163400D1160000D1160000D1160000D11600000A
:10164400D1160000D1160000D1160000D1160000FA
:10165400D1160000D1160000D1160000D1160000EA
:10166400D1160000D1160000D1160000D1160000DA
:10167400D1160000D1160000D1160000D1160000CA
:10168400D1160000D1160000D1160000D1160000BA
:10169400D1160000D1160000D1160000D1160000AA
:1016A400D1160000B916000045F0800571E745F435
:1016B40000456EE745F480556BE745F0200568E783
:1016C40045F0100565E745F4007562E72A2821D145
:1016D400039A111D0391D2F800A0BAF1000FBCBF08
:1016E400CAF1000A45F010051878A31C2AEAEA7A20
:1016F4002E2826D00021742847D07A2845D06C287B
:1017040000F0C4804C2800F0C780682800F0D48022
:101714001C463DE0A0F13002D2B2092A88BF4FF046
:10172400000AE3D84FF0000A0AEB8A0A303800EBCB
:101734004A0A13F8010BA0F13002D2B2092AF3D9F4
:10174400D4E718782A280AD1039A111D0391116845
:10175400587802330029CEDB45F48075CBE701339A
:10176400A0F13002D2B2092A88BF0021F4D80021A6
:1017740001EB8101303800EB410113F8010BA0F1BA
:101784003002D2B2092AF3D9E4E71C4614F8010B5B
:10179400782800F28480DFE810F08A028200820058
:1017A4008200820082008200820082008200820025
:1017B4008200820082008200820082008200820015
:1017C4008200820082008200820082008200820005
:1017D40082008200820082008200820082008200F5
:1017E400820082009B0082008200820082008200CC
:1017F40082008200820082008200820082008200D5
:1018040082008200820082008200820082008200C4
:1018140082008200820082008200820082008200B4
:1018240082008200820082008200820082008200A4
:101834008200820082008200820082008200820094
:1018440082008200820082008200120182008200F3
:101854008200820082008200820082008200820074
:10186400A0004801820082008200820048018200B8
:10187400820082008200BA003201F60082008200F7
:10188400CB00820040018200820014011C4614F83F
:10189400010B45F001057BE745F001051C46C54BEE
:1018A4001E68002E00F0E78103AB019300915346BC
:1018B4002A463946B047DEE11878682803D05C1C14
:1018C40045F0040564E745F008059C1C58785FE77B
:1018D40025213846FFF7B4FDCDE1039B1A1D039281
:1018E4001E780AF1FF3A3A4651462846FFF7D0FDE2
:1018F40031463846FFF7A4FDA94619F0100F00F051
:10190400BA813A4651462020FFF7B4FDB3E115F001
:10191400080F06D03A68039B191D03911B681A70BF
:10192400A9E1039B1A1D03921B683A681A60A2E19D
:10193400039B1A1D0392D3F800809F4BB8F1000F4C
:1019440008BF9846464625F4007915F4807F15D0E3
:101954004046FFF7CBFD0546AAEB050A3A46514639
:101964004846FFF795FD002DC7D0454416F8011BE6
:101974003846FFF765FDAE42F8D1BEE74046FFF7B3
:10198400C6FD0546E8E7039B1A1D03921B6805F094
:101994008002002A0CBF4FF000084FF0230845F4E2
:1019A400807608211A46002B00F02F8105AB002514
:1019B40006F4005CA64660468C460146D6E045F433
:1019C400005515F0800F17D043F2780843F25803FE
:1019D400782818BF984615F4807F3FD025F4007608
:1019E400039B1A1D03921B6816F0040F45D116F0D1
:1019F400080F43D0DBB241E04FF00008EBE705F0FD
:101A04008003002B0CBF4FF000084FF0300815F492
:101A1400807F25D025F40076E2E715F4807F21D07D
:101A240025F400764FF00008DAE745F48046039B7E
:101A34001A1D03921B6815F0040F17D115F0080F37
:101A440015D0DBB215F0200F68D105F04005002D4C
:101A54000CBF4FF000084FF020080FE02E46BFE700
:101A64002E46BDE72E464FF00008B9E71BB2002B07
:101A7400E8DA5B424FF02D0800E09BB216F4807F59
:101A840014BF26F4007601215838202800F2BB80C8
:101A940001A252F820F000BFA91900000B1C00009D
:101AA4000B1C00000B1C00000B1C00000B1C000096
:101AB4000B1C00000B1C00000B1C00000B1C000086
:101AC4000B1C00000B1C0000471B00000B1C00003B
:101AD4000B1C00000B1C00000B1C0000471B00002B
:101AE4000B1C00000B1C00000B1C00000B1C000056
:101AF4000B1C0000271B0000A91900000B1C000090
:101B04000B1C00000B1C00000B1C0000471B0000FA
:101B14000B1C00000B1C0000A91900004FF02B083F
:101B2400ACE71A46002553B305A8002503F00703C4
:101B3400303300F8013B0135D2081346002AF5D1B1
:101B44001DE018460025D3B1002506F4004E4FF0E1
:101B54002C0973468E46194647E002F00F00174CD5
:101B6400205C03F8010B0135120906D00029F4D0DA
:101B740002F00F00124C205CF3E761467446491BE7
:101B840021EAE179AAEB090AAAEB050AB8F1FF0FE9
:101B94003DD9AAF1020A16F4007F3ED04FEA18217B
:101BA4003846FFF74DFC08F07F013846FFF748FC44
:101BB40041E000BFBC0200202C1D00000C1D0000F1
:101BC4001C1D0000CDCCCCCC08AB03EB050CABFB4F
:101BD4000032D20802EB8203A0EB430330330CF84B
:101BE4000C3C013509280CD910460029ECD005F02D
:101BF4000303032BE8D108AB2B4403F80C9C0135F9
:101C0400E2E77146BBE70025B9E70025B7E7B8F17D
:101C1400000F4FD116F4007F0DD13A46514630469D
:101C2400FFF736FCB8F1FF0F98BF4FF0000A13D846
:101C3400B8F1000FB7D13A4651463046FFF728FCB9
:101C44003A4649463020FFF715FC002D10DD0DF112
:101C54001409013D4D4403E04FF0000A9EE7454658
:101C6400A84618F801193846FFF7EAFB4D45F6D1A6
:101C740016F0100F09D114F8011B61B125293FF4A6
:101C840084AC3846FFF7DCFBF5E73A4651462020A2
:101C9400FFF7F0FBEFE7BB682BB13A6879688A423B
:101CA4003CBF00219954386809B0BDE8F08F4FF06B
:101CB400FF30F9E70AF1FF3A16F4007FB8D1ACE738
:101CC40020232122FFFFFFFFFFFFFFFFFFFFFFFF96
:101CD400FFFFFFFF00000000000000000000D6012D
:101CE40006010000020000001C0000001E000000AD
:101CF4001D0000000000000000502700200D0A54C1
:101D040051540D0A00000000303132333435363777
:101D1400383961626364656630313233343536375D
:101D24003839414243444546286E756C6C2900009D
:101D340000000000002000400000000000200040DF
:101D44000000000041424344454600000090D00397
:040000030000037581
:00000001FF
