:1000000000000120750300005D0300005F03000095
:1000100061030000630300006503000000000000AE
:100020000000000000000000000000006703000066
:1000300069030000000000006B0300006D03000076
:100040006F0300006F030000050800006F0300004D
:100050006F0300006F0300006F0300006F030000D8
:100060006F0300006F0300006F0300006F030000C8
:100070006F0300006F0300006F0300006F030000B8
:100080006F0300006F0300006F0300006F030000A8
:100090006F0300006F0300006F0300006F03000098
:1000A0006F0300006F0300006F0300006F03000088
:1000B0006F0300006F03000000000000000000005C
:1000C0006F0300006F0300006F0300006F03000068
:1000D0006F0300006F0300006F03000000000000CA
:1000E0000000000000000000000000000000000010
:1000F0000000000000000000000000000000000000
:1001000000000000000000000000000000000000EF
:1001100000000000000000000000000000000000DF
:1001200000000000000000000000000000000000CF
:1001300000000000000000000000000000000000BF
:1001400000000000000000000000000000000000AF
:10015000000000000000000000000000000000009F
:10016000000000000000000000000000000000008F
:10017000000000000000000000000000000000007F
:10018000000000000000000000000000000000006F
:10019000000000000000000000000000000000005F
:1001A000000000000000000000000000000000004F
:1001B000000000000000000000000000000000003F
:1001C000000000000000000000000000000000002F
:1001D000000000000000000000000000000000001F
:1001E000000000000000000000000000000000000F
:1001F00000000000000000000000000000000000FF
:10020000354936480A1A02D0072291438D463449AF
:1002100034480A1A06D00722914381F30988022242
:1002200082F3148830483149314A00F044F83148AB
:100230003149324A00F03FF831483249324A00F041
:100240003AF832483249334A00F035F832483349F7
:10025000334A00F030F833483349344A00F02BF881
:1002600033483449344A00F026F8344834490022EF
:1002700000F02CF833483449002200F027F83348C6
:100280003349091A082902DB002202604160314A21
:1002900090471F481F49884205D00268043003B4C4
:1002A000904703BCF7E700208646EC46002000217B
:1002B000294A9047FEE7884207D0521A05D00378B2
:1002C00001300B700131013AF9D17047884202D0F8
:1002D00002700130FAE770470000012000E00020C2
:1002E00000000120000001209C1D000000000020F3
:1002F00020000020D4030000D40300002C1D0000C7
:100300009C1D000000000020000000202C1D0000AB
:100310002C1D00002C1D00002C1D00002C1D0000B9
:100320002C1D00002C1D00002C1D00009C1D000039
:10033000BC1D000020000020200000202000002024
:10034000B8020020B8020020B8020020B802002045
:10035000B82200209D03000071110000FEE7FEE7B7
:10036000FEE7FEE7FEE7FEE7FEE7FEE7FEE7FEE765
:10037000704700BF1048804710484FF0070188437E
:1003800085460F4880470F48016841F470010160BD
:10039000BFF34F8FBFF36F8FFFF732BF0A480B4990
:1003A0000B4A884207D0521A05D0037801300B70EF
:1003B0000131013AF9D170477103000000000120BA
:1003C0005912000088ED00E02C1D00000000002004
:0403D0000000002009
:1003D400044B1A5C012393404FF0A042C2F8083545
:1003E400704700BF2C1D000008B50020FFF7F0FF88
:1003F4000120FFF7EDFF0220FFF7EAFF0320BDE82D
:100404000840FFF7E5BFC20708B501460CD54FF019
:10041400A0430322C3F84427C3F84827C3F84C2752
:10042400C3F85027FFF7E0FF8B070AD54FF0A0432E
:100434000C22C3F83427C3F83827C3F83C27C3F881
:10044400402708BD1FB50021039001AA44F2010012
:10045400CDE9011100F004F805B05DF804FB0000DB
:1004640072B6094B1B68DB0700D500BEBFF34F8F84
:100474000649074BCA6802F4E0621343CB60BFF33A
:100484004F8F00BFFDE700BFF0ED00E000ED00E09E
:100494000400FA0549B152B1531E1A4007D18260D3
:1004A40001608380C260104670470E2070470920A7
:1004B400704710B58468C2688388121B934208D3BE
:1004C400C26813400268D154C3680133C36000207A
:1004D40010BD0420FCE78268C3689A420AD082688F
:1004E400838813400268D35C0B7083680133836094
:1004F40000207047052070470648074A03780749DB
:10050400D35C012213B1043000F0BABD0C3000F00A
:1005140099BB00BF000000205800002048000020C4
:100524000648074A03780749D35C012213B1043013
:1005340000F058BD0C3000F031BB00BF00000020BB
:10054400580000204900002037B50578012D05D05A
:10055400002D30D0022D23D003B030BD43681C4C95
:1005640019782046FFF7A5FF78B18DF80050019067
:10057400184B68461B689847A168E368A2885B1A11
:100584009A4209D3FFF7B8FFE6E7A268E3689A4204
:10059400F2D08DF80000EBE70F4B01221A70DBE775
:1005A400C3688DF800500193FFF7A6FF094B684616
:1005B4001B689847D0E709490948FFF78CFF10B931
:1005C400FFF7AEFFC8E703238DF80030EEE700BF66
:1005D40024000020200000203400002049000020D6
:1005E40038000020F0B51F46234B89B006461A6038
:1005F4000C4600293DD08A8820480968FFF74AFF45
:10060400002834D1A289A1681D48FFF743FF0028C0
:100614002DD11C4D0FCD6C460FC495E80F0084E816
:100624000F0073690693337C174A18488DF81C70C1
:10063400003318BF01238DF81430737C002B14BFD2
:100644000E2300238DF81530F3680293B3680393E7
:100654003368019369467368009300F095F830B9E4
:100664000B4B18703368013301D0FFF745FF09B015
:10067400F0BD0720FBE700BF20000020240000207D
:1006840038000020301D00004D050000000000204F
:100694003400002010B501460E48FFF70AFF044657
:1006A400A8B90D480D4A0378D35C63B1043000F057
:1006B400DBFC60B90A490748FFF70DFF38B9BDE80C
:1006C4001040FFF72DBF0C3000F0B0FAF1E72046E0
:1006D40010BD00BF3800002000000020580000209A
:1006E4004900002072B6024A136801331360704750
:1006F4004C000020034A1368013B136003B962B63F
:10070400704700BF4C000020FFF7ECBFFFF7F2BFBB
:1007140010B50446C0B2FFF7BDFF204610BD00006F
:100724001FB503788DF8003043680193037A8DF880
:100734000830C3680393054A054B684653F82130D3
:1007440052F82110984705B05DF804FB50000020D2
:10075400540000201FB503788DF8003043680193DE
:1007640083688DF80830C3680393054A054B6846CF
:1007740053F8213052F82110984705B05DF804FB76
:100784005000002054000020F0B5184B077891F871
:100794001DE043F82720164B16460A6943F8272024
:1007A400144B03F807E00C4684460FCC89B06D4621
:1007B4000FC594E80F0085E80F000497BEF1000F01
:1007C4000AD0002E0C4A694608BF32460CF10400D8
:1007D40000F040FB09B0F0BD002E084A694608BF8E
:1007E40032460CF10C0000F019F9F3E75400002034
:1007F4005000002058000020250700005907000081
:10080400014B1B68184700BF5C00002038B50B4B38
:1008140098420D4601D0002038BD0020FFF774FF38
:10082400074B1C7914B901221D601A710020FFF7CF
:100834006DFF002CEFD01120EEE700BF0020004038
:100844005C0000200023435082B043580193019B75
:1008540002B070470A4610B54FF48E71FFF7F2FFED
:10086400136A9168C95C136A01331362C0F81C15DA
:1008740010BD024608B54FF492710068FFF7E2FF1D
:100884004FF484711068FFF7DDFF136801221A60CA
:1008940008BD8B690A4610B54FF4847123B9FFF77C
:1008A400D1FFD0F8183510BDFFF7CCFF536AD168DB
:1008B400D0F81805C854536A01335362F3E70000B3
:1008C4001FB501238DF80030044BCDE90110D3E9A5
:1008D40000126846904705B05DF804FB64000020F0
:1008E40030B54C4AD2F8043313F4007F85B0154672
:1008F4004FD0D2F82431002B4BD04FF492711046D4
:10090400FFF7A0FF4FF40173C2F80833424B93F88A
:10091400291009B9012151603E4902228DF80020B5
:10092400D1F88024C1F8802403929A690292DA688B
:1009340001920022C3E906226846D3E900129047D7
:100944003448D0F81C315BB133490A6A4B699A4286
:100954000A464BD291F82830002B47D1FFF77AFF93
:100964002C4AD2F8443193B14FF4A2711046FFF7E8
:1009740069FF294B93F8291009B1012111609A6983
:100984002AB100229A61586AD968FFF799FF05B025
:1009940030BDD5F804335B07D2D5D5F80831002B28
:1009A400CED01D4C1B482146FFF773FF636AA26932
:1009B4009A422346C4D1E269E1684AB12369E360FB
:1009C4000023606AA261E3616362FFF779FFB7E71E
:1009D40094F829200AB901226A600E4A4FF4017082
:1009E400C2F8080300229A61586AEEE74FF48E7148
:1009F4000848FFF727FF51690029B1D0002302916D
:100A040091688DF80030019153616846D2E9001372
:100A14009847A5E700200040640000202DE9F84332
:100A24005A4B047991462C2202FB0432064692F872
:100A34002A200D469846002A40F0A38054490068B5
:100A4400FFF7E4FE0746002840F09D8029683368DC
:100A5400481C0BD04FF0A04001228A40C0F8082562
:100A640001F5E0724FF0030C40F822C06868421CA4
:100A74001FBF00F5E0724FF0A04C4FF0000E4CF891
:100A840022E0AA6995F814C0C3F824256A7DBCF154
:100A9400010F4CEA0202C3F86C25C3F81405C3F82D
:100AA4000C151DD1AA68511C1FBF02F5E0714FF04F
:100AB400A0404FF0000C40F821C0E968481C0BD05E
:100AC4004FF0A04C01208840CCF8080501F5E070F7
:100AD4004FF0030E4CF820E0C3F80815C3F81025B6
:100AE4002C23634308EB0302C2F804902A6948F8F4
:100AF4000320B9F1000F31D04FF48E7130682D7F8F
:100B0400FFF7A0FE30684FF4A271FFF79BFE326836
:100B1400204BC2F80433120B53B2002BA8BF03F1CD
:100B240060404FEA53134FEA4511BABF1A4802F026
:100B34000F0500F561404FEA8303C9B203F1604336
:100B4400B4BF415580F8001303F5614302F01F025E
:100B5400012101FA02F2C3F880211A6033680422E9
:100B6400C3F800252C2303FB04830022C3E90622D7
:100B740083F829205A61012283F82A203846BDE8E7
:100B8400F8830827FAE71127F8E700BF640000207C
:100B9400E50800008000020014ED00E02DE9F047B4
:100BA400214F06794FF02C0909FB067480466569CC
:100BB400002D37D16261A16025624FF48E71006807
:100BC40084F82850FFF73EFED8F800000123836024
:100BD4002146FFF73FFE6368A14693B9D8F800A009
:100BE400226A63699A4212D3D8F80030D3F81C21E0
:100BF400002AFBD00122DA602C2303FB06760023B3
:100C040073612846BDE8F08794F8283043B9DAF8D0
:100C14001C31002BF8D049465046FFF71BFEDFE796
:100C24000F25E9E71125ECE7640000200379044A65
:100C34002C2101FB03235869003018BF01207047A1
:100C4400640000202DE9F843394E05792C2303FB79
:100C5400056307465C6824B103684FF40170C3F868
:100C640008032C2303FB0563986950B1D869002855
:100C74003ED024B13B684FF40172C3F8042311241D
:100C840033E09A61D9605862D8612C2303FB056371
:100C940093F829301BB910B93846FFF7EAFD4FF035
:100CA4002C0909FB05683868D8F80430002B34D1C6
:100CB4004FF4A271FFF7C6FDC1463868D0F824315D
:100CC400D0F80821D0F84441B2B90CB9002BF4D0C3
:100CD4002C2202FB05650022AA6123BB2CBB95F8DC
:100CE40029103B680122B1B11A602046BDE8F8839F
:100CF4001961DA610120C8E7002BE9D1002CE7D1A2
:100D04004946FFF7C6FDD8F82430D8F818209A428F
:100D1400D3D82346DCE75A60E7E74FF40173C0F801
:100D240004330024E1E70324DFE70F24DDE700BFF9
:100D3400640000200023435082B043580193019B78
:100D440002B070471FB501238DF80030054B8DF8B4
:100D5400080001916846D3E90012904705B05DF898
:100D640004FB00BF900000207FB5384AD2F824610C
:100D7400002E49D010464FF49271FFF7DBFF022397
:100D84008DF80030D2F88034C2F880340393D2F85E
:100D94003C358DF808302E4BDA6801920022C3E905
:100DA40006226846D3E900129047284AD2F8443113
:100DB40073B14FF4A2711046FFF7BCFF244B99693D
:100DC40031B100219961D2F83C05D968FFF7BAFF27
:100DD4001E4AD2F82031ABB14FF490711046FFF7A0
:100DE400A9FF1B4B596969B1D2F84C158DF808104D
:100DF400002299688DF8002001915A616846D3E970
:100E04000012904704B070BDD2F81031002BCCD042
:100E14004FF488711046FFF78DFF0D4BD2F83C0557
:100E240099698842C1D1DC69D96864B1D2F80052A9
:100E340025F02005C2F800521A699C61DA60DE616F
:100E4400FFF780FFB1E79C61FAE700BF0020004094
:100E5400900000202DE9F8435E4B06799146242248
:100E640002FB0632044692F820200D469846002ADA
:100E740040F0AB8058490068FFF7C8FC07460028DB
:100E840040F0A58029682368481C0BD04FF0A0408F
:100E940001228A40C0F8082501F5E0724FF0030CE6
:100EA40040F822C06868421C1FBF00F5E0724FF092
:100EB400A04C4FF0000E4CF822E0AA6995F814C03B
:100EC400C3F824256A7DBCF1010F4CEA0202C3F881
:100ED4006C25C3F80C15C3F814051DD1AA68511C60
:100EE4001FBF02F5E0714FF0A0404FF0000C40F836
:100EF40021C0E968481C0BD04FF0A04C0120884069
:100F0400CCF8080501F5E0704FF0030E4CF820E032
:100F1400C3F80815C3F810252423734308EB030210
:100F2400C2F804902A6948F80320B9F1000F3BD0B5
:100F34004FF4887120682D7FFFF7FCFE4FF4907109
:100F44002068FFF7F7FE4FF492712068FFF7F2FE76
:100F540020684FF4A271FFF7EDFE22681F4BC2F820
:100F64000433120B53B2002BA8BF03F160404FEAC5
:100F740053134FEA4511BABF194802F00F0500F5A3
:100F840061404FEA8303C9B203F16043B4BF4155E2
:100F940080F8001303F5614302F01F02012101FAF6
:100FA40002F2C3F880211A6023680822C3F80025DE
:100FB400242303FB06830022C3E906225A6101228B
:100FC40083F820203846BDE8F8830827FAE711277C
:100FD400F8E700BF900000206D0D00001003020030
:100FE40014ED00E001F06043B3F1005F2DE9F0413E
:100FF400074632D11B4B0679242505FB0635984656
:101004006C6964BB6A61A96000684FF49071FFF772
:1010140091FE4FF4AC713868FFF78CFE3B686A6947
:10102400A968C3F84415C3F8482501229A606A6880
:1010340062B9D3F82021D3F8584152B9002CF8D022
:101044000F24242303FB0686002373612046BDE896
:10105400F081002C18BF0F24F3E71024F6E71124C5
:10106400F4E700BF900000200379044A242101FB27
:1010740003235869003018BF0120704790000020F6
:10108400F8B501F06043B3F1005F04460F465ED14A
:101094000379304D242101FB0351486820B12168B4
:1010A4004FF40476C1F80863242101FB03539E69BD
:1010B40056B1D969002939D020B123684FF404729C
:1010C400C3F80423112030E09A61DF60DE614FF43D
:1010D40088712068FFF72EFE4FF4A2712068FFF795
:1010E40029FE2368C3F83475C3F8382516BB0122DA
:1010F4001A602179242202FB015252680ABBD3F8F8
:101104001041D3F84421D3F82401144302D1002818
:10111400F5D02246242303FB01550023984218BF2F
:1011240003209A42AB6118BF0F20F8BD1F61DA613A
:101134000126CCE7D3F8002242F02002C3F80022B3
:10114400D7E74FF40472C3F804230020EDE710201E
:10115400EBE700BF900000200378022B02D1406827
:10116400FFF770B9012BFAD07047000030B5164D67
:101174008BB00120FFF747F90FCD04AC0FC495E8FD
:101184000300124B124A00934FF4807384E8030067
:10119400CDE9022301930F4A0723694604A8FFF708
:1011A40021FA08B1FFF74EF90B4D00242878FFF718
:1011B40071FA0028FAD10134062C05F10105F5D1A4
:1011C400064800F0ABF9FEE7501D0000B400002013
:1011D400B40100205D11000014000020681D00000F
:1011E4000C4B1B78062B10D10B4B1B681A070CD128
:1011F4000A4B186800F0F003302B08D000F0E00030
:10120400A0F1400358425841704700207047012024
:10121400704700BFE00F00F0E40F00F0E80F00F0AB
:10122400094B1B78062B0CD1084B1B681A0708D1F5
:10123400074B186800F0F000A0F130035842584101
:1012440070470020704700BFE00F00F0E40F00F08B
:10125400E80F00F008B5FFF7C3FF28B17D4B7E4AC5
:101264001B68C3F304231360FFF7DAFF10B17B4B51
:101274007B4A1A60FFF7B4FF28B17A4B7A4A1B689D
:10128400C3F342331360FFF7CBFF20B1774AD3682F
:1012940023F08073D360FFF7A3FF40B14FF0804386
:1012A4000022C3F80C21C3F81021C3F83825FFF736
:1012B400B7FF10B16E4B03221A60FFF7B1FF40B1C4
:1012C4006C4B05221A6001229A6700229A603F2221
:1012D4005A60694B1B78062B50D1684B1B68190761
:1012E4004CD1674B1B6803F0F003502B46D14FF0F1
:1012F4008052644BD2F80414C3F82015D2F80814B1
:10130400C3F82415D2F80C14C3F82815D2F8101415
:10131400C3F82C15D2F81414C3F83015D2F81814E5
:10132400C3F83415D2F81C14C3F84015D2F82014AD
:10133400C3F84415D2F82414C3F84815D2F8281475
:10134400C3F84C15D2F82C14C3F85015D2F8301445
:10135400C3F85415D2F83414C3F86015D2F838140D
:10136400C3F86415D2F83C14C3F86815D2F84014D5
:10137400C3F86C15D2F84424C3F87025FFF730FF86
:1013840028B1414B414A1B6803F04F031360FFF738
:1013940027FF48B14FF08043D3F80024D20744BF5D
:1013A4006FF00102C3F80024394B1B68062B08D1E7
:1013B400384B1B68062B01BF374A136843F480631C
:1013C4001360364AD2F8883043F47003C2F8883088
:1013D400BFF34F8FBFF36F8F4FF01023D3F800226A
:1013E400002A03DBD3F80432002B2FDA2C4B012222
:1013F400C3F80425D3F80024002AFBD04FF01022B0
:101404001521C2F80012D3F80024002AFBD04FF0B3
:1014140010231522C3F80422214B1A46D3F80014D2
:101424000029FBD00021C3F80415D2F80034002BA6
:10143400FBD0BFF34F8F19491A4BCA6802F4E0621C
:101444001343CB60BFF34F8F00BFFDE7164B174A22
:101454001A6008BD240300104035014074C00740E1
:101464000DF0ADBA440200103C050040F0ED00E080
:10147400A005004010560040E00F00F0E40F00F01B
:10148400E80F00F000C0004058020010E40E0040D5
:1014940030010010340100103C17004000ED00E062
:1014A40000E001400400FA051C0000200090D00375
:1014B40038B504460846A26842B1236861685D1CD9
:1014C4008D4208BF00208B4208D2D054E3682BB170
:1014D40021686268914201D221469847236801330A
:1014E400236038BD70B54C1E09D41646C5B22946D2
:1014F4003046FFF7DDFF013CB4F1FF3FF7D170BD8B
:1015040010F0100F09D108B500F40070002814BFC2
:1015140030202020FFF7E6FF08BD70470FB410B558
:1015240086B008AB53F8044B0593002303936FF084
:1015340000430293084B049300F051F8059A2146A6
:1015440001A800F04FF8044600F04AF8204606B01F
:10155400BDE8104004B0704715070000037853B18C
:1015640059B10144034613F8012F12B18B42FAD149
:101574000B46181A70470346FBE70346F9E700F1E8
:10158400010110F0030F11D010F8012B002A23D011
:1015940010F0030F0AD010F8012B002A1CD010F011
:1015A400030F03D010F8012B002A15D02DE9700089
:1015B4004FF001324FF0803350F8044BA4EB020596
:1015C40025EA04051D4000D1F6E7A0F1040070BC33
:1015D40010F8012B002AFBD1A0EB010070477047E3
:1015E400704700002DE9F04F89B007460C4603927E
:1015F40000230360DFF82CB670E3002502E045F019
:1016040040051C46234613F8010BA0F120023E2A94
:1016140000F2948001A151F822F000BF03160000EB
:1016240041170000411700001D170000411700007A
:101634004117000041170000231700004117000064
:1016440041170000411700002F1700004117000048
:101654003517000041170000411700003B17000038
:101664004117000041170000411700004117000016
:101674004117000041170000411700004117000006
:1016840041170000411700004117000041170000F6
:1016940041170000411700004117000041170000E6
:1016A40041170000411700004117000041170000D6
:1016B40041170000411700004117000041170000C6
:1016C40041170000411700004117000041170000B6
:1016D40041170000411700004117000041170000A6
:1016E4004117000041170000411700004117000096
:1016F4004117000041170000411700004117000086
:101704004117000041170000411700004117000075
:10171400411700002917000045F0800571E745F4E2
:1017240000456EE745F480556BE745F0200568E712
:1017340045F0100565E745F4007562E72A2821D1D4
:10174400039A111D0391D2F800A0BAF1000FBCBF97
:10175400CAF1000A45F010051878A31C2AEAEA7AAF
:101764002E2826D00021742847D07A2845D06C280A
:1017740000F0C4804C2800F0C780682800F0D480B2
:101784001C463DE0A0F13002D2B2092A88BF4FF0D6
:10179400000AE3D84FF0000A0AEB8A0A303800EB5B
:1017A4004A0A13F8010BA0F13002D2B2092AF3D984
:1017B400D4E718782A280AD1039A111D03911168D5
:1017C400587802330029CEDB45F48075CBE701332A
:1017D400A0F13002D2B2092A88BF0021F4D8002136
:1017E40001EB8101303800EB410113F8010BA0F14A
:1017F4003002D2B2092AF3D9E4E71C4614F8010BEB
:10180400782800F28480DFE810F0850282008200EC
:1018140082008200820082008200820082008200B4
:1018240082008200820082008200820082008200A4
:101834008200820082008200820082008200820094
:101844008200820082008200820082008200820084
:10185400820082009B00820082008200820082005B
:101864008200820082008200820082008200820064
:101874008200820082008200820082008200820054
:101884008200820082008200820082008200820044
:101894008200820082008200820082008200820034
:1018A4008200820082008200820082008200820024
:1018B4008200820082008200820011018200820084
:1018C4008200820082008200820082008200820004
:1018D400A00047018200820082008200470182004A
:1018E400820082008200BA003401F6008200820085
:1018F400CB00820040018200820013011C4614F8D0
:10190400010B45F001057BE745F001051C46C14B81
:101914001E68002E00F0E28103AB01930091534650
:101924002A463946B047D9E11878682803D05C1CA8
:1019340045F0040564E745F008059C1C58785FE70A
:1019440025213846FFF7B4FDC8E1039B1A1D039215
:101954001E780AF1FF3A3A4651462846FFF7D0FD71
:1019640031463846FFF7A4FDA94619F0100F00F0E0
:10197400B5813A4651462020FFF7B4FDAEE115F09B
:10198400080F06D03A68039B191D03911B681A704F
:10199400A4E1039B1A1D03921B683A681A609DE137
:1019A400039B1A1D0392D3F800809B4BB8F1000FE0
:1019B40008BF9846464625F4007915F4807F15D073
:1019C4004046FFF7CBFD0546AAEB050A3A465146C9
:1019D4004846FFF795FD002DC7D0454416F8011B76
:1019E4003846FFF765FDAE42F8D1BEE74046FFF743
:1019F400C6FD0546E8E7039B1A1D03921B6805F024
:101A04008002002A0CBF0026232645F48075082195
:101A14001A46002B00F02C8105AB4FF0000805F4AA
:101A2400005CA64660468C460146D1E045F400556C
:101A340015F0800F1BD043F2780643F25803782840
:101A440018BF1E4615F4807F01D025F4007515F4E7
:101A5400804F34D0039B1A1D03921B6815F0040FAA
:101A640020D01BB2002B21DA5B422D262FE000266A
:101A7400E8E705F08003002B0CBF0026302615F4A0
:101A8400807FE4D025F40075E1E715F4807F07D06A
:101A940025F400750026DAE745F480450026D6E7EC
:101AA4000026D4E715F0080FDCD0DBB215F0200FC8
:101AB40061D105F04002002A18BF202607E0039BED
:101AC4001A1D03921B6815F0040F4FD09BB215F436
:101AD400807F14BF25F4007501215838202800F2B6
:101AE400C48001A252F820F0151A00006F1C0000F7
:101AF4006F1C00006F1C00006F1C00006F1C0000B6
:101B04006F1C00006F1C00006F1C00006F1C0000A5
:101B14006F1C00006F1C0000A51B00006F1C000060
:101B24006F1C00006F1C00006F1C0000A51B000050
:101B34006F1C00006F1C00006F1C00006F1C000075
:101B44006F1C00007F1B0000151A00006F1C0000B2
:101B54006F1C00006F1C00006F1C0000A51B000020
:101B64006F1C00006F1C0000151A000015F0080F10
:101B7400ADD0DBB2ABE72B26A9E71A464FF000083D
:101B84007BB305A84FF0000803F00703303300F8D7
:101B9400013B08F10108D2081346002AF4D120E0E1
:101BA40018464FF00008E3B14FF0000805F4004E6A
:101BB4004FF02C0973468E46194647E002F00F0099
:101BC400164C205C03F8010B08F10108120906D039
:101BD4000029F3D002F00F00114C205CF2E76146BB
:101BE4007446A1EB080121EAE179AAEB090AAAEB00
:101BF400080AFF2E3FD9AAF1020A15F4007F3FD04C
:101C0400C6F307213846FFF753FCF1B23846FFF715
:101C14004FFC41E0B4020020941D0000741D00003C
:101C2400841D0000CDCCCCCC08AB03EB080CABFB83
:101C34000032D20802EB8203A0EB430330330CF8EA
:101C44000C3C08F1010809280DD910460029EBD0F5
:101C540008F00303032BE7D108AB434403F80C9CBF
:101C640008F10108E0E77146BBE74FF00008B8E768
:101C74004FF00008B5E7002E4FD115F4007F0BD1CB
:101C84003A4651462846FFF73BFCFF2E98BF4FF0DB
:101C9400000A14D8002EB8D13A4651462846FFF718
:101CA4002FFC3A4649463020FFF71CFCB8F1000FE0
:101CB40011DD0DF1140908F1FF38C84403E04FF0B9
:101CC400000A9DE7B046464616F801193846FFF764
:101CD400EFFBC145F6D115F0100F09D114F8011B23
:101CE40061B125293FF489AC3846FFF7E1FBF5E7FC
:101CF4003A4651462020FFF7F5FBEFE7BB682BB1CE
:101D04003A6879688A423CBF00219954386809B01E
:101D1400BDE8F08F4FF0FF30F9E70AF1FF3A15F410
:081D2400007FB7D1ACE700BF5E
:101D2C0011121314FFFFFFFFFFFFFFFFFFFFFFFF69
:101D3C00FFFFFFFF00000000000000000000D601C4
:101D4C00060100000600000008000000050000006D
:101D5C00070000000000000000502700200D0A546E
:101D6C0051540D0A0000000030313233343536370F
:101D7C0038396162636465663031323334353637F5
:101D8C003839414243444546286E756C6C29000035
:101D9C000000000000200040000000000020004077
:101DAC000000000041424344454600000090D0032F
:040000030000037581
:00000001FF
