:020000022000DC
:1060000000F00020556302008D6302008F630200E0
:106010009163020093630200956302000000000098
:106020000000000000000000000000009763020074
:1060300099630200000000009B6302009D63020060
:106040009F6302009F6302009F6302009F63020040
:106050009F6302009F630200C1A703009F630200C9
:106060009F6302009F630200BD7803009F630200EC
:106070009F6302009F6302009F6302009F63020010
:106080009F630200E91204009DBF02009F630200AB
:106090004D1304009F63020075AD03009F6302006F
:1060A0009F6302009F6302009F6302009F630200E0
:1060B0009F6302009F6302000000000000000000D8
:1060C0009F6302009F6302009F6302009F630200C0
:1060D0009F6302009F6302009F6302009F630200B0
:1060E0009F6302009F6302009F63020000000000A4
:1060F000000000009F630200000000009F63020098
:10610000000000000000000000000000000000008F
:10611000000000000000000000000000000000007F
:10612000000000000000000000000000000000006F
:10613000000000000000000000000000000000005F
:10614000000000000000000000000000000000004F
:10615000000000000000000000000000000000003F
:10616000000000000000000000000000000000002F
:10617000000000000000000000000000000000001F
:10618000000000000000000000000000000000000F
:1061900000000000000000000000000000000000FF
:1061A00000000000000000000000000000000000EF
:1061B00000000000000000000000000000000000DF
:1061C00000000000000000000000000000000000CF
:1061D00000000000000000000000000000000000BF
:1061E00000000000000000000000000000000000AF
:1061F000000000000000000000000000000000009F
:10620000344935480A1A02D0072291438D46334952
:1062100033480A1A06D00722914381F309880222E3
:1062200082F314882F483049304A00F042F8304851
:106230003049314A00F03DF830483149314A00F0E8
:1062400038F831483149324A00F033F831483249A0
:10625000324A00F02EF832483249334A00F029F829
:1062600032483349334A00F024F833483349002296
:1062700000F02AF832483349002200F025F832486D
:106280003249091A082902DB0022026041601F48D6
:106290001F49884205D00268043003B4904703BC0C
:1062A000F7E700208646EC4600200021284A904768
:1062B000FEE7884207D0521A05D0037801300B70F0
:1062C0000131013AF9D17047884202D002700130A1
:1062D000FAE7704700F0002000E8002000F00020FE
:1062E00000F0002078320400A02D0020082F0020AC
:1062F000A4630200A46302001E18040078320400A4
:10630000A02D0020A02D00202C1904002C19040021
:106310002C1904002C1904002C1904002C19040059
:106320002C1904002C19040076320400E033040018
:10633000082F0020082F0020082F0020085A0020D6
:10634000085A0020085A0020085A0020085E002041
:10635000696B02000948804709484FF007018843EC
:106360008546084880470848016841F4700101608B
:10637000BFF34F8FBFF36F8FFFF742BFA1630200E0
:1063800000F0002071B1030088ED00E0FEE7FEE7B9
:10639000FEE7FEE7FEE7FEE7FEE7FEE7FEE7FEE7D5
:0463A000704700BF83
:1063A4003FDF704741DF70470C4B1B6813F4804F8D
:1063B40003D00B4B1B68012B00DC704700B583B086
:1063C400084BD3F80435084A0092B2220749022048
:1063D40006F0E2FD03B05DF804FB00BF6C2E002064
:1063E400682E002000100140981904008E19040042
:1063F4000D4B1B6813F4804F03D00C4B1B68032B0D
:1064040000DC704700B583B0094BD3F804355278EB
:106414000192084A0092E3220749042006F0BCFDD9
:1064240003B05DF804FB00BF6C2E0020682E002032
:10643400001001401C1A04008E1904000C4B1B6848
:1064440013F4804F03D00B4B1B68032B00DC704705
:1064540000B583B0084BD3F80435084A009276227D
:106464000749042006F098FD03B05DF804FB00BF63
:106474006C2E0020682E002000100140301A040009
:106484008E19040000B583B0012A1FD053B24BB15A
:10649400022A35D0244ACD21032013F0E3FC03B0B3
:1064A4005DF804FB214B1B6813F4804FF7D0204B9D
:1064B4001B68032BF3DD1F4BD3F804351E4A0092EF
:1064C400C0221E49042006F067FDE8E706223221B7
:1064D4004FF4B81000F0CCFC144B1B6813F4804F3D
:1064E400DDD0134B1B68032BD9DD124BD3F80435D5
:1064F400134A0092C5221149042006F04DFDCEE74F
:106504000A4B1B6813F4804FC9D0094B1B68032B3B
:10651400C5DD084BD3F804350A4A0092C92207495D
:10652400042006F039FDBAE7441904006C2E00205B
:10653400682E002000100140B81904008E190400D0
:10654400D8190400F819040000B583B00F4B1B6878
:1065540013F4804F03D00E4B1B68032B0ADC032279
:10656400C8214FF4B81000F083FC09F0DBFE03B03F
:106574005DF804FB074BD3F80435074A0092EA227E
:106584000649042006F008FDE9E700BF6C2E002050
:10659400682E002000100140701B04008E190400B6
:1065A40030B587B004460E286DD00F2800F08280E5
:1065B4000D280BD04FF4FA744FF47A406D4B43F02E
:1065C40001039847013CF7D107B030BD01238DF892
:1065D40014303221112000F011FC674A1378591C41
:1065E40011708DF815303223049364230393634BA5
:1065F4001B6813F4804F03D0614B1B68032B33DCFF
:10660400604D28880EF032F803AA05A928461AF02E
:10661400A9F9112800F2A48001A353F820F000BFC7
:10662400B9650200656702006567020065670200DC
:10663400FB660200656702006567020035670200B9
:10664400FB66020065670200656702006567020079
:1066540065670200656702006567020065670200FE
:1066640065670200FB660200474BD3F80435454AD0
:1066740012880192454A009240F24F124449042084
:1066840006F08AFCBCE700238DF814303A4A1378EC
:10669400591C11708DF8153032230493642303932D
:1066A400384D28880DF0E2FF03AA05A928461AF000
:1066B40059F9AEE709F0DFFDB0B9304B1B6813F4AC
:1066C400804F3FF477AF2E4B1B68032B7FF772AFDD
:1066D4002D4BD3F804352F4A00924FF4B9722C494C
:1066E400042006F059FC65E70BF0D6F909F0B9FD72
:1066F400FFF72AFF5EE7214B1B6813F4804F03D09A
:106704001F4B1B68032B06DC062232214FF4B81002
:1067140000F0AEFB4EE71C4BD3F8043501941E4A3F
:10672400009240F27F121A49042006F035FCEBE790
:10673400124B1B6813F4804F3FF43CAF104B1B68A3
:10674400032B7FF737AF104BD3F804350194134A6A
:10675400009240F28B120E49042006F01DFC29E73A
:1067640000283FF427AF0E4A40F28F1113F07AFB52
:1067740020E700BF701A0400942F00206C2E002024
:10678400682E0020082F002000100140781A040011
:106794008E1904008C1A0400C41A0400DC1A0400C4
:1067A4004419040008B503781C2B00D008BDFFF77A
:1067B400CBFEFBE708B500F095FB08BD10B5044619
:1067C40000214FF4B81000F047FB04EB840462008E
:1067D40032214FF4881000F04BFB10BD10B582B08D
:1067E400044613F08BFE02238DF804308DF8063036
:1067F40003238DF80530094A01A9204613F0BEFE93
:106804000021204613F036FF204613F0A3FF012198
:10681400204613F02FFF02B010BD00BFA565020093
:1068240000B58BB02022002101A81AF091FF0123AA
:106834008DF8043007238DF8073006238DF80C30CB
:10684400084B0593084B0993084901A809F020FD5A
:1068540010B90BB05DF804FB054A40F2171113F0B0
:1068640001FBF6E7A967020079680200702F002097
:106874004419040010B582B0294B1B6813F4804FEF
:1068840003D0284B1B68032B01DC002410E0264BAB
:10689400D3F80435254A0092FA222549042006F04B
:1068A4007BFBF2E7234A40F2031113F0DBFA0134D5
:1068B400012C12D8204B342000FB04301F4B0363FF
:1068C4000023836280F82C3080F82D30611CC9B21B
:1068D4001AF00EF80028EAD0E4E70321184800F083
:1068E400DDFF50B90E4B1B6813F4804F03D00D4BE2
:1068F4001B68032B07DC02B010BD0E4A40F20711DF
:1069040013F0B0FAEEE7084BD3F804350D4A0092C1
:106914004FF484720649042006F03EFBEBE700BF07
:106924006C2E0020682E002000100140381B04004B
:106934008E19040044190400082F0020581A04007A
:10694400A02D0020581B040000B583B00C4B1B681D
:1069540013F4804F03D00B4B1B68032B05DC0A4850
:1069640000F07AFF03B05DF804FB084BD3F804355C
:10697400074A009270220749042006F00DFBEEE757
:106984006C2E0020682E0020A02D00200010014055
:10699400381A04008E19040030B587B0174B1B78E1
:1069A4009BB100F0C9FF00F0ABFA09F0ADFCF8B9F7
:1069B40000214FF4B81000F04FFA0222C8214FF41E
:1069C400B81000F055FA07B030BD6C460C4D0FCD31
:1069D4000FC495E8030084E80300684600F0B4F9A6
:1069E4000028DED0074A40F2291113F03BFAD8E719
:1069F400044A4FF4977113F035FAD9E7702F002049
:106A04002C1904004419040000B585B0234B1B68FD
:106A140013F4804F03D0224B1B68032B25DC4FF06B
:106A2400A0434FF48012C3F8082500F023FC00F0C3
:106A34004FFC03A80FF09AF9184B1B6813F4804F0E
:106A440003D0174B1B68032B1ADC00F04BFA002110
:106A54004FF4B81000F000FA0422C8214FF4B81023
:106A640000F006FA05B05DF804FB0E4BD3F80435CC
:106A74000D4A00929D220D49042006F08DFACEE7BE
:106A8400084BD3F80435BDF80C200192084A009253
:106A9400A8220649042006F07FFAD6E76C2E0020CF
:106AA400682E0020001001408C1B04008E19040085
:106AB400A81B040008B500F015FA00214FF4B81023
:106AC40000F0CAF908BD000000B583B01E4A0421D5
:106AD4004FF4C04006F044FA1C4B1B6813F4804F7B
:106AE40003D01B4B1B68032B1BDC1AF031FC20BBAF
:106AF400012000F035FDFFF7DDFF0D20FFF76EFEEE
:106B04000F20FFF76BFE0E20FFF768FE00F096FBE8
:106B140000F0B0FB00F0DCFBFFF782FE03B05DF891
:106B240004FB0C4BD3F804350B4A009240F2B1122B
:106B34000A49042006F030FAD7E7094A40F2B311B3
:106B440013F090F9D4E700BF39CF02006C2E002077
:106B5400682E002000100140081B04008E19040058
:106B64004419040008B50120FFF71AFCFFF7ACFF35
:106B7400FFF712FFFFF716FCFCE700002B4B1B7816
:106B8400002B52D000B585B0012804D0032845D08D
:106B940005B05DF804FB0023029302A9012013F061
:106BA40093FF40BB02A813F0E3FF38BB0123039318
:106BB40003A90DF106000FF011FE10BBBDF806008D
:106BC4000FF0A8FA0DF105010FF0FEFBE0B90AF091
:106BD40041FE9DF8051000200AF076FFB8B903F0D5
:106BE400B5FFC0B9114B00221A70114B1B68002B62
:106BF400CED09847CCE713F027F9D3E713F024F964
:106C0400D4E713F021F9D9E713F01EF9DFE778464A
:106C140000F03EFCE3E713F017F9E3E714F01EF885
:106C24000028B5D013F010F9B2E77047972F002071
:106C3400982F002008B5064B01221A70054803F06E
:106C4400EFFF03F0CFFF00B908BD13F0FDF8FBE739
:106C5400972F0020F02D002008B503781B2B00D0BF
:106C640008BD074B1B78002BFAD014F03BF818B979
:106C7400044803F0D9FFF3E713F0E6F8F8E700BFA0
:106C8400972F0020F02D002008B50323002203498C
:106C94000969034814F0D6FF08BD00BF982F0020EF
:106CA400E831002008B50378023B082B3FD8DFE821
:106CB40003F01C05113E3E2C3E3E36001E4B5B6825
:106CC400002B34D0007A002831D01C4A01211170E5
:106CD40098472CE0184B9B684BB3184A127832B390
:106CE400164A00211170984721E0154B1B784BB9C7
:106CF400114BDB681BB1114A002111709847FFF753
:106D0400C3FF14E0FFF796FF11E010220A4B596904
:106D14000C4815F027F850B113F096F807E0816895
:106D2400C06809F063FA18B9054B01221A7008BD4E
:106D340013F08AF8F8E700BF982F0020952F002061
:106D4400962F0020E831002070B586B00446234A0F
:106D540003AB07CA03C323F8022B120C1A70204E8C
:106D640035460FCC0FC594E8030085E8030073692A
:106D7400002B31D01B491C4814F048FF034610B1C6
:106D8400184606B070BD194B009303AB154A16495B
:106D9400174814F0F7FE03460028F1D1154816F001
:106DA4008DFB0146124814F019FF03460028E7D171
:106DB400114816F071FD03460028E1D10E4816F083
:106DC400A1FD01460A4814F009FF03460028D7D163
:106DD400FFF75AFF0346D3E70723D1E7F01B04006C
:106DE400982F0020B02F00201C330020A96C020033
:106DF400E8310020D02F00209831002038B51F281A
:106E040003D900F01F00124A01E04FF0A042012311
:106E14008340C2F80C3500254C0CC8034FF47A7239
:106E2400002310F5FA7044EB05011AF023FB2A46FF
:106E3400014608481AF0DAFA48B94FF0A0434FF473
:106E44008022C3F80C254FF40032C3F8082538BD5E
:106E5400000300506433002021B14FF0A043C3F875
:106E64000C0570474FF0A043C3F8080570470000B5
:106E740072B338B51346132900D838BD154A1060CB
:106E84005B00013B144A13604FF0A043D3F8042580
:106E9400124B1A6000254C0CC8034FF47A7200237D
:106EA40010F5FA7044EB05011AF0E4FA2A4601469B
:106EB4000B481AF09BFA0028DFD14FF0A042D2F819
:106EC40004350449096823EA0103C2F80435D4E708
:106ED400704700BF603300205C33002084330020FF
:106EE4006433002008B504481AF09EFA0021034BCD
:106EF4001868FFF7B1FF08BD643300206033002039
:106F0400002869D02DE9F043CFB00646334B1B6807
:106F140013F4804F03D0324B1B68032B0BDC2F4B35
:106F24001B6813F4804F03D02D4B1B68032B2ADC02
:106F34004FB0BDE8F08300230F2B0FD8F25C294932
:106F44000D6810095900285C0DAC04F8130002F018
:106F54000F020131AA5C62540133EDE70DAA00234C
:106F64008DF8543003F1804303F58833D3F80435A6
:106F740002921D4A01921D4A009241221C4904209A
:106F840006F00AF8CBE71B4BD3F80435B288F18836
:106F9400307A747AB57AF77A96F80CC096F80DE0E0
:106FA40096F80E8096F80F90CDF82C90CDF82880A6
:106FB400CDF824E0CDF820C00797069505940490F9
:106FC40003910292326801920B4A009246220849C8
:106FD400042005F0E1FFABE7704700BF6C2E0020F2
:106FE400682E0020702E00204C1C0400601C04003D
:106FF400391C040000100140681C040072DF704753
:1070040073DF704774DF704777DF70472DE9F0470F
:10701400A2B0074688469146314C0026C4F8066063
:10702400E68130490B78C3EB43102F4D05442560AE
:107034002E4A0244A2601F22A280A281013303F0DF
:1070440001030B704FF03C0A5246314613A81AF064
:107054007FFB06238DF84F30ADF8487001238DF87F
:107064004A30ADF85C3012AA1892ADF83C70ADF815
:107074004090CDF844800DEB0A021D928DF87830D3
:107084005246314668461AF063FB02238DF80030FD
:10709400221D294613A813F049F990B9104B03F1A6
:1070A4000C029968684613F041F968B9104A0C4912
:1070B4001048FFF7A3FF082809D070B922B0BDE833
:1070C400F08712F0C1FEE9E712F0BEFEEEE70022FF
:1070D40003490848FFF792FFEFE712F0B5FEEDE72A
:1070E400CC330020883300208C330020DC33002094
:1070F400002E0020FC2D002088B1B0F5202F06D2F0
:10710400094AA2FB0023DB0803D1012302E04FF666
:10711400FF739BB2054A9381044B99607047034BFC
:1071240000229A81F8E700BFCDCCCCCC002E002001
:1071340000B583B00422164B19780120FFF764FFD1
:10714400A0B9144B1B6813F4804F03D0124B1B6877
:10715400032B0EDC01210E4B1878FFF751FF98B971
:10716400002004F021FC03B05DF804FB12F06CFE77
:10717400E7E70A4BD3F80435094A0092B8220949D3
:10718400042005F009FFE5E712F05EFEE8E700BF22
:10719400FC2D00206C2E0020682E002000100140E1
:1071A400F01C0400E51C040008B5044B1878FFF734
:1071B40029FF00B908BD12F047FEFBE7FC2D0020B3
:1071C40076DF70477ADF70477CDF704708B512F0CE
:1071D4003BFE08BD08B503F02BFD08BD00B583B028
:1071E400037823B1012B0BD003B05DF804FB3B21E2
:1071F4004088FFF7E5FF0028F6D012F025FEF3E7FC
:10720400094B1B6813F4804FEED0084B1B68032B0B
:10721400EADD074BD3F80435064A00926822064992
:10722400042005F0B9FEDFE76C2E0020682E002054
:1072340000100140841D0400691D040000B583B0E2
:1072440013F00CFD68B90023019301A9012013F088
:107254003BFC48B901A813F08BFC40B903B05DF8BE
:1072640004FB12F0F1FDEEE712F0EEFDF2E712F08E
:10727400EBFDF3E700B585B09DF80C30012262F315
:10728400030362F307138DF80C3016220F4903A889
:10729400FFF79AFF98B90023ADF808307823ADF8CA
:1072A4000430C823ADF806304FF4C873ADF80A3083
:1072B40001A8FFF787FF28B905B05DF804FB12F0B9
:1072C400C3FDE8E712F0C0FDF6E700BF141D04009B
:1072D40000B58BB00023ADF808307822ADF8042057
:1072E400C822ADF806204FF4C872ADF80A20069300
:1072F400079301AB039340F6CD4304934FF48033DB
:10730400059303238DF81830064B0893064B099315
:1073140003A813F089FE10B90BB05DF804FB12F05A
:1073240093FDF9E7E1710200D17102000620704774
:1073340000B587B041F2010398424CD020D944F201
:10734400010398425DD044F20203984274D1464B43
:107354001B6813F4804F1ED0444B1B68002B1ADDAE
:10736400434BD3F80435108803905268029201917C
:10737400404A00926C224049012005F00DFE0AE0CB
:10738400012859D1384B1B6813F4804F03D0374B75
:107394001B68002B12DC4FF0A0434FF4B812C3F863
:1073A4001825C3F80C25EFF3108372B64DF6AD6CB7
:1073B400324B1B78002B54D030BFF9E72C4BD3F859
:1073C4000435029201912E4A009260222A4901203A
:1073D40005F0E2FDDFE7244B1B6813F4804FDAD09D
:1073E400224B1B68002BD6DD214BD3F804350292C7
:1073F4000191244A009263221F49012005F0CCFD2B
:10740400C9E7194B1B6813F4804FC4D0174B1B6892
:10741400002BC0DD164BD3F8043510680490506877
:107424000390029192680192174A009277221249BE
:10743400012005F0B1FDAEE70B4B1B6813F4804F40
:10744400A9D00A4B1B68002BA5DD094BD3F80435E2
:1074540001910E4A00927B220749012005F09CFD10
:1074640099E707B05DF804FB6C2E0020682E00201D
:1074740000100140401E0400ED1D0400182E0020E1
:10748400001E04001C1E0400601E0400841E040070
:1074940000B583B00023ADF80030054B01936A4674
:1074A400014644F20200FFF743FF03B05DF804FB1A
:1074B400801E0400002307E04FF0A04102F5E072B3
:1074C400542041F822000133032B08D8044AD15C2C
:1074D4000A461F29F0D901F01F020249EEE770475E
:1074E400A01E040000030050074B1A5C11461F2A1B
:1074F40003D902F01F01054A01E04FF0A042012325
:107504008B40C2F808357047A41E040000030050E5
:1075140010B5002403E02046FFF7E6FF0134032CF6
:10752400F9D910BD08B5002307E04FF0A04102F5DA
:10753400E072032041F822000133032B08D8064AE5
:10754400D15C0A461F29F0D901F01F020349EEE776
:10755400FFF7DEFF08BD00BFA41E040000030050B7
:1075640010B5044610F0010F03D114F0020F03D13B
:1075740010BDFFF7D7FFF8E7FFF79CFFF8E700001F
:1075840030B583B0044615461D4B1B6813F4804F79
:1075940003D01C4B1B68032B11DCA36B04F13C01CF
:1075A4002046984794F83C302B7094F83D306B702B
:1075B400236C0BB1626C6AB16B6003B030BD124BCB
:1075C400D3F80435114A0092AA221149042005F087
:1075D400E3FCE2E719F03EFFA16C19F041FF4FF420
:1075E4007A7303FB00F0C20B236C934205D3B0F50E
:1075F400004F02D39B1A6B60DFE700236B60DCE76C
:107604006C2E0020682E002000100140F41E04009F
:10761400E51E040010B588B00446436CE3B9036C5E
:1076240013B190F83D20BAB194F83D2084F83C2081
:107634008DF818208DF81920079306A9204619F013
:107644008DFB94F84C303BB9636B94F83C102046A6
:107654009847012384F84C300F4B1B6813F4804F78
:1076640003D00E4B1B68042B01DC08B010BD0C4B7F
:10767400D3F8043594F83C2094F83D10206C049021
:10768400606C039002910192064A00928522064999
:10769400052005F081FCE8E76C2E0020682E002010
:1076A40000100140381F0400E51E040030B583B00B
:1076B4000446036B186819F0B7FE636C3BBB236C7C
:1076C4001BB3590CD8034FF47A72002310F5FA70E7
:1076D40041F1000119F0CEFEB0F1807F2AD20428D6
:1076E40031D9236B22460146186819F07FFE0546FE
:1076F40019F0B0FEA06445B11C4B1B6813F4804F15
:1077040003D01B4B1B68002B25DC03B030BD256B5D
:10771400590CD8034FF47A72002310F5FA7041F132
:10772400000119F0A7FE22460146286819F05EFE02
:107734000546E0E7236B22466FF07F41186819F095
:1077440055FE0546D4E7236B22460521186819F037
:107754004DFE0546CCE7074BD3F80435064A0092A4
:1077640068220649012005F017FCCEE76C2E0020A4
:10777400682E002000100140181F0400E51E0400BC
:10778400F0B583B0044617461E46089D1A4B1B6885
:1077940013F4804F03D0194B1B68032B1BDC00230D
:1077A40084F84C303B7884F83D300EB373686364DE
:1077B400336823642046FFF72DFF2046FFF776FF4A
:1077C4003DB194F83C302B7094F83D306B70236CD1
:1077D4006B6003B0F0BD0A4BD3F804351278019204
:1077E400084A0092CC220849042005F0D5FBD6E7CC
:1077F400002363642364DDE76C2E0020682E0020E0
:1078040000100140001F0400E51E040038B50446C2
:10781400436C9BB9056CADB1690CE8034FF47A7203
:10782400002310F5FA7041F1000119F023FEB0F1C4
:10783400807F0BD3A5F2FF15256403E00023436486
:10784400FFF7E8FE2046FFF731FF38BD002323642D
:107854002046FFF7DFFEF5E710B582B00446836BE0
:1078640000F13C01984794F83C3084F83D30002303
:1078740063642364236B186819F0D6FD94F83C30D4
:107884008DF8003094F83D308DF80130236C01936D
:107894006946204619F062FA02B010BDA0B110B5D5
:1078A40004460D4AC262426B8AB1826B8AB119F0F6
:1078B4001FFA034608B1184610BD084A0021206B80
:1078C40019F07EFD0346F6E70E23184670470E2393
:1078D400F1E70E23EFE700BF101F04001178020048
:1078E40010B40346044C006859689A68DB680FC4F6
:1078F4005DF8044B704700BF1C3400200B4B0C4A4E
:1079040092E8030083E8030003F10802094903C96C
:1079140082E80300DA79042161F30712DA711A7A32
:10792400022161F387121A72704700BF1C340020D1
:1079340060000010A4000010004870471C340020B0
:1079440000231F2B09D8074901EBC3000022428002
:10795400426001F833200133F3E7034B00221A603D
:10796400704700BF2C3400202C35002030B405466D
:107974000F4B1B6800240AE01F230E4A12F8330041
:10798400A0B102EBC3025288AA4207D001341F2CD3
:107994000BD85A1E002BEFD01346EEE7054A02EB34
:1079A400C30252688A42F1D100E0002030BC704723
:1079B4002C3500202C34002030B40A4A13680A4CB9
:1079C40004EBC30568806960012104F833100B449B
:1079D4001360202B01D030BC7047134600221A607C
:1079E400F9E700BF2C3500202C340020C0F30C0331
:1079F4008B4204D2C91A0144A1F500507047C91A38
:107A040008447047C37D002B42D083780A7802F083
:107A1400800203F07F0313430B7002780B7803F0AA
:107A24007F0343EAC2130B700378002B41D030B4B8
:107A34004378082B14BF002201224B7803F07F0304
:107A440043EAC2134B70858803F08003C5F38614A0
:107A540023434B708A7802F0030242EA8502D2B2D1
:107A64008A70857902F0FC02C5F3C10422438A704E
:107A7400CB7803F01F0343EA4513DBB2CB70C27922
:107A840003F0E00302F01F021343CB7030BC7047D5
:107A940083780A7802F0BF029B0103F0400313438A
:107AA4000B70C27803F0C00302F03F0213430B7063
:107AB400B3E770470023032B22D810B402E001334C
:107AC400032B19D8C3EBC30214010E4A224492F8C3
:107AD4004820012AF3D10B4A2244948AC289944251
:107AE400EDD1C3EBC3021401064A224492888A42B0
:107AF400E5D10448204400E000205DF8044B7047C1
:107B0400002070479C350020002300E00133032B44
:107B140014D8C3EBC3021101094A0A4492F848205D
:107B2400022AF3D1064A0A44918A828A9142EDD10B
:107B3400C3EBC3031A010248104470470020704786
:107B44009C35002008B904207047082070470000C5
:107B540038B505460C46CB695B78C370CB691B7896
:107B640083F001038370CB694362087B022814D03D
:107B7400FFF7E8FF6870E27A32B9A18AC0F10F0317
:107B8400994201DC082833D0A18A0346C0F10F00D2
:107B9400814207DC52B3012205E0164B987DFFF7C2
:107BA400D1FFE7E701222A7062B1A28A13440B33A2
:107BB400114A82FB0312DB17C3EB6203013BEB7137
:107BC4000023AB710023EB7505F10C0294E803006C
:107BD40082E80300A2692A622289AA82A27AAA758B
:107BE400226AAA6285F82C30184638BD0022DAE7EA
:107BF4000720FAE784350020ABAAAA2A30B403464A
:107C04000C460978817000214162A1680B2903D8D0
:107C1400217B09B3012100E0012119700020587073
:107C240029B1A1680731C9080139D97198710121B5
:107C3400D97503F10C0504F1100103C985E80300AB
:107C4400E1899982A1691962217F9975617F83F81D
:107C54002C109A6230BC70470021DEE70021174BDC
:107C64001B688B4227D90023154A02EBC1025268D4
:107C74009A421ED910B40FE060685DF8044B704757
:107C840001310E4B1B688B4211D900230C4A02EBC5
:107C9400C10252689A42F3D9094A52F8312002EBE0
:107CA400C30412F833208242E6D00133EEE7002009
:107CB400E3E70131D3E70020704700BF30350020EF
:107CC4003435002070B58CB006460D4614462C227F
:107CD400002101A819F03CFD0F238DF80430ADF804
:107CE40008604FF0000365F300038DF80A308DF847
:107CF4000B4001A801F0E6F80CB070BD30B58DB0B2
:107D040005460C462C22002101A819F021FD102360
:107D14008DF8043002958DF80C4001A801F0D2F8DA
:107D24000DB030BD00B58DB010B913F1020F06D1FE
:107D3400074B186804F060F80DB05DF804FB0122ED
:107D44008DF80420029301A801F0BCF8F0E700BF0D
:107D54003C3500202DE9F041054688460378BBB147
:107D64000D4B1C68621C1A6004F00704AB8A0B4FAD
:107D740007EBC4067380A988A869FFF737FE706013
:107D8400EB6903F00103737007F83480BDE8F081F8
:107D94007846FFF77DFBE3E780350020403500207F
:107DA40070B5064603784BB1B58A347F04F00104FC
:107DB400B188B069FFF71AFE002304E07846FFF7A4
:107DC40067FBF1E70133072B15D80C4A02EBC3021A
:107DD40052688242F6D1094A02EBC3025288AA428F
:107DE400F0D1064A02EBC3025278A242EAD1034818
:107DF40000EBC30000E0002070BD00BF4035002050
:107E0400F8B515461C460E684A68D1F808C0CF6814
:107E1400E6602261C4F814C0A7610E694A69E6618C
:107E240022620378DB092370E27D2AB3027802F030
:107E34007F02A270002262709BB143789B0103F41D
:107E4400FE53827843EA9203A3808378DB0003F035
:107E54001803C27843EA5213A371C37803F01F03D3
:107E6400E371002363622B78052B1AD82B780F4A11
:107E7400D35C84F82C30F8BD0278C2F38012A2706F
:107E8400027802F03F02E27043B190F90120002A27
:107E940002DB04226270CFE70822FBE7042262704F
:107EA400CAE77846FFF7F4FAE0E700BF781F04005A
:107EB40070B50C461E460378B3B104252A44A2606B
:107EC40000F10C032360836A636090F82C30237301
:107ED40000236373204604F0F3FA034610B92269C1
:107EE40015443560184670BD0125E7E72DE9F041DA
:107EF4008EB00D4616461C46804600282DD0002D17
:107F04002FD0002C31D0636A0233059304F10C00A6
:107F1400A378002B2DD00121627801AF3B46082ABB
:107F240014BF0022012204F0ACF80697CDF81C809F
:107F3400B2B2ADF820200B9515440C9563788DF8FA
:107F44003430237B022B16D00023ADF8283005A84B
:107F540004F08FF80EB0BDE8F0817846FFF798FA88
:107F6400CDE77846FFF794FACBE77846FFF790FA27
:107F7400C9E70221D0E723692BB1236909931023B0
:107F8400ADF82830E3E77846FFF782FAF5E72DE904
:107F9400F04186B004460D46C37D002B3CD0082634
:107FA40005FB06F8E379AB4238D0A5716B4632463F
:107FB40001A92046FFF77CFF074648BB4DB994F85A
:107FC400533033B9A369C3F30C03A380012384F8AA
:107FD4005330E37D7BB994F8523063B91DBBB4F8D8
:107FE4004A10627823468A1AE16E0846FFF77EFF3C
:107FF400012384F8523005992046FFF703FDE16E12
:1080040032464144009819F07AFB01A804F077FA4B
:10801400384606B0BDE8F0810C26C1E7B4F84A60E2
:10802400A6EB0806C1E77846FFF732FAD7E770B542
:1080340005460E4609B100230B6095F85040002117
:1080440004E0631C85F850300134E4B2EB79A342B8
:1080540010D3EA6C0123A3401A42F5D121462846E5
:10806400FFF795FF014628B9002EEAD033680133A3
:108074003360E6E7084670BDF0B587B0457815442F
:10808400C37D7BB10B239D4224D816460F4604467C
:108094006B462A4601A9FFF70BFF054620B1284687
:1080A40007B0F0BD0F23EEE705992046FFF7AAFCC1
:1080B400E37D43B132463946009819F020FB01A80C
:1080C40004F01DFAEBE72346324600993846FFF7E1
:1080D4000DFFF4E70925E2E710B5044690F84830AF
:1080E400012B0CD103F07CF8237B012B0BD0094B23
:1080F400D968014404F1300003F03AF810BD784621
:10810400FFF7C6F9EEE7A37D024AD168126902FBC4
:108114000311EEE78435002030B583B0002403E07A
:108124002846FFF7D9FF0134032C19D8C4EBC40344
:108134001A010C4B134493F84830012BF3D100235C
:108144000193C4EBC4021301064D1D4401A9284642
:10815400FFF76DFF0428E3D0019B002BE3D0DFE79A
:1081640003B030BD9C35002038B5044690F8483043
:10817400022B09D1064B1D6803F032F8411904F1B2
:10818400300002F0F5FF38BD7846FFF781F9F1E7DA
:108194008435002038B5044690F84830022B10D1BD
:1081A4000A4B5D7D5A689B6803FB052503F018F8AC
:1081B400411904F1500002F0DBFF012384F8683018
:1081C40038BD7846FFF764F9EAE700BF843500203C
:1081D40038B50446C06E07F0F8FF04F130052846B0
:1081E40002F0E3FF70B994F84830022B0ED07022ED
:1081F4000021204619F0ACFA002084F8480002F06F
:108204002FF838BD284602F09BFFECE704F1500537
:10821400284602F0CAFF0028E9D0284602F090FF61
:10822400E5E710B504460121FFF794FD2046FFF76A
:10823400CFFF10BD10B58CB0044690F84830012B28
:108244000CD101238DF80430636D029301A800F072
:1082540039FE2046FFF7BCFF0CB010BD7846FFF78F
:1082640017F9EEE730B585B00D460446A8B10021F4
:108274002046FFF76FFD2946606DFFF73FFD20465E
:10828400FFF7A6FF0F4B1B6813F0040F03D00E4B30
:108294001B68032B05DC05B030BD7846FFF7F8F802
:1082A400E5E70A4BD3F8043594F848200295019287
:1082B400074A009240F2EF120649042004F06CFED3
:1082C400E9E700BF6C2E0020682E0020001001405A
:1082D400C41F0400B71F040008B508460021FFF7B7
:1082E400C1FF08BD08B5037B012B02D0FFF7A2FF35
:1082F40008BD0121FFF7B6FFFAE7000008B590F8C2
:10830400513053B1013B80F85130002380F8503094
:10831400034B186803F070FD08BDFFF7E3FFFBE7AC
:108324003C35002010B50C4691F84830012B03D1A0
:108334002046FFF7E3FF10BD7846FFF7A9F8F7E7FB
:10834400062951D170B582B003460178890101F440
:10835400FE5140789D78DC78240444EA05641D7954
:1083640044EA05245B791C4341EA90011046FFF777
:10837400A1FB0546B8B1C66C2643C66444B3037872
:1083840053B3EB795A1C01239340013B9E4227D0FF
:10839400002185F850102846FFF749FE2846FFF7CC
:1083A4009BFE02B070BD114B1B6813F0040FF8D094
:1083B4000F4B1B68012BF4DD0E4BD3F804350E4A2A
:1083C400009240F2A7520D49022004F0E5FDE8E7CF
:1083D4000321FFF747FFE4E77846FFF759F8D0E7B2
:1083E4002846FFF727FFDCE7704700BF6C2E00200C
:1083F400682E002000100140E81F0400B71F04008D
:108404002DE9F04389B080460F4614461E46957800
:1084140025B9FFF795FF09B0BDE8F0832846FFF7BB
:108424001DFC81460028F6D08DF80050236A06937F
:10843400A38AADF80E3004AB04F10C0292E80300F9
:1084440083E80300A37D8DF81C30CDF804800297E7
:1084540023788DF80C3094F82C308DF81D3031468B
:108464006846C847D7E700002DE9F04706460F469F
:1084740090464B1EDBB2012B0FD8B8F5C07F10D845
:108484000024032C1AD8C4EBC4031A01314B13443F
:1084940093F848304BB10134F3E77846FEF7F8FF20
:1084A400EBE77846FEF7F4FFEAE7DFF8A8A0154605
:1084B4005544404607F085FEE86600E0002585B394
:1084C400EB6E002B44D033462A4606F1300ED3F827
:1084D40000C05C689868D968C2F800C054609060B5
:1084E400D160103310327345F1D10023EB64A5F849
:1084F4004A80B188B069FFF779FAA861012F13D0D7
:108504006FF00103AB62002385F86830124BAB6552
:108514002D66124BAB632D64012001F0A1FE85F89A
:1085240048702846BDE8F0870D4B1B7D85F8513017
:10853400002385F8523085F8533085F85030B36AFB
:108544006B656FF00103AB62064BAB632D64E3E72D
:108554001D46E6E79C3500200D8E0200DD820200F8
:108564008435002029830200F0B5C7B0467816444C
:10857400C37D2BB14FF48073B3427ED3002303E059
:108584004FF4C073F8E70133032B19D8C3EBC304CA
:1085940025013C4C2C4494F84840012CF3D1394C2F
:1085A4002C44A58A848AA542EDD1C3EBC3042501DA
:1085B400344C2C44E589C489A542E4D1082455E00F
:1085C40014460F4632460121FFF74EFF05460028A8
:1085D40055D022463946C06E19F091F800234593D0
:1085E40045A92846FFF723FD044608B1042840D1D5
:1085F400459B7BB9244B1B6813F0040F35D0234BE8
:108604001B68032B31DDB5F84A70802F28BF802703
:10861400002313E02846FFF75FFDEBE7EA6ED25C28
:108624001B490C6810095900265C04A800F8136063
:1086340002F00F020131A25C42540133BB42EDD37C
:1086440004AA002302F8173003F1804303F58833AA
:10865400D3F8043502920F4A01920F4A009240F275
:10866400D1420E49042004F097FC0024204647B070
:10867400F0BD2846FFF7ACFDF8E70924F6E704242B
:10868400F4E700BF9C3500206C2E0020682E0020EB
:10869400702E002018200400601C0400B71F040082
:1086A40000B585B000238DF80F3098B10346084615
:1086B40002330B600DF10F0103F0DFFC9DF80F3066
:1086C40043B10D4B1B6813F0040F03D00B4B1B6815
:1086D400032B04DC9DF80F0005B05DF804FB084B88
:1086E400D3F80435074A009240F2A6320649042022
:1086F40004F052FCEEE700BF6C2E0020682E002030
:108704000010014028200400B71F04002DE9F043A5
:108714008FB004460E4615461F46D0F818900378CD
:1087240023B181884846FFF761F9A06104F10C0088
:10873400A378002B3AD0012162780DF12808434632
:10874400082A14BF0022012203F09BFCC4F81890ED
:10875400CDF8088003966378EA1A92B2ADF8102037
:108764003244089207978DF824300023ADF818306E
:10877400237B022B1CD0A3786BB3237B022B1BD04F
:108784002546002345F8243F2A46E178206A0EF066
:10879400CDFA606A98B101A9FFF782FF00283AD1A7
:1087A4002A46E178206A0EF0C1FAF2E70221C3E713
:1087B4001023ADF81830DEE723690593E0E7237B47
:1087C400022B2CD104F10C01E0890EF05DFB002892
:1087D400D3D1052020E000236362237B012B0DD03D
:1087E4002146002341F8243FA08A0EF0BCFA01A9D7
:1087F400606AFFF755FFA0B905200DE004F12401DC
:10880400E0890EF0B0FA01A9606AFFF749FF002879
:10881400E6D0002000E000200FB0BDE8F083052082
:10882400FAE70020F8E7000070B5F0B00D461446F2
:108834001E4610AB0A4601462046FFF767FFA0B16B
:108844001F4B1B6813F0040F37D01E4B1B68052BFE
:1088540033DD1D4BD3F804351C4A009240F21962F3
:108864001B49062004F098FB27E003AB01228DF896
:108874000C20A28AADF80E20002204928DF8142058
:1088840010AA06926278AD1AADF81C5008AA93E8B3
:10889400030082E803000AAB04F10C0292E803002F
:1088A40083E80300A37D8DF83830236A0C93636A50
:1088B4000D930F9605A800F005FB70B070BD00BFC6
:1088C4006C2E0020682E002000100140602004005F
:1088D400B71F040010B5D47D14B1FFF791FD10BD8E
:1088E400FFF7A2FFFBE770B504460D461646808AE3
:1088F40001F0D6FF01281AD1237BD3B1022B0BD070
:1089040094F91630002B16DB237853B132462946EE
:108914002046FFF729FE0BE02369002BF0D110203D
:1089240006E0324629462046FFF7A6FB00E0102069
:1089340070BD1020FCE70720FAE7000010B54FF4E3
:10894400E0720021134818F003FF05F085FD0024B0
:10895400114B1C6040222146104818F0F9FE104BC0
:10896400104A1A60104A5A604CF250329A600F4909
:10897400D9601A6104221A759C7508225A750C482C
:1089840003F01AFA0B4B18600B4B1C600B4805F0F4
:1089940065FE10BD9C350020803500204035002048
:1089A4008435002080969800F049020020A1070039
:1089B400618B02003C35002030350020297D020007
:1089C40008B505F0C1FC08BDC0B110B58CB00446B3
:1089D4000369B3B1C369B3B18369B3B101466846EE
:1089E400FFF7B6F8034610B118460CB010BDA28AC2
:1089F40021696846FFF777FF0346F5E70E2318461B
:108A040070470E23F0E70E23EEE70E23ECE7D0B118
:108A140010B58CB004464268BAB18269BAB1027C1E
:108A2400022A16D0BAB190F90020002A15DB0A46B2
:108A340001466846FFF7E2F8A26861686846FFF7F6
:108A440052FF0CB010BD0E2070470E20F9E70E2027
:108A5400F7E71020F5E71020F3E70720F1E700001F
:108A6400037B012B01D00020704730B58DB001ACE1
:108A740000230293CDF80B308288C2F386158DF85B
:108A8400045092008DF805200A0E8DF806200A0C79
:108A94008DF807200A0A8DF808208DF8091006229F
:108AA400069201228DF82020828AADF822200993B3
:108AB4008DF810300594026A0A928DF81C30C3892F
:108AC400ADF81E3090F82C308DF82D30837D43B9ED
:108AD4008DF82C306FF0010104A8FFF798FF0DB05A
:108AE40030BD024B5B7D8DF82C30F3E784350020DC
:108AF40038B590F84830022B00D038BD90F8683073
:108B0400022BFAD10446C16CFFF7AAFF0028F4D166
:108B1400002384F86830E56C237853B1E3795A1C58
:108B240001239340013B9D42E7D12046FFF779FBA7
:108B3400E3E77846FEF7ACFCF0E7000010B500244C
:108B440007E0C4EBC402130103481844FFF7D0FF45
:108B54000134032CF5D910BD9C35002008B5FFF76E
:108B6400DBFAFFF7EBFF012008BD00002DE9F0411F
:108B740082B007460E46144698461046FEF7C4FFD8
:108B8400054620B1A28883889A4210D312D8204681
:108B9400FFF706F9B8B103784BB123787BB1E179DB
:108BA4004B1C0121994001392046FFF759FF02B0BF
:108BB400BDE8F0810521FFF755FB0025E7E778467E
:108BC400FEF766FCEBE7002D56D05F4B1B6813F0F5
:108BD400040F04D05D4B1B68032B00F385802846EB
:108BE400FFF7C2FA2B7B012B00F08C80EA6CA17991
:108BF40001238B401A42DAD11343EB64A279EB7957
:108C04009A4200F08880E37D002B00F08F800823D7
:108C1400B34240F08D80EB6EA079E27D002A00F033
:108C24008C8008243246394604FB003018F067FD76
:108C3400EC6C2B78002B00F08280EB795A1C01231A
:108C44009340013B9C42B2D1022385F86830E96C21
:108C54002846FFF705FF044643462A46B5F84A105E
:108C6400E86EFFF737FE002CA1D1002385F86830A9
:108C74002846FFF7D6FA9AE7E279531CE17DE9B179
:108C8400082202FB03F2D9B14FF4807393421AD243
:108C94002D4B1B6813F0040F89D02C4B1B68002B41
:108CA40085DD2B4BD3F8043501922A4A009240F219
:108CB40036322949012004F06FF978E70C22E0E705
:108CC4004FF4C073E2E702212046FFF7CDFB0546CF
:108CD40000287FF47AAF00212046FFF7C1FE02216D
:108CE4000020FFF70BF862E7194BD3F80435A2799B
:108CF40001921A4A009240F251321749042004F0BA
:108D04004BF96CE795F86830002B7FF46FAF284679
:108D1400FFF740FA6AE79BB2E27D2AB1082203FB1F
:108D24000263A5F84A3076E70C22F8E70C236FE7D4
:108D340004212846FFF796FA39E70C2472E77846AF
:108D4400FEF7A6FB79E700BF6C2E0020682E0020FA
:108D5400001001403C200400B71F04005020040010
:108D64002DE9F0418EB000284AD00546002A49D0AA
:108D7400984614460E4600220C920D920CA9608867
:108D84000EF082F820B9002738460EB0BDE8F08115
:108D94002269E168208905F00BFB08B10027F3E79D
:108DA4002269E168208905F0D7FA0746C8B96B46FD
:108DB400424621462846FFF723F803AB0EAA12E9E0
:108DC400030083E8030002F07FFF9DF8003083B1C5
:108DD40043466A46311F281DFFF7C8FE02F0B8FF5C
:108DE400D2E72169002201F001012089FEF76AFF20
:108DF400CAE743466A46711E681CFFF76BFDEDE740
:108E04000E27C1E70E27BFE710B50C4691F848308E
:108E1400022B0BD1022384F86830E16C2046FFF763
:108E24001FFE10B9002384F8683010BD7846FEF7A1
:108E34002FFBEFE7F8B500B30546164B1F68F7B9EB
:108E44000E463C46B4420ED205EBC4035B68CBB17C
:108E540015F8340010F0800F16D1B8B1FEF7FEFEFD
:108E6400B0B90134EEE70C4B43F8375003EBC703BA
:108E74005E607B1C074A136002E00E2700E00427B3
:108E84003846F8BD0E27FBE70B27F9E70F27F7E76E
:108E94000F27F5E73035002034350020084B1968DA
:108EA40061B110B504E0064803F0E1FF214624B1A6
:108EB4000C680B79002BF9D0F5E710BD704700BFA3
:108EC4006037002038B5054630B1104B1C68ACB192
:108ED4000F4B01221A7004E07846FEF7D9FAF4E742
:108EE40024683CB12379002BFAD154F8043C284679
:108EF4009847F5E7064B1B78022B00D038BDFFF7E7
:108F0400CDFF034B00221A70F8E700BF6037002042
:108F14005C37002010B5044630B100232372211DB4
:108F2400034803F079FF10BD7846FEF7B1FAF4E781
:108F34006037002010B5044658B10A4B1B78013B3A
:108F4400DBB2012B09D8074B02221A7001232372CA
:108F540010BD7846FEF79CFAEFE7211D024803F0A6
:108F640086FFF5E75C370020603700200A888368B5
:108F74009B5A07339BB223F0030313449BB202882A
:108F8400043A934200D900230B80704710B582B095
:108F940004468368C91AADF806100DF10601FFF7FF
:108FA400E5FFBDF80630A068184402B010BD008883
:108FB400043880B2704743888268D018D1520123A4
:108FC4008370704782680023937043808380704766
:108FD400073189B221F0030189B2428883889A4219
:108FE40004D29B1A99421EDC0020704710B59A42A5
:108FF4000FD90488A41AA14217D98B4217D3032C82
:1090040003D98368134404229A70002343801846CA
:1090140004E0826813449B780BB1042010BDFFF771
:10902400D1FF0020FAE7042070470020F6E704206F
:10903400F4E738B504460D468368828813448B42AE
:1090440002D07846FEF724FA0023AB70211D204697
:10905400FFF78CFFA288A36813449B78042B00D0ED
:1090640038BD0023A380FBE710B50C468368428813
:1090740013448B4202D07846FEF70AFA0023A37009
:1090840010BD70B5064615460C46002944D0002E86
:1090940046D0B4F1005F08D94FF08053D3F80C31B7
:1090A40003F50023B4EB832F0ED3B4F5000F08D9D6
:1090B4004FF08053D3F80C3103F50053B4EB832FF6
:1090C40002D37846FEF7E4F96B1E2344B3F1005F44
:1090D40008D94FF08052D2F80C2102F50022B3EBEC
:1090E400822F0ED3B3F5000F08D94FF08052D2F877
:1090F4000C2102F50052B3EB822F02D37846FEF71F
:10910400C7F9042D10D9358000237380B380B4606F
:10911400043D2580A37070BD7846FEF7B9F9B6E723
:109124007846FEF7B5F9B4E77846FEF7B1F9EAE711
:1091340038B50446A0B16288A36813449B78012B18
:1091440012D0EFF3108572B6A388A16819448B7806
:10915400032B0DD02046FFF735FF05B962B638BDA5
:109164007846FEF795F9E6E77846FEF791F9E8E7E1
:109174002046FFF70BFFA368C31A638000238370A4
:10918400EBE72DE9F0410E4615460446D0B1EEB1A9
:109194006288A36813449B78012B1BD025B3204617
:1091A400FFF705FFA84221D3EFF3108872B62946D2
:1091B4002046FFF70DFF074680B1B8F1000F16D126
:1091C40062B614E07846FEF763F9E0E77846FEF706
:1091D4005FF9DDE77846FEF75BF9DFE729462046CD
:1091E400FFF7E9FE3060E8E7092700E00927384681
:1091F400BDE8F081F8B50C4616460546E0B1FCB171
:10920400A378012B20D12388B34221D326B3EFF3D3
:10921400108772B626800223A370E9182846FFF748
:10922400A5FE6B88AA88934203D0AA68134400223F
:109234009A7007B962B6F8BD7846FEF729F9DEE7F9
:109244007846FEF725F9DBE77846FEF721F9DAE7F9
:109254007846FEF71DF9D9E77846FEF719F9D6E7FF
:1092640070B50D46044690B1ADB1EFF3108672B6F9
:10927400A288A36813449A78042A10D09A78022A00
:1092840015D0032A18D0052006B962B670BD7846F9
:10929400FEF7FEF8E8E77846FEF7FAF8E5E7211D61
:1092A4002046FFF763FEA288A3681344E6E703227F
:1092B4009A702B600020E7E77846FEF7E9F8002073
:1092C400E2E738B5044680B1EFF3108572B6A088A2
:1092D400A16801448B78042B0BD08878022814BF32
:1092E4000020012005B962B638BD7846FEF7D0F8F3
:1092F400EAE72046FFF74AFE0146EEE738B50446A2
:1093040078B1EFF3108572B6A088A168014488781B
:10931400C31EDBB2012B08D82046FFF737FE0146F7
:10932400F5E77846FEF7B4F8EBE7022814BF00200F
:10933400012005B962B638BD70B50C46064678B151
:1093440094B1EFF3108572B6A378012B10D0032BE0
:1093540013D121463046FFF76CFE05B962B670BDE5
:109364007846FEF795F8EBE77846FEF791F8E8E7DC
:1093740021463046FFF778FEEFE77846FEF788F897
:10938400EBE710B5EFF3108472B683888168194453
:109394008B78042B06D08878B0FA80F0400904B9A1
:1093A40062B610BDFFF7F2FD0146F4E708B5064BBF
:1093B400986800221A605A609A60DA601A615A61E9
:1093C4009A6104F0D1FD08BD6437002000B585B072
:1093D4000A4BDB6802228DF8002001934FF480537E
:1093E4000293074A6946012001F070F918B9012077
:1093F40005B05DF804FB0020FAE700BF64370020E5
:109404008037002000B585B00A4B1B6802228DF816
:10941400002001934FF480530293074A69460120C8
:1094240001F054F918B9012005B05DF804FB0020DF
:10943400FAE700BF8437002080370020164BDA6833
:10944400137951795B1A03F57F2303F6FF7302EB5B
:1094540003339A4205D002F580520F4BDA600320A1
:10946400704700B585B00D4B1B6801208DF80000D6
:1094740001930B4B0393042302930A4A694601F0B8
:1094840025F918B1002005B05DF804FB024B012258
:109494001A760220F7E700BF6437002084370020E3
:1094A400883700208037002000B585B00C4BDA687F
:1094B4000C4B1B68043301208DF8000001920393C8
:1094C40040F6FC730293084A694601F0FFF818B9A4
:1094D4000120034B187600E0002005B05DF804FB82
:1094E40064370020843700208037002000B585B021
:1094F4000A4B1B6801208DF800000193084B03936D
:1095040004230293074A694601F0E0F818B90120E0
:1095140005B05DF804FB0020FAE700BF84370020A3
:10952400703700208037002010B584B0104BDA6803
:109534001478104B1B68043301208DF8000001934C
:10954400039202940C4A694601F0C0F868B9094BC9
:109554001B6804F0FC041C440434054B5C61D968AA
:109564000A780A441A61012000E0002004B010BD0A
:1095740064370020843700208037002008B500239A
:10958400092B09D8064A52F82320824201D001331C
:10959400F6E7044A536002E07846FDF779FF08BD18
:1095A4008C2004006437002010B5214BDB6853B1D4
:1095B4001F4B1B7E5BB91E4B5B68092B26D9784673
:1095C400FDF766FF22E07846FDF762FFF0E7784694
:1095D400FDF75EFFEFE7164A536801335360092B2A
:1095E40021D97846FDF754FF1DE0114B00225A6043
:1095F40019E00F4B1B7E1BB10D4B02221A7012E0B7
:10960400FFF7D4FE0FE00A4B1B7E83B9084B5A6860
:10961400084B53F82230984704460228E9D003281F
:10962400E3D00128D7D0012CEDD0032CEBD010BD12
:10963400643700208C200400104B1B681B685A1EE2
:1096440012F1030F18D8C3F30B020AB100207047BC
:1096540010B50B4AD360002313765376012414709B
:1096640093600848FFF78AFF0749204601F01CF879
:10967400FFF79AFF204610BD002070478437002072
:1096840064370020D19302009196020008B50B784C
:10969400032B06D00B4B1B78012B06D0022B0BD0CF
:1096A40008BD084B00221A76F4E7064B1B7E002BFC
:1096B400F6D1FFF779FFF3E70B78032BF0D1FFF72F
:1096C40075FEEDE76437002000B585B0174BDB6805
:1096D40018784FF6FF7203F58051184404F074FFB4
:1096E400F0B10246114BD9680B780B44984219D05B
:1096F4000E4B5B7E93B10E4B01208DF8000001925E
:109704000393042302930B4A694600F0DFFF58B920
:109714000120064B187605B05DF804FB064BEBE719
:109724000120F8E70120F6E70020F4E76437002081
:10973400AC22040080370020A822040008B5104B96
:10974400DB681878002203F58051184404F03CFFCC
:1097540008B1012008BD0A4BDA68137951795B1A04
:1097640003F57F2303F6FF7302EB03339A4205D01C
:1097740002F58052024BDA600320EBE70220E9E7AE
:1097840064370020F0B585B0514BDD686A792B79D8
:10979400591E8A4214D005F580510C780C444D4969
:1097A4000968081D0E7906449B1A05EB0335638886
:1097B400013B9BB247F6FE62934260D927461BE009
:1097C4000120434B58767EE07846FDF761FE16E0B3
:1097D40027F47F6323F00F0303F580531A781344AF
:1097E4009D4247D99C4247D25A88013A92B21F46B9
:1097F40047F6FE618A4210D93B88002BE4D03B88AF
:1098040007EB830323F47F6222F00F029342DFD03D
:109814007A88B2F5FE4FE3D1DAE71C462FE07846AA
:10982400FDF736FE16E027F47F6323F00F0303F5FC
:1098340080531A7813449D4220D99C423BD25A88C3
:10984400013A92B21F4647F6FE618A4210D93B881C
:10985400002BE4D03B8807EB830323F47F6222F0E0
:109864000F029342DFD07A88B2F5FE4FE3D1DAE7F4
:109874001C4604E0002402E0002400E00024E4B1DB
:10988400144B1968628801F58051304604F09CFE3F
:10989400064690B101200E4B18768DF80000019415
:1098A4000D4B0393042302930C4A694600F00EFF08
:1098B40058B92746CBE70024E1E7B4FA84F46409F5
:1098C400034B5C76012005B0F0BD0020FBE700BF30
:1098D4006437002084370020A4220400803700204D
:1098E4002DE9F04186B0644B1B6923B1624B5B697F
:1098F4002BB1002748E07846FDF7CAFDF6E7784625
:10990400FDF7C6FDF5E77846FDF7C2FD17E028F43C
:109914007F6323F00F0303F580531A7813449E42A8
:109924001FD99C4221D25A88013A92B2984647F6EE
:10993400FE618A4213D9B8F80030002BE3D0B8F89E
:10994400003008EB830323F47F6222F00F0293427A
:10995400DDD0B8F80220B2F5FE4FE0D1D7E71C46BF
:1099640000E000241CB1009438E00024FAE700234E
:109974000093019B002B5AD10127002C76D06288DA
:1099840047F6FF739A4271D0002F73D13A4B5A694C
:1099940022F47F6525F00F05AD1A05F580551C6985
:1099A400DE68337972799B1A06EB03360023019340
:1099B4006388013B9BB247F6FE629342D3D9A0462B
:1099C400B9E77846FDF764FD23E024F47F6424F0CE
:1099D4000F0404F58054237823441C46A642C8D9B6
:1099E4002388019A02EB83029542C2D9009B63400B
:1099F40023F47F6323F00F03002BBAD16388013B68
:109A04009BB247F6FE618B42B3D801922388002BA8
:109A1400D7D0238804EB830323F47F6222F00F0260
:109A24009342D2D06288B2F5FE4FD6D1CDE7124A26
:109A3400526901208DF808000392009A059204935C
:109A44000E4A02A900F042FE70B90B49019B23F0B3
:109A540003024B6913444B6114B1074B1C618CE73F
:109A64007846FDF715FDF8E7002000E0012006B078
:109A7400BDE8F0810120FAE7643700208037002038
:109A840008B54FF010235B69B3F1FF3F09D04FF0E5
:109A940010235B692BB14FF010235B69A3F580534E
:109AA40005E04FF080525169136903FB01F3A3F5FC
:109AB4008053024A1360FFF7BFFD08BD84370020BE
:109AC40010B50446B0B1104B1B78BBB10E4BD9682E
:109AD400E3685879A3EB0032914211D31A79121A30
:109AE40002F57F2202F6FF7203EB0233994209D892
:109AF400012004E07846FDF7CBFCE4E7002010BD2C
:109B04000020FCE70020FAE764370020024B1878B5
:109B1400003018BF012070476437002010B5044698
:109B24000E4B1B7893B92378032B13D10B4B9C60FA
:109B3400E268DA6000225A601A76012018705A76B8
:109B4400074900F0B1FDFFF72FFD10BD7846FDF782
:109B54009FFCE8E77846FDF79BFCE7E764370020C5
:109B640091960200014B1868704700BF84370020AB
:109B740010B5044680B163681BB123680BB1A368B8
:109B840013B97846FDF784FCA3685A1E134207D123
:109B94000023E360236110BD7846FDF779FCEAE712
:109BA4007846FDF775FCF3E770B5F0B104468368B9
:109BB400EBB1EFF3108572B60369C068834210D02D
:109BC400084621686268A668013E334003FB02111F
:109BD40008B117F094FD2369013323614DB962B6CE
:109BE40008E005B962B6052504E00E2502E0092562
:109BF40000E00025284670BD0246C0F30B0048BBB8
:109C040051B310B401F6FF710C0B144B0221C3F8CD
:109C14000415124BD3F80034002BFAD0014602E0AD
:109C240002F580520131A14208D20C4BC3F8082539
:109C34000A4BD3F80034002BFAD0F1E7074B00228B
:109C4400C3F80425054BD3F80034002BFAD05DF893
:109C5400044B7047102070470920704700E0014012
:109C640010F0030F2FD111F0030F2FD182B312F094
:109C7400030F2FD110B49208174B0124C3F80445E5
:109C8400154BD3F80034002BFAD002E00430043131
:109C94002246541E52B10B68B3F1FF3FF6D0036065
:109CA4000D4BD3F80034002BFAD0EFE70A4B002118
:109CB400C3F80415084BD3F80034002BFAD010462F
:109CC4005DF8044B70471022104670471022FBE7E2
:109CD4000922F9E70922F7E700E001404388012B54
:109CE40005D0022B01D104300860012070470430F4
:109CF4004860FAE708B508220221084803F0A5FFE6
:109D040038B1074A91684160127B027203F0D6FFB2
:109D140008BD044804F000F9FAE700BF94370020B6
:109D2400E03700202C2E00200E4B1B78CBB910B549
:109D34000D4B5C6804F50054B4F1807F00D910BD6C
:109D440004220121094803F080FF30B14460054A30
:109D54000121117003F0B2FFF1E7054804F0DCF8CB
:109D6400EDE77047F4370020E037002094370020F7
:109D74001C2E002010B5044608B1A04710BD78463B
:109D8400FDF786FBF9E7000008B501210C4803F054
:109D9400BDFF20B902210A4803F0B8FF28B10948E1
:109DA40004F0BAF8FFF7C0FF08BD074A00231360A8
:109DB40053609360D3601361044A1370F2E700BFE9
:109DC400943700204C2E0020E0370020B8370020C4
:109DD40000B58DB00B4B1B7B012B0ED0094A92684A
:109DE40004928DF80830039002238DF8043001A802
:109DF400FFF768F80DB05DF804FB024A9268013A77
:109E04000492EEE7E037002010B58CB00C4682B91E
:109E14004B88012B20D1134B1B7833B16268124B52
:109E24005A60104B00221A7016E07846FDF730FB9A
:109E3400F4E7032A12D12C22002101A817F088FC90
:109E440011238DF804300394084BDA6805921B69DA
:109E5400069301A8FFF736F80CB010BD7846FDF75D
:109E640017FBE8E7F4370020E037002094370020A0
:109E740000B583B001F028FF0021009101916B46E9
:109E8400134A144803F0D6FD009B63B1019A52B102
:109E94001868114988601879087393420BD950B92E
:109EA40000220A600AE00C4B00221A609A601A73BE
:109EB400FFF720FF02E01268074B1A60064B1A688E
:109EC4005A60FFF731FF01F043FF03B05DF804FB74
:109ED400E19C020094370020E037002008B504F02C
:109EE4006FF8A0F5805008BD00B587B0002300933B
:109EF40001930293039304930593FFF7EFFF0090FC
:109F040001230193064B03936946064803F0B5FF0A
:109F140010B907B05DF804FB034803F0FDFFF8E750
:109F24000D9E0200943700203C2E002010B50B4BF0
:109F340000241C605C609C60DC601C6101F050F9D2
:109F4400074B5860074A9A60074ADA601C615C61F3
:109F5400064B1C70FFF7C8FF10BD00BFE0370020A0
:109F6400BC370020A1A0020000879303F53700202E
:109F740008B5084B1B7803B108BD0748074B0360BD
:109F840000F04EFE064801F0B5F8024B01221A70AB
:109F9400F2E700BF90370020D4370020C9A10200A7
:109FA400BC37002010B501F08FFE164B1B7B0BBB9A
:109FB400144B9B7B1BBB134B1A8A41F282639A425C
:109FC40004D8114B1B782BB1012300E001231BB9EA
:109FD400082410E00023FAE70A4B01221A73002434
:109FE4001C829A6801329A60FFF784FE2046FFF7CC
:109FF400EFFE00E0082401F0ABFE204610BD08246B
:10A00400F9E700BFE0370020F537002010B501F074
:10A014005BFE204B5B7B9BB11E4B9B7BF3B91D4BC3
:10A024001A8A41F282639A4204D81B4B1B782BB1E3
:10A03400012300E001239BB1012302E00023FAE79E
:10A0440000231C460BB3134B00225A731B7B4BB1EA
:10A05400012B0ED07846FDF71BFA16E00023F0E73B
:10A064000023EEE7FFF79EFF78B17846FDF710FA7C
:10A074000BE0084B00201860586018731882FFF733
:10A08400A7FEFFF737FEFFF74FFE01F061FE204603
:10A0940010BD00BFE0370020F537002008B5214B84
:10A0A4001B7B7BB1012B20D07846FDF7F1F91D4ACB
:10A0B400138A013313821B4B5B8A13B1013B194A88
:10A0C400538208BD174B1A8A41F282639A4204D81C
:10A0D400154B1B783BB1012300E00123002BE6D094
:10A0E400FFF794FFE7E70023F8E70E4B1B8A41F2E2
:10A0F4008262934204D80C4A127872B1012200E0C1
:10A104000122002AD3D042F2B012934207D9054B60
:10A1140001225A73FFF77AFFCDE70022F1E7FFF738
:10A1240075FFC4E7E0370020F537002010B5244B55
:10A134001B7B002B35D10446214B5B8A2BBB1AB900
:10A144001F4B9B688B4205D3FAB11D4B9B680133AF
:10A154008B421AD21A4B9B682A338B4223D3184B57
:10A164009B7B03BB164B996000221A605A601A82CB
:10A1740042F6065159825A731A73FFF7BBFDFFF773
:10A18400D3FD2046FFF724FE0DE062B10C4B9B6823
:10A1940001338B4207D10A4B01225A73FFF736FF72
:10A1A40001E0012B00D010BD002AFCD1044B9B68B8
:10A1B4008B42F8D1024B01225A73FFF727FFF2E7D3
:10A1C400E03700200378042B00D0704743681B78E5
:10A1D400002BFAD010B58468027E437E012A14BF96
:10A1E40000220122416904F11000FFF79FFF10BD16
:10A1F40010B5184B1A685B689A4226D20446154B70
:10A204001B7B012B14D0144B9A4213D2114B1A68A6
:10A214005B68403B9A4215D2EFF3108172B60D4A47
:10A224001368581C1060236001B962B6002010BD89
:10A234000A4BE9E7074B01225A73FFF7E7FE0028B0
:10A24400EAD1E3E7FFF770FDE6E7FFF76DFD0F20C6
:10A25400EDE700BFE0370020FFFF7F0000E0FF00D4
:10A2640008B538B10D4B01229A730D4A13680133B6
:10A27400136008BD0A4B1B685BB1094A1368013BB4
:10A284001360002BF5D1054B00229A73FFF7BEFE35
:10A29400EFE77846FDF7FCF8EFE700BFE037002072
:10A2A4008C37002000B58DB0ADF808008DF8102073
:10A2B400039103238DF8043001A8FEF703FE0DB0CB
:10A2C4005DF804FB014B9868704700BFE03700203D
:10A2D400054B1B7B012B02D0034B98687047024B44
:10A2E40098680138704700BFE0370020044B9B6832
:10A2F400584010F0010F00D0013B1846704700BFD2
:10A30400E0370020014B187B704700BFE037002086
:10A3140038B50B4B1B780BB1082038BD084B012214
:10A324001A70084DA8602973FFF7E4FC0020FFF7BA
:10A334004FFD00242C606C60FFF7F6FC2046ECE730
:10A34400B8370020E03700202DE9F041002722E053
:10A354002449BC2303FB04F3CA5A0132CA52022122
:10A36400404602F0C9FB01360221404602F094FB4C
:10A3740070B11C4ABC2303FB04239D68002DE7D065
:10A38400BC2303FB04F3D25A01463846A847DFE74F
:10A3940096B90137FFB2022F20D83C46BC2303FBF9
:10A3A40007F308330F4D1D4405F10408022140460C
:10A3B40002F072FB0026DBE70021404602F004FCB9
:10A3C4000828E6D1074BBC2202FB0434A368002B07
:10A3D400DFD00022044938469847DAE70120BDE877
:10A3E400F08100BF00380020B420040008B5082321
:10A3F40083731023437300F11C034361032303732A
:10A4040000F1180303610C3002F0B0FB08BD00003A
:10A4140008B50378012B06D0022B06D07846FDF749
:10A4240037F8002002E0292000E0014808BD00BF01
:10A43400084C010008B50278012A07D0022A13D07B
:10A444007846FDF725F84FF4FA7308E083685B1A41
:10A454009B0803EB830003EBC00303F5FA7307487F
:10A46400984228BF184608BD83685B1A180B044B32
:10A4740003FB00F303F5FA73F1E700BF6085010005
:10A48400084C010038B5044601210C3002F004FBED
:10A49400054678B1084BC4F89C300023C4F8A030BA
:10A4A4006168FFF7C7FFC4F8A800C4F8AC400123F3
:10A4B40084F8B830284638BDDDA5020010B504463E
:10A4C400FFF7E0FF20B104F19C000DF099FA00B908
:10A4D40010BD7846FCF7DCFFFAE70000F8B5064645
:10A4E4000C46174615680378012B18D11249A1FBB5
:10A4F400043149098900B468641B8C4200D30C46BA
:10A504008CB1706825F00305F1682246294428447B
:10A51400FFF7A6FB58B93B681C443C60F8BD78467D
:10A52400FCF7B6FFE2E77846FCF7B2FFE9E77846C6
:10A53400FCF7AEFFEFE700BF7D0CCEC7F8B50746CA
:10A544000C46164615680378022B16D1114BA3FB53
:10A5540004231B0C1B03BC68641B9C4200D31C46D5
:10A564007CB1786825F0030521462844FFF744FBB5
:10A5740058B933681C443460F8BD7846FCF788FF4A
:10A58400E4E77846FCF784FFEBE77846FCF780FFC6
:10A59400EFE700BFEB0661C538B505460C4611462A
:10A5A4002378012B06D0022B0FD07846FCF770FFDE
:10A5B400002304E0021D2046FFF790FFA3686868AB
:10A5C400984214BF0020012038BD021D2046FFF729
:10A5D400B5FFA368F3E700002DE9F8438846D1F8F6
:10A5E400A860234B1B7863B90546A6F5FA7601F1FA
:10A5F4000C090121484602F04FFA074640B10024F5
:10A6040024E00DF039FA002388F8B830BDE8F88367
:10A614007846FCF73DFFF2E70DF02EFA012148469B
:10A6240002F06AFA0023C8F8043088F8B830114BF5
:10A63400186801F0E1FB4046FFF740FFE6E72C1AFB
:10A644003846FFF7E5FE2044B0420BD8321B3946AA
:10A654004046FFF7A1FF0028DED101F00DFA441BAC
:10A66400EED5ECE70DF008FA4046FFF727FFCDE7FB
:10A67400FC370020F837002010B5084801F09CFB97
:10A68400074B18600024022C07D8064BBC2000FBA3
:10A694000430FFF7ABFE0134F5E710BD4DA3020013
:10A6A400F83700200038002038B504460D4602284B
:10A6B40005D8054BBC2202FB0434A56038BD78469E
:10A6C400FCF7E6FEF5E700BF003800202DE9F8436B
:10A6D40006460C461746022816D8CCB12378012B1F
:10A6E4001AD0022B3ED16368C3F30B03002B31D184
:10A6F400A368C3F30B03002B30D1A368002B34D120
:10A704007846FCF7C5FE30E07846FCF7C1FEE4E786
:10A714007846FCF7BDFEE1E7636813F0030F0DD143
:10A72400E36813F0030F0DD1A36813F0030F0DD1E9
:10A73400A368D3B97846FCF7ABFE16E07846FCF77D
:10A74400A7FEEDE77846FCF7A3FEEDE77846FCF7B5
:10A754009FFEEDE77846FCF79BFEC9E77846FCF7D9
:10A7640097FECAE77846FCF793FEEFF3108872B6BB
:10A77400BC2505FB06F505F108032A4D1D440435E7
:10A784000021284602F088F9814678B30021284642
:10A7940002F0B2F920686168A268E368C9F80000B1
:10A7A400C9F80410C9F80820C9F80C302FB11D4AA3
:10A7B400BC2303FB06235B883B801A4ABC2303FBB0
:10A7C40006235A8801325A8093F8B83083B9164B5D
:10A7D4001B7813B10024A1460CE0124BBC2000FBF3
:10A7E4000630FFF74FFE8146002403E0042401E015
:10A7F4000024A146B8F1000F00D162B6B9F1000FF0
:10A8040009D0BC2000FB06F69836064830440430D4
:10A814000DF0F6F810B92046BDE8F8837846FCF749
:10A8240037FEF8E700380020FC37002038B504462E
:10A83400EFF3108572B610B9164B1B6873B18CB167
:10A84400144A136801331360124B1B68003318BF9A
:10A854000123114A137005B962B638BD7846FCF776
:10A8640017FEECE70B4B1C68013C1C6034B1EBE7B2
:10A87400BC2000FB0420FFF721FE0134022CE3D8A6
:10A88400064ABC2303FB042393F8B830002BF4D10D
:10A89400EEE700BF343A0020FC37002000380020E7
:10A8A40018B1830B024AD05C70470020704700BF88
:10A8B400C420040012DF704700B583B01378A3B13D
:10A8C400042B14D0002110F8013C163B152B31D871
:10A8D400DFE803F059303030303030303030303051
:10A8E400303030303030302E0F3A517DEBE70721D5
:10A8F400E9E7022901D007291CD110F8021C01390B
:10A9040001F066FEB0B1264B1B6813F0400F11D066
:10A91400244B1B68012B0DDD234BD3F80435019028
:10A92400224A009291222249022002F035FB01E0E2
:10A93400022902D003B05DF804FB10F8021C0139AF
:10A94400C9B212F0DDFDF5E70229F3D110F8021CBB
:10A954000139C9B203F0B6FD0028EBD0104B1B68D7
:10A9640013F0400FE6D00F4B1B68012BE2DD0E4BBA
:10A97400D3F8043501900F4A0092A4220C49022016
:10A9840002F00AFBD6E701884FF6E4639942D1D17D
:10A9940010F8021C03390230FCF7C8FCCAE700BFF8
:10A9A4006C2E0020682E0020001001403421040089
:10A9B400272104006021040070B58AB00DF0A2FDC7
:10A9C40048B3064600238DF8103005AC05460FCD7C
:10A9D4000FC42B682360727D052A04D9337D03F0EC
:10A9E4000F03072B1ED1174B1A688AB104AB0393CC
:10A9F400337DC3F303038DF80430737D062B1BD919
:10AA0400063B8DF8053006F11D03029301A890471B
:10AA140030460DF057FD0DF08FFD80F00100C0B2FF
:10AA24000AB070BD307D04AB063A06F11D0100F09A
:10AA34000F000CF0CBFAD6E700238DF80530029313
:10AA4400E4E700BF3C3A00200B4B1B78032B00D0FB
:10AA5400704700B58DB0084B04221A702C220021D7
:10AA640001A816F075FE1B238DF8043001A8FEF72B
:10AA740029FA0DB05DF804FB383A002070B582B0B5
:10AA84002E4B1B78002B4FD1002851D0067A0F2E65
:10AA940001D0062E4ED1044605F092FBE06870B159
:10AAA400FCF71EFF0DF10700FFF704FF0546002821
:10AAB4003BD19DF80730012B04D0022535E0FCF78B
:10AAC4001DFFEFE7FCF73CFF00F000FB304601F010
:10AAD400A9F8E07800F024F900F0A0FE0CF01AFFC9
:10AAE40017480DF0C5FD0CF011FCFFF7C5FD04F08F
:10AAF40051FD00F0F3FC05F023FB204601F0C8FCF7
:10AB04002046FDF71BFF04F0C7F8FCF70FFC08B163
:10AB1400062811D10B480CF03BFA0B4B00221A60AB
:10AB2400064B01221A7000E00825284602B070BDC9
:10AB34000E25FAE70725F8E70546F6E7383A002038
:10AB4400BDA902005C2E00203C3A002010B582B062
:10AB54001E4B1B78012B0DD05AB282B3033BDBB2E0
:10AB6400012B2ED80CF03CFF044658BB174B022295
:10AB74001A7027E00DF084FC01F09CFCFDF720FF27
:10AB8400FCF7D4FB0446B8B1062815D0104B1B685B
:10AB940013F4804F16D00F4B1B68012B12DD0E4BA4
:10ABA400D3F8043501900D4A009240F297120C49F3
:10ABB400022002F0F1F905E001F060F8D2E7082480
:10ABC40000E00824204602B010BD00BF383A00203F
:10ABD4006C2E0020682E002000100140C8200400C4
:10ABE4002721040008B50A4B1B78022B02D0082346
:10ABF400184608BD064B03221A7006480CF0ACFE3A
:10AC040003460028F4D07846FCF742FC0023EFE723
:10AC1400383A00204DAA020008B5FDF7D5FE08BD5C
:10AC240008B5FEF777F908BD08B5FEF783F908BD46
:10AC340008B500F0B9FD002008BD08B506F06CFEAB
:10AC440008BD0000064A136801331360B3F1704F66
:10AC540002D0034B18687047134601221A60F8E7C4
:10AC6400403A002010B5044618B100232360636005
:10AC740010BD7846FCF70CFCF7E738B50C460546E2
:10AC840068B184B100236360EFF3108372B62A685D
:10AC94006AB16A6854606C6003B962B638BD7846BC
:10ACA400FCF7F6FBEDE77846FCF7F2FBEAE72C60ED
:10ACB400F1E710B5044658B1EFF3108372B620687B
:10ACC40008B142682260226832B103B962B610BD8D
:10ACD4007846FCF7DDFBEFE76260F6E710B5044663
:10ACE40008B1206810BD7846FCF7D2FBF9E735DFE0
:10ACF4007047000008B54FF0FF30FFF7F8FFBFF3CF
:10AD04004F8F0549CA6802F4E062044B1343CB60D9
:10AD1400BFF34F8F00BFFDE700ED00E00400FA052C
:10AD2400072814D8DFE800F0080C1504110F0A06F0
:10AD34006420704714207047FA2070471E20704723
:10AD44004FF4FA707047322070474B207047FA2056
:10AD54007047962070470000024B5868103840B284
:10AD6400704700BF00ED00E0034600280FDB5B11D5
:10AD7400084A52F82330424200F01F0002F01F023A
:10AD840058BF504223FA00F000F00100704700F170
:10AD94001F03ECE700E100E046DF7047F8B5044626
:10ADA4000D464B1EDBB2012B09D8002222616261E1
:10ADB400A261E2612046FFF7EFFF01200AE0784636
:10ADC400FCF766FBF1E7CB7B5B00CB73002F14DB56
:10ADD4000130C0B2A84217D8214611F9207F0023C0
:10ADE4000E2BF0D8CA5CCE185200D2B2767842EA62
:10ADF400D612CA5401339BB2F2E794F82F3083F091
:10AE0400870384F82F30E3E7F8BD2DE9F04190B0D3
:10AE140084460C4696461F4602F10F0636111FFA69
:10AE240086F804AD0068DCF80410DCF80820DCF8CF
:10AE34000C300FC50EF00F05B8F1000F02D07DB134
:10AE4400002300E00023984663B1012104A8FFF722
:10AE5400A5FFB8F1000F1AD0701E000110230EE0F8
:10AE64000123F0E70221F1E7013B9BB22218D25CF7
:10AE740010A9194411F8101C4A400DF80320002BA6
:10AE8400F2D100250C950D950E950F9526E0711EB7
:10AE9400ADB22A4604EB0111684616F030FC80235B
:10AEA4000DF805306B1C03E000220DF8032001337C
:10AEB4000F2BF9DD10230AE0013B9BB21DF80320A0
:10AEC40010A9194411F8101C4A400DF80320002B56
:10AED400F2D1D6E704A8FFF75FFF0135731EAB423A
:10AEE4000FDD28011023002BF4D0013B9BB210AAE4
:10AEF4001A4412F8102C2118C95C4A4008A9CA54F3
:10AF0400F1E710230AE0013B9BB210AAD11811F813
:10AF1400402C11F8101C4A4008A9CA54002BF2D145
:10AF240004A8FFF739FF0CAC0FCC38607960BA6025
:10AF3400FB6010B0BDE8F08110B50446134B1B68EC
:10AF44004BB14068114B1B685B68C31A002B02DBD2
:10AF54000E4B19680DE00D4B1A6862611C600B4AB8
:10AF6400938801339BB2938063B10123237010BD96
:10AF740019464B691BB15A68121A002AF8DB63613F
:10AF84004C61ECE77846FCF783FAEEE7483A002098
:10AF940038B505461CE07846FCF77AFA6369204A1E
:10AFA40013600023636193889BB2591E89B2918018
:10AFB400F3B1A36803B302232370A368216928466D
:10AFC400984700F00DF905462378DBB2022B17D021
:10AFD400134B1B681BB3124B1B685B685B1B642B16
:10AFE4001DD50F4B1C682378DBB2012BD6D0D2E7DA
:10AFF4007846FCF74DFADCE77846FCF749FADAE7DD
:10B00400E26812B900232370E2E7636813446360C3
:10B014005B1B642BF9D42046FFF78EFFD8E738BDBD
:10B02400483A002010B50446144B1B68834207D0ED
:10B03400124B1B68D3B15A69A2420ED01346F9E7EA
:10B0440043690E4A136093889BB2591E89B291805A
:10B0540063B97846FCF71CFA08E062695A6107494B
:10B064008B889BB25A1E92B28A8013B1002323703C
:10B0740010BD7846FCF70CFAF8E700BF483A002008
:10B0840008B5064B1B6833B1044B1B680449586868
:10B0940000F054F908BD00F0AFF9FBE7483A00208E
:10B0A400C1B0020008B500F09BF8FFF771FF00F093
:10B0B40097F8FFF7E5FF012008BD000008B5024B33
:10B0C400186800F099FE08BD443A002008B5064B04
:10B0D40000221A605A60054800F06EFE044B1860A6
:10B0E40000F071F808BD00BF483A0020A9B0020082
:10B0F400443A002010B5044600F052FF80B19CB1E0
:10B10400A368ABB12378DBB2012B15D000236361B4
:10B114002046FFF711FF00F063F8FFF7B1FF10BD01
:10B124007846FCF7B5F9EAE77846FCF7B1F9E7E7C2
:10B134007846FCF7ADF9E5E77846FCF7A9F9E5E7C9
:10B1440010B5044600F02CFF50B16CB12046FFF757
:10B1540069FF0023636100F043F8FFF791FF10BD1E
:10B164007846FCF795F9F0E77846FCF791F9EDE7B6
:10B1740038B504460D4600F013FF70B18CB120467B
:10B18400FFF750FF0023636165602046FFF7D4FE9C
:10B1940000F026F8FFF774FF38BD7846FCF778F91D
:10B1A400ECE77846FCF774F9E9E70378DBB2012BA6
:10B1B40007D00378DBB2022B01D0002070470120B6
:10B1C40070470120704708B516F04EF900B108BD6C
:10B1D40016F0BEF80028FAD07846FCF759F9F6E7DD
:10B1E40070B4EFF3108172B6184B1A68184BD3F889
:10B1F4000455D3F80431012B22D001B962B645EAD3
:10B20400026500266B01EA0E5B1B62EB060251022B
:10B2140041EAD3515802431941EB0600810141EA46
:10B2240093619A01D31A61EB00005B1946EB0000AD
:10B2340013F580437041DB0B43EA404070BC704718
:10B24400034BD3F804550132D7E700BF503A00202E
:10B254000010014010B50A4B4FF40032C3F84823E4
:10B26400C3F80823074B1B682BB1064B1C68FFF778
:10B27400B7FFA04710BD7846FCF70AF9F5E700BF11
:10B28400001001405C3A0020EFF3108172B6264BA7
:10B294000022C3F80421254A13680133136001B95D
:10B2A40062B6234B1B68002B3DD0214B1A68013A30
:10B2B4001A601B68002B36D103F1804303F58833F1
:10B2C400D3F804251B4B1B689A421ED2EFF310825D
:10B2D40072B6154BD3F804350133164909688B420D
:10B2E40010D3114BD3F8043502330F49C1F8443558
:10B2F40002B962B60C4B4FF40032C3F84423C3F8CE
:10B30400042370470B4B1B68EFE710B50A4B1B680F
:10B314002BB1094B1C68FFF763FFA04710BD7846AB
:10B32400FCF7B6F8F5E7704700100140503A0020EA
:10B33400543A0020583A00205C3A002030B583B0DB
:10B344000446002301930D46002936D0244B1D608A
:10B35400FFF746FF031B002B33DB0023590CD803F4
:10B36400204C214A002300194FF0000444EB010152
:10B3740016F080F8EFF31083019372B61B4BD3F8E9
:10B384000435022838BF0220C3F1FF1202F57F42C0
:10B39400824218D30344154AC2F844354FF40033AB
:10B3A400C2F84433C2F80433114A1460114A1460D9
:10B3B400019B03B962B603B030BD7846FCF768F868
:10B3C400C4E7231ACAE7034403F17F4301331A0E87
:10B3D400013207490A6023F07F43064A1360E7E716
:10B3E4005C3A002020A1070040420F0000100140F9
:10B3F400543A0020583A0020074B4FF40032C3F867
:10B404004823C3F808230023044A1360044A136042
:10B41400044A1360704700BF00100140543A0020F2
:10B42400583A00205C3A002030DF704731DF704723
:10B4340010B402684368A2EB7312846883EAF4339D
:10B444000360C1680C444460114481601344C360C8
:10B4540018465DF8044B704770B582B00D46064639
:10B4640008B100240BE07846FCF712F8F9E79DF8E0
:10B4740007103019FFF7DAFF9DF807301C44A54286
:10B484000DD90DF10700FFF7CFFF9DF80730002B12
:10B49400F7D02A1B9342EAD98DF80720E7E702B0D8
:10B4A40070BD000030B583B005460024019404212A
:10B4B4000DEB0100FFF7D0FF074B2B60019B6B6086
:10B4C400AB60EB6003E02846FFF7B2FF0134132CB6
:10B4D400F9D903B030BD00BFED5EEAF1704748DF33
:10B4E400704749DF70474ADF70470000044B012270
:10B4F4005A7143F2B0629A6043F69822DA60704758
:10B50400AC3A0020094B03221A74094A5A611A689A
:10B5140040F6D8639A4204D9054B43F2B0629A606C
:10B524007047034B40F6D8629A6070478C3A00200B
:10B53400AC3A002008B50F4B1B78022B12D0032B1A
:10B5440008D0012B03D07846FBF7A2FF0EE00223BC
:10B5540003740BE0084B00225A71084999600849AA
:10B56400D960827103230374034B4361014B0022AE
:10B574001A7008BDBD3A0020AC3A0020A086010034
:10B58400FF1FA10738B50446002505740123437144
:10B594000E4A13680133136000F0CCFA0CF0DEFAA3
:10B5A40023680B4A1168283101FB03F1094AA2FB05
:10B5B4000121A3EB9141084A7839284600F036FA74
:10B5C40000B938BD7846FBF763FFFAE7C03A0020BC
:10B5D400A83A002083DE1B4309B5020010B50446D7
:10B5E40000238360C36003680D4A92680260817916
:10B5F40091B10121017403B90A4B991A6161B1F542
:10B604007A7F01D39A4202D94FF47A736361FFF7C8
:10B614006DFF0123A37110BDFFF7B4FFF7E700BF6F
:10B62400AC3A00208096980010B50C4631B1C3683E
:10B634000133C360426903681344036083680133C0
:10B64400836001220274426952084261012B0DD0C9
:10B65400022B19D042690368134417498B4222D83C
:10B6640040F6D7639A4221D800231DE0B2F5FA7F51
:10B6740005D040F6D8639A42ECD84361EAE7002C3F
:10B68400F7D100234361E5E7C368022B06D0012B01
:10B69400E0D1002CDED100234361DBE70268064BD6
:10B6A4009B1A4361D6E7002313B110BD0123FBE7C6
:10B6B400FFF768FFF9E700BF8096980043791BB94C
:10B6C4000D4B00221A70704710B504460CF062FA54
:10B6D40020680A4B1B68283300FB03F3084AA2FBCB
:10B6E4000323A0EB9340783800F054FA00236371ED
:10B6F400014B00221A7010BDBC3A0020A83A002069
:10B7040083DE1B4308B5254B01221A71244B1B7899
:10B7140013B1244B1B781BB3204B00221A7404284A
:10B724001AD8DFE800F00314110C07001B48FFF7D8
:10B7340055FF1CE001211948FFF776FF17E00021AF
:10B744001648FFF771FF12E00CF0BCF90FE000F0AF
:10B75400B3F90CF0F1F90AE07846FBF799FE06E03C
:10B7640000F08AF90D4B18601846FFF7E3FE0B4B07
:10B774001B7C023BDBB2012B08D9084B1B7C022B40
:10B7840008D0064800230371103008BD0348FFF7B2
:10B7940095FFF2E7014B01221A76F2E78C3A00207A
:10B7A400BD3A0020BC3A002008B50438042814D857
:10B7B400DFE800F0182614030E00164B1B7E012B45
:10B7C4000BD1FFF78EFE40B17846FBF761FE04E033
:10B7D400104B00221A760CF001FA08BD7846FBF7EC
:10B7E40057FEFAE7FFF782FE0B4840F6D863836002
:10B7F400FFF779FE0028F0D07846FBF749FEECE726
:10B804000548FFF770FE0028E7D07846FBF740FEB6
:10B81400E3E700BF8C3A0020AC3A002010B40E4A93
:10B824000023137013710121517143F2B0649460C9
:10B8340043F69824D460094A1060094A1370094AEF
:10B844001370094A1360094A137153711360137614
:10B8540091715DF8044B7047AC3A0020A83A00207F
:10B86400BC3A0020BD3A0020C03A00208C3A0020A7
:10B8740008B5104B1B7E012B09D05AB21AB1022B0A
:10B8840016D0002008BD0C48FFF729FE40B90B482C
:10B89400FFF729FE40B9074B02221A760020F1E790
:10B8A4007846FBF7F5FDF2E77846FBF7F1FDF2E7A2
:10B8B4001120E7E78C3A002009B70200AC3A0020D7
:10B8C4000B4B1B7C023BDBB2012B0BD9094B1B78C6
:10B8D400012B09D0022B09D0032B01D00020704783
:10B8E40001207047012070470120704701207047F4
:10B8F4008C3A0020BD3A0020014B1868704700BF05
:10B904008C3A00200D4B5B790BB90020704710B5C1
:10B914000A4B1C680A4B1B68283303FB04F3094ACF
:10B92400A2FB0323A4EB9344783C00F0A5F8034660
:10B93400201A00D410BD181BFCE700BF8C3A00206D
:10B94400A83A002083DE1B43014B1879704700BFDF
:10B954008C3A0020024B187E003018BF012070473B
:10B964008C3A0020EFF3108372B6054A527922B163
:10B97400044A4FF48071C2F8001103B962B67047EB
:10B984008C3A002000E100E008B5054B1B7E022B39
:10B9940000D008BD034B01221A70FFF7E3FFF8E75C
:10B9A4008C3A0020BD3A002008B5074B1B7E022BC1
:10B9B40000D008BD012804D0044A1370FFF7D2FF59
:10B9C400F7E70323F8E700BF8C3A0020BD3A0020D4
:10B9D40008B5094B1B782BB148B9084B1B7813B138
:10B9E400012300E00023044A107013B908BD0023AA
:10B9F400F9E7FFF7B7FFF9E7BC3A0020BD3A0020AA
:10BA040010B4094B00F15002002443F8224000F125
:10BA140010040122A240C3F8042300F5A87043F8DF
:10BA240020105DF8044B704700800040022817D8AE
:10BA340010B5EFF310840C4B1C6072B60B4B43F83B
:10BA440020200B4B002243F820200A4B1B7823B9FB
:10BA5400054B186830B962B610BDFFF7D1FFF7E7A0
:10BA6400072070470020F7E7D43A0020C43A0020AA
:10BA7400E03A0020D03A0020EFF310820A4B1A601B
:10BA840072B60A4B1B7863B1094B0022C3F84C21F0
:10BA94000122DA64D3F84C05034B1B6803B962B680
:10BAA4007047044B1868F7E7D43A0020D03A0020D6
:10BAB40000800040D83A00202DE9F041002411E034
:10BAC4000027174B43F82470012303FA05F5154E9C
