:020000022000DC
:1060000000FD032015EF03003DEF03003FEF030009
:1060100041EF030043EF030045EF030000000000E1
:1060200000000000000000000000000047EF030037
:1060300049EF0300000000004BEF03004DEF0300A9
:106040004FEF03004FEF03004FEF03004FEF03004C
:106050004FEF03004FEF0300A17402004FEF030066
:106060004FEF03004FEF03009D4503004FEF030088
:106070004FEF03004FEF03004FEF03004FEF03001C
:106080004FEF03001DD7030019F802004FEF030084
:10609000EDD703004FEF03007DB302004FEF030085
:1060A0004FEF03004FEF03004FEF03004FEF0300EC
:1060B0004FEF03004FEF030000000000000000005E
:1060C0004FEF03004FEF03004FEF03004FEF0300CC
:1060D0004FEF03004FEF03004FEF03004FEF0300BC
:1060E0004FEF03004FEF03004FEF030000000000ED
:1060F000000000004FEF0300000000004FEF03001E
:10610000000000000000000000000000000000008F
:10611000000000000000000000000000000000007F
:10612000000000000000000000000000000000006F
:10613000000000000000000000000000000000005F
:10614000000000000000000000000000000000004F
:10615000000000000000000000000000000000003F
:10616000000000000000000000000000000000002F
:10617000000000000000000000000000000000001F
:10618000000000000000000000000000000000000F
:1061900000000000000000000000000000000000FF
:1061A00000000000000000000000000000000000EF
:1061B00000000000000000000000000000000000DF
:1061C00000000000000000000000000000000000CF
:1061D00000000000000000000000000000000000BF
:1061E00000000000000000000000000000000000AF
:1061F000000000000000000000000000000000009F
:1062000010B5054C237833B9044B13B10448AFF3F0
:1062100000800123237010BD602F002000000000CB
:10622000901C04000C4B43B10C480D4910B5AFF362
:1062300000800C48036823B910BD0A48036833B9CD
:106240007047094B002BF7D0BDE810401847064BAC
:10625000002BF5D0184700BF00000000901C040080
:10626000642F0020482F002000000000154B002B59
:1062700008BF134B9D46A3F5803A00218B460F467D
:106280001348144A121A1AF065FA0F4B002B00D06B
:1062900098470E4B002B00D09847002000210400A7
:1062A0000D000D48002802D00C48AFF300801AF012
:1062B00003FA2000290000F051FD1AF0E9F900BFAF
:1062C0000000080000FD03200000000000000000A6
:1062D000602F0020B05900200000000000000000E6
:1062E0003FDF704741DF704730B52D4B1446526891
:1062F0001B6887B00D465AB35A041ED5294B1B683C
:10630000032B1ADD2F2128481AF0F8FAB8B12F21F3
:1063100025481AF0F3FA411C244B6268D3F804357F
:10632000049262780392227802926A880192204A4B
:1063300000920420B1220AF081F907B030BD5C213F
:1063400019481AF0DBFA08B15C21E1E71649E3E7E6
:106350005B04F2D5134B1B68032BEEDD2F21124893
:106360001AF0CCFA90B12F210F481AF0C7FA411C4D
:106370000E4B2278D3F8043502926A8801920D4AB6
:1063800000920420B6220AF059F9D6E75C210648AB
:106390001AF0B4FA08B15C21E6E70349E8E700BF68
:1063A000482E0020442E0020B309040000100140B4
:1063B000DB0904002D0A040010B5504A504C137834
:1063C00086B0591C8DF80D30322305936423049355
:1063D0002368117059048DF80C001AD5494B1B68BD
:1063E000032B16DD2F2148481AF088FA00283DD0EB
:1063F0002F2145481AF082FA411C444B9DF80C208D
:10640000D3F804350192424A00920420E1220AF0B6
:1064100015F9022304AA03A93E4810F07BFB0728C4
:1064200041D02CD878B304285FD123685A0416D5FC
:10643000344B1B68002B12DD2F2133481AF05EFA13
:1064400040B32F2130481AF059FA411C2F4B324AE1
:10645000D3F804350092F52201200AF0EFF8062265
:1064600032214FF4F03000F083FF11E05C21264828
:106470001AF044FA08B15C21BBE72349BDE70828BC
:10648000D3D01128D0E79DF80C100D2000F05CFF50
:1064900006B010BD5C211C481AF030FA08B15C212E
:1064A000D0E71949D2E723685B04D8D5154B1B68A0
:1064B000002BD4DD2F2114481AF020FA60B12F21CF
:1064C00011481AF01BFA411C104B144AD3F804353A
:1064D000009240F20312BFE75C210B481AF00EFA5B
:1064E00008B15C21ECE70849EEE70028D0D0064A65
:1064F0004FF4857118F039FDCAE700BFD42F002092
:10650000482E0020442E0020B30904000010014052
:10651000BD0C04007C2F0020D80C0400F10C0400FA
:106520000020FFF749BF000007B5174B1B685B044D
:1065300016D5164B1B68032B12DD2F2114481AF0B9
:10654000DDF9C0B12F2112481AF0D8F9411C114BC6
:10655000114AD3F8043500920420C4220AF06EF8E0
:106560000322C8214FF4F03000F002FF03B05DF8C1
:1065700004EB00F059BD5C2105481AF0BFF908B1E1
:106580005C21E0E70249E2E7482E0020442E00208B
:10659000B309040000100140730C040030B58A4CAC
:1065A00023685A0487B0054618D5884B1B68032B0F
:1065B00014DD2F2186481AF0A1F978B32F218448E1
:1065C0001AF09CF9411C834B834AD3F8043500929E
:1065D000019540F24D1204200AF030F800F0D4FC8E
:1065E00070BB23685B0417D5784B1B68012B13DD48
:1065F0002F2177481AF082F9C8B12F2174481AF078
:106600007DF9411C734B754AD3F804350092022082
:1066100040F251120AF012F807B030BD5C216C480C
:106620001AF06CF908B15C21C9E76949CBE75C2134
:1066300067481AF063F908B15C21DFE76449E1E7D4
:10664000674817F0D5FA20B1614A40F2551118F0A9
:106650008CFC032DE0D8DFE815F0040017001D00C6
:106660001E010120FFF7A8FE00224FF420315C48F4
:1066700017F078FA0028CFD0554A4FF4AF7107B021
:10668000BDE8304018F071BC002007B0BDE83040D4
:10669000FFF792BE0CF00EFF2368002840F0A880A0
:1066A0005D0417D5494B1B68032B13DD2F21484888
:1066B0001AF024F980B32F2145481AF01FF9411C24
:1066C000444B484AD3F804350092042040F211129A
:1066D00009F0B4FF9DF81430042262F3061303F0AE
:1066E000F303022262F301038DF8143006AA42F28A
:1066F00010730493642342F80C3D4FF47A7307CA75
:106700000CF0E2FD07283DD008280ED0002883D0E9
:106710002F4A40F22F11B2E75C212D481AF0EEF813
:1067200008B15C21C8E72A49CAE72368580417D58D
:10673000264B1B68002B13DD2F2125481AF0DEF8AD
:10674000B8B12F2122481AF0D9F8411C214B264A12
:10675000D3F80435009240F22112012009F06EFFB7
:10676000062232214FF4F03007B0BDE8304000F08F
:10677000FFBD5C2116481AF0C1F808B15C21E1E7C1
:106780001349E3E723685904EAD5104B1B68002B33
:10679000E6DD2F210E481AF0B1F860B12F210C4828
:1067A0001AF0ACF8411C0B4B104AD3F80435009298
:1067B0004FF49472D1E75C2105481AF09FF808B1B4
:1067C0005C21ECE70249EEE7482E0020442E002031
:1067D000B309040000100140250B0400380B04002D
:1067E000B42F0020580B04008C0B0400AD0B0400E8
:1067F0005A0417D52C4B1B68032B13DD2F212B4874
:106800001AF07CF870B32F2128481AF077F8411C51
:10681000274B284AD3F80435009204204FF49B728A
:1068200009F00CFF0CF034FE00283FF4F5AE082808
:106830002AD123685B0493D51B4B1B68002B8FDD8B
:106840002F211A481AF05AF8A8B12F2117481AF028
:1068500055F8411C164B184AD3F80435009240F203
:106860003F127AE75C2111481AF048F808B15C2120
:10687000CAE70E49CCE75C210C481AF03FF808B192
:106880005C21E3E70949E5E700283FF4C5AE074A84
:106890004FF4A371F3E610F00BF800F06AFB07B0B9
:1068A000BDE83040FFF740BE442E0020B30904008D
:1068B00000100140E10B0400040C040030380328F0
:1068C00001D8FFF76BBE704703781C2B01D1FFF78F
:1068D0002BBE70477FB50378153B0446052B00F2AD
:1068E0009080DFE813F006008E0099007200BF0070
:1068F000ED008F4D2A68530400F1040619D58D4B25
:106900001B68032B15DD2F218B4819F0F7FF18B3F7
:106910002F21894819F0F2FF411C884BA288D3F837
:1069200004350192864A009204204FF4CA7209F09D
:1069300085FE30460CF018FD0828044615D80728B7
:1069400015D2002C5DD07C4A40F2A911204604B03B
:10695000BDE8704018F009BB5C21774819F0CEFF04
:1069600008B15C21D5E77449D7E70E28E9D12B6837
:106970005D0418D56F4B1B68002B14DD2F216E486A
:1069800019F0BCFFC0B12F216B4819F0B7FF411CB3
:106990006A4B6C4AD3F804350092019440F2A1127C
:1069A000012009F04BFE062232214FF4F03004B0F2
:1069B000BDE8704000F0DCBC5C215F4819F09EFF30
:1069C00008B15C21E0E75C49E2E7594B1B685804D9
:1069D00017D5584B1B68032B13DD2F21564819F090
:1069E0008DFF80B12F21544819F088FF411C534B73
:1069F000554AD3F804350092042040F2B11209F050
:106A00001DFE04B070BD5C214B4819F077FF08B142
:106A10005C21E8E74849EAE7454B1B685904C2D5C1
:106A2000444B1B68032BBEDD2F21434819F066FF42
:106A300078B12F21404819F061FF411C3F4B434A78
:106A4000D3F804350092042040F2B51209F0F6FDA7
:106A5000A9E75C21384819F051FF08B15C21E9E74A
:106A60003549EBE7324B1B685A0419D5314B1B688B
:106A7000032B15DD2F21304819F040FFB8B12F212D
:106A80002D4819F03BFF411C2C4BE288D3F804350C
:106A900001922F4A0092042040F2C31209F0CEFD69
:106AA00001210E2004B0BDE8704000F04DBC5C2117
:106AB000214819F023FF08B15C21E1E71E49E3E713
:106AC0001B4B1B685B041BD51A4B1B68032B17DD84
:106AD0002F21194819F012FF00B32F21164819F081
:106AE0000DFF411C154B227AD3F804350292E2883F
:106AF0000192184A009204204FF4E97209F09EFDB9
:106B00000E20002100F020FC134817F071F8002837
:106B10003FF477AF084A4FF4EC7118E75C21064860
:106B200019F0ECFE08B15C21D8E70349DAE700BFB1
:106B3000482E0020442E0020B3090400001001401C
:106B4000560A0400790A0400970A0400B70A0400F0
:106B5000D10A0400F60A0400B42F002007B51E4B2A
:106B60001B685B0417D51D4B1B68032B13DD2F21FE
:106B70001B4819F0C3FE18B32F21194819F0BEFEA7
:106B8000411C184B184AD3F804350092042040F2F7
:106B9000E31209F053FD1548154B0363012100234F
:106BA000836280F82C3080F82D300FF083FF80B1A5
:106BB0000B4A4FF4F57103B05DF804EB18F0D5B94A
:106BC0005C21074819F09AFE08B15C21D5E7044919
:106BD000D7E703B05DF804FB482E0020442E0020C8
:106BE000B309040000100140530C04007C2F002066
:106BF000240C040010B5044600214FF4F03004EBDF
:106C0000840400F0ACFB620032214FF4C030BDE8D8
:106C1000104000F0ADBB00F0DFBB00001FB5304CF2
:106C20002268520417D52F4B1B68032B13DD2F212D
:106C30002D4819F063FE002840D02F212A4819F072
:106C40005DFE411C294B2A4AD3F8043500920420EA
:106C50008D2209F0F3FC03F0E5FE03F017FF03A813
:106C600015F0D6FC23685B0419D51E4B1B68032B5B
:106C700015DD2F211C4819F041FE40B32F211A4881
:106C800019F03CFE411C194BBDF80C20D3F804351B
:106C90000192184A009204209A2209F0CFFC00F0D9
:106CA0009BFB00214FF4F03000F059FB0422C82177
:106CB0004FF4F03000F05CFB04B010BD5C210A48DA
:106CC00019F01CFE08B15C21B8E70749BAE75C215E
:106CD000054819F013FE08B15C21D0E70249D2E75C
:106CE000482E0020442E0020B3090400001001406B
:106CF0008C0C0400A60C040007B5134B1B685B0446
:106D000016D5124B1B68012B12DD2F21104819F0EC
:106D1000F5FD80B12F210E4819F0F0FD411C0D4BFF
:106D20000D4AD3F8043500920220A62209F086FC11
:106D300003B05DF804FB5C21054819F0DFFD08B1E4
:106D40005C21E8E70249EAE7482E0020442E0020B3
:106D5000B3090400001001409409040000B5574A2B
:106D60008DB004214FF4C04009F04EFC544B1B6819
:106D70005B0419D5534B1B68032B15DD2F2152489B
:106D800019F0BCFD002800F08F802F214E4819F02B
:106D9000B5FD411C4D4B4E4AD3F8043500920420FA
:106DA00040F2092209F04AFC16F06EFE20B1464A74
:106DB00040F20B2118F0D9F800F01EFB454800F016
:106DC00047FB20B1404A40F2122118F0CEF803F000
:106DD0000FFE03F027FE03F059FE0021242203A832
:106DE00019F0B8FC01238DF80C3007238DF80F3013
:106DF00006238DF81430384B07933849384B0B93E2
:106E000003A800F0CDF820B12F4A40F2F71118F096
:106E1000ACF8344807F07EFC0120FFF761FA20B19E
:106E2000294A40F2232118F0A0F80CF02BFA642133
:106E30002D4800F02FFA2D4A2D48002116F080FE33
:106E400020B1214A40F22F2118F08FF8234B1B78F4
:106E500083B9284D0FCD03AC0FC495E8030084E837
:106E6000030003A800F0C4F920B1174A40F23D2105
:106E700018F07BF804F05EFD00F042FB00F0C6F86D
:106E800020B1114A40F2422118F06FF800214FF46E
:106E9000F03000F064FA0222C8214FF4F03000F024
:106EA00067FAFFF71FFAFCE75C21074819F026FD97
:106EB00008B15C216AE704496CE700BFDD05030007
:106EC000482E0020442E0020B30904000010014089
:106ED000340C04009D650200C9680200B02F002038
:106EE0005D6B0200A02D0020BD680200216502003C
:106EF000300C04007C09040003780E2B02D1002022
:106F000007F062BC704730B5837DC27D85B043EA2F
:106F100002230446ADF80C3003A802230D46ADF859
:106F20000E3015F039FB10BB02AA2146208A15F05D
:106F300013FDE0B90DF10A032A46BDF80810E08AF6
:106F400015F03EFF98B9217ED4F8120001F001013E
:106F500006F0AEFF10B1784604F0B4FCBDF80A00AC
:106F600012F05AF918B9019012F05EFF019805B0BD
:106F700030BD08B50BF09CFB13F023FC15F090FA24
:106F8000BDE8084006F044BD07B501A815F040FB78
:106F9000BDF80400003018BF012003B05DF804FB09
:106FA00073B50E46054660B307F0E0FA044628BB09
:106FB00015F0CEFA14F00CF9286912F0FDF8044629
:106FC000E0B92B7F0193AB69009301466B690E48D2
:106FD000592212F019FB044680B92B6A03B1984775
:106FE0000BF082FA15F0D0F913F016FAFFF7CCFF88
:106FF000054608B10FF084FB06B13570204602B09B
:1070000070BD0E24FAE700BFD82F002008B5FFF7A7
:10701000BBFF20B10FF02CFC08B10FF0B3FBBDE8B3
:10702000084007F00BBB000008B50AF07DF820B15E
:107030000020BDE8084007F0C7BB0248BDE8084093
:1070400007F068BBAC2D00200349044809690223FE
:10705000002217F076B900BF38300020C030002081
:1070600010B50378023B082B4AD8DFE803F01E0571
:107070001249493849493F00224B5B68002B3FD0F9
:10708000007A00283CD0204A01211170BDE8104050
:1070900018471C4B9B68002B32D01B4A117879B3E0
:1070A00000211170BDE810401847184B1A784AB9F2
:1070B000144BDB6813B114490A709847BDE81040BF
:1070C000FFF7C2BF124B134801221A7007F022FBD0
:1070D00007F008FBA0B1BDE8104017F039BF094B1D
:1070E0000D485969102217F070F9F3E78168C068FC
:1070F000FFF709FF08B117F02BFF044B01221A70AC
:1071000010BD00BF38300020343000203530002062
:1071100036300020B82D0020C030002030B5274D7B
:10712000297885B019B1012803D003283FD005B0D4
:1071300030BD04AC002344F8083D214603F0B4FF01
:1071400008B117F005FF204604F018F808B117F051
:10715000FFFE04A9012341F8043D0DF1060015F0DE
:1071600011FE08B117F0F4FEBDF8060015F073FB30
:107170000DF1050115F02CFC08B117F0E9FE0FF038
:10718000BFFA9DF8051000200FF0A8FB10B178465B
:1071900004F098FB07F052FA08B117F0D9FE00236B
:1071A0002B70074B1B68002BC1D09847BFE704F03A
:1071B0004FF80028BBD017F0CBFEB8E736300020E0
:1071C0003830002008B503781B2B0CD1064B1B78F8
:1071D0004BB104F079F808B117F0BAFE0348BDE8E6
:1071E000084007F099BA08BD36300020B82D0020BD
:1071F00070B51A4A1A4E5168044686B0106803AB3F
:1072000003C31189927A19809A700FCC35460FC545
:1072100094E8030085E803007369EBB11149124853
:1072200017F076F8B0B9114B00930E4A0E4910488A
:1072300003AB17F03FF868B90E4817F03FFD48B9A7
:107240000C4817F071FD0146094817F04DF808B9D0
:10725000FFF7FAFE06B070BD0720FBE7320D040011
:107260003830002050300020F431002061700200DE
:10727000C03000207030002010B5054C226832B1BB
:1072800017F0A6FF002802DB23689847F8E710BD37
:1072900034320020154B164A10B50C4618600121F7
:1072A000144816F04DFC18B1134A4A2117F05DFE40
:1072B000610C0023E00341F26F728B4208BF8242EF
:1072C00010D24FF47A72002319F05AF801460022C6
:1072D0000A4816F047FC38B1074A4B21BDE8104078
:1072E00017F043BE0521F2E710BD00BF3432002085
:1072F00079720200400D0400440D04003832002071
:1073000038B50D4C206808B917F022FE4FF0A045A3
:107310000A4AD5F8043512685340C5F80435236885
:10732000013B236033B9064816F062FC054B1B682D
:10733000C5F8043538BD00BF583200205C3200204B
:10734000603200208832002001234FF0A0428340A9
:1073500011B1C2F80C357047C2F8083570474FF0CC
:10736000A04311B1C3F80C057047C3F80805704776
:10737000F8B542B3132926D9134B144D5200013AE4
:107380004FF0A0441A602860114BD4F804251A600D
:107390004FF400404FF4FA760027E0FB01674FF40A
:1073A0007A7200233046394618F0EAFF002201467F
:1073B000084816F0D7FB30B9D4F804352A6823EA18
:1073C0000203C4F80435F8BD583200205C320020B6
:1073D000883200206032002008B5054816F008FC0D
:1073E000044B1A684FF0A043C3F8082508BD00BF3E
:1073F000603200205C32002008B54FF0A043032229
:107400004FF40051C3F83427C3F808154FF48041F6
:10741000C3F83827C3F808154FF40041C3F83C27D8
:10742000C3F80815C3F840274FF48032C3F8082585
:107430000121054A054816F083FB18B1BDE8084054
:1074400017F086BD08BD00BF01730200680D04007F
:10745000D8B10F4B0F4A18604FF0A0430020C3F87B
:107460002C27C3F83027C3F86027C3F864270A4BDA
:107470004FF00042C3F80423C3F87C01074BC0223D
:1074800083F8062340221A6070470E20704700BF21
:10749000803200200C0003000060004000E100E0AA
:1074A000124B70B50024124E124DC3F87C414FF0C0
:1074B000A043A15DD3F8102501238B40934311D045
:1074C0000D49D5F804250B68981A48BFD01A43F225
:1074D0003333984206D9D5F804350B60074B204664
:1074E0001B6898470134042CE1D170BD0060004056
:1074F0006C0D040000100140843200208032002016
:1075000070B50446CEB0002864D03C4D2A685204C1
:107510002FD53B4B1B68032B2BDD3A4B0DAE196867
:107520000023E25C100902F00F02085C06F8130069
:10753000885C06EB43020133102B5070F1D100231D
:107540002F21314886F8203019F0D8F9002843D08F
:107550002F212D4819F0D2F9411C2C4B2C4AD3F87D
:10756000043501922B4A009202964122042009F030
:1075700065F82B685B042DD5214B1B68032B29DD97
:107580002F21214819F0BAF900282ED02F211E48AA
:1075900019F0B4F9411C1D4BE27BD3F804350B9272
:1075A000A27B0A92627B0992227B0892E27A07927E
:1075B000A27A0692627A0592227A0492E288039273
:1075C000A288029222680192134A00920420462265
:1075D00009F034F84EB070BD5C210B4819F08EF9FB
:1075E00008B15C21B5E70849B7E75C21064819F006
:1075F00085F908B15C21CAE70349CCE7482E002091
:10760000442E00204C2E0020700D0400001001407C
:10761000980D0400AA0D0400B20D0400AEDF7047FF
:10762000B0DF70473CDF70473DDF70477FB50446F1
:1076300038B10388502B5AD005D8102B17D0112BF6
:1076400019D004B070BD512B1DD0532BF9D12E4D44
:10765000C288EB889A42F4D16B7E002BF1D000F007
:107660001DF90028EDD06B6902209847E9E7828870
:10767000254B9A80E5E7244B81889A889142E0D196
:107680004FF6FF72F5E7204D8288AB889A42D8D139
:107690008679022ED5D10289EB889A42D1D1837B9B
:1076A000043B022BCDD910220021684619F052F874
:1076B0002B7E8DF80060BBB19DF8063043F00103CE
:1076C0008DF806300023ADF804306946A888FFF72E
:1076D000A7FF1128F9D0BDF80430002BB1D104F177
:1076E000080000F089F8ACE740F2FD13EBE7064D27
:1076F000C2886B899A42A4D1038A022BA1D112308D
:1077000003F0D6FF28769CE78C32002030B587B096
:1077100005460C461022002102A819F01BF803238D
:10772000ADF8023020238DF804300F4B8DF8055052
:10773000DA88ADF8082002228DF80A200022ADF880
:107740000C200DF10202049202A901AA98888DF87A
:1077500006400592FFF762FF20B9BDF80230032B07
:1077600018BF0C2007B030BD8C32002010B54FF090
:10777000FF310020FFF758FF044658B9B121FFF749
:1077800051FF044630B9044B01205B699847022041
:1077900001F0FCF8204610BD8C32002010B51449D1
:1077A0000B6823B34B68F3B910BD124C236858B96A
:1077B000987601210220FFF7A9FFC0B123685B6919
:1077C0000320BDE81040184700229A7606210220C7
:1077D000FFF79CFF18B1236803205B699847236873
:1077E00002205B69EDE7083198470828DDD110BD1C
:1077F000C8320020C432002070B50546007B244CFE
:1078000001280ED0022824D00221287BFFF77EFF1A
:1078100018B1236803205B699847236802205B69DD
:1078200009E023689E7E4EB10621FFF76FFF68B323
:1078300023685B690320BDE870401847587601460D
:10784000FFF764FF10B3236811285E761CD1062170
:10785000DBE76A7B531E132B14D80E4E05F10E0185
:10786000301D18F06CFF6B7BB36123689B7E5BB9A6
:107870000949304651F8083B984728B92368012246
:107880009A7670BD0521C0E70421BEE770BD00BF38
:10789000C4320020A8320020C832002008B5044BB2
:1078A0001B6800205B699847BDE80840FFF75EBF92
:1078B000C4320020F7B5174601900E4691B1019CE5
:1078C0006CB100252C46294601A800F099F918B1A1
:1078D0003946A8B2B04701340135142DF3D1204602
:1078E00003B0F0BD0C46FAE773B50191019C064662
:1078F0006CB100242546294601A800F081F918B191
:1079000006EB440301349D800135142DF3D130463C
:10791000346002B070BD00002DE9F0470388848810
:10792000112B8CB0064638D01A2B3BD0102B24D10B
:10793000274DAB680CA8DB4340F8303D696803F085
:107940007FFE009901A8FFF7CFFF0DF106094FF068
:107950000008019B984513D3132C35D821461D48A8
:1079600000F02DF921461C4800F029F9F37B012B8A
:1079700003D01A48214600F022F90CB0BDE8F08788
:1079800039F802AF002704375146E81900F02EF904
:10799000742FF8D108F10108DBE70E48214600F00A
:1079A00025F9EAE7057A0E482D09012D214606DD65
:1079B00000F005F9022D21460A48F0D0DBE700F07F
:1079C00015F921460748EAE7042017F0C1FAD4E781
:1079D000D4320020DC320020D8320020E0320020F7
:1079E000E4320020E83200201328014602D8024881
:1079F00000F006B900207047D832002010B50446C8
:107A0000FFF7F2FF38B12146034800F0F9F80028EB
:107A100014BF0220012010BDE032002010B5044642
:107A2000FFF7E2FF28B121460248BDE8104000F010
:107A3000E7B810BDE432002070B50A4D064628466E
:107A40000C4600F0DDF858B13046FFF7CDFF38B1F5
:107A5000A01D314605EB8000BDE8704000F0D0B8B5
:107A6000002070BDD4320020F8B50D4D06462846E2
:107A70000C46174600F0C4F880B13046FFF7B4FF5B
:107A800060B1A01D314605EB80001FB1BDE8F84094
:107A900000F095B8BDE8F84000F0A8B8F8BD00BF08
:107AA000D4320020F8B50A4C05460E460146204661
:107AB000174600F0A5F848B1043504EB85043A46B2
:107AC000A0683146BDE8F840FFF7F4BEF8BD00BF3E
:107AD000D432002037B550E8013F9DB2C489254417
:107AE0008489A54228BF2D1B0489A54202BFBFF38C
:107AF0002F8F002207E0C5EA030540E80154002C5F
:107B0000E9D14FF001028DF803200193019B9DF80C
:107B100003200B6002F0FF0322B10B8800681844B9
:107B200003B030BD1846FBE70A884B889A4209D15A
:107B300050E8012FC2EA024240E80123002BF7D1AE
:107B4000012070470020704737B550E8023F1FFA08
:107B5000A3F5C488A54202BFBFF32F8F00220DE01A
:107B6000C48925448489A54228BF2D1BC3EA054545
:107B700040E80254002CE8D14FF001028DF80320B8
:107B80000193019B9DF803200B6002F0FF0322B1DB
:107B90004B880068184403B030BD1846FBE70A88DC
:107BA0004B889A4209D150E8022FC2EA224240E8AB
:107BB0000223002BF7D1012070470020704701F00D
:107BC0001F024B090121914000EB830003F02BBD04
:107BD0004B0910B501F01F040121A14000EB830007
:107BE00003F014FDE04000F0010010BD01F01F03A0
:107BF00001229A404B0900EB8300D14303F020BDE2
:107C00004B0901F01F0150F82300C84000F00100AB
:107C100070472DE9F0474E1E760980460F46013623
:107C2000002558F8254008EB850AE44394FAA4F4AB
:107C3000B4FA84F44FEA4519202C06D10135AE423E
:107C4000EFD83C462046BDE8F0874C44A742F5D922
:107C500021464046FFF7BCFF0028F3D0DAF8004089
:107C6000E44394FAA4F4B4FA84F4E5E770B5064E5C
:107C70000546002456F824300BB1284698470134B5
:107C8000042CF7D170BD00BF58330020033080B200
:107C900040F2FD33984230B51FD8124B1A783AB9EA
:107CA0005C891D892C440444A4B2B4F5806F0AD3C6
:107CB0001A7DA2B99A8BDC8B2244024492B2B2F5AF
:107CC000806F0CD201220A801446142202FB043376
:107CD0005A8910445881002030BD092030BD07204A
:107CE00030BD00BF8C3300200B4A0C4B5188142050
:107CF00000FB0131CB6833B90420496810700122C0
:107D0000074800F02DBD05230649137002238B8020
:107D1000012200230968F3E7703300208C33002030
:107D20004C2F0020C833002007B5002305490093DD
:107D3000054A09680548082300F0DCFC03B05DF83B
:107D400004FB00BFC8330020000E04004C2F0020AD
:107D500007B50023009301460823034A034800F0B7
:107D6000C9FC03B05DF804FBF80D04004C2F0020A3
:107D700013B500230C46009301460423074A084824
:107D800000F0B8FC38B9074B142202FB043401237D
:107D9000237402B010BD0E20FBE700BFF40D0400F9
:107DA0004C2F00208C33002037B50A480A4B42681C
:107DB0009C88196853880325033305709BB2002003
:107DC00000909B0001EB8401044800F093FC03B099
:107DD00030BD00BF70330020C83300204C2F00207E
:107DE00010B501460448FFF775FE1C220446002129
:107DF00018F0B0FC204610BDB43300204388033394
:107E000000EB8303994209D382884FF6FF739A42AD
:107E100006D00088B0FA80F0400970470220704711
:107E20000120704770B5144A142303FB00200B682F
:107E300044680D4604F5805653B15C88033403EB67
:107E40008404A64202D9236801330BD1002070BDFF
:107E50000834F6E72C60012070BD6388033304EB1F
:107E60008304EEE731462046FFF7C8FF0128F4D02F
:107E7000F0D30228EAD0E4E78C33002073B54368DE
:107E800005460C466BB3254AD1688B4229D312694B
:107E9000934226D813F0030223D12149008909898E
:107EA00088421ED12868996888421AD11D494868BD
:107EB000834203D900F5805083420ED38A699342EE
:107EC0000DD902F58052934209D20123238000206C
:107ED000B0FA80F0400902B070BD1346F6E70A2000
:107EE000F6E7002323801E462388012B01D90020BA
:107EF000F1E7019601A92088FFF794FF18B92388BC
:107F000001332380F0E7019B2A6899689142F1D1FF
:107F10006B60034B1B892B81DDE700BF4C2F0020DA
:107F2000703300208C3300202DE9F8431C46204B91
:107F30001B7806460F461546002B32D0002A33D058
:107F4000002C31D0DFF870804FF01409A388012B8A
:107F500002D90A20BDE8F88309FB03F318F80330BF
:107F60002BB92146A088FFF75DFF20B92060A388C8
:107F70000133A380EAE723681EB1998832889142D1
:107F8000EFD14FB99B682B6023686B60094B1B894D
:107F90002B810020BDE8F88319883A889142E0D10E
:107FA000F0E70220BDE8F8830520BDE8F88300BFB4
:107FB00068330020703300208C33002008B5074B55
:107FC000191D5888FFF72EFF18B1BDE80840FFF7CC
:107FD000EBBEBDE80840FFF787BE00BF703300204E
:107FE0002DE9F04FA14FDFF8A89289B00646B846B8
:107FF0003B6823B949469E48FFF7A6FD3860D8F88C
:10800000005029784B1E052B00F2EE81DFE813F0BB
:10801000060070007000030103015D0126B1954B5D
:1080200000225A60012425E02B79032B1ED8DFE8BB
:1080300003F016023C4790490B78022B084632D0D9
:108040000B7D022B4FF0010340F0128214225343A8
:10805000C2180020C8545068FFF77AFE03E00123DD
:108060002B71FFF761FE002800F0CF80814B0022CA
:108070005A600E241422002103A818F06BFB41F66D
:108080001D539C4208BF0024D8F8003004941A788D
:10809000023A042A00F2C781DFE812F0A801B40115
:1080A000D701DF01E6010023D0E7744974480023BB
:1080B00002222B718A800122096800F051FBD2E76D
:1080C0006E4C00262E7120686B4DFFF741FE6D4B04
:1080D000D4F800E05A8814235343EA18EE54516848
:1080E0002160A188C2F804E011810222A280BAE7CF
:1080F000B5F814A0DFF880B1AA7DB6B1022A07D97D
:10810000142202FB0AB2EB88118903330B4413815A
:10811000142303FB0ABAEB88BAF80A20C3F57F439D
:10812000FD331344AAF80A307CE7142303FB0AB397
:1081300018895C6804EB8004062A05D8DFE802F0A1
:10814000284E36441D5A68000F24AB7D022B07D9F8
:10815000142202FB0AB2EB88118903330B4413810A
:10816000142303FB0ABAEB88BAF80A20C3F57F434D
:10817000FD331344AAF80A307CE7434843490023FF
:108180004360AB690360FFF779FE002800F02A81A5
:108190000223AB75002300930423EA1821463848D4
:1081A00000F0A8FA002830D00E24CEE72B69002B6F
:1081B00014BF03230123AB750023009305F10C02C8
:1081C000042304F10801EAE70123AB750022EB88E0
:1081D00000929B002A6904F10C01E0E703290CBF1F
:1081E00005230623AB7500230093042305F1080241
:1081F000E118D4E70623AB75244B1988224B586845
:10820000FFF7B6FD044600289FD109B0BDE8F08F06
:1082100041F61D5499E7002E7FF404AF2B79012B12
:1082200038D005D3022B41F61D5418BF0F2421E787
:1082300002232B71039604960596EB6803930DF1C8
:108240000A0103A8FFF71AFE002800F0CB8004986B
:10825000BDF80A108388EB8003882B81FFF788FD27
:108260000446002C7FF406AFCFE700BF8833002020
:10827000B4330020683300208C330020C833002042
:108280004C2F0020703300204C330020D0330020CE
:1082900080330020DFF8FCA103AA53463146A81D15
:1082A000FFF742FE044650B9BAF804100498FFF7ED
:1082B0005FFD04460A2CD4D141F61D54DAE60822AB
:1082C0003146504618F046FAF4E7002E7FF4AAAE85
:1082D0006A4B1A7B5AB11E731A78013A062A00F2C9
:1082E0008380DFE802F04A5F676A816D78001A7860
:1082F000072AF1D801A151F822F000BF1D83020026
:10830000D9820200D982020043830200578302000F
:1083100077830200778302003F8302001A8958495D
:1083200001321A8100225A801A730A78B2FA82F254
:1083300052099A720A7DB2FA82F25209DA72012265
:1083400007E0504958688A884088033202448A808E
:1083500002221A70C0E74A4C5A884A49142505FB84
:1083600002420868546850608888108102228A801E
:108370000C600622EDE70722EBE79A7A32B140491A
:1083800000229A72CA680AB9097C51B9DA7A62B1D4
:108390000022DA723A4A116A39B992F8242022B1DD
:1083A00001225A80FFF70AFE5AE700221A705A800B
:1083B0005A6081E7FFF7F8FC52E7FFF795FC4FE7BB
:1083C00006221A702E4A5B88142101FB0323586889
:1083D000FFF7BEFC44E707221A7000225A60FFF73D
:1083E000A3FC3DE70A2445E60F2443E601228DF86D
:1083F0000C201A89ADF818209A88ADF81A20DB688D
:10840000059310E002228DF80C201A89ADF818208F
:108410009A88ADF81A20DA6805929B7D9A1F53421C
:1084200053418DF81C3003A8FFF720FC0026494675
:108430001548C8F80060FFF7B2FB0121134803F0AC
:1084400026F900287FF4D4ADDFE603228DF80C2056
:10845000DA88ADF818201A89CFE704228DF80C20AD
:10846000DB88ADF81830DEE705238DF80C30DAE74D
:10847000074A1370002353601EE700BF70330020CB
:108480008C330020C8330020B4330020C4330020D4
:1084900068330020D43300204068FFF7A1BD0000FE
:1084A00008B50121044803F0D8F818B9BDE8084020
:1084B000FFF796BD08BD00BFC43300202DE9F3418E
:1084C0009846344B1B7806460D46002B59D00029A0
:1084D00059D009884FF6FF73994256D06B88002B0C
:1084E00053D06B689B0752D14AB92F890DF1020115
:1084F0003846FFF7CBFB30B102B0BDE8F0811388FE
:108500005788ADF8023001A8FFF76AFC044658B955
:10851000BDF80230204A142101FB03235889033897
:10852000C01B58810820E7E780F80080002383758E
:10853000BDF8023083826B6803610121174803F0A4
:1085400099F8E0602B8823816B88A380B8F1030F32
:1085500004BF0423A375E78004BF3368A36100252B
:10856000658101A90E48FFF7DFFA36B17560E3684F
:1085700033600C4BB5721B893381FFF791FF0020EC
:10858000BAE70220B8E70520B6E70420B4E70320E5
:10859000B2E700BF683300208C3300208433002012
:1085A000B43300207033002073B50D460446C8B1C3
:1085B000C1B10DF10601FFF761FCA8B10B4BBDF88D
:1085C00006006668142202FB003001210C3003F023
:1085D00051F82E6063680C336B600123A372002096
:1085E00002B070BD0520FBE70A20F9E78C330020BC
:1085F00013B50446A8B10DF10601FFF73FFC90B199
:108600000B4ABDF80630142101FB0323DA6862B17E
:10861000A27A52B1DA680020013ADA60A07202B0A0
:1086200010BD0520FBE70A20F9E70620F7E700BFA9
:108630008C33002002230022FFF740BF18B1032330
:108640000022FFF73BBF05207047000013B5104B19
:108650001B780446ABB14FF6FF73984213D001A8C4
:10866000FFF7BEFB88B10523037001230371C480AB
:1086700001A90848FFF758FAFFF712FF002002B0DF
:1086800010BD0220FBE70420F9E70820F7E700BF50
:1086900068330020B433002007B5ADF8060002A807
:1086A00020F8041D01460DF10600FFF73DFC03B064
:1086B0005DF804FB13B502AC134624F8020D0A461C
:1086C00000202146FFF730FC02B010BD13B502AC0C
:1086D000134624F8020D0A4620460021FFF724FC29
:1086E00002B010BD20B119B103680B6000207047C3
:1086F000052070472DE9F043DDF81C809646F0B167
:10870000EAB1D0F800C0BCF1000F1BD0EBB1476854
:10871000D7F80490B3FBF9F709FB1737AFB942EA72
:10872000010E1EF0030F07D1C768B94204D34C1ED7
:1087300005691C44AC420BD91020BDE8F0830E2023
:10874000BDE8F0830820BDE8F0830920BDE8F08390
:10875000CDF81C80DCF80C40A446BDE8F04360472F
:10876000F0B5B8B1D0F800E0BEF1000F14D0AAB156
:108770004768D7F800C00CF1FF370F4208D1C7682F
:10878000B94205D34C1E05690CFB0244AC4207D923
:108790001020F0BD0E20F0BD0820F0BD0920F0BD76
:1087A000DEF81040A446BDE8F040604729DF70477E
:1087B00028DF704770B50568AB6886B004460E4682
:1087C00073B118220021684617F0C4FFA36805930F
:1087D0002379019633B1012B0ED0AB6868469847D8
:1087E00006B070BD01238DF8003023690293E36861
:1087F000039363690493F0E702238DF80030E36884
:108800001B030293F5E70000034B187A0122B0FA2C
:1088100080F05A7440097047EC33002070B5244D45
:10882000244E2B7A2C463BB923492448FFF78CF978
:10883000306008B9686070BD0223237233681A790A
:1088400072B1012A24D018460321FFF7B3FF002399
:108850002372636018491948BDE87040FFF79FB95B
:1088600098695A69D9681D69121AB2F5805F28BFE4
:108870004FF480529208012A014438BF0122284453
:10888000FFF794FF50B11128DDD10123237270BD91
:10889000D8681A691044FFF78BFFF3E7237C2BB9E4
:1088A0000146BDE87040022000F00AB870BD00BF6C
:1088B000EC3300200434002000340020DC3300209E
:1088C00038B5831E012B45D8234C237A002B41D089
:1088D000022B09D1032830D0204B00221B68E26014
:1088E0001A793AB1012A22D0637C7BBBBDE83840BB
:1088F000FFF794BF9A6959698D1AB5F5805F94BFE7
:10890000521902F580529A619142EDD102284FF03E
:10891000000308BF19462372104B18BF0D211868B9
:10892000FFF748FF0E490F48FFF739F9DCE71A69EE
:1089300001321A615B699A42E7E7E3680133082B69
:1089400001D8E360D0E70023E360DFE7BDE838400B
:1089500002F0EABC38BD00BFEC3300200434002034
:1089600000340020DC33002000F0FD03012B08D18F
:10897000044B00225A74421E504250411874FFF7B3
:108980004DBF7047EC33002033DF704770B5234C88
:1089900005460121204602F02DFEBFF35F8F2646DB
:1089A00000283AD1042D0AD01D4B1A781AB1BFF312
:1089B0005F8F206070BD1B4A157001221A701A4D1E
:1089C000184C6B6883B92378023B012B14D8BFF392
:1089D0004F8F1649164BCA6802F4E0621343CB600E
:1089E000BFF34F8F00BFFDE71B682078984788B121
:1089F000284602F0FEFAE4E702F0A6FC08B1FFF711
:108A0000C3FF4FF080430122C3F80025BFF34F8F0F
:108A100020BFFDE7BFF35F8F306070BD14340020CE
:108A200011340020103400200834002000ED00E054
:108A30000400FA05A0DF704710B50446408800F036
:108A40008DFBA0802046BDE8104000F017BD30B57A
:108A500087B005460C4618220021684617F07AFEBA
:108A6000072368468DF80030ADF802500294FFF7F6
:108A7000E3FF07B030BD000030B587B005461822CF
:108A80000021684617F066FE4FF6FF739D42ADF871
:108A900002501AD0284600F078FA0B2804461DD060
:108AA00005D8A0B121462846FFF7D1FF05E01128DF
:108AB00005D043F202039842F4D1002200E00122E3
:108AC000074B28461978FEF7CFFF07B030BD0E23BD
:108AD00068468DF80030FFF7AFFFEEE70F23F7E7AA
:108AE0001D340020FFF7C8BF024B0349187800224D
:108AF000FEF7D8BF1F340020318B020013B50422CB
:108B000004460021684617F025FE42F6A623ADF87C
:108B1000003001238DF80230044B1868019001AA3F
:108B200069462046FFF786FF02B010BD080E04001C
:108B300070B5234E86B031780446FEF77DFF0546BA
:108B4000C0BB204600F070FA0828014622D006D8A3
:108B500088B106281ED02046FFF779FF09E043F2CE
:108B60000203984205D043F20143984224D01128D1
:108B7000F1D1012214E029461822684617F0EAFDD7
:108B8000102368468DF80030ADF802400125FFF74C
:108B900053FFEEE7204600F0E1FA00F05FFA002212
:108BA000084B20461978FEF75FFF2A4631782046A9
:108BB000FEF75AFF06B070BD2046FFF75DFFD8E70D
:108BC000203400201F34002013B5044600F0C6FAFC
:108BD00000236A46092100F0D7FD052805D1044B82
:108BE000012219782046FEF73FFF02B010BD00BFFA
:108BF0001C34002008B5084B084918780022FEF7FD
:108C000051FF024630B9064B06491878BDE80840C6
:108C1000FEF748BF08BD00BF1E340020298C0200AB
:108C20001C340020FD8A020030B5012187B00546C2
:108C30001C4802F0DFFC0446BFF35F8F00BB2846F0
:108C400000F05EF9112801461CD005D860B1284615
:108C5000FFF7FDFE002405E0862815D043F202034D
:108C60009842F4D1224601E0012402460E4B2846E8
:108C70001978FEF7F9FE1CB9BFF35F8F094B1C6032
:108C800007B030BD0122F1E718222146684617F0EF
:108C900061FD062368468DF80030ADF80250FFF7FD
:108CA000CBFEDFE7183400201E34002038B50378EF
:108CB0000446A3B94088FFF7DFFE6588284600F028
:108CC000A1F928B1064B012219782846FEF7CCFEFF
:108CD0006088FFF779FFBDE83840FFF78BBF38BDEC
:108CE0001F34002037B50378082B044630D1427A70
:108CF00072BB057A072D1BD0082D2DD0012D27D151
:108D00006A462946808800F031FF08BB019B1B782A
:108D1000F3B1A08800F050FA4FF6FF73984217D0D5
:108D2000114B2A461978FEF79FFEFFF7DDFE0FE094
:108D3000808800F041FA4FF6FF739842044607D04E
:108D40000A4B01221978FEF78FFE2046FFF73CFF01
:108D5000FFF750FF03B030BD054B19680129F7D16B
:108D6000BFF35F8F1A60F3E71F3400201E3400202A
:108D70001834002013B5012300240094ADF800300E
:108D800009238DF80230074A074BA14214BF194648
:108D90001146019100F0E2F92246694600F062FDB9
:108DA00002B010BD0C0E0400100E040030B5038894
:108DB0008488502B87B0054635D00BD8352B45D04D
:108DC0002D4B2E4918780022FEF76CFEFFF78CFE23
:108DD00007B030BD522B22D0542BF1D118220021E4
:108DE000684617F0B7FC112320468DF80030ADF827
:108DF000024000F0B3F9ADF8040000F02FF9204B69
:108E0000204619780022FEF72FFE1E4B2046002236
:108E10001978FEF729FE6846FFF70EFED0E72046D8
:108E2000FFF72AFECCE7037B012BC9D1827A012A06
:108E3000C6D1018942F602139942C1D1124B204694
:108E40001978FEF711FEFFF7D5FEB9E70F4B0022A8
:108E500019782046FEF708FEE98851B9AB89012B45
:108E600003D1A97B003118BF01212046FFF782FF03
:108E7000A6E70021F9E700BF1D340020E58A0200C3
:108E8000203400201F3400201E3400201C34002019
:108E9000AFDF7047B1DF7047B2DF7047B3DF7047B5
:108EA00073B50F4B0F4C93E8030000228DE80300CD
:108EB0006946208800F0D6FC6D464FF6FF76238881
:108EC000B34201D0112801D102B070BD184600F0A4
:108ED00019FD00222946208000F0C4FCEFE700BF06
:108EE000140E040022340020044B1A884FF6FF733E
:108EF0009A4201D0FFF7D4BF704700BF2234002050
:108F00002DE9F743804600F029F94FF6FF739842A8
:108F1000064637D001224FF003096B460821304640
:108F2000571C00F027FEBFB2054630BB01990A4628
:108F3000032342F8049B06314046FFF7ADFF044689
:108F400048B932460821304600F0A5FE04462046C6
:108F500003B0BDE8F0830C280DD0052800D12C46C5
:108F60000821304600F06CFE002818BF03243A4662
:108F7000002DD2D1EBE70125F2E7072814BF044604
:108F80000C24E4E743F20204E1E72DE9F3418046D3
:108F900000F0E4F84FF6FF73984217D10024032540
:108FA000264601272B46224631464046FFF772FFF0
:108FB000042820D0082823D00B281DD115F0020347
:108FC0000FD18EB9A4B902B0BDE8F0816A4608217C
:108FD00000F0CCFD0028E1D1019B9E1D9C881D68FE
:108FE000DFE701250027DDE703251C461E46F9E7DC
:108FF00003253446F6E71120002F08BF0B20E2E7D7
:109000000020F9E71FB50DF10703039300F0A6F860
:1090100002AA012100F0AAFD20B9039B187805B02F
:109020005DF804FB0020FAE738B504460A48FFF76C
:1090300035FF70B9084B43F203054FF6FF721988EC
:109040002046FFF725FFA84204D11A8801321A8072
:10905000F3E7032038BD00BF2434002013B5064ACF
:10906000044692E8030000228DE80300694620468A
:1090700000F0F8FB02B010BD1C0E040046DF704784
:10908000421E00F10F0312F8010F10B99A42FAD1F3
:1090900070470120704708B580B171B103780A7834
:1090A000534013F0FE0F08D106220131013017F0B2
:1090B00037FBB0FA80F0400908BD002008BD2DE95B
:1090C000F04700F101084F1C06460D4600F111095A
:1090D00001F1110A10223946404617F021FB0446DF
:1090E000E0B94046FFF7CCFF18B13846FFF7C8FF9C
:1090F000044651464846FFF7CEFF737C03F0FC035D
:10910000042B04D06B7C03F0FC03042B02D1201C45
:1091100018BF012000F00100BDE8F0870024E8E757
:1091200030B585B004460D4600F066FB02AA0DF18D
:109130000601072000F068FB10B94FF6FF700BE046
:10914000BDF80630AB42F1D003992046FFF7B7FFD8
:109150000028EBD0BDF8060005B030BD132810B5CF
:10916000044602D94FF6FF7010BDFEF73DFC002803
:10917000F8D00A206043014B185A10BD2634002055
:10918000132838B504460D4602D943F2020038BD13
:10919000FEF72AFC0028F8D006480A2303FB040047
:1091A00050F8023F2B608388AB808379AB7100203D
:1091B00038BD00BF263400204FF6FF7398422DE9DA
:1091C000F041064604D14FF6FF752846BDE8F08110
:1091D000094F00244FF00A0808FB04F3A5B2DB5B3B
:1091E000B34203D00134142CF6D1ECE72846FEF745
:1091F000FBFB0028F6D0E8E726340020038843B9BB
:10920000821C00F10A0312F8010B10B99A42FAD13C
:1092100070470120704710B50446FFF7EFFF68B1B3
:1092200022880B889A4208D108220231A01C17F02C
:1092300077FAB0FA80F0400910BD002010BD1FB5CC
:10924000044600F0D9FA02AA0DF10601072000F049
:10925000DBFA10B94FF6FF7007E00399204646315C
:10926000FFF7D9FF18B1BDF8060004B010BD03998F
:1092700020462A31FFF7CFFF0028E4D0F3E70000B3
:1092800013289FBF0A235843014B1952704700BF50
:109290002634002038B50546FFF78EFF04462846E1
:1092A00000F0D8FC38B9132C05D80A236343024ACE
:1092B0004FF6FF71D15238BD2634002030B58DB045
:1092C00014460D4600F110030DF1FF3213F8011D95
:1092D00002F8011F9842F9D10D22002104A817F0CD
:1092E00039FA2B788DF81F306B788DF81E30684670
:1092F000AB788DF81D30FFF7C1FE9DF82F3023703D
:109300009DF82E3063709DF82D30A3700DB030BDE8
:1093100030B5037803F0FE03042B85B004460D46F8
:1093200018D1411C032201A817F009FA0322211DBC
:1093300003A817F004FA02AA03A92846FFF7BEFF04
:10934000032202A901A817F0EBF9B0FA80F0400956
:1093500005B030BD0020FBE730B50388102B93B07B
:1093600052D1041D0FCC07AD0FC50FCC0FC594E82B
:10937000070012AC85E8070014F8283D03F0FE034F
:10938000062B4BD000F038FA9DF820305B08012BFB
:109390003CD9022B42D101AA0DF10201072000F0B5
:1093A00033FA00283AD0029920460131FFF7B0FF86
:1093B0000028F0D005E0029920461131FFF76BFE3E
:1093C00020B3BDF80230BDF81C1016480A224A43EB
:1093D00085188352AA1C0898C5F80200A588A079B0
:1093E000958090714FF6FF7293420DD012ACADF89C
:1093F0000830002304F8443D2046ADF8061000F084
:109400003FF82046FFF752FC13B030BD01AA0DF122
:109410000201072000F0F8F90028CCD14FF6FF73C5
:10942000D1E700BF26340020F8B5074D074F0646A8
:1094300000242B789C4200DBF8BD57F824303046DE
:1094400098470134F5E700BF07350020F8340020C5
:1094500010B5074B1B7804464BB1FFF77DFF204644
:1094600001F0BCF92046BDE81040FFF79FBC10BDDD
:109470000635002008B1FFF7D7BF7047FFF7D4BF0C
:10948000FFF7D2BF2DE9F04F87B08DE80C002E4BCF
:109490001B7882468946002B53D04FF6FF7000F0B0
:1094A00031FA0423ADF80A300DF10A0B03AB0025A5
:1094B000059304AA5B46062104460395049500F033
:1094C00063F9072839D04FF6FF76B0464FF0FF37E3
:1094D000F0B1052825D04FF6FF739C422FD1A0454F
:1094E00029D0A6420CBF05200020BAF1000F01D000
:1094F000AAF80080B9F1000F01D0C9F80050009B14
:1095000003B11E80019B03B11F6007B0BDE8F08F5F
:10951000039BAB4224BFA0461D46BB423CBF264630
:109520001F46204600F0EEF95B4604AA06210446D9
:1095300000F02AF9CCE70520D7E70520E5E703206E
:10954000E3E70820E1E700BF0635002008B5002367
:109550001A4606490648FFF795FF28B1431F5842AF
:109560005841044B187008BD0120FAE7F034002080
:109570000435002008350020F0B5044687B0808807
:10958000FFF71AFE23786080083B032B20D8DFE822
:1095900003F002213166637A5BB9404A116851B128
:1095A000E068814207D113603D4AA1881180E360E1
:1095B0000EE0012B0CD13B4B1B784BB1384BA288F2
:1095C0001B889A4204D1237A062B01D1FFF7BEFFF4
:1095D000204660E0637A002BFAD1304A11680029F6
:1095E000F6D0E0688142F3D12F4913600A68013A4E
:1095F0000A60DCE72D4F3B7873B90125294B1B78B6
:1096000033B1274BA2881B889A4201D1FFF79EFFF6
:10961000002DDDD107B0F0BD4FF6FF7000F072F9FC
:109620004FF6FF7398420546E7D100F06DF9A84266
:109630000646E2D100251822294668463D7017F0FB
:1096400089F80C2320468DF80030ADF80460ADF8A1
:109650000260FFF7E9FE6846FFF7E6FECEE7134B30
:109660001A78002AB4D0002118226846197017F021
:1096700071F80D238DF800304FF6FF73ADF804300C
:10968000ADF80230A36802932046237B8DF80C309E
:10969000FFF7CAFE6846FFF7C7FEBBE70C350020A0
:1096A0000435002008350020F0340020F434002078
:1096B000012804D0043805288CBF00200120704701
:1096C0004FF6FF73438000F0DBB973B504460D46D7
:1096D000164600210822684617F03CF8A5F580419F
:1096E000A4F580406B46324689B280B2FEF7D4FFC3
:1096F000002814BF0520002002B070BDF0B5214D38
:109700008DB00021082201A8297017F023F84FF628
:10971000FF7000F06BFB4FF6FF770446BC4211D0A0
:10972000A4F58046B6B201AA03A93046FEF7CEFFE3
:109730000A2809D03046FEF789FF082806460BD1D3
:1097400001232B700DB0F0BD204600F0F3FA204647
:1097500000F04CFB0446E1E7002EF3D01822002174
:109760000DEB020016F0F6FF07238DF8183006A85F
:109770000123ADF81C4008968DF82430FFF7A0FFB8
:10978000E0E700BF18350020F0B5FF2887B0044699
:109790000D4617461E462CD80846FFF789FF40B3F2
:1097A00003AA2046FFF791FF18B10524204607B011
:1097B000F0BD01A903A8FEF7F7FE04460028F4D186
:1097C000019BBD705D883D802EB9029B7B6003A824
:1097D000FEF70EFFEAE7368802997868AD00AE42E0
:1097E00028BF2E46324616F0AAFFB542EFD90C2408
:1097F000DCE70724DAE7000008220021014816F020
:10980000A9BF00BF10350020F0B587B007460E464F
:109810001546FFF74DFF0446F8B1A7F58040104A02
:1098200003A980B2FEF746FF18B10024204607B016
:10983000F0BD01A903A8FEF7B7FE0028F5D1019BF2
:10984000AF705A882A80029A6A609B8803F5804329
:10985000338003A8FEF7CCFEE8E70124E6E700BF6B
:109860001035002030B5FF2887B003460C4615465A
:1098700035D889780846FFF71BFF80B3A3F58042EF
:10988000ADF80020A1F58042ADF802206268019297
:1098900022880292184603AAFFF717FF0528694697
:1098A00003A808D1FEF7C6FE072804460CD005D849
:1098B00070B1032409E0FEF7C1FEF5E7082801D0E6
:1098C0000E28F6D1112400E08624204607B030BDD2
:1098D000002DFAD0294603A8FEF704FFF5E7072478
:1098E000F3E74FF6FF7000F00DBAFF2808B505D872
:1098F00000F00EFAFFF702FF002008BD072008BDA8
:1099000000F02CBA00F058BA00F070BA0A68084BA0
:1099100070B50C25032A01D9002070BD05FB02F4A7
:10992000E65A864202D10A60181970BD0132F1E789
:109930002C35002073B502AC002344F8043D0E46DC
:1099400005462146FFF7E2FF38B18378B34206D1DE
:10995000837A9B0703D143680BB902B070BD019BAA
:109960000133019321462846ECE7000070B5054E0F
:109970000546002456F82430284601349847042C24
:10998000F8D170BD2C0E040070B50F4E04460025B2
:10999000237A9D420FD34FF6FF732380A370FF23DA
:1099A0006372A37A03F0FD036FF30003A372002335
:1099B0002372636070BD617A2944C9B2304600F0F9
:1099C00034FA0135E4E700BF1C35002013B500234D
:1099D000009304460193417A837827488DF802303A
:1099E00000F00AFAF0B1237AA2788DF8022003EB96
:1099F00083039B00ADF80030531E0190072B08D85D
:109A0000DFE803F012070707071204141423ADF868
:109A10000030221D69462088FFF724FF07281DD04B
:109A200008D8A8B1032019E00123F0E7838809339F
:109A30009B08ECE7112813D08628F3D1A37A03F012
:109A4000FD0343F00103A3720C4B01221A7005E0E1
:109A5000A37A60F3410360F30003A37202B010BD68
:109A6000A37A43F002036FF30003A372034B0122B6
:109A70001A700020F2E700BF1C35002019350020C5
:109A80002DE9F047374AC16886B0054600230C240B
:109A9000174604FB03204668B14203D00133042B70
:109AA000F7D100202B78304E092B10D0132B09D082
:109AB000082B52D16C7A002C4FD100284FD0FFF7E1
:109AC00063FF00E001242846FFF750FF0BE06C7AAB
:109AD000002C42D1002842D0837A446043F0020334
:109AE000837201233370337883B3002535704FF0D0
:109AF0000C084FF0010A08FB05739A7AC2F3400381
:109B00000BB9D20725D586F800A003B90CB308FB22
:109B100005794846FFF75AFFD8B14FF6FF738628FC
:109B2000ADF80230B9F80030ADF8043017BF0723A4
:109B300006238DF80030029018BF002368460CBF42
:109B40008DF800308DF80C30FFF710FF06B0BDE83F
:109B5000F0870135042DCED1F8E70024B3E70446A1
:109B6000B1E700BF2C350020193500200023FFF796
:109B70000BBE00002DE9F04180460E4614461F46FC
:109B8000002B51D0CB1F012B51D8531E032B4ED885
:109B9000FFF7D0FE054618BBFF214FF6FF70FFF719
:109BA000C9FE0546C8B1A0F8008086706B7AFF2B0D
:109BB0001CD12146214800F050F9FF28687230D1AD
:109BC0004FF6FF732B80AB7AA87003F0FD036FF3A1
:109BD0000003AB7200232B726B601120BDE8F08193
:109BE000037A9C42E2D00F20BDE8F0814FF00008DC
:109BF0002C72697A114800F0FFF8D8B104EB8404A4
:109C00002401A4B2A408BE7078603C80B8F1000FB3
:109C100004D0082E02D1A400063C84800020BDE8B8
:109C2000F0814FF00108E3E70E20BDE8F081072046
:109C3000BDE8F0810320BDE8F08100BF1C350020A5
:109C400008B5FFF777FE18B1FFF79EFE002008BDAC
:109C5000052008BD37B502AC002344F8043D054695
:109C60002146FFF753FE30B92846FFF73EFE50B1BC
:109C7000072807D107E081782846FFF7E1FF20B1E8
:109C8000052802D0032003B030BD019B01330193AE
:109C900021462846E5E7CB1F012B70B506460C464A
:109CA000154601D9072070BD1046FFF729FE002890
:109CB000F8D021463046FFF73DFE28B1058084707C
:109CC000BDE87040FFF782BE052070BD10B54FF6AD
:109CD000FF7304469C4208460AD14FF48071FDF799
:109CE00098FF84B2B4F5807F09D14FF6FF7406E087
:109CF000FF2CFAD82146FDF76BFF0028F5D120464E
:109D000010BD00000149FFF7E1BF00BF5C35002036
:109D10004FF6FF73984210B5044606D00449FFF78A
:109D2000D5FF231A5842584110BD002010BD00BF76
:109D30007C350020FF2810B5044609D801460548A7
:109D4000FDF754FF21460448BDE81040FDF74EBF23
:109D500010BD00BF5C3500207C350020FF28014687
:109D600002D80248FDF74CBF002070475C35002048
:109D7000FF28014602D80248FDF742BF0020704785
:109D80007C3500204FF6FF73984270B518BF441C15
:109D90000E4614BFA4B20024A5B2FF2D02D94FF67F
:109DA000FF7506E021463046FDF72AFF0134002802
:109DB000F2D0284670BD000070B50B490A4EFFF77F
:109DC000E1FF4FF6FF750446AC4201D1204670BD5D
:109DD0002046FFF7CDFF0028F8D020463146FFF798
:109DE000D1FF0446F0E700BF5C3500200149FFF7D2
:109DF000C9BF00BF7C35002038B50C46054608B900
:109E0000002038BD0368002BFAD040680028F7D046
:109E1000FF29F5D0BFF35F8FFDF7F2FE0028EFD0EA
:109E2000EB68286803FB040038BD38B50D460446CE
:109E300090B1036883B1406870B1FF290CD0BFF3C3
:109E40005F8FFDF7DDFE38B16068BFF35F8F294695
:109E5000BDE83840FDF7CABE38BD2DE9F04188465F
:109E6000064618B9FF242046BDE8F0810368002BA0
:109E7000F8D04368002BF5D00027FF24B368FDB26B
:109E8000AB42EFD929467068FDF7A2FEBFF35F8FA2
:109E900040B9FF2C08BF2C462D1B01354545E2D0AB
:109EA0000137EBE7FF2C07D1FF24F9E721463046C5
:109EB000FFF7BBFF0134E4B2A542F7D8F4E77EDF39
:109EC00070477FDF704785DF704786DF704710B5CA
:109ED00004464088FFF742F9A0802046BDE81040C4
:109EE00000F028BC10B586B0044618220021684650
:109EF00016F030FC042368468DF80030ADF80240BF
:109F0000FFF7E5FF06B010BD30B587B005460C463B
:109F100018220021684616F01DFC072368468DF8BC
:109F20000030ADF802500294FFF7D1FF07B030BD0A
:109F3000F0B587B004460F46164600211822684641
:109F40001D4616F007FC03238DF80030094BADF8D1
:109F50000240002219788DF808702046ADF80A609A
:109F60008DF80C50FDF780FD6846FFF7B0FF07B095
:109F7000F0BD00BFC52D00207FB502238DF8003055
:109F80000388ADF8023043798DF8091013F0040FFF
:109F900014BF0123022368468DF80830FFF797FFAE
:109FA00007B05DF804FB000070B5154B0E4686B097
:109FB00014460A4619780546FDF756FDF6B1114BD1
:109FC000221C197818BF01222846FDF74DFD631E9B
:109FD0005A425A410C4B28461978FDF745FD182284
:109FE0000021684616F0B6FB012368468DF8003064
:109FF000ADF802508DF80840FFF769FF06B070BD5C
:10A00000C52D0020C72D0020C62D00202DE9F041D0
:10A01000154B0D46197804461646FDF70DFD014611
:10A02000F0B1124B20461978FDF706FD002804F523
:10A0300080704FF0070180B214BF01270227FFF79D
:10A04000FFFD014620B1052802D02046FFF75CFF46
:10A0500033462A4639462046BDE8F041FFF768BF3F
:10A0600033462A46F7E700BFC72D0020C62D002043
:10A070002DE9F0418AB00F4690460446FDF7BEFC3C
:10A0800020220646002102A816F064FB012E08D10A
:10A09000354B002219782046FDF7E6FC47B98525A7
:10A0A00017E0002E5BD01FB9852502AB002212E01D
:10A0B0002046FFF753F84FF6FF73984212D1002560
:10A0C0003B78DB0722D4294BCDF814800993012E6D
:10A0D000EBD102AB3A4629462046FFF7F2FE0AB022
:10A0E000BDE8F081012EEAD11F4D20462978FDF709
:10A0F000A3FC0028E3D12046FFF7F4FE2978204690
:10A10000FDF79AFC0028DAD18525D9E7852DDED028
:10A1100004F580706B460122072180B2FFF72AFD0B
:10A120001128DCD0F0B901465022019816F012FB3C
:10A13000019B1E700199CDF8148001F13403029344
:10A1400001F1180306934B1C07931131074B099338
:10A150002046FFF715F80028B9D00820BFE743F2E2
:10A160000200BCE70320BAE7C42D00209C35002084
:10A1700073B505460E461446FDF740FC01284AD04B
:10A1800002284CD156B931462846FFF798FE0428DC
:10A19000044600D11124204602B070BD284B22464F
:10A1A00019782846FDF760FC2846FEF7D7FF4FF6E2
:10A1B000FF73984220D0FCB96A460721FFF7D6FC0E
:10A1C000044678BB019890F84430DB072ED500F1A7
:10A1D0003404224604F112012846FFF774FE0446B7
:10A1E00002E0112C18BF03240022B4FA84F14909BB
:10A1F0002846FFF7D9FECEE731462846FFF75FFE37
:10A200003378042814BF0446112413F0010F14BF3F
:10A2100001220222E9E7002EB5D13446BBE743F222
:10A220000204B8E70528DCD11124DDE700F11804A9
:10A230002A30FEF7E3FF0028CBD10B24D4E700BF80
:10A24000C42D00202DE9F0470388113B88B0044657
:10A250000D2B68D8DFE813F00E00670023004400E0
:10A260006700670067006700A3002F0167006700B1
:10A2700067008E00037A85883D2BA64B2846197807
:10A2800041F23D0418BF4FF48854FDF7D5FB002878
:10A2900049D0002221462846FFF7B8FE43E08088D7
:10A2A000FDF7ACFB0128014608D1237AA08813F002
:10A2B000010F14BF01220222FFF776FE34F8045F7B
:10A2C0001822002102A816F045FA043405238DF85F
:10A2D0000830ADF80A50049402A8FFF7F8FD22E018
:10A2E00000F110063046FEF7AAFF4FF6FF739842C2
:10A2F0000546A0881AD1FEF731FF0546002201214C
:10A30000A088FFF751FE4FF6FF739D4212D1002542
:10A31000002329461A46A088FFF7D7FD0146F8B169
:10A32000A088FFF7F1FD08B0BDE8F0872946FEF7E9
:10A33000A7FFE3E702AA07212846FFF717FC00283A
:10A34000E5D1039D95F84430DB0701D53435DFE7CF
:10A35000314605F14600FEF75EFF0028F6D1D6E74C
:10A36000002DE0D1A0882B4641F206022946FFF7D6
:10A37000DFFDD8E71822002102A816F0EBF912231E
:10A380008DF80830A388ADF80A30237AC3F30002B1
:10A39000C3F340038DF810208DF811309CE7067A46
:10A3A0005C4B8788002E78D1197800F1040832467A
:10A3B0003846FDF759FB617A11F0040103D140469C
:10A3C000FFF7DAFDAFE707F580791FFA89F96B46E9
:10A3D000012207214846FFF7CDFB054628B101467B
:10A3E0003846FFF791FD3146E9E73846FEF7B6FEFD
:10A3F0004FF6FF739842044682462ED101460198DB
:10A40000FEF78EFE50450446064677D0DFF80CA1D5
:10A4100001463846FEF734FF9AF800103846FDF73B
:10A420000BFB0646C8B93846FFF75CFD9AF80010EA
:10A430003846FDF701FB01460028C0D0072122461F
:10A440004846FFF728FC014648B90121B7E72146F5
:10A450003846FEF715FF0126F0E72E46EEE7862880
:10A460000DD11822002102A816F074F9062302A8C3
:10A470008DF80830ADF80A70FFF729FDE5E738469A
:10A48000FFF742FD00214046FFF776FD002E3FF426
:10A490004AAF2046FEF7FEFE45E7447A1978384673
:10A4A00004F00304FDF7C8FA00283FF43CAF22464D
:10A4B00031463846F0E6184B80881978FDF7BCFA2B
:10A4C000054600287FF42FAFA088FDF7A7FA0146C4
:10A4D000A08819B9012341F2060248E70D4B2A462C
:10A4E0001978FDF7C1FA02238DF80830A388ADF87A
:10A4F0000A308DF810508DF81150EDE6FFF7F1F9A4
:10A50000B0420446A3D104213846FFF7FDFC29469A
:10A5100055E700BFC52D0020C72D0020C42D002009
:10A52000002242608260024A12680260704700BFE7
:10A53000E8350020FEF79EBF70B586B006460C4693
:10A54000154600211822684616F004F93046ADF889
:10A550000260FEF703FE0D2CADF8040019D10323B1
:10A560008DF800309DB12B7813F0010F0CBF022342
:10A5700001238DF8083000238DF80C3041F20113CF
:10A58000ADF80A306846FFF7D5FF06B070BD02236C
:10A59000EFE707238DF80030002302948DF80C308C
:10A5A000F0E700002DE9F04706468AB091469A464A
:10A5B000884689BB01AC2046FFF7B2FF052530462F
:10A5C0008DF81050ADF81260FEF7C8FDADF814001C
:10A5D00004A8CDF818800794FFF7ACFF234B1B7835
:10A5E00013B99DF80D3073B3019F4A463946304682
:10A5F000FFF7BEFDA0F111035A425A411C4B04461D
:10A6000019783046FDF730FA0B2C03D006D80CB180
:10A61000082C1CD125461BE00027E6E7112C05D0AD
:10A6200043F202039C42F5D00D2CF2E7114B424657
:10A6300019783046FDF718FA0F4B4A46197830461C
:10A64000FDF712FA002528460AB0BDE8F087032579
:10A65000BAF1000FF7D034F00803F4D0112CF2D087
:10A660003A4621463046FFF767FFECE7E535002024
:10A67000CA2D0020C92D0020C82D002070B5094B1F
:10A6800019780446FDF7D8F9074B05461978204696
:10A69000FDF7D2F92A46014601232046BDE8704065
:10A6A000FFF780BFC82D0020C92D002070B58AB0EB
:10A6B00001AD044628460E46FFF732FF052320462B
:10A6C0008DF81030ADF81240FEF748FDADF81400DB
:10A6D00004A807950696FFF72DFF114B01991A68FC
:10A6E0002046FFF7C5FCA0F111035A425A410D4B19
:10A6F000054619782046FDF7B7F90B4B002219786B
:10A700002046FDF7B1F935F0080306D0112D04D02D
:10A71000019A29462046FFF70FFF0AB070BD00BF1F
:10A72000DC350020CB2D0020CA2D00200021FFF7B2
:10A73000BDBF000010B50378052B044606D0122BD0
:10A740000AD02046BDE81040FFF7F4BE816840887B
:10A75000BDE81040FFF7AABF0C4B1B689BB10C4B28
:10A760001978037A01F001029A420CDB437AC1F3B3
:10A7700040019942ACBF00210121012300226088E1
:10A78000FFF710FFDDE70121F7E700BFE835002004
:10A79000E035002008B50378083BDBB20B2B14D85A
:10A7A000012202FA03F340F60F0213420DD0074BC9
:10A7B000074918780022FDF775F9064B0649187805
:10A7C0000022BDE80840FDF76DB908BDCB2D002083
:10A7D0002DA70200CA2D00207DA6020008B5FFF7B4
:10A7E00031FD074B074918780022FDF75BF9064B4E
:10A7F000064918780022BDE80840FDF753B900BFAC
:10A80000CB2D00202DA70200CA2D00207DA602001E
:10A8100072DF704773DF704774DF7047F0B52F4CFD
:10A82000A3B005460E46174600211022204615F01B
:10A8300091FF2B482B4A03782B49C3EB431E7244EC
:10A840000133714403F00103A2601F2203702160F1
:10A85000A280A28100213C2204A815F07BFF0623E0
:10A8600001AA8DF813300E9201233C22002113A877
:10A870008DF80230ADF820308DF83C30ADF8005046
:10A88000CDF824D0ADF80450ADF80870039615F05B
:10A8900061FF0223221D21688DF84C3004A800F0CE
:10A8A000DBF908B114F054FB104AA16813A800F0BA
:10A8B000D3F908B114F04CFB0D4A08490D48FFF7D5
:10A8C000A7FF082804D1002204490A48FFF7A0FF87
:10A8D00008B114F03DFB23B0F0BD00BF2C360020C2
:10A8E000EC3500203C360020ED35002038360020C5
:10A8F000D02D0020CC2D0020084B38B1B0F5202FF2
:10A9000007D20A22B0FBF2F030B180B29881996090
:10A9100070474FF6FF70F8E70120F7E7D02D0020D1
:10A9200008B5064B01211878FFF774FF08B114F041
:10A930000FFB0020BDE8084004F098BCCC2D00209F
:10A9400008B5054B1878FFF767FF18B1BDE8084058
:10A9500014F0FEBA08BD00BFCC2D002076DF704792
:10A960007ADF70477CDF704714F0F2BA03F0D6BE8E
:10A9700007B503784BB93B214088FFF7EFFF08B3D9
:10A9800003B05DF804EB14F0E3BA012B1AD1134BBA
:10A990001B685B0416D5124B1B68032B12DD2F219D
:10A9A000104815F0ABFF80B12F210E4815F0A6FF1F
:10A9B000411C0D4B0D4AD3F8043500920420682247
:10A9C00005F03CFE03B05DF804FB5C21054815F082
:10A9D00095FF08B15C21E8E70249EAE7482E00202C
:10A9E000442E0020520E040000100140820E04008C
:10A9F00013B500F02DFC08B114F0AAFA02AC002344
:10AA000044F8043D0120214600F04EFB08B114F04B
:10AA10009FFA204600F0B2FB08B114F099FA02B098
:10AA200010BD00001FB59DF804301748012262F3E5
:10AA3000030304AC62F3071304F80C3D15F056FF52
:10AA4000114982B22046FFF78DFF08B114F080FA59
:10AA5000082200210DEB020015F07CFE7823ADF8F2
:10AA60000830C823ADF80A300023ADF80C3002A836
:10AA70004FF4C873ADF80E30FFF772FF08B114F051
:10AA800067FA04B010BD00BF3C0E040030B58BB0B7
:10AA900001AD08220021284615F05CFE7823002431
:10AAA000ADF80430C823ADF806301C224FF4C8734B
:10AAB000214603A8ADF80A30ADF8084015F04AFE6B
:10AAC00040F6CD4304934FF48033059303238DF870
:10AAD0001830084B089303A8074B0395ADF81A40AC
:10AAE0008DF81C40099300F04BFD08B114F030FACA
:10AAF0000BB030BD71A9020069A9020070B5EFF377
:10AB0000108672B60C4A946801239CB993600B4B73
:10AB10000B4DD3F8801029401160C3F88050D3F852
:10AB2000841051604FF0FF32C3F88420047006B9DE
:10AB300062B670BD0370FAE70459002000E100E03E
:10AB4000FC06FFBD10B5084B9A685AB150B9EFF337
:10AB5000108272B605491C680C605C684C60986095
:10AB600002B962B610BD00BF0459002000E100E048
:10AB70006DDF704779DF70477DDF704764DF7047B6
:10AB80002DE9F74F0C9CBDF834B02788002580468E
:10AB90008A4691462E46B8F8002096420BDB35B126
:10ABA0002288013AD21B92B2FF2A39D8DA55002006
:10ABB00003B0BDE8F08FD8F8042052F826000190C9
:10ABC00000220DF1030101A8FFF7D8FF0028EFD103
:10ABD0009DF803204A4521D12288002D14BF002072
:10ABE000022002EB09010144594519DC3DB901324B
:10ABF00092B2228003F802A02288013222802288A9
:10AC00000DF103011A4401A8FFF7B8FF0028CFD1C6
:10AC100021889DF803200A44228001250136BAE7E5
:10AC20000C20C5E72DE9F341089CBDF824501746D8
:10AC30008DE8300002220646FFF7A2FF48B9102235
:10AC4000394630460995089402B0BDE8F041FFF757
:10AC500097BF02B0BDE8F0812DE9F04F00231788BF
:10AC6000138090F82D3085B006460D46144643B348
:10AC7000082F4ED902A8FFF77BFF002840F0208163
:10AC800013880822CA54238801339BB21B222380D5
:10AC9000CA542088013080B2208006220DF10901BB
:10ACA000284415F04CFD23889DF8082006339BB2FC
:10ACB00012F0FE0218BF01222380EA5423880133D8
:10ACC0002380B378FBB123880433BB4221D802A888
:10ACD000FFF750FF002840F0F38023880322EA5456
:10ACE000238801339BB219222380EA542388BDF8BC
:10ACF000082001339BB2E9182380EA54120A4A70F3
:10AD0000238802332380F278AAB12388D91CB94260
:10AD100001D90C20D4E00221E954238801339BB2ED
:10AD200001212380E95423880B449BB22380EA54F9
:10AD300023880B4423807268AAB12388D91CB942A6
:10AD4000E7D8022192F90020E954238801339BB20D
:10AD50000A212380E954238801339BB22380EA54DB
:10AD60002388013323803389002B40F09D80338A70
:10AD70005BB18DE890002B460722032106F11000FD
:10AD8000FFF750FF002840F09B80338B5BB18DE8CC
:10AD900090002B461522142106F11800FFF742FF00
:10ADA000002840F08D80326A002A40F08C80D6F86E
:10ADB0002480B8F1000F2ED0B8F804302188981CF8
:10ADC0008A1C0244BA42A4D8FE28A2D803336B548A
:10ADD000238801339BB2FF222380EA542388013366
:10ADE0009BB22380B8F80020EA54E918120A4A708E
:10ADF0002088023080B22080B8F804205AB1D8F8F8
:10AE00000810002969D0284415F099FC2388B8F867
:10AE100004201344238096F82C30002B40F09880B7
:10AE2000307800284CD03388012B56D021888A1CDA
:10AE3000BA423FF66EAF012805D1737802330B4456
:10AE40009F42FFF466AF023F7F1A04A9BFB221F808
:10AE5000087DA818FFF790FE90BB3378BDF8082056
:10AE6000022B02D07178914202D3BA4240F2B680EE
:10AE7000012B40F0B08073789F42C0F0AC80ADF8F9
:10AE800008300821BDF80830FE2B3FF642AF22887B
:10AE90000133AB542288013292B22280A954228815
:10AEA0001344238000200BE08DE890002B460622FF
:10AEB000022106F10800FFF7B5FE00283FF457AF66
:10AEC00005B0BDE8F08FB4F800E00EF10603BB4218
:10AED0003FF61FAF1188052901D80720F0E76FF46E
:10AEE000486C01EB0C039BB24FF27D3C6345F4D9F7
:10AEF0005388052BF1D96FF44860181880B260456B
:10AF0000EBD94FF6FF70814203D0834201D09942C2
:10AF1000E3D8052305F80E30238801339BB21221B4
:10AF20002380E954238801339BB223801188E9549C
:10AF3000E818090A4170238802339BB223805288A3
:10AF4000EA54E918120A4A702388023323802EE754
:10AF5000B36A002BC1D04FF000094FF00C0A4FF03C
:10AF6000160B96F82C305FFA89F293427FF658AFB1
:10AF7000B16A0AFB02F201EB0208B8F80430981C2F
:10AF8000FE283FF6C6AE208803332B5423880133B6
:10AF90009BB2238005F803B0238801339BB2238042
:10AFA0008A5AEA54E918120A4A702088023080B29C
:10AFB0002080B8F804205AB1D8F8081000298CD0A5
:10AFC000284415F0BCFB2388B8F8042013442380E0
:10AFD00009F10109C5E7ADF8087052E7092151E709
:10AFE00001600B6843604A68934204BF00234360DA
:10AFF0007047436843B1026891680B4443605268EC
:10B00000934204BF0023436070474BDF704700004A
:10B010001FB50D4C01A8FFF7F8FF70B9214602A833
:10B02000FFF7DEFF039B002BF4D001981A685968E4
:10B03000904702A8FFF7DDFFF4E7052801D013F0E1
:10B0400087FF04B010BD00BFB00E040060DF704782
:10B0500069DF704761DF704730B5114B1B78A9B0CD
:10B06000E3B1104D94240DF1020103A8ADF80240A4
:10B07000FFF7F0FF70B9294601A8FFF7B1FF029B67
:10B08000002BF0D003A81A685968904701A8FFF771
:10B09000B0FFF4E7052801D013F05AFF29B030BD06
:10B0A0007A360020BC0E0400F0B5074685B00D4688
:10B0B00000295ED0304B0B600C22002101A815F056
:10B0C00049FB012606232A68ADF8083001A9202093
:10B0D0008DF804708DF80660FFF7BAFF0C2200218E
:10B0E00001A815F037FB00242A688DF8056001A936
:10B0F00040208DF806408DF80740FFF7A9FF0C228D
:10B10000214601A815F026FB45232A68ADF8063034
:10B1100001A923208DF80470FFF79AFF0C22214625
:10B1200001A815F017FB2A688DF8046001A93046C4
:10B13000FFF78EFF0C22214601A815F00BFB4FF400
:10B14000B0632A68019301A9A120FFF781FF0C22B7
:10B15000214601A815F0FEFA9DF804302A68334311
:10B1600001A9A0208DF80430FFF772FF204605B03A
:10B17000F0BD0E20FBE700BFA02D002008B5FFF7B3
:10B1800065FF10B9014B01221A7008BD7A36002004
:10B1900010DF704711DF704713B504460949684650
:10B1A000FFF71EFF019808B902B010BD036841689F
:10B1B0002046984718B16846FFF71BFFF2E71120B9
:10B1C000F2E700BFCC0E040013B5044607496846F9
:10B1D000FFF706FF019B0BB902B010BD20461A68AD
:10B1E000596890476846FFF704FFF3E7E40E040050
:10B1F000064B9A6822B11A6822F480021A607047DE
:10B20000034B4FF48002C3F880207047045900209C
:10B2100000E100E00C4991F816335A09EC23134180
:10B22000DB0708D442F2020013F092BE1A6842F41F
:10B2300080021A607047054B9A68002AF6D14FF4D5
:10B2400080030B60704700BF00E100E0045900205C
:10B25000F7B5184F3C785CBB174E0125204635707A
:10B26000FFF79AFF112820D02046FFF7ADFF134BC0
:10B270001868019002A800F8054DFFF73FFC10493F
:10B2800001A8FFF785FF0446B0FA80F04009387046
:10B290009DF80300FFF756FC3CB90A4B34701C7054
:10B2A000FFF7B8FF2846FFF78FFF204603B0F0BD39
:10B2B0000824FAE77C3600207B360020C80E040004
:10B2C000BDB602007D360020F7B5154F3B7813B3AD
:10B2D000144E01203070FFF75FFF11284FF000057A
:10B2E0001BD00220FFF770FF02A800F8015DFFF7F6
:10B2F00005FCFFF74FFF04469DF807003D70FFF780
:10B3000021FC2CB93470FFF773FF0320FFF75CFFBB
:10B31000204603B0F0BD0824FAE72C46F8E700BF4A
:10B320007C3600207B360020054B1B7833B1054B63
:10B330001B780BB1FFF7C8BFFFF78ABF0820704723
:10B340007B3600207C360020014B1878704700BF08
:10B350007C36002007B508496846FFF741FE019B8F
:10B3600013B903B05DF804FB58681A689047684643
:10B37000FFF73FFEF3E700BFD80E0400FFF7EABF78
:10B3800075DF704776DF70477ADF70477BDF704785
:10B39000034B1A8882420CBF18460020704700BF3A
:10B3A0009C360020024B9B6903B11847704700BFD1
:10B3B0008036002037B585B22846FFF7E9FF0346FF
:10B3C00070B1164C017A227B91420BD200F10A0136
:10B3D0002846FFF7D5FFE8B1112801D0FFF7E2FFBB
:10B3E00003B030BD237C0022027243B13B212846CA
:10B3F000FFF7C8FF30F0080301D0FFF7D3FF636900
:10B40000002BEDD000228DF80420ADF8065001A8E5
:10B410009847E5E71A7A01321A72E1E78036002090
:10B4200013B50B46497A0F4C024669B9A0686168AA
:10B430001C7A002C18BF0146586812F093FB08B123
:10B44000FFF7B0FF02B010BD002119726369002B35
:10B45000F8D00121ADF806008DF8041001A8984736
:10B46000F0E700BF8036002030B583880588B3F54B
:10B47000FA7F24BF6FF4F9729C184A8838BF002401
:10B4800095420CD84088904209D38A88A24206D3BC
:10B4900003F2F310904234BF0020012030BD0020A1
:10B4A00030BD000070B50388112B01462ED002D8A4
:10B4B000102B05D070BD122B51D0502B35D070BD44
:10B4C000C37B012B4AD14FF6FF70FFF761FF0546A2
:10B4D00020B90420BDE87040FFF764BF8E88264A7B
:10B4E0000680002303721368C5F80A300A305368D7
:10B4F00043601031FFF7B8FF204B6872DB896BBBEC
:10B5000029463046BDE87040FFF78ABF8088FFF7C4
:10B510003FFF044610B3406812F06AFB08B1FFF722
:10B5200041FF4FF6FF73238070BD144BC288DB8947
:10B530009A4213D1038A022B10D186883046FFF736
:10B5400027FF054650B101F1120000F0ADF80028C8
:10B55000D6D1686812F04CFB0028BBD170BD86883C
:10B560003046FFF715FF05460028F7D008310A30AE
:10B57000FFF77AFF6872C3E7B036002080360020FC
:10B58000F8B5064650B305460FCD154F3C460FC4DF
:10B5900095E8070084E807003068124B3B60B8B1BB
:10B5A000FFF7F2FED8B931680A681A604A685A6033
:10B5B0000D480E4A4FF6FF7303800D4B40F8043FD1
:10B5C000002112F0BDFA002814BF03200020F8BDAE
:10B5D0001846FFF7DBFE0028EAD0F8BD0E20F8BDC4
:10B5E00080360020B03600209C360020B5B3020023
:10B5F000B836002000B550E8002F0B4640E8003E6A
:10B600009EF0000FF7D110465DF804FB00B550E83E
:10B61000002F42EA010340E8003E9EF0000FF6D101
:10B6200010465DF804FB00B550E8003F43EA010214
:10B6300040E8002E9EF0000FF6D110465DF804FBA6
:10B6400000B550E8003F03EA010240E8002E9EF0FA
:10B65000000FF6D110465DF804FB00B550E8002F4E
:10B6600002EB010340E8003E9EF0000FF6D11046C9
:10B670005DF804FB00B550E8003F03EB010240E831
:10B68000002E9EF0000FF6D110465DF804FB00B5C9
:10B6900050E8003FA3EB010240E8002E9EF0000FAF
:10B6A000F6D110465DF804FB007800F00100704709
:10B6B0000078C0F3400070470620704730B541F273
:10B6C0000103984287B00D461446744B00F0838006
:10B6D0001FD8012847D01B685B0460D5704B1B68DE
:10B6E000002B5CDD2F216F4815F008F9002800F0D1
:10B6F000C9802F216B4815F001F9411C6A4B6B4A38
:10B70000D3F80435009201957B22012004F096FFC6
:10B7100045E044F20102904200F0898044F20202C6
:10B720009042D8D11B68590439D55D4B1B68002B5A
:10B7300035DD2F215B4815F0E1F800286ED02F2170
:10B74000584815F0DBF8411C574B2288D3F80435D4
:10B75000039262680292564A009201956C2201207F
:10B7600004F06CFF1BE01B685B0418D54C4B1B6896
:10B77000002B14DD2F214B4815F0C0F810B32F21FA
:10B78000484815F0BBF8411C474B4A4AD3F80435EA
:10B790000092029401956022012004F04FFF4FF0C7
:10B7A000A0434FF4F032C3F81825C3F80C25EFF38B
:10B7B000108372B64DF6AD6C3F4A1378002B6AD1F8
:10B7C00007B030BD5C21374815F098F808B15C210E
:10B7D000D6E73449D8E71B685804E0D5304B1B68DE
:10B7E000002BDCDD2F212F4815F088F868B12F21C0
:10B7F0002C4815F083F8411C2B4B304AD3F8043504
:10B800000092029401956322C6E75C21254815F059
:10B8100075F808B15C21EBE72249EDE75C2121488E
:10B8200015F06CF808B15C218AE71E498CE71B68AB
:10B830005A04B4D51A4B1B68002BB0DD2F211948D0
:10B8400015F05CF8A8B12F21164815F057F8411CE7
:10B85000154B2268D3F8043504926268039202956E
:10B86000A2680192164A00920120772204F0E6FEB7
:10B8700095E75C210B4815F041F808B15C21E3E73E
:10B880000849E5E75C21074815F038F808B15C2164
:10B8900030E7044932E730BF8FE700BF482E002071
:10B8A000442E0020F00E040000100140940F04000C
:10B8B000540F0400180F0400E82D0020320F04007C
:10B8C000730F040007B50023ADF800300146054BA7
:10B8D00001936A4644F20200FFF7F0FE03B05DF800
:10B8E00004FB00BF0A19040001461022014814F0AD
:10B8F00026BF00BFD836002010B50B4C0B490822DC
:10B90000204614F01CFF0822A018094914F017FF64
:10B91000E379042262F30713E371237A022262F3CC
:10B920008713237210BD00BFD836002060000010BE
:10B93000A400001000487047D836002000230649B4
:10B940001A46C818428042605A540833B3F5807FC3
:10B95000F7D1024B1A607047E8360020E837002024
:10B96000F0B50C4B0C4C1B68064620227BB1013B0A
:10B9700014F8330050B104EBC3056F88B74202D10D
:10B980006D688D4202D0013AF0D11046F0BD1F2300
:10B99000EEE700BFE8370020E836002030B5084A5F
:10B9A000084C136804EBC3056960012104F83310E7
:10B9B0000B44202B08BF00236880136030BD00BFFC
:10B9C000E8370020E8360020C0F30C038B4208441F
:10B9D00038BFA0F50050C01A70470000F0B50E4BFC
:10B9E0000E4C1F680022BA4213D0D10063185E6863
:10B9F00000230AE0655805EBC30E15F83350854265
:10BA000002D1DEF80400F0BD0133B342F2D10132BD
:10BA1000E9E70020F0BD00BFEC370020F037002040
:10BA200000B58DB040B99A1C06D0012201A88DF84E
:10BA30000420029301F0E0F9034B186803F016FEAE
:10BA40000DB05DF804FB00BF0838002010B5037886
:10BA5000044613B97846FFF735FFE079431C01200F
:10BA60009840013810BD0000F8B5037804460F4631
:10BA700013B97846FFF726FF0B4B0C4E1A68511C82
:10BA800002F0070206EBC2051960A38A6B80A18849
:10BA9000A069FFF799FF6860E36906F8327003F068
:10BAA00001036B70F8BD00BF4C3800200C3800203B
:10BAB0002DE9F0410E468EB015461C46074610B9DA
:10BAC0007846FFF7FFFE16B97846FFF7FBFE14B97C
:10BAD0007846FFF7F7FE636A627802330593A3782E
