:020000022000DC
:1060000000FD032075CC03009DCC03009FCC030052
:10601000A1CC0300A3CC0300A5CC0300000000002A
:10602000000000000000000000000000A7CC0300FA
:10603000A9CC030000000000ABCC0300ADCC0300F2
:10604000AFCC0300AFCC0300AFCC0300AFCC030058
:10605000AFCC0300AFCC0300F5820200AFCC03004D
:10606000AFCC0300717E0200DD110300AFCC030052
:10607000AFCC0300AFCC0300AFCC0300AFCC030028
:10608000AFCC030089A3030045D20200AFCC0300CC
:1060900059A40300AFCC0300F18F0200AFCC030082
:1060A000AFCC0300AFCC0300AFCC0300AFCC0300F8
:1060B000AFCC0300AFCC03000000000000000000E4
:1060C000AFCC0300AFCC0300AFCC0300AFCC0300D8
:1060D000AFCC0300AFCC0300AFCC0300AFCC0300C8
:1060E000AFCC0300AFCC0300AFCC03000000000036
:1060F00000000000AFCC030000000000AFCC0300A4
:10610000000000000000000000000000000000008F
:10611000000000000000000000000000000000007F
:10612000000000000000000000000000000000006F
:10613000000000000000000000000000000000005F
:10614000000000000000000000000000000000004F
:10615000000000000000000000000000000000003F
:10616000000000000000000000000000000000002F
:10617000000000000000000000000000000000001F
:10618000000000000000000000000000000000000F
:1061900000000000000000000000000000000000FF
:1061A00000000000000000000000000000000000EF
:1061B00000000000000000000000000000000000DF
:1061C00000000000000000000000000000000000CF
:1061D00000000000000000000000000000000000BF
:1061E00000000000000000000000000000000000AF
:1061F000000000000000000000000000000000009F
:1062000010B5054C237833B9044B13B10448AFF3F0
:1062100000800123237010BDCC2F0020000000005F
:1062200058FD03000C4B43B10C480D4910B5AFF3BA
:1062300000800C48036823B910BD0A48036833B9CD
:106240007047094B002BF7D0BDE810401847064BAC
:10625000002BF5D0184700BF0000000058FD0300D8
:10626000D02F0020C82F002000000000154B002B6D
:1062700008BF134B9D46A3F5803A00218B460F467D
:106280001348144A121A18F069F90F4B002B00D06A
:1062900098470E4B002B00D09847002000210400A7
:1062A0000D000D48002802D00C48AFF3008018F014
:1062B00007F92000290000F015FA18F0EDF800BFEA
:1062C0000000080000FD03200000000000000000A6
:1062D000CC2F0020A4580020000000000000000087
:1062E00041DF7047014B1B680B8070471030002066
:1062F00007B5194B1B685B0416D5184B1B68032B9D
:1063000012DD2F21164818F0FDF9C8B12F211448CD
:1063100018F0F8F9411C134B134AD3F804350092D6
:106320000420EC2207F07CFE0021104800F01AFF48
:1063300078B10B4A832103B05DF804EB16F0C5BCBD
:106340005C21074818F0DEF908B15C21DFE7044959
:10635000E1E703B05DF804FBD42E0020D02E00202E
:1063600081E8030000100140BCE80300A02D0020DC
:1063700007B5144B1B685B0416D5134B1B68032B26
:1063800012DD2F21114818F0BDF990B12F210F48CF
:1063900018F0B8F9411C0E4B0E4AD3F804350092A0
:1063A00004208A2207F03CFE03B05DF804EB00F005
:1063B00093BF5C21054818F0A5F908B15C21E6E718
:1063C0000249E8E7D42E0020D02E002081E8030007
:1063D00000100140DCE8030003781C2B01D1FFF71B
:1063E000C7BF70471FB52A4C2268520417D5294BE6
:1063F0001B68032B13DD2F21274818F083F9002891
:1064000033D02F21244818F07DF9411C234B244A16
:10641000D3F8043500920420DC2207F001FE02F0DC
:1064200051F902F083F903A812F0D2FF23685B044C
:1064300019D5184B1B68032B15DD2F21164818F0B2
:1064400061F9D8B12F21144818F05CF9411C134BA5
:10645000BDF80C20D3F804350192124A00920420B2
:10646000E72207F0DDFD04B010BD5C210A4818F0FA
:1064700049F908B15C21C5E70749C7E75C2106482F
:1064800018F040F908B15C21DDE70349DFE700BF00
:10649000D42E0020D02E002081E8030000100140FF
:1064A000F5E803000FE903002DE9F043A0F1300502
:1064B000042D85B000F2C080724C2368580418D5B2
:1064C000714B1B68032B14DD2F21704818F01AF94B
:1064D000002877D02F216D4818F014F9411C6C4B1F
:1064E0006C4AD3F80435009201959922042007F0F4
:1064F00097FD012D6FD0032D78D0002D40F0A8809E
:10650000654A136813F5804FD4BF644BA3F58043ED
:106510001360614F62483A6802F50043614A12888D
:1065200000215A434FF6FF7392FBF3F292B201F04F
:106530004FF95D4800F0FAFD23685B0480467BD587
:10654000514E3268032A40F398802F214F4818F0AB
:10655000D9F800287FD02F214C4818F0D3F8451CDB
:106560004B4B4F48D3F804953F68002101F0E2F906
:106570004E4B0290009301974B46C92229460420B6
:1065800007F04EFDB8F1000F56D023685A0453D5DA
:106590003368012B50DD2F213C4818F0B3F8002858
:1065A00062D02F21394818F0ADF8411C384B404AD1
:1065B000D3F804350092CDF80480CC22022007F0F5
:1065C0002FFD39E05C21314818F09CF808B15C21BE
:1065D00081E72E4983E7304A136843F6FE718B4208
:1065E000D4BF03F5804347F6FF7391E700F024FE24
:1065F00040B10CF05FFF00F014FE05B0BDE8F043C1
:10660000FFF7B6BE2368590416D51F4B1B68032B32
:1066100012DD2F211D4818F075F880B12F211B487D
:1066200018F070F8411C1A4B224AD3F80435009236
:106630000420BB2207F0F4FC05B0BDE8F0835C2128
:10664000124818F05FF808B15C21E8E70F49EAE763
:10665000012DF1DC5DE75C210C4818F053F808B11E
:106660005C2179E7094D7BE75C21084818F04AF87E
:1066700008B15C2196E7054998E7B8F1000F87D18A
:10668000DAE700BFD42E0020D02E002081E80300DE
:1066900000100140A4E70300103000200080FFFF3D
:1066A0009CE703000C300020A02D0020EEE7030043
:1066B00008E80300B7E70300074B08481960084BD8
:1066C0001A8801F500414A434FF6FF7192FBF1F23F
:1066D000002192B201F07CB8103000209CE703004A
:1066E0000C30002000B55B4C5B4A8DB0042146F2B3
:1066F000010007F07BFC2268530419D5574B1B6837
:10670000032B15DD2F21564817F0FCFF002800F061
:106710008F802F21524817F0F5FF411C514B524AF0
:10672000D3F80435009204204FF4807207F078FC0F
:1067300013F0E0FF20B14A4A4FF4817116F0C5FA18
:1067400001F0A6FF01F0BEFF01F0F0FF00212422BE
:1067500003A817F003FF01238DF80C3007238DF8F1
:106760000F3006238DF81430404B07934049414BBE
:106770000B9303A800F06CFD18B1394AFA2116F00A
:10678000A4FA00223C493D4801F0DEF808B116F0B9
:106790008FFA3A4801F0D4F82268394B12F4804F4E
:1067A00018801C461AD02D4B1B68032B16DD2F2199
:1067B0002B4817F0A7FF002843D02F21284817F0B7
:1067C000A1FF411C274B2288D3F8043501922D4AA2
:1067D000009204204FF4887207F022FC64212A48BA
:1067E00000F0BAFE224B1B7883B9284D0FCD03ACC5
:1067F0000FC495E8030084E8030003A800F050FEEE
:1068000020B1174A40F2231116F05FFA1B4801F03D
:10681000EBF902F06BFE00F0D5FE00F04FFD20B169
:106820000F4A4FF4957116F050FAFFF759FDFCE747
:106830005C210B4817F066FF08B15C216AE7084944
:106840006CE75C21064817F05DFF08B15C21B5E7F5
:106850000349B7E7D42E0020C1DF0200D02E00206C
:1068600081E803000010014044E80300D9630200FE
:10687000E82F0020F1620200382E00209CE7030080
:106880000C3000206EE80300A964020084E70300D6
:10689000024B53F820300846184700BF34EA030083
:1068A000024B53F820300846184700BF44EA030063
:1068B000C06F003018BF0120704713B50446303058
:1068C0000FF08EFEB4F97630A4F874300022A2677F
:1068D00069462046ADF80030ADF8023001920FF065
:1068E0005DFDA36EB4F974102046984702B010BD48
:1068F00070B590F88030022B064615D030300FF07E
:1069000044FE4FF47A73A0FB034503FB0155B06FBF
:10691000E20BEB0B00218B4242EA454208BF824268
:106920002CBF0120002070BD002070BD2DE9F74371
:1069300090F88030022B044600F130054DD0B0F9BC
:106940008890B0F976302846A3EB09080FF01DFEB9
:106950004FF47A73A0FB036703FB0177F30B43EA61
:10696000474303FB08F3A26F93FBF2F34B44A4F8F5
:106970007430A36EB4F97410204698472B4B1B68F3
:106980005B0427D52A4B1B68042B23DD2F212948C4
:1069900017F0B8FE002840D02F21264817F0B2FE8D
:1069A000441C254B2846D3F804650FF0EEFD4FF448
:1069B0007A75A0FB052305FB0133D20B42EA434263
:1069C0001E4B0192009340F23912334621460520B6
:1069D00007F026FB03B0BDE8F083B0F886802846B8
:1069E0000FF0D3FD4FF47A73A0FB0367B4F9840072
:1069F00003FB0177F30B43EA4743C1175943FA0BF3
:106A000002FB0012A3FB000111440023A26F17F048
:106A100067FB4044A4F87400ABE75C21054817F01D
:106A200071FE08B15C21B8E7024CBAE7D42E002011
:106A3000D02E0020FCE90300001001401FEA0300F3
:106A40002DE9F7432F4B1B685B040446154617D509
:106A50002D4B1B68032B13DD2F212C4817F052FE02
:106A600010B32F21294817F04DFE411C284B294A0D
:106A7000D3F80435009204204FF4C17207F0D0FA25
:106A8000E36E04F1740120469847B4F974302B800A
:106A9000B4F976306B8094F88030022B0DD1A36F5F
:106AA0006B6003B0BDE8F0835C21184817F02AFE44
:106AB00008B15C21D6E71549D8E704F1300948460A
:106AC0000FF063FD4FF47A78A0FB086708FB0177AD
:106AD000A46FF20BFB0B002142EA47428B4208BF36
:106AE000A24201D30023DBE748460FF04EFDA0FB96
:106AF000082308FB0133D20B42EA4342A41A6C601C
:106B0000CFE700BFD42E0020D02E0020FCE90300E8
:106B100000100140EEEA0300F7B590F8803004461B
:106B2000022B0CBFB0F98400D4F8840017F0B0FC3D
:106B3000054610B9784602F0A1FCA06F4FF47A71B7
:106B40002A460023A0FB010117F01AFB5C4D002927
:106B500008BFB0F57A7F06460F462B686AD2580404
:106B600018D5584B1B68032B14DD2F21564817F0FE
:106B7000C9FD002855D02F21534817F0C3FD411CF3
:106B8000524B534AD3F804350092042040F21112BC
:106B900007F046FA21220023C4E90E232B685A0489
:106BA0001AD5484B1B68032B16DD2F21464817F0DA
:106BB000A9FD002872D02F21434817F0A3FD411CE6
:106BC000424BA26BD3F804350192424A0092042052
:106BD00040F21B1207F024FA2046012300F8303F50
:106BE0000FF0D6FCD8B12B685B0418D5354B1B6869
:106BF000002B14DD2F21344817F084FD002856D0D7
:106C00002F21314817F07EFD411C304B324AD3F81A
:106C10000435009201204FF4917207F001FA03B09D
:106C2000F0BD5C21284817F06DFD08B15C21A3E799
:106C30002549A5E7590417D5224B1B68032B13DD03
:106C40002F21214817F05EFDF8B12F211E4817F0C3
:106C500059FD411C1D4B214AD3F8043500920420F4
:106C600040F2171207F0DCF9F90341EA5641F0034C
:106C70001B4E1C4A80194FF000074FF0000379416A
:106C800017F07EFAC4E90E0188E75C210E4817F080
:106C900039FD08B15C21D9E70B49DBE75C210A48E3
:106CA00017F030FD08B15C2186E7074988E75C21D1
:106CB000054817F027FD08B15C21A2E70249A4E7C7
:106CC000D42E0020D02E0020FCE90300001001404B
:106CD00074E90300BDE90300DAE9030095E9030064
:106CE00020A1070040420F00024603218C3009F02A
:106CF00082BA00007FB5089D16460446B0F874209D
:106D0000002B50D1C367036F002B4AD1A367A4F8AF
:106D10007620B6F90030002BCCBF47F6FF734FF456
:106D20000043A4F87630B6F90030A4F8843002238A
:106D300084F88030264BA4F886201B685B041FD59E
:106D4000244B1B68032B1BDD2F21234817F0DAFC93
:106D5000002833D02F21204817F0D4FC411C1F4BB2
:106D6000A26FD3F804350392E26F0292B6F90020C5
:106D700001921B4A0092042040F2462207F050F98B
:106D80002246022104F18C0009F035FA3DB1B4F934
:106D900074302B80B4F976306B80A36F6B6004B0D5
:106DA00070BD1B68B2E75968C1671B6841F63801BE
:106DB0008B4288BF4FF0FF338367AAE75C21064808
:106DC00017F0A0FC08B15C21C5E70349C7E700BF85
:106DD000D42E0020D02E0020FCE90300001001403A
:106DE000F9EA030030B587B004460A9D002B4AD16A
:106DF000C367036F002B48D1A367B2F90030A4F832
:106E00007630002284F88020B4F97420A4F8882019
:106E10009B1AC4F88430224B1B685B0422D5214B9B
:106E20001B68032B1EDD2F211F4817F06BFC002869
:106E30002DD02F211C4817F065FC411C1B4BD4F8AA
:106E40008420D3F804350492A26F0392E26F029279
:106E5000B4F976200192164A009204204FF4E172B0
:106E600007F0DEF82246002104F18C0009F0C3F996
:106E70003DB1B4F974302B80B4F976306B80A36FD8
:106E80006B6007B030BD5968C1671B68B4E75C210F
:106E9000054817F037FC08B15C21CBE70249CDE784
:106EA000D42E0020D02E0020FCE903000010014069
:106EB00027EB03002DE9FF410A9E04461746002BED
:106EC00040F09A80C367036F002B40F09780A36760
:106ED000012384F880303D68DFF87C814FF6FF7332
:106EE000201D95FBF3F3C3EB0343ED1A0FF0F4FA07
:106EF000002840F08E80D8F8003059041AD5504B45
:106F00001B68032B16DD2F214E4817F0FBFB0028D2
:106F100076D02F214B4817F0F5FB411C4A4B3A79AC
:106F2000D3F804350192494A009204204FF4F972D3
:106F300007F076F8B4F88830C4F884502B44A4F8ED
:106F40007630D8F800305A041ED53D4B1B68032B11
:106F50001ADD2F213B4817F0D5FB00285ED02F21EA
:106F6000384817F0CFFB411C374BA26FD3F80435DC
:106F70000392E26F02923A680192354A009204202D
:106F800040F2FD1207F04CF8D8F800305B0421D530
:106F90002B4B1B68032B1DDD2F212A4817F0B2FB5A
:106FA000002844D02F21274817F0ACFB411C264B6A
:106FB000B4F97620D3F804350392B4F97420029220
:106FC000B4F988200192234A009204204FF4007201
:106FD00007F026F82246012104F18C0009F00BF994
:106FE0003EB1B4F974303380B4F976307380A36F56
:106FF000736004B0BDE8F0815A68C2671B6866E739
:107000005C21104817F07EFB08B15C2182E70D4936
:1070100084E7B4F87430A4F888308BE75C21094821
:1070200017F070FB08B15C219AE706499CE75C21E8
:10703000044817F067FB08B15C21B4E70149B6E7E3
:10704000D02E0020FCE903000010014050EA0300AC
:1070500082EA0300ABEA0300D42E002090F88020DF
:10706000012A03460AD003D3022A10D00020704719
:10707000806F0028FBD0B3F9840004E0806F002803
:10708000F5D0D3F88400003018BF01207047826F1C
:10709000013A0332EAD8EEE773B50023C66F80F8F1
:1070A0003030044600214FF4FA704FF400454FF49D
:1070B0007A720023E5FB060117F062F8C4E90E01BD
:1070C00004F130000FF064FAD0B1134B1B685B047D
:1070D00016D5124B1B68002B12DD2F21104817F01C
:1070E00011FB78B12F210E4817F00CFB411C0D4B02
:1070F0000D4AD3F8043500920120F22206F090FFE9
:1071000002B070BD5C21064817F0FCFA08B15C21A2
:10711000E9E70349EBE700BFD42E0020D02E002082
:10712000FCE903000010014056E9030013B50446D2
:10713000C36E00F17401984704F130000FF050FA6B
:10714000B4F97420A4F876200023E367A3676946A6
:107150002046ADF80020ADF8022001930FF01EF993
:1071600002B010BD10B50446B0B1836EA3B1C36EBA
:1071700093B10A4BC3620FF0E1F870B9084B246475
:1071800004F18C006364074909F004F804F130004D
:10719000BDE810400FF036BA0E2010BDB0EB030072
:1071A000E96C0200A0EB030003780E2B02D1002053
:1071B00005F020B8704730B5837DC27D85B043EAC5
:1071C00002230446ADF80C3003A801230D46ADF8A8
:1071D0000E3012F0C1F810BB02AA2146208A12F02C
:1071E000ABFAE0B90DF10A032A46BDF80810E08AAF
:1071F00012F064FC98B9217ED4F8120001F001016C
:1072000004F06CFB10B1784602F038F9BDF80A00C2
:107210000EF00AFD18B901900FF0D4FD019805B0E9
:1072200030BD08B508F040FF10F04DFA12F022F81A
:10723000BDE8084004F00EB907B501A812F0C8F87F
:10724000BDF80400003018BF012003B05DF804FB56
:1072500073B50E46054660B304F09EFE044628BB97
:1072600012F05CF810F018FF28690EF0ADFC04462F
:10727000E0B92B7F0193AB69009301466B690E481F
:1072800059220EF0C9FE044680B92B6A03B1984713
:1072900008F026FE11F060FF10F04AF8FFF7CCFF6F
:1072A000054608B10CF02EF806B13570204602B044
:1072B00070BD0E24FAE700BF1430002008B5FFF7B8
:1072C000BBFF20B10CF0D6F808B10CF05DF8BDE8BA
:1072D000084004F0C7BE000008B507F017FC20B155
:1072E0000020BDE8084004F085BF0248BDE8084022
:1072F00004F026BF4C2E00200349044809690323EB
:10730000002213F05EBE00BF74300020C4320020A3
:1073100010B50378023B082B4AD8DFE803F01E05BE
:107320001249493849493F00224B5B68002B3FD046
:10733000007A00283CD0204A01211170BDE810409D
:1073400018471C4B9B68002B32D01B4A117879B32D
:1073500000211170BDE810401847184B1A784AB93F
:10736000144BDB6813B114490A709847BDE810400C
:10737000FFF7C2BF124B134801221A7004F0E0FE5F
:1073800004F0C6FEA0B1BDE8104015F091BC094B59
:107390000D485969102213F058FEF3E78168C06860
:1073A000FFF709FF08B115F083FC044B01221A70A6
:1073B00010BD00BF743000207030002071300020FC
:1073C00072300020582E0020C432002030B5274DE6
:1073D000297885B019B1012803D003283FD005B022
:1073E00030BD04AC002344F8083D214601F0ACFC5C
:1073F00008B115F05DFC204601F010FD08B115F054
:1074000057FC04A9012341F8043D0DF1060012F0D8
:1074100025FB08B115F04CFCBDF8060012F0FAF897
:107420000DF1050112F0C4F908B115F041FC0BF0A3
:1074300069FF9DF8051000200CF052F810B1784655
:1074400002F01CF804F00EFE08B115F031FC002328
:107450002B70074B1B68002BC1D09847BFE701F08A
:1074600047FD0028BBD015F023FCB8E772300020A0
:107470007430002008B503781B2B0CD1064B1B7809
:107480004BB101F071FD08B115F012FC0348BDE8E5
:10749000084004F057BE08BD72300020582E00206E
:1074A00070B51E4A1E4E5168044686B0106803AB84
:1074B00003C31189927A19809A700FCC35460FC593
:1074C00094E8030085E8030073692BB31549164857
:1074D00013F05EFDF0B9154B0093124A124914489F
:1074E00003AB13F027FDA8B9124814F001FD0146C3
:1074F0000F4813F039FD68B90F4815F08FFA48B9F5
:107500000D4815F0C1FA0146094813F02DFD08B9E0
:10751000FFF7F2FE06B070BD0720FBE7C0EB0300EB
:10752000743000208C300020F833002011730200EA
:10753000C4320020AC3000207432002010B5054C5D
:10754000226832B115F0F4FC002802DB236898476A
:10755000F8E710BD38340020154B164A10B50C461C
:1075600018600121144813F021F918B1134A4A2177
:1075700015F0ABFB610C0023E00341F26F728B420C
:1075800008BF824210D24FF47A72002316F0F8FD41
:10759000014600220A4813F01BF938B1074A4B2173
:1075A000BDE8104015F091BB0521F2E710BD00BF0A
:1075B000383400203D750200CCEB0300D0EB030013
:1075C0003C34002070B50446CEB0002864D03C4D59
:1075D0002A6852042FD53B4B1B68032B2BDD3A4BFB
:1075E0000DAE19680023E25C100902F00F02085C7E
:1075F00006F81300885C06EB43020133102B507031
:10760000F1D100232F21314886F8203017F07AF885
:10761000002843D02F212D4817F074F8411C2C4B23
:107620002C4AD3F8043501922B4A0092029641224B
:10763000042006F0F5FC2B685B042DD5214B1B685C
:10764000032B29DD2F21214817F05CF800282ED0CC
:107650002F211E4817F056F8411C1D4BE27BD3F832
:1076600004350B92A27B0A92627B0992227B0892DC
:10767000E27A0792A27A0692627A0592227A0492BC
:10768000E2880392A288029222680192134A009231
:107690000420462206F0C4FC4EB070BD5C210B48AD
:1076A00017F030F808B15C21B5E70849B7E75C216D
:1076B000064817F027F808B15C21CAE70349CCE770
:1076C000D42E0020D02E0020D82E0020F3EB030073
:1076D000001001401BEC03002DEC030035EC03000F
:1076E0002DE9F8430468054694F8200000F01EFCDC
:1076F00004F11807FF264FF0FF394FF00008207AF9
:10770000FF2802D000F012FC2672607AFF2802D017
:1077100000F00CFC66722068431C03D000F06EFD84
:10772000C4F8009084F80B800C34A742E7D1686855
:10773000BDE8F84300F020BB2DE9F041134DDFF820
:1077400050800E460024012705EB41052B5D5BB1FF
:107750002B5D013BDBB22B552B5D93B958F82630DE
:107760001B683046DB6998470134022CEED157B1D3
:10777000074B53F8263021465868BDE8F04100F029
:107780006EBB0027F0E7BDE8F08100BFEC5700209A
:107790005C34002040680C4902798B5CDBB2FF2B23
:1077A0000DD0FE2B0DD0006803F5A87350F82330E0
:1077B000064850F82200984203D1FF238B54002042
:1077C00070470120704700BF7034002078340020DB
:1077D0002DE9F74F0368904693F82120022A0446CA
:1077E0000F4640F09C800C254D435A195268904535
:1077F00009D1DB691BB9002003B0BDE8F08F4268F6
:1078000010799847F7E7FFF7C5FF8346002840F057
:1078100088806368DFF818911B79FE2209F803203D
:10782000266896F8200000F0DBFBCA46B8F1000F8E
:107830001FD13544687A00F0D3FB287A00F0B8FBFA
:1078400063681B79FF2209F803200C2303FB0766FA
:10785000C6F804802368DB69002BCCD063681A79F2
:10786000314B03EB42030221D955606800F0E3FA83
:10787000C1E7B169884507D335441FFA81F8287AF2
:1078800000F0AEFB687AD9E707EB47094FEA8909B0
:1078900006EB09035A6891423BD0002A39D0904543
:1078A00037D25B466068032100F092FA636896F86D
:1078B00020B01B6856F80900354403F5A673019300
:1078C000AB7A1BB300F0F0FC02460199584600F079
:1078D0004FFB96F8200000F06BFB63681B790AF8F9
:1078E000037063681A79114B43F822800C2505FB5D
:1078F0000765002342463946606800F069FA287A35
:1079000000F056FB687A00F053FB9EE700F0BEFCE7
:10791000DAE763681B79FF220AF80320E6E708200C
:107920006AE7112068E700BFEC5700207834002098
:107930007034002002680C2303FB01218888704703
:107940000368188B704700002DE9F04F89B004469A
:1079500003928946002900F03381066896F82130A9
:10796000002B40F02F8100F099FD08B1852821D12E
:1079700000F0C6FB00B3954B1B6803F0F003302BFF
:1079800020D10023924A00211370FF234FF0FF32D1
:1079900086F82030F172337273723260F17532758D
:1079A0007375F26006F1200000F08CFA60B1204699
:1079B000FFF796FE0425E9E000F06AFB0028DAD024
:1079C0000325E3E00123DDE74FF0090A0746FBB298
:1079D000029359F827305A1C00F08680256895F8E4
:1079E0002110002940F0F08009EB0702184692F8B8
:1079F00008B004930C2202FB07F805EB0802516063
:107A000082F80AB003228DF818202268424406A9A1
:107A1000927AB2FA82F252098DF8192001228DF879
:107A20001A20059200F076FB049B059A20B10425EC
:107A30002046FFF755FEA9E045F80830BBF1000FDE
:107A400000F0A8801F2B86BF03F01F0361494FF091
:107A5000A0419A40C1F80C250AF1FF30284400F0FB
:107A600031FA0028E3D105EB0A0000F02BFA0028D8
:107A7000DDD10C2303FB07530493187A00F0B0FA0E
:107A8000049B587A00F0ACFA55F80800BBF1000FDF
:107A900000F08B8000F008FC834655F8080000F0E9
:107AA000F5FB63680C2202FB07551B6807F15001C8
:107AB00003EB810180465A46287A00F059FA636840
:107AC000687A1968424601F5A47100F051FA012361
:107AD000EB726368404A1B79029902EB430320462C
:107AE0000022DA55FFF774FE0AF10C0ABAF1210FF1
:107AF00007F101077FF46BAFD9F810200023B2F52E
:107B0000805F01D3092B58D1314A127812B1002B72
:107B100008BF01238DF8183000238DF819308DF837
:107B20001A3060682D4A07238DF81B3003790793BC
:107B300006A900F093F8054600287FF479AF636842
:107B4000D9F810701B68D3F810253F01D2B2D74086
:107B5000B76160684FF0010800F036F904233A4637
:107B600002216068CDF8008000F04DF902216068C4
:107B700000F075F9039BF3616368194A1B7986F875
:107B8000218042F82340174AFF21D154284609B0EA
:107B9000BDE8F08F1F2B86BF03F01F030D494FF088
:107BA000A0419A40C1F8082556E700F06FFB8346D4
:107BB00055F8080000F078FB73E7520801339EE7A0
:107BC0000B25E3E70825E1E7082531E7E80F00F09A
:107BD0008C34002000030050EC570020397702005D
:107BE0005C340020703400202DE9F0470768DFF88E
:107BF0006890002405463E46A0464FF00C0A6B688C
:107C00001B7909EB430303F80480F37A73B12B6803
:107C100030680AFB0433997AB1FA81F1490900F01E
:107C200051FB306800F020FBC6F804800134022CC0
:107C300006F10C06E3D16B68064A1B79FF21D1548B
:107C4000686800F0C1F8686800F07CF887F82140A7
:107C5000BDE8F08770340020EC570020F7B50579B7
:107C6000364C0C266E43A7193B7A002B63D1A251E8
:107C70004A687A601A461F464379D6B2B34202F187
:107C8000010203684FD81A0B56B2CB78002E4FEA88
:107C90004313AFBF06F1604202F00F02284EDBB281
:107CA000A9BF02F56142B354DBB282F80033036826
:107CB0001B0B03F01F0643F3C40323F0604323F0C0
:107CC000030303F1604303F56143012202FA06F660
:107CD000C3F880611E6007684B78D7F8046503F02D
:107CE000030326F003063343C7F8043507688B788F
:107CF000D7F8086503F0030326F003063343C7F8FB
:107D0000083506680B78D6F8100503F00F0320F04D
:107D10000F010B43C6F810350C2303FB054400206C
:107D2000227203B0F0BDB60006F5A0769F519B59B4
:107D30000193019BA0E70820F3E700BF90340020E7
:107D400014ED00E0036801221A600379034A0C2154
:107D500001FB032302221A72704700BF90340020F7
:107D60000368044901221A6103790C2000FB031304
:107D70001A7270479034002038B503681B0B5AB252
:107D80000121520903F01F0301FA03F320320C49C9
:107D900041F8223003680025D3F80022C3F80052CE
:107DA00003684FF0FF320446C3F80823FFF7D8FFFB
:107DB0002379044A0C2101FB03231D7238BD00BF47
:107DC00000E100E09034002003680122DA6070478F
:107DD00073B54FF480348C4005688BB18B0003F58C
:107DE000A0730026EE50EB580193019B0368C3F883
:107DF0000443036801F5A87143F8212002B070BD67
:107E0000C5F80843F5E7F0B507689DF814E0D7F822
:107E1000004240F201158D4024EA0504C7F80042F3
:107E20000568D5F800422343C5F800327346BDE823
:107E3000F040FFF7CDBF01F1500313B59B0002687E
:107E40009BB20024D450D3580193019B02684FF495
:107E5000803303FA01F1C2F8041302B010BD0268C6
:107E60004FF4803303FA01F1C2F8081370470000A1
:107E70002DE9F341104C114F114E00254FF480387D
:107E8000236804F5E04080B26BB1D7F8043308FAF8
:107E900005F21A4207D00023236023680193019B57
:107EA0007168336898470135042D04F10404E7D163
:107EB00002B0BDE8F08100BF40910040009000405A
:107EC000903400202DE9F74F4FF00009154D164E64
:107ED00007464FF0040AC8465FFA89FB01240DF1FA
:107EE000070004FA0BF48DF8078000F057FC2C42D1
:107EF00008D0336814EA030201BF2343336087F8D4
:107F000000B092469DF8070000F06CFCBAF1000F3B
:107F100003D0A54309F10109DED1504603B0BDE805
:107F2000F08F00BFFFFF01009C34002037B5012512
:107F30008540C5F31003A3B10B4B02A80024C3F87E
:107F4000085500F8014D00F029FC084A9DF807008B
:107F5000136823EA0505156000F044FC204603B0D1
:107F600030BD0720FBE700BF00F001409C3400203B
:107F700010B5A1B19AB101238340C3F3100484B1B9
:107F80000A4C246823420ED0C00000F1804000F566
:107F9000F830C0F81015C0F81425002010BD0E20D0
:107FA00010BD072010BD082010BD00BF9C3400206C
:107FB000012303FA00F0430C5B044BB918B1064BE4
:107FC0001B68184206D0054BC3F804050020704713
:107FD00007207047082070479C34002000F00140C3
:107FE000012303FA00F0430C5B044BB918B1064BB4
:107FF0001B68184206D0054BC3F8080500207047DF
:1080000007207047082070479C34002000F0014092
:1080100000F1804000F5C040002382B00360036897
:108020000193019B02B0704703681F2B83BF03F0CD
:108030001F03036001484FF0A04070470003005049
:1080400007B502AB43F8040D1846FFF7EDFF019B9F
:1080500000EB8300D0F8003723F44033C0F800373A
:10806000D0F8003743EA0141C0F8001703B05DF8CB
:1080700004FB0000054B4FF0FF32072843F8202097
:1080800084BF1B1883F84C20704700BFA034002029
:1080900010B5174C94F85B3043BBFF21E218013355
:1080A000302B82F82410F9D10021C8B2FFF7E2FF8B
:1080B00001310929F9D1002106220E4816F04EFAA5
:1080C0000D4BC02283F806234022C3F880214FF4D1
:1080D000BE701A60FFF79CFF084B4FF00042C3F8D8
:1080E0000423012384F85B30002010BD082010BD5C
:1080F000A0340020F534002000E100E000600040E2
:10810000034B93F85B00003018BF0120704700BF9D
:10811000A034002030B5374C2318024693F92400D0
:10812000013085B064D18878002852D0002354F8FB
:10813000235001354FEA830045D1A51800F1804056
:1081400085F82430002500F5C04044F82350D0F8CD
:1081500010550B784C7825F499151B04240525F44B
:10816000F85504F4801403F44033C0F81055234349
:108170001402D0F8105504F47C5423432B43C0F868
:1081800010354978012928D104A840F80C2DFFF7B3
:108190004BFF019B9940C0F8081504A840F8042D36
:1081A000FFF742FF039B03F5E073032140F8231020
:1081B000D308114902F0070001228240C85C024343
:1081C000CA54002003E00133082BB0D1042005B0CD
:1081D00030BDFE2083F82400D3E704A840F8082D22
:1081E000FFF722FF029901238B40C0F80C35D4E73A
:1081F0000820ECE7A0340020F534002037B51749FB
:108200000D18044695F82400072809D8FFF732FF17
:1082100095F92430124A03F5A273002042F8230096
:108220000B19FF220F4D83F82420E10804F0070307
:1082300001229A406B5C13420ED002A840F8044D14
:10824000FFF7F2FE019B03F5E073022440F82340A0
:108250006B5C23EA02026A5403B030BDA0340020F4
:1082600000600040F5340020074B184490F924309A
:108270009B0003F1804303F5C043D3F8102542F07F
:108280000302C3F810257047A0340020054B1844A2
:1082900090F924000C308000C0B200F1804000F55D
:1082A000C0407047A0340020054B184490F92400CA
:1082B00018308000C0B200F1804000F5C040704727
:1082C000A03400200A4B1844003190F924304FEAC2
:1082D000830303F1804303F5C04318BF0121D3F8A2
:1082E000102522F4801242EA0152C3F8102570478B
:1082F000A03400202DE9F04788B00024614A624E86
:10830000624D029403940121A2F5C04052F8043B4F
:10831000012B80B206D1D6F804330B4202D0FFF70E
:1083200077FE0C43AA424FEA4101EDD1584B1B683E
:10833000012B0ED14FF4BE70FFF76AFE4FF0A04341
:1083400044F00044D3F810350293524BD3F8103563
:10835000039314F0FF0F30D1002C80F2888004AD1D
:10836000002304936B604C4EDFF828814FF0FF33FD
:1083700006930793012796F95420531C77D0D2B265
:1083800022F0C00408ABE00803EB000A02F007018A
:108390001AF8083C07FA01F10B4268D03319920928
:1083A00093F9243056F82390B9F1000F21D1032A14
:1083B0005DD12B5C0B432B541DE0374F012600256C
:1083C000344210D0AB0003F1804303F5C043D3F82F
:1083D0001005D3F8101557F8253023B1C1F301412A
:1083E000C0F3052098470135082D4FEA4606E7D12E
:1083F000B2E7032ADDD008A840F81C4DFFF714FEB1
:10840000019B03F5E07350F823301AF8180C08426A
:10841000C3F3014305D0022B29D1032A1CD11146F5
:1084200004E0032B23D1032A16D102212046FFF7B3
:1084300007FEB9F1000F1DD14FF0A0430299D3F808
:108440001025D8F81035914217D002920393049A60
:10845000059B069207938EE7B9F1000F07D04FF006
:10846000000A11462046C847BAF1000FE4D108B00F
:10847000BDE8F0874FF0010AF3E703999942F6D07F
:10848000E3E700BF00610040006000402061004061
:108490007C61004000030050A0340020034B18789A
:1084A00010B901221A70704785207047FC340020F3
:1084B00072DF704773DF704774DF7047F0B52F4C81
:1084C000A3B005460E46174600211022204616F09E
:1084D00045F82B482B4A03782B49C3EB431E7244C3
:1084E0000133714403F00103A2601F220370216075
:1084F000A280A28100213C2204A816F02FF80623B6
:1085000001AA8DF813300E9201233C22002113A8FA
:108510008DF80230ADF820308DF83C30ADF80050C9
:10852000CDF824D0ADF80450ADF80870039616F0DD
:1085300015F80223221D21688DF84C3004A800F0A4
:10854000DBF908B114F0B4FB104AA16813A800F0DD
:10855000D3F908B114F0ACFB0D4A08490D48FFF7F8
:10856000A7FF082804D1002204490A48FFF7A0FF0A
:1085700008B114F09DFB23B0F0BD00BF3C350020D6
:10858000FD3400204C350020FE340020483500200A
:10859000682E0020642E0020084B38B1B0F5202F43
:1085A00007D20A22B0FBF2F030B180B29881996014
:1085B00070474FF6FF70F8E70120F7E7682E0020BC
:1085C00008B5064B01211878FFF774FF08B114F0C5
:1085D0006FFB0020BDE8084004F05EBB642E002065
:1085E00008B5054B1878FFF767FF18B1BDE80840DC
:1085F00014F05EBB08BD00BF642E002076DF70471C
:108600007ADF70477CDF704714F052BB03F09CBDEB
:1086100007B503784BB93B214088FFF7EFFF08B35C
:1086200003B05DF804EB14F043BB012B1AD1134BDC
:108630001B685B0416D5124B1B68032B12DD2F2120
:10864000104816F05FF880B12F210E4816F05AF846
:10865000411C0D4B0D4AD3F80435009204206822CA
:1086600005F0DEFC03B05DF804FB5C21054816F064
:1086700049F808B15C21E8E70249EAE7D42E002076
:10868000D02E00208FEC030000100140BFEC03004F
:1086900013B500F02DFC08B114F00AFB02AC002366
:1086A00044F8043D0120214600F04EFB08B114F0CF
:1086B000FFFA204600F0B2FB08B114F0F9FA02B05C
:1086C00010BD00001FB59DF804301748012262F369
:1086D000030304AC62F3071304F80C3D16F00AF828
:1086E000114982B22046FFF78DFF08B114F0E0FA7D
:1086F000082200210DEB020015F030FF7823ADF8C1
:108700000830C823ADF80A300023ADF80C3002A8B9
:108710004FF4C873ADF80E30FFF772FF08B114F0D4
:10872000C7FA04B010BD00BF75EC030030B58BB0C4
:1087300001AD08220021284615F010FF78230024FF
:10874000ADF80430C823ADF806301C224FF4C873CE
:10875000214603A8ADF80A30ADF8084015F0FEFE3A
:1087600040F6CD4304934FF48033059303238DF8F3
:108770001830084B089303A8074B0395ADF81A402F
:108780008DF81C40099300F035FD08B114F090FA03
:108790000BB030BD118602000986020070B5EFF300
:1087A000108672B60C4A946801239CB993600B4BF7
:1087B0000B4DD3F8801029401160C3F88050D3F8D6
:1087C000841051604FF0FF32C3F88420047006B962
:1087D00062B670BD0370FAE7F857002000E100E0D0
:1087E000FC06FFBD10B5084B9A685AB150B9EFF3BB
:1087F000108272B605491C680C605C684C60986019
:1088000002B962B610BD00BFF857002000E100E0D9
:108810006DDF704779DF70477DDF704764DF704739
:108820002DE9F74F0C9CBDF834B027880025804611
:108830008A4691462E46B8F8002096420BDB35B1A9
:108840002288013AD21B92B2FF2A39D8DA55002089
:1088500003B0BDE8F08FD8F8042052F8260001904C
:1088600000220DF1030101A8FFF7D8FF0028EFD186
:108870009DF803204A4521D12288002D14BF0020F5
:10888000022002EB09010144594519DC3DB90132CE
:1088900092B2228003F802A022880132228022882C
:1088A0000DF103011A4401A8FFF7B8FF0028CFD14A
:1088B00021889DF803200A44228001250136BAE769
:1088C0000C20C5E72DE9F341089CBDF8245017465C
:1088D0008DE8300002220646FFF7A2FF48B91022B9
:1088E000394630460995089402B0BDE8F041FFF7DB
:1088F00097BF02B0BDE8F0812DE9F04F0023178843
:10890000138090F82D3085B006460D46144643B3CB
:10891000082F4ED902A8FFF77BFF002840F02081E6
:1089200013880822CA54238801339BB21B22238058
:10893000CA542088013080B2208006220DF109013E
:10894000284415F000FE23889DF8082006339BB2CA
:1089500012F0FE0218BF01222380EA54238801335B
:108960002380B378FBB123880433BB4221D802A80B
:10897000FFF750FF002840F0F38023880322EA54D9
:10898000238801339BB219222380EA542388BDF83F
:10899000082001339BB2E9182380EA54120A4A7076
:1089A000238802332380F278AAB12388D91CB942E4
:1089B00001D90C20D4E00221E954238801339BB271
:1089C00001212380E95423880B449BB22380EA547D
:1089D00023880B4423807268AAB12388D91CB9422A
:1089E000E7D8022192F90020E954238801339BB291
:1089F0000A212380E954238801339BB22380EA545F
:108A00002388013323803389002B40F09D80338AF3
:108A10005BB18DE890002B460722032106F1100080
:108A2000FFF750FF002840F09B80338B5BB18DE84F
:108A300090002B461522142106F11800FFF742FF83
:108A4000002840F08D80326A002A40F08C80D6F8F1
:108A50002480B8F1000F2ED0B8F804302188981C7B
:108A60008A1C0244BA42A4D8FE28A2D803336B540D
:108A7000238801339BB2FF222380EA5423880133E9
:108A80009BB22380B8F80020EA54E918120A4A7011
:108A90002088023080B22080B8F804205AB1D8F87B
:108AA0000810002969D0284415F04DFD2388B8F836
:108AB00004201344238096F82C30002B40F098803B
:108AC000307800284CD03388012B56D021888A1C5E
:108AD000BA423FF66EAF012805D1737802330B44DA
:108AE0009F42FFF466AF023F7F1A04A9BFB221F88C
:108AF000087DA818FFF790FE90BB3378BDF80820DA
:108B0000022B02D07178914202D3BA4240F2B68071
:108B1000012B40F0B08073789F42C0F0AC80ADF87C
:108B200008300821BDF80830FE2B3FF642AF2288FE
:108B30000133AB542288013292B22280A954228898
:108B40001344238000200BE08DE890002B46062282
:108B5000022106F10800FFF7B5FE00283FF457AFE9
:108B600005B0BDE8F08FB4F800E00EF10603BB429B
:108B70003FF61FAF1188052901D80720F0E76FF4F1
:108B8000486C01EB0C039BB24FF27D3C6345F4D97A
:108B90005388052BF1D96FF44860181880B26045EE
:108BA000EBD94FF6FF70814203D0834201D0994246
:108BB000E3D8052305F80E30238801339BB2122138
:108BC0002380E954238801339BB223801188E95420
:108BD000E818090A4170238802339BB22380528827
:108BE000EA54E918120A4A702388023323802EE7D8
:108BF000B36A002BC1D04FF000094FF00C0A4FF0C0
:108C0000160B96F82C305FFA89F293427FF658AF34
:108C1000B16A0AFB02F201EB0208B8F80430981CB2
:108C2000FE283FF6C6AE208803332B542388013339
:108C30009BB2238005F803B0238801339BB22380C5
:108C40008A5AEA54E918120A4A702088023080B21F
:108C50002080B8F804205AB1D8F8081000298CD028
:108C6000284415F070FC2388B8F8042013442380AE
:108C700009F10109C5E7ADF8087052E7092151E78C
:108C800001600B6843604A68934204BF002343605D
:108C90007047436843B1026891680B44436052686F
:108CA000934204BF0023436070474BDF70470000CE
:108CB0001FB50D4C01A8FFF7F8FF70B9214602A8B7
:108CC000FFF7DEFF039B002BF4D001981A68596868
:108CD000904702A8FFF7DDFFF4E7052801D013F065
:108CE000E7FF04B010BD00BFECEC030060DF70478D
:108CF00069DF704761DF704730B5114B1B78A9B051
:108D0000E3B1104D94240DF1020103A8ADF8024027
:108D1000FFF7F0FF70B9294601A8FFF7B1FF029BEA
:108D2000002BF0D003A81A685968904701A8FFF7F4
:108D3000B0FFF4E7052801D013F0BAFF29B030BD29
:108D40008A350020F8EC0300F0B5074685B00D46E3
:108D500000295ED0304B0B600C22002101A815F0D9
:108D6000FDFB012606232A68ADF8083001A9202062
:108D70008DF804708DF80660FFF7BAFF0C22002111
:108D800001A815F0EBFB00242A688DF8056001A905
:108D900040208DF806408DF80740FFF7A9FF0C2210
:108DA000214601A815F0DAFB45232A68ADF8063004
:108DB00001A923208DF80470FFF79AFF0C222146A9
:108DC00001A815F0CBFB2A688DF8044001A93046B4
:108DD000FFF78EFF0C22214601A815F0BFFB4FF4D0
:108DE000B0632A68019301A9A120FFF781FF0C223B
:108DF000214601A815F0B2FB9DF804302A683343E0
:108E000001A9A0208DF80430FFF772FF204605B0BD
:108E1000F0BD0E20FBE700BFA02D002008B5FFF736
:108E200065FF10B9014B01221A7008BD8A35002078
:108E300010DF704711DF704713B5044609496846D3
:108E4000FFF71EFF019808B902B010BD0368416822
:108E50002046984718B16846FFF71BFFF2E711203C
:108E6000F2E700BF08ED030013B504460749684662
:108E7000FFF706FF019B0BB902B010BD20461A6830
:108E8000596890476846FFF704FFF3E720ED0300B9
:108E9000064B9A6822B11A6822F480021A60704761
:108EA000034B4FF48002C3F880207047F85700202E
:108EB00000E100E00C4991F816335A09EC23134104
:108EC000DB0708D442F2020013F0F2BE1A6842F443
:108ED00080021A607047054B9A68002AF6D14FF459
:108EE00080030B60704700BF00E100E0F8570020EE
:108EF000F7B5184F3C785CBB174E012520463570FE
:108F0000FFF79AFF112820D02046FFF7ADFF134B43
:108F10001868019002A800F8054DFFF73FFC1049C2
:108F200001A8FFF785FF0446B0FA80F040093870C9
:108F30009DF80300FFF756FC3CB90A4B34701C70D7
:108F4000FFF7B8FF2846FFF78FFF204603B0F0BDBC
:108F50000824FAE78C3500208B35002004ED03004F
:108F6000759202008D350020F7B5154F3B7813B38D
:108F7000144E01203070FFF75FFF11284FF00005FD
:108F80001BD00220FFF770FF02A800F8015DFFF779
:108F900005FCFFF74FFF04469DF807003D70FFF703
:108FA00021FC2CB93470FFF773FF0320FFF75CFF3F
:108FB000204603B0F0BD0824FAE72C46F8E700BFCE
:108FC0008C3500208B35002007B508496846FFF72F
:108FD00057FE019B13B903B05DF804FB58681A688B
:108FE00090476846FFF755FEF3E700BF14ED030016
:108FF000FFF7EABF75DF704776DF70477ADF7047AB
:109000007BDF7047034B1A8882420CBF1846002052
:10901000704700BFAC350020024B9B6903B1184775
:10902000704700BF9035002037B585B22846FFF75E
:10903000E9FF034670B1164C017A227B91420BD2B4
:1090400000F10A012846FFF7D5FFE8B1112801D049
:10905000FFF7E2FF03B030BD237C0022027243B170
:109060003B212846FFF7C8FF30F0080301D0FFF787
:10907000D3FF6369002BEDD000228DF80420ADF8FA
:10908000065001A89847E5E71A7A01321A72E1E71B
:109090009035002013B50B46497A0F4C024669B94A
:1090A000A06861681C7A002C18BF0146586811F04E
:1090B0008FFB08B1FFF7B0FF02B010BD002119729D
:1090C0006369002BF8D00121ADF806008DF804107B
:1090D00001A89847F0E700BF9035002030B583889D
:1090E0000588B3F5FA7F24BF6FF4F9729C184A889B
:1090F00038BF002495420CD84088904209D38A8812
:10910000A24206D303F2F310904234BF00200120A4
:1091100030BD002030BD000070B50388112B014622
:109120002ED002D8102B05D070BD122B51D0502B51
:1091300035D070BDC37B012B4AD14FF6FF70FFF7CE
:1091400061FF054620B90420BDE87040FFF764BF09
:109150008E88264A0680002303721368C5F80A30F9
:109160000A30536843601031FFF7B8FF204B687234
:10917000DB896BBB29463046BDE87040FFF78ABFEC
:109180008088FFF73FFF044610B3406811F066FB8C
:1091900008B1FFF741FF4FF6FF73238070BD144BFA
:1091A000C288DB899A4213D1038A022B10D18688A8
:1091B0003046FFF727FF054650B101F1120000F0DD
:1091C00053F80028D6D1686811F048FB0028BBD1BD
:1091D00070BD86883046FFF715FF05460028F7D09A
:1091E00008310A30FFF77AFF6872C3E7C035002004
:1091F00090350020F8B5064650B305460FCD154F03
:109200003C460FC495E8070084E807003068124B1D
:109210003B60B8B1FFF7F2FED8B931680A681A604E
:109220004A685A600D480E4A4FF6FF7303800D4B93
:1092300040F8043F002111F0B9FA002814BF0320C0
:109240000020F8BD1846FFF7DBFE0028EAD0F8BD85
:109250000E20F8BD90350020C0350020AC35002030
:1092600029900200C8350020007800F00100704706
:109270000620704730B541F20103984287B00D4691
:109280001446744B00F083801FD8012847D01B6818
:109290005B0460D5704B1B68002B5CDD2F216F4891
:1092A00015F030FA002800F0C9802F216B4815F026
:1092B00029FA411C6A4B6B4AD3F804350092019598
:1092C0007B22012004F0ACFE45E044F20102904212
:1092D00000F0898044F202029042D8D11B68590400
:1092E00039D55D4B1B68002B35DD2F215B4815F010
:1092F00009FA00286ED02F21584815F003FA411CB6
:10930000574B2288D3F80435039262680292564A7A
:10931000009201956C22012004F082FE1BE01B6884
:109320005B0418D54C4B1B68002B14DD2F214B48D8
:1093300015F0E8F910B32F21484815F0E3F9411C66
:10934000474B4A4AD3F804350092029401956022B3
:10935000012004F065FE4FF0A0434FF4F032C3F853
:109360001825C3F80C25EFF3108372B64DF6AD6CDB
:109370003F4A1378002B6AD107B030BD5C213748D3
:1093800015F0C0F908B15C21D6E73449D8E71B686D
:109390005804E0D5304B1B68002BDCDD2F212F4813
:1093A00015F0B0F968B12F212C4815F0ABF9411C2C
:1093B0002B4B304AD3F80435009202940195632276
:1093C000C6E75C21254815F09DF908B15C21EBE763
:1093D0002249EDE75C21214815F094F908B15C21A0
:1093E0008AE71E498CE71B685A04B4D51A4B1B68E0
:1093F000002BB0DD2F21194815F084F9A8B12F21D9
:10940000164815F07FF9411C154B2268D3F8043536
:109410000492626803920295A2680192164A009231
:109420000120772204F0FCFD95E75C210B4815F044
:1094300069F908B15C21E3E70849E5E75C210748E1
:1094400015F060F908B15C2130E7044932E730BF1C
:109450008FE700BFD42E0020D02E00202CED03007B
:1094600000100140D0ED030090ED030054ED030027
:10947000802E00206EED0300AFED030007B5002342
:10948000ADF800300146054B01936A4644F20200F4
:10949000FFF7F0FE03B05DF804FB00BFF8EA03003D
:1094A00001461022014815F04EB800BFE8350020F3
:1094B00010B50B4C0B490822204615F044F8082241
:1094C000A018094915F03FF8E379042262F3071365
:1094D000E371237A022262F38713237210BD00BF67
:1094E000E835002060000010A4000010004870471C
:1094F000E8350020002306491A46C8184280426019
:109500005A540833B3F5807FF7D1024B1A60704785
:10951000F8350020F8360020F0B50C4B0C4C1B68D9
:10952000064620227BB1013B14F8330050B104EB16
:10953000C3056F88B74202D16D688D4202D0013AEF
:10954000F0D11046F0BD1F23EEE700BFF836002033
:10955000F835002030B5084A084C136804EBC30501
:109560006960012104F833100B44202B08BF00234D
:109570006880136030BD00BFF8360020F835002049
:10958000C0F30C038B42084438BFA0F50050C01A4A
:1095900070470000F0B50E4B0E4C1F680022BA4217
:1095A00013D0D10063185E6800230AE0655805EB0C
:1095B000C30E15F83350854202D1DEF80400F0BD29
:1095C0000133B342F2D10132E9E70020F0BD00BF20
:1095D000FC3600200037002000B58DB040B99A1C41
:1095E00006D0012201A88DF80420029301F026F98B
:1095F000034B186803F050FD0DB05DF804FB00BF8D
:109600000837002010B50378044613B97846FFF7F1
:1096100035FFE079431C01209840013810BD00005F
:10962000F8B5037804460F4613B97846FFF726FFCE
:109630000B4B0C4E1A68511C02F0070206EBC205D8
:109640001960A38A6B80A188A069FFF799FF686001
:10965000E36906F8327003F001036B70F8BD00BFD8
:109660004C3700200C3700202DE9F0410E468EB01B
:1096700015461C46074610B97846FFF7FFFE16B997
:109680007846FFF7FBFE14B97846FFF7F7FE636AEA
:10969000627802330593A378A2F10800002B14BF6F
:1096A000012102210DF1040842424241434604F1E6
:1096B0000C0003F024FE63788DF83430237BADF882
:1096C0002050022B16FA85F5CDF8188007970B96D7
:1096D0000C950FD1236913B97846FFF7CFFE2369A4
:1096E0000993102305A8ADF8283003F004FE0EB04E
:1096F000BDE8F0810023F5E738B5044604F13005F4
:10970000C06E07F066F9284602F067FF10B12846E0
:1097100002F030FF94F84830022B08D104F15005D4
:10972000284602F05AFF10B1284602F023FF2046D7
:109730007022002114F012FF002084F84800BDE8D8
:10974000384002F07BB810B590F84830012B8CB04F
:10975000044602D07846FFF791FE01238DF80430CD
:1097600001A8636D029301F069F82046FFF7C4FF7A
:109770000CB010BD4B1E012B2DE9F0470746884663
:10978000914602D97846FFF779FEB9F5C07F02D934
:109790007846FFF773FE264B002570229A4602FB9F
:1097A000053494F848603EB9484607F010F9E06681
:1097B00030B90020BDE8F0870135042DEFD1F8E77E
:1097C00030223946204614F0BEFEE664A4F84A90E2
:1097D000B988B869FFF7D4FEB8F1010FA0611CD1B8
:1097E000144B84F852601B7D84F8513084F8536028
:1097F00084F85060BB6A63656FF00103A3620E4B8F
:10980000A3632464012002F019F8702303FB05A56B
:10981000204685F84880BDE8F0876FF00103A36219
:10982000064BA36584F868602466054BE8E700BF33
:109830006837002050370020019C0200B9A70200C1
:10984000F99B02001FB500220B468DF80F2028B3AC
:109850000230086018460DF10F0103F04EFD9DF82F
:109860000F30DBB1144B1B685B0717D5134B1B681C
:10987000032B13DD2F21124814F044FF98B12F2140
:109880000F4814F03FFF411C0E4B0F4AD3F804352C
:109890000092042040F2A63204F0C2FB9DF80F00B3
:1098A00005B05DF804FB5C21054814F02BFF08B1FE
:1098B0005C21E5E70249E7E7D42E0020D02E002006
:1098C00020EE0300001001403DEE03002DE9F047BB
:1098D00099461378D2F81880F2B007468A461446A3
:1098E00023B191884046FFF74BFE9061A3786278E0
:1098F000002BA2F1080003AD14BF0121022104F1E5
:109900000C06424242412B46304603F0F8FC627896
:1099100008951FFA8AF5AB1A9BB20997ADF8283063
:109920001F440023ADF83030237B8DF83C20022B00
:1099300004BF1022ADF83020A2780E9712AFC4F801
:1099400018800D9704F12408002A5ED04FF0000A19
:10995000237BC4F824A0022B04BF23690B93206A45
:10996000E178424610F028FB606A40BB237B022B63
:1099700005D13146E08910F0E1FB0028E8D1354BF4
:109980001B685B0718D5344B1B68052B14DD2F2192
:10999000324814F0B7FE002852D02F212F4814F07F
:1099A000B1FE411C2E4B2F4AD3F8043500920620FD
:1099B00040F2196204F034FB72B0BDE8F08707A9E9
:1099C000FFF740FF0028CAD06178A28AADF82A20AC
:1099D0006D1A01218DF8281096E8030000230B93DF
:1099E0008DF81C300CAB83E80300A37D8DF840306C
:1099F000236A0E9307A8636A0897ADF824500F9363
:109A0000CDF8449000F01AFFD6E7012B62620CD02B
:109A100000234146A08A636210F012FB07A9606A26
:109A2000FFF710FF0028AAD0CEE74146E08910F0EA
:109A300007FB07A9606AFFF705FF0028E8D0C3E726
:109A40005C21064814F05EFE08B15C21A6E70349DC
:109A5000A8E700BFD42E0020D02E002020EE030067
:109A60000010014074EE0300C37D0A7830B5002B6E
:109A70003DD0837822F07F0203F07F031A430A70FF
:109A80000B78027803F07F0343EAC2130B7003786C
:109A900063B34378083B5A425A414B7803F07F0343
:109AA00043EAC2134B708A78858802F00302C5F33B
:109AB000861442EA850223F07F032343D2B28A70E0
:109AC0004B70CB78857903F01F03C5F3C10422F0F6
:109AD000030243EA45132243DBB2CB708A70C2799A
:109AE00023F01F0302F01F021343CB7030BD8378B5
:109AF0009B0122F0400203F0400313430B70C27835
:109B000023F03F0302F03F0213430B70B8E700005D
:109B100038B590F84830012B044602D07846FFF75C
:109B2000ADFC02F073FD237B084A012B03BFA37D2C
:109B30001569D168D16808BF05FB0311014404F120
:109B40003000BDE8384002F02CBD00BF5037002087
:109B500070B50D4690B0044610B97846FFF78EFCFC
:109B600000212046FFF75CFD2C22002105A8666D30
:109B700014F0F4FC102305A88DF8143006968DF827
:109B80001C5000F05BFE2046FFF7B6FD154B1B682E
:109B90005B071BD5144B1B68032B17DD2F211348C4
:109BA00014F0B0FDA0B12F21104814F0ABFD411C02
:109BB0000F4BD3F80435029594F8482001920D4AD2
:109BC0000092042040F2EF1204F02AFA10B070BDA7
:109BD0005C21064814F096FD08B15C21E4E70349D6
:109BE000E6E700BFD42E0020D02E002020EE030098
:109BF00000100140EFED030008460021FFF7A8BF69
:109C000010B591F84830012B0C4602D07846FFF78A
:109C100035FC94F851305BB1013B84F8513000239E
:109C200084F85030084BBDE81040186803F034BA8F
:109C3000217B0129204603D1BDE81040FFF788BFF2
:109C4000BDE81040FFF77FBD083700202DE9F04F39
:109C5000044689B00F4609B100230B6004F10C03E0
:109C600094F8505001934FF001084FF0000BE27947
:109C7000954203D9002009B0BDE8F08FE16C08FAE5
:109C800005F30B425BD1E37DA571002B0CBF0C26C5
:109C90000826954206FB05FA237808BFB4F84A6007
:109CA0008DF819B008BFA6EB0A06002B14BF4FF0C1
:109CB00004094FF0010906EB09030593019B039387
:109CC000A36A049303A894F82C308DF8183003F09D
:109CD000B2FC0028CFD1079B994445B994F8533082
:109CE0002BB9A36984F85380C3F30C03A380E37DED
:109CF0008BB994F8523073B915B17846FFF7BEFBB3
:109D0000B4F84A1062788A1AE16E23460846FFF7D3
:109D1000ABFC84F8528007992046FFF7A5FEE16E60
:109D200032465144484614F00EFC03A803F09FFC51
:109D300017B13B6801333B606B1C84F85030013530
:109D4000EDB294E72DE9F041D47D8AB006460F4686
:109D500015469846002C00F092809478002C6BD128
:109D600006294AD1027843788178920102F4FE52A2
:109D700042EA9302C3781B0443EA016341790B432F
:109D8000017943EA01233F49084691F84860012ED2
:109D900012D18F8AEE89B7420ED18E8896420BD1AE
:109DA000702202FB0404E56C1D43E5648BBB0321B8
:109DB0002046FFF7CDFE20E00134042C01F17001B4
:109DC000E3D1314B1B685B0717D5304B1B68012B68
:109DD00013DD2F212E4814F095FC88B12F212C483B
:109DE00014F090FC411C2B4B2B4AD3F80435009205
:109DF000022040F2A75204F013F90AB0BDE8F08146
:109E00005C21234814F07EFC08B15C21E7E720497F
:109E1000E9E72046FFF7F6FB854203D12046FFF72E
:109E200092FCEAE7002184F850102046FFF70EFF6D
:109E30002046FFF76DFEE0E72046FFF7ABFB034649
:109E40000028DAD005F10C012A6A089203C9AA8A0F
:109E5000ADF8162006AA82E80300AA7D8DF824201A
:109E60002A788DF8142095F82C208DF80840039658
:109E700004978DF82520414602A89847BDE7FFF7D3
:109E800025FDBAE768370020D42E0020D02E002010
:109E900020EE0300001001409DEE0300F0B5C37DED
:109EA00015464278002B2A4414BF4FF480734FF4B8
:109EB000C0739342C7B00E4677D33F4B03F5E071B2
:109EC00093F84840012C07D19F8A848AA74203D186
:109ED000DF89C489A7426AD070339942F0D1012149
:109EE000FFF748FC0446002863D02A463146C06E7E
:109EF00014F029FB002304A920460493FFF7A6FED3
:109F000030F0040506464BD1049B13B12046FFF701
:109F1000FFFD2A4B1B685B0728D5294B1B68032BC9
:109F200024DDB4F84A10274B8029186828BF802107
:109F3000002305AE8B421CD100222F21224806F8B7
:109F4000132014F0DFFB10B32F211F4814F0DAFBAD
:109F5000411C1E4B1E4AD3F8043501921D4A009243
:109F6000029640F2D142042004F05AF8284647B045
:109F7000F0BDE26ED25C170902F00F02C75D06F871
:109F80001370875C06EB430201335770D2E75C2104
:109F90000D4814F0B7FB08B15C21D6E70A49D8E7B1
:109FA0002046FFF7A9FB3546E0E70925DEE708254F
:109FB000DCE70425DAE700BF68370020D42E002054
:109FC000D02E0020D82E002020EE030000100140EB
:109FD00012EE03002DEC03002DE9F041044686B09B
:109FE000808A0F46164601F0D3FE01284DD1237B0F
:109FF000002B4AD0022B02D12369002B45D094F9C3
:10A000001630002B43DB22784AB1324639462046CF
:10A01000FFF744FF0546284606B0BDE8F081E17D24
:10A0200063780029334414BF0B210F218B422AD8B7
:10A030000133039304F10C030193A36A029301A873
:10A0400094F82C308DF810308DF8112003F0F3FACD
:10A0500005460028DFD10599204601F10108FFF7E8
:10A0600003FDE37D43B132463946404614F06BFAB6
:10A0700001A803F0FCFACEE72346324641463846B3
:10A08000FFF7F2FAF4E70925C5E71025C3E707252E
:10A09000C1E7000010B54FF4E0720021144814F03D
:10A0A0005DFA002404F050FF124B13481C60214657
:10A0B000402214F053FA114B1148124A12499C7570
:10A0C00083E805004CF250329A601A6104221A7536
:10A0D0000E48D96008225A7502F0C0FF0C4B186078
:10A0E0000C4B0D481C60BDE8104005F02FB800BFB8
:10A0F000683700204C3700200C37002050370020F4
:10A1000080969800F049020020A1070015A30200E4
:10A1100008370020FC360020D995020004F0B0BEBC
:10A12000F0B504468DB000284FD00569002D4CD005
:10A13000C369002B49D08669002E46D05A788DF825
:10A1400003201A780993037BC17A022B04BF214BA9
:10A150009B7D002B82F0010214BF082304238DF89D
:10A1600002208DF80130828AC3F10F0019B98242B2
:10A1700001DC082B2BD08242C8BF01218DF80010D2
:10A1800051B113440B330C2193FBF1F3013B8DF8D8
:10A19000073000238DF8063094E8030003AF87E80A
:10A1A00003002189ADF81410A17A8DF81610216AE8
:10A1B0000A910023294668468DF8173008968DF8D5
:10A1C0002C30FFF709FF0DB0F0BD0E20FBE7072094
:10A1D000F9E700BF50370020F0B503468DB00F46B9
:10A1E00000283DD04468002C3AD08569002D37D036
:10A1F000027C12F0FD0F35D00278110634D48DF8B0
:10A20000022082680B2A98BF007B4FF0000188BFB4
:10A21000012009918DF800008DF8011030B1D01D9A
:10A22000C00801388DF807008DF8061001218DF85F
:10A23000171003F1100103C903AE86E80300D989A2
:10A24000ADF81410197F8DF816105B7F0895214624
:10A2500068468DF82C300A97FFF7BEFE0DB0F0BDB2
:10A260000E20FBE71020F9E70720F7E7F0B5077BA2
:10A27000012F8DB004460D4647D101AE0B220021BF
:10A28000304614F06BF9A1889DF804208DF8095030
:10A29000C1F3861322F07F021A439DF805308DF832
:10A2A000042003F0030343EA81038DF805302B0EED
:10A2B0008DF806302B0C8DF807302B0A8DF80830FE
:10A2C00006230693A38AADF82230002309938DF864
:10A2D00010308DF81C30E389ADF81E3094F82C3026
:10A2E0008DF82D30A37D226A8DF8207005960A9294
:10A2F00043B96FF0010104A88DF82C30FFF76CFF13
:10A300000DB0F0BD024B5B7DF3E70020F8E700BF26
:10A3100050370020F7B500241D4E2746351995F813
:10A320004830012B0BD101A928460197FFF78EFC7D
:10A33000042801D0019B13B12846FFF7E9FB7034D4
:10A34000B4F5E07FEAD1124C04F5E07594F848309A
:10A35000022B17D194F86830022B13D1E16C204600
:10A36000FFF784FF70B984F868002046E66CFFF7B9
:10A3700049F9864206D120460121FFF751F92046CE
:10A38000FFF7BAF97034AC42E0D1012003B0F0BD60
:10A39000683700202DE9F0470D469CB014469846DA
:10A3A0000646002800F0ED81002A00F0EA810DF158
:10A3B0000C0900210822484614F0D0F8494660886C
:10A3C0000FF0BCFE20B9002738461CB0BDE8F0876E
:10A3D0002269E168208904F081FD82460028F2D1DB
:10A3E0002269E168208904F053FD0746A8B12C22B8
:10A3F000514610A82589247C14F0B0F80F238DF85D
:10A4000040309DF84630ADF8445064F3000310A886
:10A410008DF8463000F012FAD6E70DF14C0A1822FA
:10A420002146504614F08FF8337803F08002111C57
:10A4300018BF01218DF840109DF85710E1B103F0CD
:10A440007F038DF842308DF841705AB37278B3783B
:10A45000920102F4FE5242EA9302ADF84420DB007E
:10A46000F27803F0180343EA521302F01F028DF84A
:10A4700046308DF8472015E0C3F380118DF8421067
:10A4800003F03F018DF84310190608D596F9013005
:10A49000002BACBF042308238DF84130D5E70423FB
:10A4A0008DF841300023199398F80030052B02D91C
:10A4B0007846FEF7E3FF98F80030B54A99E80300C4
:10A4C000D35C8DF86C308AE8030002F057FD9DF8EC
:10A4D0004030002B00F04E81AE4BBDF854200024DC
:10A4E000194693F8480002280DD1988A90420AD163
:10A4F000702303FB0414BDF84420A3889A4230D291
:10A5000002F07CFD60E70134042C03F17003E8D114
:10A5100000249DF8403013B97846FEF7AFFF179B33
:10A52000BDF844101698BDF854A003F00109FFF7D8
:10A5300027F8994B00229E465968884217D15988BE
:10A54000514514D15978494511D11EF83230002BAC
:10A55000D6D010A8FFF756F8014610A8FFF786FEE0
:10A56000CEE7D6D905212046FFF7F2FAD0E701322F
:10A57000082A03F10803DFD1002C51D19DF85720A0
:10A580009DF84730002A0CBF0C24082403FB044428
:10A590000CBF4FF4C0734FF480739C4226D97F4B9D
:10A5A0001B685A07ACD57E4B1B68002BA8DD2F21FA
:10A5B0007C4814F0A7F880B12F217A4814F0A2F853
:10A5C000411C794B794AD3F804350092019440F24A
:10A5D0003632012003F024FD92E75C21714814F02B
:10A5E00091F808B15C21E8E76E49EAE722460221CA
:10A5F00010A8FFF7BFF8044690B9014610A8FFF76E
:10A6000035FE2C22214605A813F0A8FF10238DF853
:10A61000143005A802238DF81C3000F00FF96FE705
:10A620005E4B1B685B071CD55D4B1B68032B18DD5D
:10A630002F215C4814F066F8002800F08A802F2152
:10A64000584814F05FF8411C574B9DF84620D3F84A
:10A6500004350192564A0092042040F2513203F030
:10A66000DFFC94F84830022B02D07846FEF706FF54
:10A67000DFF84091D9F800A001F0C8FF0AEB000113
:10A6800004F1300001F08DFF237B012B1CD194F8E5
:10A690006830CBB994F84830022B02D07846FEF7E8
:10A6A000EDFED9F8043099F81510D9F8082002FB0E
:10A6B000013901F0ABFF00EB090104F1500001F09A
:10A6C00070FF012384F868309DF84630E16C01206A
:10A6D000984001427FF414AF0143E164E17999426B
:10A6E000A5F104029DF857103CD1002914BF0821A0
:10A6F0000C2103FB0121E56EA4F84A100CBF0C20CD
:10A70000082000FB0350311D13F01DFF2046E56CAF
:10A71000FEF778FF85427FF4F3AE022384F86830B9
:10A72000E16C2046FFF7A2FD434605462246B4F8F9
:10A730004A10E06EFFF706FB002D7FF4E1AE2046E5
:10A7400084F868500121FEF76BFF2046FEF7D4FF26
:10A75000D6E65C21134813F0D5FF08B15C216FE702
:10A76000104971E779B90C2A0EE004212046FFF761
:10A77000EFF9C5E6434610AA691E701CFFF7E2FA1E
:10A78000BEE60E2720E6082AEFD1E56E1046B8E7B0
:10A79000E9ED0300683700200C370020D42E00209C
:10A7A000D02E002020EE03000010014050EE0300E8
:10A7B00064EE03005037002010B591F84830022BAA
:10A7C0000C4602D07846FEF759FE022384F8683022
:10A7D000E16C2046FFF74AFD08B984F8680010BD17
:10A7E0002DE9F04188460746E8B1124E3468C4B9F5
:10A7F0002546454507D1104B1F605D60012333603E
:10A800002046BDE8F08107EBC5035B685BB117F834
:10A810003500030609D450B1FEF7BCFE38B9013546
:10A82000E7E70424ECE70E24EAE70B24E8E70F242B
:10A83000E6E700BFFC36002000370020F8B50746E9
:10A8400010B97846FEF71AFE0F4E346894B10F4DDA
:10A8500001232B7023791BB954F8043C38469847E0
:10A860002468002CF6D12B78022B03D13168064CDA
:10A8700009B92970F8BD0B790E6813B1204603F0B1
:10A8800057FB3146F4E700BF2C390020283900205F
:10A8900010B5044610B97846FEF7F0FD0023237288
:10A8A000211D0248BDE8104003F021BB2C390020D7
:10A8B00010B5044610B97846FEF7E0FD074A137854
:10A8C000013B012B04D8022313700123237210BD16
:10A8D000211D0348BDE8104003F02ABB28390020A1
:10A8E0002C3900200B888268D25A073222F00302EA
:10A8F000134402889BB2043A934288BF00230B8022
:10A90000704713B58368CB1A02A921F8023DFFF7FF
:10A91000E9FFBDF806308068184402B010BD70B57C
:10A92000064615460C4611BB7846FEF7A7FDFEB15C
:10A930007846FEF7A3FD6B1E2344B3F1005F34D9C4
:10A940004FF08052D2F80C2102F50022B3EB822F97
:10A950002ED2042D02D87846FEF790FD35800023D4
:10A96000043D7380B380B4602580A37070BD10B9BE
:10A970007846FEF783FDB4F1005F12D94FF08053A3
:10A98000D3F80C3103F50023B4EB832FD3D34FF06E
:10A990008053D3F80C3103F50053B4EB832FC7D2A7
:10A9A000C9E7B4F5000FF2D8C2E7B3F5000F08D934
:10A9B0004FF08052D2F80C2102F50052B3EB822FF7
:10A9C000C7D37846FEF75AFDC3E738B5044610B939
:10A9D0007846FEF753FD6288A36813449B78012BE9
:10A9E00002D17846FEF74AFDEFF3108572B6A268F1
:10A9F000A18811448B78032B0AD12046FFF781FFF1
:10AA0000A368C31A63800023837005B962B638BD9A
:10AA1000002393706380A380F7E7F8B50E461546D0
:10AA2000044610B97846FEF729FD16B97846FEF7B8
:10AA300025FD6288A36813449B78012B02D17846D8
:10AA4000FEF71CFD002D37D02388043B9BB29D42AE
:10AA500032D8EFF3108772B66188A388EA1D22F01E
:10AA60000302994292B206D25B1A9A4212DD042086
:10AA700027BB62B6F8BD16D92088401A904209D289
:10AA80009A42F4D8032881BFA3685B1804229A7005
:10AA9000002363806288A1688B188D5201229A700E
:10AAA00000203360E4E7A26813449B78002BDED1DA
:10AAB00093706380A380EDE70920F8BDF8BDF8B579
:10AAC0000D461646044610B97846FEF7D7FC15B970
:10AAD0007846FEF7D3FCAB78012B02D07846FEF720
:10AAE000CDFC2B88B34202D27846FEF7C7FC16B9DC
:10AAF0007846FEF7C3FCEFF3108772B60223AB7003
:10AB0000E1182E802046FFF7EDFE6288A38893426D
:10AB10001FBFA3689B1800229A7007B962B6F8BDE0
:10AB200070B50D46044610B97846FEF7A7FC15B976
:10AB30007846FEF7A3FCEFF3108672B6A288A368EE
:10AB400013449A78042A06D1211D2046FFF7CAFE35
:10AB5000A288A36813449A78022A03D0032A08D053
:10AB6000052003E003229A702B60002006B962B62C
:10AB700070BD7846FEF782FCF7E738B5044610B999
:10AB80007846FEF77BFCEFF3108572B6A088A168CB
:10AB900001448B78042B03D12046FFF7B2FE014617
:10ABA0008878831E5842584105B962B638BD38B519
:10ABB000044610B97846FEF761FCEFF3108572B6D3
:10ABC000A088A16801448878C31E012B05D9831E83
:10ABD0005842584105B962B638BD2046FFF791FE8C
:10ABE0000146F0E7F8B50D46044610B97846FEF781
:10ABF00045FC15B97846FEF741FCEFF3108672B6B6
:10AC0000AB78012B19D0032B22D1A288A36813445F
:10AC10009D4202D07846FEF731FC0027AF70211D1F
:10AC20002046FFF75FFEA288A36813449B78042B9D
:10AC300000D1A78006B962B6F8BD6288A368134444
:10AC40009D4202D07846FEF719FC0023AB70F1E775
:10AC50007846FEF713FCEDE710B5EFF3108472B6FB
:10AC60008288816811448B78042B02D1FFF749FE5A
:10AC700001468878B0FA80F0400904B962B610BD88
:10AC8000037942799B1A03F57F2303F6FF7300EBE8
:10AC90000330704710B5054884681C22002113F06A
:10ACA0005DFC2046BDE8104003F040BF3039002075
:10ACB00070B51C4CE36813B97846FEF7DFFB237EC2
:10ACC00013B17846FEF7DAFB6368092B02D97846A0
:10ACD000FEF7D4FB144D0026636855F823309847DF
:10ACE000022811D003280DD0012815D16368013343
:10ACF000092B636002D97846FEF7C0FB237E002B48
:10AD0000EAD00DE06660F9E7237E0BB1207070BDDC
:10AD1000BDE87040FFF7BEBF00F0FD000128EDD098
:10AD200070BD00BF30390020CCEE030010B50388A1
:10AD3000044613B97846FEF7A1FB2088074B04EBC5
:10AD4000800030EA030203D06288B2F5FE4F04D1DE
:10AD50001C4004F580542078204410BD00F0FFFF13
:10AD600070B504460E4647F6FE65FFF7DFFFB042BA
:10AD700007D2844205D24388013B9BB2AB42F4D850
:10AD800070BD002070BD00000B78032B094B04BF81
:10AD900000221A761A78012A03D11B7E43B9FFF7E5
:10ADA00087BF022A04D10B78032B01D1FFF772BFB2
:10ADB000704700BF3039002010B50C4CE36818789C
:10ADC000002203F58051184404F084F950B9E16879
:10ADD0000846FFF755FF814206D001F58051E1603A
:10ADE000032010BD012010BD022010BD303900200D
:10ADF0001FB50A4B02221B688DF800200193084AF8
:10AE00004FF4805369460120029300F001FFB0FA2D
:10AE100080F0400905B05DF804FB00BF5039002008
:10AE20004C3900201FB5012301900391029269461D
:10AE3000044A8DF80030184600F0EAFE05B05DF8CF
:10AE400004FB00BF4C3900202DE9F047264BD868A1
:10AE500002794179013A91421E4603D10120587688
:10AE6000BDE8F08700F5805320491C781C440B682E
:10AE700013F8045F1D44FFF703FF6388013B9BB297
:10AE800047F6FE62934200F58057884604D9204673
:10AE90003946FFF765FF0446DFF854A04FF001097B
:10AEA00034B9B4FA84F4640974760120BDE8F087FB
:10AEB000D8F800106288284601F5805104F00AF99C
:10AEC00005460028EDD004225146204686F8189009
:10AED000FFF7A8FF28B920463946FFF741FF04468F
:10AEE000DEE70020BDE8F08730390020503900202F
:10AEF0006CF0030038B5104CE36818784FF6FF7219
:10AF000003F58051184404F0E5F888B1E368197836
:10AF10000B4498420CD0657E084B09490422002D51
:10AF200008BF1946FFF77EFF20B90120207638BD03
:10AF3000012038BD002038BD3039002070F00300FA
:10AF400074F0030070B50C4D0C4EE96830680C7855
:10AF500004302246FFF766FF58B9336804F0FC045A
:10AF600004341C44EB686C611A7813442B61012093
:10AF700070BD002070BD00BF303900205039002066
:10AF800008B5054B054918680422FFF74BFFB0FAD6
:10AF900080F0400908BD00BF503900203C39002036
:10AFA00010B5074B074C1968E06840F6FC72043195
:10AFB000FFF738FF10B90120207610BD002010BD2A
:10AFC000503900203039002010B50C4CE16808469B
:10AFD000FFF756FE81420AD1094B0A49186804223C
:10AFE000FFF720FF40B901232376022010BD01F5B1
:10AFF0008051E160032010BD002010BD30390020D9
:10B0000050390020543900202DE9F74F334C236983
:10B0100013B97846FEF732FA636913B97846FEF73A
:10B020002DFADFF8BC9047F6FE6A63692769E0688D
:10B0300003EA0908A8EB0308FFF722FE7B88013B1F
:10B040009BB2534508F5805800F5805B06D9384619
:10B050005946FFF785FE0746002837D03D460026B3
:10B060005D4519D22A8806EB8202904509D987EA04
:10B07000050313EA090F04D16B88013B9BB25345CA
:10B0800002D956B901231AE028460192FFF74EFE75
:10B09000019A05461646E3E7F6B13246394660693D
:10B0A000FFF7C0FEA0B9636926F00306334463616D
:10B0B00015B97846FEF7E2F92561002335B16988B4
:10B0C00047F6FF72914201D0002BAED0012000E084
:10B0D000002003B0BDE8F08F0123EFE730390020F6
:10B0E00000F0FFFF1FB50A4B0222DB688DF800203D
:10B0F0000193084A4FF4805369460120029300F0FF
:10B1000087FDB0FA80F0400905B05DF804FB00BF90
:10B11000303900204C39002010B54FF010235A6907
:10B12000013225D05A691AB35B69A3F58053A3F5A0
:10B130008053174A196813604B1E033325D8C1F397
:10B140000B0313BB134A1448D1600121117013493A
:10B1500013765376936051F8234084420ED15360A6
:10B160000F49012000F044FDFFF7A2FD012010BDB2
:10B170004FF08052516913694B43D8E701330A2BD2
:10B18000E9D17846FEF77AF9EAE7002010BD00BF62
:10B190005039002030390020E5B00200CCEE030029
:10B1A00089AD020010B5044610B97846FEF766F97D
:10B1B000094B187870B1E068D9684379A0EB033384
:10B1C000994206D3FFF75CFD81428CBF002001202D
:10B1D00010BD002010BD00BF30390020024B187890
:10B1E000003018BF012070473039002038B50E4CB0
:10B1F0002378054613B17846FEF740F92B78032BE8
:10B2000002D07846FEF73AF9EB68E36001200023AC
:10B210000649A560636023762070637600F0E8FC41
:10B22000BDE83840FFF744BD3039002089AD020049
:10B23000014B1868704700BF5039002010B5044614
:10B2400010B97846FEF71AF963681BB123680BB191
:10B25000A36813B97846FEF711F9A3685A1E1A427B
:10B2600002D07846FEF70AF90023E360236110BD9F
:10B2700070B50E460446F0B18368F3B1EFF3108564
:10B2800072B60169C368994203D105B962B6052552
:10B290000FE04EB18368013B0B4090E8060030465A
:10B2A00002FB031113F04FF923690133236135B910
:10B2B00062B6284670BD0E25FBE70925F9E7002593
:10B2C000F7E70000024AD2F80034002BFBD07047A9
:10B2D00000E00140C0F30B0310B5E3B9E9B1104C35
:10B2E0000223C4F80435FFF7EDFF01F6FF7121F4E6
:10B2F0007F6121F00F010144884205D10020C4F88C
:10B300000405FFF7DFFF10BDC4F80805FFF7DAFFFB
:10B3100000F58050F0E7102010BD092010BD00BFDF
:10B3200000E0014070B540EA010414F003041BD1B1
:10B33000E2B195071AD10E4E0123C6F804359508DF
:10B34000FFF7C0FFAC4205D10020C6F80405FFF7A7
:10B35000B9FF70BD51F824305A1C03D040F8243096
:10B36000FFF7B0FF0134EDE7102070BD092070BD7C
:10B3700000E001404388012B05D0022B01D10430AD
:10B3800008600120704704304860FAE708B50822D9
:10B390000221094803F021FA20B90848BDE8084015
:10B3A00003F09CBB064A91684160127B0272BDE8C3
:10B3B000084003F041BA00BF60390020942E0020FD
:10B3C000AC39002010B5044610B97846FEF756F89F
:10B3D0002346BDE81040184700B50A4B1A7B9B680E
:10B3E0008DB0012A08BF03F1FF3303900CA804932A
:10B3F000022300F82C3D8DF80820FFF71FFA0DB04E
:10B400005DF804FBAC39002038B50E4D2B78C3B97C
:10B410000D4B5C6804F50054B4F1807F11D8042210
:10B4200001210A4803F0D9F920B90948BDE838409C
:10B4300003F054BB012344602B70BDE8384003F097
:10B44000FBB938BDC0390020AC390020603900207C
:10B45000842E002010B501210C4803F003FA80B9B6
:10B4600002210A4803F0FEF9044650B901461422AD
:10B47000074813F073F8074B1C70BDE81040FFF746
:10B48000C3BF054803F02AFBF7E700BF603900207F
:10B49000AC39002084390020B42E002030B50D4690
:10B4A0008DB07AB94B88012B0AD1124C227812B98F
:10B4B0007846FDF7E3FF104B6A685A60002323705B
:10B4C0000DB030BD032A02D07846FDF7D7FF2C22FD
:10B4D000002101A813F042F811238DF80430074B26
:10B4E0000395DA681B69059201A80693FFF7A6F990
:10B4F000E6E700BFC0390020AC39002060390020E9
:10B5000013B501F03BFD00216B46124A1248009131
:10B51000019103F0B5F8009B104C0BB1019A6AB988
:10B5200000232360A3602373FFF730FF2368636069
:10B53000FFF76AFF01F062FD02B010BD1968A1605B
:10B5400019792173934203D91B790BB92360EDE775
:10B550001368FBE775B3020060390020AC390020A6
:10B5600008B503F009FBA0F5805008BD7FB50021A8
:10B570001822684612F0F2FF00230293FFF7F0FF53
:10B580000123009001936946054B0648039303F09D
:10B5900090F910B1044803F0A1FA07B05DF804FB7C
:10B5A0009DB4020060390020A42E002008B51422AA
:10B5B00000210A4812F0D2FF01F028F8084B094A8E
:10B5C0009A60094ADA60002258601A615A61074B92
:10B5D0001A70BDE80840FFF7C9BF00BFAC390020B2
:10B5E00088390020DDB6020000879303C1390020AE
:10B5F00010B5074C23784BB90648074B036000F0A1
:10B600009FFD064800F094FF0123237010BD00BF8A
:10B610005C390020A039002045B70200883900209D
:10B6200010B501F0ABFC104A117B1346C9B9917BF0
:10B63000B9B9118A41F28262914202D80B4A12785A
:10B640007AB101221A739A68002401321C829A602E
:10B65000FFF79CFE2046FFF7BFFE01F0CFFC20461F
:10B6600010BD0824F9E700BFAC390020C139002023
:10B6700010B501F083FC174B5A7B42B1997B99B905
:10B68000188A41F28261884201D8134A127802F086
:10B6900001047AB11A7B002058733AB1012A0DD007
:10B6A0007846FDF7EBFE05E00022F0E7FFF7B8FF74
:10B6B0000028F5D101F0A2FC204610BD18605860AA
:10B6C00018731882FFF788FEFFF760FEFFF79CFEF5
:10B6D000F0E700BFAC390020C139002038B5174C65
:10B6E000257B2DB1012D12D07846FDF7C7FE21E054
:10B6F000228A41F282639A4202D8114B1B78CBB165
:10B70000FFF7B6FF638A0BB1013B638238BD238A22
:10B7100041F28262934202D8094A157855B142F249
:10B72000B012934282BF012300256373FFF7A0FF8D
:10B73000002DE7D0238A01332382E3E7AC390020D0
:10B74000C139002038B50378042B3FD143681B78FA
:10B75000002B3BD01E4B4469197B027E81BB598A6A
:10B7600011BB012A9A6802D0944203D838BD013235
:10B7700094421BD99A682A32944227D89A7B2ABBD2
:10B7800085681A6042F606519C605A601A82598296
:10B790005A731A73FFF7FAFDFFF736FE05F1100032
:10B7A000BDE83840FFF718BE012A0FD19A68013270
:10B7B00094420BD101225A73BDE83840FFF758BFBD
:10B7C000012903D1012A01D09A68F1E738BD00BFF1
:10B7D000AC39002038B5164C94E80C009A42054666
:10B7E0001FD2207B1349144B012808BF0B469342FC
:10B7F00007D963682268403B9A4208D3FFF704FEEA
:10B8000005E001236373FFF733FF0028F1D0EFF366
:10B81000108072B623685A1C22602B6028B962B669
:10B8200038BDFFF7F1FD0F2038BD002038BD00BF47
:10B83000AC39002000E0FF00FFFF7F0010B50C4C8A
:10B8400030B10C4B01229A7323681344236010BD5E
:10B85000236813B97846FDF711FE2368013B236086
:10B860002BB9044A9373BDE81040FFF701BF10BD28
:10B8700058390020AC39002000B58DB00323ADF855
:10B8800008000CA88DF8102000F82C3D0391FEF75D
:10B89000D5FF0DB05DF804FB014B9868704700BF01
:10B8A000AC390020034B1A7B9868012A08BF00F1CD
:10B8B000FF307047AC390020044B9B685840C207EA
:10B8C00048BF03F1FF331846704700BFAC39002072
:10B8D000014B187B704700BFAC39002038B50A4BCC
:10B8E0001C787CB9094D01221A702973A860FFF7F2
:10B8F0004DFD2046FFF770FD2C606C60FFF784FD66
:10B90000204638BD082038BD84390020AC390020DD
:10B910002DE9F8431D4CDFF87890002602212046DF
:10B9200002F07BF95FFA86F805460027ADB967B1EA
:10B930002946204602F0D9F9082806D154F8043CDB
:10B940001BB12A464946404698470136032E04F16A
:10B95000BC04E3D10120BDE8F88354F8043C23B1D2
:10B9600034F80C2C29464046984734F80C3C0133F7
:10B9700024F80C3C0221204602F06BF902212046FB
:10B9800002F04BF901370546D0E700BFD839002057
:10B99000F4EE030038B5012104460C3002F03DF905
:10B9A000054620B3164BC4F89C300023C4F8A030E1
:10B9B00003786268012B07D0022B1AD07846FDF776
:10B9C0005DFD4FF4FA7306E081688B1A990829230C
:10B9D0004B4303F5FA730B4A934294BFC4F8A83063
:10B9E000C4F8A8200123C4F8AC4084F8B830284635
:10B9F00038BD83689B1A1A0B034B5343E9E700BF1A
:10BA00002DBA020060850100084C010010B5044603
:10BA1000FFF7C0FF48B104F19C0005F06DFC20B1B8
:10BA20007846BDE81040FDF729BD10BD2DE9F74F60
:10BA30004A4B1B7880460D463BB105F093FC002332
:10BA400085F8B83003B0BDE8F08F01F10C09D1F8EA
:10BA5000A8704846012102F0E0F8064610B9784681
:10BA6000FDF70CFDDFF8FCA0A7F5FA7700244FF0F6
:10BA7000290B3378012BA7EB040406D0022B3BD013
:10BA80007846FDF7FBFC00231FE06B68B268B4FB4F
:10BA9000FBF4D21AA400944228BF144624B901939F
:10BAA0007846FDF7EBFC019BF168706823F0030317
:10BAB000224619441844FFF735FC10B17846FDF7CB
:10BAC000DDFC6B681C446C60B3686A689A422AD1DA
:10BAD00005F048FC4846012102F0BBF800236B60EA
