:020000022000DC
:1060000000F003206D630200556302005763020035
:10601000596302005B6302005D6302000000000040
:106020000000000000000000000000005F630200AC
:106030006163020000000000636302006563020008
:106040006763020067630200676302006763020020
:10605000676302006763020071B7030067630200B1
:106060006763020067630200217F03006763020029
:1060700067630200676302006763020067630200F0
:10608000676302001D260400EDC50200676302007D
:10609000812604006763020049A8030067630200C9
:1060A00067630200676302006763020067630200C0
:1060B0006763020067630200000000000000000048
:1060C00067630200676302006763020067630200A0
:1060D0006763020067630200676302006763020090
:1060E000676302006763020067630200000000004C
:1060F0000000000067630200000000006763020008
:10610000000000000000000000000000000000008F
:10611000000000000000000000000000000000007F
:10612000000000000000000000000000000000006F
:10613000000000000000000000000000000000005F
:10614000000000000000000000000000000000004F
:10615000000000000000000000000000000000003F
:10616000000000000000000000000000000000002F
:10617000000000000000000000000000000000001F
:10618000000000000000000000000000000000000F
:1061900000000000000000000000000000000000FF
:1061A00000000000000000000000000000000000EF
:1061B00000000000000000000000000000000000DF
:1061C00000000000000000000000000000000000CF
:1061D00000000000000000000000000000000000BF
:1061E00000000000000000000000000000000000AF
:1061F000000000000000000000000000000000009F
:10620000344935480A1A02D0072291438D46334952
:1062100033480A1A06D00722914381F309880222E3
:1062200082F314882F483049304A00F042F8304851
:106230003049314A00F03DF830483149314A00F0E8
:1062400038F831483149324A00F033F831483249A0
:10625000324A00F02EF832483249334A00F029F829
:1062600032483349334A00F024F833483349002296
:1062700000F02AF832483349002200F025F832486D
:106280003249091A082902DB0022026041601F48D6
:106290001F49884205D00268043003B4904703BC0C
:1062A000F7E700208646EC4600200021284A904768
:1062B000FEE7884207D0521A05D0037801300B70F0
:1062C0000131013AF9D17047884202D002700130A1
:1062D000FAE7704700F0032000E8032000F00320F5
:1062E00000F0032048470400A02D0020C02F00200C
:1062F000A4630200A4630200D62B040048470400F4
:10630000A02D0020A02D0020E42C0400E42C04008B
:10631000E42C0400E42C0400E42C0400E42C04002D
:10632000E42C0400E42C04004647040068490400FF
:10633000C02F0020C02F0020C02F0020807400201C
:1063400080740020807400208074002080780020F9
:10635000756C0200FEE7FEE7FEE7FEE7FEE7FEE7FC
:10636000FEE7FEE7FEE7FEE7704700BF094880470B
:1063700009484FF007018843854608488047084888
:10638000016841F470010160BFF34F8FBFF36F8F5D
:10639000FFF736BF6963020000F0032059AC030029
:0463A00088ED00E0A4
:1063A4000C4B1B6813F4804F03D00B4B1B68012B61
:1063B40000DC704700B583B0084BD3F80435084AB5
:1063C400009240F223120749022007F00DF903B0AE
:1063D4005DF804FB102F00200C2F0020001001405A
:1063E400502D0400462D04000C4B1B6813F4804F01
:1063F40003D00B4B1B68032B00DC704700B583B044
:10640400084BD3F80435084A009240F24312074976
:10641400042007F0E9F803B05DF804FB102F002016
:106424000C2F002000100140D42D0400462D040040
:106434000C4B1B6813F4804F03D00B4B1B68032BCE
:1064440000DC704700B583B0084BD3F80435084A24
:1064540000927B220749042007F0C6F803B05DF8D8
:1064640004FB00BF102F00200C2F0020001001405F
:10647400402E0400462D04000C4B1B6813F4804F7F
:1064840003D00B4B1B68032B00DC704700B583B0B3
:10649400084BD3F80435084A009240F273120749B6
:1064A400042007F0A1F803B05DF804FB102F0020CE
:1064B4000C2F002000100140202E0400462D040063
:1064C40000B583B0012A21D053B253B1022A38D087
:1064D400264A4FF49D71032014F0B4FC03B05DF818
:1064E40004FB234B1B6813F4804FF7D0214B1B682C
:1064F400032BF3DD204BD3F80435204A009240F2FD
:106504002D121F49042007F06FF8E7E70622322115
:106514004FF4B81001F018F8154B1B6813F4804FB2
:10652400DCD0144B1B68032BD8DD134BD3F8043594
:10653400144A00924FF499721149042007F054F858
:10654400CCE70B4B1B6813F4804FC7D0094B1B6877
:10655400032BC3DD084BD3F804350B4A00924FF4E8
:106564009B720749042007F03FF8B7E7FC2C0400AE
:10657400102F00200C2F002000100140702D04006B
:10658400462D0400902D0400B02D040000B583B006
:106594000F4B1B6813F4804F03D00E4B1B68032B67
:1065A4000ADC0322C8214FF4B81000F0CDFF0AF032
:1065B400E1F903B05DF804FB074BD3F80435074A4F
:1065C400009240F295120649042007F00DF8E8E71E
:1065D400102F00200C2F002000100140DC2F04009D
:1065E400462D040000B583B00F2806D0102819D01A
:1065F4000E282CD003B05DF804FB2F4B1B6813F45A
:10660400804FF7D02D4B1B68032BF3DD2C4BD3F8B5
:1066140004352C4A009240F2F3122B49042006F070
:10662400E3FFE7E7244B1B6813F4804FE2D0234BCE
:106634001B68032BDEDD224BD3F80435234A00927A
:1066440040F2F9122049042006F0CEFFD2E71A4B9B
:106654001B6813F4804F03D0184B1B68032B17DC03
:106664000AF031F900BB144B1B6813F4804FC1D0FE
:10667400124B1B68032BBDDD114BD3F80435144AB0
:10668400009240F20B221049042006F0ADFFB1E75E
:106694000B4BD3F804350F4A009240F2FF120A491B
:1066A400042006F0A1FFDBE70BF01EFD0AF001F960
:1066B400FFF76CFF9EE700BF102F00200C2F002077
:1066C400001001408C2E0400462D0400982E040076
:1066D400B02E0400A42E040008B503781C2B00D0AF
:1066E40008BDFFF753FFFBE710B582B0044614F072
:1066F400DDFE02238DF804308DF8063003238DF877
:106704000530094A01A9204614F010FF0021204653
:1067140014F088FF204614F0F5FF0121204614F000
:1067240081FF02B010BD00BFE965020000B58BB067
:106734002022002101A81CF0C5F901238DF80430A2
:1067440007238DF807300F238DF80C30084B059381
:10675400084B0993084901A80AF0C2F810B90BB014
:106764005DF804FB054A40F2D51114F06BFBF6E723
:10677400DD6602004D680200DA410020FC2C0400B2
:1067840000B583B00021254800F064FD10BB244807
:10679400244B03630023836280F82C3080F82D306F
:1067A40001211BF0EFFBD8B902211F4800F052FD74
:1067B400E0B903211D4800F04DFDE8B91C4B1B68EE
:1067C40013F4804F03D01B4B1B68032B1ADC03B05C
:1067D4005DF804FB184A40F27F1114F033FBD6E74E
:1067E400154A40F28B1114F02DFBDDE7124A40F2FA
:1067F4008D1114F027FBDCE70F4A40F28F1114F0DF
:1068040021FBDBE70D4BD3F804350D4A00924FF41E
:10681400C8720C49042006F0E7FED8E7A02D00203A
:1068240044420020802E0400F02D0020402E002041
:10683400102F00200C2F0020FC2C0400001001401D
:10684400E42D0400462D040000B583B00C4B1B68F6
:1068540013F4804F03D00B4B1B68032B04DCFFF7AE
:106864008FFF03B05DF804FB074BD3F80435074AE8
:1068740000924FF4E3720649042006F0B5FEEEE7F9
:10688400102F00200C2F002000100140B42F040012
:10689400462D040000B583B00C4B1B6813F4804FE5
:1068A40003D00B4B1B68032B05DC0A4800F0B0FC3B
:1068B40003B05DF804FB084BD3F80435074A009293
:1068C40075220749042006F08FFEEEE7102F002002
:1068D4000C2F0020402E002000100140482E040000
:1068E400462D040008B5044B01221A70034B19709D
:1068F400034800F08DFC08BD1C420020D841002054
:10690400F02D002010B582B00C46164B1B6813F412
:10691400804F03D0144B1B68032B10DC134800F08A
:1069240077FC134B01221A70124B1C709CB14FF070
:10693400A0434FF48022C3F8082502B010BD0E4BCB
:10694400D3F8043501910D4A0092B6220C49042073
:1069540006F04AFEE2E74FF0A0434FF48022C3F86A
:106964000C25EAE7102F00200C2F0020A02D00207A
:106974001D420020D941002000100140042E0400D3
:10698400462D040010B50C46122000F0C5FD207001
:1069940010BD000030B587B0174B1B789BB101F0D8
:1069A400EFFA00F019FE09F0D7FFF8B900214FF40F
:1069B400B81000F0BDFD0222C8214FF4B81000F059
:1069C400C3FD07B030BD6C460C4D0FCD0FC495E828
:1069D400030084E80300684600F044FD0028DED08C
:1069E400074A4FF4157114F02DFAD8E7044A40F21F
:1069F400592114F027FAD9E7DA410020E42C0400E5
:106A0400FC2C040010B5044600214FF4B81000F02B
:106A14008FFD04EB8404620032214FF4881000F0EF
:106A240093FD10BD08B500F0C9FD08BD00B585B0E3
:106A3400244B1B6813F4804F03D0234B1B68032B98
:106A440025DC4FF0A0434FF48012C3F8082500F072
:106A54007DFF00F0A9FF03A80FF0BAFC194B1B68D7
:106A640013F4804F03D0184B1B68032B1BDC00F07E
:106A7400A5FD00214FF4B81000F05AFD0422C821EE
:106A84004FF4B81000F060FD05B05DF804FB0F4B47
:106A9400D3F804350E4A00924FF4D9720D490420FC
:106AA40006F0A2FDCDE7094BD3F80435BDF80C2060
:106AB4000192094A009240F2BD120649042006F0F0
:106AC40093FDD4E7102F00200C2F0020001001406C
:106AD400F82F0400462D04001430040010B586B0CD
:106AE4008DF81400274A1378591C11708DF815304D
:106AF4003223049364230393234C20880EF0DCF8A0
:106B040003AA05A920461BF077FA112832D8DFE83A
:106B140000F0323131310931311D09313131313136
:106B240031313109194B1B6813F4804F23D0184BB2
:106B34001B68032B1FDD174BD3F80435164A00924C
:106B4400A0221649042006F04FFD14E00F4B1B68E9
:106B540013F4804F0FD00E4B1B68032B0BDD0D4B32
:106B6400D3F804350E4A0092AB220C49042006F0F7
:106B74003BFD00E008B906B010BD0A4AAF2114F08D
:106B840061F9F8E74042002044420020102F002021
:106B94000C2F0020001001405C300400462D04003E
:106BA40070300400FC2C04004FF0A0434FF400327A
:106BB400C3F80C254FF48022C3F80C254FF480123F
:106BC400C3F80C2503F540730422C3F80C25704761
:106BD40000B583B01F4A042146F2010006F0E8FC28
:106BE4001D4B1B6813F4804F03D01C4B1B68032BF5
:106BF4001EDC1BF047FD38BB012001F01DF8FFF738
:106C0400D3FF0D20FFF770FD0F20FFF76DFD10205F
:106C1400FFF76AFD0E20FFF767FD00F07BFE00F032
:106C240095FE00F0C1FEFFF781FD03B05DF804FBA3
:106C34000B4BD3F804350B4A009240F22D220A493B
:106C4400042006F0D1FCD4E7084A40F22F2114F0C6
:106C5400F9F8D1E789D50200102F00200C2F00206D
:106C640000100140E82E0400462D0400FC2C040012
:106C740010B584B0FFF7ACFFFFF78CFE964AC02135
:106C8400102001F08FF820B901F030F801F064F819
:106C94000AE014F0C9F8F7E71E2200218F481BF020
:106CA40011FF8F4B00221A7001F008F904F0DCFA8E
:106CB4000028F9D08A4B1B78002B00F0908089497A
:106CC40086481BF0B6FEB8B1874801F037F8874B09
:106CD4001B6813F4804FDFD0854B1B68032BDBDD6F
:106CE400844BD3F80435844A009240F27D228349D0
:106CF400042006F079FCCFE7814978481BF099FE1F
:106D0400E8B17A4B1B6813F4804F03D0784B1B68AF
:106D1400032B08DC1E22002170481BF0D3FE704BAD
:106D240000221A70C0E7734BD3F80435754A0092F9
:106D340040F282227149042006F056FCEAE77249C7
:106D440066481BF076FE20B9704964481BF071FE5A
:106D540010B301F00BF80120FFF7C0FE634B1B6872
:106D640013F4804F03D0624B1B68032B08DC1E22F4
:106D740000215A481BF0A6FE594B00221A7093E7D3
:106D84005C4BD3F80435624A009240F289225B4995
:106D9400042006F029FCEAE700F0F6FF0020FFF7E4
:106DA4009DFE524B1B6813F4804F03D0504B1B685D
:106DB400032B08DC1E22002148481BF083FE484BAD
:106DC40000221A7070E74B4BD3F80435514A0092F5
:106DD4004FF424724949042006F006FCEAE74E4BBE
:106DE4001B7813BB4D4B1B78002B3FF45DAF3F4B1F
:106DF4001B6813F4804F03D03D4B1B68032B54DCFA
:106E0400474C2078FFF76AFE2378002B59D0454B76
:106E14001022C3F808254FF0A0434FF48022C3F892
:106E240008253E4B00221A703EE7304B1B6813F4D2
:106E3400804F03D02E4B1B68032B18DC3A4B1B7876
:106E440043B3384B1022C3F808254FF0A0434FF446
:106E54008022C3F80825344B1878FFF73FFE334AE5
:106E64001388013313802C4B00221A701CE7214B2A
:106E7400D3F804352D4AB2F9002002922A4A127836
:106E840001922B4A009240F296221C49042006F0FB
:106E9400ABFBD3E7234B1022C3F80C254FF0A043E0
:106EA4004FF48022C3F80C25D5E7124BD3F80435F0
:106EB400204A009240F2A5221049042006F094FBD7
:106EC4009EE7184B1022C3F80C254FF0A0434FF453
:106ED4008022C3F80C25A4E7C02F0020004700201F
:106EE4001E470020202F0400282F0400102F00200C
:106EF4000C2F002000100140302F0400462D040008
:106F04003C2F0400442F0400682E0400742E040057
:106F14004C2F0400542F04001C4200201D4200206A
:106F2400D941002000030050D8410020902E0020B9
:106F34005C2F0400982F040030B583B00446154636
:106F44001D4B1B6813F4804F03D01C4B1B68032B91
:106F540011DCA36B04F13C012046984794F83C30C3
:106F64002B7094F83D306B70236C0BB1626C6AB17A
:106F74006B6003B030BD124BD3F80435114A009254
:106F8400AA221149042006F02FFBE2E71BF0FCFBC8
:106F9400A16C1BF0FFFB4FF47A7303FB00F0C20BF0
:106FA400236C934205D3B0F5004F02D39B1A6B6058
:106FB400DFE700236B60DCE7102F00200C2F00209C
:106FC40000100140E4300400D530040010B588B04E
:106FD4000446436CE3B9036C13B190F83D20BAB195
:106FE40094F83D2084F83C208DF818208DF8192061
:106FF400079306A920461AF0ADFE94F84C303BB92D
:10700400636B94F83C1020469847012384F84C3075
:107014000F4B1B6813F4804F03D00E4B1B68042BDB
:1070240001DC08B010BD0C4BD3F8043594F83C20B7
:1070340094F83D10206C0490606C039002910192CE
:10704400064A009285220649052006F0CDFAE8E7B3
:10705400102F00200C2F00200010014028310400C4
:10706400D530040030B583B00446036B18681BF0B8
:1070740075FB636C3BBB236C1BB3590CD8034FF4F7
:107084007A72002310F5FA7041F100011BF08CFBB9
:10709400B0F1807F2AD2042831D9236B22460146DD
:1070A40018681BF03DFB05461BF06EFBA06445B160
:1070B4001C4B1B6813F4804F03D01B4B1B68002B25
:1070C40025DC03B030BD256B590CD8034FF47A721C
:1070D400002310F5FA7041F100011BF065FB224614
:1070E400014628681BF01CFB0546E0E7236B22469B
:1070F4006FF07F4118681BF013FB0546D4E7236B40
:107104002246052118681BF00BFB0546CCE7074B0C
:10711400D3F80435064A009268220649012006F095
:1071240063FACEE7102F00200C2F0020001001403E
:1071340008310400D5300400F0B583B00446174686
:107144001E46089D1A4B1B6813F4804F03D0194B3D
:107154001B68032B1BDC002384F84C303B7884F839
:107164003D300EB373686364336823642046FFF7CD
:107174002DFF2046FFF776FF3DB194F83C302B708D
:1071840094F83D306B70236C6B6003B0F0BD0A4B18
:10719400D3F8043512780192084A0092CC220849A7
:1071A400042006F021FAD6E7002363642364DDE7B4
:1071B400102F00200C2F002000100140F03004009C
:1071C400D530040038B50446436C9BB9056CADB1A9
:1071D400690CE8034FF47A72002310F5FA7041F158
:1071E40000011BF0E1FAB0F1807F0BD3A5F2FF158B
:1071F400256403E000234364FFF7E8FE2046FFF71D
:1072040031FF38BD002323642046FFF7DFFEF5E796
:1072140010B582B00446836B00F13C01984794F8A2
:107224003C3084F83D30002363642364236B186886
:107234001BF094FA94F83C308DF8003094F83D300B
:107244008DF80130236C0193694620461AF082FDC3
:1072540002B010BDA0B110B504460D4AC262426B23
:107264008AB1826B8AB11AF03FFD034608B1184611
:1072740010BD084A0021206B1BF03CFA0346F6E7D8
:107284000E23184670470E23F1E70E23EFE700BFE5
:1072940000310400C97102002B4B1B78002B52D023
:1072A40000B585B0012804D0032845D005B05DF8A9
:1072B40004FB0023029302A9012013F06BF940BBE5
:1072C40002A813F0BBF938BB0123039303A90DF102
:1072D40006000FF0B5FD10BBBDF806000FF04CFA28
:1072E4000DF105010FF0A2FBE0B90AF0DBFD9DF8FA
:1072F400051000200AF010FFB8B903F04BFFC0B925
:10730400114B00221A70114B1B68002BCED09847EA
:10731400CCE713F089FDD3E713F086FDD4E713F02F
:1073240083FDD9E713F080FDDFE7784600F01CFC0D
:10733400E3E713F079FDE3E713F0F6F90028B5D09D
:1073440013F072FDB2E770477A4200207C420020BD
:1073540008B5064B01221A70054803F089FF03F0B3
:1073640065FF00B908BD13F05FFDFBE77A4200201A
:10737400942E002008B503781B2B00D008BD074BC2
:107384001B78002BFAD013F013FA18B9044803F051
:1073940073FFF3E713F048FDF8E700BF7A420020DB
:1073A400942E002008B503230022034909690348E9
:1073B40015F0C8FD08BD00BF7C420020CC4400206D
:1073C40008B50378023B082B3FD8DFE803F01C051F
:1073D400113E3E2C3E3E36001E4B5B68002B34D0E3
:1073E400007A002831D01C4A0121117098472CE002
:1073F400184B9B684BB3184A127832B3164A0021D3
:107404001170984721E0154B1B784BB9114BDB6881
:107414001BB1114A002111709847FFF7C3FF14E014
:10742400FFF796FF11E010220A4B59690C4815F03A
:1074340019FE50B113F0F8FC07E08168C06809F048
:10744400FDF918B9054B01221A7008BD13F0ECFCC4
:10745400F8E700BF7C4200207842002079420020F7
:10746400CC44002070B586B00446234A03AB07CA57
:1074740003C323F8022B120C1A70204E35460FCC8E
:107484000FC594E8030085E803007369002B31D02D
:107494001B491C4815F03AFD034610B1184606B0C6
:1074A40070BD194B009303AB154A1649174815F0E4
:1074B400E9FC03460028F1D1154817F07FF901468D
:1074C400124815F00BFD03460028E7D1114817F0C8
:1074D40063FB03460028E1D10E4817F093FB0146F5
:1074E4000A4815F0FBFC03460028D7D1FFF75AFFE2
:1074F4000346D3E70723D1E7683104007C42002028
:107504009442002000460020C5730200CC440020B1
:10751400B44200207C4400204FF0A043D3F804255B
:10752400012303FA00F002420CBF18460020704702
:1075340021B14FF0A043C3F80C0570474FF0A043AE
:10754400C3F808057047000072B338B51346132911
:1075540000D838BD154A10605B00013B144A136023
:107564004FF0A043D3F80425124B1A6000254C0CAD
:10757400C8034FF47A72002310F5FA7044EB050146
:107584001BF012F92A4601460B481BF0C9F80028E3
:10759400DFD14FF0A042D2F804350449096823EA48
:1075A4000103C2F80435D4E7704700BF4446002005
:1075B40040460020684600204846002008B504489C
:1075C4001BF0CCF80021034B1868FFF7B1FF08BD8E
:1075D4004846002044460020002869D02DE9F043A5
:1075E400CFB00646334B1B6813F4804F03D0324BA5
:1075F4001B68032B0BDC2F4B1B6813F4804F03D049
:107604002D4B1B68032B2ADC4FB0BDE8F08300230D
:107614000F2B0FD8F25C29490D6810095900285C1A
:107624000DAC04F8130002F00F020131AA5C62549D
:107634000133EDE70DAA00238DF8543003F18043A4
:1076440003F58833D3F8043502921D4A01921D4A8A
:10765400009241221C49042005F0C6FFCBE71B4BD6
:10766400D3F80435B288F188307A747AB57AF77A27
:1076740096F80CC096F80DE096F80E8096F80F90E8
:10768400CDF82C90CDF82880CDF824E0CDF820C09A
:10769400079706950594049003910292326801922B
:1076A4000B4A009246220849042005F09DFFABE7EF
:1076B400704700BF102F00200C2F0020142F002033
:1076C400C4310400D8310400B13104000010014079
:1076D400E031040072DF704773DF704774DF704776
:1076E40077DF70472DE9F047A2B0074688469146F8
:1076F400314C0026C4F80660E68130490B78C3EBB0
:1077040043102F4D054425602E4A0244A2601F22D7
:10771400A280A281013303F001030B704FF03C0AF5
:107724005246314613A81BF0CDF906238DF84F308D
:10773400ADF8487001238DF84A30ADF85C3012AAD8
:107744001892ADF83C70ADF84090CDF844800DEB44
:107754000A021D928DF878305246314668461BF075
:10776400B1F902238DF80030221D294613A813F025
:10777400CDFD90B9104B03F10C029968684613F0E3
:10778400C5FD68B9104A0C491048FFF7A3FF082843
:1077940009D070B922B0BDE8F08713F045FBE9E7E2
:1077A40013F042FBEEE7002203490848FFF792FF7B
:1077B400EFE713F039FBEDE7B04600206C460020FC
:1077C40070460020C0460020A42E0020A02E0020D9
:1077D40088B1B0F5202F06D2094AA2FB0023DB08AA
:1077E40003D1012302E04FF6FF739BB2054A938154
:1077F400044B99607047034B00229A81F8E700BF5D
:10780400CDCCCCCCA42E002000B583B00422164BE2
:1078140019780120FFF764FFA0B9144B1B6813F417
:10782400804F03D0124B1B68032B0EDC01210E4B3F
:107834001878FFF751FF98B9002004F0DDFB03B07E
:107844005DF804FB13F0F0FAE7E70A4BD3F80435CC
:10785400094A0092B8220949042005F0C5FEE5E76B
:1078640013F0E2FAE8E700BFA02E0020102F00205A
:107874000C2F002000100140683204005D32040027
:1078840008B5044B1878FFF729FF00B908BD13F0B9
:10789400CBFAFBE7A02E002076DF70477ADF704733
:1078A4007CDF704708B513F0BFFA08BD08B503F0D4
:1078B400E7FC08BD00B583B0037823B1012B0BD0DE
:1078C40003B05DF804FB3B214088FFF7E5FF002887
:1078D400F6D013F0A9FAF3E7094B1B6813F4804FB1
:1078E400EED0084B1B68032BEADD074BD3F80435B5
:1078F400064A009268220649042005F075FEDFE777
:10790400102F00200C2F002000100140F83204003A
:10791400DD32040000B583B012F006FF68B900231D
:10792400019301A9012012F035FE48B901A812F013
:1079340085FE40B903B05DF804FB13F075FAEEE779
:1079440013F072FAF2E713F06FFAF3E700B585B0BB
:107954009DF80C30012262F3030362F307138DF8E0
:107964000C3010220F4903A8FFF79AFF98B900239F
:10797400ADF808307823ADF80430C823ADF80630EC
:107984004FF4C873ADF80A3001A8FFF787FF28B990
:1079940005B05DF804FB13F047FAE8E713F044FA86
:1079A400F6E700BF8C32040000B58BB00023ADF8BD
:1079B40008307822ADF80420C822ADF806204FF430
:1079C400C872ADF80A200693079301AB039340F6FF
:1079D400CD4304934FF48033059303238DF818307B
:1079E400064B0893064B099303A813F091F810B9BA
:1079F4000BB05DF804FB13F017FAF9E7B97802004D
:107A0400A97802000620704700B587B041F201034F
:107A140098424CD020D944F2010398425DD044F2FC
:107A24000203984274D1464B1B6813F4804F1ED056
:107A3400444B1B68002B1ADD434BD3F804351088E4
:107A44000390526802920191404A00926C2240498C
:107A5400012005F0C9FD0AE0012859D1384B1B6803
:107A640013F4804F03D0374B1B68002B12DC4FF00C
:107A7400A0434FF4B812C3F81825C3F80C25EFF34C
:107A8400108372B64DF6AD6C324B1B78002B54D07C
:107A940030BFF9E72C4BD3F80435029201912E4AFA
:107AA400009260222A49012005F09EFDDFE7244B65
:107AB4001B6813F4804FDAD0224B1B68002BD6DDF1
:107AC400214BD3F8043502920191244A0092632297
:107AD4001F49012005F088FDC9E7194B1B6813F401
:107AE400804FC4D0174B1B68002BC0DD164BD3F856
:107AF40004351068049050680390029192680192D2
:107B0400174A009277221249012005F06DFDAEE775
:107B14000B4B1B6813F4804FA9D00A4B1B68002B36
:107B2400A5DD094BD3F8043501910E4A00927B225E
:107B34000749012005F058FD99E707B05DF804FBFB
:107B4400102F00200C2F002000100140B43304003B
:107B540061330400BC2E002074330400903304000D
:107B6400D4330400F833040000B583B00023ADF827
:107B74000030054B01936A46014644F20200FFF7C8
:107B840043FF03B05DF804FBF4330400002307E073
:107B94004FF0A04102F5E072542041F82200013375
:107BA400032B08D8044AD15C0A461F29F0D901F0F6
:107BB4001F020249EEE7704714340400000300502A
:107BC400074B1A5C11461F2A03D902F01F01054A0C
:107BD40001E04FF0A04201238B40C2F80835704702
:107BE400183404000003005010B5002403E02046BC
:107BF400FFF7E6FF0134032CF9D910BD08B50023C3
:107C040007E04FF0A04102F5E072032041F82200A2
:107C14000133032B08D8064AD15C0A461F29F0D940
:107C240001F01F020349EEE7FFF7DEFF08BD00BFC6
:107C3400183404000003005010B5044610F0010F7E
:107C440003D114F0020F03D110BDFFF7D7FFF8E7FB
:107C5400FFF79CFFF8E7000038B5037823B1022B47
:107C64002FD0012B31D038BD1A4C204614F07AFCA9
:107C7400194B1B7822781949CA540A2A1DD15A1E55
:107C84008A5C0D2A19D1164B1B78012B03D00133C2
:107C9400134A1370E7E700240F4B1C70104B1C7041
:107CA4000D4610481AF041FF1E22214628461AF0BC
:107CB40009FF0D4B01221A70D5E70133064A1370F0
:107CC400D1E7406813F0B0F8CDE7406813F0ACF8A2
:107CD400C9E700BF404700203F470020204700205D
:107CE4003E470020004700201E47002030B58BB0DF
:107CF40004AC0E4D0FCD0FC495E8030084E80300D7
:107D04000B4B00934FF4806301930A4B02934FF49F
:107D1400807303930F23084A694604A814F0ACFB4C
:107D240008B90BB030BD13F07FF8FAE71C34040037
:107D340044470020444B00205D7C020038B50546D2
:107D4400002400E00134062C05DC285D14F03CFC22
:107D54000028FAD1F6E738BD034B0322C3F81027F5
:107D64001022C3F80C25704700030050054B102265
:107D7400C3F808254FF0A0434FF48022C3F8082528
:107D8400704700BF00030050054B1022C3F80C25B8
:107D94004FF0A0434FF48022C3F80C25704700BF76
:107DA4000003005030B4044612F0030012D14B1CFF
:107DB400DB009BB2084D2A601A44084B1A6000236A
:107DC400074A1370074A1370074B1C80074B19802E
:107DD40030BC70470720FBE74C4C0020484C002087
:107DE400444C0020544C0020504C0020524C0020A5
:107DF4002C4B1B888B4201D2092070472DE9F0419E
:107E040082B016460C46074600238DF807300DF164
:107E1400070012F009FB244B1A78D2B2234B1B78CB
:107E2400DBB298B222490988884224D20133DBB2FA
:107E34009A4224D01D4B1D781B78DBB29AB2914232
:107E44001BD90133DBB2194A13709DF8070012F0F5
:107E540017FB4FF6FF739D4222D0164B1B6803EBB2
:107E6400C50843F8356007B164B90020A8F80400D8
:107E740002B0BDE8F0810023DAE70023E3E74FF620
:107E8400FF75E2E70C4B1B68064A10882246394608
:107E940005FB00301AF0EDFDA8F804400020E7E7E8
:107EA4000420E5E7504C0020544C0020444C0020B2
:107EB400524C00204C4C0020484C002038B502E0C5
:107EC4000023134A1370124B1A78D2B2114B1B7849
:107ED400DBB29A421AD00E4C2378DBB20E4A1068F9
:107EE4000E4A15880E4A126802EBC30152F8332079
:107EF400898803FB050090472378DBB299B2094ACD
:107F040012889142DCD20133DBB2DAE738BD00BF1C
:107F1400544C0020444C0020484C0020504C00207D
:107F24004C4C0020524C002010B40346044C006812
:107F340059689A68DB680FC45DF8044B704700BF4A
:107F4400584C00200B4B0C4A92E8030083E80300D2
:107F540003F10802094903C982E80300DA7904211C
:107F640061F30712DA711A7A022161F387121A7225
:107F7400704700BF584C002060000010A40000109F
:107F840000487047584C002000231F2B09D807498C
:107F940001EBC30000224280426001F83320013328
:107FA400F3E7034B00221A60704700BF684C0020BF
:107FB400684D002030B405460F4B1B6800240AE0CE
:107FC4001F230E4A12F83300A0B102EBC3025288F9
:107FD400AA4207D001341F2C0BD85A1E002BEFD015
:107FE4001346EEE7054A02EBC30252688A42F1D116
:107FF40000E0002030BC7047684D0020684C002031
:1080040030B40A4A13680A4C04EBC30568806960FB
:10801400012104F833100B441360202B01D030BC31
:108024007047134600221A60F9E700BF684D00202C
:10803400684C0020C0F30C038B4204D2C91A0144DB
:10804400A1F500507047C91A08447047C37D002B3E
:1080540042D083780A7802F0800203F07F0313434E
:108064000B7002780B7803F07F0343EAC2130B70A2
:108074000378002B41D030B44378082B14BF00227E
:1080840001224B7803F07F0343EAC2134B708588C7
:1080940003F08003C5F3861423434B708A7802F0FF
:1080A400030242EA8502D2B28A70857902F0FC02A8
:1080B400C5F3C10422438A70CB7803F01F0343EA5B
:1080C4004513DBB2CB70C27903F0E00302F01F0268
:1080D4001343CB7030BC704783780A7802F0BF0238
:1080E4009B0103F0400313430B70C27803F0C003F9
:1080F40002F03F0213430B70B3E770470023032BD6
:1081040022D810B402E00133032B19D8C3EBC30205
:1081140014010E4A224492F84820012AF3D10B4A52
:108124002244948AC2899442EDD1C3EBC302140160
:10813400064A224492888A42E5D10448204400E059
:1081440000205DF8044B704700207047D84D002094
:10815400002300E00133032B14D8C3EBC302110145
:10816400094A0A4492F84820022AF3D1064A0A44EA
:10817400918A828A9142EDD1C3EBC3031A0102486A
:108184001044704700207047D84D002008B90420DF
:10819400704708207047000038B505460C46CB6987
:1081A4005B78C370CB691B7883F001038370CB6960
:1081B4004362087B022814D0FFF7E8FF6870E27A74
:1081C40032B9A18AC0F10F03994201DC082833D0E7
:1081D400A18A0346C0F10F00814207DC52B3012299
:1081E40005E0164B987DFFF7D1FFE7E701222A70DF
:1081F40062B1A28A13440B33114A82FB0312DB17C8
:10820400C3EB6203013BEB710023AB710023EB75FD
:1082140005F10C0294E8030082E80300A2692A62D3
:108224002289AA82A27AAA75226AAA6285F82C30C7
:10823400184638BD0022DAE70720FAE7C04D0020CF
:10824400ABAAAA2A30B403460C46097881700021EF
:108254004162A1680B2903D8217B09B3012100E005
:10826400012119700020587029B1A1680731C9088B
:108274000139D97198710121D97503F10C0504F103
:10828400100103C985E80300E1899982A169196293
:10829400217F9975617F83F82C109A6230BC7047F6
:1082A4000021DEE70021174B1B688B4227D90023EE
:1082B400154A02EBC10252689A421ED910B40FE06B
:1082C40060685DF8044B704701310E4B1B688B42AC
:1082D40011D900230C4A02EBC10252689A42F3D925
:1082E400094A52F8312002EBC30412F833208242C7
:1082F400E6D00133EEE70020E3E70131D3E70020C5
:10830400704700BF6C4D0020704D002070B58CB0DC
:1083140006460D4614462C22002101A81AF0D2FB71
:108324000F238DF80430ADF808604FF0000365F3B7
:1083340000038DF80A308DF80B4001A801F0E6F82F
:108344000CB070BD30B58DB005460C462C22002112
:1083540001A81AF0B7FB10238DF8043002958DF8AC
:108364000C4001A801F0D2F80DB030BD00B58DB0BD
:1083740010B913F1020F06D1074B186804F064F822
:108384000DB05DF804FB01228DF80420029301A8CE
:1083940001F0BCF8F0E700BF784D00202DE9F04172
:1083A400054688460378BBB10D4B1C68621C1A60F5
:1083B40004F00704AB8A0B4F07EBC4067380A9884B
:1083C400A869FFF737FE7060EB6903F0010373706F
:1083D40007F83480BDE8F0817846FFF7C5FBE3E792
:1083E400BC4D00207C4D002070B5064603784BB18F
:1083F400B58A347F04F00104B188B069FFF71AFE2E
:10840400002304E07846FFF7AFFBF1E70133072BC5
:1084140015D80C4A02EBC30252688242F6D1094ACB
:1084240002EBC3025288AA42F0D1064A02EBC3020D
:108434005278A242EAD1034800EBC30000E00020D6
:1084440070BD00BF7C4D0020F8B515461C460E6873
:108454004A68D1F808C0CF68E6602261C4F814C045
:10846400A7610E694A69E66122620378DB09237019
:10847400E27D2AB3027802F07F02A27000226270C9
:108484009BB143789B0103F4FE53827843EA920341
:10849400A3808378DB0003F01803C27843EA521305
:1084A400A371C37803F01F03E371002363622B7885
:1084B400052B1AD82B780F4AD35C84F82C30F8BDDE
:1084C4000278C2F38012A270027802F03F02E270D6
:1084D40043B190F90120002A02DB04226270CFE745
:1084E4000822FBE704226270CAE77846FFF73CFBE8
:1084F400E0E700BF3434040070B50C461E46037830
:10850400B3B104252A44A26000F10C032360836AFA
:10851400636090F82C30237300236373204604F0C7
:10852400F7FA034610B9226915443560184670BD40
:108534000125E7E72DE9F0418EB00D4616461C46AD
:10854400804600282DD0002D2FD0002C31D0636A16
:108554000233059304F10C00A378002B2DD00121E4
:10856400627801AF3B46082A14BF0022012204F0BE
:10857400B0F80697CDF81C80B2B2ADF820200B9568
:1085840015440C9563788DF83430237B022B16D078
:108594000023ADF8283005A804F093F80EB0BDE828
:1085A400F0817846FFF7E0FACDE77846FFF7DCFA8A
:1085B400CBE77846FFF7D8FAC9E70221D0E7236969
:1085C4002BB1236909931023ADF82830E3E77846EB
:1085D400FFF7CAFAF5E72DE9F04186B004460D46E7
:1085E400C37D002B3CD0082605FB06F8E379AB429B
:1085F40038D0A5716B46324601A92046FFF77CFFAF
:10860400074648BB4DB994F8533033B9A369C3F353
:108614000C03A380012384F85330E37D7BB994F8E1
:10862400523063B91DBBB4F84A10627823468A1AE3
:10863400E16E0846FFF77EFF012384F85230059966
:108644002046FFF703FDE16E3246414400981AF0DC
:1086540010FA01A804F07BFA384606B0BDE8F081B0
:108664000C26C1E7B4F84A60A6EB0806C1E77846D1
:10867400FFF77AFAD7E770B505460E4609B100232D
:108684000B6095F85040002104E0631C85F85030DD
:108694000134E4B2EB79A34210D3EA6C0123A34082
:1086A4001A42F5D121462846FFF795FF014628B91D
:1086B400002EEAD0336801333360E6E7084670BD24
:1086C400F0B587B045781544C37D7BB10B239D423B
:1086D40024D816460F4604466B462A4601A9FFF7DE
:1086E4000BFF054620B1284607B0F0BD0F23EEE787
:1086F40005992046FFF7AAFCE37D43B1324639468B
:1087040000981AF0B6F901A804F021FAEBE7234621
:10871400324600993846FFF70DFFF4E70925E2E7F2
:1087240010B5044690F84830012B0CD103F080F8C2
:10873400237B012B0BD0094BD968014404F1300091
:1087440003F03EF810BD7846FFF70EFAEEE7A37D7E
:10875400024AD168126902FB0311EEE7C04D002002
:1087640030B583B0002403E02846FFF7D9FF013475
:10877400032C19D8C4EBC4031A010C4B134493F80B
:108784004830012BF3D100230193C4EBC40213013D
:10879400064D1D4401A92846FFF76DFF0428E3D0C8
:1087A400019B002BE3D0DFE703B030BDD84D0020A0
:1087B40038B5044690F84830022B09D1064B1D68A1
:1087C40003F036F8411904F1300002F0F9FF38BD26
:1087D4007846FFF7C9F9F1E7C04D002038B50446E3
:1087E40090F84830022B10D10A4B5D7D5A689B6883
:1087F40003FB052503F01CF8411904F1500002F0B5
:10880400DFFF012384F8683038BD7846FFF7ACF900
:10881400EAE700BFC04D002038B50446C06E07F03B
:10882400FCFF04F13005284602F0E7FF70B994F824
:108834004830022B0ED07022002120461AF042F953
:10884400002084F8480002F02FF838BD284602F0D2
:108854009FFFECE704F15005284602F0CEFF002804
:10886400E9D0284602F094FFE5E710B5044601215B
:10887400FFF794FD2046FFF7CFFF10BD10B58CB075
:10888400044690F84830012B0CD101238DF80430B4
:10889400636D029301A800F039FE2046FFF7BCFF88
:1088A4000CB010BD7846FFF75FF9EEE730B585B040
:1088B4000D460446A8B100212046FFF76FFD294666
:1088C400606DFFF73FFD2046FFF7A6FF0F4B1B68C7
:1088D40013F0040F03D00E4B1B68032B05DC05B00B
:1088E40030BD7846FFF740F9E5E70A4BD3F8043585
:1088F40094F8482002950192074A009240F2EF1240
:108904000649042004F070FEE9E700BF102F0020A0
:108914000C2F002000100140803404007334040044
:1089240008B508460021FFF7C1FF08BD08B5037B61
:10893400012B02D0FFF7A2FF08BD0121FFF7B6FF0C
:10894400FAE7000008B590F8513053B1013B80F8C4
:108954005130002380F85030034B186803F074FD45
:1089640008BDFFF7E3FFFBE7784D002010B50C4688
:1089740091F84830012B03D12046FFF7E3FF10BDE7
:108984007846FFF7F1F8F7E7062951D170B582B0C0
:1089940003460178890101F4FE5140789D78DC7822
:1089A400240444EA05641D7944EA05245B791C43E4
:1089B40041EA90011046FFF7A1FB0546B8B1C66C29
:1089C4002643C66444B3037853B3EB795A1C01239A
:1089D4009340013B9E4227D0002185F85010284641
:1089E400FFF749FE2846FFF79BFE02B070BD114B0E
:1089F4001B6813F0040FF8D00F4B1B68012BF4DD38
:108A04000E4BD3F804350E4A009240F2A7520D499A
:108A1400022004F0E9FDE8E70321FFF747FFE4E75C
:108A24007846FFF7A1F8D0E72846FFF727FFDCE7F1
:108A3400704700BF102F00200C2F002000100140B1
:108A4400A4340400733404002DE9F04389B0804653
:108A54000F4614461E46957825B9FFF795FF09B0D1
:108A6400BDE8F0832846FFF71DFC81460028F6D0B8
:108A74008DF80050236A0693A38AADF80E3004AB38
:108A840004F10C0292E8030083E80300A37D8DF84F
:108A94001C30CDF80480029723788DF80C3094F8BC
:108AA4002C308DF81D3031466846C847D7E70000A2
:108AB4002DE9F04706460F4690464B1EDBB2012BCC
:108AC4000FD8B8F5C07F10D80024032C1AD8C4EBF3
:108AD400C4031A01314B134493F848304BB10134A9
:108AE400F3E77846FFF740F8EBE77846FFF73CF802
:108AF400EAE7DFF8A8A015465544404607F089FE8A
:108B0400E86600E0002585B3EB6E002B44D03346C5
:108B14002A4606F1300ED3F800C05C689868D9681C
:108B2400C2F800C054609060D160103310327345B5
:108B3400F1D10023EB64A5F84A80B188B069FFF74E
:108B440079FAA861012F13D06FF00103AB620023FF
:108B540085F86830124BAB652D66124BAB632D6400
:108B6400012001F0A1FE85F848702846BDE8F08791
:108B74000D4B1B7D85F85130002385F8523085F864
:108B8400533085F85030B36A6B656FF00103AB6204
:108B9400064BAB632D64E3E71D46E6E7D84D0020A2
:108BA4005594020025890200C04D002071890200FD
:108BB400F0B5C7B046781644C37D2BB14FF480732B
:108BC400B3427ED3002303E04FF4C073F8E70133CC
:108BD400032B19D8C3EBC30425013C4C2C4494F853
:108BE4004840012CF3D1394C2C44A58A848AA542EF
:108BF400EDD1C3EBC3042501344C2C44E589C4896D
:108C0400A542E4D1082455E014460F46324601211A
:108C1400FFF74EFF0546002855D022463946C06E60
:108C240019F027FF0023459345A92846FFF723FDA4
:108C3400044608B1042840D1459B7BB9244B1B68EA
:108C440013F0040F35D0234B1B68032B31DDB5F82B
:108C54004A70802F28BF8027002313E02846FFF79F
:108C64005FFDEBE7EA6ED25C1B490C681009590002
:108C7400265C04A800F8136002F00F020131A25C24
:108C840042540133BB42EDD304AA002302F8173047
:108C940003F1804303F58833D3F8043502920F4A75
:108CA40001920F4A009240F2D1420E49042004F08E
:108CB4009BFC0024204647B0F0BD2846FFF7ACFDDE
:108CC400F8E70924F6E70424F4E700BFD84D0020B0
:108CD400102F00200C2F0020142F0020D434040067
:108CE400D83104007334040000B585B000238DF836
:108CF4000F3098B10346084602330B600DF10F01A3
:108D040003F0E3FC9DF80F3043B10D4B1B6813F0E7
:108D1400040F03D00B4B1B68032B04DC9DF80F00DE
:108D240005B05DF804FB084BD3F80435074A0092FC
:108D340040F2A6320649042004F056FCEEE700BFD8
:108D4400102F00200C2F002000100140E4340400F8
:108D5400733404002DE9F0438FB004460E461546E3
:108D64001F46D0F81890037823B181884846FFF74E
:108D740061F9A06104F10C00A378002B3AD0012121
:108D840062780DF128084346082A14BF0022012204
:108D940003F09FFCC4F81890CDF80880039663781C
:108DA400EA1A92B2ADF810203244089207978DF86F
:108DB40024300023ADF81830237B022B1CD0A37879
:108DC4006BB3237B022B1BD02546002345F8243F9D
:108DD4002A46E178206A0EF0DBFA606A98B101A9AC
:108DE400FFF782FF00283AD12A46E178206A0EF084
:108DF400CFFAF2E70221C3E71023ADF81830DEE71B
:108E040023690593E0E7237B022B2CD104F10C01A9
:108E1400E0890EF06BFB0028D3D1052020E000236D
:108E24006362237B012B0DD02146002341F8243FAC
:108E3400A08A0EF0CAFA01A9606AFFF755FFA0B92B
:108E440005200DE004F12401E0890EF0BEFA01A929
:108E5400606AFFF749FF0028E6D0002000E0002008
:108E64000FB0BDE8F0830520FAE70020F8E7000022
:108E740070B5F0B00D4614461E4610AB0A460146C6
:108E84002046FFF767FFA0B11F4B1B6813F0040FC8
:108E940037D01E4B1B68052B33DD1D4BD3F804352F
:108EA4001C4A009240F219621B49062004F09CFB04
:108EB40027E003AB01228DF80C20A28AADF80E2026
:108EC400002204928DF8142010AA06926278AD1A3A
:108ED400ADF81C5008AA93E8030082E803000AAB2B
:108EE40004F10C0292E8030083E80300A37D8DF8EB
:108EF4003830236A0C93636A0D930F9605A800F02B
:108F040005FB70B070BD00BF102F00200C2F002097
:108F1400001001401C3504007334040010B5D47DE6
:108F240014B1FFF791FD10BDFFF7A2FFFBE770B589
:108F340004460D461646808A01F0D6FF01281AD150
:108F4400237BD3B1022B0BD094F91630002B16DB04
:108F5400237853B1324629462046FFF729FE0BE019
:108F64002369002BF0D1102006E032462946204622
:108F7400FFF7A6FB00E0102070BD1020FCE70720DF
:108F8400FAE7000010B54FF4E0720021134819F01D
:108F940099FD05F089FD0024114B1C6040222146F7
:108FA400104819F08FFD104B104A1A60104A5A608D
:108FB4004CF250329A600F49D9601A6104221A7532
:108FC4009C7508225A750C4803F01EFA0B4B186066
:108FD4000B4B1C600B4805F069FE10BDD84D0020FA
:108FE400BC4D00207C4D0020C04D00208096980090
:108FF400F049020020A10700A9910200784D002049
:109004006C4D00207183020008B505F0C5FC08BD55
:10901400C0B110B58CB004460369B3B1C369B3B130
:109024008369B3B101466846FFF7B6F8034610B149
:1090340018460CB010BDA28A21696846FFF777FF75
:109044000346F5E70E23184670470E23F0E70E2378
:10905400EEE70E23ECE7D0B110B58CB004464268BD
:10906400BAB18269BAB1027C022A16D0BAB190F9B7
:109074000020002A15DB0A4601466846FFF7E2F89D
:10908400A26861686846FFF752FF0CB010BD0E205D
:1090940070470E20F9E70E20F7E71020F5E71020BF
:1090A400F3E70720F1E70000037B012B01D0002048
:1090B400704730B58DB001AC00230293CDF80B306E
:1090C4008288C2F386158DF8045092008DF805202D
:1090D4000A0E8DF806200A0C8DF807200A0A8DF86E
:1090E40008208DF809100622069201228DF820200E
:1090F400828AADF8222009938DF810300594026A13
:109104000A928DF81C30C389ADF81E3090F82C30CB
:109114008DF82D30837D43B98DF82C306FF001012B
:1091240004A8FFF798FF0DB030BD024B5B7D8DF8AE
:109134002C30F3E7C04D002038B590F84830022BAE
:1091440000D038BD90F86830022BFAD10446C16CC7
:10915400FFF7AAFF0028F4D1002384F86830E56CF7
:10916400237853B1E3795A1C01239340013B9D4278
:10917400E7D12046FFF779FBE3E77846FEF7F4FCF6
:10918400F0E7000010B5002407E0C4EBC4021301AB
:1091940003481844FFF7D0FF0134032CF5D910BD60
:1091A400D84D002008B5FFF7DBFAFFF7EBFF0120ED
:1091B40008BD00002DE9F04182B007460E46144672
:1091C40098461046FEF7C4FF054620B1A28883885E
:1091D4009A4210D312D82046FFF706F9B8B10378A3
:1091E4004BB123787BB1E1794B1C012199400139C2
:1091F4002046FFF759FF02B0BDE8F0810521FFF7D3
:1092040055FB0025E7E77846FEF7AEFCEBE7002DBB
:1092140056D05F4B1B6813F0040F04D05D4B1B68E2
:10922400032B00F385802846FFF7C2FA2B7B012B22
:1092340000F08C80EA6CA17901238B401A42DAD1C8
:109244001343EB64A279EB799A4200F08880E37DC2
:10925400002B00F08F800823B34240F08D80EB6E2A
:10926400A079E27D002A00F08C8008243246394639
:1092740004FB003019F0FDFBEC6C2B78002B00F0A4
:109284008280EB795A1C01239340013B9C42B2D16A
:10929400022385F86830E96C2846FFF705FF044689
:1092A40043462A46B5F84A10E86EFFF737FE002C0D
:1092B400A1D1002385F868302846FFF7D6FA9AE74B
:1092C400E279531CE17DE9B1082202FB03F2D9B132
:1092D4004FF4807393421AD22D4B1B6813F0040F82
:1092E40089D02C4B1B68002B85DD2B4BD3F8043520
:1092F40001922A4A009240F236322949012004F0B0
:1093040073F978E70C22E0E74FF4C073E2E7022137
:109314002046FFF7CDFB054600287FF47AAF0021F5
:109324002046FFF7C1FE02210020FFF70BF862E799
:10933400194BD3F80435A27901921A4A009240F2EB
:1093440051321749042004F04FF96CE795F868305E
:10935400002B7FF46FAF2846FFF740FA6AE79BB211
:10936400E27D2AB1082203FB0263A5F84A3076E7BE
:109374000C22F8E70C236FE704212846FFF796FA3E
:1093840039E70C2472E77846FEF7EEFB79E700BF75
:10939400102F00200C2F002000100140F83404008E
:1093A400733404000C3504002DE9F0418EB000281C
:1093B4004AD00546002A49D0984614460E46002253
:1093C4000C920D920CA960880EF090F820B9002739
:1093D40038460EB0BDE8F0812269E168208905F0C5
:1093E4000FFB08B10027F3E72269E168208905F043
:1093F400DBFA0746C8B96B46424621462846FFF7C2
:1094040023F803AB0EAA12E9030083E8030002F079
:1094140083FF9DF8003083B143466A46311F281DFF
:10942400FFF7C8FE02F0BCFFD2E72169002201F079
:1094340001012089FEF76AFFCAE743466A46711EA6
:10944400681CFFF76BFDEDE70E27C1E70E27BFE7AA
:1094540010B50C4691F84830022B0BD1022384F846
:109464006830E16C2046FFF71FFE10B9002384F832
:10947400683010BD7846FEF777FBEFE7F8B500B328
:109484000546164B1F68F7B90E463C46B4420ED249
:1094940005EBC4035B68CBB115F8340010F0800F02
:1094A40016D1B8B1FEF7FEFEB0B90134EEE70C4BAD
:1094B40043F8375003EBC7035E607B1C074A136015
:1094C40002E00E2700E004273846F8BD0E27FBE72C
:1094D4000B27F9E70F27F7E70F27F5E76C4D002077
:1094E400704D0020084B196861B110B504E00648BE
:1094F40003F0E5FF214624B10C680B79002BF9D069
:10950400F5E710BD704700BF9C4F002038B50546F5
:1095140030B1104B1C68ACB10F4B01221A7004E03F
:109524007846FEF721FBF4E724683CB12379002B4D
:10953400FAD154F8043C28469847F5E7064B1B78C3
:10954400022B00D038BDFFF7CDFF034B00221A7069
:10955400F8E700BF9C4F0020984F002010B5044648
:1095640030B100232372211D034803F07DFF10BD99
:109574007846FEF7F9FAF4E79C4F002010B504464C
:1095840058B10A4B1B78013BDBB2012B09D8074BBE
:1095940002221A700123237210BD7846FEF7E4FA02
:1095A400EFE7211D024803F08AFFF5E7984F0020FA
:1095B4009C4F00200A8883689B5A07339BB223F090
:1095C400030313449BB20288043A934200D9002354
:1095D4000B80704710B582B004468368C91AADF891
:1095E40006100DF10601FFF7E5FFBDF80630A0688F
:1095F400184402B010BD0088043880B27047438814
:109604008268D018D1520123837070478268002386
:109614009370438083807047073189B221F003013E
:1096240089B2428883889A4204D29B1A99421EDCEA
:109634000020704710B59A420FD90488A41AA14299
:1096440017D98B4217D3032C03D9836813440422FC
:109654009A7000234380184604E0826813449B7880
:109664000BB1042010BDFFF7D1FF0020FAE704205E
:1096740070470020F6E70420F4E738B504460D46A9
:109684008368828813448B4202D07846FEF76CFAD2
:109694000023AB70211D2046FFF78CFFA288A3682E
:1096A40013449B78042B00D038BD0023A380FBE730
:1096B40010B50C468368428813448B4202D0784626
:1096C400FEF752FA0023A37010BD70B50646154686
:1096D4000C46002944D0002E46D0B4F1005F08D9CE
:1096E4004FF08053D3F80C3103F50023B4EB832FF0
:1096F4000ED3B4F5000F08D94FF08053D3F80C31D2
:1097040003F50053B4EB832F02D37846FEF72CFA0B
:109714006B1E2344B3F1005F08D94FF08052D2F896
:109724000C2102F50022B3EB822F0ED3B3F5000F08
:1097340008D94FF08052D2F80C2102F50052B3EB55
:10974400822F02D37846FEF70FFA042D10D9358004
:1097540000237380B380B460043D2580A37070BD82
:109764007846FEF701FAB6E77846FEF7FDF9B4E766
:109774007846FEF7F9F9EAE738B50446A0B16288FD
:10978400A36813449B78012B12D0EFF3108572B6B3
:10979400A388A16819448B78032B0DD02046FFF7CA
:1097A40035FF05B962B638BD7846FEF7DDF9E6E760
:1097B4007846FEF7D9F9E8E72046FFF70BFFA368E0
:1097C400C31A638000238370EBE72DE9F0410E4652
:1097D40015460446D0B1EEB16288A36813449B7861
:1097E400012B1BD025B32046FFF705FFA84221D348
:1097F400EFF3108872B629462046FFF70DFF07469F
:1098040080B1B8F1000F16D162B614E07846FEF7C5
:10981400ABF9E0E77846FEF7A7F9DDE77846FEF70F
:10982400A3F9DFE729462046FFF7E9FE3060E8E7C1
:10983400092700E009273846BDE8F081F8B50C4651
:1098440016460546E0B1FCB1A378012B20D123884C
:10985400B34221D326B3EFF3108772B626800223D6
:10986400A370E9182846FFF7A5FE6B88AA889342DF
:1098740003D0AA68134400229A7007B962B6F8BDEF
:109884007846FEF771F9DEE77846FEF76DF9DBE717
:109894007846FEF769F9DAE77846FEF765F9D9E71D
:1098A4007846FEF761F9D6E770B50D46044690B1E7
:1098B400ADB1EFF3108672B6A288A36813449A7808
:1098C400042A10D09A78022A15D0032A18D0052029
:1098D40006B962B670BD7846FEF746F9E8E7784601
:1098E400FEF742F9E5E7211D2046FFF763FEA28853
:1098F400A3681344E6E703229A702B600020E7E78D
:109904007846FEF731F90020E2E738B5044680B125
:10991400EFF3108572B6A088A16801448B78042BFC
:109924000BD08878022814BF0020012005B962B644
:1099340038BD7846FEF718F9EAE72046FFF74AFEF5
:109944000146EEE738B5044678B1EFF3108572B6F8
:10995400A088A16801448878C31EDBB2012B08D813
:109964002046FFF737FE0146F5E77846FEF7FCF898
:10997400EBE7022814BF0020012005B962B638BD08
:1099840070B50C46064678B194B1EFF3108572B603
:10999400A378012B10D0032B13D121463046FFF7B7
:1099A4006CFE05B962B670BD7846FEF7DDF8EBE7EC
:1099B4007846FEF7D9F8E8E721463046FFF778FE07
:1099C400EFE77846FEF7D0F8EBE710B5EFF3108435
:1099D40072B68388816819448B78042B06D0887802
:1099E400B0FA80F0400904B962B610BDFFF7F2FD89
:1099F4000146F4E708B5064B986800221A605A60DD
:109A04009A60DA601A615A619A6104F0D5FD08BD62
:109A1400A04F002000B585B00A4BDB6802228DF808
:109A2400002001934FF480530293074A69460120B2
:109A340001F070F918B9012005B05DF804FB0020AD
:109A4400FAE700BFA04F0020BC4F002000B585B04E
:109A54000A4B1B6802228DF8002001934FF48053B7
:109A64000293074A6946012001F054F918B901200C
:109A740005B05DF804FB0020FAE700BFC04F0020EA
:109A8400BC4F0020164BDA68137951795B1A03F541
:109A94007F2303F6FF7302EB03339A4205D002F5EA
:109AA40080520F4BDA600320704700B585B00D4B30
:109AB4001B6801208DF8000001930B4B03930423D2
:109AC40002930A4A694601F025F918B1002005B04D
:109AD4005DF804FB024B01221A760220F7E700BF6F
:109AE400A04F0020C04F0020C44F0020BC4F0020D6
:109AF40000B585B00C4BDA680C4B1B6804330120AD
:109B04008DF800000192039340F6FC730293084A17
:109B1400694601F0FFF818B90120034B187600E0FC
:109B2400002005B05DF804FBA04F0020C04F0020CA
:109B3400BC4F002000B585B00A4B1B6801208DF88E
:109B440000000193084B039304230293074A6946D8
:109B540001F0E0F818B9012005B05DF804FB00201D
:109B6400FAE700BFC04F0020AC4F0020BC4F0020DC
:109B740010B584B0104BDA681478104B1B680433AA
:109B840001208DF800000193039202940C4A694667
:109B940001F0C0F868B9094B1B6804F0FC041C44CC
:109BA4000434054B5C61D9680A780A441A610120BF
:109BB40000E0002004B010BDA04F0020C04F0020E2
:109BC400BC4F002008B50023092B09D8064A52F8D7
:109BD4002320824201D00133F6E7044A536002E0B5
:109BE4007846FDF7C1FF08BD48350400A04F0020AA
:109BF40010B5214BDB6853B11F4B1B7E5BB91E4B69
:109C04005B68092B26D97846FDF7AEFF22E078463B
:109C1400FDF7AAFFF0E77846FDF7A6FFEFE7164A3F
:109C2400536801335360092B21D97846FDF79CFF13
:109C34001DE0114B00225A6019E00F4B1B7E1BB133
:109C44000D4B02221A7012E0FFF7D4FE0FE00A4B0C
:109C54001B7E83B9084B5A68084B53F82230984747
:109C640004460228E9D00328E3D00128D7D0012CE8
:109C7400EDD0032CEBD010BDA04F002048350400DC
:109C8400104B1B681B685A1E12F1030F18D8C3F33C
:109C94000B020AB10020704710B50B4AD3600023B1
:109CA400137653760124147093600848FFF78AFFF3
:109CB4000749204601F01CF8FFF79AFF204610BD23
:109CC40000207047C04F0020A04F0020199A0200C6
:109CD400D99C020008B50B78032B06D00B4B1B78DC
:109CE400012B06D0022B0BD008BD084B00221A769C
:109CF400F4E7064B1B7E002BF6D1FFF779FFF3E761
:109D04000B78032BF0D1FFF775FEEDE7A04F002091
:109D140000B585B0174BDB6818784FF6FF7203F572
:109D24008051184404F078FFF0B10246114BD96811
:109D34000B780B44984219D00E4B5B7E93B10E4BBB
:109D440001208DF8000001920393042302930B4A2F
:109D5400694600F0DFFF58B90120064B187605B0BC
:109D64005DF804FB064BEBE70120F8E70120F6E77A
:109D74000020F4E7A04F002068370400BC4F002007
:109D84006437040008B5104BDB681878002203F52B
:109D94008051184404F040FF08B1012008BD0A4B6B
:109DA400DA68137951795B1A03F57F2303F6FF739D
:109DB40002EB03339A4205D002F58052024BDA607B
:109DC4000320EBE70220E9E7A04F0020F0B585B0BF
:109DD400514BDD686A792B79591E8A4214D005F5F6
:109DE40080510C780C444D490968081D0E790644CD
:109DF4009B1A05EB03356388013B9BB247F6FE6271
:109E0400934260D927461BE00120434B58767EE0FD
:109E14007846FDF7A9FE16E027F47F6323F00F03CD
:109E240003F580531A7813449D4247D99C4247D284
:109E34005A88013A92B21F4647F6FE618A4210D907
:109E44003B88002BE4D03B8807EB830323F47F6239
:109E540022F00F029342DFD07A88B2F5FE4FE3D1AD
:109E6400DAE71C462FE07846FDF77EFE16E027F47D
:109E74007F6323F00F0303F580531A7813449D4244
:109E840020D99C423BD25A88013A92B21F4647F6E7
:109E9400FE618A4210D93B88002BE4D03B8807EB53
:109EA400830323F47F6222F00F029342DFD07A8887
:109EB400B2F5FE4FE3D1DAE71C4604E0002402E0E9
:109EC400002400E00024E4B1144B1968628801F511
:109ED4008051304604F0A0FE064690B101200E4B9E
:109EE40018768DF8000001940D4B0393042302931C
:109EF4000C4A694600F00EFF58B92746CBE7002408
:109F0400E1E7B4FA84F46409034B5C76012005B0FC
:109F1400F0BD0020FBE700BFA04F0020C04F002091
:109F240060370400BC4F00202DE9F04186B0644B3B
:109F34001B6923B1624B5B692BB1002748E078466B
:109F4400FDF712FEF6E77846FDF70EFEF5E77846D4
:109F5400FDF70AFE17E028F47F6323F00F0303F5EF
:109F640080531A7813449E421FD99C4221D25A88A6
:109F7400013A92B2984647F6FE618A4213D9B8F87C
:109F84000030002BE3D0B8F8003008EB830323F44F
:109F94007F6222F00F029342DDD0B8F80220B2F5BE
:109FA400FE4FE0D1D7E71C4600E000241CB100942A
:109FB40038E00024FAE700230093019B002B5AD1D8
:109FC4000127002C76D0628847F6FF739A4271D03D
:109FD400002F73D13A4B5A6922F47F6525F00F059F
:109FE400AD1A05F580551C69DE68337972799B1AC0
:109FF40006EB0336002301936388013B9BB247F6CB
:10A00400FE629342D3D9A046B9E77846FDF7ACFD8A
:10A0140023E024F47F6424F00F0404F580542378AF
:10A0240023441C46A642C8D92388019A02EB830222
:10A034009542C2D9009B634023F47F6323F00F034E
:10A04400002BBAD16388013B9BB247F6FE618B4279
:10A05400B3D801922388002BD7D0238804EB830341
:10A0640023F47F6222F00F029342D2D06288B2F5C9
:10A07400FE4FD6D1CDE7124A526901208DF808006F
:10A084000392009A059204930E4A02A900F042FE3C
:10A0940070B90B49019B23F003024B6913444B61D4
:10A0A40014B1074B1C618CE77846FDF75DFDF8E7BA
:10A0B400002000E0012006B0BDE8F0810120FAE7AD
:10A0C400A04F0020BC4F002008B54FF010235B695F
:10A0D400B3F1FF3F09D04FF010235B692BB14FF070
:10A0E40010235B69A3F5805305E04FF0805251695A
:10A0F400136903FB01F3A3F58053024A1360FFF7CE
:10A10400BFFD08BDC04F002010B50446B0B1104BD0
:10A114001B78BBB10E4BD968E3685879A3EB0032C6
:10A12400914211D31A79121A02F57F2202F6FF72B4
:10A1340003EB0233994209D8012004E07846FDF785
:10A1440013FDE4E7002010BD0020FCE70020FAE73F
:10A15400A04F0020024B1878003018BF0120704730
:10A16400A04F002010B504460E4B1B7893B92378FA
:10A17400032B13D10B4B9C60E268DA6000225A6017
:10A184001A76012018705A76074900F0B1FDFFF7DE
:10A194002FFD10BD7846FDF7E7FCE8E77846FDF7AC
:10A1A400E3FCE7E7A04F0020D99C0200014B1868AC
:10A1B400704700BFC04F002010B5044680B16368EB
:10A1C4001BB123680BB1A36813B97846FDF7CCFC27
:10A1D400A3685A1E134207D10023E360236110BD14
:10A1E4007846FDF7C1FCEAE77846FDF7BDFCF3E7E6
:10A1F40070B5F0B104468368EBB1EFF3108572B625
:10A204000369C068834210D0084621686268A66862
:10A21400013E334003FB021108B118F02AFC236904
:10A22400013323614DB962B608E005B962B605256C
:10A2340004E00E2502E0092500E00025284670BD53
:10A244000246C0F30B0048BB51B310B401F6FF71D2
:10A254000C0B144B0221C3F80415124BD3F8003431
:10A26400002BFAD0014602E002F580520131A142EE
:10A2740008D20C4BC3F808250A4BD3F80034002B42
:10A28400FAD0F1E7074B0022C3F80425054BD3F8B5
:10A294000034002BFAD05DF8044B7047102070474F
:10A2A4000920704700E0014010F0030F2FD111F096
:10A2B400030F2FD182B312F0030F2FD110B49208E1
:10A2C400174B0124C3F80445154BD3F80034002B75
:10A2D400FAD002E0043004312246541E52B10B6815
:10A2E400B3F1FF3FF6D003600D4BD3F80034002BDD
:10A2F400FAD0EFE70A4B0021C3F80415084BD3F852
:10A304000034002BFAD010465DF8044B704710223D
:10A31400104670471022FBE70922F9E70922F7E704
:10A3240000E001404388012B05D0022B01D1043009
:10A3340008600120704704304860FAE708B5082235
:10A344000221084803F0A9FF38B1074A9168416027
:10A35400127B027203F0DAFF08BD044804F004F92A
:10A36400FAE700BFD04F00201C500020D02E002060
:10A374000E4B1B78CBB910B50D4B5C6804F500543B
:10A38400B4F1807F00D910BD04220121094803F0F3
:10A3940084FF30B14460054A0121117003F0B6FF17
:10A3A400F1E7054804F0E0F8EDE77047305000208D
:10A3B4001C500020D04F0020C02E002010B50446B1
:10A3C40008B1A04710BD7846FDF7CEFBF9E70000C1
:10A3D40008B501210C4803F0C1FF20B902210A4845
:10A3E40003F0BCFF28B1094804F0BEF8FFF7C0FF32
:10A3F40008BD074A0023136053609360D360136160
:10A40400044A1370F2E700BFD04F0020F02E002062
:10A414001C500020F44F002000B58DB00B4B1B7B6B
:10A42400012B0ED0094A926804928DF808300390EB
:10A4340002238DF8043001A8FFF768F80DB05DF829
:10A4440004FB024A9268013A0492EEE71C50002091
:10A4540010B58CB00C4682B94B88012B20D1134B1C
:10A464001B7833B16268124B5A60104B00221A7089
:10A4740016E07846FDF778FBF4E7032A12D12C2284
:10A48400002101A818F01EFB11238DF80430039459
:10A49400084BDA6805921B69069301A8FFF736F8A2
:10A4A4000CB010BD7846FDF75FFBE8E730500020A4
:10A4B4001C500020D04F002000B583B001F02CFFC9
:10A4C4000021009101916B46134A144803F0DAFD10
:10A4D400009B63B1019A52B11868114988601879D8
:10A4E400087393420BD950B900220A600AE00C4B5E
:10A4F40000221A609A601A73FFF720FF02E01268C4
:10A50400074B1A60064B1A685A60FFF731FF01F0D7
:10A5140047FF03B05DF804FB29A30200D04F0020DD
:10A524001C50002008B504F073F8A0F5805008BD55
:10A5340000B587B00023009301930293039304931F
:10A544000593FFF7EFFF009001230193064B03935C
:10A554006946064803F0B9FF10B907B05DF804FB7B
:10A56400034804F001F8F8E755A40200D04F002096
:10A57400E02E002010B50B4B00241C605C609C6036
:10A58400DC601C6101F054F9074B5860074A9A607B
:10A59400074ADA601C615C61064B1C70FFF7C8FF58
:10A5A40010BD00BF1C500020F84F0020E9A6020097
:10A5B400008793033150002008B5084B1B7803B182
:10A5C40008BD0748074B036000F052FE064801F03F
:10A5D400B9F8024B01221A70F2E700BFCC4F0020F9
:10A5E4001050002011A80200F84F002010B501F00F
:10A5F40093FE164B1B7B0BBB144B9B7B1BBB134B60
:10A604001A8A41F282639A4204D8114B1B782BB107
:10A61400012300E001231BB9082410E00023FAE71A
:10A624000A4B01221A7300241C829A6801329A6030
:10A63400FFF784FE2046FFF7EFFE00E0082401F058
:10A64400AFFE204610BD0824F9E700BF1C500020CF
:10A654003150002010B501F05FFE204B5B7B9BB1B5
:10A664001E4B9B7BF3B91D4B1A8A41F282639A42BB
:10A6740004D81B4B1B782BB1012300E001239BB1B1
:10A68400012302E00023FAE700231C460BB3134B1B
:10A6940000225A731B7B4BB1012B0ED07846FDF779
:10A6A40063FA16E00023F0E70023EEE7FFF79EFFCE
:10A6B40078B17846FDF758FA0BE0084B0020186093
:10A6C400586018731882FFF7A7FEFFF737FEFFF7ED
:10A6D4004FFE01F065FE204610BD00BF1C50002057
:10A6E4003150002008B5214B1B7B7BB1012B20D0BE
:10A6F4007846FDF739FA1D4A138A013313821B4B3E
:10A704005B8A13B1013B194A538208BD174B1A8A5D
:10A7140041F282639A4204D8154B1B783BB1012362
:10A7240000E00123002BE6D0FFF794FFE7E70023C6
:10A73400F8E70E4B1B8A41F28262934204D80C4A1A
:10A74400127872B1012200E00122002AD3D042F231
:10A75400B012934207D9054B01225A73FFF77AFFCF
:10A76400CDE70022F1E7FFF775FFC4E71C50002096
:10A774003150002010B5244B1B7B002B35D10446EF
:10A78400214B5B8A2BBB1AB91F4B9B688B4205D3A9
:10A79400FAB11D4B9B6801338B421AD21A4B9B684A
:10A7A4002A338B4223D3184B9B7B03BB164B9960F4
:10A7B40000221A605A601A8242F6065159825A736C
:10A7C4001A73FFF7BBFDFFF7D3FD2046FFF724FE06
:10A7D4000DE062B10C4B9B6801338B4207D10A4BED
:10A7E40001225A73FFF736FF01E0012B00D010BDA0
:10A7F400002AFCD1044B9B688B42F8D1024B012206
:10A804005A73FFF727FFF2E71C5000200378042B4C
:10A8140000D0704743681B78002BFAD010B58468C9
:10A82400027E437E012A14BF00220122416904F101
:10A834001000FFF79FFF10BD10B5184B1A685B6836
:10A844009A4226D20446154B1B7B012B14D0144B81
:10A854009A4213D2114B1A685B68403B9A4215D254
:10A86400EFF3108172B60D4A1368581C1060236010
:10A8740001B962B6002010BD0A4BE9E7074B01227B
:10A884005A73FFF7E7FE0028EAD1E3E7FFF770FD0C
:10A89400E6E7FFF76DFD0F20EDE700BF1C50002039
:10A8A400FFFF7F0000E0FF0008B538B10D4B012227
:10A8B4009A730D4A13680133136008BD0A4B1B6871
:10A8C4005BB1094A1368013B1360002BF5D1054BBA
:10A8D40000229A73FFF7BEFEEFE77846FDF744F9CE
:10A8E400EFE700BF1C500020C84F002000B58DB01A
:10A8F400ADF808008DF81020039103238DF804307F
:10A9040001A8FEF703FE0DB05DF804FB014B986847
:10A91400704700BF1C500020054B1B7B012B02D04D
:10A92400034B98687047024B98680138704700BF22
:10A934001C500020044B9B68584010F0010F00D0BD
:10A94400013B1846704700BF1C500020014B187B88
:10A95400704700BF1C50002038B50B4B1B780BB15F
:10A96400082038BD084B01221A70084DA8602973CD
:10A97400FFF7E4FC0020FFF74FFD00242C606C601F
:10A98400FFF7F6FC2046ECE7F44F00201C500020B3
:10A994002DE9F041002722E02449BC2303FB04F302
:10A9A400CA5A0132CA520221404602F0CDFB013696
:10A9B4000221404602F098FB70B11C4ABC2303FB01
:10A9C40004239D68002DE7D0BC2303FB04F3D25A73
:10A9D40001463846A847DFE796B90137FFB2022F90
:10A9E40020D83C46BC2303FB07F308330F4D1D441A
:10A9F40005F104080221404602F076FB0026DBE75D
:10AA04000021404602F008FC0828E6D1074BBC228E
:10AA140002FB0434A368002BDFD00022044938462B
:10AA24009847DAE70120BDE8F08100BF3C500020E0
:10AA34007035040008B5082383731023437300F1B1
:10AA44001C0343610323037300F1180303610C30F7
:10AA540002F0B4FB08BD000008B50378012B06D052
:10AA6400022B06D07846FDF77FF8002002E029206B
:10AA740000E0014808BD00BF084C010008B5027899
:10AA8400012A07D0022A13D07846FDF76DF84FF457
:10AA9400FA7308E083685B1A9B0803EB830003EBFB
:10AAA400C00303F5FA730748984228BF184608BD47
:10AAB40083685B1A180B044B03FB00F303F5FA736A
:10AAC400F1E700BF60850100084C010038B5044679
:10AAD40001210C3002F008FB054678B1084BC4F89C
:10AAE4009C300023C4F8A0306168FFF7C7FFC4F8A6
:10AAF400A800C4F8AC40012384F8B830284638BD17
:10AB040025AC020010B50446FFF7E0FF20B104F1C4
:10AB14009C000DF0A7FA00B910BD7846FDF724F8A3
:10AB2400FAE70000F8B506460C46174615680378A0
:10AB3400012B18D11249A1FB043149098900B468D9
:10AB4400641B8C4200D30C468CB1706825F003055D
:10AB5400F168224629442844FFF7A6FB58B93B680C
:10AB64001C443C60F8BD7846FCF7FEFFE2E77846FB
:10AB7400FCF7FAFFE9E77846FCF7F6FFEFE700BFDA
:10AB84007D0CCEC7F8B507460C4616461568037803
:10AB9400022B16D1114BA3FB04231B0C1B03BC6813
:10ABA400641B9C4200D31C467CB1786825F00305E5
:10ABB40021462844FFF744FB58B933681C443460E9
:10ABC400F8BD7846FCF7D0FFE4E77846FCF7CCFF05
:10ABD400EBE77846FCF7C8FFEFE700BFEB0661C57B
:10ABE40038B505460C4611462378012B06D0022BB6
:10ABF4000FD07846FCF7B8FF002304E0021D20467E
:10AC0400FFF790FFA3686868984214BF00200120F2
:10AC140038BD021D2046FFF7B5FFA368F3E7000027
:10AC24002DE9F8438846D1F8A860234B1B7863B913
:10AC34000546A6F5FA7601F10C090121484602F011
:10AC440053FA074640B1002424E00DF047FA0023EC
:10AC540088F8B830BDE8F8837846FCF785FFF2E75A
:10AC64000DF03CFA0121484602F06EFA0023C8F8C0
:10AC7400043088F8B830114B186801F0E5FB404601
:10AC8400FFF740FFE6E72C1A3846FFF7E5FE2044BD
:10AC9400B0420BD8321B39464046FFF7A1FF0028CB
:10ACA400DED101F011FA441BEED5ECE70DF016FAF3
:10ACB4004046FFF727FFCDE73850002034500020EE
:10ACC40010B5084801F0A0FB074B18600024022CC3
:10ACD40007D8064BBC2000FB0430FFF7ABFE013461
:10ACE400F5E710BD95A90200345000203C50002027
:10ACF40038B504460D46022805D8054BBC2202FB94
:10AD04000434A56038BD7846FCF72EFFF5E700BF94
:10AD14003C5000202DE9F84306460C46174602280D
:10AD240016D8CCB12378012B1AD0022B3ED16368FC
:10AD3400C3F30B03002B31D1A368C3F30B03002B24
:10AD440030D1A368002B34D17846FCF70DFF30E0F6
:10AD54007846FCF709FFE4E77846FCF705FFE1E7EE
:10AD6400636813F0030F0DD1E36813F0030F0DD1E3
:10AD7400A36813F0030F0DD1A368D3B97846FCF789
:10AD8400F3FE16E07846FCF7EFFEEDE77846FCF7B5
:10AD9400EBFEEDE77846FCF7E7FEEDE77846FCF7D7
:10ADA400E3FEC9E77846FCF7DFFECAE77846FCF71E
:10ADB400DBFEEFF3108872B6BC2505FB06F505F142
:10ADC40008032A4D1D4404350021284602F08CF95D
:10ADD400814678B30021284602F0B6F920686168FC
:10ADE400A268E368C9F80000C9F80410C9F808208B
:10ADF400C9F80C302FB11D4ABC2303FB06235B8822
:10AE04003B801A4ABC2303FB06235A8801325A802A
:10AE140093F8B83083B9164B1B7813B10024A146BC
:10AE24000CE0124BBC2000FB0630FFF74FFE8146BE
:10AE3400002403E0042401E00024A146B8F1000F3B
:10AE440000D162B6B9F1000F09D0BC2000FB06F6B0
:10AE540098360648304404300DF004F910B9204601
:10AE6400BDE8F8837846FCF77FFEF8E73C50002005
:10AE74003850002038B50446EFF3108572B610B987
:10AE8400164B1B6873B18CB1144A136801331360F9
:10AE9400124B1B68003318BF0123114A137005B904
:10AEA40062B638BD7846FCF75FFEECE70B4B1C68D6
:10AEB400013C1C6034B1EBE7BC2000FB0420FFF72D
:10AEC40021FE0134022CE3D8064ABC2303FB0423ED
:10AED40093F8B830002BF4D1EEE700BF7052002095
:10AEE400385000203C50002018B1830B024AD05C3B
:10AEF40070470020704700BF8035040012DF7047A0
:10AF040000B583B01378A3B1042B14D0002110F83A
:10AF1400013C163B152B31D8DFE803F059303030B3
:10AF24003030303030303030303030303030302E1F
:10AF34000F3A517DEBE70721E9E7022901D0072900
:10AF44001CD110F8021C013901F06AFEB0B1264B85
:10AF54001B6813F0400F11D0244B1B68012B0DDD2F
:10AF6400234BD3F804350190224A009291222249BE
:10AF7400022002F039FB01E0022902D003B05DF89F
:10AF840004FB10F8021C0139C9B213F039FCF5E7CF
:10AF94000229F3D110F8021C0139C9B203F0BAFD39
:10AFA4000028EBD0104B1B6813F0400FE6D00F4B7A
:10AFB4001B68012BE2DD0E4BD3F8043501900F4AD8
:10AFC4000092A4220C49022002F00EFBD6E701886D
:10AFD4004FF6E4639942D1D110F8021C03390230D0
:10AFE400FCF710FDCAE700BF102F00200C2F002033
:10AFF40000100140F0350400E33504001C36040061
:10B0040070B58AB00DF0B0FD48B3064600238DF844
:10B01400103005AC05460FCD0FC42B682360727D3C
:10B02400052A04D9337D03F00F03072B1ED1174BD8
:10B034001A688AB104AB0393337DC3F303038DF819
:10B044000430737D062B1BD9063B8DF8053006F1C1
:10B054001D03029301A8904730460DF065FD0DF0E5
:10B064009DFD80F00100C0B20AB070BD307D04AB1C
:10B07400063A06F11D0100F00F000CF0D9FAD6E7EC
:10B0840000238DF805300293E4E700BF78520020D6
:10B094000B4B1B78032B00D0704700B58DB0084BC9
:10B0A40004221A702C22002101A817F00BFD1B2387
:10B0B4008DF8043001A8FEF729FA0DB05DF804FB01
:10B0C4007452002070B582B02E4B1B78002B4FD1E8
:10B0D400002851D0067A0F2E01D0062E4ED10446F8
:10B0E40005F096FBE06870B1FCF71EFF0DF1070058
:10B0F400FFF704FF054600283BD19DF80730012BDC
:10B1040004D0022535E0FCF71DFFEFE7FCF73CFF18
:10B1140000F004FB304601F0ADF8E07800F028F9C7
:10B1240000F0A4FE0CF028FF17480DF0D3FD0CF03E
:10B134001FFCFFF7C5FD04F055FD00F0F7FC05F01A
:10B1440027FB204601F0CCFC2046FDF71BFF04F052
:10B15400CBF8FCF757FC08B1062811D10B480CF0CA
:10B1640049FA0B4B00221A60064B01221A7000E0C8
:10B174000825284602B070BD0E25FAE70725F8E732
:10B184000546F6E77452002005B00200002F0020A7
:10B194007852002010B582B01E4B1B78012B0DD0C5
:10B1A4005AB282B3033BDBB2012B2ED80CF04AFF18
:10B1B400044658BB174B02221A7027E00DF092FC8C
:10B1C40001F0A0FCFDF720FFFCF71CFC0446B8B11D
:10B1D400062815D0104B1B6813F4804F16D00F4B64
:10B1E4001B68012B12DD0E4BD3F8043501900D4A78
:10B1F400009240F297120C49022002F0F5F905E0A2
:10B2040001F064F8D2E7082400E00824204602B0E4
:10B2140010BD00BF74520020102F00200C2F0020FE
:10B224000010014084350400E335040008B50A4BDE
:10B234001B78022B02D00823184608BD064B0322B4
:10B244001A7006480CF0BAFE03460028F4D078467B
:10B25400FCF78AFC0023EFE77452002095B002004B
:10B2640008B5FDF7D5FE08BD08B501F055F908BDD0
:10B2740008B5FEF773F908BD08B5FEF77FF908BDF8
:10B2840008B500F0B9FD002008BD08B506F06CFE55
:10B2940008BD0000064A136801331360B3F1704F10
:10B2A40002D0034B18687047134601221A60F8E76E
:10B2B4007C52002010B5044618B10023236063605B
:10B2C40010BD7846FCF750FCF7E738B50C46054648
:10B2D40068B184B100236360EFF3108372B62A6807
:10B2E4006AB16A6854606C6003B962B638BD784666
:10B2F400FCF73AFCEDE77846FCF736FCEAE72C600D
:10B30400F1E710B5044658B1EFF3108372B6206824
:10B3140008B142682260226832B103B962B610BD36
:10B324007846FCF721FCEFE76260F6E710B50446C7
:10B3340008B1206810BD7846FCF716FCF9E735DF44
:10B344007047000008B54FF0FF30FFF7F8FFBFF378
:10B354004F8F0549CA6802F4E062044B1343CB6083
:10B36400BFF34F8F00BFFDE700ED00E00400FA05D6
:10B37400072814D8DFE800F0080C1504110F0A069A
:10B384006420704714207047FA2070471E207047CD
:10B394004FF4FA707047322070474B207047FA2000
:10B3A4007047962070470000024B5868103840B22E
:10B3B400704700BF00ED00E0034600280FDB5B117F
:10B3C400084A52F82330424200F01F0002F01F02E4
:10B3D40058BF504223FA00F000F00100704700F11A
:10B3E4001F03ECE700E100E046DF7047F8B50446D0
:10B3F4000D464B1EDBB2012B09D80022226162618B
:10B40400A261E2612046FFF7EFFF01200AE07846DF
:10B41400FCF7AAFBF1E7CB7B5B00CB73002F14DBBB
:10B424000130C0B2A84217D8214611F9207F002369
:10B434000E2BF0D8CA5CCE185200D2B2767842EA0B
:10B44400D612CA5401339BB2F2E794F82F3083F03A
:10B45400870384F82F30E3E7F8BD2DE9F04190B07D
:10B4640084460C4696461F4602F10F0636111FFA13
:10B4740086F804AD0068DCF80410DCF80820DCF879
:10B484000C300FC50EF00F05B8F1000F02D07DB1DE
:10B49400002300E00023984663B1012104A8FFF7CC
:10B4A400A5FFB8F1000F1AD0701E000110230EE0A2
:10B4B4000123F0E70221F1E7013B9BB22218D25CA1
:10B4C40010A9194411F8101C4A400DF80320002B50
:10B4D400F2D100250C950D950E950F9526E0711E61
:10B4E400ADB22A4604EB0111684617F0C2FA802374
:10B4F4000DF805306B1C03E000220DF80320013326
:10B504000F2BF9DD10230AE0013B9BB21DF8032049
:10B5140010A9194411F8101C4A400DF80320002BFF
:10B52400F2D1D6E704A8FFF75FFF0135731EAB42E3
:10B534000FDD28011023002BF4D0013B9BB210AA8D
:10B544001A4412F8102C2118C95C4A4008A9CA549C
:10B55400F1E710230AE0013B9BB210AAD11811F8BD
:10B56400402C11F8101C4A4008A9CA54002BF2D1EF
:10B5740004A8FFF739FF0CAC0FCC38607960BA60CF
:10B58400FB6010B0BDE8F08110B50446134B1B6896
:10B594004BB14068114B1B685B68C31A002B02DB7C
:10B5A4000E4B19680DE00D4B1A6862611C600B4A62
:10B5B400938801339BB2938063B10123237010BD40
:10B5C40019464B691BB15A68121A002AF8DB6361E9
:10B5D4004C61ECE77846FCF7C7FAEEE784520020AA
:10B5E40038B505461CE07846FCF7BEFA6369204A84
:10B5F40013600023636193889BB2591E89B29180C2
:10B60400F3B1A36803B302232370A3682169284616
:10B61400984700F00DF905462378DBB2022B17D0CA
:10B62400134B1B681BB3124B1B685B685B1B642BBF
:10B634001DD50F4B1C682378DBB2012BD6D0D2E783
:10B644007846FCF791FADCE77846FCF78DFADAE7FE
:10B65400E26812B900232370E2E76368134463606D
:10B664005B1B642BF9D42046FFF78EFFD8E738BD67
:10B674008452002010B50446144B1B68834207D043
:10B68400124B1B68D3B15A69A2420ED01346F9E794
:10B6940043690E4A136093889BB2591E89B2918004
:10B6A40063B97846FCF760FA08E062695A610749B1
:10B6B4008B889BB25A1E92B28A8013B100232370E6
:10B6C40010BD7846FCF750FAF8E700BF845200201A
:10B6D40008B5064B1B6833B1044B1B680449586812
:10B6E40000F054F908BD00F0AFF9FBE784520020E4
:10B6F40011B7020008B500F09BF8FFF771FF00F0E6
:10B7040097F8FFF7E5FF012008BD000008B5024BDC
:10B71400186800F099FE08BD8052002008B5064B59
:10B7240000221A605A60054800F06EFE044B18604F
:10B7340000F071F808BD00BF84520020F9B6020081
:10B744008052002010B5044600F052FF80B19CB135
:10B75400A368ABB12378DBB2012B15D0002363615E
:10B764002046FFF711FF00F063F8FFF7B1FF10BDAB
:10B774007846FCF7F9F9EAE77846FCF7F5F9E7E7E4
:10B784007846FCF7F1F9E5E77846FCF7EDF9E5E7EB
:10B7940010B5044600F02CFF50B16CB12046FFF701
:10B7A40069FF0023636100F043F8FFF791FF10BDC8
:10B7B4007846FCF7D9F9F0E77846FCF7D5F9EDE7D8
:10B7C40038B504460D4600F013FF70B18CB1204625
:10B7D400FFF750FF0023636165602046FFF7D4FE46
:10B7E40000F026F8FFF774FF38BD7846FCF7BCF983
:10B7F400ECE77846FCF7B8F9E9E70378DBB2012B0C
:10B8040007D00378DBB2022B01D00020704701205F
:10B8140070470120704708B516F0C0FF00B108BD9D
:10B8240016F030FF0028FAD07846FCF79DF9F6E7C9
:10B8340070B4EFF3108172B6184B1A68184BD3F832
:10B844000455D3F80431012B22D001B962B645EA7C
:10B85400026500266B01EA0E5B1B62EB06025102D5
:10B8640041EAD3515802431941EB0600810141EAF0
:10B8740093619A01D31A61EB00005B1946EB000057
:10B8840013F580437041DB0B43EA404070BC7047C2
:10B89400034BD3F804550132D7E700BF8C52002084
:10B8A4000010014010B50A4B4FF40032C3F848238E
:10B8B400C3F80823074B1B682BB1064B1C68FFF722
:10B8C400B7FFA04710BD7846FCF74EF9F5E700BF77
:10B8D4000010014098520020EFF3108172B6264BFD
:10B8E4000022C3F80421254A13680133136001B907
:10B8F40062B6234B1B68002B3DD0214B1A68013ADA
:10B904001A601B68002B36D103F1804303F588339A
:10B91400D3F804251B4B1B689A421ED2EFF3108206
:10B9240072B6154BD3F804350133164909688B42B6
:10B9340010D3114BD3F8043502330F49C1F8443501
:10B9440002B962B60C4B4FF40032C3F84423C3F877
:10B95400042370470B4B1B68EFE710B50A4B1B68B9
:10B964002BB1094B1C68FFF763FFA04710BD784655
:10B97400FCF7FAF8F5E77047001001408C520020FC
:10B9840090520020945200209852002030B583B089
:10B994000446002301930D46002936D0244B1D6034
:10B9A400FFF746FF031B002B33DB0023590CD8039E
:10B9B400204C214A002300194FF0000444EB0101FC
:10B9C40016F0F2FEEFF31083019372B61B4BD3F81B
:10B9D4000435022838BF0220C3F1FF1202F57F426A
:10B9E400824218D30344154AC2F844354FF4003355
:10B9F400C2F84433C2F80433114A1460114A146083
:10BA0400019B03B962B603B030BD7846FCF7ACF8CD
:10BA1400C4E7231ACAE7034403F17F4301331A0E30
:10BA2400013207490A6023F07F43064A1360E7E7BF
:10BA34009852002020A1070040420F00001001404E
:10BA44009052002094520020074B4FF40032C3F868
:10BA54004823C3F808230023044A1360044A1360EC
:10BA6400044A1360704700BF001001409052002048
:10BA7400945200209852002030DF704731DF704725
:10BA840010B402684368A2EB7312846883EAF43347
:10BA94000360C1680C444460114481601344C36072
:10BAA40018465DF8044B704770B582B00D460646E3
:10BAB40008B100240BE07846FCF756F8F9E79DF846
:10BAC40007103019FFF7DAFF9DF807301C44A54230
