:1000000000000120750300005D0300005F03000095
:1000100061030000630300006503000000000000AE
:100020000000000000000000000000006703000066
:1000300069030000000000006B0300006D03000076
:100040006F0300006F0300006F0300006F030000E8
:100050006F0300006F0300005D0C00006F030000E1
:1000600035110000451100006F0300006F03000010
:100070006F0300006F0300006F0300006F030000B8
:100080006F0300006F0300006F0300006F030000A8
:100090006F0300006F0300006F0300006F03000098
:1000A0006F0300006F0300006F0300006F03000088
:1000B0006F0300006F03000000000000000000005C
:1000C0006F0300006F0300006F0300006F03000068
:1000D0006F0300006F0300006F03000000000000CA
:1000E0000000000000000000000000000000000010
:1000F0000000000000000000000000000000000000
:1001000000000000000000000000000000000000EF
:1001100000000000000000000000000000000000DF
:1001200000000000000000000000000000000000CF
:1001300000000000000000000000000000000000BF
:1001400000000000000000000000000000000000AF
:10015000000000000000000000000000000000009F
:10016000000000000000000000000000000000008F
:10017000000000000000000000000000000000007F
:10018000000000000000000000000000000000006F
:10019000000000000000000000000000000000005F
:1001A000000000000000000000000000000000004F
:1001B000000000000000000000000000000000003F
:1001C000000000000000000000000000000000002F
:1001D000000000000000000000000000000000001F
:1001E000000000000000000000000000000000000F
:1001F00000000000000000000000000000000000FF
:10020000354936480A1A02D0072291438D463449AF
:1002100034480A1A06D00722914381F30988022242
:1002200082F3148830483149314A00F044F83148AB
:100230003149324A00F03FF831483249324A00F041
:100240003AF832483249334A00F035F832483349F7
:10025000334A00F030F833483349344A00F02BF881
:1002600033483449344A00F026F8344834490022EF
:1002700000F02CF833483449002200F027F83348C6
:100280003349091A082902DB002202604160314A21
:1002900090471F481F49884205D00268043003B4C4
:1002A000904703BCF7E700208646EC46002000217B
:1002B000294A9047FEE7884207D0521A05D00378B2
:1002C00001300B700131013AF9D17047884202D0F8
:1002D00002700130FAE770470000012000E00020C2
:1002E0000000012000000120301500000000002067
:1002F00004000020D4030000D40300000A1500000D
:100300003015000000000020000000200C15000047
:100310000C1500000C1500000C1500000C15000059
:100320000C1500000C1500000C1500003015000025
:100330003415000004000020040000200400002008
:10034000D5000020D8000020D8000020D8000020D0
:10035000D82000209D03000061110000FEE7FEE7A9
:10036000FEE7FEE7FEE7FEE7FEE7FEE7FEE7FEE765
:10037000704700BF1048804710484FF0070188437E
:1003800085460F4880470F48016841F470010160BD
:10039000BFF34F8FBFF36F8FFFF732BF0A480B4990
:1003A0000B4A884207D0521A05D0037801300B70EF
:1003B0000131013AF9D170477103000000000120BA
:1003C0004912000088ED00E00C150000000000203C
:0403D0000000002009
:1003D4001FB50021039001AA44F20100CDE90111E7
:1003E40000F004F805B05DF804FB000072B6094B98
:1003F4001B68DB0700D500BEBFF34F8F0649074BD0
:10040400CA6802F4E0621343CB60BFF34F8F00BFAE
:10041400FDE700BFF0ED00E000ED00E00400FA05A8
:100424002DE9F8430468054694F8200000F0F8FC30
:1004340004F11807FF264FF0FF394FF00008207A27
:10044400FF2802D000F0ECFC2672607AFF2802D06C
:1004540000F0E6FC66722068431C03D000F084FBC5
:10046400C4F8009084F80B800C34BC42E7D168686F
:10047400BDE8F84300F0EABD2DE9F041134DDFF883
:1004840050800E460024012705EB41052B5D5BB12E
:100494002B5D013BDBB22B552B5D93B958F826300D
:1004A4001B683046DB6998474CB167B1084B53F879
:1004B400263002215868BDE8F04100F031BE012425
:1004C400E4E70027F0E7BDE8F08100BF1D0000204D
:1004D4000400002040680C4902798B5CDBB2FF2BDE
:1004E4000DD0FE2B0DD0006803F5A87350F823300F
:1004F400064850F82200984203D1FF238B54002071
:1005040070470120704700BF180000202800002019
:1005140003682DE9F74F904693F82120022A0546F7
:100524000F4640F099800C244C431A1952689045A8
:1005340009D1DB691BB9002003B0BDE8F08F426824
:1005440010799847F7E7FFF7C5FF8346002840F086
:1005540085806B68DFF810911B79FE2209F803206F
:100564002E6896F8200000F0ADFCCA46B8F1000FE2
:100574001FD13444607A00F0A5FC207A00F08CFC92
:100584006B681B79FF2209F803200C2303FB076621
:100594002B68C6F80480DB69002BCCD06B681A7911
:1005A4002F4B03EB42030221D955686800F0A6FDE6
:1005B400C1E7B169884507D334441FFA81F8207A2A
:1005C40000F080FC607AD9E707EB47094FEA890914
:1005D40006EB090368685A68914238D0002A36D07D
:1005E400904534D25B46032100F05AFD6B6896F8BF
:1005F40020B01B6856F80900344403F5A673019330
:10060400A37A0BB300F002FB02460199584600F0AE
:1006140023FC96F8200000F03FFC6B68114A1B791C
:100624000AF8037042F823800C2404FB07640023B7
:1006340042463946686800F033FD207A00F02CFC0D
:10064400607A00F029FCA0E700F0D2FADCE7037935
:10065400FF220AF80320E7E708206DE711206BE783
:100664001D000020280000201800002003681B8BB8
:100674005A436423B2FBF3F292B2FFF749BF00007E
:100684002DE9F04F89B0044603928A46002900F010
:100694002281066896F82130002B40F01E8100F07C
:1006A4007BF908B1852840D100F0F2F9002833D055
:1006B4008B4B8C4A1B6803F0F003303B18BF0123BB
:1006C4001370FF2386F820304FF6FF730022338126
:1006D4004FF0FF33F2723360F275B382F36006F1C8
:1006E400200000F071FB8046E0B90AF108030746D8
:1006F40004935AF82720FBB20293531C00F08F8016
:10070400256895F82110A1B108252046FFF788FE39
:10071400284609B0BDE8F08F00F080F90028C7D062
:100724000325F5E72046FFF77BFE0425F0E70127C4
:10073400DFE7049B059213F807B00C2303FB07F9CA
:1007440005EB09031046596083F80AB003238DF8BA
:100754001830BBFA8BF35B098DF8193006A9012315
:100764008DF81A3000F09EF9B0B9059A45F80920C1
:10077400012393404FF0A042BBF1000F00F09C8096
:10078400C2F80C350C237B4303F10800284405937D
:1007940000F01AFB059B08B10425B6E703F1090034
:1007A4002844059300F010FB059B0028F4D12B444A
:1007B4000593187A00F086FB059B587A00F082FBBB
:1007C40055F80900BBF1000F79D000F01FFA8346F9
:1007D40055F8090000F00CFA626811680C2202FB5B
:1007E4000755BB0003F5A073194481465A46287A7D
:1007F40000F032FB6368687A19684A4601F5A4710F
:1008040000F02AFB0123EB726368374A1B790299D3
:1008140002EB430320460022DA55FFF779FE002F4E
:1008240085D0DAF81030B3F5805F02D3B8F1090F40
:100834004DD12C4B1B7823B1B8F1000F08BF4FF0FA
:10084400010800238DF8193060688DF818804FF482
:10085400E063ADF81A300379244A079306A900F03F
:100864006DFB054600287FF450AF6068DAF810701D
:100874000368D3F810253F01D2B2D7404FF00108E6
:10088400B76100F009FC04233A4602216068CDF800
:10089400008000F01EFC0221606800F041FC039B14
:1008A400F3616368124A1B7986F8218042F8234079
:1008B400104AFF21D1542BE7C2F8083562E700F053
:1008C40097F9834655F8090000F0A0F984E75B081E
:1008D40008F10108A7E70B251AE7082518E700BF68
:1008E400E80F00F03C0000201D0000207D04000003
:1008F40004000020180000202DE9F0470768DFF805
:100904006890002605463C46B0464FF00C0A6B68DA
:100914001B7909EB430303F80680E37A73B12B6870
:1009240020680AFB0633997AB1FA81F1490900F08B
:100934007BF9206800F04AF9C4F804800C3476B1DD
:100944006868084A0379FF21D15400F0A5FB686860
:1009540000F062FB022387F82130BDE8F08701260E
:10096400D5E700BF180000201D00002072B6024A1F
:10097400136801331360704740000020034A136872
:10098400013B136003B962B6704700BF400000200A
:10099400FFF7ECBFFFF7F2BF034B187810B9012241
:1009A4001A707047852070474400002000F1804091
:1009B40000F5C040002382B0036003680193019BEB
:1009C40002B07047800000F1A040D0F8003723F453
:1009D4004033C0F80037D0F8003743EA0141C0F88B
:1009E40000177047054B4FF0FF32072843F82020CB
:1009F40084BF1B1883F83C20704700BF48000020C8
:100A0400C208054900F0070001238340885C20EAFE
:100A140003008854704700BF8D00002010B5184CA7
:100A240094F8493053BB04F124032021FF220139F7
:100A340011F0FF0103F8012BF9D1C8B2FFF7D2FF7F
:100A440001310929F9D1042200210E4800F028FDC2
:100A54000D4BC02283F806234022C3F880214FF4B3
:100A6400BE701A60FFF7A2FF084B4FF00042C3F8B4
:100A74000423012384F84930002010BD0820FCE73A
:100A8400480000208D00002000E100E000600040EC
:100A9400034B93F84900003018BF0120704700BF92
:100AA4004800002030B52E4B1A1892F92440013426
:100AB40053D18C78002C4CD01C46002254F8045B93
:100AC400013541D11C1884F82420002443F8224025
:100AD400920002F1804202F5C0420B78D2F8105520
:100AE4004C7825F498151B04240525F4F85504F4D2
:100AF400801403F44033C2F8105523430402D2F89F
:100B0400105504F4F85423432B43C2F810354A78A3
:100B14000123012A4FF0A04203FA00F30CBFC2F8EC
:100B24000835C2F80C3500F5E073032142F82310B0
:100B3400C2080C49012300F0070003FA00F08B5CA3
:100B440018438854002003E00132082AB6D1042057
:100B540030BDFE2382F82430D9E70820F8E700BF2F
:100B6400480000208D00002038B516490D180446B1
:100B740095F82400072809D8FFF734FF95F92430A5
:100B8400114A03F5A273002042F823000B19FF2237
:100B940001EBD40183F8242091F84520012304F0CB
:100BA40007018B401A420BD004F5E0724FF0A043CA
:100BB400022143F822102046BDE83840FFF720BF49
:100BC40038BD00BF4800002000600040074B1844B7
:100BD40090F924309B0003F1804303F5C043D3F81C
:100BE400102542F00302C3F8102570474800002086
:100BF400054B184490F924000C308000C0B200F179
:100C0400804000F5C040704748000020054B184460
:100C140090F9240018308000C0B200F1804000F543
:100C2400C0407047480000200A4B1844003190F936
:100C340024304FEA830303F1804303F5C04318BF14
:100C44000121D3F8102522F4801242EA0152C3F89C
:100C540010257047480000202DE9F04385B000249A
:100C6400564D01944FF48072012102F1804303F543
:100C7400C04390B21B68012B06D1D5F804330B4254
:100C840002D0FFF793FE0C430432B2F5907F4FEA93
:100C94004101EAD14A4B1B68012B0AD14FF4BE70C3
:100CA400FFF784FE4FF0A04344F00044D3F810351E
:100CB400019314F0FF0F1AD0424F0126002534424D
:100CC40010D0AB0003F1804303F5C043D3F8100503
:100CD400D3F8101557F8253023B1C1F30141C0F3FF
:100CE400042098470135082D4FEA4606E7D1002C29
:100CF40061DA00224FF0FF33CDE90223DFF8C4802C
:100D0400012702AE98F94430DAB2013322F0C0046C
:100D140051D004A94FEAD40C01EB0C0002F00703F4
:100D240010F8041C07FA03F3194244D008EB040139
:100D3400920991F9241058F821503DB9032A3AD167
:100D440016F80C10194306F80C1001E0032AF7D02A
:100D540004F5E0714FF0A04C10F80C0C5CF8211075
:100D64001842C1F3014105D0022924D1032A20D11C
:100D7400114604E003291ED1032A1AD10221204678
:100D8400FFF720FE3DB14FF0010911462046A84768
:100D9400B9F1000F0FD04FF0A043019AD3F81035EA
:100DA400934208D00193029B0393ABE74FF00009F1
:100DB400EBE7002DFAD105B0BDE8F08300600040F8
:100DC4007C610040480000202DE9F84F124D134F7C
:100DD40080464FF0000A04264FF001095FFA8AFBAF
:100DE400002009FA0BF4FFF7D3FD2C4208D03B682E
:100DF40014EA030201BF23433B6088F800B016469F
:100E04000020FFF7C7FD1EB1A5430AF1010AE5D191
:100E14003046BDE8F88F00BFFFFF0F0094000020AC
:100E240010B501248440C4F313037BB1084B0020A4
:100E3400C3F80845FFF7ACFD064A1368002023EA0F
:100E440004041460FFF7A6FD002010BD0720FCE792
:100E540000F001409400002010B5A1B19AB1012323
:100E64008340C3F3130484B10A4C246823420ED094
:100E7400C00000F1804000F5F830C0F81015C0F84B
:100E84001425002010BD0E20FCE70720FAE70820F7
:100E9400F8E700BF94000020012303FA00F0C0F338
:100EA40013031BB1054B1B68184204D0044BC3F851
:100EB4000405002070470820704700BF94000020FC
:100EC40000F00140012303FA00F0C0F313031BB147
:100ED400054B1B68184204D0044BC3F808050020D6
:100EE40070470820704700BF9400002000F00140C4
:100EF4002DE9F743002406460F4600F5A0754FF48C
:100F04008038A146A0002B6800F5A07080B26BB1B8
:100F1400D6F8043308FA04F21A4207D0C5F8009050
:100F24002B680193019BD7E9003198470134042CC5
:100F340005F10405E6D103B0BDE8F083F7B5057902
:100F4400334C0C266E43A7193B7A002B5DD1A2517A
:100F54004A687A60467900681F46DAB296424BD8EE
:100F6400020B53B2CE78002BA8BF03F16047D2B274
:100F74004FEA5313B8BF02F00F0C4FEA4616B4BF42
:100F8400244F07F561474FEA8303F6B203F1604348
:100F9400B4BF07F80C6087F8006303F561430126CA
:100FA40002F01F0206FA02F2C3F880211A60D0F898
:100FB40004254B7822F0030203F003031343C0F823
:100FC4000435D0F808258B7822F0030203F00303DC
:100FD4001343C0F80835D0F810250B7822F00F021F
:100FE40003F00F031343C0F810350C2303FB05442F
:100FF4000020267203B0F0BD9A0002F5A0720133FE
:10100400875082580192019AA7E70820F2E700BFAF
:101014009800002014ED00E0036801221A600379AF
:10102400034A0C2101FB032302221A72704700BFFA
:10103400980000200368044901221A6103790C20F6
:1010440000FB03131A727047980000200268110B0A
:1010540038B54BB201245B0901F01F0104FA01F118
:1010640020330B4C44F823100546D2F800320024F8
:101074004FF0FF33C2F80042C2F80833FFF7DAFF3B
:101084002B79044A0C2101FB03231C7238BD00BFD9
:1010940000E100E09800002003680122DA60704754
:1010A40037B54FF480348C4000687BB101F15003B4
:1010B4009B000025C550C3580193019BC0F804430D
:1010C40001F5A87140F8212003B030BDC0F80843F1
:1010D400F6E770B4046840F20116D4F800528E406A
:1010E40025EA0605C4F80052D4F800522B43C4F88C
:1010F40000329DF80C3070BCFFF7D2BF01F15003F1
:101104009B0002689BB20020D05082B0D358019358
:10111400019B4FF480338B40C2F8043302B0704714
:1011240002684FF4803303FA01F1C2F808137047E0
:1011340001490248FFF7DCBE98000020008000400F
:1011440001490248FFF7D4BEA400002000900040EB
:10115400014B01221A707047D4000020F0B5184DDD
:101164000FCD87B001AC0FC42B682360154A164815
:1011740040F2011301A9ADF80C30FFF781FA08B170
:10118400FFF726F91048114C0F4DFFF7B5FB264623
:101194004FF000072770322200212846FFF766FA35
:1011A4001128F8D03378002BFCD0142201212846D2
:1011B400FFF75CFA0028EDD0FFF70AF9E8E700BF73
:1011C4000C1500005511000020150000D40000206B
:1011D4000C4B1B78062B10D10B4B1B681A070CD138
:1011E4000A4B186800F0F003302B08D000F0E00040
:1011F400A0F1400358425841704700207047012035
:10120400704700BFE00F00F0E40F00F0E80F00F0BB
:10121400094B1B78062B0CD1084B1B681A0708D105
:10122400074B186800F0F000A0F130035842584111
:1012340070470020704700BFE00F00F0E40F00F09B
:10124400E80F00F008B5FFF7C3FF28B17D4B7E4AD5
:101254001B68C3F304231360FFF7DAFF10B17B4B61
:101264007B4A1A60FFF7B4FF28B17A4B7A4A1B68AD
:10127400C3F342331360FFF7CBFF20B1774AD3683F
:1012840023F08073D360FFF7A3FF40B14FF0804396
:101294000022C3F80C21C3F81021C3F83825FFF746
:1012A400B7FF10B16E4B03221A60FFF7B1FF40B1D4
:1012B4006C4B05221A6001229A6700229A603F2231
:1012C4005A60694B1B78062B50D1684B1B68190771
:1012D4004CD1674B1B6803F0F003502B46D14FF001
:1012E4008052644BD2F80414C3F82015D2F80814C1
:1012F400C3F82415D2F80C14C3F82815D2F8101426
:10130400C3F82C15D2F81414C3F83015D2F81814F5
:10131400C3F83415D2F81C14C3F84015D2F82014BD
:10132400C3F84415D2F82414C3F84815D2F8281485
:10133400C3F84C15D2F82C14C3F85015D2F8301455
:10134400C3F85415D2F83414C3F86015D2F838141D
:10135400C3F86415D2F83C14C3F86815D2F84014E5
:10136400C3F86C15D2F84424C3F87025FFF730FF96
:1013740028B1414B414A1B6803F04F031360FFF748
:1013840027FF48B14FF08043D3F80024D20744BF6D
:101394006FF00102C3F80024394B1B68062B08D1F7
:1013A400384B1B68062B01BF374A136843F480632C
:1013B4001360364AD2F8883043F47003C2F8883098
:1013C400BFF34F8FBFF36F8F4FF01023D3F800227A
:1013D400002A03DBD3F80432002B2FDA2C4B012232
:1013E400C3F80425D3F80024002AFBD04FF01022C0
:1013F4001521C2F80012D3F80024002AFBD04FF0C4
:1014040010231522C3F80422214B1A46D3F80014E2
:101414000029FBD00021C3F80415D2F80034002BB6
:10142400FBD0BFF34F8F19491A4BCA6802F4E0622C
:101434001343CB60BFF34F8F00BFFDE7164B174A32
:101444001A6008BD240300104035014074C00740F1
:101454000DF0ADBA440200103C050040F0ED00E090
:10146400A005004010560040E00F00F0E40F00F02B
:10147400E80F00F000C0004058020010E40E0040E5
:1014840030010010340100103C17004000ED00E072
:1014940000E001400400FA05000000200090D003A1
:1014A4008446002A2DD010F0030F04D000F8011B4D
:1014B400013A26D0F7E7C9B241EA012141EA0141E4
:1014C400202A12D3A2F120022DE9F0030B460C4688
:1014D4000D460E460F4688468946A0E8FA03203A90
:1014E400FBD2BDE8F00320320BD0042A05D340F828
:1014F400041B043A05D0042AF9D200F8011B013A6E
:06150400FBD160467047B8
:10150C0011000000050000000000000002000000B7
:10151C0080969800B0000020281500000090004034
:04152C0001040000B6
:041530000090D00354
:040000030000037581
:00000001FF
