:020000022000DC
:1060000000FD032035AF03005DAF03005FAF030069
:1060100061AF030063AF030065AF03000000000041
:1060200000000000000000000000000067AF030057
:1060300069AF0300000000006BAF03006DAF030009
:106040006FAF03006FAF03006FAF03006FAF0300CC
:106050006FAF03006FAF0300F58F02006FAF030057
:106060006FAF03006FAF0300CD0F03006FAF0300EE
:106070006FAF03006FAF03006FAF03006FAF03009C
:106080006FAF0300558B03009DD202006FAF03007A
:10609000258C03006FAF0300A19302006FAF0300D4
:1060A0006FAF03006FAF03006FAF03006FAF03006C
:1060B0006FAF03006FAF030000000000000000009E
:1060C0006FAF03006FAF03006FAF03006FAF03004C
:1060D0006FAF03006FAF03006FAF03006FAF03003C
:1060E0006FAF03006FAF03006FAF0300000000004D
:1060F000000000006FAF0300000000006FAF03005E
:10610000000000000000000000000000000000008F
:10611000000000000000000000000000000000007F
:10612000000000000000000000000000000000006F
:10613000000000000000000000000000000000005F
:10614000000000000000000000000000000000004F
:10615000000000000000000000000000000000003F
:10616000000000000000000000000000000000002F
:10617000000000000000000000000000000000001F
:10618000000000000000000000000000000000000F
:1061900000000000000000000000000000000000FF
:1061A00000000000000000000000000000000000EF
:1061B00000000000000000000000000000000000DF
:1061C00000000000000000000000000000000000CF
:1061D00000000000000000000000000000000000BF
:1061E00000000000000000000000000000000000AF
:1061F000000000000000000000000000000000009F
:1062000010B5054C237833B9044B13B10448AFF3F0
:1062100000800123237010BD382F002000000000F3
:1062200004E503000C4B43B10C480D4910B5AFF326
:1062300000800C48036823B910BD0A48036833B9CD
:106240007047094B002BF7D0BDE810401847064BAC
:10625000002BF5D0184700BF0000000004E5030044
:106260003C2F0020342F002000000000154B002B95
:1062700008BF134B9D46A3F5803A00218B460F467D
:106280001348144A121A16F075FA0F4B002B00D05F
:1062900098470E4B002B00D09847002000210400A7
:1062A0000D000D48002802D00C48AFF3008016F016
:1062B00013FA2000290000F07BFF16F0F9F900BF67
:1062C0000000080000FD03200000000000000000A6
:1062D000382F0020D85400200000000000000000EB
:1062E00041DF704700470000024A7D21032014F07F
:1062F0004CBE00BF2ECD030070B59E4C23685E04DB
:10630000C6B019D59C4B1B68032B15DD2F219B486C
:1063100016F00EFB002800F0F6802F21974816F0AB
:1063200007FB411C964B974AD3F804350092042092
:106330004FF4157207F024FE23685D0420D58E4BC0
:106340001B68032B1CDD2F218C4816F0F1FA002866
:1063500000F0E2802F21894816F0EAFA411C8A4AAF
:10636000874BD088D3F80435039050880290128868
:106370000192864A0092042040F2562207F000FE65
:106380002368580434D57C4B1B68032B30DD804BCD
:106390007D4E196805AD0023F21892F82C201009E3
:1063A00002F00F02085C05F81300885C05EB43025D
:1063B0000133102B5070EFD100232F216F4885F847
:1063C000203016F0B5FA002800F0AF802F216B487E
:1063D00016F0AEFA411C6A4B6E4AD3F804350192AE
:1063E0006D4A0092029540F25722042007F0C8FD42
:1063F0002368590433D5604B1B68032B2FDD644B96
:10640000614E196805AD0023F218127B100902F0E5
:106410000F02085C05F81300885C05EB43020133AA
:10642000102B5070F0D100232F21544885F82030D4
:1064300016F07EFA002800F081802F214F4816F0D8
:1064400077FA411C4E4B554AD3F804350192524A13
:10645000009202954FF41672042007F091FD236814
:106460005A0432D5444B1B68032B2EDD484B464E55
:10647000196805AD0023F218127F100902F00F020F
:10648000085C05F81300885C05EB43020133102B10
:106490005070F0D100232F21384885F8203016F0B5
:1064A00047FA002853D02F21344816F041FA411CF6
:1064B000334B3B4AD3F804350192374A0092029598
:1064C00040F25922042007F05BFD23685B0418D5D5
:1064D000294B1B68032B14DD2F21284816F028FABE
:1064E00000283DD02F21254816F022FA411C244BCC
:1064F0002C4AD3F804350092042040F25A2207F0C7
:106500003FFD46B070BD5C211C4816F011FA08B181
:106510005C2103E7194905E75C21184816F008FAE1
:1065200008B15C2117E7154919E75C21134816F0FB
:10653000FFF908B15C214AE710494CE75C210F489C
:1065400016F0F6F908B15C2178E70C497AE75C218E
:106550000A4816F0EDF908B15C21A5E70749A7E75D
:106560005C21064816F0E4F908B15C21BBE7034959
:10657000BDE700BF402E00203C2E00202ECD0300A2
:10658000001001401ACB0300982F002034CB0300E9
:10659000442E002075CB03007ECB030086CB030086
:1065A0008FCB030098CB030007B5224B1B685B041D
:1065B00017D5214B1B68032B13DD2F211F4816F025
:1065C000B7F958B32F211D4816F0B2F9411C1C4BE6
:1065D0001C4AD3F80435009204204FF4017207F0EE
:1065E000CFFC194B19484FF6FF725A809A801A80D7
:1065F0000BF030FD20B1114A4FF4037114F0C5FCCB
:10660000134A144800210EF0C5FB80B10B4A40F23A
:106610000D2103B05DF804EB14F0B7BC5C21074812
:1066200016F086F908B15C21CDE70449CFE703B045
:106630005DF804FB402E00203C2E00202ECD0300F0
:106640000010014028CE0300542F0020596602009C
:10665000DD6902005C2F002073B5184B1B685B04DA
:1066600004460D46164617D5154B1B68032B13DD44
:106670002F21144816F05CF9B0B12F21114816F003
:1066800057F9411C104B114AD3F8043500920420ED
:106690004FF4AF7207F074FC32462946204602B030
:1066A000BDE8704002F0CCB85C21064816F040F915
:1066B00008B15C21E2E70349E4E700BF402E002077
:1066C0003C2E00202ECD030000100140C8C903005D
:1066D00007B5184B1B685B041AD5174B1B68032BB7
:1066E00016DD2F21154816F023F9D0B12F211348BC
:1066F00016F01EF9411C124A124B5288D3F8043589
:106700000192114A0092042040F2231207F038FC53
:106710000E4B00210E20197003B05DF804EB02F05F
:10672000CDBB5C21054816F003F908B15C21DEE71A
:106730000249E0E7402E00203C2E00202ECD030031
:10674000982F002000100140DDC90300942F002085
:1067500007B5174B1B685B0417D5164B1B68032B3B
:1067600013DD2F21144816F0E3F8B8B12F21124899
:1067700016F0DEF8411C114B114AD3F80435009293
:1067800004204FF49A7207F0FBFB0E4B00210D2002
:10679000197003B05DF804EB02F090BB5C21064871
:1067A00016F0C6F808B15C21E1E70349E3E700BF52
:1067B000402E00203C2E00202ECD03000010014072
:1067C000D2CA0300942F002013B51D4B1B685B0435
:1067D000144616D51B4B1B68032B12DD2F211A48BC
:1067E00016F0A6F8A8B12F21174816F0A1F8411C01
:1067F000164B174AD3F80435009204206D2207F097
:10680000BFFB012C0ED1784602B0BDE8104002F06B
:10681000CFBE5C210C4816F08BF808B15C21E3E791
:106820000949E5E7022CEED0032C07D1064A762170
:10683000042002B0BDE8104014F0A7BB02B010BDA8
:10684000402E00203C2E00202ECD030000100140E1
:1068500075CD030008B53C220021064815F08AFFDB
:10686000054807F0ABFE20B10448BDE8084008F039
:10687000E5B808BD982F0020702F0020CC2D0020F7
:1068800010B53C220121094807F057FF044620B902
:10689000074808F0D3F8002010BD3C220549043019
:1068A00015F05DFF204607F077FFF4E7702F00201A
:1068B000B02D0020982F002007B51D4B1B685B04EE
:1068C00017D51C4B1B68032B13DD2F211A4816F01C
:1068D0002FF808B32F21184816F02AF8411C174B3F
:1068E000174AD3F80435009204204FF4957207F04C
:1068F00047FB00210D2002F0E1FA01210E2002F0F9
:10690000DDFAFFF7BDFF80B10B4A40F22F1103B053
:106910005DF804EB14F039BB5C21074816F008F869
:1069200008B15C21D7E70449D9E703B05DF804FB5F
:10693000402E00203C2E00202ECD030000100140F0
:1069400001CB030008B5FFF79BFF28B1034AEE21F6
:10695000BDE8084014F019BB08BD00BF2ECD0300F0
:1069600013B5194B1B685B04044619D5174B1B68FC
:10697000032B15DD2F21164815F0DAFFC8B12F21A2
:10698000134815F0D5FF411C124B2278D3F804357B
:106990000192114A009204204FF4A97207F0F0FA14
:1069A00023781C2B0ED1002002B0BDE8104005F06A
:1069B00055BC5C21064815F0BBFF08B15C21DFE740
:1069C0000349E1E702B010BD402E00203C2E00201C
:1069D0002ECD0300001001401ACA030030B50B7819
:1069E00085B00C4633BB1A4B1B685B0422D5194B90
:1069F0001B68032B1EDD2F21174815F099FFD8B116
:106A00002F21154815F094FF411C6268134B5088E4
:106A10005269D3F804351578247BB5B992F90D2065
:106A200003920F4A01900092029440F2491204200E
:106A300007F0A6FA05B030BD5C21074815F078FFD5
:106A400008B15C21DDE70449DFE70022E8E700BF89
:106A5000402E00203C2E00202ECD030000100140CF
:106A600084CA030013B503780E2B22D1164B1B6882
:106A70005B0417D5154B1B68042B13DD2F2114481D
:106A800015F056FFB8B12F21114815F051FF411CE8
:106A9000104B114AD3F80435009205204FF4D372FD
:106AA00007F06EFA0D4C23781BB9FFF725FC012384
:106AB000237002B010BD5C21054815F039FF08B104
:106AC0005C21E1E70249E3E7402E00203C2E002054
:106AD0002ECD030000100140B9CA0300D42F0020BE
:106AE00007B5134B1B685B0416D5124B1B68032BB1
:106AF00012DD2F21104815F01BFF80B12F210E4809
:106B000015F016FF411C0D4B0D4AD3F804350092C9
:106B10000420892207F034FA03B05DF804FB5C21FD
:106B2000054815F005FF08B15C21E8E70249EAE7EE
:106B3000402E00203C2E00202ECD030000100140EE
:106B40005ECD030013B51F49044615F0D7FE10B9FA
:106B50001D4802B010BD1D49204615F0CFFE00288B
:106B6000F6D01B49204615F0C9FE40B3194B1B68EF
:106B70005B0416D5184B1B68002B12DB2F2117481E
:106B800015F0D6FE90B12F21144815F0D1FE411C0E
:106B9000134B144AD3F8043500920020FC2207F06E
:106BA000EFF9784602F004FD0020D2E75C210B48A3
:106BB00015F0BEFE08B15C21E6E70849E8E70A489F
:106BC000C7E700BF83CE030048CE03009ECE03007C
:106BD000B7CE0300402E00203C2E00202ECD030017
:106BE00000100140D7CE030063CE030073B59F4C65
:106BF00023680546580440F1AB819D4E3268032A54
:106C000040F3AC812F219B4815F092FEB0B12F21AB
:106C1000984815F08DFE411C974B6A1CD3F804353B
:106C20000192964A009204204FF4EE7207F0A8F900
:106C30006DB1032D00F03A8102B070BD5C218D482A
:106C400015F076FE08B15C21E2E78A49E4E78C4E54
:106C50003378002B40F0E5808A4D2B886A889A4271
:106C600032D22368590417D5814B1B68032B13DDDF
:106C70002F21804815F05CFEE8B12F217D4815F0EA
:106C800057FE411C7C4B804AD3F804350092042007
:106C90004FF4B87207F074F9AB68A8887B4A009388
:106CA0000221002301F03AFF01210E2002F006F933
:106CB00001233370C0E75C216E4815F039FE08B13E
:106CC0005C21DBE76B49DDE773BB23685A0417D50A
:106CD000674B1B68032B13DD2F21664815F028FE38
:106CE000C8B12F21634815F023FE411C624B684A4E
:106CF000D3F80435009204204FF4BD7207F040F938
:106D0000644A0323E988022001F05CF801F0E4F80A
:106D100001210D20CAE75C21564815F009FE08B193
:106D20005C21DFE75349E1E71E2B236853D85B045E
:106D300018D54F4B1B68032B14DD2F214D4815F040
:106D4000F7FD002835D02F214A4815F0F1FD411CF0
:106D5000494B514AD3F80435009204204FF4C372D2
:106D600007F00EF9A868FFF7EDFE22684B4B12F40E
:106D7000804F18601C4619D03D4B1B68032B15DD56
:106D80002F213C4815F0D4FDE0B12F21394815F0F2
:106D9000CFFD411C384B2268D3F804350192404A9C
:106DA000009204204FF4C57207F0EAF801233B4A31
:106DB000A8E75C212F4815F0BBFD08B15C21C3E7B3
:106DC0002C49C5E75C212B4815F0B2FD08B15C21C8
:106DD000DCE72849DEE758047FF52EAF244B1B681B
:106DE000032B7FF729AF2F21224815F0A1FD78B1A1
:106DF0002F21204815F09CFD411C1F4B294AD3F838
:106E00000435009240F29312042007F0B9F813E71A
:106E10005C21184815F08CFD08B15C21E9E71549A3
:106E2000EBE7236859047FF507AF114B1B68032B71
:106E30007FF702AF2F210F4815F07AFD60B12F21A7
:106E40000C4815F075FD411C0B4B174AD3F804355F
:106E5000009240F29B12D7E75C21064815F068FDCE
:106E600008B15C21ECE70349EEE700BF402E0020AB
:106E70003C2E00202ECD030000100140DACB030091
:106E8000942F0020982F0020EDCB0300B42F00207A
:106E900020CC0300DC2D00204FCC0300DC2F002091
:106EA0007ECC030094CC0300ADCC030023685A04CD
:106EB00017D53368032B14DD2F212C4815F038FD2E
:106EC000002833D02F21294815F032FD411C284BD2
:106ED000284AD3F80435009204204FF4F57207F0E5
:106EE0004FF8FFF7B7FC00F0EDFA0422C8214FF489
:106EF000803001F0F7FF23685B047FF59DAE1E4BE9
:106F00001B68032B7FF798AE2F21184815F010FD52
:106F1000A8B12F21154815F00BFD411C144B174A41
:106F2000D3F8043500924FF4F8726DE75C210F48F6
:106F300015F0FEFC08B15C21C5E70C49C7E75C21F0
:106F40000A4815F0F5FC08B15C21E3E70749E5E7DD
:106F5000002D3FF47CAE032DC3D06DE6002D3FF431
:106F600076AE032D7FF468AEA3E700BF2ECD0300FD
:106F700000100140DBCC03003C2E0020F3CC0300CA
:106F80003038042801D8FFF731BE704737B53F4D80
:106F90003F4C2A6812F4804F1AD03E4B1B68032BDB
:106FA00016DD2F213C4815F0C3FC002837D02F21D7
:106FB000394815F0BDFC411C384B6288D3F80435C4
:106FC0000192374A0092042040F2071206F0D8FFDF
:106FD00000210E2001F072FF6388013363800EF000
:106FE000DDFAFFF74DFC20B12B4A40F20D1113F0F2
:106FF000CCFF63881E2B1BD8A068FFF7A3FD294A8E
:10700000E18810600123022000F0DCFE00F064FF44
:1070100001210D2003B0BDE8304001F04FBF5C21DD
:107020001D4815F085FC08B15C21C1E71A49C3E78A
:107030002B685B0417D5174B1B68032B13DD2F211F
:10704000154815F075FCB8B12F21134815F070FCE8
:10705000411C124B144AD3F804350092042040F22C
:107060001B1206F08DFF0422C8214FF4F03003B04C
:10707000BDE8304001F036BF5C21074815F058FCF0
:1070800008B15C21E1E70449E3E700BF402E00209E
:10709000982F00203C2E00202ECD03000010014030
:1070A00033CA0300D82F002094CC030000B58BB066
:1070B00003A902A800F050FA18B1204A962113F053
:1070C00064FF1F4B07931F4B08931F4B0993042327
:1070D0000693029B1D48A3F58053049304A9012342
:1070E000059307F096FBE8B1194807F0A7FC194B88
:1070F0001B685B0416D5184B1B68002B12DD2F2173
:107100000E4815F015FC80B12F210C4815F010FC2D
:10711000411C124B124AD3F8043500920120A322DD
:1071200006F02EFF0BB05DF804FB5C21034815F060
:10713000FFFB08B15C21E8E70049EAE72ECD030038
:10714000C9670200E9620200E16A0200702F0020B4
:10715000A02D0020402E00203C2E002000100140D9
:107160005ACA030010B5104CA18820890FF072F99B
:1071700020B10E4A40F2BD1113F007FFA18820890B
:107180000FF0F0F920B1094A4FF4DF7113F0FDFE62
:1071900020880DF085FB30B1044A40F2C111BDE8F2
:1071A000104013F0F2BE10BD542F00202ECD03006E
:1071B00080B5AF4EAF4A92B004214FF4C04006F004
:1071C000C5FE33685C0419D5AB4B1B68032B15DD7A
:1071D0002F21AA4815F0ACFB002800F0E0802F21F9
:1071E000A64815F0A5FB411CA54BA64AD3F80435CB
:1071F0000092042040F2432206F0C2FE11F060FE2D
:1072000020B19E4A40F2452113F0BFFE01F09EFEE0
:107210009D4801F0C7FE20B1984A40F2492113F081
:10722000B4FE01F01DFF242200210DEB020015F039
:10723000A1FA01238DF8243007238DF82730062387
:107240008DF82C30914B0D930DF10B01904B119358
:1072500009A800F04FF920B1884A40F21A2113F032
:1072600094FE12AF8B488C4C4FF03C0804F0A0FF0A
:10727000FFF71CFF47F83C8D874A88483B460121B1
:1072800007F024FA054620B142460021204615F0B9
:1072900071FA002D0CBF0125002500F08980002324
:1072A000238063804FF48073E380FFF7E9FA20B115
:1072B000724A40F2D11113F068FE794B1D76794D78
:1072C0000FCD3C460FC495E8030084E80300384620
:1072D00000F0B0FE9DF80B30002B40F09880336832
:1072E000590419D5644B1B68032B15DD2F21634806
:1072F00015F01EFB002800F081802F215F4815F05B
:1073000017FB411C5E4B684AD3F8043500920420F9
:107310004FF40C7206F034FE00F0B0FEFFF722FFCF
:107320000EF03CF9FFF70EFB6049614801F04AFDA1
:107330006421604801F068FD33685B0419D54E4B49
:107340001B68032B15DD2F214C4815F0F1FA00289E
:1073500000F084802F21494815F0EAFA411C484B7F
:10736000554AD3F80435009204204FF4187206F001
:1073700007FE04F0C5FE20B1404A40F2662113F03A
:1073800004FE00214FF4F03001F0A3FD0222C821D9
:107390004FF4F03001F0A6FDFEF7A2FFFCE75C2100
:1073A000364815F0C5FA08B15C2119E733491BE7E7
:1073B0003368580481D5304B1B68032B7FF77DAFB2
:1073C0002F212E4815F0B4FA78B12F212B4815F053
:1073D000AFFA411C2A4B394AD3F8043500920420F5
:1073E00040F2D51206F0CCFD67E75C21234815F08A
:1073F0009FFA08B15C21E9E72049EBE75C211F48CF
:1074000015F096FA08B15C2178E71C497AE73368F1
:107410005A0417D5184B1B68032B13DD2F2117486F
:1074200015F086FA88B12F21144815F081FA411C15
:10743000134B234AD3F804350092042040F239223A
:1074400006F09EFD00F08AFD6EE75C210B4815F00A
:107450006FFA08B15C21E7E70849E9E75C210748D2
:1074600015F066FA08B15C2175E7044977E700BFBB
:10747000402E002021DF02003C2E00202ECD0300F4
:10748000001001408BCD0300ED6B0200616902002A
:10749000A9650200C02D0020982F0020702F002029
:1074A000542F0020B0C90300D3CD0300D1660200E1
:1074B0008D6F0200816F02001ECE0300BFCD03005E
:1074C0000ACE030008B508F07FFD0EF00AFD10F0AB
:1074D00085FBBDE8084004F03DB807B501A810F0F1
:1074E0002BFCBDF80400003018BF012003B05DF88C
:1074F00004FB000073B50E46054640B304F09AFD48
:10750000044608BB10F0BEFB0FF0F2F928690DF03D
:1075100097F90446C0B92B7F0193AB6900930146EC
:107520006B690C4859220DF0B3FB044660B92B6A15
:1075300003B1984708F064FC10F0C4FA0EF002FBA7
:10754000FFF7CBFF06B13070204602B070BD0E24AD
:10755000FAE700BFE02F002037B50D460446A0B182
:1075600099B1684608F046FF009B53B1236007F0CD
:10757000B3FA2368C01A00F580502860002003B0D9
:1075800030BD0FF084F92060F1E70E20F7E700002E
:107590002DE9F04F0378C9B004460A2B00F2B08001
:1075A000DFE813F00B00DD035601AE00AE00AE00C5
:1075B000AE009E03AE00F3024A02944F3B78012BCB
:1075C00040F09E80924D2B685A0434D5914B1B6835
:1075D000032B30DD904B0430196807AE002310F800
:1075E000012B4FEA121E02F00F0211F80EE003F811
:1075F00006E011F802E0F2180233202B82F801E0D5
:10760000EDD100232F21854886F8203015F090F920
:10761000002878D02F21814815F08AF9411C804B31
:10762000804AD3F8043501927F4A009202968A225A
:10763000042006F0A5FCE3691B78F3B92B685B0412
:107640001BD5744B1B68032B17DD2F21734815F0D6
:107650006FF9002860D02F21704815F069F9411C9E
:10766000E2696F4B92F90D20D3F8043501926F4A0D
:10767000009204208E2206F083FC637D002B3FD015
:107680002B685E0433D5634B1B68032B2FDD624BE5
:1076900004F11600196807AE002310F8012B4FEA19
:1076A000121E02F00F0211F80EE003F806E011F8C6
:1076B00002E0F2180233082B82F801E0EDD100233A
:1076C0002F215648337215F033F970B32F215348E8
:1076D00015F02EF9411C524B554AD3F8043501924E
:1076E000514A009202969322042006F049FCDFF8EA
:1076F00058B1DFF8589100269BF800309E421DD308
:1077000049B0BDE8F08F5C21444815F011F908B18B
:107710005C2180E7414982E75C21404815F008F987
:1077200008B15C2198E73D499AE75C213B4815F098
:10773000FFF808B15C21CAE73849CCE7D9F8003036
:1077400053F826804FEA860AB8F1000F5CD0404615
:1077500015F0E6F807AA81B2404605F05AFE042269
:1077600007A904F1160014F0EBFF00284CD12B6898
:107770005D0417D5274B1B68032B13DD2F212748EA
:1077800015F0D6F8002836D02F21244815F0D0F86F
:10779000411C234B274AD3F8043500920420992238
:1077A00006F0EEFBD9F80030234D53F80A20234BA6
:1077B00000211A6007A8192214F0DCFF2B89ADF80C
:1077C0002C3069681E4B10221B88ADF832300C310A
:1077D00007A814F0C4FF0123AA7A1A480093211DB8
:1077E00007AB11F0E1FE18B10C4A6E2113F0CDFB8E
:1077F00003233B7084E75C21084815F099F808B131
:107800005C21C2E70549C4E7013675E75C33002017
:10781000402E00203C2E0020442E002012CF0300DA
:107820000010014050CF03007ECB030056CF030071
:1078300061CF03006BCF030060330020C033002012
:10784000BA33002028320020BE330020C433002089
:107850006B4D6C4E2B6813F4804F1CD06A4B1B6829
:10786000032B18DD2F21694815F062F8002837D066
:107870002F21664815F05CF8411C654A654B12786B
:10788000D3F80435029232780192634A00920420C0
:10789000A62206F075FB3378032B61D15C4F3B7851
:1078A00083B32B685C0416D5574B1B68032B12DD82
:1078B0002F21564815F03CF8D8B12F21534815F028
:1078C00037F8411C534B554AD3F804350092042035
:1078D000AB2206F055FB012333703B78013B88E770
:1078E0005C214A4815F024F808B15C21C1E74749FA
:1078F000C3E75C21454815F01BF808B15C21DDE7C2
:107900004249DFE72B6858041BD53F4B1B68002B0F
:1079100017DD2F213D4815F00BF8C0B12F213B4852
:1079200015F006F8411C3E4A3A4B1288D3F804354C
:107930000292227A01923B4A00920120B22206F082
:107940001FFB00233370384B5B699847D8E65C21F6
:107950002E4814F0EDFF08B15C21E0E72B49E2E787
:10796000022B7FF4CDAE304C2D4A636810881A8804
:107970002E49988001320F881A80DA88B0F5807F0E
:107980003A44DA8002BF2A4A12689A60E3680F46D6
:107990009847236998472B6859041BD51A4B1B68D5
:1079A000032B17DD2F21194814F0C2FFF0B12F214E
:1079B000164814F0BDFF411C164B3A88D3F8043525
:1079C00002926268928801921A4A00920420C422AC
:1079D00006F0D6FA62689368908800931C32002300
:1079E000022101F09BF80023337089E65C210748EF
:1079F00014F09EFF08B15C21DAE70449DCE700BF20
:107A0000402E00205C3300203C2E002012CF0300CB
:107A1000B9330020001001408FCF0300D6CF030000
:107A2000BA330020F8CF030060330020BC330020BD
:107A3000C03300203BD00300984F3A68520417D55A
:107A4000974B1B68032B13DD2F21964814F070FF12
:107A500000287FD02F21934814F06AFF411C924BDD
:107A6000924AD3F8043500920420CF2206F088FA17
:107A70008F4B02221A703B685B0417D5884B1B683A
:107A8000032B13DD2F21874814F052FF00286AD002
:107A90002F21844814F04CFF411C834B854AD3F8B6
:107AA000043500920420D42206F06AFAE368824981
:107AB000D88A10F051F918B17A4AD62113F065FA34
:107AC0007E4DE06829687E4BA2684988C08A10F024
:107AD00053FCA84618B1734ADA2113F056FA784ECF
:107AE00030880AF025FB18B16E4ADD2113F04DFAFB
:107AF000714D308829880AF0D7FA18B1694ADF2118
:107B000013F043FA3B685F047FF5FAAD644B1B68E2
:107B1000032B7FF7F5AD2F21624814F009FF58B30E
:107B20002F21604814F004FF411C5F4B3288D3F8CA
:107B300004350492D8F80020528803922A880292D1
:107B4000E268D28A01925F4A00920420E52206F0A0
:107B500017FAD5E55C21534814F0EAFE08B15C2120
:107B600079E750497BE75C214E4814F0E1FE08B10B
:107B70005C218EE74B4990E75C214A4814F0D8FE1F
:107B800008B15C21CDE74749CFE74F4B027A1A8015
:107B9000012110230022406811F034FD0546002821
:107BA0003FF4AEAD3D4C2268560418D53C4B1B68E3
:107BB000002B14DD2F213B4814F0BAFE002832D0F0
:107BC0002F21384814F0B4FE411C374B3F4AD3F8FC
:107BD000043500920195F522012006F0D1F93C4DC3
:107BE000334E2A78236882B3580416D52C4B1B6871
:107BF000032B12DD2F212B4814F09AFEE0B12F2128
:107C0000284814F095FE411C274B324AD3F804351E
:107C100000920420F82206F0B3F9012333702B7888
:107C2000013B2B706CE55C211E4814F081FE08B10D
:107C30005C21C6E71B49C8E75C211A4814F078FEAE
:107C400008B15C21DCE71749DEE759047FF579AE1E
:107C5000134B1B68032B7FF774AE2F21114814F0D0
:107C600067FE88B12F210F4814F062FE411C1A4AAA
:107C70000D4B1288D3F804350192184A0092042063
:107C8000FF2206F07DF95CE65C21064814F050FE08
:107C900008B15C21E7E70349E9E700BF402E002077
:107CA0003C2E002012CF03000010014072D00300D0
:107CB0005C33002093D003003C3000206033002070
:107CC0003E300020BBD00300BC330020FDD00300B9
:107CD000B93300202DD10300BA3300203BD103007B
:107CE000314B07AD03F11006186859682A4603C2E4
:107CF0000833B3421546F7D1102207A9606811F086
:107D00008DFC20B1294A4FF4867113F03EF9284BBF
:107D10001B685A047FF5F4AC264B1B68032B7FF7D6
:107D2000EFAC2F21214814F003FE78B12F211F481A
:107D300014F0FEFD411C204B204AD3F8043500927C
:107D400040F20D12042006F01BF9D9E45C2117481B
:107D500014F0EEFD08B15C21E9E71449EBE7144BA0
:107D60001B685B047FF5CCAC124B1B68032B7FF7C1
:107D7000C7AC2F210D4814F0DBFD60B12F210B485B
:107D800014F0D6FD411C0C4B0D4AD3F8043500927B
:107D90004FF48972D6E75C21044814F0C9FD08B19C
:107DA0005C21ECE70149EEE7F2CE030012CF0300BD
:107DB000402E00203C2E002000100140A2D10300E4
:107DC000C7D1030010B586B002B133BB314B1B687D
:107DD0005B0417D5304B1B68002B13DD2F212F4878
:107DE00014F0A6FD80B12F212C4814F0A1FD411CF8
:107DF0002B4B2C4AD3F80435009201204FF490729B
:107E000006F0BEF806B010BD5C21244814F090FDC9
:107E100008B15C21E8E72149EAE7234C20702348B8
:107E2000234C018023490120087023490A60234A1A
:107E30001370227852BB224A1068516803AB03C307
:107E400011891980927A1F491F489A7011F0AAFB74
:107E500018B1124A772113F098F81C4B0093194A75
:107E600019491B4803AB11F070FB18B10B4A78217C
:107E700013F08BF8174812F02BFB0146144811F051
:107E80007DFB18B1054A792113F07FF80123237097
:107E9000B8E700BF402E00203C2E002012CF030088
:107EA0000010014025D20300B9330020BA3300206E
:107EB000783300205C330020C4330020BE33002020
:107EC00002CF03004030002079330020917502007A
:107ED000283200206030002007B51A4B1B685B0475
:107EE00017D5194B1B68032B13DD2F21174814F0EE
:107EF0001FFDD0B12F21154814F01AFD411C144B61
:107F0000144AD3F804350092042040F22F1206F0F0
:107F100037F8114811F0FCFB80B10C4A4FF498710E
:107F200003B05DF804EB13F030B85C21074814F09F
:107F3000FFFC08B15C21DEE70449E0E703B05DF82F
:107F400004FB00BF402E00203C2E002012CF030077
:107F50000010014072D203009175020030B587B065
:107F600006AD2E4C012345F8043D20682946023019
:107F700010F0E4F920B12A4A40F2391113F005F863
:107F8000059B012B02D0784601F012FB23682A469C
:107F9000191D588810F024FB20B1214A40F23B11F2
:107FA00012F0F3FF04A80FF0C7FE2168BDF810001F
:107FB00010F01EFA20B11A4A40F23F1112F0E5FF0C
:107FC000184B1B685B041ED5174B1B68032B1ADD6F
:107FD0002F21134814F0ACFCB8B12F21104814F035
:107FE000A7FC411C2268114B1088D3F8043503907C
:107FF00090880290528801920D4A009204204FF41A
:10800000A17205F0BDFF07B030BD5C21044814F03B
:108010008FFC08B15C21E1E70149E3E76033002010
:1080200012CF0300402E00203C2E00200010014003
:10803000E6D1030038B5C368044613B9784601F0A9
:10804000B7FA636913B9784601F0B2FA236913B934
:10805000784601F0ADFA0FCC054D0FC594E803004A
:10806000044A0023137085E80300034A137038BDE7
:1080700060330020783300205C3300201FB5374B7D
:108080001868039003A80FF01BFE20B1344A40F299
:10809000551112F07AFF334C606810210C3004F057
:1080A000F8FB606810211C3004F0F3FB60681021BD
:1080B0002C3004F0EEFB2268616802320C310020A3
:1080C0000FF0ECFF20B1264A40F25D1112F05DFF87
:1080D000254B1B685B041AD5244B1B68032B16DD4C
:1080E0002F211F4814F024FC70B32F211C4814F0DA
:1080F0001FFC411C22681E4B5288D3F804350192A4
:108100001C4A009204204FF4AF7205F039FF94E846
:10811000060000200B1D1C32498810F083F920B1A5
:108120000F4A40F25F1112F030FF236862685988ED
:108130002C32012010F020F920B1094A4FF4B1711E
:1081400012F023FF04B010BD5C21054814F0F0FBD1
:1081500008B15C21CAE70249CCE700BF0ECF03009B
:1081600012CF030060330020402E00203C2E002060
:10817000001001405FD2030030B50446018085B095
:108180001046154603F06AFE214B20711B88A3811F
:108190001E23E373237CE580002203F0030362F3D4
:1081A00001032374012363741A4BA273A2741A8807
:1081B000A4F813205B88A4F81530174B1B685B04E8
:1081C0001BD5164B1B68032B17DD2F21144814F009
:1081D000AFFBA0B12F21124814F0AAFB411C114B98
:1081E000E288D3F804350292228801920E4A009266
:1081F000042040F2231205F0C3FE05B030BD5C211F
:10820000074814F095FB08B15C21E4E70449E6E770
:10821000C8330020CA330020402E00203C2E00200E
:108220009FD2030000100140D5D2030010B50548CD
:1082300004F0D4F9044B054A1A60054BBDE8104020
:108240001B681847E8330020E82D002016D40300EF
:10825000D833002030B5844B1B681B78013B8DB0B0
:10826000092B00F2D782DFE813F00A004C008000EF
:10827000BB0025017A01D201A102BB022D027B4B7A
:108280001B685A0417D57A4B1B68032B13DD2F216B
:10829000784814F04DFB58B32F21764814F048FB72
:1082A000411C754B754AD3F804350092042040F206
:1082B0005B1205F065FE002009F052FF704B0222B0
:1082C0005A8000221A705A60002800F03D816D4CDF
:1082D0000AF072F82378002B00F0A382013B237090
:1082E00004F0C8F968490144201D04F08EF92BE11F
:1082F0005C21604814F01CFB08B15C21CDE75D49AE
:10830000CFE75A4B1B685B0417D5594B1B68032BEF
:1083100013DD2F21574814F00BFBE8B12F215548EE
:1083200014F006FB411C544B584AD3F80435009214
:10833000042040F2651205F023FE554B1A68554B98
:108340000020198809F030FF4D4B48F203025A8093
:1083500002221A70504AB6E75C21464814F0E8FA47
:1083600008B15C21DBE74349DDE7404B1B685D0456
:1083700017D53F4B1B68032B13DD2F213D4814F00D
:10838000D7FA20B32F213B4814F0D2FA411C3A4BC4
:10839000424AD3F80435009204204FF4B87205F035
:1083A000EFFD4FF6FF73ADF818300223ADF81A3029
:1083B000384B069A19883A4B188809F0F5FF304B6C
:1083C00048F23E025A8001221A70364A7BE75C214D
:1083D000284814F0ADFA08B15C21D4E72549D6E766
:1083E000224B314C1B6813F4804F19D0204B1B6873
:1083F000032B15DD2F211F4814F09AFA58B32F21B3
:108400001C4814F095FA411C1B4B6288D3F80435C4
:108410000192264A0092042040F27F1205F0B0FD3E
:108420006278237843EA0223ADF81830E278A37823
:1084300043EA0223ADF81A30164B069A1988184BF6
:10844000188809F0B1FF0E4B48F23E025A80012213
:108450001A70174A37E75C21064814F069FA08B128
:108460005C21CDE70349CFE7E82D0020402E002016
:108470003C2E00209FD203000010014003D30300D4
:10848000D0330020E4330020404B4C001DD30300C8
:1084900008340020C83300200CD403002CD3030080
:1084A000CE3300200ED403000034002049D3030053
:1084B0000FD40300AB4C23881BB9AB4B1B88013393
:1084C0002380AA4BAA4D1B6813F4804F1CD0A94BE4
:1084D0001B68032B18DD2F21A74814F029FA002868
:1084E00034D02F21A44814F023FA411CA34B228836
:1084F000D3F8043502926A880192A14A00920420BE
:108500004FF4C97205F03CFD6A782B78208843EA65
:108510000223ADF81830EA78AB7843EA0223ADF8CD
:108520001A30984B069A198809F03EFF964B48F28C
:108530003E025A8001221A70944A5A6000287FF441
:10854000C6AE2388013323800DB030BD5C218A483C
:1085500014F0EEF908B15C21C4E78749C6E7182298
:1085600000210DEB020014F005F97F4B1B88ADF8DC
:108570001830012399008DF81C30ADF81E308DF8AD
:1085800029304FF0FF338DF82B308DF82C3000233D
:108590008DF82E30754B1E221B688DF82720022285
:1085A00062F301015C048DF828108DF82D201AD596
:1085B000704B1B68032B16DD2F216F4814F0B8F9A0
:1085C000E0B12F216C4814F0B3F9411C6B4BBDF89E
:1085D0001E20D3F8043501926D4A0092042040F227
:1085E000B31205F0CDFC06A809F016FE664B48F262
:1085F00019025A8001221A70664A64E65C215E48BC
:1086000014F096F908B15C21DCE75B49DEE718223B
:1086100000210DEB020014F0ADF8534B5E4C1B88AB
:10862000ADF81830D80754BF4FF4817340F20113EE
:10863000ADF81E30534B1B88ADF8243001221E23A9
:108640008DF81C208DF827302288ADF82B200123CF
:108650008DF829306288ADF82D20444A1268510403
:108660001CD5444B1B68032B18DD2F21424814F006
:108670005FF9F0B12F21404814F05AF9411C3F4BEB
:10868000BDF81E20D3F80435029262880192434A55
:108690000092042040F2D51205F072FC06A809F001
:1086A000BBFD394B48F219025A8001221A703C4A2C
:1086B00009E65C21304814F03BF908B15C21DAE7A7
:1086C0002D49DCE7294B1B685A0418D5294B1B6838
:1086D000032B14DD2F21284814F02AF9002837D065
:1086E0002F21254814F024F9411C244B2D4AD3F89E
:1086F0000435009204204FF4F07205F041FC1A4B4F
:1087000018880023079303238DF81830C3074CBF44
:108710004CF203034CF20203ADF81A301E4B5978A9
:108720001A7842EA0122ADF814209A78DB7842EAFE
:108730000323ADF8163006AA059B06CA09F00EFE03
:10874000114B48F21F025A8001221A70164ABAE5EC
:108750005C21094814F0ECF808B15C21C1E7064936
:10876000C3E700BF04340020CE330020402E002099
:10877000CA3300203C2E00209FD20300001001408D
:1087800066D30300C8330020D033002010D4030088
:1087900095D3030011D4030000340020D2D303008A
:1087A00012D40300F7D3030013D4030018220021CE
:1087B0000DEB020013F0DEFF1B4B198801314CF268
:1087C000030289B206A8FFF7D7FC06A809F024FD2A
:1087D000164B48F219025A8001221A70144A72E5A7
:1087E000182200210DEB020013F0C4FF0E4B198874
:1087F00002314CF2020289B206A8FFF7BDFC06A8BE
:1088000009F00AFD094B48F219025A8001221A7038
:10881000084A58E5084A40F21121052012F0B5FB3C
:1088200055E5FFF703FD8FE6CE330020D03300205F
:1088300014D4030015D403009FD20300FFF70ABD30
:10884000F0B50D4685B0002856D1974D2A685604DC
:1088500018D5964B1B68032B14DD2F21944814F078
:1088600067F8002836D02F21914814F061F8411C98
:10887000904B914AD3F804350092042040F26722CD
:1088800005F07EFB8D4C2388002B00F0CD802B68FB
:108890005D0417D5854B1B68032B13DD2F218448FE
:1088A00014F046F8F8B12F21814814F041F8411C2A
:1088B000804B834AD3F804350092042040F26B22A7
:1088C00005F05EFB2388013B238005B0BDE8F04046
:1088D000FFF7C0BC5C21764814F02AF808B15C218F
:1088E000C2E77349C4E75C21714814F021F808B16C
:1088F0005C21D9E76E49DBE7022828D111B9784617
:1089000000F056FE6F4C23681B780BB10B2B29D15E
:10891000654B1B6858041AD5644B1B68012B16DD88
:108920002F21634814F004F898B12F21604813F008
:10893000FFFF411C22685F4B1278D3F80435019287
:10894000614A0092022040F23F2205F019FB05B077
:10895000F0BD5C21564813F0EBFF08B15C21E5E760
:108960005349E7E7594E2F887388BB4227D04E4BB7
:108970001B685904EBD54D4B1B68002BE7DD2F21FD
:108980004B4813F0D5FF88B12F21494813F0D0FF91
:10899000411C484BD3F804350297728801924C4A27
:1089A00000920120E12205F0EBFAD0E75C2140487B
:1089B00013F0BEFF08B15C21E7E73D49E9E748F263
:1089C00019018B426A6806D033D8022B58D048F27E
:1089D00003018B4234D115783378002B00F082806C
:1089E000314B1B685B0419D5304B1B68032B15DD1D
:1089F0002F212F4813F09CFF00284CD02F212C480A
:108A000013F096FF411C2B4B324AD3F804350092E9
:108A100001954FF48372042005F0B2FA7268307841
:108A20001346991A884259D805B0BDE8F040FFF7BF
:108A3000FDBB48F21F018B42CDD048F23E01C8E792
:108A4000194B1B685A0416D5184B1B68002B12DDF6
:108A50002F21174813F06CFFA0B12F21144813F0F9
:108A600067FF411C134B1C4AD3F8043500920120C8
:108A7000FD2205F085FA0E4AFE21052012F085FA46
:108A8000FF25A9E75C210A4813F052FF08B15C21D9
:108A9000E4E70749E6E75C21054813F049FF08B120
:108AA0005C21ACE70249AEE7402E00203C2E0020BE
:108AB0009FD203000010014017D40300E0330020D0
:108AC00042D40300E82D00204DD40300D033002011
:108AD0007FD40300C9D40300A9D4030013F8011BF9
:108AE0008D429ED123680A485A1C5B7822600B2B6A
:108AF0004FF0030202707FF4E8AE043003F06EFD25
:108B0000044B2360044B1B6805B0BDE8F0401847D8
:108B1000E433002016D40300DC3300202DE9F043B9
:108B2000924FDFF89C823C68247889B03CB3D8F837
:108B30000030580417D58E4B1B68002B13DD2F21F6
:108B40008C4813F0F5FE88B12F218A4813F0F0FE0F
:108B5000411C894B894AD3F804350092012040F228
:108B6000832205F00DFA09B0BDE8F0835C2181484D
:108B700013F0DEFE08B15C21E7E77E49E9E7804CAF
:108B8000804E20808048814D018081498148C860A5
:108B90004FF0030981F800907F4910980A607F4ADE
:108BA0007F49138013F0AAFE002840F09280012331
:108BB000B3701023F3700022AA70EB704FF0FF33F4
:108BC000337073702B706B70D8F800305A041BD55B
:108BD000674B1B68032B17DD2F21664813F0A8FE97
:108BE000002800F0B1802F21624813F0A1FE411C43
:108BF000614B2288D3F8043501926A4A009204201E
:108C000040F2A12205F0BCF94FF6FF732288ADF8BF
:108C10001430ADF8163005A9012306A88DF81830D8
:108C2000ADF81A200FF062F920B1524A40F231211A
:108C300012F0ABF90DF11601BDF81A000FF0D8FBD8
:108C400020B14C4A40F2322112F09FF9BDF81600D3
:108C500009F06EFA20B1474A40F2352112F095F939
:108C6000BDF81410BDF8160009F01EFA20B1414AF3
:108C700040F2362112F089F9D8F800305B041ED595
:108C80003B4B1B68032B1ADD2F213A4813F050FE93
:108C9000002862D02F21374813F04AFE411C364B82
:108CA000BDF81420D3F804350292BDF816200192C5
:108CB0003D4A0092042040F2372205F061F92388F2
:108CC000B3F5807F0CBF394B394B3B60FFF7C2FADD
:108CD00049E73849109813F011FE00283FF467AFB8
:108CE0003549109813F00AFE28B9102386F802902F
:108CF000F370022260E7D8F80030590417D51C4BF6
:108D00001B68002B13DD2F211A4813F011FE90B1C0
:108D10002F21184813F00CFE411C174B274AD3F89B
:108D200004350092012040F29A2205F029F9784694
:108D300000F03EFC42E75C210E4813F0F9FD08B15B
:108D40005C21E6E70B49E8E75C210A4813F0F0FDF7
:108D500008B15C2148E707494AE75C21054813F060
:108D6000E7FD08B15C2196E7024998E7E82D00206D
:108D70003C2E00209FD2030000100140E3D40300EA
:108D8000CE330020CA330020E0330020003400201E
:108D9000E43300203D88020008340020C83300205E
:108DA00083CE030037D5030051D5030096D20300CC
:108DB00087D503009ECE0300B7CE030017D503006E
:108DC000402E002038B50C46054610B9784600F014
:108DD000EFFB14B9784600F0EBFB024B1D60024B31
:108DE0001C6038BDDC330020D833002010B5054CA2
:108DF000226832B112F0FCF9002802DB23689847A0
:108E0000F8E710BD0C340020154B164A10B50C467F
:108E100018600121144810F0AFF818B1134A4A2124
:108E200012F0B3F8610C0023E00341F26F728B4241
:108E300008BF824210D24FF47A72002313F0B0FAC6
:108E4000014600220A4810F0A9F838B1074A4B2120
:108E5000BDE8104012F099B80521F2E710BD00BF3F
:108E60000C340020ED8D020090D5030094D5030052
:108E70001034002038B50D4C206808B912F078F88D
:108E80004FF0A0450A4AD5F8043512685340C5F89A
:108E900004352368013B236033B9064810F0C4F859
:108EA000054B1B68C5F8043538BD00BF30340020C1
:108EB00034340020383400206034002001234FF087
:108EC000A042834011B1C2F80C357047C2F8083592
:108ED00070474FF0A04311B1C3F80C057047C3F8B9
:108EE00008057047F8B542B3132926D9134B144D22
:108EF0005200013A4FF0A0441A602860114BD4F898
:108F000004251A604FF400404FF4FA760027E0FB86
:108F100001674FF47A7200233046394613F040FA65
:108F200000220146084810F039F830B9D4F8043569
:108F30002A6823EA0203C4F80435F8BD303400205F
:108F400034340020603400203834002008B54FF05D
:108F5000A04303224FF40051C3F83427C3F8081587
:108F60004FF48041C3F83827C3F808154FF4004187
:108F7000C3F83C27C3F80815C3F840274FF48032E4
:108F8000C3F808250121054A05480FF0F5FF18B17F
:108F9000BDE8084011F0ECBF08BD00BF758E0200AF
:108FA000B8D50300D8B10F4B0F4A18604FF0A0435B
:108FB0000020C3F82C27C3F83027C3F86027C3F874
:108FC00064270A4B4FF00042C3F80423C3F87C0126
:108FD000074BC02283F8062340221A6070470E20F8
:108FE000704700BF583400200C00030000600040B0
:108FF00000E100E0124B70B50024124E124DC3F890
:109000007C414FF0A043A15DD3F8102501238B4094
:10901000934311D00D49D5F804250B68981A48BF21
:10902000D01A43F23333984206D9D5F804350B6091
:10903000074B20461B6898470134042CE1D170BDD2
:1090400000600040BCD50300001001405C340020EB
:109050005834002060DF704769DF704703F0AAB81A
:1090600010B588B000F04CF908B111F081FF2B4B1E
:109070000393039B04930C22002105A813F07AFBB1
:109080000023049A8DF8143005A90120FFF7E4FFAE
:1090900008B111F06DFF0C22002105A813F06AFB46
:1090A000F823049A059305A9A120FFF7D5FF08B17D
:1090B00011F05EFF04A8FFF7CDFF039B049A9A42CC
:1090C00004461CD0164B1B685B0418D5154B1B6857
:1090D000012B14DD2F21144813F02AFCA8B12F21F5
:1090E000114813F025FC411C104B049AD3F80435A9
:1090F00001920F4A00920220A22204F041FF14B113
:10910000204611F035FF08B010BD5C21064813F071
:109110000FFC08B15C21E3E70349E5E7A02D00203F
:10912000402E00203C2E0020C0D50300001001403E
:10913000F0D5030070B5EFF3108672B60C4A946850
:1091400001239CB993600B4B0B4DD3F88010294041
:109150001160C3F88050D3F8841051604FF0FF3293
:10916000C3F88420047006B962B670BD0370FAE7D4
:109170002C54002000E100E0FC06FFBD10B5084BB8
:109180009A685AB150B9EFF3108272B605491C685B
:109190000C605C684C60986002B962B610BD00BF9C
:1091A0002C54002000E100E001600B6843604A6835
:1091B000934204BF002343607047436843B1026891
:1091C00091680B4443605268934204BF002343609C
:1091D00070474BDF704700001FB50D4C01A8FFF72B
:1091E000F8FF70B9214602A8FFF7DEFF039B002BB2
:1091F000F4D001981A685968904702A8FFF7DDFF7C
:10920000F4E7052801D011F0B3FE04B010BD00BF93
:109210002CD6030061DF704730B5114B1B7891B03D
:10922000E3B1104D34240DF1020103A8ADF8024062
:10923000FFF7F0FF70B9294601A8FFF7B5FF029BC1
:10924000002BF0D003A81A685968904701A8FFF7CF
:10925000B4FFF4E7052801D011F08AFE11B030BD4B
:109260006434002038D6030010DF704713B504467D
:1092700009496846FFF798FF019808B902B010BD88
:10928000036841682046984718B16846FFF795FF84
:10929000F2E71120F2E700BF48D6030013B50446F9
:1092A00007496846FFF780FF019B0BB902B010BD6C
:1092B00020461A68596890476846FFF77EFFF3E733
:1092C00060D603000C4991F816335A09EC23134178
:1092D000DB0708D442F2020011F04ABE1A6842F4D9
:1092E00080021A607047054B9A68002AF6D14FF445
:1092F00080030B60704700BF00E100E02C540020A9
:10930000F7B5184F3C785CBB174E012520463570E9
:10931000FFF7ACFF112820D02046FFF7BFFF134B0B
:109320001868019002A800F8054DFFF703FF1049E7
:1093300001A8FFF799FF0446B0FA80F040093870A1
:109340009DF80300FFF71AFF3CB90A4B34701C70FC
:10935000FFF7B8FF2846FFF7A1FF204603B0F0BD96
:109360000824FAE7663400206534002044D6030060
:10937000A99302006734002007B508496846FFF743
:1093800013FF019B13B903B05DF804FB58681A681A
:1093900090476846FFF711FFF3E700BF54D603007C
:1093A000FFF7EABF0620704730B541F2010398424B
:1093B00087B00D461446744B00F083801FD80128F7
:1093C00047D01B685B0460D5704B1B68002B5CDDCD
:1093D0002F216F4813F0ACFA002800F0C9802F212C
:1093E0006B4813F0A5FA411C6A4B6B4AD3F804355D
:1093F000009201957B22012004F0C2FD45E044F279
:109400000102904200F0898044F202029042D8D1D9
:109410001B68590439D55D4B1B68002B35DD2F21A6
:109420005B4813F085FA00286ED02F21584813F0BE
:109430007FFA411C574B2288D3F8043503926268A7
:109440000292564A009201956C22012004F098FD88
:109450001BE01B685B0418D54C4B1B68002B14DD0C
:109460002F214B4813F064FA10B32F21484813F012
:109470005FFA411C474B4A4AD3F8043500920294E4
:1094800001956022012004F07BFD4FF0A0434FF4D2
:10949000F032C3F81825C3F80C25EFF3108372B629
:1094A0004DF6AD6C3F4A1378002B6AD107B030BD42
:1094B0005C21374813F03CFA08B15C21D6E7344907
:1094C000D8E71B685804E0D5304B1B68002BDCDD67
:1094D0002F212F4813F02CFA68B12F212C4813F0BC
:1094E00027FA411C2B4B304AD3F8043500920294E2
:1094F00001956322C6E75C21254813F019FA08B1EB
:109500005C21EBE72249EDE75C21214813F010FADA
:1095100008B15C218AE71E498CE71B685A04B4D560
:109520001A4B1B68002BB0DD2F21194813F000FAED
:10953000A8B12F21164813F0FBF9411C154B2268E6
:10954000D3F804350492626803920295A2680192EE
:10955000164A00920120772204F012FD95E75C2163
:109560000B4813F0E5F908B15C21E3E70849E5E7AA
:109570005C21074813F0DCF908B15C2130E70449AD
:1095800032E730BF8FE700BF402E00203C2E002086
:109590006CD603000010014010D70300D0D60300A2
:1095A00094D60300EC2D0020AED60300EFD60300C6
:1095B00007B50023ADF800300146054B01936A461C
:1095C00044F20200FFF7F0FE03B05DF804FB00BFB9
:1095D000D9CB030001461022014813F0C0B800BFE8
:1095E0006834002010B50B4C0B490822204613F0BC
:1095F000B6F80822A018094913F0B1F8E37904225B
:1096000062F30713E371237A022262F38713237252
:1096100010BD00BF6834002060000010A4000010DE
:109620000048704768340020002306491A46C818CD
:10963000428042605A540833B3F5807FF7D1024B21
:109640001A6070477834002078350020F0B50C4B54
:109650000C4C1B68064620227BB1013B14F83300FA
:1096600050B104EBC3056F88B74202D16D688D42DB
:1096700002D0013AF0D11046F0BD1F23EEE700BF43
:10968000783500207834002030B5084A084C13683B
:1096900004EBC3056960012104F833100B44202B4F
:1096A00008BF00236880136030BD00BF78350020FC
:1096B00078340020C0F30C038B42084438BFA0F577
:1096C0000050C01A70470000F0B50E4B0E4C1F68DA
:1096D0000022BA4213D0D10063185E6800230AE06A
:1096E000655805EBC30E15F83350854202D1DEF8FC
:1096F0000400F0BD0133B342F2D10132E9E70020AA
:10970000F0BD00BF7C3500208035002000B58DB055
:1097100040B99A1C06D0012201A88DF804200293BA
:1097200001F026F9034B186803F0E2FC0DB05DF878
:1097300004FB00BF8835002010B50378044613B938
:109740007846FFF735FFE079431C01209840013847
:1097500010BD0000F8B5037804460F4613B97846EB
:10976000FFF726FF0B4B0C4E1A68511C02F0070244
:1097700006EBC2051960A38A6B80A188A069FFF778
:1097800099FF6860E36906F8327003F001036B70BB
:10979000F8BD00BFCC3500208C3500202DE9F0410C
:1097A0000E468EB015461C46074610B97846FFF7A0
:1097B000FFFE16B97846FFF7FBFE14B97846FFF7AF
:1097C000F7FE636A627802330593A378A2F108007A
:1097D000002B14BF012102210DF104084242424135
:1097E000434604F10C0003F0B6FD63788DF8343085
:1097F000237BADF82050022B16FA85F5CDF81880A2
:1098000007970B960C950FD1236913B97846FFF78C
:10981000CFFE23690993102305A8ADF8283003F083
:1098200096FD0EB0BDE8F0810023F5E738B504469B
:1098300004F13005C06E06F0C4FF284602F001FFB7
:1098400010B1284602F0CAFE94F84830022B08D125
:1098500004F15005284602F0F4FE10B1284602F04B
:10986000BDFE20467022002112F084FF002084F803
:109870004800BDE8384002F061B810B590F84830B3
:10988000012B8CB0044602D07846FFF791FE0123ED
:109890008DF8043001A8636D029301F069F8204649
:1098A000FFF7C4FF0CB010BD4B1E012B2DE9F04794
:1098B00007468846914602D97846FFF779FEB9F502
:1098C000C07F02D97846FFF773FE264B0025702231
:1098D0009A4602FB053494F848603EB9484606F0C3
:1098E0006EFFE06630B90020BDE8F0870135042D39
:1098F000EFD1F8E730223946204612F030FFE66417
:10990000A4F84A90B988B869FFF7D4FEB8F1010FFE
:10991000A0611CD1144B84F852601B7D84F8513037
:1099200084F8536084F85060BB6A63656FF001038C
:10993000A3620E4BA3632464012001F0FFFF702398
:1099400003FB05A5204685F84880BDE8F0876FF049
:109950000103A362064BA36584F868602466054B87
:10996000E8E700BFE8350020D0350020359D020033
:10997000EDA802002D9D02001FB500220B468DF8B8
:109980000F2028B30230086018460DF10F0103F0D4
:10999000E0FC9DF80F30DBB1144B1B685B0717D55B
:1099A000134B1B68032B13DD2F21124812F0C0FF4D
:1099B00098B12F210F4812F0BBFF411C0E4B0F4AEC
:1099C000D3F804350092042040F2A63204F0D8FA0D
:1099D0009DF80F0005B05DF804FB5C21054812F00E
:1099E000A7FF08B15C21E5E70249E7E7402E002028
:1099F0003C2E002060D70300001001407DD70300FB
:109A00002DE9F04799461378D2F81880F2B007464E
:109A10008A46144623B191884046FFF74BFE906179
:109A2000A3786278002BA2F1080003AD14BF0121D6
:109A3000022104F10C06424242412B46304603F01B
:109A40008AFC627808951FFA8AF5AB1A9BB20997CF
:109A5000ADF828301F440023ADF83030237B8DF85B
:109A60003C20022B04BF1022ADF83020A2780E97C4
:109A700012AFC4F818800D9704F12408002A5ED0B4
:109A80004FF0000A237BC4F824A0022B04BF2369F3
:109A90000B93206AE17842460EF098FE606A40BB64
:109AA000237B022B05D13146E0890EF03DFF0028D3
:109AB000E8D1354B1B685B0718D5344B1B68052B69
:109AC00014DD2F21324812F033FF002852D02F210D
:109AD0002F4812F02DFF411C2E4B2F4AD3F804358E
:109AE0000092062040F2196204F04AFA72B0BDE812
:109AF000F08707A9FFF740FF0028CAD06178A28A43
:109B0000ADF82A206D1A01218DF8281096E803007F
:109B100000230B938DF81C300CAB83E80300A37D6E
:109B20008DF84030236A0E9307A8636A0897ADF852
:109B300024500F93CDF8449000F01AFFD6E7012B84
:109B400062620CD000234146A08A63620EF076FE6A
:109B500007A9606AFFF710FF0028AAD0CEE74146A8
:109B6000E0890EF06BFE07A9606AFFF705FF002889
:109B7000E8D0C3E75C21064812F0DAFE08B15C21A8
:109B8000A6E70349A8E700BF402E00203C2E002096
:109B900060D7030000100140B4D70300C37D0A78EA
:109BA00030B5002B3DD0837822F07F0203F07F0395
:109BB0001A430A700B78027803F07F0343EAC2135A
:109BC0000B70037863B34378083B5A425A414B7891
:109BD00003F07F0343EAC2134B708A78858802F052
:109BE0000302C5F3861442EA850223F07F03234370
:109BF000D2B28A704B70CB78857903F01F03C5F31E
:109C0000C10422F0030243EA45132243DBB2CB70C6
:109C10008A70C27923F01F0302F01F021343CB7036
:109C200030BD83789B0122F0400203F040031343D0
:109C30000B70C27823F03F0302F03F0213430B7016
:109C4000B8E7000038B590F84830012B044602D040
:109C50007846FFF7ADFC02F00DFD237B084A012B8F
:109C600003BFA37D1569D168D16808BF05FB031147
:109C7000014404F13000BDE8384002F0C6BC00BF2A
:109C8000D035002070B50D4690B0044610B9784626
:109C9000FFF78EFC00212046FFF75CFD2C220021FF
:109CA00005A8666D12F066FD102305A88DF8143026
:109CB00006968DF81C5000F05BFE2046FFF7B6FDBF
:109CC000154B1B685B071BD5144B1B68032B17DD5B
:109CD0002F21134812F02CFEA0B12F21104812F0B2
:109CE00027FE411C0F4BD3F80435029594F8482009
:109CF00001920D4A0092042040F2EF1204F040F964
:109D000010B070BD5C21064812F012FE08B15C2153
:109D1000E4E70349E6E700BF402E00203C2E002088
:109D200060D70300001001402FD703000846002130
:109D3000FFF7A8BF10B591F84830012B0C4602D0B0
:109D40007846FFF735FC94F851305BB1013B84F85D
:109D50005130002384F85030084BBDE8104018689B
:109D600003F0C6B9217B0129204603D1BDE810408C
:109D7000FFF788BFBDE81040FFF77FBD88350020A2
:109D80002DE9F04F044689B00F4609B100230B605E
:109D900004F10C0394F8505001934FF001084FF078
:109DA000000BE279954203D9002009B0BDE8F08F9D
:109DB000E16C08FA05F30B425BD1E37DA571002B42
:109DC0000CBF0C260826954206FB05FA237808BF2F
:109DD000B4F84A608DF819B008BFA6EB0A06002B4C
:109DE00014BF4FF004094FF0010906EB0903059376
:109DF000019B0393A36A049303A894F82C308DF875
:109E0000183003F044FC0028CFD1079B994445B992
:109E100094F853302BB9A36984F85380C3F30C032F
:109E2000A380E37D8BB994F8523073B915B17846AD
:109E3000FFF7BEFBB4F84A1062788A1AE16E234637
:109E40000846FFF7ABFC84F8528007992046FFF7DD
:109E5000A5FEE16E32465144484612F080FC03A84C
:109E600003F031FC17B13B6801333B606B1C84F895
:109E700050300135EDB294E72DE9F041D47D8AB040
:109E800006460F4615469846002C00F092809478BE
:109E9000002C6BD106294AD102784378817892014F
:109EA00002F4FE5242EA9302C3781B0443EA0163C0
:109EB00041790B43017943EA01233F49084691F870
:109EC0004860012E12D18F8AEE89B7420ED18E885A
:109ED00096420BD1702202FB0404E56C1D43E5643D
:109EE0008BBB03212046FFF7CDFE20E00134042C7C
:109EF00001F17001E3D1314B1B685B0717D5304B83
:109F00001B68012B13DD2F212E4812F011FD88B1A3
:109F10002F212C4812F00CFD411C2B4B2B4AD3F85F
:109F200004350092022040F2A75204F029F80AB04A
:109F3000BDE8F0815C21234812F0FAFC08B15C21F5
:109F4000E7E72049E9E72046FFF7F6FB854203D122
:109F50002046FFF792FCEAE7002184F850102046E3
:109F6000FFF70EFF2046FFF76DFEE0E72046FFF704
:109F7000ABFB03460028DAD005F10C012A6A0892EF
:109F800003C9AA8AADF8162006AA82E80300AA7DB2
:109F90008DF824202A788DF8142095F82C208DF83F
:109FA0000840039604978DF82520414602A898475B
:109FB000BDE7FFF725FDBAE7E8350020402E002079
:109FC0003C2E002060D7030000100140DDD70300C5
:109FD000F0B5C37D15464278002B2A4414BF4FF4D8
:109FE00080734FF4C0739342C7B00E4677D33F4B94
:109FF00003F5E07193F84840012C07D19F8A848AC9
:10A00000A74203D1DF89C489A7426AD0703399423D
:10A01000F0D10121FFF748FC0446002863D02A460E
:10A020003146C06E12F09BFB002304A92046049326
:10A03000FFF7A6FE30F0040506464BD1049B13B192
:10A040002046FFF7FFFD2A4B1B685B0728D5294BED
:10A050001B68032B24DDB4F84A10274B80291868AD
:10A0600028BF8021002305AE8B421CD100222F2166
:10A07000224806F8132012F05BFC10B32F211F4872
:10A0800012F056FC411C1E4B1E4AD3F804350192B7
:10A090001D4A0092029640F2D142042003F070FF64
:10A0A000284647B0F0BDE26ED25C170902F00F02FD
:10A0B000C75D06F81370875C06EB430201335770E7
:10A0C000D2E75C210D4812F033FC08B15C21D6E7E1
:10A0D0000A49D8E72046FFF7A9FB3546E0E70925FE
:10A0E000DEE70825DCE70425DAE700BFE8350020D5
:10A0F000402E00203C2E0020442E002060D703007C
:10A100000010014052D703007ECB03002DE9F0413F
:10A11000044686B0808A0F46164601F09FFE01284D
:10A120004DD1237B002B4AD0022B02D12369002B77
:10A1300045D094F91630002B43DB22784AB13246E1
:10A1400039462046FFF744FF0546284606B0BDE8DD
:10A15000F081E17D63780029334414BF0B210F2186
:10A160008B422AD80133039304F10C030193A36AB1
:10A17000029301A894F82C308DF810308DF811203E
:10A1800003F085FA05460028DFD10599204601F144
:10A190000108FFF703FDE37D43B1324639464046EF
:10A1A00012F0DDFA01A803F08EFACEE7234632461C
:10A1B00041463846FFF7F2FAF4E70925C5E71025CE
:10A1C000C3E70725C1E7000010B54FF4E072002196
:10A1D000144812F0CFFA002404F066FE124B134824
:10A1E0001C602146402212F0C5FA114B1148124A58
:10A1F00012499C7583E805004CF250329A601A614E
:10A2000004221A750E48D96008225A7502F052FFCE
:10A210000C4B18600C4B0D481C60BDE8104004F05E
:10A2200045BF00BFE8350020CC3500208C3500202C
:10A23000D035002080969800F049020020A1070048
:10A2400049A40200883500207C3500200D970200CB
:10A2500004F0C6BDF0B504468DB000284FD00569A6
:10A26000002D4CD0C369002B49D08669002E46D002
:10A270005A788DF803201A780993037BC17A022B50
:10A2800004BF214B9B7D002B82F0010214BF0823E9
:10A2900004238DF802208DF80130828AC3F10F006B
:10A2A00019B9824201DC082B2BD08242C8BF0121A0
:10A2B0008DF8001051B113440B330C2193FBF1F3D3
:10A2C000013B8DF8073000238DF8063094E8030039
:10A2D00003AF87E803002189ADF81410A17A8DF847
:10A2E0001610216A0A910023294668468DF8173016
:10A2F00008968DF82C30FFF709FF0DB0F0BD0E2049
:10A30000FBE70720F9E700BFD0350020F0B5034692
:10A310008DB00F4600283DD04468002C3AD08569A6
:10A32000002D37D0027C12F0FD0F35D002781106D7
:10A3300034D48DF8022082680B2A98BF007B4FF03E
:10A34000000188BF012009918DF800008DF80110EF
:10A3500030B1D01DC00801388DF807008DF8061007
:10A3600001218DF8171003F1100103C903AE86E82F
:10A370000300D989ADF81410197F8DF816105B7F92
:10A380000895214668468DF82C300A97FFF7BEFEE7
:10A390000DB0F0BD0E20FBE71020F9E70720F7E72E
:10A3A000F0B5077B012F8DB004460D4647D101AEB5
:10A3B0000B220021304612F0DDF9A1889DF804201F
:10A3C0008DF80950C1F3861322F07F021A439DF8DD
:10A3D00005308DF8042003F0030343EA81038DF870
:10A3E00005302B0E8DF806302B0C8DF807302B0A1C
:10A3F0008DF8083006230693A38AADF82230002397
:10A4000009938DF810308DF81C30E389ADF81E30BB
:10A4100094F82C308DF82D30A37D226A8DF82070B1
:10A4200005960A9243B96FF0010104A88DF82C300B
:10A43000FFF76CFF0DB0F0BD024B5B7DF3E7002032
:10A44000F8E700BFD0350020F7B500241D4E2746A1
:10A45000351995F84830012B0BD101A928460197F1
:10A46000FFF78EFC042801D0019B13B12846FFF7AB
:10A47000E9FB7034B4F5E07FEAD1124C04F5E075E5
:10A4800094F84830022B17D194F86830022B13D17E
:10A49000E16C2046FFF784FF70B984F8680020461D
:10A4A000E66CFFF749F9864206D120460121FFF705
:10A4B00051F92046FFF7BAF97034AC42E0D10120DF
:10A4C00003B0F0BDE83500202DE9F0470D469CB003
:10A4D000144698460646002800F0ED81002A00F058
:10A4E000EA810DF10C0900210822484612F042F9D8
:10A4F000494660880EF018FA20B9002738461CB08B
:10A50000BDE8F0872269E168208904F097FC824663
:10A510000028F2D12269E168208904F069FC07462D
:10A52000A8B12C22514610A82589247C12F022F9CA
:10A530000F238DF840309DF84630ADF8445064F359
:10A54000000310A88DF8463000F012FAD6E70DF19E
:10A550004C0A18222146504612F001F9337803F0D4
:10A560008002111C18BF01218DF840109DF8571072
:10A57000E1B103F07F038DF842308DF841705AB39A
:10A580007278B378920102F4FE5242EA9302ADF877
:10A590004420DB00F27803F0180343EA521302F080
:10A5A0001F028DF846308DF8472015E0C3F3801167
:10A5B0008DF8421003F03F018DF84310190608D5BD
:10A5C00096F90130002BACBF042308238DF84130ED
:10A5D000D5E704238DF841300023199398F8003013
:10A5E000052B02D97846FEF7E3FF98F80030B54A0C
:10A5F00099E80300D35C8DF86C308AE8030002F020
:10A60000E9FC9DF84030002B00F04E81AE4BBDF8C8
:10A6100054200024194693F8480002280DD1988A46
:10A6200090420AD1702303FB0414BDF84420A38890
:10A630009A4230D202F00EFD60E70134042C03F19F
:10A640007003E8D100249DF8403013B97846FEF736
:10A65000AFFF179BBDF844101698BDF854A003F047
:10A660000109FFF727F8994B00229E465968884256
:10A6700017D15988514514D15978494511D11EF83F
:10A680003230002BD6D010A8FFF756F8014610A89C
:10A69000FFF786FECEE7D6D905212046FFF7F2FA6E
:10A6A000D0E70132082A03F10803DFD1002C51D191
:10A6B0009DF857209DF84730002A0CBF0C24082431
:10A6C00003FB04440CBF4FF4C0734FF480739C42EF
:10A6D00026D97F4B1B685A07ACD57E4B1B68002BD5
:10A6E000A8DD2F217C4812F023F980B12F217A4870
:10A6F00012F01EF9411C794B794AD3F804350092C7
:10A70000019440F23632012003F03AFC92E75C21DA
:10A71000714812F00DF908B15C21E8E76E49EAE7EB
:10A720002246022110A8FFF7BFF8044690B901465F
:10A7300010A8FFF735FE2C22214605A812F01AF8C2
:10A7400010238DF8143005A802238DF81C3000F07A
:10A750000FF96FE75E4B1B685B071CD55D4B1B68F1
:10A76000032B18DD2F215C4812F0E2F8002800F0DE
:10A770008A802F21584812F0DBF8411C574B9DF876
:10A780004620D3F804350192564A0092042040F244
:10A79000513203F0F5FB94F84830022B02D0784692
:10A7A000FEF706FFDFF84091D9F800A001F062FF44
:10A7B0000AEB000104F1300001F027FF237B012B9D
:10A7C0001CD194F86830CBB994F84830022B02D0F1
:10A7D0007846FEF7EDFED9F8043099F81510D9F84F
:10A7E000082002FB013901F045FF00EB090104F1EB
:10A7F000500001F00AFF012384F868309DF84630CC
:10A80000E16C0120984001427FF414AF0143E16400
:10A81000E1799942A5F104029DF857103CD1002935
:10A8200014BF08210C2103FB0121E56EA4F84A1096
:10A830000CBF0C20082000FB0350311D11F08FFFCE
:10A840002046E56CFEF778FF85427FF4F3AE0223E5
:10A8500084F86830E16C2046FFF7A2FD43460546C8
:10A860002246B4F84A10E06EFFF706FB002D7FF495
:10A87000E1AE204684F868500121FEF76BFF2046C8
:10A88000FEF7D4FFD6E65C21134812F051F808B168
:10A890005C216FE7104971E779B90C2A0EE00421B9
:10A8A0002046FFF7EFF9C5E6434610AA691E701C63
:10A8B000FFF7E2FABEE60E2720E6082AEFD1E56EA2
:10A8C0001046B8E729D70300E83500208C35002072
:10A8D000402E00203C2E002060D7030000100140D5
:10A8E00090D70300A4D70300D035002010B591F80D
:10A8F0004830022B0C4602D07846FEF759FE022360
:10A9000084F86830E16C2046FFF74AFD08B984F806
:10A91000680010BD2DE9F04188460746E8B1124EA7
:10A920003468C4B92546454507D1104B1F605D60AA
:10A93000012333602046BDE8F08107EBC5035B6867
:10A940005BB117F83500030609D450B1FEF7BCFE21
:10A9500038B90135E7E70424ECE70E24EAE70B24D5
:10A96000E8E70F24E6E700BF7C35002080350020B3
:10A97000F8B5074610B97846FEF71AFE0F4E346850
:10A9800094B10F4D01232B7023791BB954F8043C6B
:10A99000384698472468002CF6D12B78022B03D137
:10A9A0003168064C09B92970F8BD0B790E6813B1EE
:10A9B000204603F06CFA3146F4E700BFAC370020C4
:10A9C000A837002010B5044610B97846FEF7F0FD10
:10A9D00000232372211D0248BDE8104003F036BA5F
:10A9E000AC3700200B888268D25A073222F003026B
:10A9F000134402889BB2043A934288BF00230B8021
:10AA0000704713B58368CB1A02A921F8023DFFF7FE
:10AA1000E9FFBDF806308068184402B010BD70B57B
:10AA2000064615460C4611BB7846FEF7C1FDFEB141
:10AA30007846FEF7BDFD6B1E2344B3F1005F34D9A9
:10AA40004FF08052D2F80C2102F50022B3EB822F96
:10AA50002ED2042D02D87846FEF7AAFD35800023B9
:10AA6000043D7380B380B4602580A37070BD10B9BD
:10AA70007846FEF79DFDB4F1005F12D94FF0805388
:10AA8000D3F80C3103F50023B4EB832FD3D34FF06D
:10AA90008053D3F80C3103F50053B4EB832FC7D2A6
:10AAA000C9E7B4F5000FF2D8C2E7B3F5000F08D933
:10AAB0004FF08052D2F80C2102F50052B3EB822FF6
:10AAC000C7D37846FEF774FDC3E738B5044610B91E
:10AAD0007846FEF76DFD6288A36813449B78012BCE
:10AAE00002D17846FEF764FDEFF3108572B6A268D6
:10AAF000A18811448B78032B0AD12046FFF781FFF0
:10AB0000A368C31A63800023837005B962B638BD99
:10AB1000002393706380A380F7E7F8B50E461546CF
:10AB2000044610B97846FEF743FD16B97846FEF79D
:10AB30003FFD6288A36813449B78012B02D17846BD
:10AB4000FEF736FD002D37D02388043B9BB29D4293
:10AB500032D8EFF3108772B66188A388EA1D22F01D
:10AB60000302994292B206D25B1A9A4212DD042085
:10AB700027BB62B6F8BD16D92088401A904209D288
:10AB80009A42F4D8032881BFA3685B1804229A7004
:10AB9000002363806288A1688B188D5201229A700D
:10ABA00000203360E4E7A26813449B78002BDED1D9
:10ABB00093706380A380EDE70920F8BDF8BDF8B578
:10ABC0000D461646044610B97846FEF7F1FC15B955
:10ABD0007846FEF7EDFCAB78012B02D07846FEF705
:10ABE000E7FC2B88B34202D27846FEF7E1FC16B9A7
:10ABF0007846FEF7DDFCEFF3108772B60223AB70E8
:10AC0000E1182E802046FFF7EDFE6288A38893426C
:10AC10001FBFA3689B1800229A7007B962B6F8BDDF
:10AC200070B50D46044610B97846FEF7C1FC15B95B
:10AC30007846FEF7BDFCEFF3108672B6A288A368D3
:10AC400013449A78042A06D1211D2046FFF7CAFE34
:10AC5000A288A36813449A78022A03D0032A08D052
:10AC6000052003E003229A702B60002006B962B62B
:10AC700070BD7846FEF79CFCF7E738B5044610B97E
:10AC80007846FEF795FCEFF3108572B6A088A168B0
:10AC900001448B78042B03D12046FFF7B2FE014616
:10ACA0008878831E5842584105B962B638BD38B518
:10ACB000044610B97846FEF77BFCEFF3108572B6B8
:10ACC000A088A16801448878C31E012B05D9831E82
:10ACD0005842584105B962B638BD2046FFF791FE8B
:10ACE0000146F0E7F8B50D46044610B97846FEF780
:10ACF0005FFC15B97846FEF75BFCEFF3108672B681
:10AD0000AB78012B19D0032B22D1A288A36813445E
:10AD10009D4202D07846FEF74BFC0027AF70211D04
:10AD20002046FFF75FFEA288A36813449B78042B9C
:10AD300000D1A78006B962B6F8BD6288A368134443
:10AD40009D4202D07846FEF733FC0023AB70F1E75A
:10AD50007846FEF72DFCEDE710B5EFF3108472B6E0
:10AD60008288816811448B78042B02D1FFF749FE59
:10AD700001468878B0FA80F0400904B962B610BD87
:10AD8000037942799B1A03F57F2303F6FF7300EBE7
:10AD90000330704710B5054884681C22002111F06B
:10ADA000E9FC2046BDE8104003F070BEB03700203B
:10ADB00070B51C4CE36813B97846FEF7F9FB237EA7
:10ADC00013B17846FEF7F4FB6368092B02D9784685
:10ADD000FEF7EEFB144D0026636855F823309847C4
:10ADE000022811D003280DD0012815D16368013342
:10ADF000092B636002D97846FEF7DAFB237E002B2D
:10AE0000EAD00DE06660F9E7237E0BB1207070BDDB
:10AE1000BDE87040FFF7BEBF00F0FD000128EDD097
:10AE200070BD00BFB03700200CD8030010B50388F8
:10AE3000044613B97846FEF7BBFB2088074B04EBAA
:10AE4000800030EA030203D06288B2F5FE4F04D1DD
:10AE50001C4004F580542078204410BD00F0FFFF12
:10AE600070B504460E4647F6FE65FFF7DFFFB042B9
:10AE700007D2844205D24388013B9BB2AB42F4D84F
:10AE800070BD002070BD00000B78032B094B04BF80
:10AE900000221A761A78012A03D11B7E43B9FFF7E4
:10AEA00087BF022A04D10B78032B01D1FFF772BFB1
:10AEB000704700BFB037002010B50C4CE36818781D
:10AEC000002203F58051184404F0B4F850B9E16849
:10AED0000846FFF755FF814206D001F58051E16039
:10AEE000032010BD012010BD022010BDB03700208E
:10AEF0001FB50A4B02221B688DF800200193084AF7
:10AF00004FF4805369460120029300F0E7FEB0FA47
:10AF100080F0400905B05DF804FB00BFD037002089
:10AF2000CC3700201FB5012301900391029269469E
:10AF3000044A8DF80030184600F0D0FE05B05DF8E8
:10AF400004FB00BFCC3700202DE9F047264BD86822
:10AF500002794179013A91421E4603D10120587687
:10AF6000BDE8F08700F5805320491C781C440B682D
:10AF700013F8045F1D44FFF703FF6388013B9BB296
:10AF800047F6FE62934200F58057884604D9204672
:10AF90003946FFF765FF0446DFF854A04FF001097A
:10AFA00034B9B4FA84F4640974760120BDE8F087FA
:10AFB000D8F800106288284601F5805104F03AF86C
:10AFC00005460028EDD004225146204686F8189008
:10AFD000FFF7A8FF28B920463946FFF741FF04468E
:10AFE000DEE70020BDE8F087B0370020D037002032
:10AFF000ACD9030038B5104CE36818784FF6FF72EF
:10B0000003F58051184404F015F888B1E368197805
:10B010000B4498420CD0657E084B09490422002D50
:10B0200008BF1946FFF77EFF20B90120207638BD02
:10B03000012038BD002038BDB0370020B0D9030052
:10B04000B4D9030070B50C4D0C4EE96830680C782B
:10B0500004302246FFF766FF58B9336804F0FC0459
:10B0600004341C44EB686C611A7813442B61012092
:10B0700070BD002070BD00BFB0370020D037002069
:10B0800008B5054B054918680422FFF74BFFB0FAD5
:10B0900080F0400908BD00BFD0370020BC37002039
:10B0A00010B5074B074C1968E06840F6FC72043194
:10B0B000FFF738FF10B90120207610BD002010BD29
:10B0C000D0370020B037002010B50C4CE16808469E
:10B0D000FFF756FE81420AD1094B0A49186804223B
:10B0E000FFF720FF40B901232376022010BD01F5B0
:10B0F0008051E160032010BD002010BDB03700205A
:10B10000D0370020D43700202DE9F74F334C236986
:10B1100013B97846FEF74CFA636913B97846FEF71F
:10B1200047FADFF8BC9047F6FE6A63692769E06872
:10B1300003EA0908A8EB0308FFF722FE7B88013B1E
:10B140009BB2534508F5805800F5805B06D9384618
:10B150005946FFF785FE0746002837D03D460026B2
:10B160005D4519D22A8806EB8202904509D987EA03
:10B17000050313EA090F04D16B88013B9BB25345C9
:10B1800002D956B901231AE028460192FFF74EFE74
:10B19000019A05461646E3E7F6B13246394660693C
:10B1A000FFF7C0FEA0B9636926F00306334463616C
:10B1B00015B97846FEF7FCF92561002335B1698899
:10B1C00047F6FF72914201D0002BAED0012000E083
:10B1D000002003B0BDE8F08F0123EFE7B037002077
:10B1E00000F0FFFF1FB50A4B0222DB688DF800203C
:10B1F0000193084A4FF4805369460120029300F0FE
:10B200006DFDB0FA80F0400905B05DF804FB00BFA9
:10B21000B0370020CC37002010B54FF010235A690A
:10B22000013225D05A691AB35B69A3F58053A3F59F
:10B230008053174A196813604B1E033325D8C1F396
:10B240000B0313BB134A1448D16001211170134939
:10B2500013765376936051F8234084420ED15360A5
:10B260000F49012000F02AFDFFF7A2FD012010BDCB
:10B270004FF08052516913694B43D8E701330A2BD1
:10B28000E9D17846FEF794F9EAE7002010BD00BF47
:10B29000D0370020B0370020E5B102000CD8030001
:10B2A00089AE020010B5044610B97846FEF780F961
:10B2B000094B187870B1E068D9684379A0EB033383
:10B2C000994206D3FFF75CFD81428CBF002001202C
:10B2D00010BD002010BD00BFB0370020024B187811
:10B2E000003018BF01207047B037002038B50E4C31
:10B2F0002378054613B17846FEF75AF92B78032BCD
:10B3000002D07846FEF754F9EB68E3600120002391
:10B310000649A560636023762070637600F0CEFC5A
:10B32000BDE83840FFF744BDB037002089AE0200C9
:10B33000014B1868704700BFD037002010B5044695
:10B3400010B97846FEF734F963681BB123680BB176
:10B35000A36813B97846FEF72BF9A3685A1E1A4260
:10B3600002D07846FEF724F90023E360236110BD84
:10B3700070B50E460446F0B18368F3B1EFF3108563
:10B3800072B60169C368994203D105B962B6052551
:10B390000FE04EB18368013B0B4090E80600304659
:10B3A00002FB031111F0DBF923690133236135B985
:10B3B00062B6284670BD0E25FBE70925F9E7002592
:10B3C000F7E70000024AD2F80034002BFBD07047A8
:10B3D00000E00140C0F30B0310B5E3B9E9B1104C34
:10B3E0000223C4F80435FFF7EDFF01F6FF7121F4E5
:10B3F0007F6121F00F010144884205D10020C4F88B
:10B400000405FFF7DFFF10BDC4F80805FFF7DAFFFA
:10B4100000F58050F0E7102010BD092010BD00BFDE
:10B4200000E0014070B540EA010414F003041BD1B0
:10B43000E2B195071AD10E4E0123C6F804359508DE
:10B44000FFF7C0FFAC4205D10020C6F80405FFF7A6
:10B45000B9FF70BD51F824305A1C03D040F8243095
:10B46000FFF7B0FF0134EDE7102070BD092070BD7B
:10B4700000E001404388012B05D0022B01D10430AC
:10B4800008600120704704304860FAE708B50822D8
:10B490000221094803F051F920B90848BDE80840E5
:10B4A00003F0CCBA064A91684160127B0272BDE893
:10B4B000084003F071B900BFE0370020002E0020E3
:10B4C0002C38002010B5044610B97846FEF770F805
:10B4D0002346BDE81040184700B50A4B1A7B9B680D
:10B4E0008DB0012A08BF03F1FF3303900CA8049329
:10B4F000022300F82C3D8DF80820FFF739FA0DB033
:10B500005DF804FB2C38002038B50E4D2B78C3B9FC
:10B510000D4B5C6804F50054B4F1807F11D804220F
:10B5200001210A4803F009F920B90948BDE838406B
:10B5300003F084BA012344602B70BDE8384003F067
:10B540002BB938BD403800202C380020E0370020CF
:10B55000F02D002010B501210C4803F033F980B91B
:10B5600002210A4803F02EF9044650B9014614227C
:10B57000074811F0FFF8074B1C70BDE81040FFF7BB
:10B58000C3BF054803F05AFAF7E700BFE0370020D1
:10B590002C38002004380020202E002030B50D4625
:10B5A0008DB07AB94B88012B0AD1124C227812B98E
:10B5B0007846FDF7FDFF104B6A685A600023237040
:10B5C0000DB030BD032A02D07846FDF7F1FF2C22E2
:10B5D000002101A811F0CEF811238DF80430074B9B
:10B5E0000395DA681B69059201A80693FFF7C0F975
:10B5F000E6E700BF403800202C380020E03700206C
:10B6000013B501F0E7FC00216B46124A1248009185
:10B61000019102F0E5FF009B104C0BB1019A6AB951
:10B6200000232360A3602373FFF730FF2368636068
:10B63000FFF76AFF01F00EFD02B010BD1968A160AE
:10B6400019792173934203D91B790BB92360EDE774
:10B650001368FBE775B40200E03700202C380020A7
:10B6600008B503F039FAA0F5805008BD7FB5002178
:10B670001822684611F07EF800230293FFF7F0FFCE
:10B680000123009001936946054B0648039303F09C
:10B69000C0F810B1044803F0D1F907B05DF804FB1D
:10B6A0009DB50200E0370020102E002008B51422BE
:10B6B00000210A4811F05EF800F0DCFF084B094A4F
:10B6C0009A60094ADA60002258601A615A61074B91
:10B6D0001A70BDE80840FFF7C9BF00BF2C38002032
:10B6E00008380020DDB702000087930341380020AE
:10B6F00010B5074C23784BB90648074B036000F0A0
:10B7000057FD064800F048FF0123237010BD00BF1D
:10B71000DC3700202038002045B80200083800201F
:10B7200010B501F057FC104A117B1346C9B9917B43
:10B73000B9B9118A41F28262914202D80B4A127859
:10B740007AB101221A739A68002401321C829A602D
:10B75000FFF79CFE2046FFF7BFFE01F07BFC204672
:10B7600010BD0824F9E700BF2C3800204138002024
:10B7700010B501F02FFC174B5A7B42B1997B99B958
:10B78000188A41F28261884201D8134A127802F085
:10B7900001047AB11A7B002058733AB1012A0DD006
:10B7A0007846FDF705FF05E00022F0E7FFF7B8FF58
:10B7B0000028F5D101F04EFC204610BD18605860FD
:10B7C00018731882FFF788FEFFF760FEFFF79CFEF4
:10B7D000F0E700BF2C3800204138002038B5174C66
:10B7E000257B2DB1012D12D07846FDF7E1FE21E039
:10B7F000228A41F282639A4202D8114B1B78CBB164
:10B80000FFF7B6FF638A0BB1013B638238BD238A21
:10B8100041F28262934202D8094A157855B142F248
:10B82000B012934282BF012300256373FFF7A0FF8C
:10B83000002DE7D0238A01332382E3E72C38002050
:10B840004138002038B50378042B3FD143681B787A
:10B85000002B3BD01E4B4469197B027E81BB598A69
:10B8600011BB012A9A6802D0944203D838BD013234
:10B8700094421BD99A682A32944227D89A7B2ABBD1
:10B8800085681A6042F606519C605A601A82598295
:10B890005A731A73FFF7FAFDFFF736FE05F1100031
:10B8A000BDE83840FFF718BE012A0FD19A6801326F
:10B8B00094420BD101225A73BDE83840FFF758BFBC
:10B8C000012903D1012A01D09A68F1E738BD00BFF0
:10B8D0002C38002038B5164C94E80C009A420546E6
:10B8E0001FD2207B1349144B012808BF0B469342FB
:10B8F00007D963682268403B9A4208D3FFF704FEE9
:10B9000005E001236373FFF733FF0028F1D0EFF365
:10B91000108072B623685A1C22602B6028B962B668
:10B9200038BDFFF7F1FD0F2038BD002038BD00BF46
:10B930002C38002000E0FF00FFFF7F0010B50C4C0A
:10B9400030B10C4B01229A7323681344236010BD5D
:10B95000236813B97846FDF72BFE2368013B23606B
:10B960002BB9044A9373BDE81040FFF701BF10BD27
:10B97000D83700202C38002000B58DB00323ADF857
:10B9800008000CA88DF8102000F82C3D0391FEF75C
:10B99000EFFF0DB05DF804FB014B9868704700BFE6
:10B9A0002C380020034B1A7B9868012A08BF00F14D
:10B9B000FF3070472C380020044B9B685840C2076A
:10B9C00048BF03F1FF331846704700BF2C380020F2
:10B9D000014B187B704700BF2C3800202DE9F8433D
:10B9E0001D4CDFF8789000260221204602F03BF93A
:10B9F0005FFA86F805460027ADB967B129462046AB
:10BA000002F099F9082806D154F8043C1BB12A46E3
:10BA10004946404698470136032E04F1BC04E3D161
:10BA20000120BDE8F88354F8043C23B134F80C2C11
:10BA300029464046984734F80C3C013324F80C3C26
:10BA40000221204602F02BF90221204602F00BF9D8
:10BA500001370546D0E700BF5838002034D803002E
:10BA600038B5012104460C3002F0FDF8054620B33C
:10BA7000164BC4F89C300023C4F8A03003786268E9
:10BA8000012B07D0022B1AD07846FDF791FD4FF419
:10BA9000FA7306E081688B1A990829234B4303F552
:10BAA000FA730B4A934294BFC4F8A830C4F8A82094
:10BAB0000123C4F8AC4084F8B830284638BD836808
:10BAC0009B1A1A0B034B5343E9E700BFF9BA020074
:10BAD00060850100084C010010B50446FFF7C0FF67
