:020000022000DC
:1060000000FD00209DBC0300C5BC0300C7BC03000D
:10601000C9BC0300CBBC0300CDBC030000000000E2
:10602000000000000000000000000000CFBC0300E2
:10603000D1BC030000000000D3BC0300D5BC0300AA
:10604000D7BC0300D7BC0300D7BC0300D7BC0300F8
:10605000D7BC0300D7BC0300A1720200D7BC030069
:10606000D7BC0300D7BC030059010300D7BC030011
:10607000D7BC0300D7BC0300D7BC0300D7BC0300C8
:10608000D7BC0300C5920300C1C10200D7BC030006
:1060900095930300D7BC03005D7F0200D7BC0300CB
:1060A000D7BC0300D7BC0300D7BC0300D7BC030098
:1060B000D7BC0300D7BC03000000000000000000B4
:1060C000D7BC0300D7BC0300D7BC0300D7BC030078
:1060D000D7BC0300D7BC0300D7BC030000000000FE
:1060E00000000000000000000000000000000000B0
:1060F00000000000000000000000000000000000A0
:10610000000000000000000000000000000000008F
:10611000000000000000000000000000000000007F
:10612000000000000000000000000000000000006F
:10613000000000000000000000000000000000005F
:10614000000000000000000000000000000000004F
:10615000000000000000000000000000000000003F
:10616000000000000000000000000000000000002F
:10617000000000000000000000000000000000001F
:10618000000000000000000000000000000000000F
:1061900000000000000000000000000000000000FF
:1061A00000000000000000000000000000000000EF
:1061B00000000000000000000000000000000000DF
:1061C00000000000000000000000000000000000CF
:1061D00000000000000000000000000000000000BF
:1061E00000000000000000000000000000000000AF
:1061F000000000000000000000000000000000009F
:1062000010B5054C237833B9044B13B10448AFF3F0
:1062100000800123237010BD202F0020000000000B
:1062200028EC03000C4B43B10C480D4910B5AFF3FB
:1062300000800C48036823B910BD0A48036833B9CD
:106240007047094B002BF7D0BDE810401847064BAC
:10625000002BF5D0184700BF0000000028EC030019
:10626000242F00201C2F002000000000154B002BC5
:1062700008BF134B9D46A3F5803A00218B460F467D
:106280001348144A121A17F029F90F4B002B00D0AB
:1062900098470E4B002B00D09847002000210400A7
:1062A0000D000D48002802D00C48AFF3008017F015
:1062B000C7F82000290000F071FC17F0ADF800BF0E
:1062C0000000080000FD00200000000000000000A9
:1062D000202F00205858002000000000000000007F
:1062E00041DF704730B52E4B144652681B6887B0AB
:1062F0000D466AB35A0420D52A4B1B68032B1CDDBC
:106300002F21294817F0BEF9C8B12F21264817F0D0
:10631000B9F9411C254B6268D3F804350492B4F9ED
:1063200002200392B4F9002002926A880192204A66
:1063300000920420B32206F031FE07B030BD5C218C
:10634000194817F09FF908B15C21DFE71649E1E72A
:106350005B04F2D5134B1B68032BEEDD2F21124893
:1063600017F090F998B12F210F4817F08BF9411CC5
:106370000E4BB4F90020D3F8043502926A880192DA
:106380000C4A00920420B82206F008FED5E75C21F2
:10639000054817F077F908B15C21E5E70249E7E71E
:1063A000282E0020242E00209DD70300001001403D
:1063B000D8D703002AD80300012A07B531D009D362
:1063C000022A56D03C4AA621032003B05DF804EB14
:1063D00015F08FBC394B1B68590416D5384B1B6818
:1063E000032B12DD2F21344817F04CF980B12F21F7
:1063F000314817F047F9411C324B334AD3F8043582
:1064000000929922042006F0C9FD03B05DF804FB58
:106410005C21294817F036F908B15C21E8E72649E4
:10642000EAE7062232214FF4F01000F0A1FE234BE0
:106430001B685A04E9D5224B1B68032BE5DD2F218D
:106440001D4817F01FF958B12F211B4817F01AF9F2
:10645000411C1C4B1D4AD3F8043500929E22D1E703
:106460005C21154817F00EF908B15C21EDE71249DF
:10647000EFE7124B1B685B04C7D5114B1B68032B5E
:10648000C3DD2F210C4817F0FDF858B12F210A4821
:1064900017F0F8F8411C0B4B0D4AD3F80435009265
:1064A000A222AFE75C21044817F0ECF808B15C21A8
:1064B000EDE70149EFE700BF9DD70300282E00203C
:1064C000242E0020001001403BD703005BD70300BF
:1064D0007BD7030070B5934C23685B0488B00546F6
:1064E00017D5914B1B68032B13DD2F218F4817F015
:1064F000C9F8A8B12F218D4817F0C4F8411C8C4B66
:106500008C4AD3F8043500920195CE22042006F07F
:1065100045FD052D23D8DFE805F00C441C524258F8
:106520005C21824817F0AEF808B15C21E3E77F49AF
:10653000E5E7814AB2F9003080498B42A5BFA3F557
:106540001C53103B7E4B1BB2138093780133937026
:1065500005E07C4A1368A3F51C53103B136005F05B
:1065600013F8794A1368106003F5371303F5D863FD
:10657000984281BF73490B7901330B7164230793F0
:106580004FF4FA630693062D00F28780DFE815F0DA
:106590001F001F0090009000EA00EA002A016B4AE9
:1065A000C8E7654AB2F9003045F6EE018B42DDBF1F
:1065B00003F51C5310339BB247F6FF73C4E7614ADF
:1065C000136803F51C531033C8E7604AEAE72368F1
:1065D0005E0422D5544B1B68032B1EDD2F2153482C
:1065E00017F050F800285AD02F21504817F04AF8D9
:1065F000411C4F4B079AD3F804350492069A039234
:106600004D4A90780290B2F900200192504A0092CF
:10661000042040F20F1206F0C1FC4E4E4E4D32786F
:1066200038235343E85A10F00BFE30784249C0EB50
:10663000C00006AA05EBC0000CF040F8072800F0E7
:10664000108100F2008140B3042840F031812368BA
:106650005A041CD5344B1B68032B18DD2F213348FB
:1066600017F010F8002800F0F3802F212F4817F0C2
:1066700009F8411C374A2E4B1278D3F804350192A1
:10668000364A0092042040F2371206F087FC0622B8
:1066900032214FF4F01000F06BFD08B070BD5C21AA
:1066A000224816F0EFFF08B15C219EE71F49A0E7E2
:1066B00023685D0420D51C4B1B68032B1CDD2F2198
:1066C0001A4816F0DFFF20B32F21184816F0DAFF22
:1066D000411C174B079AD3F804350492069A03928B
:1066E000184A10790290126801921D4A0092042003
:1066F0004FF48C7206F052FC164B174D1878114966
:10670000C0EBC000002306AA05EBC0000CF021F886
:1067100094E75C21054816F0B5FF08B15C21D4E789
:106720000249D6E7282E0020242E00209DD7030002
:106730000010014053D80300BE2F002011A7FFFF17
:106740000080FFFF402F0020C42F0020BA2F002020
:1067500066D803003C2F0020482F0020A9D9030051
:10676000C3D803002368580421D5564B1B68032B5C
:106770001DDD2F21544816F085FF50B32F215248BC
:1067800016F080FF411C514B079AD3F80435049250
:10679000069A03924E4A90780290B2F90020019234
:1067A0004C4A009204204FF4917206F0F7FB4A4ED7
:1067B0004A4D327838235343E85A10F041FD30787F
:1067C0004349C0EBC00006AA05EBC0000CF008F876
:1067D00034E75C213C4816F055FF08B15C21CEE758
:1067E0003949D0E73C4D2B780133DBB2022B28BF6F
:1067F00000232B70236859047FF54FAF314B1B6882
:10680000032B7FF74AAF2F212F4816F03BFF88B1AB
:106810002F212D4816F036FF411C2C4B2A78D3F837
:10682000043501922E4A009240F22B12042006F009
:10683000B5FB32E75C21244816F024FF08B15C2147
:10684000E7E72149E9E708283FF401AF1128FCE612
:106850005C211D4816F016FF08B15C2106E71A49B5
:1068600008E723685B047FF518AF164B1B68032B02
:106870007FF713AF2F21144816F004FF78B12F21B2
:10688000114816F0FFFE411C134A104B1278D3F842
:1068900004350192134A009240F24312C6E75C218C
:1068A000094816F0EFFE08B15C21E9E70649EBE77D
:1068B00000283FF4F2AE044A40F2471115F019FAED
:1068C000EBE600BF242E00209DD7030000100140FE
:1068D000BA2F002027D903003C2F0020482F00208A
:1068E00087D90300C0D903003038062801D8FFF744
:1068F000F1BD704737B5274B1B685B0418D5264B95
:106900001B68032B14DD2F21244816F0BBFE002842
:1069100035D02F21214816F0B5FE411C204B214ACD
:10692000D3F804350092042040F2571206F036FBEB
:106930001D4C1E4D6563002301212046E36284F84F
:10694000303084F831300BF089FE20B1134A4FF417
:10695000B07115F0CEF9002302211548E566636693
:1069600084F8683084F869300BF078FE80B10B4A07
:106970004FF4B07103B0BDE8304015F0BAB95C21F6
:10698000064816F07FFE08B15C21C3E70349C5E75E
:1069900003B030BD282E0020242E00209DD70300F8
:1069A000001001403BDA0300482F0020ECD903001F
:1069B000802F002007B503781C2B2ED1184B1B68A5
:1069C0005B0416D5174B1B68032B12DD2F211648CD
:1069D00016F058FEC0B12F21134816F053FE411C8B
:1069E000124B134AD3F8043500920420BE2206F05D
:1069F000D5FA0322C8214FF4F01000F0B9FB03B020
:106A00005DF804EB00F010BA5C21074816F03AFE7E
:106A100008B15C21E0E70449E2E703B05DF804FB5C
:106A2000282E0020242E00209DD7030000100140B6
:106A3000F8D9030010B5044600214FF4F01004EB20
:106A4000840400F08BFB620032214FF4C010BDE8DB
:106A5000104000F08DBB00F0BFBB00001FB5304CF4
:106A60002268520417D52F4B1B68032B13DD2F21EF
:106A70002D4816F007FE002840D02F212A4816F096
:106A800001FE411C294B2A4AD3F804350092042008
:106A9000762206F083FA00F0CBFD00F0FDFD03A89E
:106AA00011F042FC23685B0419D51E4B1B68032BB5
:106AB00015DD2F211C4816F0E5FD40B32F211A48A3
:106AC00016F0E0FD411C194BBDF80C20D3F804353D
:106AD0000192184A00920420812206F05FFA00F029
:106AE0007BFB00214FF4F01000F038FB0422C8219A
:106AF0004FF4F01000F03CFB04B010BD5C210A48DC
:106B000016F0C0FD08B15C21B8E70749BAE75C217F
:106B1000054816F0B7FD08B15C21D0E70249D2E77D
:106B2000282E0020242E00209DD7030000100140B5
:106B30005BDA030075DA030007B5134B1B685B04CF
:106B400016D5124B1B68012B12DD2F21104816F0B1
:106B500099FD80B12F210E4816F094FD411C0D4B7C
:106B60000D4AD3F80435009202208B2206F016FA63
:106B700003B05DF804FB5C21054816F083FD08B105
:106B80005C21E8E70249EAE7282E0020242E0020B5
:106B90009DD70300001001401CD7030000B54A4AEE
:106BA0008DB0042146F2010006F0DEF9474B1B6868
:106BB0005B0418D5464B1B68032B14DD2F21454879
:106BC00016F060FD002875D02F21424816F05AFDBE
:106BD000411C414B414AD3F80435009204204FF444
:106BE000BA7206F0DBF912F023FD20B1394A4FF4F6
:106BF000BB7115F07EF800F0FFFA394800F028FB71
:106C000020B1344A4FF4BD7115F073F800F0F6FC72
:106C100000F00EFD00F040FD0021242203A816F034
:106C20005DFC01238DF80C3007238DF80F3006230F
:106C30008DF814302B4B07932B492C4B0B9303A847
:106C400000F0AEF820B1234A4FF4B77115F051F8B7
:106C50006421274800F028FA234B1B7883B9254D7F
:106C60000FCD03AC0FC495E8030084E8030003A82C
:106C700000F0BEF920B1174A40F2971115F039F82B
:106C800001F0EAFB00F03CFB00F0C0F820B1114A33
:106C90004FF4CE7115F02DF800214FF4F01000F0F4
:106CA0005DFA0222C8214FF4F01000F061FAFFF7FC
:106CB00017FBFCE75C21074816F0E4FC08B15C21F7
:106CC00083E7044985E700BF3DCF0200282E00205E
:106CD000242E00209DD703000010014011DA03008C
:106CE000D5640200B5690200B82F0020F5680200E3
:106CF000E968020004D7030003780E2B02D10020BC
:106D000004F030BA704730B5837DC27D85B043EA68
:106D100002230446ADF80C3003A803230D46ADF85A
:106D20000E3011F0C5FA10BB02AA2146208A11F0DC
:106D3000AFFCE0B90DF10A032A46BDF80810E08A5D
:106D400011F068FE98B9217ED4F8120001F001011B
:106D500003F07AFD10B1784601F046FBBDF80A0059
:106D60000EF0BEF818B901900EF0C2FE019805B001
:106D700030BD08B508F056F90FF069FB11F026FA9E
:106D8000BDE8084003F01CBB07B501A811F0CCFA20
:106D9000BDF80400003018BF012003B05DF804FB0B
:106DA00073B50E46054660B304F0ACF8044628BB44
:106DB00011F060FA10F058F828690EF061F80446F6
:106DC000E0B92B7F0193AB69009301466B690E48D4
:106DD00059220EF07DFA044680B92B6A03B1984718
:106DE00008F03CF811F066F90FF05EF9FFF7CCFF00
:106DF000054608B10BF044FA06B13570204602B0E2
:106E000070BD0E24FAE700BFC82F002008B5FFF7B9
:106E1000BBFF20B10BF0ECFA08B10BF073FABDE840
:106E2000084004F0D5B8000008B506F02DFE20B1EA
:106E30000020BDE8084004F095B90248BDE80840CC
:106E400004F034B9A02D0020034904480969032344
:106E5000002213F04AB800BF28300020783200200A
:106E600010B50378023B082B4AD8DFE803F01E0573
:106E70001249493849493F00224B5B68002B3FD0FB
:106E8000007A00283CD0204A01211170BDE8104052
:106E900018471C4B9B68002B32D01B4A117879B3E2
:106EA00000211170BDE810401847184B1A784AB9F4
:106EB000144BDB6813B114490A709847BDE81040C1
:106EC000FFF7C2BF124B134801221A7004F0EEF80C
:106ED00004F0D4F8A0B1BDE8104014F0FDBE094B99
:106EE0000D485969102213F044F8F3E78168C0682F
:106EF000FFF709FF08B114F0EFFE044B01221A70EE
:106F000010BD00BF28300020243000202530002094
:106F100026300020AC2D00207832002030B5274DDF
:106F2000297885B019B1012803D003283FD005B0D6
:106F300030BD04AC002344F8083D214600F0BAFE01
:106F400008B114F0C9FE204600F01EFF08B114F08D
:106F5000C3FE04A9012341F8043D0DF1060011F020
:106F600029FD08B114F0B8FEBDF8060011F0FEFAD4
:106F70000DF1050111F0C8FB08B114F0ADFE0BF0E6
:106F80007FF99DF8051000200BF068FA10B17846E3
:106F900001F02AFA04F01CF808B114F09DFE002359
:106FA0002B70074B1B68002BC1D09847BFE700F040
:106FB00055FF0028BBD014F08FFEB8E72630002024
:106FC0002830002008B503781B2B0CD1064B1B780A
:106FD0004BB100F07FFF08B114F07EFE0348BDE81E
:106FE000084004F065B808BD26300020AC2D002014
:106FF00070B51E4A1E4E5168044686B0106803AB39
:1070000003C31189927A19809A700FCC35460FC547
:1070100094E8030085E8030073692BB3154916480B
:1070200012F04AFFF0B9154B0093124A1249144866
:1070300003AB12F013FFA8B9124813F0EDFE01469E
:107040000F4812F025FF68B90F4814F07BFC48B9CF
:107050000D4814F0ADFC0146094812F019FF08B9BB
:10706000FFF7F2FE06B070BD0720FBE7BCDA0300B5
:107070002830002040300020AC330020616E020038
:1070800078320020603000202832002010B5054CF6
:10709000226832B114F060FF002802DB23689847B1
:1070A000F8E710BDEC330020154B164A10B50C461E
:1070B00018600121144812F017FB18B1134A4A2135
:1070C00014F017FE610C0023E00341F26F728B4253
:1070D00008BF824210D24FF47A72002316F014F8DF
:1070E000014600220A4812F011FB38B1074A4B2131
:1070F000BDE8104014F0FDBD0521F2E710BD00BF52
:10710000EC3300208D700200C8DA0300CCDA0300F3
:10711000F033002038B50D4C206808B914F0DCFDC0
:107120004FF0A0450A4AD5F8043512685340C5F817
:1071300004352368013B236033B9064812F02CFB69
:10714000054B1B68C5F8043538BD00BF103400205E
:107150001434002018340020403400204FF0A043A5
:1071600011B1C3F80C057047C3F80805704700005B
:10717000F8B542B3132926D9134B144D5200013AE6
:107180004FF0A0441A602860114BD4F804251A600F
:107190004FF400404FF4FA760027E0FB01674FF40C
:1071A0007A7200233046394615F0AEFF00220146C0
:1071B000084812F0ABFA30B9D4F804352A6823EA4B
:1071C0000203C4F80435F8BD103400201434002044
:1071D000403400201834002008B5054812F0DCFACD
:1071E000044B1A684FF0A043C3F8082508BD00BF40
:1071F000183400201434002008B54FF0A0430322B7
:107200004FF40031C3F84427C3F808154FF4802128
:10721000C3F84827C3F808154FF40021C3F84C27DA
:10722000C3F80815C3F850274FF48012C3F8082597
:107230000121054A054812F057FA18B1BDE8084087
:1072400014F04ABD08BD00BF15710200F0DA03005A
:10725000D8B10F4B0F4A18604FF0A0430020C3F87D
:107260003427C3F83827C3F83C27C3F840270A4B14
:107270004FF00042C3F80423C3F87C01074BC0223F
:1072800083F8062340221A6070470E20704700BF23
:10729000383400200C0003000060004000E100E0F2
:1072A000124B70B50024124E124DC3F87C414FF0C2
:1072B000A043A15DD3F8102501238B40934311D047
:1072C0000D49D5F804250B68981A48BFD01A43F227
:1072D0003333984206D9D5F804350B60074B204666
:1072E0001B6898470134042CE1D170BD0060004058
:1072F000F4DA0300001001403C3400203834002050
:1073000070B50446CEB0002864D03C4D2A685204C3
:107310002FD53B4B1B68032B2BDD3A4B0DAE196869
:107320000023E25C100902F00F02085C06F813006B
:10733000885C06EB43020133102B5070F1D100231F
:107340002F21314886F8203016F09CF9002843D0D0
:107350002F212D4816F096F9411C2C4B2C4AD3F8BE
:10736000043501922B4A009202964122042005F036
:1073700015FE2B685B042DD5214B1B68032B29DDE3
:107380002F21214816F07EF900282ED02F211E48EB
:1073900016F078F9411C1D4BE27BD3F804350B92B3
:1073A000A27B0A92627B0992227B0892E27A079280
:1073B000A27A0692627A0592227A0492E288039275
:1073C000A288029222680192134A00920420462267
:1073D00005F0E4FD4EB070BD5C210B4816F052F98B
:1073E00008B15C21B5E70849B7E75C21064816F00B
:1073F00049F908B15C21CAE70349CCE7282E0020EF
:10740000242E00202C2E0020F8DA0300001001406A
:1074100020DB030032DB03003ADB030072DF70473E
:1074200073DF704774DF7047F0B52F4CA3B005468B
:107430000E46174600211022204616F04FF82B4822
:107440002B4A03782B49C3EB431E7244013371442A
:1074500003F00103A2601F2203702160A280A281B9
:1074600000213C2204A816F039F8062301AA8DF861
:1074700013300E9201233C22002113A88DF8023014
:10748000ADF820308DF83C30ADF80050CDF824D068
:10749000ADF80450ADF80870039616F01FF80223FB
:1074A000221D21688DF84C3004A800F0DBF908B1EA
:1074B00014F012FC104AA16813A800F0D3F908B127
:1074C00014F00AFC0D4A08490D48FFF7A7FF0828E9
:1074D00004D1002204490A48FFF7A0FF08B114F0C4
:1074E000FBFB23B0F0BD00BF8434002044340020F7
:1074F000943400204534002090340020BC2D00201E
:10750000B82D0020084B38B1B0F5202F07D20A2241
:10751000B0FBF2F030B180B29881996070474FF6BD
:10752000FF70F8E70120F7E7BC2D002008B5064BF7
:1075300001211878FFF774FF08B114F0CDFB00208B
:10754000BDE8084004F066BBB82D002008B5054B27
:107550001878FFF767FF18B1BDE8084014F0BCBB0E
:1075600008BD00BFB82D002076DF70477ADF704776
:107570007CDF704714F0B0BB03F09CBD07B5037807
:107580004BB93B214088FFF7EFFF08B303B05DF82C
:1075900004EB14F0A1BB012B1AD1134B1B685B0445
:1075A00016D5124B1B68032B12DD2F21104816F045
:1075B00069F880B12F210E4816F064F8411C0D4B7C
:1075C0000D4AD3F8043500920420682205F0E6FC49
:1075D00003B05DF804FB5C21054816F053F808B1D0
:1075E0005C21E8E70249EAE7282E0020242E00204B
:1075F0008CDB030000100140BCDB030013B500F07E
:107600002DFC08B114F068FB02AC002344F8043DE3
:107610000120214600F04EFB08B114F05DFB20462E
:1076200000F0B2FB08B114F057FB02B010BD00002F
:107630001FB59DF804301748012262F3030304AC20
:1076400062F3071304F80C3D16F014F8114982B2E6
:107650002046FFF78DFF08B114F03EFB0822002101
:107660000DEB020015F03AFF7823ADF80830C8237F
:10767000ADF80A300023ADF80C3002A84FF4C873FF
:10768000ADF80E30FFF772FF08B114F025FB04B01F
:1076900010BD00BF7ADB030030B58BB001AD08220E
:1076A0000021284615F01AFF78230024ADF8043095
:1076B000C823ADF806301C224FF4C873214603A836
:1076C000ADF80A30ADF8084015F008FF40F6CD439C
:1076D00004934FF48033059303238DF81830084B3F
:1076E000089303A8074B0395ADF81A408DF81C408A
:1076F000099300F035FD08B114F0EEFA0BB030BD7F
:107700007D7502007575020070B5EFF3108672B6D4
:107710000C4A946801239CB993600B4B0B4DD3F832
:10772000801029401160C3F88050D3F88410516054
:107730004FF0FF32C3F88420047006B962B670BD02
:107740000370FAE7AC57002000E100E0FC06FFBD43
:1077500010B5084B9A685AB150B9EFF3108272B65F
:1077600005491C680C605C684C60986002B962B6A0
:1077700010BD00BFAC57002000E100E06DDF704796
:1077800079DF70477DDF704764DF70472DE9F74F81
:107790000C9CBDF834B02788002580468A46914667
:1077A0002E46B8F8002096420BDB35B12288013A0C
:1077B000D21B92B2FF2A39D8DA55002003B0BDE8B7
:1077C000F08FD8F8042052F82600019000220DF125
:1077D000030101A8FFF7D8FF0028EFD19DF803208F
:1077E0004A4521D12288002D14BF0020022002EB3F
:1077F00009010144594519DC3DB9013292B2228098
:1078000003F802A022880132228022880DF10301B0
:107810001A4401A8FFF7B8FF0028CFD121889DF8AE
:1078200003200A44228001250136BAE70C20C5E76F
:107830002DE9F341089CBDF8245017468DE830002F
:1078400002220646FFF7A2FF48B910223946304609
:107850000995089402B0BDE8F041FFF797BF02B068
:10786000BDE8F0812DE9F04F00231788138090F8D0
:107870002D3085B006460D46144643B3082F4ED929
:1078800002A8FFF77BFF002840F020811388082220
:10789000CA54238801339BB21B222380CA542088F8
:1078A000013080B2208006220DF10901284415F034
:1078B0000AFE23889DF8082006339BB212F0FE02D0
:1078C00018BF01222380EA54238801332380B37830
:1078D000FBB123880433BB4221D802A8FFF750FF35
:1078E000002840F0F38023880322EA5423880133E0
:1078F0009BB219222380EA542388BDF80820013363
:107900009BB2E9182380EA54120A4A702388023392
:107910002380F278AAB12388D91CB94201D90C205E
:10792000D4E00221E954238801339BB20121238052
:10793000E95423880B449BB22380EA5423880B44E8
:1079400023807268AAB12388D91CB942E7D80221E2
:1079500092F90020E954238801339BB20A21238045
:10796000E954238801339BB22380EA5423880133EE
:1079700023803389002B40F09D80338A5BB18DE8F2
:1079800090002B460722032106F11000FFF750FF5D
:10799000002840F09B80338B5BB18DE890002B4634
:1079A0001522142106F11800FFF742FF002840F0CD
:1079B0008D80326A002A40F08C80D6F82480B8F19D
:1079C000000F2ED0B8F804302188981C8A1C02447D
:1079D000BA42A4D8FE28A2D803336B5423880133BB
:1079E0009BB2FF222380EA54238801339BB2238079
:1079F000B8F80020EA54E918120A4A7020880230C8
:107A000080B22080B8F804205AB1D8F808100029B4
:107A100069D0284415F057FD2388B8F80420134492
:107A2000238096F82C30002B40F098803078002886
:107A30004CD03388012B56D021888A1CBA423FF69D
:107A40006EAF012805D1737802330B449F42FFF4D7
:107A500066AF023F7F1A04A9BFB221F8087DA818BB
:107A6000FFF790FE90BB3378BDF80820022B02D0C0
:107A70007178914202D3BA4240F2B680012B40F0B5
:107A8000B08073789F42C0F0AC80ADF80830082118
:107A9000BDF80830FE2B3FF642AF22880133AB54CD
:107AA0002288013292B22280A95422881344238072
:107AB00000200BE08DE890002B460622022106F103
:107AC0000800FFF7B5FE00283FF457AF05B0BDE84A
:107AD000F08FB4F800E00EF10603BB423FF61FAF93
:107AE0001188052901D80720F0E76FF4486C01EBF5
:107AF0000C039BB24FF27D3C6345F4D95388052BB0
:107B0000F1D96FF44860181880B26045EBD94FF690
:107B1000FF70814203D0834201D09942E3D805230C
:107B200005F80E30238801339BB212212380E954DB
:107B3000238801339BB223801188E954E818090A8D
:107B40004170238802339BB223805288EA54E9189B
:107B5000120A4A702388023323802EE7B36A002B6F
:107B6000C1D04FF000094FF00C0A4FF0160B96F8F9
:107B70002C305FFA89F293427FF658AFB16A0AFB64
:107B800002F201EB0208B8F80430981CFE283FF618
:107B9000C6AE208803332B54238801339BB2238045
:107BA00005F803B0238801339BB223808A5AEA5434
:107BB000E918120A4A702088023080B22080B8F892
:107BC00004205AB1D8F8081000298CD0284415F0A8
:107BD0007AFC2388B8F804201344238009F10109B2
:107BE000C5E7ADF8087052E7092151E701600B685D
:107BF00043604A68934204BF002343607047436870
:107C000043B1026891680B4443605268934204BFD9
:107C10000023436070474BDF704700001FB50D4CD9
:107C200001A8FFF7F8FF70B9214602A8FFF7DEFFB1
:107C3000039B002BF4D001981A685968904702A85A
:107C4000FFF7DDFFF4E7052801D014F045F804B094
:107C500010BD00BFE8DB030060DF704769DF7047DD
:107C600061DF704730B5114B1B78A9B0E3B1104DFF
:107C700094240DF1020103A8ADF80240FFF7F0FFD4
:107C800070B9294601A8FFF7B1FF029B002BF0D085
:107C900003A81A685968904701A8FFF7B0FFF4E7F6
:107CA000052801D014F018F829B030BDD2340020D6
:107CB000F4DB0300F0B5074685B00D4600295ED021
:107CC000304B0B600C22002101A815F007FC0126A7
:107CD00006232A68ADF8083001A920208DF8047029
:107CE0008DF80660FFF7BAFF0C22002101A815F0FD
:107CF000F5FB00242A688DF8056001A940208DF865
:107D000006408DF80740FFF7A9FF0C22214601A885
:107D100015F0E4FB45232A68ADF8063001A92320BD
:107D20008DF80470FFF79AFF0C22214601A815F088
:107D3000D5FB2A688DF8044001A93046FFF78EFF75
:107D40000C22214601A815F0C9FB4FF4B0632A6844
:107D5000019301A9A120FFF781FF0C22214601A870
:107D600015F0BCFB9DF804302A68334301A9A0201C
:107D70008DF80430FFF772FF204605B0F0BD0E20ED
:107D8000FBE700BFA02D002008B5FFF765FF10B985
:107D9000014B01221A7008BDD234002010DF704759
:107DA00011DF704713B5044609496846FFF71EFF07
:107DB000019808B902B010BD036841682046984791
:107DC00018B16846FFF71BFFF2E71120F2E700BF8A
:107DD00004DC030013B5044607496846FFF706FFB5
:107DE000019B0BB902B010BD20461A685968904734
:107DF0006846FFF704FFF3E71CDC0300064B9A68B4
:107E000022B11A6822F480021A607047034B4FF4C3
:107E10008002C3F880207047AC57002000E100E0EA
:107E20000C4991F816335A09EC231341DB0708D4A7
:107E300042F2020013F050BF1A6842F480021A6046
:107E40007047054B9A68002AF6D14FF480030B6007
:107E5000704700BF00E100E0AC570020F7B5184FB5
:107E60003C785CBB174E012520463570FFF79AFF22
:107E7000112820D02046FFF7ADFF134B1868019062
:107E800002A800F8054DFFF73FFC104901A8FFF7D5
:107E900085FF0446B0FA80F0400938709DF8030071
:107EA000FFF756FC3CB90A4B34701C70FFF7B8FF63
:107EB0002846FFF78FFF204603B0F0BD0824FAE7FD
:107EC000D4340020D334002000DC0300E181020020
:107ED000D5340020F7B5154F3B7813B3144E01206D
:107EE0003070FFF75FFF11284FF000051BD0022014
:107EF000FFF770FF02A800F8015DFFF705FCFFF730
:107F00004FFF04469DF807003D70FFF721FC2CB998
:107F10003470FFF773FF0320FFF75CFF204603B0C8
:107F2000F0BD0824FAE72C46F8E700BFD43400205F
:107F3000D334002007B508496846FFF757FE019B78
:107F400013B903B05DF804FB58681A689047684697
:107F5000FFF755FEF3E700BF10DC0300FFF7EABFB1
:107F600075DF704776DF70477ADF70477BDF7047D9
:107F7000034B1A8882420CBF18460020704700BF8E
:107F8000F4340020024B9B6903B11847704700BFCF
:107F9000D834002037B585B22846FFF7E9FF0346FD
:107FA00070B1164C017A227B91420BD200F10A018A
:107FB0002846FFF7D5FFE8B1112801D0FFF7E2FF0F
:107FC00003B030BD237C0022027243B13B2128461E
:107FD000FFF7C8FF30F0080301D0FFF7D3FF636954
:107FE000002BEDD000228DF80420ADF8065001A83A
:107FF0009847E5E71A7A01321A72E1E7D83400208F
:1080000013B50B46497A0F4C024669B9A0686168FE
:108010001C7A002C18BF0146586811F077FB08B194
:10802000FFF7B0FF02B010BD002119726369002B89
:10803000F8D00121ADF806008DF8041001A898478A
:10804000F0E700BFD834002030B583880588B3F549
:10805000FA7F24BF6FF4F9729C184A8838BF002455
:1080600095420CD84088904209D38A88A24206D310
:1080700003F2F310904234BF0020012030BD0020F5
:1080800030BD000070B50388112B01462ED002D8F8
:10809000102B05D070BD122B51D0502B35D070BD98
:1080A000C37B012B4AD14FF6FF70FFF761FF0546F6
:1080B00020B90420BDE87040FFF764BF8E88264ACF
:1080C0000680002303721368C5F80A300A3053682B
:1080D00043601031FFF7B8FF204B6872DB896BBB40
:1080E00029463046BDE87040FFF78ABF8088FFF719
:1080F0003FFF044610B3406811F04EFB08B1FFF794
:1081000041FF4FF6FF73238070BD144BC288DB899B
:108110009A4213D1038A022B10D186883046FFF78A
:1081200027FF054650B101F1120000F053F8002876
:10813000D6D1686811F030FB0028BBD170BD8688AD
:108140003046FFF715FF05460028F7D008310A3002
:10815000FFF77AFF6872C3E708350020D8340020A3
:10816000F8B5064650B305460FCD154F3C460FC433
:1081700095E8070084E807003068124B3B60B8B10F
:10818000FFF7F2FED8B931680A681A604A685A6087
:108190000D480E4A4FF6FF7303800D4B40F8043F25
:1081A000002111F0A1FA002814BF03200020F8BD1F
:1081B0001846FFF7DBFE0028EAD0F8BD0E20F8BD18
:1081C000D834002008350020F4340020957F0200C8
:1081D00010350020007800F001007047062070473D
:1081E00030B541F20103984287B00D461446744BF6
:1081F00000F083801FD8012847D01B685B0460D53E
:10820000704B1B68002B5CDD2F216F4815F03AFA8C
:10821000002800F0C9802F216B4815F033FA411C6B
:108220006A4B6B4AD3F80435009201957B220120FA
:1082300004F0B4FE45E044F20102904200F089806F
:1082400044F202029042D8D11B68590439D55D4BE3
:108250001B68002B35DD2F215B4815F013FA002831
:108260006ED02F21584815F00DFA411C574B22882B
:10827000D3F80435039262680292564A009201953F
:108280006C22012004F08AFE1BE01B685B0418D5F9
:108290004C4B1B68002B14DD2F214B4815F0F2F9D5
:1082A00010B32F21484815F0EDF9411C474B4A4ABD
:1082B000D3F804350092029401956022012004F065
:1082C0006DFE4FF0A0434FF4F012C3F81825C3F829
:1082D0000C25EFF3108372B64DF6AD6C3F4A137860
:1082E000002B6AD107B030BD5C21374815F0CAF9C0
:1082F00008B15C21D6E73449D8E71B685804E0D5BB
:10830000304B1B68002BDCDD2F212F4815F0BAF90C
:1083100068B12F212C4815F0B5F9411C2B4B304A80
:10832000D3F804350092029401956322C6E75C21DC
:10833000254815F0A7F908B15C21EBE72249EDE7E4
:108340005C21214815F09EF908B15C218AE71E499D
:108350008CE71B685A04B4D51A4B1B68002BB0DDA0
:108360002F21194815F08EF9A8B12F21164815F0C4
:1083700089F9411C154B2268D3F8043504926268D0
:1083800003920295A2680192164A00920120772278
:1083900004F004FE95E75C210B4815F073F908B171
:1083A0005C21E3E70849E5E75C21074815F06AF935
:1083B00008B15C2130E7044932E730BF8FE700BFE6
:1083C000282E0020242E002028DC0300001001406D
:1083D000CCDC03008CDC030050DC0300D42D002037
:1083E0006ADC0300ABDC030007B50023ADF8003006
:1083F0000146054B01936A4644F20200FFF7F0FE86
:1084000003B05DF804FB00BFC2E403000146102284
:10841000014815F058B800BF3035002010B50B4C9E
:108420000B490822204615F04EF80822A0180949E9
:1084300015F049F8E379042262F30713E371237A14
:10844000022262F38713237210BD00BF3035002073
:1084500060000010A4000010004870473035002074
:10846000002306491A46C818428042605A5408330D
:10847000B3F5807FF7D1024B1A607047403500207A
:1084800040360020F0B50C4B0C4C1B6806462022F1
:108490007BB1013B14F8330050B104EBC3056F8886
:1084A000B74202D16D688D4202D0013AF0D1104638
:1084B000F0BD1F23EEE700BF40360020403500200E
:1084C00030B5084A084C136804EBC3056960012104
:1084D00004F833100B44202B08BF0023688013607E
:1084E00030BD00BF4036002040350020C0F30C03F3
:1084F0008B42084438BFA0F50050C01A70470000F6
:10850000F0B50E4B0E4C1F680022BA4213D0D100BA
:1085100063185E6800230AE0655805EBC30E15F882
:108520003350854202D1DEF80400F0BD0133B3427E
:10853000F2D10132E9E70020F0BD00BF443600204F
:108540004836002000B58DB040B99A1C06D00122F3
:1085500001A88DF80420029301F026F9034B186856
:1085600003F058FD0DB05DF804FB00BF503600204D
:1085700010B50378044613B97846FFF735FFE07964
:10858000431C01209840013810BD0000F8B5037865
:1085900004460F4613B97846FFF726FF0B4B0C4EE7
:1085A0001A68511C02F0070206EBC2051960A38A83
:1085B0006B80A188A069FFF799FF6860E36906F8FE
:1085C000327003F001036B70F8BD00BF94360020D9
:1085D000543600202DE9F0410E468EB015461C465B
:1085E000074610B97846FFF7FFFE16B97846FFF741
:1085F000FBFE14B97846FFF7F7FE636A6278023330
:108600000593A378A2F10800002B14BF01210221D9
:108610000DF1040842424241434604F10C0003F0CC
:108620002CFE63788DF83430237BADF82050022B7C
:1086300016FA85F5CDF8188007970B960C950FD193
:10864000236913B97846FFF7CFFE236909931023F6
:1086500005A8ADF8283003F00CFE0EB0BDE8F0819F
:108660000023F5E738B5044604F13005C06E07F085
:108670006EF9284602F06FFF10B1284602F038FF6D
:1086800094F84830022B08D104F15005284602F036
:1086900062FF10B1284602F02BFF20467022002115
:1086A00014F01CFF002084F84800BDE8384002F0B8
:1086B0007BB810B590F84830012B8CB0044602D03E
:1086C0007846FFF791FE01238DF8043001A8636D11
:1086D000029301F069F82046FFF7C4FF0CB010BD0B
:1086E0004B1E012B2DE9F04707468846914602D9DB
:1086F0007846FFF779FEB9F5C07F02D97846FFF7D3
:1087000073FE264B002570229A4602FB053494F82E
:1087100048603EB9484607F018F9E06630B90020D5
:10872000BDE8F0870135042DEFD1F8E73022394656
:10873000204614F0C8FEE664A4F84A90B988B869E7
:10874000FFF7D4FEB8F1010FA0611CD1144B84F8DF
:1087500052601B7D84F8513084F8536084F8506077
:10876000BB6A63656FF00103A3620E4BA3632464CD
:10877000012002F019F8702303FB05A5204685F8B7
:108780004880BDE8F0876FF00103A362064BA36544
:1087900084F868602466054BE8E700BFB036002027
:1087A000983600206D8B020025970200658B020031
:1087B0001FB500220B468DF80F2028B30230086049
:1087C00018460DF10F0103F056FD9DF80F30DBB197
:1087D000144B1B685B0717D5134B1B68032B13DD6A
:1087E0002F21124814F04EFF98B12F210F4814F09A
:1087F00049FF411C0E4B0F4AD3F804350092042068
:1088000040F2A63204F0CAFB9DF80F0005B05DF8F7
:1088100004FB5C21054814F035FF08B15C21E5E755
:108820000249E7E7282E0020242E00201CDD03004B
:108830000010014039DD03002DE9F0479946137817
:10884000D2F81880F2B007468A46144623B19188C0
:108850004046FFF74BFE9061A3786278002BA2F1AF
:10886000080003AD14BF0121022104F10C064242AD
:1088700042412B46304603F000FD627808951FFA0E
:108880008AF5AB1A9BB20997ADF828301F44002334
:10889000ADF83030237B8DF83C20022B04BF102232
:1088A000ADF83020A2780E9712AFC4F818800D975B
:1088B00004F12408002A5ED04FF0000A237BC4F89C
:1088C00024A0022B04BF23690B93206AE17842465F
:1088D00010F01EFB606A40BB237B022B05D13146A2
:1088E000E08910F0D7FB0028E8D1354B1B685B0707
:1088F00018D5344B1B68052B14DD2F21324814F09A
:10890000C1FE002852D02F212F4814F0BBFE411C7D
:108910002E4B2F4AD3F804350092062040F21962FC
:1089200004F03CFB72B0BDE8F08707A9FFF740FFF9
:108930000028CAD06178A28AADF82A206D1A0121D8
:108940008DF8281096E8030000230B938DF81C3057
:108950000CAB83E80300A37D8DF84030236A0E93AF
:1089600007A8636A0897ADF824500F93CDF8449098
:1089700000F01AFFD6E7012B62620CD000234146BB
:10898000A08A636210F008FB07A9606AFFF710FF76
:108990000028AAD0CEE74146E08910F0FDFA07A9E9
:1089A000606AFFF705FF0028E8D0C3E75C210648AE
:1089B00014F068FE08B15C21A6E70349A8E700BFF0
:1089C000282E0020242E00201CDD03000010014072
:1089D00070DD0300C37D0A7830B5002B3DD083786D
:1089E00022F07F0203F07F031A430A700B780278AB
:1089F00003F07F0343EAC2130B70037863B3437839
:108A0000083B5A425A414B7803F07F0343EAC213B2
:108A10004B708A78858802F00302C5F3861442EA17
:108A2000850223F07F032343D2B28A704B70CB7848
:108A3000857903F01F03C5F3C10422F0030243EA62
:108A400045132243DBB2CB708A70C27923F01F0337
:108A500002F01F021343CB7030BD83789B0122F0DC
:108A6000400203F0400313430B70C27823F03F032E
:108A700002F03F0213430B70B8E7000038B590F8DE
:108A80004830012B044602D07846FFF7ADFC02F0D7
:108A90007BFD237B084A012B03BFA37D1569D168A9
:108AA000D16808BF05FB0311014404F13000BDE8A3
:108AB000384002F034BD00BF9836002070B50D4636
:108AC00090B0044610B97846FFF78EFC002120468E
:108AD000FFF75CFD2C22002105A8666D14F0FEFC5A
:108AE000102305A88DF8143006968DF81C5000F060
:108AF0005BFE2046FFF7B6FD154B1B685B071BD5D9
:108B0000144B1B68032B17DD2F21134814F0BAFDFB
:108B1000A0B12F21104814F0B5FD411C0F4BD3F824
:108B20000435029594F8482001920D4A00920420E1
:108B300040F2EF1204F032FA10B070BD5C2106482A
:108B400014F0A0FD08B15C21E4E70349E6E700BFAB
:108B5000282E0020242E00201CDD030000100140E0
:108B6000EBDC030008460021FFF7A8BF10B591F821
:108B70004830012B0C4602D07846FFF735FC94F8BC
:108B800051305BB1013B84F85130002384F8503000
:108B9000084BBDE81040186803F03CBA217B01295E
:108BA000204603D1BDE81040FFF788BFBDE8104064
:108BB000FFF77FBD503600202DE9F04F044689B005
:108BC0000F4609B100230B6004F10C0394F85050D8
:108BD00001934FF001084FF0000BE279954203D961
:108BE000002009B0BDE8F08FE16C08FA05F30B42F4
:108BF0005BD1E37DA571002B0CBF0C2608269542A6
:108C000006FB05FA237808BFB4F84A608DF819B05E
:108C100008BFA6EB0A06002B14BF4FF004094FF063
:108C2000010906EB09030593019B0393A36A0493CF
:108C300003A894F82C308DF8183003F0BAFC002803
:108C4000CFD1079B994445B994F853302BB9A36908
:108C500084F85380C3F30C03A380E37D8BB994F8AD
:108C6000523073B915B17846FFF7BEFBB4F84A101D
:108C700062788A1AE16E23460846FFF7ABFC84F857
:108C8000528007992046FFF7A5FEE16E3246514417
:108C9000484614F018FC03A803F0A7FC17B13B6882
:108CA00001333B606B1C84F850300135EDB294E722
:108CB0002DE9F041D47D8AB006460F461546984608
:108CC000002C00F092809478002C6BD106294AD1B8
:108CD000027843788178920102F4FE5242EA9302CC
:108CE000C3781B0443EA016341790B43017943EAEA
:108CF00001233F49084691F84860012E12D18F8A1E
:108D0000EE89B7420ED18E8896420BD1702202FBBB
:108D10000404E56C1D43E5648BBB03212046FFF78B
:108D2000CDFE20E00134042C01F17001E3D1314B80
:108D30001B685B0717D5304B1B68012B13DD2F21F8
:108D40002E4814F09FFC88B12F212C4814F09AFC77
:108D5000411C2B4B2B4AD3F804350092022040F2E1
:108D6000A75204F01BF90AB0BDE8F0815C2123484A
:108D700014F088FC08B15C21E7E72049E9E72046C8
:108D8000FFF7F6FB854203D12046FFF792FCEAE7A6
:108D9000002184F850102046FFF70EFF2046FFF711
:108DA0006DFEE0E72046FFF7ABFB03460028DAD074
:108DB00005F10C012A6A089203C9AA8AADF81620A7
:108DC00006AA82E80300AA7D8DF824202A788DF86F
:108DD000142095F82C208DF80840039604978DF800
:108DE0002520414602A89847BDE7FFF725FDBAE7D1
:108DF000B0360020282E0020242E00201CDD030089
:108E00000010014099DD0300F0B5C37D154642789E
:108E1000002B2A4414BF4FF480734FF4C073934265
:108E2000C7B00E4677D33F4B03F5E07193F8484047
:108E3000012C07D19F8A848AA74203D1DF89C48984
:108E4000A7426AD070339942F0D10121FFF748FC64
:108E50000446002863D02A463146C06E14F033FB26
:108E6000002304A920460493FFF7A6FE30F0040572
:108E700006464BD1049B13B12046FFF7FFFD2A4B5A
:108E80001B685B0728D5294B1B68032B24DDB4F82E
:108E90004A10274B8029186828BF8021002305AE7F
:108EA0008B421CD100222F21224806F8132014F0F7
:108EB000E9FB10B32F211F4814F0E4FB411C1E4BAB
:108EC0001E4AD3F8043501921D4A0092029640F2E0
:108ED000D142042004F062F8284647B0F0BDE26EAB
:108EE000D25C170902F00F02C75D06F81370875CA9
:108EF00006EB430201335770D2E75C210D4814F0B2
:108F0000C1FB08B15C21D6E70A49D8E72046FFF744
:108F1000A9FB3546E0E70925DEE70825DCE704255F
:108F2000DAE700BFB0360020282E0020242E0020D3
:108F30002C2E00201CDD0300001001400EDD03007C
:108F400032DB03002DE9F041044686B0808A0F46EB
:108F5000164601F0D3FE01284DD1237B002B4AD0C9
:108F6000022B02D12369002B45D094F91630002B37
:108F700043DB22784AB1324639462046FFF744FFA8
:108F80000546284606B0BDE8F081E17D63780029FA
:108F9000334414BF0B210F218B422AD80133039392
:108FA00004F10C030193A36A029301A894F82C30F6
:108FB0008DF810308DF8112003F0FBFA05460028DB
:108FC000DFD10599204601F10108FFF703FDE37D9C
:108FD00043B132463946404614F075FA01A803F011
:108FE00004FBCEE72346324641463846FFF7F2FA05
:108FF000F4E70925C5E71025C3E70725C1E7000009
:1090000010B54FF4E0720021144814F067FA002400
:1090100004F058FF124B13481C602146402214F004
:109020005DFA114B1148124A12499C7583E80500FC
:109030004CF250329A601A6104221A750E48D960B7
:1090400008225A7502F0C8FF0C4B18600C4B0D48F3
:109050001C60BDE8104005F037B800BFB0360020F6
:1090600094360020543600209836002080969800D0
:10907000F049020020A10700819202005036002032
:10908000443600204585020004F0B8BEF0B5044621
:109090008DB000284FD00569002D4CD0C369002B3E
:1090A00049D08669002E46D05A788DF803201A7868
:1090B0000993037BC17A022B04BF214B9B7D002BBC
:1090C00082F0010214BF082304238DF802208DF8DA
:1090D0000130828AC3F10F0019B9824201DC082BEA
:1090E0002BD08242C8BF01218DF8001051B113442A
:1090F0000B330C2193FBF1F3013B8DF80730002378
:109100008DF8063094E8030003AF87E80300218957
:10911000ADF81410A17A8DF81610216A0A91002377
:10912000294668468DF8173008968DF82C30FFF7E1
:1091300009FF0DB0F0BD0E20FBE70720F9E700BFE7
:1091400098360020F0B503468DB00F4600283DD07C
:109150004468002C3AD08569002D37D0027C12F08B
:10916000FD0F35D00278110634D48DF802208268C4
:109170000B2A98BF007B4FF0000188BF01200991A6
:109180008DF800008DF8011030B1D01DC0080138F5
:109190008DF807008DF8061001218DF8171003F1E6
:1091A000100103C903AE86E80300D989ADF8141095
:1091B000197F8DF816105B7F0895214668468DF85B
:1091C0002C300A97FFF7BEFE0DB0F0BD0E20FBE776
:1091D0001020F9E70720F7E7F0B5077B012F8DB0E6
:1091E00004460D4647D101AE0B220021304614F053
:1091F00075F9A1889DF804208DF80950C1F38613F4
:1092000022F07F021A439DF805308DF8042003F008
:10921000030343EA81038DF805302B0E8DF80630E9
:109220002B0C8DF807302B0A8DF808300623069397
:10923000A38AADF82230002309938DF810308DF801
:109240001C30E389ADF81E3094F82C308DF82D30A9
:10925000A37D226A8DF8207005960A9243B96FF0BB
:10926000010104A88DF82C30FFF76CFF0DB0F0BDA4
:10927000024B5B7DF3E70020F8E700BF9836002043
:10928000F7B500241D4E2746351995F84830012BB7
:109290000BD101A928460197FFF78EFC042801D0C5
:1092A000019B13B12846FFF7E9FB7034B4F5E07F6A
:1092B000EAD1124C04F5E07594F84830022B17D12E
:1092C00094F86830022B13D1E16C2046FFF784FF3D
:1092D00070B984F868002046E66CFFF749F98642C9
:1092E00006D120460121FFF751F92046FFF7BAF9D0
:1092F0007034AC42E0D1012003B0F0BDB0360020A4
:109300002DE9F0470D469CB01446984606460028C5
:1093100000F0ED81002A00F0EA810DF10C09002136
:109320000822484614F0DAF8494660880FF0B2FE89
:1093300020B9002738461CB0BDE8F0872269E168F3
:10934000208904F089FD82460028F2D12269E16873
:10935000208904F05BFD0746A8B12C22514610A8D5
:109360002589247C14F0BAF80F238DF840309DF83D
:109370004630ADF8445064F3000310A88DF8463031
:1093800000F012FAD6E70DF14C0A18222146504699
:1093900014F099F8337803F08002111C18BF0121F2
:1093A0008DF840109DF85710E1B103F07F038DF860
:1093B00042308DF841705AB37278B378920102F45A
:1093C000FE5242EA9302ADF84420DB00F27803F04B
:1093D000180343EA521302F01F028DF846308DF84D
:1093E000472015E0C3F380118DF8421003F03F01D0
:1093F0008DF84310190608D596F90130002BACBF43
:10940000042308238DF84130D5E704238DF841303B
:109410000023199398F80030052B02D97846FEF7FF
:10942000E3FF98F80030B54A99E80300D35C8DF863
:109430006C308AE8030002F05FFD9DF84030002B9D
:1094400000F04E81AE4BBDF854200024194693F82D
:10945000480002280DD1988A90420AD1702303FB5C
:109460000414BDF84420A3889A4230D202F084FD4F
:1094700060E70134042C03F17003E8D100249DF867
:10948000403013B97846FEF7AFFF179BBDF8441084
:109490001698BDF854A003F00109FFF727F8994B7F
:1094A00000229E465968884217D15988514514D1E7
:1094B0005978494511D11EF83230002BD6D010A86A
:1094C000FFF756F8014610A8FFF786FECEE7D6D97B
:1094D00005212046FFF7F2FAD0E70132082A03F10E
:1094E0000803DFD1002C51D19DF857209DF847305B
:1094F000002A0CBF0C24082403FB04440CBF4FF4C7
:10950000C0734FF480739C4226D97F4B1B685A0767
:10951000ACD57E4B1B68002BA8DD2F217C4814F0B6
:10952000B1F880B12F217A4814F0ACF8411C794B86
:10953000794AD3F804350092019440F23632012082
:1095400003F02CFD92E75C21714814F09BF808B100
:109550005C21E8E76E49EAE72246022110A8FFF7FE
:10956000BFF8044690B9014610A8FFF735FE2C223B
:10957000214605A813F0B2FF10238DF8143005A87A
:1095800002238DF81C3000F00FF96FE75E4B1B686B
:109590005B071CD55D4B1B68032B18DD2F215C4836
:1095A00014F070F8002800F08A802F21584814F039
:1095B00069F8411C574B9DF84620D3F804350192B9
:1095C000564A0092042040F2513203F0E7FC94F82E
:1095D0004830022B02D07846FEF706FFDFF84091B4
:1095E000D9F800A001F0D0FF0AEB000104F130002F
:1095F00001F095FF237B012B1CD194F86830CBB987
:1096000094F84830022B02D07846FEF7EDFED9F8E8
:10961000043099F81510D9F8082002FB013901F03F
:10962000B3FF00EB090104F1500001F078FF0123C2
:1096300084F868309DF84630E16C01209840014282
:109640007FF414AF0143E164E1799942A5F104028A
:109650009DF857103CD1002914BF08210C2103FBB1
:109660000121E56EA4F84A100CBF0C20082000FB75
:109670000350311D13F027FF2046E56CFEF778FFFD
:1096800085427FF4F3AE022384F86830E16C204613
:10969000FFF7A2FD434605462246B4F84A10E06EA5
:1096A000FFF706FB002D7FF4E1AE204684F86850FA
:1096B0000121FEF76BFF2046FEF7D4FFD6E65C21C2
:1096C000134813F0DFFF08B15C216FE7104971E721
:1096D00079B90C2A0EE004212046FFF7EFF9C5E620
:1096E000434610AA691E701CFFF7E2FABEE60E2779
:1096F00020E6082AEFD1E56E1046B8E7E5DC030066
:10970000B036002054360020282E0020242E0020C1
:109710001CDD0300001001404CDD030060DD030090
:109720009836002010B591F84830022B0C4602D034
:109730007846FEF759FE022384F86830E16C204633
:10974000FFF74AFD08B984F8680010BD2DE9F04123
:1097500088460746E8B1124E3468C4B925464545E7
:1097600007D1104B1F605D60012333602046BDE8C8
:10977000F08107EBC5035B685BB117F835000306A2
:1097800009D450B1FEF7BCFE38B90135E7E704242F
:10979000ECE70E24EAE70B24E8E70F24E6E700BF36
:1097A0004436002048360020F8B5074610B9784600
:1097B000FEF71AFE0F4E346894B10F4D01232B7043
:1097C00023791BB954F8043C384698472468002C88
:1097D000F6D12B78022B03D13168064C09B92970D8
:1097E000F8BD0B790E6813B1204603F05FFB3146DC
:1097F000F4E700BF743800207038002010B504462C
:1098000010B97846FEF7F0FD00232372211D0248AF
:10981000BDE8104003F029BB7438002010B50446A1
:1098200010B97846FEF7E0FD074A1378013B012B9B
:1098300004D8022313700123237210BD211D034895
:10984000BDE8104003F032BB7038002074380020AF
:109850000B888268D25A073222F00302134402882E
:109860009BB2043A934288BF00230B80704713B524
:109870008368CB1A02A921F8023DFFF7E9FFBDF882
:1098800006308068184402B010BD70B50646154613
:109890000C4611BB7846FEF7A7FDFEB17846FEF7F1
:1098A000A3FD6B1E2344B3F1005F34D94FF0805207
:1098B000D2F80C2102F50022B3EB822F2ED2042D18
:1098C00002D87846FEF790FD35800023043D738072
:1098D000B380B4602580A37070BD10B97846FEF7E0
:1098E00083FDB4F1005F12D94FF08053D3F80C31EF
:1098F00003F50023B4EB832FD3D34FF08053D3F879
:109900000C3103F50053B4EB832FC7D2C9E7B4F58C
:10991000000FF2D8C2E7B3F5000F08D94FF080521C
:10992000D2F80C2102F50052B3EB822FC7D3784650
:10993000FEF75AFDC3E738B5044610B97846FEF77E
:1099400053FD6288A36813449B78012B02D17846AB
:10995000FEF74AFDEFF3108572B6A268A1881144A4
:109960008B78032B0AD12046FFF781FFA368C31A27
:1099700063800023837005B962B638BD00239370FD
:109980006380A380F7E7F8B50E461546044610B984
:109990007846FEF729FD16B97846FEF725FD628860
:1099A000A36813449B78012B02D17846FEF71CFD77
:1099B000002D37D02388043B9BB29D4232D8EFF371
:1099C000108772B66188A388EA1D22F003029942CB
:1099D00092B206D25B1A9A4212DD042027BB62B60D
:1099E000F8BD16D92088401A904209D29A42F4D87C
:1099F000032881BFA3685B1804229A700023638048
:109A00006288A1688B188D5201229A700020336001
:109A1000E4E7A26813449B78002BDED19370638047
:109A2000A380EDE70920F8BDF8BDF8B50D46164650
:109A3000044610B97846FEF7D7FC15B97846FEF70C
:109A4000D3FCAB78012B02D07846FEF7CDFC2B88F7
:109A5000B34202D27846FEF7C7FC16B97846FEF745
:109A6000C3FCEFF3108772B60223AB70E1182E80AF
:109A70002046FFF7EDFE6288A38893421FBFA368CC
:109A80009B1800229A7007B962B6F8BD70B50D46F2
:109A9000044610B97846FEF7A7FC15B97846FEF7DC
:109AA000A3FCEFF3108672B6A288A36813449A78D9
:109AB000042A06D1211D2046FFF7CAFEA288A3680A
:109AC00013449A78022A03D0032A08D0052003E021
:109AD00003229A702B60002006B962B670BD7846EA
:109AE000FEF782FCF7E738B5044610B97846FEF772
:109AF0007BFCEFF3108572B6A088A16801448B78D7
:109B0000042B03D12046FFF7B2FE01468878831E5E
:109B10005842584105B962B638BD38B5044610B947
:109B20007846FEF761FCEFF3108572B6A088A16855
:109B300001448878C31E012B05D9831E5842584121
:109B400005B962B638BD2046FFF791FE0146F0E741
:109B5000F8B50D46044610B97846FEF745FC15B930
:109B60007846FEF741FCEFF3108672B6AB78012B16
:109B700019D0032B22D1A288A36813449D4202D09E
:109B80007846FEF731FC0027AF70211D2046FFF715
:109B90005FFEA288A36813449B78042B00D1A780A2
:109BA00006B962B6F8BD6288A36813449D4202D02C
:109BB0007846FEF719FC0023AB70F1E77846FEF714
:109BC00013FCEDE710B5EFF3108472B6828881685C
:109BD00011448B78042B02D1FFF749FE01468878A7
:109BE000B0FA80F0400904B962B610BD0379427939
:109BF0009B1A03F57F2303F6FF7300EB03307047D6
:109C000010B5054884681C22002113F067FC20462B
:109C1000BDE8104003F048BF7838002070B51C4CF8
:109C2000E36813B97846FEF7DFFB237E13B178466D
:109C3000FEF7DAFB6368092B02D97846FEF7D4FBFE
:109C4000144D0026636855F823309847022811D038
:109C500003280DD0012815D163680133092B6360F7
:109C600002D97846FEF7C0FB237E002BEAD00DE038
:109C70006660F9E7237E0BB1207070BDBDE87040CF
:109C8000FFF7BEBF00F0FD000128EDD070BD00BFA2
:109C900078380020C8DD030010B50388044613B9E6
:109CA0007846FEF7A1FB2088074B04EB800030EAE2
:109CB000030203D06288B2F5FE4F04D11C4004F5C4
:109CC00080542078204410BD00F0FFFF70B504469A
:109CD0000E4647F6FE65FFF7DFFFB04207D284422B
:109CE00005D24388013B9BB2AB42F4D870BD002043
:109CF00070BD00000B78032B094B04BF00221A76BD
:109D00001A78012A03D11B7E43B9FFF787BF022AC5
:109D100004D10B78032B01D1FFF772BF704700BF4E
:109D20007838002010B50C4CE3681878002203F551
:109D30008051184404F08CF950B9E1680846FFF7E7
:109D400055FF814206D001F58051E160032010BD2E
:109D5000012010BD022010BD783800201FB50A4B2D
:109D600002221B688DF800200193084A4FF48053AB
:109D700069460120029300F001FFB0FA80F040092B
:109D800005B05DF804FB00BF98380020943800202F
:109D90001FB501230190039102926946044A8DF890
:109DA0000030184600F0EAFE05B05DF804FB00BF85
:109DB000943800202DE9F047264BD8680279417984
:109DC000013A91421E4603D101205876BDE8F08742
:109DD00000F5805320491C781C440B6813F8045F7D
:109DE0001D44FFF703FF6388013B9BB247F6FE6209
:109DF000934200F58057884604D920463946FFF73C
:109E000065FF0446DFF854A04FF0010934B9B4FAF5
:109E100084F4640974760120BDE8F087D8F8001056
:109E20006288284601F5805104F012F905460028A1
:109E3000EDD004225146204686F81890FFF7A8FF7F
:109E400028B920463946FFF741FF0446DEE70020E7
:109E5000BDE8F087783800209838002068DF0300DC
:109E600038B5104CE36818784FF6FF7203F580514F
:109E7000184404F0EDF888B1E36819780B4498426F
:109E80000CD0657E084B09490422002D08BF1946F5
:109E9000FFF77EFF20B90120207638BD012038BDB4
:109EA000002038BD783800206CDF030070DF03002D
:109EB00070B50C4D0C4EE96830680C7804302246C1
:109EC000FFF766FF58B9336804F0FC0404341C44FF
:109ED000EB686C611A7813442B61012070BD00207F
:109EE00070BD00BF783800209838002008B5054BB9
:109EF000054918680422FFF74BFFB0FA80F04009CB
:109F000008BD00BF983800208438002010B5074BEA
:109F1000074C1968E06840F6FC720431FFF738FF1F
:109F200010B90120207610BD002010BD9838002007
:109F30007838002010B50C4CE1680846FFF756FE53
:109F400081420AD1094B0A4918680422FFF720FF11
:109F500040B901232376022010BD01F58051E16054
:109F6000032010BD002010BD783800209838002054
:109F70009C3800202DE9F74F334C236913B97846FC
:109F8000FEF732FA636913B97846FEF72DFADFF867
:109F9000BC9047F6FE6A63692769E06803EA09082E
:109FA000A8EB0308FFF722FE7B88013B9BB25345D9
:109FB00008F5805800F5805B06D938465946FFF70A
:109FC00085FE0746002837D03D4600265D4519D25C
:109FD0002A8806EB8202904509D987EA050313EA2D
:109FE000090F04D16B88013B9BB2534502D956B986
:109FF00001231AE028460192FFF74EFE019A05461A
:10A000001646E3E7F6B1324639466069FFF7C0FE0F
:10A01000A0B9636926F003063344636115B9784635
:10A02000FEF7E2F92561002335B1698847F6FF7232
:10A03000914201D0002BAED0012000E0002003B0FF
:10A04000BDE8F08F0123EFE77838002000F0FFFF34
:10A050001FB50A4B0222DB688DF800200193084AE5
:10A060004FF4805369460120029300F087FDB0FA57
:10A0700080F0400905B05DF804FB00BF783800208F
:10A080009438002010B54FF010235A69013225D0C2
:10A090005A691AB35B69A3F58053A3F58053174A35
:10A0A000196813604B1E033325D8C1F30B0313BB90
:10A0B000134A1448D1600121117013491376537665
:10A0C000936051F8234084420ED153600F49012020
:10A0D00000F044FDFFF7A2FD012010BD4FF08052BB
:10A0E000516913694B43D8E701330A2BE9D178460C
:10A0F000FEF77AF9EAE7002010BD00BF983800208B
:10A100007838002051A00200C8DD0300F59C020051
:10A1100010B5044610B97846FEF766F9094B187871
:10A1200070B1E068D9684379A0EB0333994206D354
:10A13000FFF75CFD81428CBF0020012010BD002094
:10A1400010BD00BF78380020024B1878003018BFCF
:10A15000012070477838002038B50E4C237805462A
:10A1600013B17846FEF740F92B78032B02D07846DE
:10A17000FEF73AF9EB68E360012000230649A56089
:10A18000636023762070637600F0E8FCBDE8384019
:10A19000FFF744BD78380020F59C0200014B186899
:10A1A000704700BF9838002010B5044610B97846B3
:10A1B000FEF71AF963681BB123680BB1A36813B9E2
:10A1C0007846FEF711F9A3685A1E1A4202D0784663
:10A1D000FEF70AF90023E360236110BD70B50E4657
:10A1E0000446F0B18368F3B1EFF3108572B60169EC
:10A1F000C368994203D105B962B605250FE04EB197
:10A200008368013B0B4090E80600304602FB0311D7
:10A2100013F059F923690133236135B962B6284631
:10A2200070BD0E25FBE70925F9E70025F7E70000DB
:10A23000024AD2F80034002BFBD0704700E0014006
:10A24000C0F30B0310B5E3B9E9B1104C0223C4F815
:10A250000435FFF7EDFF01F6FF7121F47F6121F076
:10A260000F010144884205D10020C4F80405FFF71E
:10A27000DFFF10BDC4F80805FFF7DAFF00F58050D6
:10A28000F0E7102010BD092010BD00BF00E0014024
:10A2900070B540EA010414F003041BD1E2B1950744
:10A2A0001AD10E4E0123C6F804359508FFF7C0FFFA
:10A2B000AC4205D10020C6F80405FFF7B9FF70BD18
:10A2C00051F824305A1C03D040F82430FFF7B0FF77
:10A2D0000134EDE7102070BD092070BD00E00140A1
:10A2E0004388012B05D0022B01D1043008600120E6
:10A2F000704704304860FAE708B50822022109488F
:10A3000003F029FA20B90848BDE8084003F0A4BBCF
:10A31000064A91684160127B0272BDE8084003F072
:10A3200049BA00BFA8380020E82D0020F4380020EA
:10A3300010B5044610B97846FEF756F82346BDE836
:10A340001040184700B50A4B1A7B9B688DB0012A54
:10A3500008BF03F1FF3303900CA80493022300F815
:10A360002C3D8DF80820FFF71FFA0DB05DF804FBB7
:10A37000F438002038B50E4D2B78C3B90D4B5C680E
:10A3800004F50054B4F1807F11D8042201210A4859
:10A3900003F0E1F920B90948BDE8384003F05CBB9F
:10A3A000012344602B70BDE8384003F003BA38BD88
:10A3B00008390020F4380020A8380020D82D0020CB
:10A3C00010B501210C4803F00BFA80B902210A48AC
:10A3D00003F006FA044650B901461422074813F068
:10A3E0007DF8074B1C70BDE81040FFF7C3BF054860
:10A3F00003F032FBF7E700BFA8380020F438002054
:10A40000CC380020082E002030B50D468DB07AB92A
:10A410004B88012B0AD1124C227812B97846FDF7ED
:10A42000E3FF104B6A685A60002323700DB030BD03
:10A43000032A02D07846FDF7D7FF2C22002101A87D
:10A4400013F04CF811238DF80430074B0395DA68AC
:10A450001B69059201A80693FFF7A6F9E6E700BF7E
:10A4600008390020F4380020A838002013B501F086
:10A4700043FD00216B46124A12480091019103F0FE
:10A48000BDF8009B104C0BB1019A6AB90023236000
:10A49000A3602373FFF730FF23686360FFF76AFF51
:10A4A00001F06AFD02B010BD1968A160197921732D
:10A4B000934203D91B790BB92360EDE71368FBE7DF
:10A4C000E1A20200A8380020F438002008B503F00B
:10A4D00011FBA0F5805008BD7FB500211822684609
:10A4E00012F0FCFF00230293FFF7F0FF012300901E
:10A4F00001936946054B0648039303F098F910B1A0
:10A50000044803F0A9FA07B05DF804FB09A40200AF
:10A51000A8380020F82D002008B5142200210A4890
:10A5200012F0DCFF01F030F8084B094A9A60094A42
:10A53000DA60002258601A615A61074B1A70BDE850
:10A540000840FFF7C9BF00BFF4380020D038002012
:10A5500049A60200008793030939002010B5074C73
:10A5600023784BB90648074B036000F09FFD06486F
:10A5700000F09CFF0123237010BD00BFA438002011
:10A58000E8380020B1A60200D038002010B501F054
:10A59000B3FC104A117B1346C9B9917BB9B9118A32
:10A5A00041F28262914202D80B4A12787AB10122BA
:10A5B0001A739A68002401321C829A60FFF79CFE8D
:10A5C0002046FFF7BFFE01F0D7FC204610BD08244F
:10A5D000F9E700BFF43800200939002010B501F078
:10A5E0008BFC174B5A7B42B1997B99B9188A41F27F
:10A5F0008261884201D8134A127802F001047AB1CC
:10A600001A7B002058733AB1012A0DD07846FDF725
:10A61000EBFE05E00022F0E7FFF7B8FF0028F5D1D8
:10A6200001F0AAFC204610BD18605860187318820B
:10A63000FFF788FEFFF760FEFFF79CFEF0E700BF24
:10A64000F43800200939002038B5174C257B2DB18E
:10A65000012D12D07846FDF7C7FE21E0228A41F293
:10A6600082639A4202D8114B1B78CBB1FFF7B6FF39
:10A67000638A0BB1013B638238BD238A41F2826257
:10A68000934202D8094A157855B142F2B01293426A
:10A6900082BF012300256373FFF7A0FF002DE7D0E1
:10A6A000238A01332382E3E7F438002009390020AC
:10A6B00038B50378042B3FD143681B78002B3BD07F
:10A6C0001E4B4469197B027E81BB598A11BB012A4A
:10A6D0009A6802D0944203D838BD013294421BD903
:10A6E0009A682A32944227D89A7B2ABB85681A60D6
:10A6F00042F606519C605A601A8259825A731A7344
:10A70000FFF7FAFDFFF736FE05F11000BDE838400F
:10A71000FFF718BE012A0FD19A68013294420BD17B
:10A7200001225A73BDE83840FFF758BF012903D111
:10A73000012A01D09A68F1E738BD00BFF438002043
:10A7400038B5164C94E80C009A4205461FD2207B7F
:10A750001349144B012808BF0B46934207D963687D
:10A760002268403B9A4208D3FFF704FE05E001232C
:10A770006373FFF733FF0028F1D0EFF3108072B658
:10A7800023685A1C22602B6028B962B638BDFFF7D7
:10A79000F1FD0F2038BD002038BD00BFF438002087
:10A7A00000E0FF00FFFF7F0010B50C4C30B10C4BF8
:10A7B00001229A7323681344236010BD236813B9E0
:10A7C0007846FDF711FE2368013B23602BB9044A4C
:10A7D0009373BDE81040FFF701BF10BDA038002003
:10A7E000F438002000B58DB00323ADF808000CA8A4
:10A7F0008DF8102000F82C3D0391FEF7D5FF0DB029
:10A800005DF804FB014B9868704700BFF4380020E6
:10A81000034B1A7B9868012A08BF00F1FF3070478C
:10A82000F4380020044B9B685840C20748BF03F12E
:10A83000FF331846704700BFF4380020014B187BE7
:10A84000704700BFF438002038B50A4B1C787CB93B
:10A85000094D01221A702973A860FFF74DFD2046AB
:10A86000FFF770FD2C606C60FFF784FD204638BD5B
:10A87000082038BDCC380020F43800202DE9F843FA
:10A880001D4CDFF8789000260221204602F083F963
:10A890005FFA86F805460027ADB967B1294620461C
:10A8A00002F0E1F9082806D154F8043C1BB12A460D
:10A8B0004946404698470136032E04F1BC04E3D1D3
:10A8C0000120BDE8F88354F8043C23B134F80C2C83
:10A8D00029464046984734F80C3C013324F80C3C98
:10A8E0000221204602F073F90221204602F053F9BA
:10A8F00001370546D0E700BF20390020F0DD030016
:10A9000038B5012104460C3002F045F9054628B35C
:10A91000164BC4F89C300023C4F8A030037862685A
:10A92000012B07D0022B1BD07846FDF75DFD4FF4BD
:10A93000FA7307E081688B1A99084FF4A9734B43A7
:10A9400003F5FA730A4A934294BFC4F8A830C4F8D6
:10A95000A8200123C4F8AC4084F8B830284638BD9C
:10A9600083689B1A1A0B034B5343E9E799A902002A
:10A9700060850100645E010010B50446FFF7C0FF6A
:10A9800048B104F19C0005F075FC20B17846BDE8A3
:10A990001040FDF729BD10BD2DE9F74F4A4B1B783C
:10A9A00080460D463BB105F09BFC002385F8B8308E
:10A9B00003B0BDE8F08F01F10C09D1F8A87048464A
:10A9C000012102F0E8F8064610B97846FDF70CFDC3
:10A9D000DFF8FCA0A7F5FA7700244FF4A97B3378C1
:10A9E000012BA7EB040406D0022B3BD07846FDF7E1
:10A9F000FBFC00231FE06B68B268B4FBFBF4D21AC7
:10AA0000A400944228BF144624B901937846FDF768
:10AA1000EBFC019BF168706823F0030322461944A4
:10AA20001844FFF735FC10B17846FDF7DDFC6B6884
:10AA30001C446C60B3686A689A422AD105F050FCE5
:10AA40004846012102F0C3F800236B6085F8B83056
:10AA50001E4B186801F0DEFA284603B0BDE8F04F3F
:10AA6000FFF78ABF6B68B268B4FBFAF4D21A24030A
:10AA7000944228BF144624B901937846FDF7B4FCEC
:10AA8000019B706823F0030321461844FFF7D8FBAD
:10AA9000C9E701F01FF93378B0EB080448BFA8EB11
:10AAA0000004012B0DD0022B06D1534623449F42B4
:10AAB00095D205F015FCCFE77846FDF795FC00230D
:10AAC000F4E74FF4A973F1E7103900200C390020A6
:10AAD000645E0100F8B51E481E4C01F07DFA1E4B65
:10AAE000186004F11C03082710260325636104F194
:10AAF0000C0004F118032361A7736673257302F039
:10AB00008DF804F1D803C4F8D03004F1C80004F182
:10AB1000D403C4F8CC3084F8CA7084F8C96084F8CF
:10AB2000C85002F07BF804F5CA73C4F88C3104F500
:10AB3000C87384F8867184F8856184F88451C4F8F8
:10AB4000883104F5C270BDE8F84002F067B800BF74
:10AB50007DA80200143900200C390020022838B5E5
:10AB600004460D4602D97846FDF73EFC024BBC2256
:10AB700002FB0434A56038BD1439002002282DE9F9
:10AB8000F84F07460C46924602D97846FDF72CFC52
:10AB900014B97846FDF728FC2378012B12D163689D
:10ABA000990702D07846FDF71FFCE3689A0702D0A8
:10ABB0007846FDF719FCA3689B0711D07846FDF78E
:10ABC00013FC0DE0022B0DD16368C3F30B0313B12B
:10ABD0007846FDF709FCA368C3F30B03002BEDD106
:10ABE000A36813B97846FDF7FFFBEFF3108872B640
:10ABF000BC257D43224E05F10C09B1440021484695
:10AC000001F0C9FF834690B30021484601F0DFFF01
:10AC100010222146584612F056FCBAF1000F03D01C
:10AC200073195B88AAF80030BC2303FB07677B8895
:10AC300097F8B84001337B8004BB124B1F78BFB933
:10AC40007019FFF75DFEB8F1000F0ED162B64446F1
:10AC500040B105F19C00304405F00CFB10B1784682
:10AC6000FDF7C2FB2046BDE8F88F3C46F0E7042420
:10AC7000B8F1000FF6D1A0460020E7E70024F7E77F
:10AC8000143900201039002070B5EFF3108672B629
:10AC9000154C236818BB13B97846FDF7A5FB23684C
:10ACA000013B236093B9114D95F8B83013B928468C
:10ACB000FFF762FE95F8743113B90D48FFF75CFE9B
:10ACC00095F8303213B90B48FFF756FE23680A4A4D
:10ACD000003318BF0123137026B962B670BD01336B
:10ACE0002360F3E770BD00BF483B0020143900200B
:10ACF000D03900208C3A00201039002010B1800B90
:10AD0000014B185C704700BF00DE030012DF704784
:10AD100013B5137863B1042B0CBF0723002310F87D
:10AD2000011C292962D005D8162973D002B010BDA4
:10AD3000537DF4E72A2927D02B29F7D1022BF5D10F
:10AD400010F8021C0139C9B203F0EAF804460028E1
:10AD5000ECD0374B1B685B06E8D5364B1B68012BE4
:10AD6000E4DD2F21344812F08DFC002849D02F213A
:10AD7000314812F087FC411C304B314AD3F804357E
:10AD800000920194A42224E0022B01D0072BCDD104
:10AD900010F8021C013901F04BFC04460028C5D014
:10ADA000234B1B685A06C1D5224B1B68012BBDDD06
:10ADB0002F21214812F066FC78B12F211E4812F095
:10ADC00061FC411C1D4B1F4AD3F8043500920194CD
:10ADD0009122022002F0E2F8A8E75C21164812F066
:10ADE00051FC08B15C21E9E71349EBE7022B9DD147
:10ADF00010F8021C0139C9B202B0BDE8104010F0D1
:10AE000029B85C210C4812F03DFC08B15C21AFE789
:10AE10000949B1E701884FF6E463994286D110F8F9
:10AE2000021C0230033902B0BDE81040FDF7D6B96C
:10AE3000282E0020242E002029DE030000100140CF
:10AE40006EDE030045DE030070B58AB005F0DEFE5D
:10AE50000446002834D000238DF8103006460FCE6B
:10AE600005AD0FC533682B60627D052A0CD9207DA6
:10AE700000F00F03072B07D004AB063A04F11D01C5
:10AE800000F00F0004F094FD114B1A68AAB104AB56
:10AE90000393237DC3F303038DF80430637D062BF6
:10AEA00089BF063B00238DF8053004F11D0398BFD0
:10AEB0008DF80530029301A89047204605F090FEDA
:10AEC00005F0BCFE80F00100C0B20AB070BD00BF4A
:10AED000503B002000B50A4B1A78032A8DB00CD1E4
:10AEE00004221A7000212C2201A812F0F7FA1B2369
:10AEF00001A88DF80430FEF757FC0DB05DF804FB97
:10AF00004C3B0020F7B52E4F3A780546002A4DD12C
:10AF100000284DD0067A0F2E01D0062E4AD104F01B
:10AF200013FDE86800283ED0FDF770FA0DF1070028
:10AF3000FFF7ECFE044698BB9DF80730012B3BD190
:10AF4000FDF78EFA00F09CFA304600F085FFE878B5
:10AF500000F024F900F0B8FD05F02AF9194805F0D1
:10AF600005FF04F097FEFFF7B5FD03F031FF00F099
:10AF700057FC04F0A9FC284601F002FB2846FEF726
:10AF80003FF803F049FBFDF729F908B1062815D170
:10AF90000D4804F0DFFC0D4B00221A6001233B70CA
:10AFA000204603B0F0BDFDF739FABFE70824F7E704
:10AFB0000E24F5E70724F3E70224F1E70446EFE760
:10AFC0004C3B002049AE0200182E0020503B0020D0
:10AFD00037B5244D2A78012A05D002D3033A012A35
:10AFE00038D9082428E005F0DDFD01F0DBFAFEF792
:10AFF0004BF8FDF7F3F8044650B3062828D01A4B57
:10B000001B685B0418D5194B1B68012B14DD2F211D
:10B01000174812F037FB90B12F21154812F032FB80
:10B02000411C144B144AD3F804350092019440F2A9
:10B030009712022001F0B2FF204603B030BD5C2120
:10B040000B4812F01FFB08B15C21E6E70849E8E76E
:10B0500000F02EFF05F000F904460028ECD1022391
:10B060002B70E9E74C3B0020282E0020242E0020E6
:10B0700029DE03000010014004DE030008B5084B80
:10B080001A78022A0AD1032206481A7005F0B2F88B
:10B0900028B17846FDF7A8F9002008BD082008BDB2
:10B0A0004C3B0020D5AE0200FDF7F0BFFEF7A6BB7B
:10B0B000FEF7B4BB08B500F0D7FC002008BD07F0D0
:10B0C00035B90000044B1A680132B2F1704F08BF65
:10B0D00001221A6018687047543B002010B50446DE
:10B0E00010B97846FDF780F900232360636010BD36
:10B0F00038B50D46044610B97846FDF775F915B90F
:10B100007846FDF771F900236B60EFF3108372B698
:10B11000226822B92560656003B962B638BD6268ED
:10B120005560F8E710B5044610B97846FDF75CF9AC
:10B13000EFF3108272B6206808B143682360236879
:10B1400003B9636002B962B610BD10B5044610B908
:10B150007846FDF749F9206810BD35DF70473CDFC0
:10B160007047000008B503464FF0FF30FFF7F5FFCA
:10B170004FF0FF311846FFF7F2FFBFF34F8F05493D
:10B18000054BCA6802F4E0621343CB60BFF34F8FF4
:10B1900000BFFDE700ED00E00400FA0507289ABFB4
:10B1A000024B33F81000FA20704700BF9ADE03000C
:10B1B000024B5868103840B2704700BF00ED00E005
:10B1C000084A202390FBF3F352F82330424202F066
:10B1D0001F0200F01F0058BF504223FA00F000F099
:10B1E0000100704700E100E046DF704730B501F133
:10B1F00010031032103013F8014D12F8015D8B422C
:10B2000084EA050400F8014DF5D130BD2DE9F04781
:10B21000144690B002F10F05102288462D11014608
:10B220000DEB0200994604F00F0412F04CF90DB139
:10B23000002C44D04FF0000A02261022002108A85A
:10B2400012F04CF904A8FFF7CFFF01220DF13F01E6
:10B2500010AB13F9100D1F46994234D19DF83F30C1
:10B2600001325B00DBB20028D2B2B8BF83F08703A3
:10B2700096428DF83F30EBD2013D6E46BAF1000F99
:10B280002CD03A4608EB05113046FFF7AFFF1022ED
:10B290000021384612F022F90024AC4234DB3A4651
:10B2A000314608A8FFF7A2FF04A8FFF79DFF102270
:10B2B0003946484612F007F910B0BDE8F0874FF064
:10B2C000010A5646B9E793F801E093F800C04FEA47
:10B2D000DE1E4EEA4C0E03F801EBBDE7224608EBFA
:10B2E0000511684612F0EFF810AB234480220134B8
:10B2F00003F8402C6C44A31B102B02D13A46314674
:10B30000C2E704F801ABF6E708EB0412394608A8D7
:10B31000FFF76CFF04A8FFF767FF0134BDE70000EB
:10B3200038B5124B1A6804462AB11A684568526843
:10B33000AA1A002A0DDA1A6862611C609A88013222
:10B3400092B29A8012B97846FDF74EF80123237025
:10B3500038BD19684A691AB15068401B002802DBE1
:10B3600062614C61EAE71146F4E700BF5C3B0020F4
:10B3700010B5124B1A68824204461A460BD1426934
:10B380001A609A8892B2511E89B299808AB9784619
:10B39000FDF72AF80DE01B685BB159698C420BD1AF
:10B3A0006169596193889BB2591E89B29180002BC3
:10B3B000EDD00023237010BD0B46EDE75C3B002071
:10B3C000014B186800F026BE583B0020044B1A6859
:10B3D00022B11B680349586800F062B900F0B6B9A1
:10B3E0005C3B0020C1B302002DE9F04100F0CCF835
:10B3F000224E054637464FF00008336823B13368C4
:10B400005B685B1B642B06D400F0BEF8FFF7DEFF21
:10B410000120BDE8F08134682378012B02D0784602
:10B42000FCF7E2FF63693B60BB88C4F814809BB201
:10B430005A1E92B2BA8013B97846FCF7D5FFA368BA
:10B4400013B97846FCF7D0FF022328462370216900
:10B45000A368984700F098F82378022B0546CCD1D2
:10B46000E2680AB92270C8E763681344591B64296B
:10B47000FBD463602046FFF753FFBEE75C3B002030
:10B4800008B508220021064812F028F8054800F007
:10B49000A3FD054B1860BDE8084000F067B800BF89
:10B4A0005C3B0020E9B30200583B002010B5044685
:10B4B00000F088FE10B97846FCF796FF14B978467C
:10B4C000FCF792FFA36813B97846FCF78DFF237849
:10B4D000012B02D17846FCF787FF002363612046E9
:10B4E000FFF71EFF00F050F8BDE81040FFF76EBFF9
:10B4F00010B5044600F066FE10B97846FCF774FFFC
:10B5000014B97846FCF770FF2046FFF731FF00239F
:10B51000636100F039F8BDE81040FFF757BF38B558
:10B5200004460D4600F04EFE10B97846FCF75CFF6D
:10B5300014B97846FCF758FF2046FFF719FF00239F
:10B54000636120466560FFF7EBFE00F01DF8BDE883
:10B550003840FFF73BBF0378DBB2012B04D0007803
:10B56000831E5842584170471846704708B50EF080
:10B5700023F938B90EF05CF820B17846BDE80840F0
:10B58000FCF732BF08BD000010B5EFF3108072B6B3
:10B590000C4A0D4B1968D2F80435D2F80441012C3D
:10B5A00004BFD2F80435013100B962B6074843EA56
:10B5B00001614FF480420023E0FB0123D00B40EAFD
:10B5C000434010BD00100140643B002040420F008A
:10B5D00010B50A4B0A4C4FF40032C3F84823C3F8A5
:10B5E0000823226812B97846FCF7FEFE2468FFF7AC
:10B5F000CBFF2346BDE81040184700BF00100140B4
:10B60000703B002010B5EFF3108272B61F4B20483C
:10B610000021C3F8041101680131016002B962B66A
:10B620001C4A116800292FD0116801391160126875
:10B6300052BB194AD3F804051168884217D2EFF3B8
:10B64000108072B6D3F8041514680131A1422ABFE4
:10B65000D3F8042512680232C3F8442500B962B653
:10B660004FF40032C3F84423C3F8042310BD0B4C3D
:10B67000226812B97846FCF7B7FE2468FFF784FF0A
:10B680002346BDE81040184710BD00BF0010014020
:10B69000643B0020683B00206C3B0020703B002096
:10B6A00037B50023044601930D4611B97846FCF7DF
:10B6B0009BFE204B1D60FFF767FF031B002BB8BFED
:10B6C000241A1D481D4AA8BF00244FF4004500213C
:10B6D0000023E5FB040111F017FDEFF31083019344
:10B6E00072B6174A174CD2F804350228C3F1FF117D
:10B6F00001F57F4138BF02208842134910D8034426
:10B70000C2F844354FF40033C2F84433C2F804336E
:10B71000002323600B60019B03B962B603B030BD08
:10B7200003F17F43013303441A0E0132226023F0F8
:10B730007F43EFE7703B002020A1070040420F004D
:10B7400000100140683B00206C3B0020074B4FF489
:10B750000032C3F84823C3F80823054A00231360C6
:10B76000044A1360044A1360704700BF0010014090
:10B77000683B00206C3B0020703B002030DF7047AE
:10B7800031DF704710B5034605C89C68D968A0EB47
:10B79000721082EAF4320C44014410441A605C6076
:10B7A0009960D86010BD37B50C46054610B978468B
:10B7B000FCF71AFE0023A34201D303B030BD0DF104
:10B7C0000700FFF7DBFF9DF807100029F7D0E21A0A
:10B7D000914288BF8DF80720E8189DF80710FFF701
:10B7E000CFFF9DF807201344E5E7000037B5044676
:10B7F00002A8002340F8043D0421FFF7D4FF074BC3
:10B800002360019B6360A360E36014252046FFF77B
:10B81000B9FF013DFAD103B030BD00BFED5EEAF1E2
:10B82000704748DF704749DF70474ADF70470000C4
:10B83000064A032313741168054B536140F6D8621E
:10B84000914288BF43F2B0629A607047A03B0020EB
:10B85000C03B0020054B1B68A0F1780228335843F9
:10B86000034BB0FBF3F0101A704700BFBC3B002045
:10B8700040420F0038B50E4A0E4C01236371136825
:10B88000002501331360257400F07EFA04F096FD64
:10B890002068FFF7DFFF084A0146284600F0E8F974
:10B8A00020B17846BDE83840FCF79EBD38BD00BFEA
:10B8B000D43B0020A03B002031B802001D4B30B12A
:10B8C000DA6859690132DA601A680A441A609968BC
:10B8D00001221A745A6901315208012999605A618A
:10B8E0000DD0022919D05A691B68134913448B42A1
:10B8F00003D840F6D7639A421BD8FFF7BBBFB2F517
:10B90000FA7F03D130B900225A61ECE740F6D861E2
:10B910008A42E8D840F6D862F6E7DA68022A03D10C
:10B920001968054A521AEFE7012ADCD10028EAD04B
:10B93000D9E77047A03B00208096980070B5424C34
:10B94000424E0123237133781BB1414B1D78002DEA
:10B950005BD000232374042853D8DFE800F0034DA4
:10B960004A4844003B4DA179AA68A360E36023687C
:10B970002260002934D0012121743749002B08BFEF
:10B980000B46991AB1F57A7F26D39A4224D8616181
:10B9900043F2B0620123AA6043F698226B71EA6019
:10B9A000A371237C023B012B0DD8637943B104F0D2
:10B9B00021FD2068FFF74EFF00F01CFA00236371A1
:10B9C000234B00221A70237C2448022B04BF01233E
:10B9D00023760023237170BD4FF47A736361D7E738
:10B9E000FFF748FFD4E70120FFF768FFD9E7002001
:10B9F000FAE704F099FCD4E700F08CF904F0CCFCF1
:10BA0000CFE77846FCF7F0FCCBE700F063F933783A
:10BA10002060022B0FD0032B06D0012B10D1022364
:10BA2000237400233370BCE70A4B0D4A9A600D4A19
:10BA30005D71DA60A57103232374064B6361F0E73F
:10BA40007846FCF7D1FCECE7A03B0020D13B00207E
:10BA5000D03B0020C03B002080969800B03B0020E7
:10BA6000A0860100FF1FA107043808B5042825D8C7
:10BA7000DFE800F016220A030F00114B1B7E012B9A
:10BA80001CD1FFF7D0FEC8B17846BDE80840FCF7EE
:10BA9000ABBC0B4B00221A76BDE8084004F0E2BCB8
:10BAA00008480123437143F69823C36040F6D863E6
:10BAB0008360FFF7BAFEE6E70248FAE708BD00BF79
:10BAC000A03B0020C03B00200D4A10B543F2B064FB
:10BAD00000230121946043F698241370137151716F
